{
  "transactions": [
    {
      "hash": "0x010710b289ad8eb376ebe98610ac8f18db827420ea669c92c40bd335df80ac52",
      "transactionType": "CALL",
      "contractName": null,
      "contractAddress": "0x5b084c358686e6865c9cb97354edbe8392d72fec",
      "function": "configure(address,uint32,uint32,uint64)",
      "arguments": [
        "0xdAC17F958D2ee523a2206206994597C13D831ec7",
        "604800",
        "259200",
        "55340232221128654"
      ],
      "transaction": {
        "from": "0x00000c771f6176268d5a9846e0956c3ef58597a1",
        "to": "0x5b084c358686e6865c9cb97354edbe8392d72fec",
        "gas": "0x10507",
        "value": "0x0",
        "input": "0x97c93668000000000000000000000000dac17f958d2ee523a2206206994597c13d831ec70000000000000000000000000000000000000000000000000000000000093a80000000000000000000000000000000000000000000000000000000000003f48000000000000000000000000000000000000000000000000000c49ba5e353f7ce",
        "nonce": "0x1e5",
        "chainId": "0x1"
      },
      "additionalContracts": [],
      "isFixedGasLimit": false
    }
  ],
  "receipts": [
    {
      "status": "0x1",
      "cumulativeGasUsed": "0xf8b48b",
      "logs": [
        {
          "address": "0x5b084c358686e6865c9cb97354edbe8392d72fec",
          "topics": [
            "0x1cb8dc9fb801507be56f80e9cf81c299d07d04c36d7bf219a0af692cf69de013"
          ],
          "data": "0x000000000000000000000000dac17f958d2ee523a2206206994597c13d831ec70000000000000000000000000000000000c49ba5e353f7ce0003f48000093a80",
          "blockHash": "0x16cd33c3d0a0134a598224f7379a589248631616525ec958f1f758962c241ed9",
          "blockNumber": "0x17ca30d",
          "blockTimestamp": "0x69ea92e7",
          "transactionHash": "0x010710b289ad8eb376ebe98610ac8f18db827420ea669c92c40bd335df80ac52",
          "transactionIndex": "0xb6",
          "logIndex": "0x1c5",
          "removed": false
        }
      ],
      "logsBloom": "0x00000000000000000000000000000000000000000000000000000000020000000000000000000000000000000000080000000000000000000000000000000000000000000000000000000000000000000000000000000000000000000000004000000000000000000000000000000000000000008000000000000000000000000000000000000000000000000000000000000000000000000000000000040000000000000000000000000000000000000000000000000000000000000000000000000000000100000000000000000000000000000000000000000000000000000000000000000000000000000000000000000000000000000000000000000000",
      "type": "0x2",
      "transactionHash": "0x010710b289ad8eb376ebe98610ac8f18db827420ea669c92c40bd335df80ac52",
      "transactionIndex": "0xb6",
      "blockHash": "0x16cd33c3d0a0134a598224f7379a589248631616525ec958f1f758962c241ed9",
      "blockNumber": "0x17ca30d",
      "gasUsed": "0xbcfc",
      "effectiveGasPrice": "0x1bcda370",
      "from": "0x00000c771f6176268d5a9846e0956c3ef58597a1",
      "to": "0x5b084c358686e6865c9cb97354edbe8392d72fec",
      "contractAddress": null
    }
  ],
  "libraries": [],
  "pending": [],
  "returns": {},
  "timestamp": 1776980715392,
  "chain": 1,
  "commit": "d84feb1"
}