{
  "transactions": [
    {
      "hash": "0xd1217fcbc992aeb74bb1ff27732f3d7f182cd776f87ac0df3d1d4dd0b9e29845",
      "transactionType": "CALL",
      "contractName": null,
      "contractAddress": "0x5b084c358686e6865c9cb97354edbe8392d72fec",
      "function": "configure(address,uint32,uint32,uint64)",
      "arguments": [
        "0xA0b86991c6218b36c1d19D4a2e9Eb0cE3606eB48",
        "604800",
        "259200",
        "55340232221128654"
      ],
      "transaction": {
        "from": "0x00000c771f6176268d5a9846e0956c3ef58597a1",
        "to": "0x5b084c358686e6865c9cb97354edbe8392d72fec",
        "gas": "0x10507",
        "value": "0x0",
        "input": "0x97c93668000000000000000000000000a0b86991c6218b36c1d19d4a2e9eb0ce3606eb480000000000000000000000000000000000000000000000000000000000093a80000000000000000000000000000000000000000000000000000000000003f48000000000000000000000000000000000000000000000000000c49ba5e353f7ce",
        "nonce": "0x1e4",
        "chainId": "0x1"
      },
      "additionalContracts": [],
      "isFixedGasLimit": false
    }
  ],
  "receipts": [
    {
      "status": "0x1",
      "cumulativeGasUsed": "0x1b44f4d",
      "logs": [
        {
          "address": "0x5b084c358686e6865c9cb97354edbe8392d72fec",
          "topics": [
            "0x1cb8dc9fb801507be56f80e9cf81c299d07d04c36d7bf219a0af692cf69de013"
          ],
          "data": "0x000000000000000000000000a0b86991c6218b36c1d19d4a2e9eb0ce3606eb480000000000000000000000000000000000c49ba5e353f7ce0003f48000093a80",
          "blockHash": "0x23fd05893533dba09fa4ca726ca4e4ade9d601e730ba66df90048085c186c142",
          "blockNumber": "0x17ca30c",
          "blockTimestamp": "0x69ea92db",
          "transactionHash": "0xd1217fcbc992aeb74bb1ff27732f3d7f182cd776f87ac0df3d1d4dd0b9e29845",
          "transactionIndex": "0xe3",
          "logIndex": "0x360",
          "removed": false
        }
      ],
      "logsBloom": "0x00000000000000000000000000000000000000000000000000000000020000000000000000000000000000000000080000000000000000000000000000000000000000000000000000000000000000000000000000000000000000000000004000000000000000000000000000000000000000008000000000000000000000000000000000000000000000000000000000000000000000000000000000040000000000000000000000000000000000000000000000000000000000000000000000000000000100000000000000000000000000000000000000000000000000000000000000000000000000000000000000000000000000000000000000000000",
      "type": "0x2",
      "transactionHash": "0xd1217fcbc992aeb74bb1ff27732f3d7f182cd776f87ac0df3d1d4dd0b9e29845",
      "transactionIndex": "0xe3",
      "blockHash": "0x23fd05893533dba09fa4ca726ca4e4ade9d601e730ba66df90048085c186c142",
      "blockNumber": "0x17ca30c",
      "gasUsed": "0xbcfc",
      "effectiveGasPrice": "0x1a9dc19a",
      "from": "0x00000c771f6176268d5a9846e0956c3ef58597a1",
      "to": "0x5b084c358686e6865c9cb97354edbe8392d72fec",
      "contractAddress": null
    }
  ],
  "libraries": [],
  "pending": [],
  "returns": {},
  "timestamp": 1776980701599,
  "chain": 1,
  "commit": "d84feb1"
}