{
  "transactions": [
    {
      "hash": "0x3e134bd640d527faec1ea9a9d256aa8f0fd87cd5f378737377cd33e2e3269d65",
      "transactionType": "CALL",
      "contractName": null,
      "contractAddress": "0x5b084c358686e6865c9cb97354edbe8392d72fec",
      "function": "configure(address,uint32,uint32,uint64)",
      "arguments": [
        "0x2260FAC5E5542a773Aa44fBCfeDf7C193bc2C599",
        "604800",
        "259200",
        "55340232221128654"
      ],
      "transaction": {
        "from": "0x00000c771f6176268d5a9846e0956c3ef58597a1",
        "to": "0x5b084c358686e6865c9cb97354edbe8392d72fec",
        "gas": "0x10507",
        "value": "0x0",
        "input": "0x97c936680000000000000000000000002260fac5e5542a773aa44fbcfedf7c193bc2c5990000000000000000000000000000000000000000000000000000000000093a80000000000000000000000000000000000000000000000000000000000003f48000000000000000000000000000000000000000000000000000c49ba5e353f7ce",
        "nonce": "0x1e6",
        "chainId": "0x1"
      },
      "additionalContracts": [],
      "isFixedGasLimit": false
    }
  ],
  "receipts": [
    {
      "status": "0x1",
      "cumulativeGasUsed": "0xc94317",
      "logs": [
        {
          "address": "0x5b084c358686e6865c9cb97354edbe8392d72fec",
          "topics": [
            "0x1cb8dc9fb801507be56f80e9cf81c299d07d04c36d7bf219a0af692cf69de013"
          ],
          "data": "0x0000000000000000000000002260fac5e5542a773aa44fbcfedf7c193bc2c5990000000000000000000000000000000000c49ba5e353f7ce0003f48000093a80",
          "blockHash": "0x6c565111d6ffd374e2b2ddff9c0aa720e67bfa52465d4299456d61539730aa1f",
          "blockNumber": "0x17ca310",
          "blockTimestamp": "0x69ea930b",
          "transactionHash": "0x3e134bd640d527faec1ea9a9d256aa8f0fd87cd5f378737377cd33e2e3269d65",
          "transactionIndex": "0x86",
          "logIndex": "0x151",
          "removed": false
        }
      ],
      "logsBloom": "0x00000000000000000000000000000000000000000000000000000000020000000000000000000000000000000000080000000000000000000000000000000000000000000000000000000000000000000000000000000000000000000000004000000000000000000000000000000000000000008000000000000000000000000000000000000000000000000000000000000000000000000000000000040000000000000000000000000000000000000000000000000000000000000000000000000000000100000000000000000000000000000000000000000000000000000000000000000000000000000000000000000000000000000000000000000000",
      "type": "0x2",
      "transactionHash": "0x3e134bd640d527faec1ea9a9d256aa8f0fd87cd5f378737377cd33e2e3269d65",
      "transactionIndex": "0x86",
      "blockHash": "0x6c565111d6ffd374e2b2ddff9c0aa720e67bfa52465d4299456d61539730aa1f",
      "blockNumber": "0x17ca310",
      "gasUsed": "0xbcfc",
      "effectiveGasPrice": "0x1d63498f",
      "from": "0x00000c771f6176268d5a9846e0956c3ef58597a1",
      "to": "0x5b084c358686e6865c9cb97354edbe8392d72fec",
      "contractAddress": null
    }
  ],
  "libraries": [],
  "pending": [],
  "returns": {},
  "timestamp": 1776980749092,
  "chain": 1,
  "commit": "d84feb1"
}