{
  "transactions": [
    {
      "hash": "0x96d0af74fd295393c70ffc62a07299668229a2cd295efe8c59c1712be1b3f36f",
      "transactionType": "CALL",
      "contractName": null,
      "contractAddress": "0x5b084c358686e6865c9cb97354edbe8392d72fec",
      "function": "configure(address,uint32,uint32,uint64)",
      "arguments": [
        "0x0000000000000000000000000000000000000000",
        "604800",
        "259200",
        "55340232221128654"
      ],
      "transaction": {
        "from": "0x00000c771f6176268d5a9846e0956c3ef58597a1",
        "to": "0x5b084c358686e6865c9cb97354edbe8392d72fec",
        "gas": "0x103bc",
        "value": "0x0",
        "input": "0x97c9366800000000000000000000000000000000000000000000000000000000000000000000000000000000000000000000000000000000000000000000000000093a80000000000000000000000000000000000000000000000000000000000003f48000000000000000000000000000000000000000000000000000c49ba5e353f7ce",
        "nonce": "0x1e3",
        "chainId": "0x1"
      },
      "additionalContracts": [],
      "isFixedGasLimit": false
    }
  ],
  "receipts": [
    {
      "status": "0x1",
      "cumulativeGasUsed": "0x1786836",
      "logs": [
        {
          "address": "0x5b084c358686e6865c9cb97354edbe8392d72fec",
          "topics": [
            "0x1cb8dc9fb801507be56f80e9cf81c299d07d04c36d7bf219a0af692cf69de013"
          ],
          "data": "0x00000000000000000000000000000000000000000000000000000000000000000000000000000000000000000000000000c49ba5e353f7ce0003f48000093a80",
          "blockHash": "0x63f23ae65e2f4cbeab32d33f306cf496a0d27fd8537bfe9e42f5fe94340560eb",
          "blockNumber": "0x17ca30a",
          "blockTimestamp": "0x69ea92c3",
          "transactionHash": "0x96d0af74fd295393c70ffc62a07299668229a2cd295efe8c59c1712be1b3f36f",
          "transactionIndex": "0xd1",
          "logIndex": "0x259",
          "removed": false
        }
      ],
      "logsBloom": "0x00000000000000000000000000000000000000000000000000000000020000000000000000000000000000000000080000000000000000000000000000000000000000000000000000000000000000000000000000000000000000000000004000000000000000000000000000000000000000008000000000000000000000000000000000000000000000000000000000000000000000000000000000040000000000000000000000000000000000000000000000000000000000000000000000000000000100000000000000000000000000000000000000000000000000000000000000000000000000000000000000000000000000000000000000000000",
      "type": "0x2",
      "transactionHash": "0x96d0af74fd295393c70ffc62a07299668229a2cd295efe8c59c1712be1b3f36f",
      "transactionIndex": "0xd1",
      "blockHash": "0x63f23ae65e2f4cbeab32d33f306cf496a0d27fd8537bfe9e42f5fe94340560eb",
      "blockNumber": "0x17ca30a",
      "gasUsed": "0xbc0c",
      "effectiveGasPrice": "0x1c17fc65",
      "from": "0x00000c771f6176268d5a9846e0956c3ef58597a1",
      "to": "0x5b084c358686e6865c9cb97354edbe8392d72fec",
      "contractAddress": null
    }
  ],
  "libraries": [],
  "pending": [],
  "returns": {},
  "timestamp": 1776980678612,
  "chain": 1,
  "commit": "d84feb1"
}