{
  "transactions": [
    {
      "hash": "0x44f1976039af40559b64ca72f70f9761af73ee4ab4cb2aa362f5e22f867ff2c6",
      "transactionType": "CALL",
      "contractName": null,
      "contractAddress": "0x5b084c358686e6865c9cb97354edbe8392d72fec",
      "function": "configure(address,uint32,uint32,uint64)",
      "arguments": [
        "0x6440f144b7e50D6a8439336510312d2F54beB01D",
        "604800",
        "259200",
        "55340232221128654"
      ],
      "transaction": {
        "from": "0x00000c771f6176268d5a9846e0956c3ef58597a1",
        "to": "0x5b084c358686e6865c9cb97354edbe8392d72fec",
        "gas": "0x10507",
        "value": "0x0",
        "input": "0x97c936680000000000000000000000006440f144b7e50d6a8439336510312d2f54beb01d0000000000000000000000000000000000000000000000000000000000093a80000000000000000000000000000000000000000000000000000000000003f48000000000000000000000000000000000000000000000000000c49ba5e353f7ce",
        "nonce": "0x1e7",
        "chainId": "0x1"
      },
      "additionalContracts": [],
      "isFixedGasLimit": false
    }
  ],
  "receipts": [
    {
      "status": "0x1",
      "cumulativeGasUsed": "0x1783d16",
      "logs": [
        {
          "address": "0x5b084c358686e6865c9cb97354edbe8392d72fec",
          "topics": [
            "0x1cb8dc9fb801507be56f80e9cf81c299d07d04c36d7bf219a0af692cf69de013"
          ],
          "data": "0x0000000000000000000000006440f144b7e50d6a8439336510312d2f54beb01d0000000000000000000000000000000000c49ba5e353f7ce0003f48000093a80",
          "blockHash": "0x9440b538700b543ad1c6cb0f288ab20c1273dcda9891eba5e3b53bc30d360261",
          "blockNumber": "0x17ca312",
          "blockTimestamp": "0x69ea9323",
          "transactionHash": "0x44f1976039af40559b64ca72f70f9761af73ee4ab4cb2aa362f5e22f867ff2c6",
          "transactionIndex": "0xea",
          "logIndex": "0x285",
          "removed": false
        }
      ],
      "logsBloom": "0x00000000000000000000000000000000000000000000000000000000020000000000000000000000000000000000080000000000000000000000000000000000000000000000000000000000000000000000000000000000000000000000004000000000000000000000000000000000000000008000000000000000000000000000000000000000000000000000000000000000000000000000000000040000000000000000000000000000000000000000000000000000000000000000000000000000000100000000000000000000000000000000000000000000000000000000000000000000000000000000000000000000000000000000000000000000",
      "type": "0x2",
      "transactionHash": "0x44f1976039af40559b64ca72f70f9761af73ee4ab4cb2aa362f5e22f867ff2c6",
      "transactionIndex": "0xea",
      "blockHash": "0x9440b538700b543ad1c6cb0f288ab20c1273dcda9891eba5e3b53bc30d360261",
      "blockNumber": "0x17ca312",
      "gasUsed": "0xbcfc",
      "effectiveGasPrice": "0x1b8588f6",
      "from": "0x00000c771f6176268d5a9846e0956c3ef58597a1",
      "to": "0x5b084c358686e6865c9cb97354edbe8392d72fec",
      "contractAddress": null
    }
  ],
  "libraries": [],
  "pending": [],
  "returns": {},
  "timestamp": 1776980774101,
  "chain": 1,
  "commit": "d84feb1"
}