{
  "transactions": [
    {
      "hash": "0x526513c76ae8dd15b5e6cbefeaae92de929486a0da5bd45569a3eddf1ad55fef",
      "transactionType": "CREATE",
      "contractName": "TestToken",
      "contractAddress": "0x28f2c86c76116cb48347668423104a7bc19ddd27",
      "function": null,
      "arguments": [
        "0x00000C771F6176268D5A9846E0956C3eF58597A1"
      ],
      "transaction": {
        "from": "0x00000c771f6176268d5a9846e0956c3ef58597a1",
        "gas": "0xbc67d",
        "value": "0x0",
        "input": "0x60803460ce57601f6109cc38819003918201601f19168301916001600160401b0383118484101760d25780849260209460405283398101031260ce57516001600160a01b038116810360ce576805345cdf77eb68f44c545f19810190811060c1576805345cdf77eb68f44c556387a211a2600c525f526020600c205f1981540190555f19602052600c5160601c5f7fddf252ad1be2c89b69c2b068fc378daa952ba7f163c4a11628f55a4df523b3ef602080a36040516108e590816100e78239f35b63e5cfe9575f526004601cfd5b5f80fd5b634e487b7160e01b5f52604160045260245ffdfe60806040526004361015610011575f80fd5b5f3560e01c806306fdde03146107cc578063095ea7b31461074357806318160ddd1461070057806323b872dd146105fb578063313ce567146105c25780633644e515146104f857806370a08231146104a85780637ecebe001461045857806395d89b41146103a1578063a9059cbb146102f4578063d505accf146100fd5763dd62ed3e1461009d575f80fd5b346100f95760407ffffffffffffffffffffffffffffffffffffffffffffffffffffffffffffffffc3601126100f9576100d461087b565b6100dc61089e565b602052637f5e9f20600c525f5260206034600c2054604051908152f35b5f80fd5b346100f95760e07ffffffffffffffffffffffffffffffffffffffffffffffffffffffffffffffffc3601126100f95761013461087b565b61013c61089e565b6084359160643560443560ff851685036100f9576101586108c1565b60208101907f54657374546f6b656e00000000000000000000000000000000000000000000008252519020908242116102e75773ffffffffffffffffffffffffffffffffffffffff80604051951695169565383775081901600e52855f5260c06020600c20958654957f8b73c3c69bb8fe3d512ecc4cf759cc79239f7b179b0ffacaa9a75d522b39400f8252602082019586528660408301967fc89efdaa54c0f20c7adf612882df0950f5a951637e0307cdcb4c672f298b8bc688528b6060850198468a528c608087019330855260a08820602e527f6e71edae12b1b97f4d1f60370fef10105fa2faae0126114a169c64845d6126c9885252528688525260a082015220604e526042602c205f5260ff1660205260a43560405260c43560605260208060805f60015afa93853d51036102da577f8c5be1e5ebec7d5bd14f71427d1e84f3dd0314c0f7b2291e5b200ac8c7c3b9259460209401905585777f5e9f200000000000000000000000000000000000000000176040526034602c2055a3005b63ddafbaef5f526004601cfd5b631a15a3cc5f526004601cfd5b346100f95760407ffffffffffffffffffffffffffffffffffffffffffffffffffffffffffffffffc3601126100f95761032b61087b565b602435906387a211a2600c52335f526020600c2080548084116103945783900390555f526020600c20818154019055602052600c5160601c337fddf252ad1be2c89b69c2b068fc378daa952ba7f163c4a11628f55a4df523b3ef602080a3602060405160018152f35b63f4d678b85f526004601cfd5b346100f9575f7ffffffffffffffffffffffffffffffffffffffffffffffffffffffffffffffffc3601126100f957604051604081019080821067ffffffffffffffff83111761042b5761042791604052600281527f5454000000000000000000000000000000000000000000000000000000000000602082015260405191829182610833565b0390f35b7f4e487b71000000000000000000000000000000000000000000000000000000005f52604160045260245ffd5b346100f95760207ffffffffffffffffffffffffffffffffffffffffffffffffffffffffffffffffc3601126100f95761048f61087b565b6338377508600c525f52602080600c2054604051908152f35b346100f95760207ffffffffffffffffffffffffffffffffffffffffffffffffffffffffffffffffc3601126100f9576104df61087b565b6387a211a2600c525f52602080600c2054604051908152f35b346100f9575f7ffffffffffffffffffffffffffffffffffffffffffffffffffffffffffffffffc3601126100f957602060a06105326108c1565b828101907f54657374546f6b656e00000000000000000000000000000000000000000000008252519020604051907f8b73c3c69bb8fe3d512ecc4cf759cc79239f7b179b0ffacaa9a75d522b39400f8252838201527fc89efdaa54c0f20c7adf612882df0950f5a951637e0307cdcb4c672f298b8bc6604082015246606082015230608082015220604051908152f35b346100f9575f7ffffffffffffffffffffffffffffffffffffffffffffffffffffffffffffffffc3601126100f957602060405160128152f35b346100f95760607ffffffffffffffffffffffffffffffffffffffffffffffffffffffffffffffffc3601126100f95761063261087b565b61063a61089e565b604435908260601b33602052637f5e9f208117600c526034600c209081549182196106dc575b506387a211a2915017600c526020600c2080548084116103945783900390555f526020600c2081815401905560205273ffffffffffffffffffffffffffffffffffffffff600c5160601c91167fddf252ad1be2c89b69c2b068fc378daa952ba7f163c4a11628f55a4df523b3ef602080a3602060405160018152f35b8285116106f357846387a211a29303905585610660565b6313be252b5f526004601cfd5b346100f9575f7ffffffffffffffffffffffffffffffffffffffffffffffffffffffffffffffffc3601126100f95760206805345cdf77eb68f44c54604051908152f35b346100f95760407ffffffffffffffffffffffffffffffffffffffffffffffffffffffffffffffffc3601126100f95761077a61087b565b60243590602052637f5e9f20600c52335f52806034600c20555f52602c5160601c337f8c5be1e5ebec7d5bd14f71427d1e84f3dd0314c0f7b2291e5b200ac8c7c3b92560205fa3602060405160018152f35b346100f9575f7ffffffffffffffffffffffffffffffffffffffffffffffffffffffffffffffffc3601126100f9576104276108056108c1565b7f54657374546f6b656e00000000000000000000000000000000000000000000006020820152604051918291825b7fffffffffffffffffffffffffffffffffffffffffffffffffffffffffffffffe0601f602060409481855280519182918282880152018686015e5f8582860101520116010190565b6004359073ffffffffffffffffffffffffffffffffffffffff821682036100f957565b6024359073ffffffffffffffffffffffffffffffffffffffff821682036100f957565b604051906040820182811067ffffffffffffffff82111761042b57604052600982525600000000000000000000000000000c771f6176268d5a9846e0956c3ef58597a1",
        "nonce": "0x207",
        "chainId": "0xaa36a7"
      },
      "additionalContracts": [],
      "isFixedGasLimit": false
    },
    {
      "hash": "0xf7eb22bb49ffb46054a11bf675420f249c6a81f9ecf95a5642892f22a64939e7",
      "transactionType": "CALL",
      "contractName": "TestToken",
      "contractAddress": "0x28f2c86c76116cb48347668423104a7bc19ddd27",
      "function": "approve(address,uint256)",
      "arguments": [
        "0x5aCA2B05eDFaa5F5CD1C178cfC397d479E467f98",
        "115792089237316195423570985008687907853269984665640564039457584007913129639935"
      ],
      "transaction": {
        "from": "0x00000c771f6176268d5a9846e0956c3ef58597a1",
        "to": "0x28f2c86c76116cb48347668423104a7bc19ddd27",
        "gas": "0xf8eb",
        "value": "0x0",
        "input": "0x095ea7b30000000000000000000000005aca2b05edfaa5f5cd1c178cfc397d479e467f98ffffffffffffffffffffffffffffffffffffffffffffffffffffffffffffffff",
        "nonce": "0x208",
        "chainId": "0xaa36a7"
      },
      "additionalContracts": [],
      "isFixedGasLimit": false
    },
    {
      "hash": "0x8dc2c6631f2cc02a8e0e15dbb5b6a4864422f011103c8b20191992d36e6b389e",
      "transactionType": "CALL",
      "contractName": "TestToken",
      "contractAddress": "0x28f2c86c76116cb48347668423104a7bc19ddd27",
      "function": "approve(address,uint256)",
      "arguments": [
        "0xb91C28b1b9DE28AA9c651c388415eEe7395eBfA4",
        "115792089237316195423570985008687907853269984665640564039457584007913129639935"
      ],
      "transaction": {
        "from": "0x00000c771f6176268d5a9846e0956c3ef58597a1",
        "to": "0x28f2c86c76116cb48347668423104a7bc19ddd27",
        "gas": "0xf8eb",
        "value": "0x0",
        "input": "0x095ea7b3000000000000000000000000b91c28b1b9de28aa9c651c388415eee7395ebfa4ffffffffffffffffffffffffffffffffffffffffffffffffffffffffffffffff",
        "nonce": "0x209",
        "chainId": "0xaa36a7"
      },
      "additionalContracts": [],
      "isFixedGasLimit": false
    },
    {
      "hash": "0xa2832fa456e75678ef3afbc11869ed0b726445ca8fa063de0ccec4aacd05374a",
      "transactionType": "CALL",
      "contractName": null,
      "contractAddress": "0xb91c28b1b9de28aa9c651c388415eee7395ebfa4",
      "function": "multicall(bytes[])",
      "arguments": [
        "[0x3bb838a8000000000000000000000000000000000000000000000000000000000000000000000000000000000000000028f2c86c76116cb48347668423104a7bc19ddd270000000000000000000000000000000000c49ba5e353f7ced916872b020c49ba000000000000000000000000000000000000000000000000000000000000175e0000000000000000000000000000000000000000000000000000000000000000000000000000000000000000000000000000000000000000000000000081f64d, 0xcda20b5047fdbfc63adc540c446318bd995469a3ff0d3bf4201f837c3bbbd184152ca964000000000000000000000000000000000000000000000000000000000000000000000000000000000000000028f2c86c76116cb48347668423104a7bc19ddd270000000000000000000000000000000000c49ba5e353f7ced916872b020c49ba000000000000000000000000000000000000000000000000000000000000175e0000000000000000000000000000000000000000000000000000000000000000fffffffffffffffffffffffffffffffffffffffffffffffffffffffffab6413e000000000000000000000000000000000000000000000000000000000549bec2000000000000000000000000000000000000000000000000002386f26fc10000000000000000000000000000000000000000000000000002b5e3af16b18800000000000000000000000000000000000000000000000000000000000000000000, 0x41865270]"
      ],
      "transaction": {
        "from": "0x00000c771f6176268d5a9846e0956c3ef58597a1",
        "to": "0xb91c28b1b9de28aa9c651c388415eee7395ebfa4",
        "gas": "0x70ff4",
        "value": "0x2386f26fc10000",
        "input": "0xac9650d80000000000000000000000000000000000000000000000000000000000000020000000000000000000000000000000000000000000000000000000000000000300000000000000000000000000000000000000000000000000000000000000600000000000000000000000000000000000000000000000000000000000000160000000000000000000000000000000000000000000000000000000000000030000000000000000000000000000000000000000000000000000000000000000c43bb838a8000000000000000000000000000000000000000000000000000000000000000000000000000000000000000028f2c86c76116cb48347668423104a7bc19ddd270000000000000000000000000000000000c49ba5e353f7ced916872b020c49ba000000000000000000000000000000000000000000000000000000000000175e0000000000000000000000000000000000000000000000000000000000000000000000000000000000000000000000000000000000000000000000000081f64d000000000000000000000000000000000000000000000000000000000000000000000000000000000000000000000000000000000000000000000164cda20b5047fdbfc63adc540c446318bd995469a3ff0d3bf4201f837c3bbbd184152ca964000000000000000000000000000000000000000000000000000000000000000000000000000000000000000028f2c86c76116cb48347668423104a7bc19ddd270000000000000000000000000000000000c49ba5e353f7ced916872b020c49ba000000000000000000000000000000000000000000000000000000000000175e0000000000000000000000000000000000000000000000000000000000000000fffffffffffffffffffffffffffffffffffffffffffffffffffffffffab6413e000000000000000000000000000000000000000000000000000000000549bec2000000000000000000000000000000000000000000000000002386f26fc10000000000000000000000000000000000000000000000000002b5e3af16b188000000000000000000000000000000000000000000000000000000000000000000000000000000000000000000000000000000000000000000000000000000000000000000000000000000000000000000000000000000000000000000044186527000000000000000000000000000000000000000000000000000000000",
        "nonce": "0x20a",
        "chainId": "0xaa36a7"
      },
      "additionalContracts": [],
      "isFixedGasLimit": false
    },
    {
      "hash": "0xd8dda4acd877f542ddd2234326286c8852d841585b9cca69840d5a744a8f9e45",
      "transactionType": "CALL",
      "contractName": null,
      "contractAddress": "0x5aca2b05edfaa5f5cd1c178cfc397d479e467f98",
      "function": "swap(((address,address,uint128,uint32,address),uint256,uint256),(address,int128),int256)",
      "arguments": [
        "((0x0000000000000000000000000000000000000000, 0x28f2c86c76116CB48347668423104A7bC19ddd27, 1020847100762815390390123822295304634, 5982, 0x0000000000000000000000000000000000000000), 0, 0)",
        "(0x0000000000000000000000000000000000000000, 100000)",
        "250000000"
      ],
      "transaction": {
        "from": "0x00000c771f6176268d5a9846e0956c3ef58597a1",
        "to": "0x5aca2b05edfaa5f5cd1c178cfc397d479e467f98",
        "gas": "0x24b54",
        "value": "0x186a0",
        "input": "0xe07ba4cf000000000000000000000000000000000000000000000000000000000000000000000000000000000000000028f2c86c76116cb48347668423104a7bc19ddd270000000000000000000000000000000000c49ba5e353f7ced916872b020c49ba000000000000000000000000000000000000000000000000000000000000175e000000000000000000000000000000000000000000000000000000000000000000000000000000000000000000000000000000000000000000000000000000000000000000000000000000000000000000000000000000000000000000000000000000000000000000000000000000000000000000000000000000000000000000000000000000000000000000000000000000000000000000000000000186a0000000000000000000000000000000000000000000000000000000000ee6b280",
        "nonce": "0x20b",
        "chainId": "0xaa36a7"
      },
      "additionalContracts": [],
      "isFixedGasLimit": false
    },
    {
      "hash": "0x76576ac1b8b6d8606e1f1aaaedb790745a19762ae47c8749d11655882fab3475",
      "transactionType": "CALL",
      "contractName": null,
      "contractAddress": "0x5aca2b05edfaa5f5cd1c178cfc397d479e467f98",
      "function": "swap(((address,address,uint128,uint32,address),uint256,uint256),(address,int128),int256)",
      "arguments": [
        "((0x0000000000000000000000000000000000000000, 0x28f2c86c76116CB48347668423104A7bC19ddd27, 1020847100762815390390123822295304634, 5982, 0x0000000000000000000000000000000000000000), 0, 0)",
        "(0x28f2c86c76116CB48347668423104A7bC19ddd27, 500000000)",
        "50000"
      ],
      "transaction": {
        "from": "0x00000c771f6176268d5a9846e0956c3ef58597a1",
        "to": "0x5aca2b05edfaa5f5cd1c178cfc397d479e467f98",
        "gas": "0x28a69",
        "value": "0x186a0",
        "input": "0xe07ba4cf000000000000000000000000000000000000000000000000000000000000000000000000000000000000000028f2c86c76116cb48347668423104a7bc19ddd270000000000000000000000000000000000c49ba5e353f7ced916872b020c49ba000000000000000000000000000000000000000000000000000000000000175e00000000000000000000000000000000000000000000000000000000000000000000000000000000000000000000000000000000000000000000000000000000000000000000000000000000000000000000000000000000000000000000000000000000000000000000000028f2c86c76116cb48347668423104a7bc19ddd27000000000000000000000000000000000000000000000000000000001dcd6500000000000000000000000000000000000000000000000000000000000000c350",
        "nonce": "0x20c",
        "chainId": "0xaa36a7"
      },
      "additionalContracts": [],
      "isFixedGasLimit": false
    },
    {
      "hash": "0xa3e659bbcecd2ce42157ec802dfbc315fc09a8238ed58887574f42405ca17bad",
      "transactionType": "CALL",
      "contractName": null,
      "contractAddress": "0x5aca2b05edfaa5f5cd1c178cfc397d479e467f98",
      "function": "swap(((address,address,uint128,uint32,address),uint256,uint256),(address,int128),int256)",
      "arguments": [
        "((0x0000000000000000000000000000000000000000, 0x28f2c86c76116CB48347668423104A7bC19ddd27, 1020847100762815390390123822295304634, 5982, 0x0000000000000000000000000000000000000000), 0, 0)",
        "(0x0000000000000000000000000000000000000000, 100000)",
        "250000000"
      ],
      "transaction": {
        "from": "0x00000c771f6176268d5a9846e0956c3ef58597a1",
        "to": "0x5aca2b05edfaa5f5cd1c178cfc397d479e467f98",
        "gas": "0x1ef11",
        "value": "0x186a0",
        "input": "0xe07ba4cf000000000000000000000000000000000000000000000000000000000000000000000000000000000000000028f2c86c76116cb48347668423104a7bc19ddd270000000000000000000000000000000000c49ba5e353f7ced916872b020c49ba000000000000000000000000000000000000000000000000000000000000175e000000000000000000000000000000000000000000000000000000000000000000000000000000000000000000000000000000000000000000000000000000000000000000000000000000000000000000000000000000000000000000000000000000000000000000000000000000000000000000000000000000000000000000000000000000000000000000000000000000000000000000000000000186a0000000000000000000000000000000000000000000000000000000000ee6b280",
        "nonce": "0x20d",
        "chainId": "0xaa36a7"
      },
      "additionalContracts": [],
      "isFixedGasLimit": false
    },
    {
      "hash": "0x41daf133ac697157e067b5290c5d9303f1e38a6bb6864ddd1d8ee52cca0b8166",
      "transactionType": "CALL",
      "contractName": null,
      "contractAddress": "0x5aca2b05edfaa5f5cd1c178cfc397d479e467f98",
      "function": "swap(((address,address,uint128,uint32,address),uint256,uint256),(address,int128),int256)",
      "arguments": [
        "((0x0000000000000000000000000000000000000000, 0x28f2c86c76116CB48347668423104A7bC19ddd27, 1020847100762815390390123822295304634, 5982, 0x0000000000000000000000000000000000000000), 0, 0)",
        "(0x28f2c86c76116CB48347668423104A7bC19ddd27, 500000000)",
        "50000"
      ],
      "transaction": {
        "from": "0x00000c771f6176268d5a9846e0956c3ef58597a1",
        "to": "0x5aca2b05edfaa5f5cd1c178cfc397d479e467f98",
        "gas": "0x20a02",
        "value": "0x186a0",
        "input": "0xe07ba4cf000000000000000000000000000000000000000000000000000000000000000000000000000000000000000028f2c86c76116cb48347668423104a7bc19ddd270000000000000000000000000000000000c49ba5e353f7ced916872b020c49ba000000000000000000000000000000000000000000000000000000000000175e00000000000000000000000000000000000000000000000000000000000000000000000000000000000000000000000000000000000000000000000000000000000000000000000000000000000000000000000000000000000000000000000000000000000000000000000028f2c86c76116cb48347668423104a7bc19ddd27000000000000000000000000000000000000000000000000000000001dcd6500000000000000000000000000000000000000000000000000000000000000c350",
        "nonce": "0x20e",
        "chainId": "0xaa36a7"
      },
      "additionalContracts": [],
      "isFixedGasLimit": false
    },
    {
      "hash": "0x312fe3985049680b600c4f5f011ade544518e82b145ef7caf0b3f42b068dffd7",
      "transactionType": "CALL",
      "contractName": null,
      "contractAddress": "0xb91c28b1b9de28aa9c651c388415eee7395ebfa4",
      "function": "multicall(bytes[])",
      "arguments": [
        "[0x3bb838a8000000000000000000000000000000000000000000000000000000000000000000000000000000000000000028f2c86c76116cb48347668423104a7bc19ddd2700000000000000000000000000000000028f5c28f5c28f5c28f5c28f5c28f5c20000000000000000000000000000000000000000000000000000000000004d5a0000000000000000000000000000000000000000000000000000000000000000000000000000000000000000000000000000000000000000000000000081f64d, 0xcda20b5047fdbfc63adc540c446318bd995469a3ff0d3bf4201f837c3bbbd184152ca965000000000000000000000000000000000000000000000000000000000000000000000000000000000000000028f2c86c76116cb48347668423104a7bc19ddd2700000000000000000000000000000000028f5c28f5c28f5c28f5c28f5c28f5c20000000000000000000000000000000000000000000000000000000000004d5a0000000000000000000000000000000000000000000000000000000000000000fffffffffffffffffffffffffffffffffffffffffffffffffffffffffab65900000000000000000000000000000000000000000000000000000000000549a700000000000000000000000000000000000000000000000000006a94d74f43000000000000000000000000000000000000000000000000001043561a88293000000000000000000000000000000000000000000000000000000000000000000000, 0x41865270]"
      ],
      "transaction": {
        "from": "0x00000c771f6176268d5a9846e0956c3ef58597a1",
        "to": "0xb91c28b1b9de28aa9c651c388415eee7395ebfa4",
        "gas": "0x654ab",
        "value": "0x6a94d74f430000",
        "input": "0xac9650d80000000000000000000000000000000000000000000000000000000000000020000000000000000000000000000000000000000000000000000000000000000300000000000000000000000000000000000000000000000000000000000000600000000000000000000000000000000000000000000000000000000000000160000000000000000000000000000000000000000000000000000000000000030000000000000000000000000000000000000000000000000000000000000000c43bb838a8000000000000000000000000000000000000000000000000000000000000000000000000000000000000000028f2c86c76116cb48347668423104a7bc19ddd2700000000000000000000000000000000028f5c28f5c28f5c28f5c28f5c28f5c20000000000000000000000000000000000000000000000000000000000004d5a0000000000000000000000000000000000000000000000000000000000000000000000000000000000000000000000000000000000000000000000000081f64d000000000000000000000000000000000000000000000000000000000000000000000000000000000000000000000000000000000000000000000164cda20b5047fdbfc63adc540c446318bd995469a3ff0d3bf4201f837c3bbbd184152ca965000000000000000000000000000000000000000000000000000000000000000000000000000000000000000028f2c86c76116cb48347668423104a7bc19ddd2700000000000000000000000000000000028f5c28f5c28f5c28f5c28f5c28f5c20000000000000000000000000000000000000000000000000000000000004d5a0000000000000000000000000000000000000000000000000000000000000000fffffffffffffffffffffffffffffffffffffffffffffffffffffffffab65900000000000000000000000000000000000000000000000000000000000549a700000000000000000000000000000000000000000000000000006a94d74f43000000000000000000000000000000000000000000000000001043561a882930000000000000000000000000000000000000000000000000000000000000000000000000000000000000000000000000000000000000000000000000000000000000000000000000000000000000000000000000000000000000000000044186527000000000000000000000000000000000000000000000000000000000",
        "nonce": "0x20f",
        "chainId": "0xaa36a7"
      },
      "additionalContracts": [],
      "isFixedGasLimit": false
    },
    {
      "hash": "0xd9c9683592d51e4ab50b172db75201023f10e88d458a9c7e6fd7efed233c9423",
      "transactionType": "CALL",
      "contractName": null,
      "contractAddress": "0xb91c28b1b9de28aa9c651c388415eee7395ebfa4",
      "function": "multicall(bytes[])",
      "arguments": [
        "[0x3bb838a8000000000000000000000000000000000000000000000000000000000000000000000000000000000000000028f2c86c76116cb48347668423104a7bc19ddd27000000000000000000000000000000000000000000000000000000000000000000000000000000000000000000000000000000000000000000000000000aa8ed00000000000000000000000051d580c15c43684081ff84d7a623f889e8289c2f00000000000000000000000000000000000000000000000000000000004644f4, 0xcda20b5047fdbfc63adc540c446318bd995469a3ff0d3bf4201f837c3bbbd184152ca966000000000000000000000000000000000000000000000000000000000000000000000000000000000000000028f2c86c76116cb48347668423104a7bc19ddd27000000000000000000000000000000000000000000000000000000000000000000000000000000000000000000000000000000000000000000000000000aa8ed00000000000000000000000051d580c15c43684081ff84d7a623f889e8289c2ffffffffffffffffffffffffffffffffffffffffffffffffffffffffffab6326d000000000000000000000000000000000000000000000000000000000549cd930000000000000000000000000000000000000000000000000de0b6b3a76400000000000000000000000000000000000000000000000000056bc75e2d631000000000000000000000000000000000000000000000000000000000000000000000, 0x41865270]"
      ],
      "transaction": {
        "from": "0x00000c771f6176268d5a9846e0956c3ef58597a1",
        "to": "0xb91c28b1b9de28aa9c651c388415eee7395ebfa4",
        "gas": "0x77b04",
        "value": "0xde0b6b3a7640000",
        "input": "0xac9650d80000000000000000000000000000000000000000000000000000000000000020000000000000000000000000000000000000000000000000000000000000000300000000000000000000000000000000000000000000000000000000000000600000000000000000000000000000000000000000000000000000000000000160000000000000000000000000000000000000000000000000000000000000030000000000000000000000000000000000000000000000000000000000000000c43bb838a8000000000000000000000000000000000000000000000000000000000000000000000000000000000000000028f2c86c76116cb48347668423104a7bc19ddd27000000000000000000000000000000000000000000000000000000000000000000000000000000000000000000000000000000000000000000000000000aa8ed00000000000000000000000051d580c15c43684081ff84d7a623f889e8289c2f00000000000000000000000000000000000000000000000000000000004644f4000000000000000000000000000000000000000000000000000000000000000000000000000000000000000000000000000000000000000000000164cda20b5047fdbfc63adc540c446318bd995469a3ff0d3bf4201f837c3bbbd184152ca966000000000000000000000000000000000000000000000000000000000000000000000000000000000000000028f2c86c76116cb48347668423104a7bc19ddd27000000000000000000000000000000000000000000000000000000000000000000000000000000000000000000000000000000000000000000000000000aa8ed00000000000000000000000051d580c15c43684081ff84d7a623f889e8289c2ffffffffffffffffffffffffffffffffffffffffffffffffffffffffffab6326d000000000000000000000000000000000000000000000000000000000549cd930000000000000000000000000000000000000000000000000de0b6b3a76400000000000000000000000000000000000000000000000000056bc75e2d6310000000000000000000000000000000000000000000000000000000000000000000000000000000000000000000000000000000000000000000000000000000000000000000000000000000000000000000000000000000000000000000044186527000000000000000000000000000000000000000000000000000000000",
        "nonce": "0x210",
        "chainId": "0xaa36a7"
      },
      "additionalContracts": [],
      "isFixedGasLimit": false
    }
  ],
  "receipts": [
    {
      "status": "0x1",
      "cumulativeGasUsed": "0x6447a6",
      "logs": [
        {
          "address": "0x28f2c86c76116cb48347668423104a7bc19ddd27",
          "topics": [
            "0xddf252ad1be2c89b69c2b068fc378daa952ba7f163c4a11628f55a4df523b3ef",
            "0x0000000000000000000000000000000000000000000000000000000000000000",
            "0x00000000000000000000000000000c771f6176268d5a9846e0956c3ef58597a1"
          ],
          "data": "0xffffffffffffffffffffffffffffffffffffffffffffffffffffffffffffffff",
          "blockHash": "0x1832c799006de4b28fc663a99d1fe7e62dc0288b86802db51dcc8df34c8fc6d0",
          "blockNumber": "0x7496ef",
          "transactionHash": "0x526513c76ae8dd15b5e6cbefeaae92de929486a0da5bd45569a3eddf1ad55fef",
          "transactionIndex": "0x3e",
          "logIndex": "0x5f",
          "removed": false
        }
      ],
      "logsBloom": "0x00000000000000000001000000000000000004000000000000000000000008200000000000000000000000000000000000000000000000000000000000000000000000000000000000000008000000000000000000000000000000000000000000000000030000000000000000000800000000000000000000000010000000000000000000000000000000000000000000000000000100000000000000000000000000000000000000000000000000000000000000000000000000000000000000000002000000000000000000000000000000000000000000000000000020000000000000000000000000000000000000000000000000000000000000000000",
      "type": "0x2",
      "transactionHash": "0x526513c76ae8dd15b5e6cbefeaae92de929486a0da5bd45569a3eddf1ad55fef",
      "transactionIndex": "0x3e",
      "blockHash": "0x1832c799006de4b28fc663a99d1fe7e62dc0288b86802db51dcc8df34c8fc6d0",
      "blockNumber": "0x7496ef",
      "gasUsed": "0x90ed7",
      "effectiveGasPrice": "0x491bafe9",
      "from": "0x00000c771f6176268d5a9846e0956c3ef58597a1",
      "to": null,
      "contractAddress": "0x28f2c86c76116cb48347668423104a7bc19ddd27"
    },
    {
      "status": "0x1",
      "cumulativeGasUsed": "0xb43f91",
      "logs": [
        {
          "address": "0x28f2c86c76116cb48347668423104a7bc19ddd27",
          "topics": [
            "0x8c5be1e5ebec7d5bd14f71427d1e84f3dd0314c0f7b2291e5b200ac8c7c3b925",
            "0x00000000000000000000000000000c771f6176268d5a9846e0956c3ef58597a1",
            "0x0000000000000000000000005aca2b05edfaa5f5cd1c178cfc397d479e467f98"
          ],
          "data": "0xffffffffffffffffffffffffffffffffffffffffffffffffffffffffffffffff",
          "blockHash": "0x9c8d07a17545404987d253ac6bb79e45857ade5dd56cc829ec9405361bfe56ab",
          "blockNumber": "0x7496f2",
          "transactionHash": "0xf7eb22bb49ffb46054a11bf675420f249c6a81f9ecf95a5642892f22a64939e7",
          "transactionIndex": "0x53",
          "logIndex": "0x9b",
          "removed": false
        }
      ],
      "logsBloom": "0x00000000000000000001000000000000000004000000000000000000000008200000000000000000000000000000000000000200000000000000000000200000000000000000000000000000000000000000000000000000000000000000000000000000010000000004000000000000000000000000000000000000000000000000000000000000000000000000000000000000000100000000000000000000020000000000000000000000000000000000000000800000000000000000000000000000000000000000000000000000000000000000000000000000000000000010000000000000000000000000000000000000000000000000000000000000",
      "type": "0x2",
      "transactionHash": "0xf7eb22bb49ffb46054a11bf675420f249c6a81f9ecf95a5642892f22a64939e7",
      "transactionIndex": "0x53",
      "blockHash": "0x9c8d07a17545404987d253ac6bb79e45857ade5dd56cc829ec9405361bfe56ab",
      "blockNumber": "0x7496f2",
      "gasUsed": "0xb437",
      "effectiveGasPrice": "0x4879c1d4",
      "from": "0x00000c771f6176268d5a9846e0956c3ef58597a1",
      "to": "0x28f2c86c76116cb48347668423104a7bc19ddd27",
      "contractAddress": null
    },
    {
      "status": "0x1",
      "cumulativeGasUsed": "0x1288f06",
      "logs": [
        {
          "address": "0x28f2c86c76116cb48347668423104a7bc19ddd27",
          "topics": [
            "0x8c5be1e5ebec7d5bd14f71427d1e84f3dd0314c0f7b2291e5b200ac8c7c3b925",
            "0x00000000000000000000000000000c771f6176268d5a9846e0956c3ef58597a1",
            "0x000000000000000000000000b91c28b1b9de28aa9c651c388415eee7395ebfa4"
          ],
          "data": "0xffffffffffffffffffffffffffffffffffffffffffffffffffffffffffffffff",
          "blockHash": "0x643e916c3652e5a8f4ae48d25b5395c6fc27dfe135a4e05588c756c640e5c7e9",
          "blockNumber": "0x7496f3",
          "transactionHash": "0x8dc2c6631f2cc02a8e0e15dbb5b6a4864422f011103c8b20191992d36e6b389e",
          "transactionIndex": "0x31",
          "logIndex": "0x104",
          "removed": false
        }
      ],
      "logsBloom": "0x00000000000000000001000000000000000004000000000000000000000008200000000000000000000000000000000000000000000000000000000000200000000000000000000000000000000000000000000000000000000000000000000000000000010000000000000000000020000000000000000000000000000000000000000000000000000000000000000000000000000100000000000000000000020000000000000000000000000000000000000000000000000000000000000000000000000008000000000000000000000000000000000000000000000000000010000800000000000000000000000000000000000000000000000000000000",
      "type": "0x2",
      "transactionHash": "0x8dc2c6631f2cc02a8e0e15dbb5b6a4864422f011103c8b20191992d36e6b389e",
      "transactionIndex": "0x31",
      "blockHash": "0x643e916c3652e5a8f4ae48d25b5395c6fc27dfe135a4e05588c756c640e5c7e9",
      "blockNumber": "0x7496f3",
      "gasUsed": "0xb437",
      "effectiveGasPrice": "0x491b6a18",
      "from": "0x00000c771f6176268d5a9846e0956c3ef58597a1",
      "to": "0x28f2c86c76116cb48347668423104a7bc19ddd27",
      "contractAddress": null
    },
    {
      "status": "0x1",
      "cumulativeGasUsed": "0x5f3349",
      "logs": [
        {
          "address": "0xda92ab602d3cdc945497b23cac3e50bb8d28dd4e",
          "topics": [
            "0x5014502cd7c1cd1f671286e947be5af016cf1bff863e084d012d73b1133f7cfb"
          ],
          "data": "0xf2ed0f2d2f349a68414baca52623ba93d7768c1af4b6600a28ddf5d3fa0d5fcc000000000000000000000000000000000000000000000000000000000000000000000000000000000000000028f2c86c76116cb48347668423104a7bc19ddd270000000000000000000000000000000000c49ba5e353f7ced916872b020c49ba000000000000000000000000000000000000000000000000000000000000175e0000000000000000000000000000000000000000000000000000000000000000000000000000000000000000000000000000000000000000000000000081f64d00000000000000000000000000000046b5edf55f4b6d955ca5ad5187dff5e61a",
          "blockHash": "0xf1c69a1404891ea4705495de5de139f6329e442ab70ddbbcbc1fc13396f8808c",
          "blockNumber": "0x7496f4",
          "transactionHash": "0xa2832fa456e75678ef3afbc11869ed0b726445ca8fa063de0ccec4aacd05374a",
          "transactionIndex": "0x41",
          "logIndex": "0x54",
          "removed": false
        },
        {
          "address": "0xb91c28b1b9de28aa9c651c388415eee7395ebfa4",
          "topics": [
            "0xddf252ad1be2c89b69c2b068fc378daa952ba7f163c4a11628f55a4df523b3ef",
            "0x0000000000000000000000000000000000000000000000000000000000000000",
            "0x00000000000000000000000000000c771f6176268d5a9846e0956c3ef58597a1",
            "0x0000000000000000000000000000000000000000000000000000d9aadc83743a"
          ],
          "data": "0x",
          "blockHash": "0xf1c69a1404891ea4705495de5de139f6329e442ab70ddbbcbc1fc13396f8808c",
          "blockNumber": "0x7496f4",
          "transactionHash": "0xa2832fa456e75678ef3afbc11869ed0b726445ca8fa063de0ccec4aacd05374a",
          "transactionIndex": "0x41",
          "logIndex": "0x55",
          "removed": false
        },
        {
          "address": "0xda92ab602d3cdc945497b23cac3e50bb8d28dd4e",
          "topics": [
            "0xa2d4008be4187c63684f323788e131e1370dbc2205499befe2834005a00c792c"
          ],
          "data": "0x000000000000000000000000b91c28b1b9de28aa9c651c388415eee7395ebfa4f2ed0f2d2f349a68414baca52623ba93d7768c1af4b6600a28ddf5d3fa0d5fcc0000000000000000000000000000000000000000000000000000d9aadc83743afffffffffffffffffffffffffffffffffffffffffffffffffffffffffab6413e000000000000000000000000000000000000000000000000000000000549bec200000000000000000000000000000000000000000000000009d025b9f39a7b59000000000000000000000000000000000000000000000000002386f26fc10000000000000000000000000000000000000000000000000002b5e39a9fdddd9e1c",
          "blockHash": "0xf1c69a1404891ea4705495de5de139f6329e442ab70ddbbcbc1fc13396f8808c",
          "blockNumber": "0x7496f4",
          "transactionHash": "0xa2832fa456e75678ef3afbc11869ed0b726445ca8fa063de0ccec4aacd05374a",
          "transactionIndex": "0x41",
          "logIndex": "0x56",
          "removed": false
        },
        {
          "address": "0x28f2c86c76116cb48347668423104a7bc19ddd27",
          "topics": [
            "0xddf252ad1be2c89b69c2b068fc378daa952ba7f163c4a11628f55a4df523b3ef",
            "0x00000000000000000000000000000c771f6176268d5a9846e0956c3ef58597a1",
            "0x000000000000000000000000da92ab602d3cdc945497b23cac3e50bb8d28dd4e"
          ],
          "data": "0x000000000000000000000000000000000000000000000002b5e39a9fdddd9e1c",
          "blockHash": "0xf1c69a1404891ea4705495de5de139f6329e442ab70ddbbcbc1fc13396f8808c",
          "blockNumber": "0x7496f4",
          "transactionHash": "0xa2832fa456e75678ef3afbc11869ed0b726445ca8fa063de0ccec4aacd05374a",
          "transactionIndex": "0x41",
          "logIndex": "0x57",
          "removed": false
        }
      ],
      "logsBloom": "0x00000000080000000101000000000000000004000100000000000000000008200000000000000040000000000000000000000004000000000000000000000000000000000000000000000008020000000000000001000000000000000000000020000000030000000000000000000800000000000000000000000010000000000000000000000000000000002008000000002000000100000000000000000000000800008002000000000000000000000000000000000000080000000000000000000002000000000000000000000000000000000000000000000000001020000000009000000000000000000000000000000000000000000000000000000000",
      "type": "0x2",
      "transactionHash": "0xa2832fa456e75678ef3afbc11869ed0b726445ca8fa063de0ccec4aacd05374a",
      "transactionIndex": "0x41",
      "blockHash": "0xf1c69a1404891ea4705495de5de139f6329e442ab70ddbbcbc1fc13396f8808c",
      "blockNumber": "0x7496f4",
      "gasUsed": "0x51cee",
      "effectiveGasPrice": "0x4b289af3",
      "from": "0x00000c771f6176268d5a9846e0956c3ef58597a1",
      "to": "0xb91c28b1b9de28aa9c651c388415eee7395ebfa4",
      "contractAddress": null
    },
    {
      "status": "0x1",
      "cumulativeGasUsed": "0x109f82b",
      "logs": [
        {
          "address": "0xda92ab602d3cdc945497b23cac3e50bb8d28dd4e",
          "topics": [],
          "data": "0x5aca2b05edfaa5f5cd1c178cfc397d479e467f98f2ed0f2d2f349a68414baca52623ba93d7768c1af4b6600a28ddf5d3fa0d5fcc000000000000000000000000000186a0ffffffffffffffffffffffffe2497ff9000000000000000009d025b9f39a7b5900000046b5edf55c4449ef7497539f80a00c1b230081f64c",
          "blockHash": "0x4c24d1687ce2c5dd08ea88c9ae152dd7b597642152d0327b76c4f5a9bbd0bc8b",
          "blockNumber": "0x7496f5",
          "transactionHash": "0xd8dda4acd877f542ddd2234326286c8852d841585b9cca69840d5a744a8f9e45",
          "transactionIndex": "0x3e",
          "logIndex": "0x112",
          "removed": false
        },
        {
          "address": "0x28f2c86c76116cb48347668423104a7bc19ddd27",
          "topics": [
            "0xddf252ad1be2c89b69c2b068fc378daa952ba7f163c4a11628f55a4df523b3ef",
            "0x000000000000000000000000da92ab602d3cdc945497b23cac3e50bb8d28dd4e",
            "0x00000000000000000000000000000c771f6176268d5a9846e0956c3ef58597a1"
          ],
          "data": "0x000000000000000000000000000000000000000000000000000000001db68007",
          "blockHash": "0x4c24d1687ce2c5dd08ea88c9ae152dd7b597642152d0327b76c4f5a9bbd0bc8b",
          "blockNumber": "0x7496f5",
          "transactionHash": "0xd8dda4acd877f542ddd2234326286c8852d841585b9cca69840d5a744a8f9e45",
          "transactionIndex": "0x3e",
          "logIndex": "0x113",
          "removed": false
        }
      ],
      "logsBloom": "0x00000000000000000001000000000000000004000000000000000000000008200000000000000000000000000000000000000004000000000000000000000000000000000000000000000008000000000000000000000000000000000000000000000000010000000000000000000000000000000000000000000010000000000000000000000000000000000000000000002000000100000000000000000000000800000000000000000000000000000000000000000000080000000000000000000002000000000000000000000000000000000000000000000000001000000000008000000000000000000000000000000000000000000000000000000000",
      "type": "0x2",
      "transactionHash": "0xd8dda4acd877f542ddd2234326286c8852d841585b9cca69840d5a744a8f9e45",
      "transactionIndex": "0x3e",
      "blockHash": "0x4c24d1687ce2c5dd08ea88c9ae152dd7b597642152d0327b76c4f5a9bbd0bc8b",
      "blockNumber": "0x7496f5",
      "gasUsed": "0x1a938",
      "effectiveGasPrice": "0x478ce49e",
      "from": "0x00000c771f6176268d5a9846e0956c3ef58597a1",
      "to": "0x5aca2b05edfaa5f5cd1c178cfc397d479e467f98",
      "contractAddress": null
    },
    {
      "status": "0x1",
      "cumulativeGasUsed": "0x5e948b",
      "logs": [
        {
          "address": "0xda92ab602d3cdc945497b23cac3e50bb8d28dd4e",
          "topics": [],
          "data": "0x5aca2b05edfaa5f5cd1c178cfc397d479e467f98f2ed0f2d2f349a68414baca52623ba93d7768c1af4b6600a28ddf5d3fa0d5fccfffffffffffffffffffffffffffe7a8c0000000000000000000000001dcd6500000000000000000009d025b9f39a7b5900000046b5edf55f4b6dbf06947d160474f95e090081f64d",
          "blockHash": "0x5c892248511ee6ecf4890a32326521fca85384bd9bc3f2e23c1d58780b9f5bea",
          "blockNumber": "0x7496f6",
          "transactionHash": "0x76576ac1b8b6d8606e1f1aaaedb790745a19762ae47c8749d11655882fab3475",
          "transactionIndex": "0x35",
          "logIndex": "0x5b",
          "removed": false
        },
        {
          "address": "0x28f2c86c76116cb48347668423104a7bc19ddd27",
          "topics": [
            "0xddf252ad1be2c89b69c2b068fc378daa952ba7f163c4a11628f55a4df523b3ef",
            "0x00000000000000000000000000000c771f6176268d5a9846e0956c3ef58597a1",
            "0x000000000000000000000000da92ab602d3cdc945497b23cac3e50bb8d28dd4e"
          ],
          "data": "0x000000000000000000000000000000000000000000000000000000001dcd6500",
          "blockHash": "0x5c892248511ee6ecf4890a32326521fca85384bd9bc3f2e23c1d58780b9f5bea",
          "blockNumber": "0x7496f6",
          "transactionHash": "0x76576ac1b8b6d8606e1f1aaaedb790745a19762ae47c8749d11655882fab3475",
          "transactionIndex": "0x35",
          "logIndex": "0x5c",
          "removed": false
        }
      ],
      "logsBloom": "0x00000000000000000001000000000000000004000000000000000000000008200000000000000000000000000000000000000004000000000000000000000000000000000000000000000008000000000000000000000000000000000000000000000000010000000000000000000000000000000000000000000010000000000000000000000000000000000000000000002000000100000000000000000000000800000000000000000000000000000000000000000000080000000000000000000002000000000000000000000000000000000000000000000000001000000000008000000000000000000000000000000000000000000000000000000000",
      "type": "0x2",
      "transactionHash": "0x76576ac1b8b6d8606e1f1aaaedb790745a19762ae47c8749d11655882fab3475",
      "transactionIndex": "0x35",
      "blockHash": "0x5c892248511ee6ecf4890a32326521fca85384bd9bc3f2e23c1d58780b9f5bea",
      "blockNumber": "0x7496f6",
      "gasUsed": "0x1bcba",
      "effectiveGasPrice": "0x48bd23b8",
      "from": "0x00000c771f6176268d5a9846e0956c3ef58597a1",
      "to": "0x5aca2b05edfaa5f5cd1c178cfc397d479e467f98",
      "contractAddress": null
    },
    {
      "status": "0x1",
      "cumulativeGasUsed": "0x93b95a",
      "logs": [
        {
          "address": "0xda92ab602d3cdc945497b23cac3e50bb8d28dd4e",
          "topics": [],
          "data": "0x5aca2b05edfaa5f5cd1c178cfc397d479e467f98f2ed0f2d2f349a68414baca52623ba93d7768c1af4b6600a28ddf5d3fa0d5fcc000000000000000000000000000186a0ffffffffffffffffffffffffe24991e8000000000000000009d025b9f39a7b5900000046b5edf55c444becfabd7205d9bc7ffd4d0081f64c",
          "blockHash": "0xa93dd5caa6e96ed431a8413ecebc5f3ee237e26f1d0292ea97ab826c97f819c3",
          "blockNumber": "0x7496f7",
          "transactionHash": "0xa3e659bbcecd2ce42157ec802dfbc315fc09a8238ed58887574f42405ca17bad",
          "transactionIndex": "0x52",
          "logIndex": "0x68",
          "removed": false
        },
        {
          "address": "0x28f2c86c76116cb48347668423104a7bc19ddd27",
          "topics": [
            "0xddf252ad1be2c89b69c2b068fc378daa952ba7f163c4a11628f55a4df523b3ef",
            "0x000000000000000000000000da92ab602d3cdc945497b23cac3e50bb8d28dd4e",
            "0x00000000000000000000000000000c771f6176268d5a9846e0956c3ef58597a1"
          ],
          "data": "0x000000000000000000000000000000000000000000000000000000001db66e18",
          "blockHash": "0xa93dd5caa6e96ed431a8413ecebc5f3ee237e26f1d0292ea97ab826c97f819c3",
          "blockNumber": "0x7496f7",
          "transactionHash": "0xa3e659bbcecd2ce42157ec802dfbc315fc09a8238ed58887574f42405ca17bad",
          "transactionIndex": "0x52",
          "logIndex": "0x69",
          "removed": false
        }
      ],
      "logsBloom": "0x00000000000000000001000000000000000004000000000000000000000008200000000000000000000000000000000000000004000000000000000000000000000000000000000000000008000000000000000000000000000000000000000000000000010000000000000000000000000000000000000000000010000000000000000000000000000000000000000000002000000100000000000000000000000800000000000000000000000000000000000000000000080000000000000000000002000000000000000000000000000000000000000000000000001000000000008000000000000000000000000000000000000000000000000000000000",
      "type": "0x2",
      "transactionHash": "0xa3e659bbcecd2ce42157ec802dfbc315fc09a8238ed58887574f42405ca17bad",
      "transactionIndex": "0x52",
      "blockHash": "0xa93dd5caa6e96ed431a8413ecebc5f3ee237e26f1d0292ea97ab826c97f819c3",
      "blockNumber": "0x7496f7",
      "gasUsed": "0x1666c",
      "effectiveGasPrice": "0x445935cb",
      "from": "0x00000c771f6176268d5a9846e0956c3ef58597a1",
      "to": "0x5aca2b05edfaa5f5cd1c178cfc397d479e467f98",
      "contractAddress": null
    },
    {
      "status": "0x1",
      "cumulativeGasUsed": "0xea0dec",
      "logs": [
        {
          "address": "0xda92ab602d3cdc945497b23cac3e50bb8d28dd4e",
          "topics": [],
          "data": "0x5aca2b05edfaa5f5cd1c178cfc397d479e467f98f2ed0f2d2f349a68414baca52623ba93d7768c1af4b6600a28ddf5d3fa0d5fccfffffffffffffffffffffffffffe7a8c0000000000000000000000001dcd6500000000000000000009d025b9f39a7b5900000046b5edf55f4b6fbc8cba9b7c5d916d40330081f64d",
          "blockHash": "0x678b2a1fd6c0aff0ff60bae0bc60f11d249678d1825070189f1796ef37db7881",
          "blockNumber": "0x7496f8",
          "transactionHash": "0x41daf133ac697157e067b5290c5d9303f1e38a6bb6864ddd1d8ee52cca0b8166",
          "transactionIndex": "0x53",
          "logIndex": "0x12a",
          "removed": false
        },
        {
          "address": "0x28f2c86c76116cb48347668423104a7bc19ddd27",
          "topics": [
            "0xddf252ad1be2c89b69c2b068fc378daa952ba7f163c4a11628f55a4df523b3ef",
            "0x00000000000000000000000000000c771f6176268d5a9846e0956c3ef58597a1",
            "0x000000000000000000000000da92ab602d3cdc945497b23cac3e50bb8d28dd4e"
          ],
          "data": "0x000000000000000000000000000000000000000000000000000000001dcd6500",
          "blockHash": "0x678b2a1fd6c0aff0ff60bae0bc60f11d249678d1825070189f1796ef37db7881",
          "blockNumber": "0x7496f8",
          "transactionHash": "0x41daf133ac697157e067b5290c5d9303f1e38a6bb6864ddd1d8ee52cca0b8166",
          "transactionIndex": "0x53",
          "logIndex": "0x12b",
          "removed": false
        }
      ],
      "logsBloom": "0x00000000000000000001000000000000000004000000000000000000000008200000000000000000000000000000000000000004000000000000000000000000000000000000000000000008000000000000000000000000000000000000000000000000010000000000000000000000000000000000000000000010000000000000000000000000000000000000000000002000000100000000000000000000000800000000000000000000000000000000000000000000080000000000000000000002000000000000000000000000000000000000000000000000001000000000008000000000000000000000000000000000000000000000000000000000",
      "type": "0x2",
      "transactionHash": "0x41daf133ac697157e067b5290c5d9303f1e38a6bb6864ddd1d8ee52cca0b8166",
      "transactionIndex": "0x53",
      "blockHash": "0x678b2a1fd6c0aff0ff60bae0bc60f11d249678d1825070189f1796ef37db7881",
      "blockNumber": "0x7496f8",
      "gasUsed": "0x179ee",
      "effectiveGasPrice": "0x4499de7d",
      "from": "0x00000c771f6176268d5a9846e0956c3ef58597a1",
      "to": "0x5aca2b05edfaa5f5cd1c178cfc397d479e467f98",
      "contractAddress": null
    },
    {
      "status": "0x1",
      "cumulativeGasUsed": "0x55a16a",
      "logs": [
        {
          "address": "0xda92ab602d3cdc945497b23cac3e50bb8d28dd4e",
          "topics": [
            "0x5014502cd7c1cd1f671286e947be5af016cf1bff863e084d012d73b1133f7cfb"
          ],
          "data": "0x1a44ce2922284d623f55bfb0194aa72003543a2925deb726c7a7f0c0be5bb720000000000000000000000000000000000000000000000000000000000000000000000000000000000000000028f2c86c76116cb48347668423104a7bc19ddd2700000000000000000000000000000000028f5c28f5c28f5c28f5c28f5c28f5c20000000000000000000000000000000000000000000000000000000000004d5a0000000000000000000000000000000000000000000000000000000000000000000000000000000000000000000000000000000000000000000000000081f64d00000000000000000000000000000046b5edf55f4b6d955ca5ad5187dff5e61a",
          "blockHash": "0x267bb9ade4e9966cbd847cfce8cf883b7640b9f79e027ddbfc5ae70773688065",
          "blockNumber": "0x7496f9",
          "transactionHash": "0x312fe3985049680b600c4f5f011ade544518e82b145ef7caf0b3f42b068dffd7",
          "transactionIndex": "0x36",
          "logIndex": "0x4f",
          "removed": false
        },
        {
          "address": "0xb91c28b1b9de28aa9c651c388415eee7395ebfa4",
          "topics": [
            "0xddf252ad1be2c89b69c2b068fc378daa952ba7f163c4a11628f55a4df523b3ef",
            "0x0000000000000000000000000000000000000000000000000000000000000000",
            "0x00000000000000000000000000000c771f6176268d5a9846e0956c3ef58597a1",
            "0x00000000000000000000000000000000000000000000000000007221011304db"
          ],
          "data": "0x",
          "blockHash": "0x267bb9ade4e9966cbd847cfce8cf883b7640b9f79e027ddbfc5ae70773688065",
          "blockNumber": "0x7496f9",
          "transactionHash": "0x312fe3985049680b600c4f5f011ade544518e82b145ef7caf0b3f42b068dffd7",
          "transactionIndex": "0x36",
          "logIndex": "0x50",
          "removed": false
        },
        {
          "address": "0xda92ab602d3cdc945497b23cac3e50bb8d28dd4e",
          "topics": [
            "0xa2d4008be4187c63684f323788e131e1370dbc2205499befe2834005a00c792c"
          ],
          "data": "0x000000000000000000000000b91c28b1b9de28aa9c651c388415eee7395ebfa41a44ce2922284d623f55bfb0194aa72003543a2925deb726c7a7f0c0be5bb72000000000000000000000000000000000000000000000000000007221011304dbfffffffffffffffffffffffffffffffffffffffffffffffffffffffffab65900000000000000000000000000000000000000000000000000000000000549a7000000000000000000000000000000000000000000000000001d70712ddacf720b000000000000000000000000000000000000000000000000006a94d74f43000000000000000000000000000000000000000000000000000821aacfdf9998da53",
          "blockHash": "0x267bb9ade4e9966cbd847cfce8cf883b7640b9f79e027ddbfc5ae70773688065",
          "blockNumber": "0x7496f9",
          "transactionHash": "0x312fe3985049680b600c4f5f011ade544518e82b145ef7caf0b3f42b068dffd7",
          "transactionIndex": "0x36",
          "logIndex": "0x51",
          "removed": false
        },
        {
          "address": "0x28f2c86c76116cb48347668423104a7bc19ddd27",
          "topics": [
            "0xddf252ad1be2c89b69c2b068fc378daa952ba7f163c4a11628f55a4df523b3ef",
            "0x00000000000000000000000000000c771f6176268d5a9846e0956c3ef58597a1",
            "0x000000000000000000000000da92ab602d3cdc945497b23cac3e50bb8d28dd4e"
          ],
          "data": "0x00000000000000000000000000000000000000000000000821aacfdf9998da53",
          "blockHash": "0x267bb9ade4e9966cbd847cfce8cf883b7640b9f79e027ddbfc5ae70773688065",
          "blockNumber": "0x7496f9",
          "transactionHash": "0x312fe3985049680b600c4f5f011ade544518e82b145ef7caf0b3f42b068dffd7",
          "transactionIndex": "0x36",
          "logIndex": "0x52",
          "removed": false
        }
      ],
      "logsBloom": "0x00000000080000000101000000000000000004000100000000000000000008200000000000000000000000000000000000000004000000000000000000000000000000000000000000000008020000000000000001000000000000000000000020000000030000000000000000000800000000000000080000000010000000000000000000000000000000000008000000002000000100000000000000000000000c00000002000000000000000000000000000000000000080000000000000000000002000000000000000008000000000000000000000000000000001020000000009000000000000000000000000000000000000000000000000000000000",
      "type": "0x2",
      "transactionHash": "0x312fe3985049680b600c4f5f011ade544518e82b145ef7caf0b3f42b068dffd7",
      "transactionIndex": "0x36",
      "blockHash": "0x267bb9ade4e9966cbd847cfce8cf883b7640b9f79e027ddbfc5ae70773688065",
      "blockNumber": "0x7496f9",
      "gasUsed": "0x49556",
      "effectiveGasPrice": "0x452451d9",
      "from": "0x00000c771f6176268d5a9846e0956c3ef58597a1",
      "to": "0xb91c28b1b9de28aa9c651c388415eee7395ebfa4",
      "contractAddress": null
    },
    {
      "status": "0x1",
      "cumulativeGasUsed": "0x1ba8b5b",
      "logs": [
        {
          "address": "0x51d580c15c43684081ff84d7a623f889e8289c2f",
          "topics": [
            "0x125bfa7929686b76004b9ecf89fff5fa1cafc656618b2086e01686bc4063f2dd",
            "0x00000000000000000000000028f2c86c76116cb48347668423104a7bc19ddd27"
          ],
          "data": "0x0000000000000000000000000000000000000000000000000000000067a28c0000000000000000000000000000000000000000000000000000000000000000000000000000000000000000000000000000000000000000000000000000000000",
          "blockHash": "0x56b8ae05ef045f6b67ff7ab39a4d29bcd6342f03b05cedca97705505a7a62d94",
          "blockNumber": "0x7496fa",
          "transactionHash": "0xd9c9683592d51e4ab50b172db75201023f10e88d458a9c7e6fd7efed233c9423",
          "transactionIndex": "0xc5",
          "logIndex": "0x204",
          "removed": false
        },
        {
          "address": "0xda92ab602d3cdc945497b23cac3e50bb8d28dd4e",
          "topics": [
            "0x5014502cd7c1cd1f671286e947be5af016cf1bff863e084d012d73b1133f7cfb"
          ],
          "data": "0x5dd48d0b4e381b1692b9b33261d9b866cf6a4bc56b21b9074bb6150e62d820cc000000000000000000000000000000000000000000000000000000000000000000000000000000000000000028f2c86c76116cb48347668423104a7bc19ddd27000000000000000000000000000000000000000000000000000000000000000000000000000000000000000000000000000000000000000000000000000aa8ed00000000000000000000000051d580c15c43684081ff84d7a623f889e8289c2f00000000000000000000000000000000000000000000000000000000004644f400000000000000000000000000000009ffffd703fc4b70813166c0384b06a36c",
          "blockHash": "0x56b8ae05ef045f6b67ff7ab39a4d29bcd6342f03b05cedca97705505a7a62d94",
          "blockNumber": "0x7496fa",
          "transactionHash": "0xd9c9683592d51e4ab50b172db75201023f10e88d458a9c7e6fd7efed233c9423",
          "transactionIndex": "0xc5",
          "logIndex": "0x205",
          "removed": false
        },
        {
          "address": "0xb91c28b1b9de28aa9c651c388415eee7395ebfa4",
          "topics": [
            "0xddf252ad1be2c89b69c2b068fc378daa952ba7f163c4a11628f55a4df523b3ef",
            "0x0000000000000000000000000000000000000000000000000000000000000000",
            "0x00000000000000000000000000000c771f6176268d5a9846e0956c3ef58597a1",
            "0x0000000000000000000000000000000000000000000000000000fd2150b189a3"
          ],
          "data": "0x",
          "blockHash": "0x56b8ae05ef045f6b67ff7ab39a4d29bcd6342f03b05cedca97705505a7a62d94",
          "blockNumber": "0x7496fa",
          "transactionHash": "0xd9c9683592d51e4ab50b172db75201023f10e88d458a9c7e6fd7efed233c9423",
          "transactionIndex": "0xc5",
          "logIndex": "0x206",
          "removed": false
        },
        {
          "address": "0xda92ab602d3cdc945497b23cac3e50bb8d28dd4e",
          "topics": [
            "0xa2d4008be4187c63684f323788e131e1370dbc2205499befe2834005a00c792c"
          ],
          "data": "0x000000000000000000000000b91c28b1b9de28aa9c651c388415eee7395ebfa45dd48d0b4e381b1692b9b33261d9b866cf6a4bc56b21b9074bb6150e62d820cc0000000000000000000000000000000000000000000000000000fd2150b189a3fffffffffffffffffffffffffffffffffffffffffffffffffffffffffab6326d000000000000000000000000000000000000000000000000000000000549cd930000000000000000000000000000000000000000000000008ac720cbc3f4a9190000000000000000000000000000000000000000000000000de0b6b3a76400000000000000000000000000000000000000000000000000056bc731bdec684497",
          "blockHash": "0x56b8ae05ef045f6b67ff7ab39a4d29bcd6342f03b05cedca97705505a7a62d94",
          "blockNumber": "0x7496fa",
          "transactionHash": "0xd9c9683592d51e4ab50b172db75201023f10e88d458a9c7e6fd7efed233c9423",
          "transactionIndex": "0xc5",
          "logIndex": "0x207",
          "removed": false
        },
        {
          "address": "0x28f2c86c76116cb48347668423104a7bc19ddd27",
          "topics": [
            "0xddf252ad1be2c89b69c2b068fc378daa952ba7f163c4a11628f55a4df523b3ef",
            "0x00000000000000000000000000000c771f6176268d5a9846e0956c3ef58597a1",
            "0x000000000000000000000000da92ab602d3cdc945497b23cac3e50bb8d28dd4e"
          ],
          "data": "0x0000000000000000000000000000000000000000000000056bc731bdec684497",
          "blockHash": "0x56b8ae05ef045f6b67ff7ab39a4d29bcd6342f03b05cedca97705505a7a62d94",
          "blockNumber": "0x7496fa",
          "transactionHash": "0xd9c9683592d51e4ab50b172db75201023f10e88d458a9c7e6fd7efed233c9423",
          "transactionIndex": "0xc5",
          "logIndex": "0x208",
          "removed": false
        }
      ],
      "logsBloom": "0x20000000080000400101000000000000000004000100000000000000000008200000000000000000000000000020000000000004000000004000000000000000000000000000000000000008020000000000000001000000000000000000000022000000030000000000000000800800000000002000000000000010000000000000000000000000000000000008000000802000000100000000000000000000000800001082000000000000000000000000000000000000080000000000000000000002000000000000000000000000000000000000000000000000001020000000009040000000000000000000000000000000000000000000000000000000",
      "type": "0x2",
      "transactionHash": "0xd9c9683592d51e4ab50b172db75201023f10e88d458a9c7e6fd7efed233c9423",
      "transactionIndex": "0xc5",
      "blockHash": "0x56b8ae05ef045f6b67ff7ab39a4d29bcd6342f03b05cedca97705505a7a62d94",
      "blockNumber": "0x7496fa",
      "gasUsed": "0x51d6a",
      "effectiveGasPrice": "0x4c829126",
      "from": "0x00000c771f6176268d5a9846e0956c3ef58597a1",
      "to": "0xb91c28b1b9de28aa9c651c388415eee7395ebfa4",
      "contractAddress": null
    }
  ],
  "libraries": [],
  "pending": [],
  "returns": {},
  "timestamp": 1738705921,
  "chain": 11155111,
  "commit": "6831e37"
}