{
  "transactions": [
    {
      "hash": "0x47f3737c4aeb4817dfb8588d37bbabdc19b8dee2a71b09efb7b8c763fdfec053",
      "transactionType": "CREATE",
      "contractName": "TestToken",
      "contractAddress": "0x693a08929d3754e917db86770e8184cfcb36e42a",
      "function": null,
      "arguments": [
        "0x00000C771F6176268D5A9846E0956C3eF58597A1"
      ],
      "transaction": {
        "from": "0x00000c771f6176268d5a9846e0956c3ef58597a1",
        "gas": "0xbc67d",
        "value": "0x0",
        "input": "0x60803460ce57601f6109cc38819003918201601f19168301916001600160401b0383118484101760d25780849260209460405283398101031260ce57516001600160a01b038116810360ce576805345cdf77eb68f44c545f19810190811060c1576805345cdf77eb68f44c556387a211a2600c525f526020600c205f1981540190555f19602052600c5160601c5f7fddf252ad1be2c89b69c2b068fc378daa952ba7f163c4a11628f55a4df523b3ef602080a36040516108e590816100e78239f35b63e5cfe9575f526004601cfd5b5f80fd5b634e487b7160e01b5f52604160045260245ffdfe60806040526004361015610011575f80fd5b5f3560e01c806306fdde03146107cc578063095ea7b31461074357806318160ddd1461070057806323b872dd146105fb578063313ce567146105c25780633644e515146104f857806370a08231146104a85780637ecebe001461045857806395d89b41146103a1578063a9059cbb146102f4578063d505accf146100fd5763dd62ed3e1461009d575f80fd5b346100f95760407ffffffffffffffffffffffffffffffffffffffffffffffffffffffffffffffffc3601126100f9576100d461087b565b6100dc61089e565b602052637f5e9f20600c525f5260206034600c2054604051908152f35b5f80fd5b346100f95760e07ffffffffffffffffffffffffffffffffffffffffffffffffffffffffffffffffc3601126100f95761013461087b565b61013c61089e565b6084359160643560443560ff851685036100f9576101586108c1565b60208101907f54657374546f6b656e00000000000000000000000000000000000000000000008252519020908242116102e75773ffffffffffffffffffffffffffffffffffffffff80604051951695169565383775081901600e52855f5260c06020600c20958654957f8b73c3c69bb8fe3d512ecc4cf759cc79239f7b179b0ffacaa9a75d522b39400f8252602082019586528660408301967fc89efdaa54c0f20c7adf612882df0950f5a951637e0307cdcb4c672f298b8bc688528b6060850198468a528c608087019330855260a08820602e527f6e71edae12b1b97f4d1f60370fef10105fa2faae0126114a169c64845d6126c9885252528688525260a082015220604e526042602c205f5260ff1660205260a43560405260c43560605260208060805f60015afa93853d51036102da577f8c5be1e5ebec7d5bd14f71427d1e84f3dd0314c0f7b2291e5b200ac8c7c3b9259460209401905585777f5e9f200000000000000000000000000000000000000000176040526034602c2055a3005b63ddafbaef5f526004601cfd5b631a15a3cc5f526004601cfd5b346100f95760407ffffffffffffffffffffffffffffffffffffffffffffffffffffffffffffffffc3601126100f95761032b61087b565b602435906387a211a2600c52335f526020600c2080548084116103945783900390555f526020600c20818154019055602052600c5160601c337fddf252ad1be2c89b69c2b068fc378daa952ba7f163c4a11628f55a4df523b3ef602080a3602060405160018152f35b63f4d678b85f526004601cfd5b346100f9575f7ffffffffffffffffffffffffffffffffffffffffffffffffffffffffffffffffc3601126100f957604051604081019080821067ffffffffffffffff83111761042b5761042791604052600281527f5454000000000000000000000000000000000000000000000000000000000000602082015260405191829182610833565b0390f35b7f4e487b71000000000000000000000000000000000000000000000000000000005f52604160045260245ffd5b346100f95760207ffffffffffffffffffffffffffffffffffffffffffffffffffffffffffffffffc3601126100f95761048f61087b565b6338377508600c525f52602080600c2054604051908152f35b346100f95760207ffffffffffffffffffffffffffffffffffffffffffffffffffffffffffffffffc3601126100f9576104df61087b565b6387a211a2600c525f52602080600c2054604051908152f35b346100f9575f7ffffffffffffffffffffffffffffffffffffffffffffffffffffffffffffffffc3601126100f957602060a06105326108c1565b828101907f54657374546f6b656e00000000000000000000000000000000000000000000008252519020604051907f8b73c3c69bb8fe3d512ecc4cf759cc79239f7b179b0ffacaa9a75d522b39400f8252838201527fc89efdaa54c0f20c7adf612882df0950f5a951637e0307cdcb4c672f298b8bc6604082015246606082015230608082015220604051908152f35b346100f9575f7ffffffffffffffffffffffffffffffffffffffffffffffffffffffffffffffffc3601126100f957602060405160128152f35b346100f95760607ffffffffffffffffffffffffffffffffffffffffffffffffffffffffffffffffc3601126100f95761063261087b565b61063a61089e565b604435908260601b33602052637f5e9f208117600c526034600c209081549182196106dc575b506387a211a2915017600c526020600c2080548084116103945783900390555f526020600c2081815401905560205273ffffffffffffffffffffffffffffffffffffffff600c5160601c91167fddf252ad1be2c89b69c2b068fc378daa952ba7f163c4a11628f55a4df523b3ef602080a3602060405160018152f35b8285116106f357846387a211a29303905585610660565b6313be252b5f526004601cfd5b346100f9575f7ffffffffffffffffffffffffffffffffffffffffffffffffffffffffffffffffc3601126100f95760206805345cdf77eb68f44c54604051908152f35b346100f95760407ffffffffffffffffffffffffffffffffffffffffffffffffffffffffffffffffc3601126100f95761077a61087b565b60243590602052637f5e9f20600c52335f52806034600c20555f52602c5160601c337f8c5be1e5ebec7d5bd14f71427d1e84f3dd0314c0f7b2291e5b200ac8c7c3b92560205fa3602060405160018152f35b346100f9575f7ffffffffffffffffffffffffffffffffffffffffffffffffffffffffffffffffc3601126100f9576104276108056108c1565b7f54657374546f6b656e00000000000000000000000000000000000000000000006020820152604051918291825b7fffffffffffffffffffffffffffffffffffffffffffffffffffffffffffffffe0601f602060409481855280519182918282880152018686015e5f8582860101520116010190565b6004359073ffffffffffffffffffffffffffffffffffffffff821682036100f957565b6024359073ffffffffffffffffffffffffffffffffffffffff821682036100f957565b604051906040820182811067ffffffffffffffff82111761042b57604052600982525600000000000000000000000000000c771f6176268d5a9846e0956c3ef58597a1",
        "nonce": "0x35d",
        "chainId": "0xaa36a7"
      },
      "additionalContracts": [],
      "isFixedGasLimit": false
    },
    {
      "hash": "0x06e80c584f5105b599b6d6401fe9114e154da3b99bdbf9eeeec54c3704b3a3b5",
      "transactionType": "CALL",
      "contractName": "TestToken",
      "contractAddress": "0x693a08929d3754e917db86770e8184cfcb36e42a",
      "function": "approve(address,uint256)",
      "arguments": [
        "0x82d25D06A00F04bae3a19107a8131afC019F3ADf",
        "115792089237316195423570985008687907853269984665640564039457584007913129639935"
      ],
      "transaction": {
        "from": "0x00000c771f6176268d5a9846e0956c3ef58597a1",
        "to": "0x693a08929d3754e917db86770e8184cfcb36e42a",
        "gas": "0xf8eb",
        "value": "0x0",
        "input": "0x095ea7b300000000000000000000000082d25d06a00f04bae3a19107a8131afc019f3adfffffffffffffffffffffffffffffffffffffffffffffffffffffffffffffffff",
        "nonce": "0x35e",
        "chainId": "0xaa36a7"
      },
      "additionalContracts": [],
      "isFixedGasLimit": false
    },
    {
      "hash": "0x6cec420f1985a5e0c35948de86fd68f891855e3b265cefd478c1ce38c2abbf2d",
      "transactionType": "CALL",
      "contractName": "TestToken",
      "contractAddress": "0x693a08929d3754e917db86770e8184cfcb36e42a",
      "function": "approve(address,uint256)",
      "arguments": [
        "0x75166E153b72f913Aa21E1d1d83cD10454C6BFf6",
        "115792089237316195423570985008687907853269984665640564039457584007913129639935"
      ],
      "transaction": {
        "from": "0x00000c771f6176268d5a9846e0956c3ef58597a1",
        "to": "0x693a08929d3754e917db86770e8184cfcb36e42a",
        "gas": "0xf8eb",
        "value": "0x0",
        "input": "0x095ea7b300000000000000000000000075166e153b72f913aa21e1d1d83cd10454c6bff6ffffffffffffffffffffffffffffffffffffffffffffffffffffffffffffffff",
        "nonce": "0x35f",
        "chainId": "0xaa36a7"
      },
      "additionalContracts": [],
      "isFixedGasLimit": false
    },
    {
      "hash": "0xf9e865b874dd86141137a77f2ddb5b994688a4aede7e680a75b1625a3f42197e",
      "transactionType": "CALL",
      "contractName": null,
      "contractAddress": "0x75166e153b72f913aa21e1d1d83cd10454c6bff6",
      "function": "multicall(bytes[])",
      "arguments": [
        "[0xf3e324680000000000000000000000000000000000000000000000000000000000000000000000000000000000000000693a08929d3754e917db86770e8184cfcb36e42a000000000000000000000000000000000000000000c49ba5e353f7ce0000175e000000000000000000000000000000000000000000000000000000000081f64d, 0x9df3913d29dc746eb8708ae93b241969cea126a45581f55e1d98f48ec30a1d8e6fc993ad0000000000000000000000000000000000000000000000000000000000000000000000000000000000000000693a08929d3754e917db86770e8184cfcb36e42a000000000000000000000000000000000000000000c49ba5e353f7ce0000175efffffffffffffffffffffffffffffffffffffffffffffffffffffffffab6413e000000000000000000000000000000000000000000000000000000000549bec2000000000000000000000000000000000000000000000000002386f26fc10000000000000000000000000000000000000000000000000002b5e3af16b18800000000000000000000000000000000000000000000000000000000000000000000, 0x41865270]"
      ],
      "transaction": {
        "from": "0x00000c771f6176268d5a9846e0956c3ef58597a1",
        "to": "0x75166e153b72f913aa21e1d1d83cd10454c6bff6",
        "gas": "0x6fa67",
        "value": "0x2386f26fc10000",
        "input": "0xac9650d8000000000000000000000000000000000000000000000000000000000000002000000000000000000000000000000000000000000000000000000000000000030000000000000000000000000000000000000000000000000000000000000060000000000000000000000000000000000000000000000000000000000000012000000000000000000000000000000000000000000000000000000000000002800000000000000000000000000000000000000000000000000000000000000084f3e324680000000000000000000000000000000000000000000000000000000000000000000000000000000000000000693a08929d3754e917db86770e8184cfcb36e42a000000000000000000000000000000000000000000c49ba5e353f7ce0000175e000000000000000000000000000000000000000000000000000000000081f64d0000000000000000000000000000000000000000000000000000000000000000000000000000000000000000000000000000000000000000000001249df3913d29dc746eb8708ae93b241969cea126a45581f55e1d98f48ec30a1d8e6fc993ad0000000000000000000000000000000000000000000000000000000000000000000000000000000000000000693a08929d3754e917db86770e8184cfcb36e42a000000000000000000000000000000000000000000c49ba5e353f7ce0000175efffffffffffffffffffffffffffffffffffffffffffffffffffffffffab6413e000000000000000000000000000000000000000000000000000000000549bec2000000000000000000000000000000000000000000000000002386f26fc10000000000000000000000000000000000000000000000000002b5e3af16b188000000000000000000000000000000000000000000000000000000000000000000000000000000000000000000000000000000000000000000000000000000000000000000000000000000000000000000000000000000000000000000044186527000000000000000000000000000000000000000000000000000000000",
        "nonce": "0x360",
        "chainId": "0xaa36a7"
      },
      "additionalContracts": [],
      "isFixedGasLimit": false
    },
    {
      "hash": "0x26861a2da77bf4d9d91d3466df58689f650e6b2025e57de49af975c850f6dcfc",
      "transactionType": "CALL",
      "contractName": null,
      "contractAddress": "0x82d25d06a00f04bae3a19107a8131afc019f3adf",
      "function": "swap((address,address,bytes32),bool,int128,uint96,uint256)",
      "arguments": [
        "(0x0000000000000000000000000000000000000000, 0x693A08929d3754E917DB86770e8184cFcB36e42A, 0x000000000000000000000000000000000000000000c49ba5e353f7ce0000175e)",
        "false",
        "100000",
        "0",
        "0"
      ],
      "transaction": {
        "from": "0x00000c771f6176268d5a9846e0956c3ef58597a1",
        "to": "0x82d25d06a00f04bae3a19107a8131afc019f3adf",
        "gas": "0x208aa",
        "value": "0x186a0",
        "input": "0x06b81a150000000000000000000000000000000000000000000000000000000000000000000000000000000000000000693a08929d3754e917db86770e8184cfcb36e42a000000000000000000000000000000000000000000c49ba5e353f7ce0000175e000000000000000000000000000000000000000000000000000000000000000000000000000000000000000000000000000000000000000000000000000186a000000000000000000000000000000000000000000000000000000000000000000000000000000000000000000000000000000000000000000000000000000000",
        "nonce": "0x361",
        "chainId": "0xaa36a7"
      },
      "additionalContracts": [],
      "isFixedGasLimit": false
    },
    {
      "hash": "0x91657b06911c5c9bb0d1b98d1ade992111f6ead1eda3df45d94d5111be8f4281",
      "transactionType": "CALL",
      "contractName": null,
      "contractAddress": "0x82d25d06a00f04bae3a19107a8131afc019f3adf",
      "function": "swap((address,address,bytes32),bool,int128,uint96,uint256)",
      "arguments": [
        "(0x0000000000000000000000000000000000000000, 0x693A08929d3754E917DB86770e8184cFcB36e42A, 0x000000000000000000000000000000000000000000c49ba5e353f7ce0000175e)",
        "true",
        "500000000",
        "0",
        "0"
      ],
      "transaction": {
        "from": "0x00000c771f6176268d5a9846e0956c3ef58597a1",
        "to": "0x82d25d06a00f04bae3a19107a8131afc019f3adf",
        "gas": "0x22d95",
        "value": "0x0",
        "input": "0x06b81a150000000000000000000000000000000000000000000000000000000000000000000000000000000000000000693a08929d3754e917db86770e8184cfcb36e42a000000000000000000000000000000000000000000c49ba5e353f7ce0000175e0000000000000000000000000000000000000000000000000000000000000001000000000000000000000000000000000000000000000000000000001dcd650000000000000000000000000000000000000000000000000000000000000000000000000000000000000000000000000000000000000000000000000000000000",
        "nonce": "0x362",
        "chainId": "0xaa36a7"
      },
      "additionalContracts": [],
      "isFixedGasLimit": false
    },
    {
      "hash": "0x9b62df1287e0aa05c3bff56bb4f0f1d9f6a0a360fe59d517dd5b2d01d759ea9d",
      "transactionType": "CALL",
      "contractName": null,
      "contractAddress": "0x82d25d06a00f04bae3a19107a8131afc019f3adf",
      "function": "swap((address,address,bytes32),bool,int128,uint96,uint256)",
      "arguments": [
        "(0x0000000000000000000000000000000000000000, 0x693A08929d3754E917DB86770e8184cFcB36e42A, 0x000000000000000000000000000000000000000000c49ba5e353f7ce0000175e)",
        "false",
        "100000",
        "0",
        "0"
      ],
      "transaction": {
        "from": "0x00000c771f6176268d5a9846e0956c3ef58597a1",
        "to": "0x82d25d06a00f04bae3a19107a8131afc019f3adf",
        "gas": "0x1ac66",
        "value": "0x186a0",
        "input": "0x06b81a150000000000000000000000000000000000000000000000000000000000000000000000000000000000000000693a08929d3754e917db86770e8184cfcb36e42a000000000000000000000000000000000000000000c49ba5e353f7ce0000175e000000000000000000000000000000000000000000000000000000000000000000000000000000000000000000000000000000000000000000000000000186a000000000000000000000000000000000000000000000000000000000000000000000000000000000000000000000000000000000000000000000000000000000",
        "nonce": "0x363",
        "chainId": "0xaa36a7"
      },
      "additionalContracts": [],
      "isFixedGasLimit": false
    },
    {
      "hash": "0x549efd077089a9304abd5f070495c541f1a3625bdc1c5cd8616971817575643b",
      "transactionType": "CALL",
      "contractName": null,
      "contractAddress": "0x82d25d06a00f04bae3a19107a8131afc019f3adf",
      "function": "swap((address,address,bytes32),bool,int128,uint96,uint256)",
      "arguments": [
        "(0x0000000000000000000000000000000000000000, 0x693A08929d3754E917DB86770e8184cFcB36e42A, 0x000000000000000000000000000000000000000000c49ba5e353f7ce0000175e)",
        "true",
        "500000000",
        "0",
        "0"
      ],
      "transaction": {
        "from": "0x00000c771f6176268d5a9846e0956c3ef58597a1",
        "to": "0x82d25d06a00f04bae3a19107a8131afc019f3adf",
        "gas": "0x1ecb1",
        "value": "0x0",
        "input": "0x06b81a150000000000000000000000000000000000000000000000000000000000000000000000000000000000000000693a08929d3754e917db86770e8184cfcb36e42a000000000000000000000000000000000000000000c49ba5e353f7ce0000175e0000000000000000000000000000000000000000000000000000000000000001000000000000000000000000000000000000000000000000000000001dcd650000000000000000000000000000000000000000000000000000000000000000000000000000000000000000000000000000000000000000000000000000000000",
        "nonce": "0x364",
        "chainId": "0xaa36a7"
      },
      "additionalContracts": [],
      "isFixedGasLimit": false
    },
    {
      "hash": "0xaf08e53ba42692373ef7c8488054d6d11f3c41871186b3d6eb0cd877faf8f3f5",
      "transactionType": "CALL",
      "contractName": null,
      "contractAddress": "0x75166e153b72f913aa21e1d1d83cd10454c6bff6",
      "function": "multicall(bytes[])",
      "arguments": [
        "[0xf3e324680000000000000000000000000000000000000000000000000000000000000000000000000000000000000000693a08929d3754e917db86770e8184cfcb36e42a000000000000000000000000000000000000000000c49ba5e353f7ce00000000000000000000000000000000000000000000000000000000000000000081f64d, 0x9df3913d29dc746eb8708ae93b241969cea126a45581f55e1d98f48ec30a1d8e6fc993ae0000000000000000000000000000000000000000000000000000000000000000000000000000000000000000693a08929d3754e917db86770e8184cfcb36e42a000000000000000000000000000000000000000000c49ba5e353f7ce00000000fffffffffffffffffffffffffffffffffffffffffffffffffffffffffab6326d000000000000000000000000000000000000000000000000000000000549cd93000000000000000000000000000000000000000000000000002386f26fc10000000000000000000000000000000000000000000000000002b5e3af16b18800000000000000000000000000000000000000000000000000000000000000000000, 0x41865270]"
      ],
      "transaction": {
        "from": "0x00000c771f6176268d5a9846e0956c3ef58597a1",
        "to": "0x75166e153b72f913aa21e1d1d83cd10454c6bff6",
        "gas": "0x3c155",
        "value": "0x2386f26fc10000",
        "input": "0xac9650d8000000000000000000000000000000000000000000000000000000000000002000000000000000000000000000000000000000000000000000000000000000030000000000000000000000000000000000000000000000000000000000000060000000000000000000000000000000000000000000000000000000000000012000000000000000000000000000000000000000000000000000000000000002800000000000000000000000000000000000000000000000000000000000000084f3e324680000000000000000000000000000000000000000000000000000000000000000000000000000000000000000693a08929d3754e917db86770e8184cfcb36e42a000000000000000000000000000000000000000000c49ba5e353f7ce00000000000000000000000000000000000000000000000000000000000000000081f64d0000000000000000000000000000000000000000000000000000000000000000000000000000000000000000000000000000000000000000000001249df3913d29dc746eb8708ae93b241969cea126a45581f55e1d98f48ec30a1d8e6fc993ae0000000000000000000000000000000000000000000000000000000000000000000000000000000000000000693a08929d3754e917db86770e8184cfcb36e42a000000000000000000000000000000000000000000c49ba5e353f7ce00000000fffffffffffffffffffffffffffffffffffffffffffffffffffffffffab6326d000000000000000000000000000000000000000000000000000000000549cd93000000000000000000000000000000000000000000000000002386f26fc10000000000000000000000000000000000000000000000000002b5e3af16b188000000000000000000000000000000000000000000000000000000000000000000000000000000000000000000000000000000000000000000000000000000000000000000000000000000000000000000000000000000000000000000044186527000000000000000000000000000000000000000000000000000000000",
        "nonce": "0x365",
        "chainId": "0xaa36a7"
      },
      "additionalContracts": [],
      "isFixedGasLimit": false
    },
    {
      "hash": "0x899ec0e7660548173d803125147cbda898c885c86cefebabb6349a22bf7c9e2c",
      "transactionType": "CALL",
      "contractName": null,
      "contractAddress": "0x82d25d06a00f04bae3a19107a8131afc019f3adf",
      "function": "swap((address,address,bytes32),bool,int128,uint96,uint256)",
      "arguments": [
        "(0x0000000000000000000000000000000000000000, 0x693A08929d3754E917DB86770e8184cFcB36e42A, 0x000000000000000000000000000000000000000000c49ba5e353f7ce00000000)",
        "false",
        "100000",
        "0",
        "0"
      ],
      "transaction": {
        "from": "0x00000c771f6176268d5a9846e0956c3ef58597a1",
        "to": "0x82d25d06a00f04bae3a19107a8131afc019f3adf",
        "gas": "0x1f370",
        "value": "0x186a0",
        "input": "0x06b81a150000000000000000000000000000000000000000000000000000000000000000000000000000000000000000693a08929d3754e917db86770e8184cfcb36e42a000000000000000000000000000000000000000000c49ba5e353f7ce00000000000000000000000000000000000000000000000000000000000000000000000000000000000000000000000000000000000000000000000000000000000186a000000000000000000000000000000000000000000000000000000000000000000000000000000000000000000000000000000000000000000000000000000000",
        "nonce": "0x366",
        "chainId": "0xaa36a7"
      },
      "additionalContracts": [],
      "isFixedGasLimit": false
    },
    {
      "hash": "0x2a8f72fe06da356dddd9ed5e61fa36443e2d6f1d3d962f3bf246ac72ef7c6768",
      "transactionType": "CALL",
      "contractName": null,
      "contractAddress": "0x82d25d06a00f04bae3a19107a8131afc019f3adf",
      "function": "swap((address,address,bytes32),bool,int128,uint96,uint256)",
      "arguments": [
        "(0x0000000000000000000000000000000000000000, 0x693A08929d3754E917DB86770e8184cFcB36e42A, 0x000000000000000000000000000000000000000000c49ba5e353f7ce00000000)",
        "true",
        "500000000",
        "0",
        "0"
      ],
      "transaction": {
        "from": "0x00000c771f6176268d5a9846e0956c3ef58597a1",
        "to": "0x82d25d06a00f04bae3a19107a8131afc019f3adf",
        "gas": "0x23826",
        "value": "0x0",
        "input": "0x06b81a150000000000000000000000000000000000000000000000000000000000000000000000000000000000000000693a08929d3754e917db86770e8184cfcb36e42a000000000000000000000000000000000000000000c49ba5e353f7ce000000000000000000000000000000000000000000000000000000000000000000000001000000000000000000000000000000000000000000000000000000001dcd650000000000000000000000000000000000000000000000000000000000000000000000000000000000000000000000000000000000000000000000000000000000",
        "nonce": "0x367",
        "chainId": "0xaa36a7"
      },
      "additionalContracts": [],
      "isFixedGasLimit": false
    },
    {
      "hash": "0x324262825ccf87ee66c2515b9f11b2620e9f49382ceac25c390a11c6c1d9e836",
      "transactionType": "CALL",
      "contractName": null,
      "contractAddress": "0x82d25d06a00f04bae3a19107a8131afc019f3adf",
      "function": "swap((address,address,bytes32),bool,int128,uint96,uint256)",
      "arguments": [
        "(0x0000000000000000000000000000000000000000, 0x693A08929d3754E917DB86770e8184cFcB36e42A, 0x000000000000000000000000000000000000000000c49ba5e353f7ce00000000)",
        "false",
        "100000",
        "0",
        "0"
      ],
      "transaction": {
        "from": "0x00000c771f6176268d5a9846e0956c3ef58597a1",
        "to": "0x82d25d06a00f04bae3a19107a8131afc019f3adf",
        "gas": "0x1af20",
        "value": "0x186a0",
        "input": "0x06b81a150000000000000000000000000000000000000000000000000000000000000000000000000000000000000000693a08929d3754e917db86770e8184cfcb36e42a000000000000000000000000000000000000000000c49ba5e353f7ce00000000000000000000000000000000000000000000000000000000000000000000000000000000000000000000000000000000000000000000000000000000000186a000000000000000000000000000000000000000000000000000000000000000000000000000000000000000000000000000000000000000000000000000000000",
        "nonce": "0x368",
        "chainId": "0xaa36a7"
      },
      "additionalContracts": [],
      "isFixedGasLimit": false
    },
    {
      "hash": "0x0e513a99ce8ea6aa724b2bcde02ff5c91105ba8923d050dc2a79fe0b14c05d12",
      "transactionType": "CALL",
      "contractName": null,
      "contractAddress": "0x82d25d06a00f04bae3a19107a8131afc019f3adf",
      "function": "swap((address,address,bytes32),bool,int128,uint96,uint256)",
      "arguments": [
        "(0x0000000000000000000000000000000000000000, 0x693A08929d3754E917DB86770e8184cFcB36e42A, 0x000000000000000000000000000000000000000000c49ba5e353f7ce00000000)",
        "true",
        "500000000",
        "0",
        "0"
      ],
      "transaction": {
        "from": "0x00000c771f6176268d5a9846e0956c3ef58597a1",
        "to": "0x82d25d06a00f04bae3a19107a8131afc019f3adf",
        "gas": "0x1bc52",
        "value": "0x0",
        "input": "0x06b81a150000000000000000000000000000000000000000000000000000000000000000000000000000000000000000693a08929d3754e917db86770e8184cfcb36e42a000000000000000000000000000000000000000000c49ba5e353f7ce000000000000000000000000000000000000000000000000000000000000000000000001000000000000000000000000000000000000000000000000000000001dcd650000000000000000000000000000000000000000000000000000000000000000000000000000000000000000000000000000000000000000000000000000000000",
        "nonce": "0x369",
        "chainId": "0xaa36a7"
      },
      "additionalContracts": [],
      "isFixedGasLimit": false
    },
    {
      "hash": "0xc3a90d1284dfed49ec505503eb8b95a2e795dea6c09244ddb3a434927ed7d501",
      "transactionType": "CALL",
      "contractName": null,
      "contractAddress": "0x75166e153b72f913aa21e1d1d83cd10454c6bff6",
      "function": "multicall(bytes[])",
      "arguments": [
        "[0xf3e324680000000000000000000000000000000000000000000000000000000000000000000000000000000000000000693a08929d3754e917db86770e8184cfcb36e42a519c98252304a4933cdef1e66f139dfb0e2d246200000000000000000000000000000000000000000000000000000000000000000000000000000000004644f4, 0x9df3913d29dc746eb8708ae93b241969cea126a45581f55e1d98f48ec30a1d8e6fc993af0000000000000000000000000000000000000000000000000000000000000000000000000000000000000000693a08929d3754e917db86770e8184cfcb36e42a519c98252304a4933cdef1e66f139dfb0e2d2462000000000000000000000000fffffffffffffffffffffffffffffffffffffffffffffffffffffffffab6326d000000000000000000000000000000000000000000000000000000000549cd93000000000000000000000000000000000000000000000000002386f26fc100000000000000000000000000000000000000000000000000000de0b6b3a76400000000000000000000000000000000000000000000000000000000000000000000, 0x41865270]"
      ],
      "transaction": {
        "from": "0x00000c771f6176268d5a9846e0956c3ef58597a1",
        "to": "0x75166e153b72f913aa21e1d1d83cd10454c6bff6",
        "gas": "0x53775",
        "value": "0x2386f26fc10000",
        "input": "0xac9650d8000000000000000000000000000000000000000000000000000000000000002000000000000000000000000000000000000000000000000000000000000000030000000000000000000000000000000000000000000000000000000000000060000000000000000000000000000000000000000000000000000000000000012000000000000000000000000000000000000000000000000000000000000002800000000000000000000000000000000000000000000000000000000000000084f3e324680000000000000000000000000000000000000000000000000000000000000000000000000000000000000000693a08929d3754e917db86770e8184cfcb36e42a519c98252304a4933cdef1e66f139dfb0e2d246200000000000000000000000000000000000000000000000000000000000000000000000000000000004644f40000000000000000000000000000000000000000000000000000000000000000000000000000000000000000000000000000000000000000000001249df3913d29dc746eb8708ae93b241969cea126a45581f55e1d98f48ec30a1d8e6fc993af0000000000000000000000000000000000000000000000000000000000000000000000000000000000000000693a08929d3754e917db86770e8184cfcb36e42a519c98252304a4933cdef1e66f139dfb0e2d2462000000000000000000000000fffffffffffffffffffffffffffffffffffffffffffffffffffffffffab6326d000000000000000000000000000000000000000000000000000000000549cd93000000000000000000000000000000000000000000000000002386f26fc100000000000000000000000000000000000000000000000000000de0b6b3a764000000000000000000000000000000000000000000000000000000000000000000000000000000000000000000000000000000000000000000000000000000000000000000000000000000000000000000000000000000000000000000044186527000000000000000000000000000000000000000000000000000000000",
        "nonce": "0x36a",
        "chainId": "0xaa36a7"
      },
      "additionalContracts": [],
      "isFixedGasLimit": false
    },
    {
      "hash": "0x9ae058a73dd3c2a02990b2ffc3fff5b8087087d9d3c301bf9d310152f2c9cef8",
      "transactionType": "CALL",
      "contractName": null,
      "contractAddress": "0x82d25d06a00f04bae3a19107a8131afc019f3adf",
      "function": "swap((address,address,bytes32),bool,int128,uint96,uint256)",
      "arguments": [
        "(0x0000000000000000000000000000000000000000, 0x693A08929d3754E917DB86770e8184cFcB36e42A, 0x519c98252304a4933cdef1e66f139dfb0e2d2462000000000000000000000000)",
        "false",
        "100000",
        "0",
        "0"
      ],
      "transaction": {
        "from": "0x00000c771f6176268d5a9846e0956c3ef58597a1",
        "to": "0x82d25d06a00f04bae3a19107a8131afc019f3adf",
        "gas": "0x1c503",
        "value": "0x186a0",
        "input": "0x06b81a150000000000000000000000000000000000000000000000000000000000000000000000000000000000000000693a08929d3754e917db86770e8184cfcb36e42a519c98252304a4933cdef1e66f139dfb0e2d2462000000000000000000000000000000000000000000000000000000000000000000000000000000000000000000000000000000000000000000000000000000000000000000000000000186a000000000000000000000000000000000000000000000000000000000000000000000000000000000000000000000000000000000000000000000000000000000",
        "nonce": "0x36b",
        "chainId": "0xaa36a7"
      },
      "additionalContracts": [],
      "isFixedGasLimit": false
    },
    {
      "hash": "0x1afbbf2a671473f5cde7412df7a90210a9758161898e97e535ee39cec5b8acc1",
      "transactionType": "CALL",
      "contractName": null,
      "contractAddress": "0x82d25d06a00f04bae3a19107a8131afc019f3adf",
      "function": "swap((address,address,bytes32),bool,int128,uint96,uint256)",
      "arguments": [
        "(0x0000000000000000000000000000000000000000, 0x693A08929d3754E917DB86770e8184cFcB36e42A, 0x519c98252304a4933cdef1e66f139dfb0e2d2462000000000000000000000000)",
        "true",
        "500000000",
        "0",
        "0"
      ],
      "transaction": {
        "from": "0x00000c771f6176268d5a9846e0956c3ef58597a1",
        "to": "0x82d25d06a00f04bae3a19107a8131afc019f3adf",
        "gas": "0x1d0fe",
        "value": "0x0",
        "input": "0x06b81a150000000000000000000000000000000000000000000000000000000000000000000000000000000000000000693a08929d3754e917db86770e8184cfcb36e42a519c98252304a4933cdef1e66f139dfb0e2d24620000000000000000000000000000000000000000000000000000000000000000000000000000000000000001000000000000000000000000000000000000000000000000000000001dcd650000000000000000000000000000000000000000000000000000000000000000000000000000000000000000000000000000000000000000000000000000000000",
        "nonce": "0x36c",
        "chainId": "0xaa36a7"
      },
      "additionalContracts": [],
      "isFixedGasLimit": false
    },
    {
      "hash": "0x46a05010836b94d717fea031077041fd1b2db71c49127560af98edc0351261d2",
      "transactionType": "CALL",
      "contractName": null,
      "contractAddress": "0x82d25d06a00f04bae3a19107a8131afc019f3adf",
      "function": "swap((address,address,bytes32),bool,int128,uint96,uint256)",
      "arguments": [
        "(0x0000000000000000000000000000000000000000, 0x693A08929d3754E917DB86770e8184cFcB36e42A, 0x519c98252304a4933cdef1e66f139dfb0e2d2462000000000000000000000000)",
        "false",
        "100000",
        "0",
        "0"
      ],
      "transaction": {
        "from": "0x00000c771f6176268d5a9846e0956c3ef58597a1",
        "to": "0x82d25d06a00f04bae3a19107a8131afc019f3adf",
        "gas": "0x1abde",
        "value": "0x186a0",
        "input": "0x06b81a150000000000000000000000000000000000000000000000000000000000000000000000000000000000000000693a08929d3754e917db86770e8184cfcb36e42a519c98252304a4933cdef1e66f139dfb0e2d2462000000000000000000000000000000000000000000000000000000000000000000000000000000000000000000000000000000000000000000000000000000000000000000000000000186a000000000000000000000000000000000000000000000000000000000000000000000000000000000000000000000000000000000000000000000000000000000",
        "nonce": "0x36d",
        "chainId": "0xaa36a7"
      },
      "additionalContracts": [],
      "isFixedGasLimit": false
    },
    {
      "hash": "0x2b277827ee437be6deb8856c445760d4bb072878fce7ee96b7987b5db1b4d5b8",
      "transactionType": "CALL",
      "contractName": null,
      "contractAddress": "0x82d25d06a00f04bae3a19107a8131afc019f3adf",
      "function": "swap((address,address,bytes32),bool,int128,uint96,uint256)",
      "arguments": [
        "(0x0000000000000000000000000000000000000000, 0x693A08929d3754E917DB86770e8184cFcB36e42A, 0x519c98252304a4933cdef1e66f139dfb0e2d2462000000000000000000000000)",
        "true",
        "500000000",
        "0",
        "0"
      ],
      "transaction": {
        "from": "0x00000c771f6176268d5a9846e0956c3ef58597a1",
        "to": "0x82d25d06a00f04bae3a19107a8131afc019f3adf",
        "gas": "0x1d0fe",
        "value": "0x0",
        "input": "0x06b81a150000000000000000000000000000000000000000000000000000000000000000000000000000000000000000693a08929d3754e917db86770e8184cfcb36e42a519c98252304a4933cdef1e66f139dfb0e2d24620000000000000000000000000000000000000000000000000000000000000000000000000000000000000001000000000000000000000000000000000000000000000000000000001dcd650000000000000000000000000000000000000000000000000000000000000000000000000000000000000000000000000000000000000000000000000000000000",
        "nonce": "0x36e",
        "chainId": "0xaa36a7"
      },
      "additionalContracts": [],
      "isFixedGasLimit": false
    },
    {
      "hash": "0xa79a0d4fa2382363dd71ffd96fbd822f6aa6514caeca7518b1c8b76d83911a73",
      "transactionType": "CALL",
      "contractName": null,
      "contractAddress": "0x75166e153b72f913aa21e1d1d83cd10454c6bff6",
      "function": "multicall(bytes[])",
      "arguments": [
        "[0xf3e324680000000000000000000000000000000000000000000000000000000000000000000000000000000000000000693a08929d3754e917db86770e8184cfcb36e42a0000000000000000000000000000000000000000028f5c28f5c28f5c00004d5a000000000000000000000000000000000000000000000000000000000081f64d, 0x9df3913d29dc746eb8708ae93b241969cea126a45581f55e1d98f48ec30a1d8e6fc993b00000000000000000000000000000000000000000000000000000000000000000000000000000000000000000693a08929d3754e917db86770e8184cfcb36e42a0000000000000000000000000000000000000000028f5c28f5c28f5c00004d5afffffffffffffffffffffffffffffffffffffffffffffffffffffffffab65900000000000000000000000000000000000000000000000000000000000549a700000000000000000000000000000000000000000000000000006a94d74f43000000000000000000000000000000000000000000000000001043561a88293000000000000000000000000000000000000000000000000000000000000000000000, 0x41865270]"
      ],
      "transaction": {
        "from": "0x00000c771f6176268d5a9846e0956c3ef58597a1",
        "to": "0x75166e153b72f913aa21e1d1d83cd10454c6bff6",
        "gas": "0x63418",
        "value": "0x6a94d74f430000",
        "input": "0xac9650d8000000000000000000000000000000000000000000000000000000000000002000000000000000000000000000000000000000000000000000000000000000030000000000000000000000000000000000000000000000000000000000000060000000000000000000000000000000000000000000000000000000000000012000000000000000000000000000000000000000000000000000000000000002800000000000000000000000000000000000000000000000000000000000000084f3e324680000000000000000000000000000000000000000000000000000000000000000000000000000000000000000693a08929d3754e917db86770e8184cfcb36e42a0000000000000000000000000000000000000000028f5c28f5c28f5c00004d5a000000000000000000000000000000000000000000000000000000000081f64d0000000000000000000000000000000000000000000000000000000000000000000000000000000000000000000000000000000000000000000001249df3913d29dc746eb8708ae93b241969cea126a45581f55e1d98f48ec30a1d8e6fc993b00000000000000000000000000000000000000000000000000000000000000000000000000000000000000000693a08929d3754e917db86770e8184cfcb36e42a0000000000000000000000000000000000000000028f5c28f5c28f5c00004d5afffffffffffffffffffffffffffffffffffffffffffffffffffffffffab65900000000000000000000000000000000000000000000000000000000000549a700000000000000000000000000000000000000000000000000006a94d74f43000000000000000000000000000000000000000000000000001043561a882930000000000000000000000000000000000000000000000000000000000000000000000000000000000000000000000000000000000000000000000000000000000000000000000000000000000000000000000000000000000000000000044186527000000000000000000000000000000000000000000000000000000000",
        "nonce": "0x36f",
        "chainId": "0xaa36a7"
      },
      "additionalContracts": [],
      "isFixedGasLimit": false
    },
    {
      "hash": "0x0ca1c8c7ee60eba8bad945bcac3e71eb2066fb4bb7d9b1012e163ca8a439a77b",
      "transactionType": "CALL",
      "contractName": null,
      "contractAddress": "0x75166e153b72f913aa21e1d1d83cd10454c6bff6",
      "function": "multicall(bytes[])",
      "arguments": [
        "[0xf3e324680000000000000000000000000000000000000000000000000000000000000000000000000000000000000000693a08929d3754e917db86770e8184cfcb36e42ad03417f73b726b310e12eb64274060069d06ca22028f5c28f5c28f5c00000000000000000000000000000000000000000000000000000000000000000081f64d, 0x9df3913d29dc746eb8708ae93b241969cea126a45581f55e1d98f48ec30a1d8e6fc993b10000000000000000000000000000000000000000000000000000000000000000000000000000000000000000693a08929d3754e917db86770e8184cfcb36e42ad03417f73b726b310e12eb64274060069d06ca22028f5c28f5c28f5c00000000fffffffffffffffffffffffffffffffffffffffffffffffffffffffffab6326d000000000000000000000000000000000000000000000000000000000549cd93000000000000000000000000000000000000000000000000006a94d74f43000000000000000000000000000000000000000000000000001043561a88293000000000000000000000000000000000000000000000000000000000000000000000, 0x41865270]"
      ],
      "transaction": {
        "from": "0x00000c771f6176268d5a9846e0956c3ef58597a1",
        "to": "0x75166e153b72f913aa21e1d1d83cd10454c6bff6",
        "gas": "0x53d9e",
        "value": "0x6a94d74f430000",
        "input": "0xac9650d8000000000000000000000000000000000000000000000000000000000000002000000000000000000000000000000000000000000000000000000000000000030000000000000000000000000000000000000000000000000000000000000060000000000000000000000000000000000000000000000000000000000000012000000000000000000000000000000000000000000000000000000000000002800000000000000000000000000000000000000000000000000000000000000084f3e324680000000000000000000000000000000000000000000000000000000000000000000000000000000000000000693a08929d3754e917db86770e8184cfcb36e42ad03417f73b726b310e12eb64274060069d06ca22028f5c28f5c28f5c00000000000000000000000000000000000000000000000000000000000000000081f64d0000000000000000000000000000000000000000000000000000000000000000000000000000000000000000000000000000000000000000000001249df3913d29dc746eb8708ae93b241969cea126a45581f55e1d98f48ec30a1d8e6fc993b10000000000000000000000000000000000000000000000000000000000000000000000000000000000000000693a08929d3754e917db86770e8184cfcb36e42ad03417f73b726b310e12eb64274060069d06ca22028f5c28f5c28f5c00000000fffffffffffffffffffffffffffffffffffffffffffffffffffffffffab6326d000000000000000000000000000000000000000000000000000000000549cd93000000000000000000000000000000000000000000000000006a94d74f43000000000000000000000000000000000000000000000000001043561a882930000000000000000000000000000000000000000000000000000000000000000000000000000000000000000000000000000000000000000000000000000000000000000000000000000000000000000000000000000000000000000000044186527000000000000000000000000000000000000000000000000000000000",
        "nonce": "0x370",
        "chainId": "0xaa36a7"
      },
      "additionalContracts": [],
      "isFixedGasLimit": false
    },
    {
      "hash": "0x5e3641733d04d3771f293ced6d7123758dec27dec247e81da4d966c5aa64b8c5",
      "transactionType": "CALL",
      "contractName": "TestToken",
      "contractAddress": "0x693a08929d3754e917db86770e8184cfcb36e42a",
      "function": "approve(address,uint256)",
      "arguments": [
        "0x026013C7517e46B5FF84B51C2cFe6Df4D9C16489",
        "115792089237316195423570985008687907853269984665640564039457584007913129639935"
      ],
      "transaction": {
        "from": "0x00000c771f6176268d5a9846e0956c3ef58597a1",
        "to": "0x693a08929d3754e917db86770e8184cfcb36e42a",
        "gas": "0xf8eb",
        "value": "0x0",
        "input": "0x095ea7b3000000000000000000000000026013c7517e46b5ff84b51c2cfe6df4d9c16489ffffffffffffffffffffffffffffffffffffffffffffffffffffffffffffffff",
        "nonce": "0x371",
        "chainId": "0xaa36a7"
      },
      "additionalContracts": [],
      "isFixedGasLimit": false
    },
    {
      "hash": "0x5ac5fe6e22da8fa8d698eef99ca510a43cb4551e8e3502ff775e94868e1395af",
      "transactionType": "CALL",
      "contractName": null,
      "contractAddress": "0x026013c7517e46b5ff84b51c2cfe6df4d9c16489",
      "function": "mintAndIncreaseSellAmount((address,address,uint64,uint256,uint256),uint112,uint112)",
      "arguments": [
        "(0x693A08929d3754E917DB86770e8184cFcB36e42A, 0x0000000000000000000000000000000000000000, 184467440737095516, 0, 1741298160)",
        "100000000000000000000",
        "5192296858534827628530496329220095"
      ],
      "transaction": {
        "from": "0x00000c771f6176268d5a9846e0956c3ef58597a1",
        "to": "0x026013c7517e46b5ff84b51c2cfe6df4d9c16489",
        "gas": "0x490e2",
        "value": "0x0",
        "input": "0x7d5d2aa1000000000000000000000000693a08929d3754e917db86770e8184cfcb36e42a0000000000000000000000000000000000000000000000000000000000000000000000000000000000000000000000000000000000000000028f5c28f5c28f5c00000000000000000000000000000000000000000000000000000000000000000000000000000000000000000000000000000000000000000000000067ca19f00000000000000000000000000000000000000000000000056bc75e2d63100000000000000000000000000000000000000000ffffffffffffffffffffffffffff",
        "nonce": "0x372",
        "chainId": "0xaa36a7"
      },
      "additionalContracts": [],
      "isFixedGasLimit": false
    },
    {
      "hash": null,
      "transactionType": "CALL",
      "contractName": null,
      "contractAddress": "0x026013c7517e46b5ff84b51c2cfe6df4d9c16489",
      "function": "mintAndIncreaseSellAmount((address,address,uint64,uint256,uint256),uint112,uint112)",
      "arguments": [
        "(0x0000000000000000000000000000000000000000, 0x693A08929d3754E917DB86770e8184cFcB36e42A, 184467440737095516, 0, 1741307904)",
        "5000000000000000",
        "5192296858534827628530496329220095"
      ],
      "transaction": {
        "from": "0x00000c771f6176268d5a9846e0956c3ef58597a1",
        "to": "0x026013c7517e46b5ff84b51c2cfe6df4d9c16489",
        "gas": "0x3c62c",
        "value": "0x11c37937e08000",
        "input": "0x7d5d2aa10000000000000000000000000000000000000000000000000000000000000000000000000000000000000000693a08929d3754e917db86770e8184cfcb36e42a000000000000000000000000000000000000000000000000028f5c28f5c28f5c00000000000000000000000000000000000000000000000000000000000000000000000000000000000000000000000000000000000000000000000067ca40000000000000000000000000000000000000000000000000000011c37937e08000000000000000000000000000000000000000ffffffffffffffffffffffffffff",
        "nonce": "0x373",
        "chainId": "0xaa36a7"
      },
      "additionalContracts": [],
      "isFixedGasLimit": false
    }
  ],
  "receipts": [
    {
      "status": "0x1",
      "cumulativeGasUsed": "0x9f826c",
      "logs": [
        {
          "address": "0x693a08929d3754e917db86770e8184cfcb36e42a",
          "topics": [
            "0xddf252ad1be2c89b69c2b068fc378daa952ba7f163c4a11628f55a4df523b3ef",
            "0x0000000000000000000000000000000000000000000000000000000000000000",
            "0x00000000000000000000000000000c771f6176268d5a9846e0956c3ef58597a1"
          ],
          "data": "0xffffffffffffffffffffffffffffffffffffffffffffffffffffffffffffffff",
          "blockHash": "0x49a0b839d64bd9312f5bfacb2a63705fcf4a274f0d0cfb0a88ee2f9e894af6fc",
          "blockNumber": "0x77be9c",
          "transactionHash": "0x47f3737c4aeb4817dfb8588d37bbabdc19b8dee2a71b09efb7b8c763fdfec053",
          "transactionIndex": "0x3c",
          "logIndex": "0x52",
          "removed": false
        }
      ],
      "logsBloom": "0x00000000000000000000000000000000000004000000000000000000000000200000000000000000000000000000000000000000000000000000000001000000000000000000000000000008000000000000000000000000000000000000000000000000020000000000000000000800400000000000000000000010000002000000000000000000000000000000000000000000000100000000000000000000000000000000000000000000000000000000000000000000000000000000000000000002000000000000000000000000000000000000000000000000000020000000000000000000000000000000000000000000000000000000000000000000",
      "type": "0x2",
      "transactionHash": "0x47f3737c4aeb4817dfb8588d37bbabdc19b8dee2a71b09efb7b8c763fdfec053",
      "transactionIndex": "0x3c",
      "blockHash": "0x49a0b839d64bd9312f5bfacb2a63705fcf4a274f0d0cfb0a88ee2f9e894af6fc",
      "blockNumber": "0x77be9c",
      "gasUsed": "0x90ed7",
      "effectiveGasPrice": "0x5ffdc3c",
      "from": "0x00000c771f6176268d5a9846e0956c3ef58597a1",
      "to": null,
      "contractAddress": "0x693a08929d3754e917db86770e8184cfcb36e42a"
    },
    {
      "status": "0x1",
      "cumulativeGasUsed": "0x3453d5",
      "logs": [
        {
          "address": "0x693a08929d3754e917db86770e8184cfcb36e42a",
          "topics": [
            "0x8c5be1e5ebec7d5bd14f71427d1e84f3dd0314c0f7b2291e5b200ac8c7c3b925",
            "0x00000000000000000000000000000c771f6176268d5a9846e0956c3ef58597a1",
            "0x00000000000000000000000082d25d06a00f04bae3a19107a8131afc019f3adf"
          ],
          "data": "0xffffffffffffffffffffffffffffffffffffffffffffffffffffffffffffffff",
          "blockHash": "0x341971fad5b901c3956923f6625822d4f0e0a04bd9e87b09c647b8cd70d4993c",
          "blockNumber": "0x77be9e",
          "transactionHash": "0x06e80c584f5105b599b6d6401fe9114e154da3b99bdbf9eeeec54c3704b3a3b5",
          "transactionIndex": "0x2e",
          "logIndex": "0x35",
          "removed": false
        }
      ],
      "logsBloom": "0x00000000000000000000000000000000000004000000000000000000000000200000000000000000000000000000000000000000000000000000000001200000000000000000000000000000000000000000000000000000000000000000000000000000000400800000000000000000400000000000000000000000000002000000000000000000000000000000000000000000000100000000000000000000020000000000000000000000008000000000000000000000000000000000000000000000000000000000000000000000000000000000000000000000000000000010000000000000000000000000000000000000000000000000000000000000",
      "type": "0x2",
      "transactionHash": "0x06e80c584f5105b599b6d6401fe9114e154da3b99bdbf9eeeec54c3704b3a3b5",
      "transactionIndex": "0x2e",
      "blockHash": "0x341971fad5b901c3956923f6625822d4f0e0a04bd9e87b09c647b8cd70d4993c",
      "blockNumber": "0x77be9e",
      "gasUsed": "0xb437",
      "effectiveGasPrice": "0x5ffe06a",
      "from": "0x00000c771f6176268d5a9846e0956c3ef58597a1",
      "to": "0x693a08929d3754e917db86770e8184cfcb36e42a",
      "contractAddress": null
    },
    {
      "status": "0x1",
      "cumulativeGasUsed": "0x5cd22d",
      "logs": [
        {
          "address": "0x693a08929d3754e917db86770e8184cfcb36e42a",
          "topics": [
            "0x8c5be1e5ebec7d5bd14f71427d1e84f3dd0314c0f7b2291e5b200ac8c7c3b925",
            "0x00000000000000000000000000000c771f6176268d5a9846e0956c3ef58597a1",
            "0x00000000000000000000000075166e153b72f913aa21e1d1d83cd10454c6bff6"
          ],
          "data": "0xffffffffffffffffffffffffffffffffffffffffffffffffffffffffffffffff",
          "blockHash": "0x5ac161bd0360d431f5b01d26677013095a6ebda3c0c4792c0756ffa8f40b5985",
          "blockNumber": "0x77be9f",
          "transactionHash": "0x6cec420f1985a5e0c35948de86fd68f891855e3b265cefd478c1ce38c2abbf2d",
          "transactionIndex": "0x3d",
          "logIndex": "0x70",
          "removed": false
        }
      ],
      "logsBloom": "0x00000000000000000000000000000000000004000000000000000000000000200000000000000000000000000000000000000000000000000000000001200000000000000000000000000000000000000000000000000000000000000000000000000000000000000000000000000000400000000000000000000000000002000000000000000000000000000000000000000000100100000000000000000000020000004000000000000000000000000000000000000000000000000000000000000000000000000000000000000000000000000000000000000000000000000010000000000000000000000000000000000000000000000000000000004000",
      "type": "0x2",
      "transactionHash": "0x6cec420f1985a5e0c35948de86fd68f891855e3b265cefd478c1ce38c2abbf2d",
      "transactionIndex": "0x3d",
      "blockHash": "0x5ac161bd0360d431f5b01d26677013095a6ebda3c0c4792c0756ffa8f40b5985",
      "blockNumber": "0x77be9f",
      "gasUsed": "0xb437",
      "effectiveGasPrice": "0x5ffd2d1",
      "from": "0x00000c771f6176268d5a9846e0956c3ef58597a1",
      "to": "0x693a08929d3754e917db86770e8184cfcb36e42a",
      "contractAddress": null
    },
    {
      "status": "0x1",
      "cumulativeGasUsed": "0x648a5d",
      "logs": [
        {
          "address": "0xb98c50b291a8b69cffabd172de4d1bbc773f962a",
          "topics": [
            "0x5e4688b340694b7c7fd30047fd082117dc46e32acfbf81a44bb1fac0ae65154d"
          ],
          "data": "0x9b4a5b9e60a54b882a6f28dbad53653a41d605ec7d7f7664604e3a55719a26ca0000000000000000000000000000000000000000000000000000000000000000000000000000000000000000693a08929d3754e917db86770e8184cfcb36e42a000000000000000000000000000000000000000000c49ba5e353f7ce0000175e000000000000000000000000000000000000000000000000000000000081f64d000000000000000000000000000000000000000080000011ad7b7d57d2db6557",
          "blockHash": "0x3b8b4299962501b756598d632d2b073ce45d0a3108162f61100e10304fa759a7",
          "blockNumber": "0x77bea0",
          "transactionHash": "0xf9e865b874dd86141137a77f2ddb5b994688a4aede7e680a75b1625a3f42197e",
          "transactionIndex": "0x35",
          "logIndex": "0x4d",
          "removed": false
        },
        {
          "address": "0x75166e153b72f913aa21e1d1d83cd10454c6bff6",
          "topics": [
            "0xddf252ad1be2c89b69c2b068fc378daa952ba7f163c4a11628f55a4df523b3ef",
            "0x0000000000000000000000000000000000000000000000000000000000000000",
            "0x00000000000000000000000000000c771f6176268d5a9846e0956c3ef58597a1",
            "0x00000000000000000000000000000000000000000000000000001a427efc8474"
          ],
          "data": "0x",
          "blockHash": "0x3b8b4299962501b756598d632d2b073ce45d0a3108162f61100e10304fa759a7",
          "blockNumber": "0x77bea0",
          "transactionHash": "0xf9e865b874dd86141137a77f2ddb5b994688a4aede7e680a75b1625a3f42197e",
          "transactionIndex": "0x35",
          "logIndex": "0x4e",
          "removed": false
        },
        {
          "address": "0xb98c50b291a8b69cffabd172de4d1bbc773f962a",
          "topics": [
            "0xa2d4008be4187c63684f323788e131e1370dbc2205499befe2834005a00c792c"
          ],
          "data": "0x00000000000000000000000075166e153b72f913aa21e1d1d83cd10454c6bff69b4a5b9e60a54b882a6f28dbad53653a41d605ec7d7f7664604e3a55719a26ca00000000000000000000000000000000000000000000000000001a427efc8474fffffffffffffffffffffffffffffffffffffffffffffffffffffffffab6413e000000000000000000000000000000000000000000000000000000000549bec200000000000000000000000000000000000000000000000009d025b9f39a7b59000000000000000000000000000000000000000000000000002386f26fc10000000000000000000000000000000000000000000000000002b5e39a9fdddd9e1c",
          "blockHash": "0x3b8b4299962501b756598d632d2b073ce45d0a3108162f61100e10304fa759a7",
          "blockNumber": "0x77bea0",
          "transactionHash": "0xf9e865b874dd86141137a77f2ddb5b994688a4aede7e680a75b1625a3f42197e",
          "transactionIndex": "0x35",
          "logIndex": "0x4f",
          "removed": false
        },
        {
          "address": "0x693a08929d3754e917db86770e8184cfcb36e42a",
          "topics": [
            "0xddf252ad1be2c89b69c2b068fc378daa952ba7f163c4a11628f55a4df523b3ef",
            "0x00000000000000000000000000000c771f6176268d5a9846e0956c3ef58597a1",
            "0x000000000000000000000000b98c50b291a8b69cffabd172de4d1bbc773f962a"
          ],
          "data": "0x000000000000000000000000000000000000000000000002b5e39a9fdddd9e1c",
          "blockHash": "0x3b8b4299962501b756598d632d2b073ce45d0a3108162f61100e10304fa759a7",
          "blockNumber": "0x77bea0",
          "transactionHash": "0xf9e865b874dd86141137a77f2ddb5b994688a4aede7e680a75b1625a3f42197e",
          "transactionIndex": "0x35",
          "logIndex": "0x50",
          "removed": false
        }
      ],
      "logsBloom": "0x00000000000100000080000000000000000004000100000000000000000000200000000000000004000000000000000000000000000000000000000001000000000000000000000000002008000000000000000000000000000000000000000020000000020000000000000000000a00400800000000000000000010000002000000000004000002001040000008000000000000000100000000000000000000000000000000000200000000010000000000000000000000000000000400000000000002000000000000000000000000000000000000000000000000000020000000000000000100000000000000000000008000000000000000000000000000",
      "type": "0x2",
      "transactionHash": "0xf9e865b874dd86141137a77f2ddb5b994688a4aede7e680a75b1625a3f42197e",
      "transactionIndex": "0x35",
      "blockHash": "0x3b8b4299962501b756598d632d2b073ce45d0a3108162f61100e10304fa759a7",
      "blockNumber": "0x77bea0",
      "gasUsed": "0x4c579",
      "effectiveGasPrice": "0x6010358",
      "from": "0x00000c771f6176268d5a9846e0956c3ef58597a1",
      "to": "0x75166e153b72f913aa21e1d1d83cd10454c6bff6",
      "contractAddress": null
    },
    {
      "status": "0x1",
      "cumulativeGasUsed": "0x4745e2",
      "logs": [
        {
          "address": "0xb98c50b291a8b69cffabd172de4d1bbc773f962a",
          "topics": [],
          "data": "0x82d25d06a00f04bae3a19107a8131afc019f3adf9b4a5b9e60a54b882a6f28dbad53653a41d605ec7d7f7664604e3a55719a26ca000000000000000000000000000186a0ffffffffffffffffffffffffe2497ffa000000000000000009d025b9f39a7b5980000011ad7b7d5711127bde0081f64c",
          "blockHash": "0x3ca811e358a86e39bcd55cea9df1b0842d960199a86f78ec2ac211d8ae0e9634",
          "blockNumber": "0x77bea1",
          "transactionHash": "0x26861a2da77bf4d9d91d3466df58689f650e6b2025e57de49af975c850f6dcfc",
          "transactionIndex": "0x30",
          "logIndex": "0x40",
          "removed": false
        },
        {
          "address": "0x693a08929d3754e917db86770e8184cfcb36e42a",
          "topics": [
            "0xddf252ad1be2c89b69c2b068fc378daa952ba7f163c4a11628f55a4df523b3ef",
            "0x000000000000000000000000b98c50b291a8b69cffabd172de4d1bbc773f962a",
            "0x00000000000000000000000000000c771f6176268d5a9846e0956c3ef58597a1"
          ],
          "data": "0x000000000000000000000000000000000000000000000000000000001db68006",
          "blockHash": "0x3ca811e358a86e39bcd55cea9df1b0842d960199a86f78ec2ac211d8ae0e9634",
          "blockNumber": "0x77bea1",
          "transactionHash": "0x26861a2da77bf4d9d91d3466df58689f650e6b2025e57de49af975c850f6dcfc",
          "transactionIndex": "0x30",
          "logIndex": "0x41",
          "removed": false
        }
      ],
      "logsBloom": "0x00000000000000000080000000000000000004000000000000000000000000200000000000000000000000000000000000000000000000000000000001000000000000000000000000000008000000000000000000000000000000000000000000000000000000000000000000000000400000000000000000000010000002000000000004000000000040000000000000000000000100000000000000000000000000000000000200000000010000000000000000000000000000000000000000000002000000000000000000000000000000000000000000000000000000000000000000000100000000000000000000000000000000000000000000000000",
      "type": "0x2",
      "transactionHash": "0x26861a2da77bf4d9d91d3466df58689f650e6b2025e57de49af975c850f6dcfc",
      "transactionIndex": "0x30",
      "blockHash": "0x3ca811e358a86e39bcd55cea9df1b0842d960199a86f78ec2ac211d8ae0e9634",
      "blockNumber": "0x77bea1",
      "gasUsed": "0x178f4",
      "effectiveGasPrice": "0x600788d",
      "from": "0x00000c771f6176268d5a9846e0956c3ef58597a1",
      "to": "0x82d25d06a00f04bae3a19107a8131afc019f3adf",
      "contractAddress": null
    },
    {
      "status": "0x1",
      "cumulativeGasUsed": "0x51f1b8",
      "logs": [
        {
          "address": "0xb98c50b291a8b69cffabd172de4d1bbc773f962a",
          "topics": [],
          "data": "0x82d25d06a00f04bae3a19107a8131afc019f3adf9b4a5b9e60a54b882a6f28dbad53653a41d605ec7d7f7664604e3a55719a26cafffffffffffffffffffffffffffe7a8c0000000000000000000000001dcd6500000000000000000009d025b9f39a7b5980000011ad7b7d57d2db6fc20081f64d",
          "blockHash": "0xdb39c2f993be17ae6e0c34c30d26f484165e5d13252674db74cdf84d79924848",
          "blockNumber": "0x77bea2",
          "transactionHash": "0x91657b06911c5c9bb0d1b98d1ade992111f6ead1eda3df45d94d5111be8f4281",
          "transactionIndex": "0x35",
          "logIndex": "0x60",
          "removed": false
        },
        {
          "address": "0x693a08929d3754e917db86770e8184cfcb36e42a",
          "topics": [
            "0xddf252ad1be2c89b69c2b068fc378daa952ba7f163c4a11628f55a4df523b3ef",
            "0x00000000000000000000000000000c771f6176268d5a9846e0956c3ef58597a1",
            "0x000000000000000000000000b98c50b291a8b69cffabd172de4d1bbc773f962a"
          ],
          "data": "0x000000000000000000000000000000000000000000000000000000001dcd6500",
          "blockHash": "0xdb39c2f993be17ae6e0c34c30d26f484165e5d13252674db74cdf84d79924848",
          "blockNumber": "0x77bea2",
          "transactionHash": "0x91657b06911c5c9bb0d1b98d1ade992111f6ead1eda3df45d94d5111be8f4281",
          "transactionIndex": "0x35",
          "logIndex": "0x61",
          "removed": false
        }
      ],
      "logsBloom": "0x00000000000000000080000000000000000004000000000000000000000000200000000000000000000000000000000000000000000000000000000001000000000000000000000000000008000000000000000000000000000000000000000000000000000000000000000000000000400000000000000000000010000002000000000004000000000040000000000000000000000100000000000000000000000000000000000200000000010000000000000000000000000000000000000000000002000000000000000000000000000000000000000000000000000000000000000000000100000000000000000000000000000000000000000000000000",
      "type": "0x2",
      "transactionHash": "0x91657b06911c5c9bb0d1b98d1ade992111f6ead1eda3df45d94d5111be8f4281",
      "transactionIndex": "0x35",
      "blockHash": "0xdb39c2f993be17ae6e0c34c30d26f484165e5d13252674db74cdf84d79924848",
      "blockNumber": "0x77bea2",
      "gasUsed": "0x193af",
      "effectiveGasPrice": "0x5ffc2e9",
      "from": "0x00000c771f6176268d5a9846e0956c3ef58597a1",
      "to": "0x82d25d06a00f04bae3a19107a8131afc019f3adf",
      "contractAddress": null
    },
    {
      "status": "0x1",
      "cumulativeGasUsed": "0x3a1071",
      "logs": [
        {
          "address": "0xb98c50b291a8b69cffabd172de4d1bbc773f962a",
          "topics": [],
          "data": "0x82d25d06a00f04bae3a19107a8131afc019f3adf9b4a5b9e60a54b882a6f28dbad53653a41d605ec7d7f7664604e3a55719a26ca000000000000000000000000000186a0ffffffffffffffffffffffffe24991e8000000000000000009d025b9f39a7b5980000011ad7b7d571112fb3f0081f64c",
          "blockHash": "0x0af4932481e09b50a5a328450dbbb73e498a794b808511e39f8901d4f7b68e3b",
          "blockNumber": "0x77bea3",
          "transactionHash": "0x9b62df1287e0aa05c3bff56bb4f0f1d9f6a0a360fe59d517dd5b2d01d759ea9d",
          "transactionIndex": "0x30",
          "logIndex": "0x37",
          "removed": false
        },
        {
          "address": "0x693a08929d3754e917db86770e8184cfcb36e42a",
          "topics": [
            "0xddf252ad1be2c89b69c2b068fc378daa952ba7f163c4a11628f55a4df523b3ef",
            "0x000000000000000000000000b98c50b291a8b69cffabd172de4d1bbc773f962a",
            "0x00000000000000000000000000000c771f6176268d5a9846e0956c3ef58597a1"
          ],
          "data": "0x000000000000000000000000000000000000000000000000000000001db66e18",
          "blockHash": "0x0af4932481e09b50a5a328450dbbb73e498a794b808511e39f8901d4f7b68e3b",
          "blockNumber": "0x77bea3",
          "transactionHash": "0x9b62df1287e0aa05c3bff56bb4f0f1d9f6a0a360fe59d517dd5b2d01d759ea9d",
          "transactionIndex": "0x30",
          "logIndex": "0x38",
          "removed": false
        }
      ],
      "logsBloom": "0x00000000000000000080000000000000000004000000000000000000000000200000000000000000000000000000000000000000000000000000000001000000000000000000000000000008000000000000000000000000000000000000000000000000000000000000000000000000400000000000000000000010000002000000000004000000000040000000000000000000000100000000000000000000000000000000000200000000010000000000000000000000000000000000000000000002000000000000000000000000000000000000000000000000000000000000000000000100000000000000000000000000000000000000000000000000",
      "type": "0x2",
      "transactionHash": "0x9b62df1287e0aa05c3bff56bb4f0f1d9f6a0a360fe59d517dd5b2d01d759ea9d",
      "transactionIndex": "0x30",
      "blockHash": "0x0af4932481e09b50a5a328450dbbb73e498a794b808511e39f8901d4f7b68e3b",
      "blockNumber": "0x77bea3",
      "gasUsed": "0x13628",
      "effectiveGasPrice": "0x600ba22",
      "from": "0x00000c771f6176268d5a9846e0956c3ef58597a1",
      "to": "0x82d25d06a00f04bae3a19107a8131afc019f3adf",
      "contractAddress": null
    },
    {
      "status": "0x1",
      "cumulativeGasUsed": "0x4c7266",
      "logs": [
        {
          "address": "0xb98c50b291a8b69cffabd172de4d1bbc773f962a",
          "topics": [],
          "data": "0x82d25d06a00f04bae3a19107a8131afc019f3adf9b4a5b9e60a54b882a6f28dbad53653a41d605ec7d7f7664604e3a55719a26cafffffffffffffffffffffffffffe7a8c0000000000000000000000001dcd6500000000000000000009d025b9f39a7b5980000011ad7b7d57d2dbef230081f64d",
          "blockHash": "0x8679616836ef3bf96077a03654ce74616a37e6483e944eb40c1b2254f9b7bed8",
          "blockNumber": "0x77bea4",
          "transactionHash": "0x549efd077089a9304abd5f070495c541f1a3625bdc1c5cd8616971817575643b",
          "transactionIndex": "0x40",
          "logIndex": "0x50",
          "removed": false
        },
        {
          "address": "0x693a08929d3754e917db86770e8184cfcb36e42a",
          "topics": [
            "0xddf252ad1be2c89b69c2b068fc378daa952ba7f163c4a11628f55a4df523b3ef",
            "0x00000000000000000000000000000c771f6176268d5a9846e0956c3ef58597a1",
            "0x000000000000000000000000b98c50b291a8b69cffabd172de4d1bbc773f962a"
          ],
          "data": "0x000000000000000000000000000000000000000000000000000000001dcd6500",
          "blockHash": "0x8679616836ef3bf96077a03654ce74616a37e6483e944eb40c1b2254f9b7bed8",
          "blockNumber": "0x77bea4",
          "transactionHash": "0x549efd077089a9304abd5f070495c541f1a3625bdc1c5cd8616971817575643b",
          "transactionIndex": "0x40",
          "logIndex": "0x51",
          "removed": false
        }
      ],
      "logsBloom": "0x00000000000000000080000000000000000004000000000000000000000000200000000000000000000000000000000000000000000000000000000001000000000000000000000000000008000000000000000000000000000000000000000000000000000000000000000000000000400000000000000000000010000002000000000004000000000040000000000000000000000100000000000000000000000000000000000200000000010000000000000000000000000000000000000000000002000000000000000000000000000000000000000000000000000000000000000000000100000000000000000000000000000000000000000000000000",
      "type": "0x2",
      "transactionHash": "0x549efd077089a9304abd5f070495c541f1a3625bdc1c5cd8616971817575643b",
      "transactionIndex": "0x40",
      "blockHash": "0x8679616836ef3bf96077a03654ce74616a37e6483e944eb40c1b2254f9b7bed8",
      "blockNumber": "0x77bea4",
      "gasUsed": "0x150e3",
      "effectiveGasPrice": "0x600728f",
      "from": "0x00000c771f6176268d5a9846e0956c3ef58597a1",
      "to": "0x82d25d06a00f04bae3a19107a8131afc019f3adf",
      "contractAddress": null
    },
    {
      "status": "0x1",
      "cumulativeGasUsed": "0x56e36a",
      "logs": [
        {
          "address": "0xb98c50b291a8b69cffabd172de4d1bbc773f962a",
          "topics": [
            "0x5e4688b340694b7c7fd30047fd082117dc46e32acfbf81a44bb1fac0ae65154d"
          ],
          "data": "0x745e2bb59ef33b4e387c708985d7cba7acf0b4af16da16943b470b0ce956a45b0000000000000000000000000000000000000000000000000000000000000000000000000000000000000000693a08929d3754e917db86770e8184cfcb36e42a000000000000000000000000000000000000000000c49ba5e353f7ce00000000000000000000000000000000000000000000000000000000000000000081f64d000000000000000000000000000000000000000080000011ad7b7d57d2db6557",
          "blockHash": "0x5e0c7239fd719ac6d8f1d30b3c0e39e95085e2463226186c25ebcfb18658be6b",
          "blockNumber": "0x77bea5",
          "transactionHash": "0xaf08e53ba42692373ef7c8488054d6d11f3c41871186b3d6eb0cd877faf8f3f5",
          "transactionIndex": "0x34",
          "logIndex": "0x49",
          "removed": false
        },
        {
          "address": "0x75166e153b72f913aa21e1d1d83cd10454c6bff6",
          "topics": [
            "0xddf252ad1be2c89b69c2b068fc378daa952ba7f163c4a11628f55a4df523b3ef",
            "0x0000000000000000000000000000000000000000000000000000000000000000",
            "0x00000000000000000000000000000c771f6176268d5a9846e0956c3ef58597a1",
            "0x000000000000000000000000000000000000000000000000000066611df6f911"
          ],
          "data": "0x",
          "blockHash": "0x5e0c7239fd719ac6d8f1d30b3c0e39e95085e2463226186c25ebcfb18658be6b",
          "blockNumber": "0x77bea5",
          "transactionHash": "0xaf08e53ba42692373ef7c8488054d6d11f3c41871186b3d6eb0cd877faf8f3f5",
          "transactionIndex": "0x34",
          "logIndex": "0x4a",
          "removed": false
        },
        {
          "address": "0xb98c50b291a8b69cffabd172de4d1bbc773f962a",
          "topics": [
            "0xa2d4008be4187c63684f323788e131e1370dbc2205499befe2834005a00c792c"
          ],
          "data": "0x00000000000000000000000075166e153b72f913aa21e1d1d83cd10454c6bff6745e2bb59ef33b4e387c708985d7cba7acf0b4af16da16943b470b0ce956a45b000000000000000000000000000000000000000000000000000066611df6f911fffffffffffffffffffffffffffffffffffffffffffffffffffffffffab6326d000000000000000000000000000000000000000000000000000000000549cd9300000000000000000000000000000000000000000000000009d025b9f39a7b59000000000000000000000000000000000000000000000000002386f26fc10000000000000000000000000000000000000000000000000002b5e39a9fdddd9e1c",
          "blockHash": "0x5e0c7239fd719ac6d8f1d30b3c0e39e95085e2463226186c25ebcfb18658be6b",
          "blockNumber": "0x77bea5",
          "transactionHash": "0xaf08e53ba42692373ef7c8488054d6d11f3c41871186b3d6eb0cd877faf8f3f5",
          "transactionIndex": "0x34",
          "logIndex": "0x4b",
          "removed": false
        },
        {
          "address": "0x693a08929d3754e917db86770e8184cfcb36e42a",
          "topics": [
            "0xddf252ad1be2c89b69c2b068fc378daa952ba7f163c4a11628f55a4df523b3ef",
            "0x00000000000000000000000000000c771f6176268d5a9846e0956c3ef58597a1",
            "0x000000000000000000000000b98c50b291a8b69cffabd172de4d1bbc773f962a"
          ],
          "data": "0x000000000000000000000000000000000000000000000002b5e39a9fdddd9e1c",
          "blockHash": "0x5e0c7239fd719ac6d8f1d30b3c0e39e95085e2463226186c25ebcfb18658be6b",
          "blockNumber": "0x77bea5",
          "transactionHash": "0xaf08e53ba42692373ef7c8488054d6d11f3c41871186b3d6eb0cd877faf8f3f5",
          "transactionIndex": "0x34",
          "logIndex": "0x4c",
          "removed": false
        }
      ],
      "logsBloom": "0x00000000000100000080000000000000000004000100000000000000000000200000000000000004000000000000000001000000000000000000000001000000000000000000000000002008000000000000000000000000000000000000000020000000020000000000000000000800400800000000000000000010000002000000000004000000000040000008000000000000000100000000000000000000000000000000000a00000000010000000000000000000000000000000400000000000002000000000000000000000000000000000000000000000000000020000000000000000100000000000000000000008000000000000000100000000000",
      "type": "0x2",
      "transactionHash": "0xaf08e53ba42692373ef7c8488054d6d11f3c41871186b3d6eb0cd877faf8f3f5",
      "transactionIndex": "0x34",
      "blockHash": "0x5e0c7239fd719ac6d8f1d30b3c0e39e95085e2463226186c25ebcfb18658be6b",
      "blockNumber": "0x77bea5",
      "gasUsed": "0x2b7fe",
      "effectiveGasPrice": "0x6001065",
      "from": "0x00000c771f6176268d5a9846e0956c3ef58597a1",
      "to": "0x75166e153b72f913aa21e1d1d83cd10454c6bff6",
      "contractAddress": null
    },
    {
      "status": "0x1",
      "cumulativeGasUsed": "0x3f5893",
      "logs": [
        {
          "address": "0xb98c50b291a8b69cffabd172de4d1bbc773f962a",
          "topics": [],
          "data": "0x82d25d06a00f04bae3a19107a8131afc019f3adf745e2bb59ef33b4e387c708985d7cba7acf0b4af16da16943b470b0ce956a45b000000000000000000000000000186a0ffffffffffffffffffffffffe2497ffa000000000000000009d025b9f39a7b5980000011ad7b7d5711127bde0081f64c",
          "blockHash": "0x15a726f1ffcb811889cbc5fbfc3b9550ea5ec21b13ba77f72741020d95634005",
          "blockNumber": "0x77bea6",
          "transactionHash": "0x899ec0e7660548173d803125147cbda898c885c86cefebabb6349a22bf7c9e2c",
          "transactionIndex": "0x3c",
          "logIndex": "0x39",
          "removed": false
        },
        {
          "address": "0x693a08929d3754e917db86770e8184cfcb36e42a",
          "topics": [
            "0xddf252ad1be2c89b69c2b068fc378daa952ba7f163c4a11628f55a4df523b3ef",
            "0x000000000000000000000000b98c50b291a8b69cffabd172de4d1bbc773f962a",
            "0x00000000000000000000000000000c771f6176268d5a9846e0956c3ef58597a1"
          ],
          "data": "0x000000000000000000000000000000000000000000000000000000001db68006",
          "blockHash": "0x15a726f1ffcb811889cbc5fbfc3b9550ea5ec21b13ba77f72741020d95634005",
          "blockNumber": "0x77bea6",
          "transactionHash": "0x899ec0e7660548173d803125147cbda898c885c86cefebabb6349a22bf7c9e2c",
          "transactionIndex": "0x3c",
          "logIndex": "0x3a",
          "removed": false
        }
      ],
      "logsBloom": "0x00000000000000000080000000000000000004000000000000000000000000200000000000000000000000000000000000000000000000000000000001000000000000000000000000000008000000000000000000000000000000000000000000000000000000000000000000000000400000000000000000000010000002000000000004000000000040000000000000000000000100000000000000000000000000000000000200000000010000000000000000000000000000000000000000000002000000000000000000000000000000000000000000000000000000000000000000000100000000000000000000000000000000000000000000000000",
      "type": "0x2",
      "transactionHash": "0x899ec0e7660548173d803125147cbda898c885c86cefebabb6349a22bf7c9e2c",
      "transactionIndex": "0x3c",
      "blockHash": "0x15a726f1ffcb811889cbc5fbfc3b9550ea5ec21b13ba77f72741020d95634005",
      "blockNumber": "0x77bea6",
      "gasUsed": "0x16996",
      "effectiveGasPrice": "0x5ffc521",
      "from": "0x00000c771f6176268d5a9846e0956c3ef58597a1",
      "to": "0x82d25d06a00f04bae3a19107a8131afc019f3adf",
      "contractAddress": null
    },
    {
      "status": "0x1",
      "cumulativeGasUsed": "0x47a59c",
      "logs": [
        {
          "address": "0xb98c50b291a8b69cffabd172de4d1bbc773f962a",
          "topics": [],
          "data": "0x82d25d06a00f04bae3a19107a8131afc019f3adf745e2bb59ef33b4e387c708985d7cba7acf0b4af16da16943b470b0ce956a45bfffffffffffffffffffffffffffe7a8c0000000000000000000000001dcd6500000000000000000009d025b9f39a7b5980000011ad7b7d57d2db6fc20081f64d",
          "blockHash": "0xe3d2cc5d06f57d2603a08fcbf3551f2b4a3d9b818057f363fa452535fd61cd32",
          "blockNumber": "0x77bea7",
          "transactionHash": "0x2a8f72fe06da356dddd9ed5e61fa36443e2d6f1d3d962f3bf246ac72ef7c6768",
          "transactionIndex": "0x33",
          "logIndex": "0x26",
          "removed": false
        },
        {
          "address": "0x693a08929d3754e917db86770e8184cfcb36e42a",
          "topics": [
            "0xddf252ad1be2c89b69c2b068fc378daa952ba7f163c4a11628f55a4df523b3ef",
            "0x00000000000000000000000000000c771f6176268d5a9846e0956c3ef58597a1",
            "0x000000000000000000000000b98c50b291a8b69cffabd172de4d1bbc773f962a"
          ],
          "data": "0x000000000000000000000000000000000000000000000000000000001dcd6500",
          "blockHash": "0xe3d2cc5d06f57d2603a08fcbf3551f2b4a3d9b818057f363fa452535fd61cd32",
          "blockNumber": "0x77bea7",
          "transactionHash": "0x2a8f72fe06da356dddd9ed5e61fa36443e2d6f1d3d962f3bf246ac72ef7c6768",
          "transactionIndex": "0x33",
          "logIndex": "0x27",
          "removed": false
        }
      ],
      "logsBloom": "0x00000000000000000080000000000000000004000000000000000000000000200000000000000000000000000000000000000000000000000000000001000000000000000000000000000008000000000000000000000000000000000000000000000000000000000000000000000000400000000000000000000010000002000000000004000000000040000000000000000000000100000000000000000000000000000000000200000000010000000000000000000000000000000000000000000002000000000000000000000000000000000000000000000000000000000000000000000100000000000000000000000000000000000000000000000000",
      "type": "0x2",
      "transactionHash": "0x2a8f72fe06da356dddd9ed5e61fa36443e2d6f1d3d962f3bf246ac72ef7c6768",
      "transactionIndex": "0x33",
      "blockHash": "0xe3d2cc5d06f57d2603a08fcbf3551f2b4a3d9b818057f363fa452535fd61cd32",
      "blockNumber": "0x77bea7",
      "gasUsed": "0x1847b",
      "effectiveGasPrice": "0x600a0f5",
      "from": "0x00000c771f6176268d5a9846e0956c3ef58597a1",
      "to": "0x82d25d06a00f04bae3a19107a8131afc019f3adf",
      "contractAddress": null
    },
    {
      "status": "0x1",
      "cumulativeGasUsed": "0x69e0a1",
      "logs": [
        {
          "address": "0xb98c50b291a8b69cffabd172de4d1bbc773f962a",
          "topics": [],
          "data": "0x82d25d06a00f04bae3a19107a8131afc019f3adf745e2bb59ef33b4e387c708985d7cba7acf0b4af16da16943b470b0ce956a45b000000000000000000000000000186a0ffffffffffffffffffffffffe24991e8000000000000000009d025b9f39a7b5980000011ad7b7d571112fb3f0081f64c",
          "blockHash": "0xe728e7ca79852e0779aa834fe28e57c1cea8f4b293b7a99baccf8c0a53894855",
          "blockNumber": "0x77bea8",
          "transactionHash": "0x324262825ccf87ee66c2515b9f11b2620e9f49382ceac25c390a11c6c1d9e836",
          "transactionIndex": "0x43",
          "logIndex": "0x6b",
          "removed": false
        },
        {
          "address": "0x693a08929d3754e917db86770e8184cfcb36e42a",
          "topics": [
            "0xddf252ad1be2c89b69c2b068fc378daa952ba7f163c4a11628f55a4df523b3ef",
            "0x000000000000000000000000b98c50b291a8b69cffabd172de4d1bbc773f962a",
            "0x00000000000000000000000000000c771f6176268d5a9846e0956c3ef58597a1"
          ],
          "data": "0x000000000000000000000000000000000000000000000000000000001db66e18",
          "blockHash": "0xe728e7ca79852e0779aa834fe28e57c1cea8f4b293b7a99baccf8c0a53894855",
          "blockNumber": "0x77bea8",
          "transactionHash": "0x324262825ccf87ee66c2515b9f11b2620e9f49382ceac25c390a11c6c1d9e836",
          "transactionIndex": "0x43",
          "logIndex": "0x6c",
          "removed": false
        }
      ],
      "logsBloom": "0x00000000000000000080000000000000000004000000000000000000000000200000000000000000000000000000000000000000000000000000000001000000000000000000000000000008000000000000000000000000000000000000000000000000000000000000000000000000400000000000000000000010000002000000000004000000000040000000000000000000000100000000000000000000000000000000000200000000010000000000000000000000000000000000000000000002000000000000000000000000000000000000000000000000000000000000000000000100000000000000000000000000000000000000000000000000",
      "type": "0x2",
      "transactionHash": "0x324262825ccf87ee66c2515b9f11b2620e9f49382ceac25c390a11c6c1d9e836",
      "transactionIndex": "0x43",
      "blockHash": "0xe728e7ca79852e0779aa834fe28e57c1cea8f4b293b7a99baccf8c0a53894855",
      "blockNumber": "0x77bea8",
      "gasUsed": "0x126ca",
      "effectiveGasPrice": "0x6017b27",
      "from": "0x00000c771f6176268d5a9846e0956c3ef58597a1",
      "to": "0x82d25d06a00f04bae3a19107a8131afc019f3adf",
      "contractAddress": null
    },
    {
      "status": "0x1",
      "cumulativeGasUsed": "0x3f4faf",
      "logs": [
        {
          "address": "0xb98c50b291a8b69cffabd172de4d1bbc773f962a",
          "topics": [],
          "data": "0x82d25d06a00f04bae3a19107a8131afc019f3adf745e2bb59ef33b4e387c708985d7cba7acf0b4af16da16943b470b0ce956a45bfffffffffffffffffffffffffffe7a8c0000000000000000000000001dcd6500000000000000000009d025b9f39a7b5980000011ad7b7d57d2dbef230081f64d",
          "blockHash": "0x72a9b7e0f2ddcae300033be0c44f0b091be836ba6372fef6e86bc8558a9a37fb",
          "blockNumber": "0x77bea9",
          "transactionHash": "0x0e513a99ce8ea6aa724b2bcde02ff5c91105ba8923d050dc2a79fe0b14c05d12",
          "transactionIndex": "0x35",
          "logIndex": "0x3f",
          "removed": false
        },
        {
          "address": "0x693a08929d3754e917db86770e8184cfcb36e42a",
          "topics": [
            "0xddf252ad1be2c89b69c2b068fc378daa952ba7f163c4a11628f55a4df523b3ef",
            "0x00000000000000000000000000000c771f6176268d5a9846e0956c3ef58597a1",
            "0x000000000000000000000000b98c50b291a8b69cffabd172de4d1bbc773f962a"
          ],
          "data": "0x000000000000000000000000000000000000000000000000000000001dcd6500",
          "blockHash": "0x72a9b7e0f2ddcae300033be0c44f0b091be836ba6372fef6e86bc8558a9a37fb",
          "blockNumber": "0x77bea9",
          "transactionHash": "0x0e513a99ce8ea6aa724b2bcde02ff5c91105ba8923d050dc2a79fe0b14c05d12",
          "transactionIndex": "0x35",
          "logIndex": "0x40",
          "removed": false
        }
      ],
      "logsBloom": "0x00000000000000000080000000000000000004000000000000000000000000200000000000000000000000000000000000000000000000000000000001000000000000000000000000000008000000000000000000000000000000000000000000000000000000000000000000000000400000000000000000000010000002000000000004000000000040000000000000000000000100000000000000000000000000000000000200000000010000000000000000000000000000000000000000000002000000000000000000000000000000000000000000000000000000000000000000000100000000000000000000000000000000000000000000000000",
      "type": "0x2",
      "transactionHash": "0x0e513a99ce8ea6aa724b2bcde02ff5c91105ba8923d050dc2a79fe0b14c05d12",
      "transactionIndex": "0x35",
      "blockHash": "0x72a9b7e0f2ddcae300033be0c44f0b091be836ba6372fef6e86bc8558a9a37fb",
      "blockNumber": "0x77bea9",
      "gasUsed": "0x141af",
      "effectiveGasPrice": "0x6016227",
      "from": "0x00000c771f6176268d5a9846e0956c3ef58597a1",
      "to": "0x82d25d06a00f04bae3a19107a8131afc019f3adf",
      "contractAddress": null
    },
    {
      "status": "0x1",
      "cumulativeGasUsed": "0x5e8130",
      "logs": [
        {
          "address": "0x519c98252304a4933cdef1e66f139dfb0e2d2462",
          "topics": [],
          "data": "0x693a08929d3754e917db86770e8184cfcb36e42a0000000067ca19cc00000000000000000000000000000000000000000000000000000000",
          "blockHash": "0xef5abf86a8442bb0ba10366b0e6444b83675c55211219a173d1e6f7a583d9acd",
          "blockNumber": "0x77beaa",
          "transactionHash": "0xc3a90d1284dfed49ec505503eb8b95a2e795dea6c09244ddb3a434927ed7d501",
          "transactionIndex": "0x47",
          "logIndex": "0x4e",
          "removed": false
        },
        {
          "address": "0xb98c50b291a8b69cffabd172de4d1bbc773f962a",
          "topics": [
            "0x5e4688b340694b7c7fd30047fd082117dc46e32acfbf81a44bb1fac0ae65154d"
          ],
          "data": "0x317baf62f184fa3e9dfbb9221d06ec2a82978c3541b501a16e3cc72c7bde00e80000000000000000000000000000000000000000000000000000000000000000000000000000000000000000693a08929d3754e917db86770e8184cfcb36e42a519c98252304a4933cdef1e66f139dfb0e2d246200000000000000000000000000000000000000000000000000000000000000000000000000000000004644f40000000000000000000000000000000000000000800000027ffff5c0ff12dc20",
          "blockHash": "0xef5abf86a8442bb0ba10366b0e6444b83675c55211219a173d1e6f7a583d9acd",
          "blockNumber": "0x77beaa",
          "transactionHash": "0xc3a90d1284dfed49ec505503eb8b95a2e795dea6c09244ddb3a434927ed7d501",
          "transactionIndex": "0x47",
          "logIndex": "0x4f",
          "removed": false
        },
        {
          "address": "0x75166e153b72f913aa21e1d1d83cd10454c6bff6",
          "topics": [
            "0xddf252ad1be2c89b69c2b068fc378daa952ba7f163c4a11628f55a4df523b3ef",
            "0x0000000000000000000000000000000000000000000000000000000000000000",
            "0x00000000000000000000000000000c771f6176268d5a9846e0956c3ef58597a1",
            "0x0000000000000000000000000000000000000000000000000000ea33600f868e"
          ],
          "data": "0x",
          "blockHash": "0xef5abf86a8442bb0ba10366b0e6444b83675c55211219a173d1e6f7a583d9acd",
          "blockNumber": "0x77beaa",
          "transactionHash": "0xc3a90d1284dfed49ec505503eb8b95a2e795dea6c09244ddb3a434927ed7d501",
          "transactionIndex": "0x47",
          "logIndex": "0x50",
          "removed": false
        },
        {
          "address": "0xb98c50b291a8b69cffabd172de4d1bbc773f962a",
          "topics": [
            "0xa2d4008be4187c63684f323788e131e1370dbc2205499befe2834005a00c792c"
          ],
          "data": "0x00000000000000000000000075166e153b72f913aa21e1d1d83cd10454c6bff6317baf62f184fa3e9dfbb9221d06ec2a82978c3541b501a16e3cc72c7bde00e80000000000000000000000000000000000000000000000000000ea33600f868efffffffffffffffffffffffffffffffffffffffffffffffffffffffffab6326d000000000000000000000000000000000000000000000000000000000549cd9300000000000000000000000000000000000000000000000001634572ad7ac440000000000000000000000000000000000000000000000000002386f26fc100000000000000000000000000000000000000000000000000000de0b641e6343e1e",
          "blockHash": "0xef5abf86a8442bb0ba10366b0e6444b83675c55211219a173d1e6f7a583d9acd",
          "blockNumber": "0x77beaa",
          "transactionHash": "0xc3a90d1284dfed49ec505503eb8b95a2e795dea6c09244ddb3a434927ed7d501",
          "transactionIndex": "0x47",
          "logIndex": "0x51",
          "removed": false
        },
        {
          "address": "0x693a08929d3754e917db86770e8184cfcb36e42a",
          "topics": [
            "0xddf252ad1be2c89b69c2b068fc378daa952ba7f163c4a11628f55a4df523b3ef",
            "0x00000000000000000000000000000c771f6176268d5a9846e0956c3ef58597a1",
            "0x000000000000000000000000b98c50b291a8b69cffabd172de4d1bbc773f962a"
          ],
          "data": "0x0000000000000000000000000000000000000000000000000de0b641e6343e1e",
          "blockHash": "0xef5abf86a8442bb0ba10366b0e6444b83675c55211219a173d1e6f7a583d9acd",
          "blockNumber": "0x77beaa",
          "transactionHash": "0xc3a90d1284dfed49ec505503eb8b95a2e795dea6c09244ddb3a434927ed7d501",
          "transactionIndex": "0x47",
          "logIndex": "0x52",
          "removed": false
        }
      ],
      "logsBloom": "0x00040000000100000080000000000000000004000100000000000000000000200000000000000004000000000000000000000000000000000000000001000000000000000000000000002008000000000000000000000000400000000000000020000000020000000000000000000800400800000000000000000010000002000000000004000000000040000008000000000010000100000000000000000000000000000000000200000000010004000000000000000000000000000400000000000002000000000000000000000000000000000080000000000000000020000000000000000100000000000000000000008000000000000000000000010000",
      "type": "0x2",
      "transactionHash": "0xc3a90d1284dfed49ec505503eb8b95a2e795dea6c09244ddb3a434927ed7d501",
      "transactionIndex": "0x47",
      "blockHash": "0xef5abf86a8442bb0ba10366b0e6444b83675c55211219a173d1e6f7a583d9acd",
      "blockNumber": "0x77beaa",
      "gasUsed": "0x39123",
      "effectiveGasPrice": "0x600f5a4",
      "from": "0x00000c771f6176268d5a9846e0956c3ef58597a1",
      "to": "0x75166e153b72f913aa21e1d1d83cd10454c6bff6",
      "contractAddress": null
    },
    {
      "status": "0x1",
      "cumulativeGasUsed": "0x2d8ef0",
      "logs": [
        {
          "address": "0x519c98252304a4933cdef1e66f139dfb0e2d2462",
          "topics": [],
          "data": "0x693a08929d3754e917db86770e8184cfcb36e42a0000000067ca19d80000000000000000000008a59c1dcaea5b922ca400000000034b3b70",
          "blockHash": "0xf4a5882c267d177a717a07c90658e3244849a81124a8230654dde9d00040db28",
          "blockNumber": "0x77beab",
          "transactionHash": "0x9ae058a73dd3c2a02990b2ffc3fff5b8087087d9d3c301bf9d310152f2c9cef8",
          "transactionIndex": "0x3b",
          "logIndex": "0x26",
          "removed": false
        },
        {
          "address": "0xb98c50b291a8b69cffabd172de4d1bbc773f962a",
          "topics": [],
          "data": "0x82d25d06a00f04bae3a19107a8131afc019f3adf317baf62f184fa3e9dfbb9221d06ec2a82978c3541b501a16e3cc72c7bde00e8000000000000000000000000000186a0ffffffffffffffffffffffffff6769e7000000000000000001634572ad7ac440800000027ffff5c0e3960e61004644f3",
          "blockHash": "0xf4a5882c267d177a717a07c90658e3244849a81124a8230654dde9d00040db28",
          "blockNumber": "0x77beab",
          "transactionHash": "0x9ae058a73dd3c2a02990b2ffc3fff5b8087087d9d3c301bf9d310152f2c9cef8",
          "transactionIndex": "0x3b",
          "logIndex": "0x27",
          "removed": false
        },
        {
          "address": "0x693a08929d3754e917db86770e8184cfcb36e42a",
          "topics": [
            "0xddf252ad1be2c89b69c2b068fc378daa952ba7f163c4a11628f55a4df523b3ef",
            "0x000000000000000000000000b98c50b291a8b69cffabd172de4d1bbc773f962a",
            "0x00000000000000000000000000000c771f6176268d5a9846e0956c3ef58597a1"
          ],
          "data": "0x0000000000000000000000000000000000000000000000000000000000989619",
          "blockHash": "0xf4a5882c267d177a717a07c90658e3244849a81124a8230654dde9d00040db28",
          "blockNumber": "0x77beab",
          "transactionHash": "0x9ae058a73dd3c2a02990b2ffc3fff5b8087087d9d3c301bf9d310152f2c9cef8",
          "transactionIndex": "0x3b",
          "logIndex": "0x28",
          "removed": false
        }
      ],
      "logsBloom": "0x00000000000000000080000000000000000004000000000000000000000000200000000000000000000000000000000000000000000000000000000001000000000000000000000000000008000000000000000000000000000000000000000000000000000000000000000000000000400000000000000000000010000002000000000004000000000040000000000000000000000100000000000000000000000000000000000200000000010004000000000000000000000000000000000000000002000000000000000000000000000000000080000000000000000000000000000000000100000000000000000000000000000000000000000000010000",
      "type": "0x2",
      "transactionHash": "0x9ae058a73dd3c2a02990b2ffc3fff5b8087087d9d3c301bf9d310152f2c9cef8",
      "transactionIndex": "0x3b",
      "blockHash": "0xf4a5882c267d177a717a07c90658e3244849a81124a8230654dde9d00040db28",
      "blockNumber": "0x77beab",
      "gasUsed": "0x14cea",
      "effectiveGasPrice": "0x601ac65",
      "from": "0x00000c771f6176268d5a9846e0956c3ef58597a1",
      "to": "0x82d25d06a00f04bae3a19107a8131afc019f3adf",
      "contractAddress": null
    },
    {
      "status": "0x1",
      "cumulativeGasUsed": "0x4a25a1",
      "logs": [
        {
          "address": "0x519c98252304a4933cdef1e66f139dfb0e2d2462",
          "topics": [],
          "data": "0x693a08929d3754e917db86770e8184cfcb36e42a0000000067ca19e400000000000000000000114b383b95d4b724594800000000069676d4",
          "blockHash": "0x76842b6916f5c05c834fbd20cbe48711d5f77fbd3390fa7dd98febf2e596daa1",
          "blockNumber": "0x77beac",
          "transactionHash": "0x1afbbf2a671473f5cde7412df7a90210a9758161898e97e535ee39cec5b8acc1",
          "transactionIndex": "0x41",
          "logIndex": "0x55",
          "removed": false
        },
        {
          "address": "0xb98c50b291a8b69cffabd172de4d1bbc773f962a",
          "topics": [],
          "data": "0x82d25d06a00f04bae3a19107a8131afc019f3adf317baf62f184fa3e9dfbb9221d06ec2a82978c3541b501a16e3cc72c7bde00e8ffffffffffffffffffffffffffb3b4be0000000000000000000000001dcd6500000000000000000001634572ad7ac440800000027ffff5c641f9dced004644f4",
          "blockHash": "0x76842b6916f5c05c834fbd20cbe48711d5f77fbd3390fa7dd98febf2e596daa1",
          "blockNumber": "0x77beac",
          "transactionHash": "0x1afbbf2a671473f5cde7412df7a90210a9758161898e97e535ee39cec5b8acc1",
          "transactionIndex": "0x41",
          "logIndex": "0x56",
          "removed": false
        },
        {
          "address": "0x693a08929d3754e917db86770e8184cfcb36e42a",
          "topics": [
            "0xddf252ad1be2c89b69c2b068fc378daa952ba7f163c4a11628f55a4df523b3ef",
            "0x00000000000000000000000000000c771f6176268d5a9846e0956c3ef58597a1",
            "0x000000000000000000000000b98c50b291a8b69cffabd172de4d1bbc773f962a"
          ],
          "data": "0x000000000000000000000000000000000000000000000000000000001dcd6500",
          "blockHash": "0x76842b6916f5c05c834fbd20cbe48711d5f77fbd3390fa7dd98febf2e596daa1",
          "blockNumber": "0x77beac",
          "transactionHash": "0x1afbbf2a671473f5cde7412df7a90210a9758161898e97e535ee39cec5b8acc1",
          "transactionIndex": "0x41",
          "logIndex": "0x57",
          "removed": false
        }
      ],
      "logsBloom": "0x00000000000000000080000000000000000004000000000000000000000000200000000000000000000000000000000000000000000000000000000001000000000000000000000000000008000000000000000000000000000000000000000000000000000000000000000000000000400000000000000000000010000002000000000004000000000040000000000000000000000100000000000000000000000000000000000200000000010004000000000000000000000000000000000000000002000000000000000000000000000000000080000000000000000000000000000000000100000000000000000000000000000000000000000000010000",
      "type": "0x2",
      "transactionHash": "0x1afbbf2a671473f5cde7412df7a90210a9758161898e97e535ee39cec5b8acc1",
      "transactionIndex": "0x41",
      "blockHash": "0x76842b6916f5c05c834fbd20cbe48711d5f77fbd3390fa7dd98febf2e596daa1",
      "blockNumber": "0x77beac",
      "gasUsed": "0x167cf",
      "effectiveGasPrice": "0x60272f0",
      "from": "0x00000c771f6176268d5a9846e0956c3ef58597a1",
      "to": "0x82d25d06a00f04bae3a19107a8131afc019f3adf",
      "contractAddress": null
    },
    {
      "status": "0x1",
      "cumulativeGasUsed": "0x41187b",
      "logs": [
        {
          "address": "0x519c98252304a4933cdef1e66f139dfb0e2d2462",
          "topics": [],
          "data": "0x693a08929d3754e917db86770e8184cfcb36e42a0000000067ca19f00000000000000000000019f0d45960bf12b685ec0000000009e1b244",
          "blockHash": "0x101766fad33b0c54197889d3fa7700e940ddec9581771bf3e65d77d5c79315de",
          "blockNumber": "0x77bead",
          "transactionHash": "0x46a05010836b94d717fea031077041fd1b2db71c49127560af98edc0351261d2",
          "transactionIndex": "0x3d",
          "logIndex": "0x4a",
          "removed": false
        },
        {
          "address": "0xb98c50b291a8b69cffabd172de4d1bbc773f962a",
          "topics": [],
          "data": "0x82d25d06a00f04bae3a19107a8131afc019f3adf317baf62f184fa3e9dfbb9221d06ec2a82978c3541b501a16e3cc72c7bde00e8000000000000000000000000000186a0ffffffffffffffffffffffffff6769bd000000000000000001634572ad7ac440800000027ffff5c6267d0799004644f4",
          "blockHash": "0x101766fad33b0c54197889d3fa7700e940ddec9581771bf3e65d77d5c79315de",
          "blockNumber": "0x77bead",
          "transactionHash": "0x46a05010836b94d717fea031077041fd1b2db71c49127560af98edc0351261d2",
          "transactionIndex": "0x3d",
          "logIndex": "0x4b",
          "removed": false
        },
        {
          "address": "0x693a08929d3754e917db86770e8184cfcb36e42a",
          "topics": [
            "0xddf252ad1be2c89b69c2b068fc378daa952ba7f163c4a11628f55a4df523b3ef",
            "0x000000000000000000000000b98c50b291a8b69cffabd172de4d1bbc773f962a",
            "0x00000000000000000000000000000c771f6176268d5a9846e0956c3ef58597a1"
          ],
          "data": "0x0000000000000000000000000000000000000000000000000000000000989643",
          "blockHash": "0x101766fad33b0c54197889d3fa7700e940ddec9581771bf3e65d77d5c79315de",
          "blockNumber": "0x77bead",
          "transactionHash": "0x46a05010836b94d717fea031077041fd1b2db71c49127560af98edc0351261d2",
          "transactionIndex": "0x3d",
          "logIndex": "0x4c",
          "removed": false
        }
      ],
      "logsBloom": "0x00000000000000000080000000000000000004000000000000000000000000200000000000000000000000000000000000000000000000000000000001000000000000000000000000000008000000000000000000000000000000000000000000000000000000000000000000000000400000000000000000000010000002000000000004000000000040000000000000000000000100000000000000000000000000000000000200000000010004000000000000000000000000000000000000000002000000000000000000000000000000000080000000000000000000000000000000000100000000000000000000000000000000000000000000010000",
      "type": "0x2",
      "transactionHash": "0x46a05010836b94d717fea031077041fd1b2db71c49127560af98edc0351261d2",
      "transactionIndex": "0x3d",
      "blockHash": "0x101766fad33b0c54197889d3fa7700e940ddec9581771bf3e65d77d5c79315de",
      "blockNumber": "0x77bead",
      "gasUsed": "0x14cee",
      "effectiveGasPrice": "0x60190c5",
      "from": "0x00000c771f6176268d5a9846e0956c3ef58597a1",
      "to": "0x82d25d06a00f04bae3a19107a8131afc019f3adf",
      "contractAddress": null
    },
    {
      "status": "0x1",
      "cumulativeGasUsed": "0x54cae2",
      "logs": [
        {
          "address": "0x519c98252304a4933cdef1e66f139dfb0e2d2462",
          "topics": [],
          "data": "0x693a08929d3754e917db86770e8184cfcb36e42a0000000067ca19fc00000000000000000000229670772ba96e48b290000000000d2cedb4",
          "blockHash": "0xb99cfec63a1334bc5f8dc4dd6b0ea93b45de6b1d33ad84bdfe461bc1094d2ce9",
          "blockNumber": "0x77beae",
          "transactionHash": "0x2b277827ee437be6deb8856c445760d4bb072878fce7ee96b7987b5db1b4d5b8",
          "transactionIndex": "0x42",
          "logIndex": "0x42",
          "removed": false
        },
        {
          "address": "0xb98c50b291a8b69cffabd172de4d1bbc773f962a",
          "topics": [],
          "data": "0x82d25d06a00f04bae3a19107a8131afc019f3adf317baf62f184fa3e9dfbb9221d06ec2a82978c3541b501a16e3cc72c7bde00e8ffffffffffffffffffffffffffb3b4be0000000000000000000000001dcd6500000000000000000001634572ad7ac440800000027ffff5cb84e0d625004644f4",
          "blockHash": "0xb99cfec63a1334bc5f8dc4dd6b0ea93b45de6b1d33ad84bdfe461bc1094d2ce9",
          "blockNumber": "0x77beae",
          "transactionHash": "0x2b277827ee437be6deb8856c445760d4bb072878fce7ee96b7987b5db1b4d5b8",
          "transactionIndex": "0x42",
          "logIndex": "0x43",
          "removed": false
        },
        {
          "address": "0x693a08929d3754e917db86770e8184cfcb36e42a",
          "topics": [
            "0xddf252ad1be2c89b69c2b068fc378daa952ba7f163c4a11628f55a4df523b3ef",
            "0x00000000000000000000000000000c771f6176268d5a9846e0956c3ef58597a1",
            "0x000000000000000000000000b98c50b291a8b69cffabd172de4d1bbc773f962a"
          ],
          "data": "0x000000000000000000000000000000000000000000000000000000001dcd6500",
          "blockHash": "0xb99cfec63a1334bc5f8dc4dd6b0ea93b45de6b1d33ad84bdfe461bc1094d2ce9",
          "blockNumber": "0x77beae",
          "transactionHash": "0x2b277827ee437be6deb8856c445760d4bb072878fce7ee96b7987b5db1b4d5b8",
          "transactionIndex": "0x42",
          "logIndex": "0x44",
          "removed": false
        }
      ],
      "logsBloom": "0x00000000000000000080000000000000000004000000000000000000000000200000000000000000000000000000000000000000000000000000000001000000000000000000000000000008000000000000000000000000000000000000000000000000000000000000000000000000400000000000000000000010000002000000000004000000000040000000000000000000000100000000000000000000000000000000000200000000010004000000000000000000000000000000000000000002000000000000000000000000000000000080000000000000000000000000000000000100000000000000000000000000000000000000000000010000",
      "type": "0x2",
      "transactionHash": "0x2b277827ee437be6deb8856c445760d4bb072878fce7ee96b7987b5db1b4d5b8",
      "transactionIndex": "0x42",
      "blockHash": "0xb99cfec63a1334bc5f8dc4dd6b0ea93b45de6b1d33ad84bdfe461bc1094d2ce9",
      "blockNumber": "0x77beae",
      "gasUsed": "0x167cf",
      "effectiveGasPrice": "0x600e3e6",
      "from": "0x00000c771f6176268d5a9846e0956c3ef58597a1",
      "to": "0x82d25d06a00f04bae3a19107a8131afc019f3adf",
      "contractAddress": null
    },
    {
      "status": "0x1",
      "cumulativeGasUsed": "0x620b51",
      "logs": [
        {
          "address": "0xb98c50b291a8b69cffabd172de4d1bbc773f962a",
          "topics": [
            "0x5e4688b340694b7c7fd30047fd082117dc46e32acfbf81a44bb1fac0ae65154d"
          ],
          "data": "0xd7e252b476b9d8aae0938356781e7d1e93ef8c7eee9ce117a1fdbbe5c97943690000000000000000000000000000000000000000000000000000000000000000000000000000000000000000693a08929d3754e917db86770e8184cfcb36e42a0000000000000000000000000000000000000000028f5c28f5c28f5c00004d5a000000000000000000000000000000000000000000000000000000000081f64d000000000000000000000000000000000000000080000011ad7b7d57d2db6557",
          "blockHash": "0x653996d1a133277c050231173db63b94fe18158cd811f5a00c2d260e393f0dad",
          "blockNumber": "0x77beaf",
          "transactionHash": "0xa79a0d4fa2382363dd71ffd96fbd822f6aa6514caeca7518b1c8b76d83911a73",
          "transactionIndex": "0x40",
          "logIndex": "0x46",
          "removed": false
        },
        {
          "address": "0x75166e153b72f913aa21e1d1d83cd10454c6bff6",
          "topics": [
            "0xddf252ad1be2c89b69c2b068fc378daa952ba7f163c4a11628f55a4df523b3ef",
            "0x0000000000000000000000000000000000000000000000000000000000000000",
            "0x00000000000000000000000000000c771f6176268d5a9846e0956c3ef58597a1",
            "0x00000000000000000000000000000000000000000000000000002d6903e8af70"
          ],
          "data": "0x",
          "blockHash": "0x653996d1a133277c050231173db63b94fe18158cd811f5a00c2d260e393f0dad",
          "blockNumber": "0x77beaf",
          "transactionHash": "0xa79a0d4fa2382363dd71ffd96fbd822f6aa6514caeca7518b1c8b76d83911a73",
          "transactionIndex": "0x40",
          "logIndex": "0x47",
          "removed": false
        },
        {
          "address": "0xb98c50b291a8b69cffabd172de4d1bbc773f962a",
          "topics": [
            "0xa2d4008be4187c63684f323788e131e1370dbc2205499befe2834005a00c792c"
          ],
          "data": "0x00000000000000000000000075166e153b72f913aa21e1d1d83cd10454c6bff6d7e252b476b9d8aae0938356781e7d1e93ef8c7eee9ce117a1fdbbe5c979436900000000000000000000000000000000000000000000000000002d6903e8af70fffffffffffffffffffffffffffffffffffffffffffffffffffffffffab65900000000000000000000000000000000000000000000000000000000000549a7000000000000000000000000000000000000000000000000001d70712ddacf720b000000000000000000000000000000000000000000000000006a94d74f43000000000000000000000000000000000000000000000000000821aacfdf9998da53",
          "blockHash": "0x653996d1a133277c050231173db63b94fe18158cd811f5a00c2d260e393f0dad",
          "blockNumber": "0x77beaf",
          "transactionHash": "0xa79a0d4fa2382363dd71ffd96fbd822f6aa6514caeca7518b1c8b76d83911a73",
          "transactionIndex": "0x40",
          "logIndex": "0x48",
          "removed": false
        },
        {
          "address": "0x693a08929d3754e917db86770e8184cfcb36e42a",
          "topics": [
            "0xddf252ad1be2c89b69c2b068fc378daa952ba7f163c4a11628f55a4df523b3ef",
            "0x00000000000000000000000000000c771f6176268d5a9846e0956c3ef58597a1",
            "0x000000000000000000000000b98c50b291a8b69cffabd172de4d1bbc773f962a"
          ],
          "data": "0x00000000000000000000000000000000000000000000000821aacfdf9998da53",
          "blockHash": "0x653996d1a133277c050231173db63b94fe18158cd811f5a00c2d260e393f0dad",
          "blockNumber": "0x77beaf",
          "transactionHash": "0xa79a0d4fa2382363dd71ffd96fbd822f6aa6514caeca7518b1c8b76d83911a73",
          "transactionIndex": "0x40",
          "logIndex": "0x49",
          "removed": false
        }
      ],
      "logsBloom": "0x00000000000100000080000000000000000004000100000000000000000000200000000000000004000000000000000000000000000000000000000001000000000000000000000000002008000000000000000000000000000000000000000020000000020000000000000000000800400800000004000000000010000002000000000004000000000040000008000000000000000100000000000000000000000000000000000200000000010000000000000000000000000000000400000000000002000000000000000000000000000000000000000000000000000020000000080000000100000000000040000000008000000000000000000000000000",
      "type": "0x2",
      "transactionHash": "0xa79a0d4fa2382363dd71ffd96fbd822f6aa6514caeca7518b1c8b76d83911a73",
      "transactionIndex": "0x40",
      "blockHash": "0x653996d1a133277c050231173db63b94fe18158cd811f5a00c2d260e393f0dad",
      "blockNumber": "0x77beaf",
      "gasUsed": "0x43de1",
      "effectiveGasPrice": "0x6022139",
      "from": "0x00000c771f6176268d5a9846e0956c3ef58597a1",
      "to": "0x75166e153b72f913aa21e1d1d83cd10454c6bff6",
      "contractAddress": null
    },
    {
      "status": "0x1",
      "cumulativeGasUsed": "0x4de1f7",
      "logs": [
        {
          "address": "0xb98c50b291a8b69cffabd172de4d1bbc773f962a",
          "topics": [
            "0x5e4688b340694b7c7fd30047fd082117dc46e32acfbf81a44bb1fac0ae65154d"
          ],
          "data": "0x45049d111026ea3890030077449e976fb072b599cdad9aadbc6b0c3c88fdc3590000000000000000000000000000000000000000000000000000000000000000000000000000000000000000693a08929d3754e917db86770e8184cfcb36e42ad03417f73b726b310e12eb64274060069d06ca22028f5c28f5c28f5c00000000000000000000000000000000000000000000000000000000000000000081f64d000000000000000000000000000000000000000080000011ad7b7d57d2db6557",
          "blockHash": "0xdc0284cb2cbbc2e55c5a27213c00967f29709e57bd3ed0ba0addf8f57071a6f0",
          "blockNumber": "0x77beb0",
          "transactionHash": "0x0ca1c8c7ee60eba8bad945bcac3e71eb2066fb4bb7d9b1012e163ca8a439a77b",
          "transactionIndex": "0x28",
          "logIndex": "0x30",
          "removed": false
        },
        {
          "address": "0xd03417f73b726b310e12eb64274060069d06ca22",
          "topics": [],
          "data": "0x45049d111026ea3890030077449e976fb072b599cdad9aadbc6b0c3c88fdc35900000000000000000000000000000000000000000000000000000000",
          "blockHash": "0xdc0284cb2cbbc2e55c5a27213c00967f29709e57bd3ed0ba0addf8f57071a6f0",
          "blockNumber": "0x77beb0",
          "transactionHash": "0x0ca1c8c7ee60eba8bad945bcac3e71eb2066fb4bb7d9b1012e163ca8a439a77b",
          "transactionIndex": "0x28",
          "logIndex": "0x31",
          "removed": false
        },
        {
          "address": "0x75166e153b72f913aa21e1d1d83cd10454c6bff6",
          "topics": [
            "0xddf252ad1be2c89b69c2b068fc378daa952ba7f163c4a11628f55a4df523b3ef",
            "0x0000000000000000000000000000000000000000000000000000000000000000",
            "0x00000000000000000000000000000c771f6176268d5a9846e0956c3ef58597a1",
            "0x00000000000000000000000000000000000000000000000000009200eeb90b6e"
          ],
          "data": "0x",
          "blockHash": "0xdc0284cb2cbbc2e55c5a27213c00967f29709e57bd3ed0ba0addf8f57071a6f0",
          "blockNumber": "0x77beb0",
          "transactionHash": "0x0ca1c8c7ee60eba8bad945bcac3e71eb2066fb4bb7d9b1012e163ca8a439a77b",
          "transactionIndex": "0x28",
          "logIndex": "0x32",
          "removed": false
        },
        {
          "address": "0xb98c50b291a8b69cffabd172de4d1bbc773f962a",
          "topics": [
            "0xa2d4008be4187c63684f323788e131e1370dbc2205499befe2834005a00c792c"
          ],
          "data": "0x00000000000000000000000075166e153b72f913aa21e1d1d83cd10454c6bff645049d111026ea3890030077449e976fb072b599cdad9aadbc6b0c3c88fdc35900000000000000000000000000000000000000000000000000009200eeb90b6efffffffffffffffffffffffffffffffffffffffffffffffffffffffffab6326d000000000000000000000000000000000000000000000000000000000549cd930000000000000000000000000000000000000000000000001d70712ddacf720b000000000000000000000000000000000000000000000000006a94d74f43000000000000000000000000000000000000000000000000000821aacfdf9998da53",
          "blockHash": "0xdc0284cb2cbbc2e55c5a27213c00967f29709e57bd3ed0ba0addf8f57071a6f0",
          "blockNumber": "0x77beb0",
          "transactionHash": "0x0ca1c8c7ee60eba8bad945bcac3e71eb2066fb4bb7d9b1012e163ca8a439a77b",
          "transactionIndex": "0x28",
          "logIndex": "0x33",
          "removed": false
        },
        {
          "address": "0x693a08929d3754e917db86770e8184cfcb36e42a",
          "topics": [
            "0xddf252ad1be2c89b69c2b068fc378daa952ba7f163c4a11628f55a4df523b3ef",
            "0x00000000000000000000000000000c771f6176268d5a9846e0956c3ef58597a1",
            "0x000000000000000000000000b98c50b291a8b69cffabd172de4d1bbc773f962a"
          ],
          "data": "0x00000000000000000000000000000000000000000000000821aacfdf9998da53",
          "blockHash": "0xdc0284cb2cbbc2e55c5a27213c00967f29709e57bd3ed0ba0addf8f57071a6f0",
          "blockNumber": "0x77beb0",
          "transactionHash": "0x0ca1c8c7ee60eba8bad945bcac3e71eb2066fb4bb7d9b1012e163ca8a439a77b",
          "transactionIndex": "0x28",
          "logIndex": "0x34",
          "removed": false
        }
      ],
      "logsBloom": "0x00000000000100000080000000000000000004000110000000000000000000200000000000000004000000000000000800000000000000000000000001000000000000000000000000002008000000000001000100000000000000000000000020000000020000000000000000000800400800000000000000000010000002000000000004000000000040000008000000000000000100000000000000000000000000000000000200000000010000000000004000000008000000000400000000000002000000000000000000000000000000000000000000000000000020000000000000000100000000000000000000008000000000000000000000000000",
      "type": "0x2",
      "transactionHash": "0x0ca1c8c7ee60eba8bad945bcac3e71eb2066fb4bb7d9b1012e163ca8a439a77b",
      "transactionIndex": "0x28",
      "blockHash": "0xdc0284cb2cbbc2e55c5a27213c00967f29709e57bd3ed0ba0addf8f57071a6f0",
      "blockNumber": "0x77beb0",
      "gasUsed": "0x39559",
      "effectiveGasPrice": "0x6034b0f",
      "from": "0x00000c771f6176268d5a9846e0956c3ef58597a1",
      "to": "0x75166e153b72f913aa21e1d1d83cd10454c6bff6",
      "contractAddress": null
    },
    {
      "status": "0x1",
      "cumulativeGasUsed": "0x64de7d",
      "logs": [
        {
          "address": "0x693a08929d3754e917db86770e8184cfcb36e42a",
          "topics": [
            "0x8c5be1e5ebec7d5bd14f71427d1e84f3dd0314c0f7b2291e5b200ac8c7c3b925",
            "0x00000000000000000000000000000c771f6176268d5a9846e0956c3ef58597a1",
            "0x000000000000000000000000026013c7517e46b5ff84b51c2cfe6df4d9c16489"
          ],
          "data": "0xffffffffffffffffffffffffffffffffffffffffffffffffffffffffffffffff",
          "blockHash": "0x23d19da6caff4b765ea3525bbc7d766f52af82e4a3bb610d856eab8bd418e2e2",
          "blockNumber": "0x77beb1",
          "transactionHash": "0x5e3641733d04d3771f293ced6d7123758dec27dec247e81da4d966c5aa64b8c5",
          "transactionIndex": "0x45",
          "logIndex": "0x54",
          "removed": false
        }
      ],
      "logsBloom": "0x00000000000000000000000000000000000004000000000000000000000000200000000000000000000000000000000000000000000000000000000001200000000000000000000000000000000000000000000000000000000000000000000000000000000000000000000000000000400000000000000000000000000012000000000000040000000000000000000000000000000100000000000000000000020000000000000000000000000000000000000000000000000000000000000000000000000000000000000000000000000000000000000000000400000000000010000000000000000000000000000000000000000000000000000000000000",
      "type": "0x2",
      "transactionHash": "0x5e3641733d04d3771f293ced6d7123758dec27dec247e81da4d966c5aa64b8c5",
      "transactionIndex": "0x45",
      "blockHash": "0x23d19da6caff4b765ea3525bbc7d766f52af82e4a3bb610d856eab8bd418e2e2",
      "blockNumber": "0x77beb1",
      "gasUsed": "0xb437",
      "effectiveGasPrice": "0x6031999",
      "from": "0x00000c771f6176268d5a9846e0956c3ef58597a1",
      "to": "0x693a08929d3754e917db86770e8184cfcb36e42a",
      "contractAddress": null
    }
  ],
  "libraries": [],
  "pending": [],
  "returns": {},
  "timestamp": 1741298221,
  "chain": 11155111,
  "commit": "5c06999"
}