{
  "transactions": [
    {
      "hash": "0x5f83ff338c284ef03d9ded536aabbfaba9fab08f4456dbf239c9bc487132041b",
      "transactionType": "CREATE",
      "contractName": "TestToken",
      "contractAddress": "0x2bd8ba84af5f531f95e029e680b66ffc0b2b1599",
      "function": null,
      "arguments": [
        "0x00000C771F6176268D5A9846E0956C3eF58597A1"
      ],
      "transaction": {
        "from": "0x00000c771f6176268d5a9846e0956c3ef58597a1",
        "gas": "0xbc67d",
        "value": "0x0",
        "input": "0x60803460ce57601f6109cc38819003918201601f19168301916001600160401b0383118484101760d25780849260209460405283398101031260ce57516001600160a01b038116810360ce576805345cdf77eb68f44c545f19810190811060c1576805345cdf77eb68f44c556387a211a2600c525f526020600c205f1981540190555f19602052600c5160601c5f7fddf252ad1be2c89b69c2b068fc378daa952ba7f163c4a11628f55a4df523b3ef602080a36040516108e590816100e78239f35b63e5cfe9575f526004601cfd5b5f80fd5b634e487b7160e01b5f52604160045260245ffdfe60806040526004361015610011575f80fd5b5f3560e01c806306fdde03146107cc578063095ea7b31461074357806318160ddd1461070057806323b872dd146105fb578063313ce567146105c25780633644e515146104f857806370a08231146104a85780637ecebe001461045857806395d89b41146103a1578063a9059cbb146102f4578063d505accf146100fd5763dd62ed3e1461009d575f80fd5b346100f95760407ffffffffffffffffffffffffffffffffffffffffffffffffffffffffffffffffc3601126100f9576100d461087b565b6100dc61089e565b602052637f5e9f20600c525f5260206034600c2054604051908152f35b5f80fd5b346100f95760e07ffffffffffffffffffffffffffffffffffffffffffffffffffffffffffffffffc3601126100f95761013461087b565b61013c61089e565b6084359160643560443560ff851685036100f9576101586108c1565b60208101907f54657374546f6b656e00000000000000000000000000000000000000000000008252519020908242116102e75773ffffffffffffffffffffffffffffffffffffffff80604051951695169565383775081901600e52855f5260c06020600c20958654957f8b73c3c69bb8fe3d512ecc4cf759cc79239f7b179b0ffacaa9a75d522b39400f8252602082019586528660408301967fc89efdaa54c0f20c7adf612882df0950f5a951637e0307cdcb4c672f298b8bc688528b6060850198468a528c608087019330855260a08820602e527f6e71edae12b1b97f4d1f60370fef10105fa2faae0126114a169c64845d6126c9885252528688525260a082015220604e526042602c205f5260ff1660205260a43560405260c43560605260208060805f60015afa93853d51036102da577f8c5be1e5ebec7d5bd14f71427d1e84f3dd0314c0f7b2291e5b200ac8c7c3b9259460209401905585777f5e9f200000000000000000000000000000000000000000176040526034602c2055a3005b63ddafbaef5f526004601cfd5b631a15a3cc5f526004601cfd5b346100f95760407ffffffffffffffffffffffffffffffffffffffffffffffffffffffffffffffffc3601126100f95761032b61087b565b602435906387a211a2600c52335f526020600c2080548084116103945783900390555f526020600c20818154019055602052600c5160601c337fddf252ad1be2c89b69c2b068fc378daa952ba7f163c4a11628f55a4df523b3ef602080a3602060405160018152f35b63f4d678b85f526004601cfd5b346100f9575f7ffffffffffffffffffffffffffffffffffffffffffffffffffffffffffffffffc3601126100f957604051604081019080821067ffffffffffffffff83111761042b5761042791604052600281527f5454000000000000000000000000000000000000000000000000000000000000602082015260405191829182610833565b0390f35b7f4e487b71000000000000000000000000000000000000000000000000000000005f52604160045260245ffd5b346100f95760207ffffffffffffffffffffffffffffffffffffffffffffffffffffffffffffffffc3601126100f95761048f61087b565b6338377508600c525f52602080600c2054604051908152f35b346100f95760207ffffffffffffffffffffffffffffffffffffffffffffffffffffffffffffffffc3601126100f9576104df61087b565b6387a211a2600c525f52602080600c2054604051908152f35b346100f9575f7ffffffffffffffffffffffffffffffffffffffffffffffffffffffffffffffffc3601126100f957602060a06105326108c1565b828101907f54657374546f6b656e00000000000000000000000000000000000000000000008252519020604051907f8b73c3c69bb8fe3d512ecc4cf759cc79239f7b179b0ffacaa9a75d522b39400f8252838201527fc89efdaa54c0f20c7adf612882df0950f5a951637e0307cdcb4c672f298b8bc6604082015246606082015230608082015220604051908152f35b346100f9575f7ffffffffffffffffffffffffffffffffffffffffffffffffffffffffffffffffc3601126100f957602060405160128152f35b346100f95760607ffffffffffffffffffffffffffffffffffffffffffffffffffffffffffffffffc3601126100f95761063261087b565b61063a61089e565b604435908260601b33602052637f5e9f208117600c526034600c209081549182196106dc575b506387a211a2915017600c526020600c2080548084116103945783900390555f526020600c2081815401905560205273ffffffffffffffffffffffffffffffffffffffff600c5160601c91167fddf252ad1be2c89b69c2b068fc378daa952ba7f163c4a11628f55a4df523b3ef602080a3602060405160018152f35b8285116106f357846387a211a29303905585610660565b6313be252b5f526004601cfd5b346100f9575f7ffffffffffffffffffffffffffffffffffffffffffffffffffffffffffffffffc3601126100f95760206805345cdf77eb68f44c54604051908152f35b346100f95760407ffffffffffffffffffffffffffffffffffffffffffffffffffffffffffffffffc3601126100f95761077a61087b565b60243590602052637f5e9f20600c52335f52806034600c20555f52602c5160601c337f8c5be1e5ebec7d5bd14f71427d1e84f3dd0314c0f7b2291e5b200ac8c7c3b92560205fa3602060405160018152f35b346100f9575f7ffffffffffffffffffffffffffffffffffffffffffffffffffffffffffffffffc3601126100f9576104276108056108c1565b7f54657374546f6b656e00000000000000000000000000000000000000000000006020820152604051918291825b7fffffffffffffffffffffffffffffffffffffffffffffffffffffffffffffffe0601f602060409481855280519182918282880152018686015e5f8582860101520116010190565b6004359073ffffffffffffffffffffffffffffffffffffffff821682036100f957565b6024359073ffffffffffffffffffffffffffffffffffffffff821682036100f957565b604051906040820182811067ffffffffffffffff82111761042b57604052600982525600000000000000000000000000000c771f6176268d5a9846e0956c3ef58597a1",
        "nonce": "0x211",
        "chainId": "0xaa36a7"
      },
      "additionalContracts": [],
      "isFixedGasLimit": false
    },
    {
      "hash": "0x2de451e904c017c6a8e63d8f79b04169464410b00b3b7e7804767cfb042034ed",
      "transactionType": "CALL",
      "contractName": "TestToken",
      "contractAddress": "0x2bd8ba84af5f531f95e029e680b66ffc0b2b1599",
      "function": "approve(address,uint256)",
      "arguments": [
        "0x8811116b226CFaa36Cc5b25A03Fe59A9cA192cdc",
        "115792089237316195423570985008687907853269984665640564039457584007913129639935"
      ],
      "transaction": {
        "from": "0x00000c771f6176268d5a9846e0956c3ef58597a1",
        "to": "0x2bd8ba84af5f531f95e029e680b66ffc0b2b1599",
        "gas": "0xf8eb",
        "value": "0x0",
        "input": "0x095ea7b30000000000000000000000008811116b226cfaa36cc5b25a03fe59a9ca192cdcffffffffffffffffffffffffffffffffffffffffffffffffffffffffffffffff",
        "nonce": "0x212",
        "chainId": "0xaa36a7"
      },
      "additionalContracts": [],
      "isFixedGasLimit": false
    },
    {
      "hash": "0x7bb18e39ba7142644f35fadd566fbdc43f40142985c835a92a9a41afe68d2a2e",
      "transactionType": "CALL",
      "contractName": "TestToken",
      "contractAddress": "0x2bd8ba84af5f531f95e029e680b66ffc0b2b1599",
      "function": "approve(address,uint256)",
      "arguments": [
        "0xb91C28b1b9DE28AA9c651c388415eEe7395eBfA4",
        "115792089237316195423570985008687907853269984665640564039457584007913129639935"
      ],
      "transaction": {
        "from": "0x00000c771f6176268d5a9846e0956c3ef58597a1",
        "to": "0x2bd8ba84af5f531f95e029e680b66ffc0b2b1599",
        "gas": "0xf8eb",
        "value": "0x0",
        "input": "0x095ea7b3000000000000000000000000b91c28b1b9de28aa9c651c388415eee7395ebfa4ffffffffffffffffffffffffffffffffffffffffffffffffffffffffffffffff",
        "nonce": "0x213",
        "chainId": "0xaa36a7"
      },
      "additionalContracts": [],
      "isFixedGasLimit": false
    },
    {
      "hash": "0x304c35cc8738f7d10399f9249769592611d50dad16592d8fa8e733dceaf191c8",
      "transactionType": "CALL",
      "contractName": null,
      "contractAddress": "0xb91c28b1b9de28aa9c651c388415eee7395ebfa4",
      "function": "multicall(bytes[])",
      "arguments": [
        "[0x3bb838a800000000000000000000000000000000000000000000000000000000000000000000000000000000000000002bd8ba84af5f531f95e029e680b66ffc0b2b15990000000000000000000000000000000000c49ba5e353f7ced916872b020c49ba000000000000000000000000000000000000000000000000000000000000175e0000000000000000000000000000000000000000000000000000000000000000000000000000000000000000000000000000000000000000000000000081f64d, 0xcda20b50c85b2f0756c570839e7036bc4036d124f74c3b063006ddf41a141b5bb37b0d2e00000000000000000000000000000000000000000000000000000000000000000000000000000000000000002bd8ba84af5f531f95e029e680b66ffc0b2b15990000000000000000000000000000000000c49ba5e353f7ced916872b020c49ba000000000000000000000000000000000000000000000000000000000000175e0000000000000000000000000000000000000000000000000000000000000000fffffffffffffffffffffffffffffffffffffffffffffffffffffffffab6413e000000000000000000000000000000000000000000000000000000000549bec2000000000000000000000000000000000000000000000000002386f26fc10000000000000000000000000000000000000000000000000002b5e3af16b18800000000000000000000000000000000000000000000000000000000000000000000, 0x41865270]"
      ],
      "transaction": {
        "from": "0x00000c771f6176268d5a9846e0956c3ef58597a1",
        "to": "0xb91c28b1b9de28aa9c651c388415eee7395ebfa4",
        "gas": "0x7189e",
        "value": "0x2386f26fc10000",
        "input": "0xac9650d80000000000000000000000000000000000000000000000000000000000000020000000000000000000000000000000000000000000000000000000000000000300000000000000000000000000000000000000000000000000000000000000600000000000000000000000000000000000000000000000000000000000000160000000000000000000000000000000000000000000000000000000000000030000000000000000000000000000000000000000000000000000000000000000c43bb838a800000000000000000000000000000000000000000000000000000000000000000000000000000000000000002bd8ba84af5f531f95e029e680b66ffc0b2b15990000000000000000000000000000000000c49ba5e353f7ced916872b020c49ba000000000000000000000000000000000000000000000000000000000000175e0000000000000000000000000000000000000000000000000000000000000000000000000000000000000000000000000000000000000000000000000081f64d000000000000000000000000000000000000000000000000000000000000000000000000000000000000000000000000000000000000000000000164cda20b50c85b2f0756c570839e7036bc4036d124f74c3b063006ddf41a141b5bb37b0d2e00000000000000000000000000000000000000000000000000000000000000000000000000000000000000002bd8ba84af5f531f95e029e680b66ffc0b2b15990000000000000000000000000000000000c49ba5e353f7ced916872b020c49ba000000000000000000000000000000000000000000000000000000000000175e0000000000000000000000000000000000000000000000000000000000000000fffffffffffffffffffffffffffffffffffffffffffffffffffffffffab6413e000000000000000000000000000000000000000000000000000000000549bec2000000000000000000000000000000000000000000000000002386f26fc10000000000000000000000000000000000000000000000000002b5e3af16b188000000000000000000000000000000000000000000000000000000000000000000000000000000000000000000000000000000000000000000000000000000000000000000000000000000000000000000000000000000000000000000044186527000000000000000000000000000000000000000000000000000000000",
        "nonce": "0x214",
        "chainId": "0xaa36a7"
      },
      "additionalContracts": [],
      "isFixedGasLimit": false
    },
    {
      "hash": "0x73fd412baa24b7b822227378bbc5dca4e59d6cd4a734f4edd55e5c0fd0bf7dd4",
      "transactionType": "CALL",
      "contractName": null,
      "contractAddress": "0x8811116b226cfaa36cc5b25a03fe59a9ca192cdc",
      "function": "swap((address,address,uint128,uint32,address),bool,int128,uint256,uint256)",
      "arguments": [
        "(0x0000000000000000000000000000000000000000, 0x2bd8Ba84Af5F531F95E029e680b66ffc0B2b1599, 1020847100762815390390123822295304634, 5982, 0x0000000000000000000000000000000000000000)",
        "false",
        "100000",
        "18447191164202170526",
        "0"
      ],
      "transaction": {
        "from": "0x00000c771f6176268d5a9846e0956c3ef58597a1",
        "to": "0x8811116b226cfaa36cc5b25a03fe59a9ca192cdc",
        "gas": "0x21f3f",
        "value": "0x186a0",
        "input": "0xab81aca500000000000000000000000000000000000000000000000000000000000000000000000000000000000000002bd8ba84af5f531f95e029e680b66ffc0b2b15990000000000000000000000000000000000c49ba5e353f7ced916872b020c49ba000000000000000000000000000000000000000000000000000000000000175e0000000000000000000000000000000000000000000000000000000000000000000000000000000000000000000000000000000000000000000000000000000000000000000000000000000000000000000000000000000000000000000186a0000000000000000000000000000000000000000000000001000196a05dfeb89e0000000000000000000000000000000000000000000000000000000000000000",
        "nonce": "0x215",
        "chainId": "0xaa36a7"
      },
      "additionalContracts": [],
      "isFixedGasLimit": false
    },
    {
      "hash": "0xfb97b8a693f181e28d00d813e09614e0f54b6f4956f505e0d89a6afbb3531faf",
      "transactionType": "CALL",
      "contractName": null,
      "contractAddress": "0x8811116b226cfaa36cc5b25a03fe59a9ca192cdc",
      "function": "swap((address,address,uint128,uint32,address),bool,int128,uint256,uint256)",
      "arguments": [
        "(0x0000000000000000000000000000000000000000, 0x2bd8Ba84Af5F531F95E029e680b66ffc0B2b1599, 1020847100762815390390123822295304634, 5982, 0x0000000000000000000000000000000000000000)",
        "true",
        "500000000",
        "6276949602062853172742588666638147158083741740262337144812",
        "0"
      ],
      "transaction": {
        "from": "0x00000c771f6176268d5a9846e0956c3ef58597a1",
        "to": "0x8811116b226cfaa36cc5b25a03fe59a9ca192cdc",
        "gas": "0x25be1",
        "value": "0x0",
        "input": "0xab81aca500000000000000000000000000000000000000000000000000000000000000000000000000000000000000002bd8ba84af5f531f95e029e680b66ffc0b2b15990000000000000000000000000000000000c49ba5e353f7ced916872b020c49ba000000000000000000000000000000000000000000000000000000000000175e00000000000000000000000000000000000000000000000000000000000000000000000000000000000000000000000000000000000000000000000000000001000000000000000000000000000000000000000000000000000000001dcd65000000000000000000fffe696227de541a6906a28c6409402eefdd9a358361e7ec0000000000000000000000000000000000000000000000000000000000000000",
        "nonce": "0x216",
        "chainId": "0xaa36a7"
      },
      "additionalContracts": [],
      "isFixedGasLimit": false
    },
    {
      "hash": "0xe553a5b20c1996b8c80be5678d2583c287b06130da6bb6feaa9e8dbee3e6251b",
      "transactionType": "CALL",
      "contractName": null,
      "contractAddress": "0x8811116b226cfaa36cc5b25a03fe59a9ca192cdc",
      "function": "swap((address,address,uint128,uint32,address),bool,int128,uint256,uint256)",
      "arguments": [
        "(0x0000000000000000000000000000000000000000, 0x2bd8Ba84Af5F531F95E029e680b66ffc0B2b1599, 1020847100762815390390123822295304634, 5982, 0x0000000000000000000000000000000000000000)",
        "false",
        "100000",
        "18447191164202170526",
        "0"
      ],
      "transaction": {
        "from": "0x00000c771f6176268d5a9846e0956c3ef58597a1",
        "to": "0x8811116b226cfaa36cc5b25a03fe59a9ca192cdc",
        "gas": "0x1dd84",
        "value": "0x186a0",
        "input": "0xab81aca500000000000000000000000000000000000000000000000000000000000000000000000000000000000000002bd8ba84af5f531f95e029e680b66ffc0b2b15990000000000000000000000000000000000c49ba5e353f7ced916872b020c49ba000000000000000000000000000000000000000000000000000000000000175e0000000000000000000000000000000000000000000000000000000000000000000000000000000000000000000000000000000000000000000000000000000000000000000000000000000000000000000000000000000000000000000186a0000000000000000000000000000000000000000000000001000196a05dfeb89e0000000000000000000000000000000000000000000000000000000000000000",
        "nonce": "0x217",
        "chainId": "0xaa36a7"
      },
      "additionalContracts": [],
      "isFixedGasLimit": false
    },
    {
      "hash": "0xc0c504c996d12b6da98cc66080456da153f3b4563a0350cfa2c205968180e9c2",
      "transactionType": "CALL",
      "contractName": null,
      "contractAddress": "0x8811116b226cfaa36cc5b25a03fe59a9ca192cdc",
      "function": "swap((address,address,uint128,uint32,address),bool,int128,uint256,uint256)",
      "arguments": [
        "(0x0000000000000000000000000000000000000000, 0x2bd8Ba84Af5F531F95E029e680b66ffc0B2b1599, 1020847100762815390390123822295304634, 5982, 0x0000000000000000000000000000000000000000)",
        "true",
        "500000000",
        "6276949602062853172742588666638147158083741740262337144812",
        "0"
      ],
      "transaction": {
        "from": "0x00000c771f6176268d5a9846e0956c3ef58597a1",
        "to": "0x8811116b226cfaa36cc5b25a03fe59a9ca192cdc",
        "gas": "0x1de10",
        "value": "0x0",
        "input": "0xab81aca500000000000000000000000000000000000000000000000000000000000000000000000000000000000000002bd8ba84af5f531f95e029e680b66ffc0b2b15990000000000000000000000000000000000c49ba5e353f7ced916872b020c49ba000000000000000000000000000000000000000000000000000000000000175e00000000000000000000000000000000000000000000000000000000000000000000000000000000000000000000000000000000000000000000000000000001000000000000000000000000000000000000000000000000000000001dcd65000000000000000000fffe696227de541a6906a28c6409402eefdd9a358361e7ec0000000000000000000000000000000000000000000000000000000000000000",
        "nonce": "0x218",
        "chainId": "0xaa36a7"
      },
      "additionalContracts": [],
      "isFixedGasLimit": false
    },
    {
      "hash": "0x9689d0360ab548a93af0c2c43ce4a8b171a0aa1c407f162a1fa8e24d683fdaea",
      "transactionType": "CALL",
      "contractName": null,
      "contractAddress": "0xb91c28b1b9de28aa9c651c388415eee7395ebfa4",
      "function": "multicall(bytes[])",
      "arguments": [
        "[0x3bb838a800000000000000000000000000000000000000000000000000000000000000000000000000000000000000002bd8ba84af5f531f95e029e680b66ffc0b2b159900000000000000000000000000000000028f5c28f5c28f5c28f5c28f5c28f5c20000000000000000000000000000000000000000000000000000000000004d5a0000000000000000000000000000000000000000000000000000000000000000000000000000000000000000000000000000000000000000000000000081f64d, 0xcda20b50c85b2f0756c570839e7036bc4036d124f74c3b063006ddf41a141b5bb37b0d2f00000000000000000000000000000000000000000000000000000000000000000000000000000000000000002bd8ba84af5f531f95e029e680b66ffc0b2b159900000000000000000000000000000000028f5c28f5c28f5c28f5c28f5c28f5c20000000000000000000000000000000000000000000000000000000000004d5a0000000000000000000000000000000000000000000000000000000000000000fffffffffffffffffffffffffffffffffffffffffffffffffffffffffab65900000000000000000000000000000000000000000000000000000000000549a700000000000000000000000000000000000000000000000000006a94d74f43000000000000000000000000000000000000000000000000001043561a88293000000000000000000000000000000000000000000000000000000000000000000000, 0x41865270]"
      ],
      "transaction": {
        "from": "0x00000c771f6176268d5a9846e0956c3ef58597a1",
        "to": "0xb91c28b1b9de28aa9c651c388415eee7395ebfa4",
        "gas": "0x654ab",
        "value": "0x6a94d74f430000",
        "input": "0xac9650d80000000000000000000000000000000000000000000000000000000000000020000000000000000000000000000000000000000000000000000000000000000300000000000000000000000000000000000000000000000000000000000000600000000000000000000000000000000000000000000000000000000000000160000000000000000000000000000000000000000000000000000000000000030000000000000000000000000000000000000000000000000000000000000000c43bb838a800000000000000000000000000000000000000000000000000000000000000000000000000000000000000002bd8ba84af5f531f95e029e680b66ffc0b2b159900000000000000000000000000000000028f5c28f5c28f5c28f5c28f5c28f5c20000000000000000000000000000000000000000000000000000000000004d5a0000000000000000000000000000000000000000000000000000000000000000000000000000000000000000000000000000000000000000000000000081f64d000000000000000000000000000000000000000000000000000000000000000000000000000000000000000000000000000000000000000000000164cda20b50c85b2f0756c570839e7036bc4036d124f74c3b063006ddf41a141b5bb37b0d2f00000000000000000000000000000000000000000000000000000000000000000000000000000000000000002bd8ba84af5f531f95e029e680b66ffc0b2b159900000000000000000000000000000000028f5c28f5c28f5c28f5c28f5c28f5c20000000000000000000000000000000000000000000000000000000000004d5a0000000000000000000000000000000000000000000000000000000000000000fffffffffffffffffffffffffffffffffffffffffffffffffffffffffab65900000000000000000000000000000000000000000000000000000000000549a700000000000000000000000000000000000000000000000000006a94d74f43000000000000000000000000000000000000000000000000001043561a882930000000000000000000000000000000000000000000000000000000000000000000000000000000000000000000000000000000000000000000000000000000000000000000000000000000000000000000000000000000000000000000044186527000000000000000000000000000000000000000000000000000000000",
        "nonce": "0x219",
        "chainId": "0xaa36a7"
      },
      "additionalContracts": [],
      "isFixedGasLimit": false
    },
    {
      "hash": "0xb5b018c8c98d31f2f06dfe3000d3ea6512749b98ba11bcbbdb222e6c3738cb8f",
      "transactionType": "CALL",
      "contractName": null,
      "contractAddress": "0xb91c28b1b9de28aa9c651c388415eee7395ebfa4",
      "function": "multicall(bytes[])",
      "arguments": [
        "[0x3bb838a800000000000000000000000000000000000000000000000000000000000000000000000000000000000000002bd8ba84af5f531f95e029e680b66ffc0b2b1599000000000000000000000000000000000000000000000000000000000000000000000000000000000000000000000000000000000000000000000000000aa8ed00000000000000000000000051d580c15c43684081ff84d7a623f889e8289c2f00000000000000000000000000000000000000000000000000000000004644f4, 0xcda20b50c85b2f0756c570839e7036bc4036d124f74c3b063006ddf41a141b5bb37b0d3000000000000000000000000000000000000000000000000000000000000000000000000000000000000000002bd8ba84af5f531f95e029e680b66ffc0b2b1599000000000000000000000000000000000000000000000000000000000000000000000000000000000000000000000000000000000000000000000000000aa8ed00000000000000000000000051d580c15c43684081ff84d7a623f889e8289c2ffffffffffffffffffffffffffffffffffffffffffffffffffffffffffab6326d000000000000000000000000000000000000000000000000000000000549cd930000000000000000000000000000000000000000000000000de0b6b3a76400000000000000000000000000000000000000000000000000056bc75e2d631000000000000000000000000000000000000000000000000000000000000000000000, 0x41865270]"
      ],
      "transaction": {
        "from": "0x00000c771f6176268d5a9846e0956c3ef58597a1",
        "to": "0xb91c28b1b9de28aa9c651c388415eee7395ebfa4",
        "gas": "0x77b04",
        "value": "0xde0b6b3a7640000",
        "input": "0xac9650d80000000000000000000000000000000000000000000000000000000000000020000000000000000000000000000000000000000000000000000000000000000300000000000000000000000000000000000000000000000000000000000000600000000000000000000000000000000000000000000000000000000000000160000000000000000000000000000000000000000000000000000000000000030000000000000000000000000000000000000000000000000000000000000000c43bb838a800000000000000000000000000000000000000000000000000000000000000000000000000000000000000002bd8ba84af5f531f95e029e680b66ffc0b2b1599000000000000000000000000000000000000000000000000000000000000000000000000000000000000000000000000000000000000000000000000000aa8ed00000000000000000000000051d580c15c43684081ff84d7a623f889e8289c2f00000000000000000000000000000000000000000000000000000000004644f4000000000000000000000000000000000000000000000000000000000000000000000000000000000000000000000000000000000000000000000164cda20b50c85b2f0756c570839e7036bc4036d124f74c3b063006ddf41a141b5bb37b0d3000000000000000000000000000000000000000000000000000000000000000000000000000000000000000002bd8ba84af5f531f95e029e680b66ffc0b2b1599000000000000000000000000000000000000000000000000000000000000000000000000000000000000000000000000000000000000000000000000000aa8ed00000000000000000000000051d580c15c43684081ff84d7a623f889e8289c2ffffffffffffffffffffffffffffffffffffffffffffffffffffffffffab6326d000000000000000000000000000000000000000000000000000000000549cd930000000000000000000000000000000000000000000000000de0b6b3a76400000000000000000000000000000000000000000000000000056bc75e2d6310000000000000000000000000000000000000000000000000000000000000000000000000000000000000000000000000000000000000000000000000000000000000000000000000000000000000000000000000000000000000000000044186527000000000000000000000000000000000000000000000000000000000",
        "nonce": "0x21a",
        "chainId": "0xaa36a7"
      },
      "additionalContracts": [],
      "isFixedGasLimit": false
    }
  ],
  "receipts": [
    {
      "status": "0x1",
      "cumulativeGasUsed": "0x192ebf2",
      "logs": [
        {
          "address": "0x2bd8ba84af5f531f95e029e680b66ffc0b2b1599",
          "topics": [
            "0xddf252ad1be2c89b69c2b068fc378daa952ba7f163c4a11628f55a4df523b3ef",
            "0x0000000000000000000000000000000000000000000000000000000000000000",
            "0x00000000000000000000000000000c771f6176268d5a9846e0956c3ef58597a1"
          ],
          "data": "0xffffffffffffffffffffffffffffffffffffffffffffffffffffffffffffffff",
          "blockHash": "0x2ee5b123be54618f72110d8448e37615773c60b12efc7c54b54611f443566ce0",
          "blockNumber": "0x74975d",
          "transactionHash": "0x5f83ff338c284ef03d9ded536aabbfaba9fab08f4456dbf239c9bc487132041b",
          "transactionIndex": "0x58",
          "logIndex": "0x14d",
          "removed": false
        }
      ],
      "logsBloom": "0x0000000000000000000000000000000000000400000000000000000000000020000000000000000000000000000000000000800000000000000000000000000000000000000000000000000a000000000000000000000000000000000000000000000000020000000000000000000800000000000000000000000010000000000000000000000000000000000000000000000000000100000000000000000000000000000000000000000000000000000000000000000000000000000000000000000012000000000000000000000000000000000000000000000000000020000000000000000000000000000000000000000000000000000000000000000000",
      "type": "0x2",
      "transactionHash": "0x5f83ff338c284ef03d9ded536aabbfaba9fab08f4456dbf239c9bc487132041b",
      "transactionIndex": "0x58",
      "blockHash": "0x2ee5b123be54618f72110d8448e37615773c60b12efc7c54b54611f443566ce0",
      "blockNumber": "0x74975d",
      "gasUsed": "0x90ed7",
      "effectiveGasPrice": "0x423472ec",
      "from": "0x00000c771f6176268d5a9846e0956c3ef58597a1",
      "to": null,
      "contractAddress": "0x2bd8ba84af5f531f95e029e680b66ffc0b2b1599"
    },
    {
      "status": "0x1",
      "cumulativeGasUsed": "0x21656dc",
      "logs": [
        {
          "address": "0x2bd8ba84af5f531f95e029e680b66ffc0b2b1599",
          "topics": [
            "0x8c5be1e5ebec7d5bd14f71427d1e84f3dd0314c0f7b2291e5b200ac8c7c3b925",
            "0x00000000000000000000000000000c771f6176268d5a9846e0956c3ef58597a1",
            "0x0000000000000000000000008811116b226cfaa36cc5b25a03fe59a9ca192cdc"
          ],
          "data": "0xffffffffffffffffffffffffffffffffffffffffffffffffffffffffffffffff",
          "blockHash": "0x61bc504a2a6ef80cbe83d0caa948c8612709a6670a72d3087bf0b80afe66e65a",
          "blockNumber": "0x74975e",
          "transactionHash": "0x2de451e904c017c6a8e63d8f79b04169464410b00b3b7e7804767cfb042034ed",
          "transactionIndex": "0x40",
          "logIndex": "0x10ef",
          "removed": false
        }
      ],
      "logsBloom": "0x00000000000000000000000000000000000004000000000000000000000000200000000000000000000000000000000000008000000000000000000000200000000000000008000000000002000000000000000000000000000000000000000000000000000000000000000000000000000000000000000000000000000000000000000000000000000000000000000000000000000100000000000000000000020000000000000000000000000000000000000000000000000000000000000000080010000000000000000000000000000004000000000000000000000000000010000000000000000000000000000000000000000000000000000000000000",
      "type": "0x2",
      "transactionHash": "0x2de451e904c017c6a8e63d8f79b04169464410b00b3b7e7804767cfb042034ed",
      "transactionIndex": "0x40",
      "blockHash": "0x61bc504a2a6ef80cbe83d0caa948c8612709a6670a72d3087bf0b80afe66e65a",
      "blockNumber": "0x74975e",
      "gasUsed": "0xb437",
      "effectiveGasPrice": "0x46207091",
      "from": "0x00000c771f6176268d5a9846e0956c3ef58597a1",
      "to": "0x2bd8ba84af5f531f95e029e680b66ffc0b2b1599",
      "contractAddress": null
    },
    {
      "status": "0x1",
      "cumulativeGasUsed": "0x12bc07f",
      "logs": [
        {
          "address": "0x2bd8ba84af5f531f95e029e680b66ffc0b2b1599",
          "topics": [
            "0x8c5be1e5ebec7d5bd14f71427d1e84f3dd0314c0f7b2291e5b200ac8c7c3b925",
            "0x00000000000000000000000000000c771f6176268d5a9846e0956c3ef58597a1",
            "0x000000000000000000000000b91c28b1b9de28aa9c651c388415eee7395ebfa4"
          ],
          "data": "0xffffffffffffffffffffffffffffffffffffffffffffffffffffffffffffffff",
          "blockHash": "0xae703e50657d8b5816a3e0e06e555f67e6f32b40661e8aa82539d93c382b6046",
          "blockNumber": "0x749760",
          "transactionHash": "0x7bb18e39ba7142644f35fadd566fbdc43f40142985c835a92a9a41afe68d2a2e",
          "transactionIndex": "0x60",
          "logIndex": "0x16c",
          "removed": false
        }
      ],
      "logsBloom": "0x00000000000000000000000000000000000004000000000000000000000000200000000000000000000000000000000000008000000000000000000000200000000000000000000000000002000000000000000000000000000000000000000000000000000000000000000000000020000000000000000000000000000000000000000000000000000000000000000000000000000100000000000000000000020000000000000000000000000000000000000000000000000000000000000000000010000008000000000000000000000000000000000000000000000000000010000800000000000000000000000000000000000000000000000000000000",
      "type": "0x2",
      "transactionHash": "0x7bb18e39ba7142644f35fadd566fbdc43f40142985c835a92a9a41afe68d2a2e",
      "transactionIndex": "0x60",
      "blockHash": "0xae703e50657d8b5816a3e0e06e555f67e6f32b40661e8aa82539d93c382b6046",
      "blockNumber": "0x749760",
      "gasUsed": "0xb437",
      "effectiveGasPrice": "0x468d1204",
      "from": "0x00000c771f6176268d5a9846e0956c3ef58597a1",
      "to": "0x2bd8ba84af5f531f95e029e680b66ffc0b2b1599",
      "contractAddress": null
    },
    {
      "status": "0x1",
      "cumulativeGasUsed": "0x918792",
      "logs": [
        {
          "address": "0xda92ab602d3cdc945497b23cac3e50bb8d28dd4e",
          "topics": [
            "0x5014502cd7c1cd1f671286e947be5af016cf1bff863e084d012d73b1133f7cfb"
          ],
          "data": "0x5550b7ae575a9d3df85c9930b07adc07ac44ebc1b39dc7487f1f58b904b3debc00000000000000000000000000000000000000000000000000000000000000000000000000000000000000002bd8ba84af5f531f95e029e680b66ffc0b2b15990000000000000000000000000000000000c49ba5e353f7ced916872b020c49ba000000000000000000000000000000000000000000000000000000000000175e0000000000000000000000000000000000000000000000000000000000000000000000000000000000000000000000000000000000000000000000000081f64d00000000000000000000000000000046b5edf55f4b6d955ca5ad5187dff5e61a",
          "blockHash": "0x6314d3d22154b553867a576d21825a4f075b16c95384b8a69d0792abe1a1a152",
          "blockNumber": "0x749761",
          "transactionHash": "0x304c35cc8738f7d10399f9249769592611d50dad16592d8fa8e733dceaf191c8",
          "transactionIndex": "0x41",
          "logIndex": "0x50",
          "removed": false
        },
        {
          "address": "0xb91c28b1b9de28aa9c651c388415eee7395ebfa4",
          "topics": [
            "0xddf252ad1be2c89b69c2b068fc378daa952ba7f163c4a11628f55a4df523b3ef",
            "0x0000000000000000000000000000000000000000000000000000000000000000",
            "0x00000000000000000000000000000c771f6176268d5a9846e0956c3ef58597a1",
            "0x0000000000000000000000000000000000000000000000000000729215876f50"
          ],
          "data": "0x",
          "blockHash": "0x6314d3d22154b553867a576d21825a4f075b16c95384b8a69d0792abe1a1a152",
          "blockNumber": "0x749761",
          "transactionHash": "0x304c35cc8738f7d10399f9249769592611d50dad16592d8fa8e733dceaf191c8",
          "transactionIndex": "0x41",
          "logIndex": "0x51",
          "removed": false
        },
        {
          "address": "0xda92ab602d3cdc945497b23cac3e50bb8d28dd4e",
          "topics": [
            "0xa2d4008be4187c63684f323788e131e1370dbc2205499befe2834005a00c792c"
          ],
          "data": "0x000000000000000000000000b91c28b1b9de28aa9c651c388415eee7395ebfa45550b7ae575a9d3df85c9930b07adc07ac44ebc1b39dc7487f1f58b904b3debc0000000000000000000000000000000000000000000000000000729215876f50fffffffffffffffffffffffffffffffffffffffffffffffffffffffffab6413e000000000000000000000000000000000000000000000000000000000549bec200000000000000000000000000000000000000000000000009d025b9f39a7b59000000000000000000000000000000000000000000000000002386f26fc10000000000000000000000000000000000000000000000000002b5e39a9fdddd9e1c",
          "blockHash": "0x6314d3d22154b553867a576d21825a4f075b16c95384b8a69d0792abe1a1a152",
          "blockNumber": "0x749761",
          "transactionHash": "0x304c35cc8738f7d10399f9249769592611d50dad16592d8fa8e733dceaf191c8",
          "transactionIndex": "0x41",
          "logIndex": "0x52",
          "removed": false
        },
        {
          "address": "0x2bd8ba84af5f531f95e029e680b66ffc0b2b1599",
          "topics": [
            "0xddf252ad1be2c89b69c2b068fc378daa952ba7f163c4a11628f55a4df523b3ef",
            "0x00000000000000000000000000000c771f6176268d5a9846e0956c3ef58597a1",
            "0x000000000000000000000000da92ab602d3cdc945497b23cac3e50bb8d28dd4e"
          ],
          "data": "0x000000000000000000000000000000000000000000000002b5e39a9fdddd9e1c",
          "blockHash": "0x6314d3d22154b553867a576d21825a4f075b16c95384b8a69d0792abe1a1a152",
          "blockNumber": "0x749761",
          "transactionHash": "0x304c35cc8738f7d10399f9249769592611d50dad16592d8fa8e733dceaf191c8",
          "transactionIndex": "0x41",
          "logIndex": "0x53",
          "removed": false
        }
      ],
      "logsBloom": "0x0000000008000000010000000000000000000400010000000000000000000020000000000800000000000000000000000100800400000000000000000000000000000000000000000000000a020000000000000001000000000000000000000020000000020000000000000000000800000000080000000000000010000000000000000000000000000000000008000000002000000100000000000000000000000800000002000000000000000000000000000000000000080000000000000000000012000000000000000000000000000000000000000000000000001020000000009000000000000000000000000000000000000000000000000000000000",
      "type": "0x2",
      "transactionHash": "0x304c35cc8738f7d10399f9249769592611d50dad16592d8fa8e733dceaf191c8",
      "transactionIndex": "0x41",
      "blockHash": "0x6314d3d22154b553867a576d21825a4f075b16c95384b8a69d0792abe1a1a152",
      "blockNumber": "0x749761",
      "gasUsed": "0x4da22",
      "effectiveGasPrice": "0x4acd3c6d",
      "from": "0x00000c771f6176268d5a9846e0956c3ef58597a1",
      "to": "0xb91c28b1b9de28aa9c651c388415eee7395ebfa4",
      "contractAddress": null
    },
    {
      "status": "0x1",
      "cumulativeGasUsed": "0xdb0c41",
      "logs": [
        {
          "address": "0xda92ab602d3cdc945497b23cac3e50bb8d28dd4e",
          "topics": [],
          "data": "0x8811116b226cfaa36cc5b25a03fe59a9ca192cdc5550b7ae575a9d3df85c9930b07adc07ac44ebc1b39dc7487f1f58b904b3debc000000000000000000000000000186a0ffffffffffffffffffffffffe2497ff9000000000000000009d025b9f39a7b5900000046b5edf55c4449ef7497539f80a00c1b230081f64c",
          "blockHash": "0x12f2d93aebc1cfe874107d46d9c8459060b1679ed5b5a3fc5b9c93cb222418d4",
          "blockNumber": "0x749762",
          "transactionHash": "0x73fd412baa24b7b822227378bbc5dca4e59d6cd4a734f4edd55e5c0fd0bf7dd4",
          "transactionIndex": "0x3d",
          "logIndex": "0x127",
          "removed": false
        },
        {
          "address": "0x2bd8ba84af5f531f95e029e680b66ffc0b2b1599",
          "topics": [
            "0xddf252ad1be2c89b69c2b068fc378daa952ba7f163c4a11628f55a4df523b3ef",
            "0x000000000000000000000000da92ab602d3cdc945497b23cac3e50bb8d28dd4e",
            "0x00000000000000000000000000000c771f6176268d5a9846e0956c3ef58597a1"
          ],
          "data": "0x000000000000000000000000000000000000000000000000000000001db68007",
          "blockHash": "0x12f2d93aebc1cfe874107d46d9c8459060b1679ed5b5a3fc5b9c93cb222418d4",
          "blockNumber": "0x749762",
          "transactionHash": "0x73fd412baa24b7b822227378bbc5dca4e59d6cd4a734f4edd55e5c0fd0bf7dd4",
          "transactionIndex": "0x3d",
          "logIndex": "0x128",
          "removed": false
        }
      ],
      "logsBloom": "0x0000000000000000000000000000000000000400000000000000000000000020000000000000000000000000000000000000800400000000000000000000000000000000000000000000000a000000000000000000000000000000000000000000000000000000000000000000000000000000000000000000000010000000000000000000000000000000000000000000002000000100000000000000000000000800000000000000000000000000000000000000000000080000000000000000000012000000000000000000000000000000000000000000000000001000000000008000000000000000000000000000000000000000000000000000000000",
      "type": "0x2",
      "transactionHash": "0x73fd412baa24b7b822227378bbc5dca4e59d6cd4a734f4edd55e5c0fd0bf7dd4",
      "transactionIndex": "0x3d",
      "blockHash": "0x12f2d93aebc1cfe874107d46d9c8459060b1679ed5b5a3fc5b9c93cb222418d4",
      "blockNumber": "0x749762",
      "gasUsed": "0x1894e",
      "effectiveGasPrice": "0x489f85cd",
      "from": "0x00000c771f6176268d5a9846e0956c3ef58597a1",
      "to": "0x8811116b226cfaa36cc5b25a03fe59a9ca192cdc",
      "contractAddress": null
    },
    {
      "status": "0x1",
      "cumulativeGasUsed": "0x7a49fd",
      "logs": [
        {
          "address": "0xda92ab602d3cdc945497b23cac3e50bb8d28dd4e",
          "topics": [],
          "data": "0x8811116b226cfaa36cc5b25a03fe59a9ca192cdc5550b7ae575a9d3df85c9930b07adc07ac44ebc1b39dc7487f1f58b904b3debcfffffffffffffffffffffffffffe7a8c0000000000000000000000001dcd6500000000000000000009d025b9f39a7b5900000046b5edf55f4b6dbf06947d160474f95e090081f64d",
          "blockHash": "0xc97b11328c7964e534f4f5b091ca90131cb90f8e0c76bad3265bfe621a9a435d",
          "blockNumber": "0x749763",
          "transactionHash": "0xfb97b8a693f181e28d00d813e09614e0f54b6f4956f505e0d89a6afbb3531faf",
          "transactionIndex": "0x43",
          "logIndex": "0x61",
          "removed": false
        },
        {
          "address": "0x2bd8ba84af5f531f95e029e680b66ffc0b2b1599",
          "topics": [
            "0xddf252ad1be2c89b69c2b068fc378daa952ba7f163c4a11628f55a4df523b3ef",
            "0x00000000000000000000000000000c771f6176268d5a9846e0956c3ef58597a1",
            "0x000000000000000000000000da92ab602d3cdc945497b23cac3e50bb8d28dd4e"
          ],
          "data": "0x000000000000000000000000000000000000000000000000000000001dcd6500",
          "blockHash": "0xc97b11328c7964e534f4f5b091ca90131cb90f8e0c76bad3265bfe621a9a435d",
          "blockNumber": "0x749763",
          "transactionHash": "0xfb97b8a693f181e28d00d813e09614e0f54b6f4956f505e0d89a6afbb3531faf",
          "transactionIndex": "0x43",
          "logIndex": "0x62",
          "removed": false
        }
      ],
      "logsBloom": "0x0000000000000000000000000000000000000400000000000000000000000020000000000000000000000000000000000000800400000000000000000000000000000000000000000000000a000000000000000000000000000000000000000000000000000000000000000000000000000000000000000000000010000000000000000000000000000000000000000000002000000100000000000000000000000800000000000000000000000000000000000000000000080000000000000000000012000000000000000000000000000000000000000000000000001000000000008000000000000000000000000000000000000000000000000000000000",
      "type": "0x2",
      "transactionHash": "0xfb97b8a693f181e28d00d813e09614e0f54b6f4956f505e0d89a6afbb3531faf",
      "transactionIndex": "0x43",
      "blockHash": "0xc97b11328c7964e534f4f5b091ca90131cb90f8e0c76bad3265bfe621a9a435d",
      "blockNumber": "0x749763",
      "gasUsed": "0x19ce9",
      "effectiveGasPrice": "0x47229dba",
      "from": "0x00000c771f6176268d5a9846e0956c3ef58597a1",
      "to": "0x8811116b226cfaa36cc5b25a03fe59a9ca192cdc",
      "contractAddress": null
    },
    {
      "status": "0x1",
      "cumulativeGasUsed": "0x618d5a",
      "logs": [
        {
          "address": "0xda92ab602d3cdc945497b23cac3e50bb8d28dd4e",
          "topics": [],
          "data": "0x8811116b226cfaa36cc5b25a03fe59a9ca192cdc5550b7ae575a9d3df85c9930b07adc07ac44ebc1b39dc7487f1f58b904b3debc000000000000000000000000000186a0ffffffffffffffffffffffffe24991e8000000000000000009d025b9f39a7b5900000046b5edf55c444becfabd7205d9bc7ffd4d0081f64c",
          "blockHash": "0x130093f905745859fd61df618f20eea1225147edd4e3bb98383d5105ca3f7e16",
          "blockNumber": "0x749764",
          "transactionHash": "0xe553a5b20c1996b8c80be5678d2583c287b06130da6bb6feaa9e8dbee3e6251b",
          "transactionIndex": "0x45",
          "logIndex": "0x5c",
          "removed": false
        },
        {
          "address": "0x2bd8ba84af5f531f95e029e680b66ffc0b2b1599",
          "topics": [
            "0xddf252ad1be2c89b69c2b068fc378daa952ba7f163c4a11628f55a4df523b3ef",
            "0x000000000000000000000000da92ab602d3cdc945497b23cac3e50bb8d28dd4e",
            "0x00000000000000000000000000000c771f6176268d5a9846e0956c3ef58597a1"
          ],
          "data": "0x000000000000000000000000000000000000000000000000000000001db66e18",
          "blockHash": "0x130093f905745859fd61df618f20eea1225147edd4e3bb98383d5105ca3f7e16",
          "blockNumber": "0x749764",
          "transactionHash": "0xe553a5b20c1996b8c80be5678d2583c287b06130da6bb6feaa9e8dbee3e6251b",
          "transactionIndex": "0x45",
          "logIndex": "0x5d",
          "removed": false
        }
      ],
      "logsBloom": "0x0000000000000000000000000000000000000400000000000000000000000020000000000000000000000000000000000000800400000000000000000000000000000000000000000000000a000000000000000000000000000000000000000000000000000000000000000000000000000000000000000000000010000000000000000000000000000000000000000000002000000100000000000000000000000800000000000000000000000000000000000000000000080000000000000000000012000000000000000000000000000000000000000000000000001000000000008000000000000000000000000000000000000000000000000000000000",
      "type": "0x2",
      "transactionHash": "0xe553a5b20c1996b8c80be5678d2583c287b06130da6bb6feaa9e8dbee3e6251b",
      "transactionIndex": "0x45",
      "blockHash": "0x130093f905745859fd61df618f20eea1225147edd4e3bb98383d5105ca3f7e16",
      "blockNumber": "0x749764",
      "gasUsed": "0x14682",
      "effectiveGasPrice": "0x430c68db",
      "from": "0x00000c771f6176268d5a9846e0956c3ef58597a1",
      "to": "0x8811116b226cfaa36cc5b25a03fe59a9ca192cdc",
      "contractAddress": null
    },
    {
      "status": "0x1",
      "cumulativeGasUsed": "0x1fce852",
      "logs": [
        {
          "address": "0xda92ab602d3cdc945497b23cac3e50bb8d28dd4e",
          "topics": [],
          "data": "0x8811116b226cfaa36cc5b25a03fe59a9ca192cdc5550b7ae575a9d3df85c9930b07adc07ac44ebc1b39dc7487f1f58b904b3debcfffffffffffffffffffffffffffe7a8c0000000000000000000000001dcd6500000000000000000009d025b9f39a7b5900000046b5edf55f4b6fbc8cba9b7c5d916d40330081f64d",
          "blockHash": "0xd2e2dc935964c0e1c69d8530a180ad90b6b25a75a8c565b250b1b9a8b8ec2f42",
          "blockNumber": "0x749765",
          "transactionHash": "0xc0c504c996d12b6da98cc66080456da153f3b4563a0350cfa2c205968180e9c2",
          "transactionIndex": "0x232",
          "logIndex": "0x319",
          "removed": false
        },
        {
          "address": "0x2bd8ba84af5f531f95e029e680b66ffc0b2b1599",
          "topics": [
            "0xddf252ad1be2c89b69c2b068fc378daa952ba7f163c4a11628f55a4df523b3ef",
            "0x00000000000000000000000000000c771f6176268d5a9846e0956c3ef58597a1",
            "0x000000000000000000000000da92ab602d3cdc945497b23cac3e50bb8d28dd4e"
          ],
          "data": "0x000000000000000000000000000000000000000000000000000000001dcd6500",
          "blockHash": "0xd2e2dc935964c0e1c69d8530a180ad90b6b25a75a8c565b250b1b9a8b8ec2f42",
          "blockNumber": "0x749765",
          "transactionHash": "0xc0c504c996d12b6da98cc66080456da153f3b4563a0350cfa2c205968180e9c2",
          "transactionIndex": "0x232",
          "logIndex": "0x31a",
          "removed": false
        }
      ],
      "logsBloom": "0x0000000000000000000000000000000000000400000000000000000000000020000000000000000000000000000000000000800400000000000000000000000000000000000000000000000a000000000000000000000000000000000000000000000000000000000000000000000000000000000000000000000010000000000000000000000000000000000000000000002000000100000000000000000000000800000000000000000000000000000000000000000000080000000000000000000012000000000000000000000000000000000000000000000000001000000000008000000000000000000000000000000000000000000000000000000000",
      "type": "0x2",
      "transactionHash": "0xc0c504c996d12b6da98cc66080456da153f3b4563a0350cfa2c205968180e9c2",
      "transactionIndex": "0x232",
      "blockHash": "0xd2e2dc935964c0e1c69d8530a180ad90b6b25a75a8c565b250b1b9a8b8ec2f42",
      "blockNumber": "0x749765",
      "gasUsed": "0x15a1d",
      "effectiveGasPrice": "0x410e09a1",
      "from": "0x00000c771f6176268d5a9846e0956c3ef58597a1",
      "to": "0x8811116b226cfaa36cc5b25a03fe59a9ca192cdc",
      "contractAddress": null
    },
    {
      "status": "0x1",
      "cumulativeGasUsed": "0x687781",
      "logs": [
        {
          "address": "0xda92ab602d3cdc945497b23cac3e50bb8d28dd4e",
          "topics": [
            "0x5014502cd7c1cd1f671286e947be5af016cf1bff863e084d012d73b1133f7cfb"
          ],
          "data": "0xce0c93a9d5d0826cb4eb67e982023b762f4908c33184bec6894a202af95e342000000000000000000000000000000000000000000000000000000000000000000000000000000000000000002bd8ba84af5f531f95e029e680b66ffc0b2b159900000000000000000000000000000000028f5c28f5c28f5c28f5c28f5c28f5c20000000000000000000000000000000000000000000000000000000000004d5a0000000000000000000000000000000000000000000000000000000000000000000000000000000000000000000000000000000000000000000000000081f64d00000000000000000000000000000046b5edf55f4b6d955ca5ad5187dff5e61a",
          "blockHash": "0x959c76eb4af54001497db41fe00c77dba89737a0f51cc0fd4806ba9f52f86c8f",
          "blockNumber": "0x749766",
          "transactionHash": "0x9689d0360ab548a93af0c2c43ce4a8b171a0aa1c407f162a1fa8e24d683fdaea",
          "transactionIndex": "0x42",
          "logIndex": "0x68",
          "removed": false
        },
        {
          "address": "0xb91c28b1b9de28aa9c651c388415eee7395ebfa4",
          "topics": [
            "0xddf252ad1be2c89b69c2b068fc378daa952ba7f163c4a11628f55a4df523b3ef",
            "0x0000000000000000000000000000000000000000000000000000000000000000",
            "0x00000000000000000000000000000c771f6176268d5a9846e0956c3ef58597a1",
            "0x000000000000000000000000000000000000000000000000000063c98acb43f9"
          ],
          "data": "0x",
          "blockHash": "0x959c76eb4af54001497db41fe00c77dba89737a0f51cc0fd4806ba9f52f86c8f",
          "blockNumber": "0x749766",
          "transactionHash": "0x9689d0360ab548a93af0c2c43ce4a8b171a0aa1c407f162a1fa8e24d683fdaea",
          "transactionIndex": "0x42",
          "logIndex": "0x69",
          "removed": false
        },
        {
          "address": "0xda92ab602d3cdc945497b23cac3e50bb8d28dd4e",
          "topics": [
            "0xa2d4008be4187c63684f323788e131e1370dbc2205499befe2834005a00c792c"
          ],
          "data": "0x000000000000000000000000b91c28b1b9de28aa9c651c388415eee7395ebfa4ce0c93a9d5d0826cb4eb67e982023b762f4908c33184bec6894a202af95e3420000000000000000000000000000000000000000000000000000063c98acb43f9fffffffffffffffffffffffffffffffffffffffffffffffffffffffffab65900000000000000000000000000000000000000000000000000000000000549a7000000000000000000000000000000000000000000000000001d70712ddacf720b000000000000000000000000000000000000000000000000006a94d74f43000000000000000000000000000000000000000000000000000821aacfdf9998da53",
          "blockHash": "0x959c76eb4af54001497db41fe00c77dba89737a0f51cc0fd4806ba9f52f86c8f",
          "blockNumber": "0x749766",
          "transactionHash": "0x9689d0360ab548a93af0c2c43ce4a8b171a0aa1c407f162a1fa8e24d683fdaea",
          "transactionIndex": "0x42",
          "logIndex": "0x6a",
          "removed": false
        },
        {
          "address": "0x2bd8ba84af5f531f95e029e680b66ffc0b2b1599",
          "topics": [
            "0xddf252ad1be2c89b69c2b068fc378daa952ba7f163c4a11628f55a4df523b3ef",
            "0x00000000000000000000000000000c771f6176268d5a9846e0956c3ef58597a1",
            "0x000000000000000000000000da92ab602d3cdc945497b23cac3e50bb8d28dd4e"
          ],
          "data": "0x00000000000000000000000000000000000000000000000821aacfdf9998da53",
          "blockHash": "0x959c76eb4af54001497db41fe00c77dba89737a0f51cc0fd4806ba9f52f86c8f",
          "blockNumber": "0x749766",
          "transactionHash": "0x9689d0360ab548a93af0c2c43ce4a8b171a0aa1c407f162a1fa8e24d683fdaea",
          "transactionIndex": "0x42",
          "logIndex": "0x6b",
          "removed": false
        }
      ],
      "logsBloom": "0x0000000008000000010000000000000000000400010000000000000000000020000000000000000080000000000000000000800400000000000000000000000000000000000000000000000a020000000000000001000000000000000000000020000000020000000000000000000800000000000000000000000010000000000000000000000000200000000008000000002000000100000000000000000000000800000002000000000000000000000000000000000000080000000000000000000012000000000000000000000000000000000000000000000000001020000000009000000000000000000000000000000000000000000000000000000008",
      "type": "0x2",
      "transactionHash": "0x9689d0360ab548a93af0c2c43ce4a8b171a0aa1c407f162a1fa8e24d683fdaea",
      "transactionIndex": "0x42",
      "blockHash": "0x959c76eb4af54001497db41fe00c77dba89737a0f51cc0fd4806ba9f52f86c8f",
      "blockNumber": "0x749766",
      "gasUsed": "0x49556",
      "effectiveGasPrice": "0x489c959e",
      "from": "0x00000c771f6176268d5a9846e0956c3ef58597a1",
      "to": "0xb91c28b1b9de28aa9c651c388415eee7395ebfa4",
      "contractAddress": null
    },
    {
      "status": "0x1",
      "cumulativeGasUsed": "0x9242b8",
      "logs": [
        {
          "address": "0x51d580c15c43684081ff84d7a623f889e8289c2f",
          "topics": [
            "0x125bfa7929686b76004b9ecf89fff5fa1cafc656618b2086e01686bc4063f2dd",
            "0x0000000000000000000000002bd8ba84af5f531f95e029e680b66ffc0b2b1599"
          ],
          "data": "0x0000000000000000000000000000000000000000000000000000000067a2914c00000000000000000000000000000000000000000000000000000000000000000000000000000000000000000000000000000000000000000000000000000000",
          "blockHash": "0x310589535b93e2191c9eb0a01883957cf6cd88683c5a968522ae10575225fc60",
          "blockNumber": "0x749767",
          "transactionHash": "0xb5b018c8c98d31f2f06dfe3000d3ea6512749b98ba11bcbbdb222e6c3738cb8f",
          "transactionIndex": "0x48",
          "logIndex": "0x70",
          "removed": false
        },
        {
          "address": "0xda92ab602d3cdc945497b23cac3e50bb8d28dd4e",
          "topics": [
            "0x5014502cd7c1cd1f671286e947be5af016cf1bff863e084d012d73b1133f7cfb"
          ],
          "data": "0xdff44c0cb2d18fa59dd706efca2aa43e3f4853750424aae8cedb8de2a9289edc00000000000000000000000000000000000000000000000000000000000000000000000000000000000000002bd8ba84af5f531f95e029e680b66ffc0b2b1599000000000000000000000000000000000000000000000000000000000000000000000000000000000000000000000000000000000000000000000000000aa8ed00000000000000000000000051d580c15c43684081ff84d7a623f889e8289c2f00000000000000000000000000000000000000000000000000000000004644f400000000000000000000000000000009ffffd703fc4b70813166c0384b06a36c",
          "blockHash": "0x310589535b93e2191c9eb0a01883957cf6cd88683c5a968522ae10575225fc60",
          "blockNumber": "0x749767",
          "transactionHash": "0xb5b018c8c98d31f2f06dfe3000d3ea6512749b98ba11bcbbdb222e6c3738cb8f",
          "transactionIndex": "0x48",
          "logIndex": "0x71",
          "removed": false
        },
        {
          "address": "0xb91c28b1b9de28aa9c651c388415eee7395ebfa4",
          "topics": [
            "0xddf252ad1be2c89b69c2b068fc378daa952ba7f163c4a11628f55a4df523b3ef",
            "0x0000000000000000000000000000000000000000000000000000000000000000",
            "0x00000000000000000000000000000c771f6176268d5a9846e0956c3ef58597a1",
            "0x00000000000000000000000000000000000000000000000000003b9172a6c3e5"
          ],
          "data": "0x",
          "blockHash": "0x310589535b93e2191c9eb0a01883957cf6cd88683c5a968522ae10575225fc60",
          "blockNumber": "0x749767",
          "transactionHash": "0xb5b018c8c98d31f2f06dfe3000d3ea6512749b98ba11bcbbdb222e6c3738cb8f",
          "transactionIndex": "0x48",
          "logIndex": "0x72",
          "removed": false
        },
        {
          "address": "0xda92ab602d3cdc945497b23cac3e50bb8d28dd4e",
          "topics": [
            "0xa2d4008be4187c63684f323788e131e1370dbc2205499befe2834005a00c792c"
          ],
          "data": "0x000000000000000000000000b91c28b1b9de28aa9c651c388415eee7395ebfa4dff44c0cb2d18fa59dd706efca2aa43e3f4853750424aae8cedb8de2a9289edc00000000000000000000000000000000000000000000000000003b9172a6c3e5fffffffffffffffffffffffffffffffffffffffffffffffffffffffffab6326d000000000000000000000000000000000000000000000000000000000549cd930000000000000000000000000000000000000000000000008ac720cbc3f4a9190000000000000000000000000000000000000000000000000de0b6b3a76400000000000000000000000000000000000000000000000000056bc731bdec684497",
          "blockHash": "0x310589535b93e2191c9eb0a01883957cf6cd88683c5a968522ae10575225fc60",
          "blockNumber": "0x749767",
          "transactionHash": "0xb5b018c8c98d31f2f06dfe3000d3ea6512749b98ba11bcbbdb222e6c3738cb8f",
          "transactionIndex": "0x48",
          "logIndex": "0x73",
          "removed": false
        },
        {
          "address": "0x2bd8ba84af5f531f95e029e680b66ffc0b2b1599",
          "topics": [
            "0xddf252ad1be2c89b69c2b068fc378daa952ba7f163c4a11628f55a4df523b3ef",
            "0x00000000000000000000000000000c771f6176268d5a9846e0956c3ef58597a1",
            "0x000000000000000000000000da92ab602d3cdc945497b23cac3e50bb8d28dd4e"
          ],
          "data": "0x0000000000000000000000000000000000000000000000056bc731bdec684497",
          "blockHash": "0x310589535b93e2191c9eb0a01883957cf6cd88683c5a968522ae10575225fc60",
          "blockNumber": "0x749767",
          "transactionHash": "0xb5b018c8c98d31f2f06dfe3000d3ea6512749b98ba11bcbbdb222e6c3738cb8f",
          "transactionIndex": "0x48",
          "logIndex": "0x74",
          "removed": false
        }
      ],
      "logsBloom": "0x00000000080000000100000000000000000004000100000000000000000000a0000000000000002000000000000000000000800400000000400000000000000000000000000000000000000a020001000000000001000000008000000000000022000000020000000000000000000800000000002000000000000010000000000000000000000000000004000008000000802000000100000000000000000000000800000082000000000000000000000000000000000000080000000000000000000012000000000000000000000000000000000000000000000000001020000000009000000000000000000000000000000000080000000000000000000000",
      "type": "0x2",
      "transactionHash": "0xb5b018c8c98d31f2f06dfe3000d3ea6512749b98ba11bcbbdb222e6c3738cb8f",
      "transactionIndex": "0x48",
      "blockHash": "0x310589535b93e2191c9eb0a01883957cf6cd88683c5a968522ae10575225fc60",
      "blockNumber": "0x749767",
      "gasUsed": "0x51d6a",
      "effectiveGasPrice": "0x4435543d",
      "from": "0x00000c771f6176268d5a9846e0956c3ef58597a1",
      "to": "0xb91c28b1b9de28aa9c651c388415eee7395ebfa4",
      "contractAddress": null
    }
  ],
  "libraries": [],
  "pending": [],
  "returns": {},
  "timestamp": 1738707278,
  "chain": 11155111,
  "commit": "d44daea"
}