{
  "transactions": [
    {
      "hash": "0x2d076636f1a22de362338bddb7b80f4fb61f14812ac8955d165fb8092b6c58a5",
      "transactionType": "CREATE",
      "contractName": "TestToken",
      "contractAddress": "0x94bb1081b1d1685308a9545f6b5b9c8957dbc115",
      "function": null,
      "arguments": [
        "0x00000C771F6176268D5A9846E0956C3eF58597A1"
      ],
      "transaction": {
        "from": "0x00000c771f6176268d5a9846e0956c3ef58597a1",
        "gas": "0xbc67d",
        "value": "0x0",
        "input": "0x60803460ce57601f6109cc38819003918201601f19168301916001600160401b0383118484101760d25780849260209460405283398101031260ce57516001600160a01b038116810360ce576805345cdf77eb68f44c545f19810190811060c1576805345cdf77eb68f44c556387a211a2600c525f526020600c205f1981540190555f19602052600c5160601c5f7fddf252ad1be2c89b69c2b068fc378daa952ba7f163c4a11628f55a4df523b3ef602080a36040516108e590816100e78239f35b63e5cfe9575f526004601cfd5b5f80fd5b634e487b7160e01b5f52604160045260245ffdfe60806040526004361015610011575f80fd5b5f3560e01c806306fdde03146107cc578063095ea7b31461074357806318160ddd1461070057806323b872dd146105fb578063313ce567146105c25780633644e515146104f857806370a08231146104a85780637ecebe001461045857806395d89b41146103a1578063a9059cbb146102f4578063d505accf146100fd5763dd62ed3e1461009d575f80fd5b346100f95760407ffffffffffffffffffffffffffffffffffffffffffffffffffffffffffffffffc3601126100f9576100d461087b565b6100dc61089e565b602052637f5e9f20600c525f5260206034600c2054604051908152f35b5f80fd5b346100f95760e07ffffffffffffffffffffffffffffffffffffffffffffffffffffffffffffffffc3601126100f95761013461087b565b61013c61089e565b6084359160643560443560ff851685036100f9576101586108c1565b60208101907f54657374546f6b656e00000000000000000000000000000000000000000000008252519020908242116102e75773ffffffffffffffffffffffffffffffffffffffff80604051951695169565383775081901600e52855f5260c06020600c20958654957f8b73c3c69bb8fe3d512ecc4cf759cc79239f7b179b0ffacaa9a75d522b39400f8252602082019586528660408301967fc89efdaa54c0f20c7adf612882df0950f5a951637e0307cdcb4c672f298b8bc688528b6060850198468a528c608087019330855260a08820602e527f6e71edae12b1b97f4d1f60370fef10105fa2faae0126114a169c64845d6126c9885252528688525260a082015220604e526042602c205f5260ff1660205260a43560405260c43560605260208060805f60015afa93853d51036102da577f8c5be1e5ebec7d5bd14f71427d1e84f3dd0314c0f7b2291e5b200ac8c7c3b9259460209401905585777f5e9f200000000000000000000000000000000000000000176040526034602c2055a3005b63ddafbaef5f526004601cfd5b631a15a3cc5f526004601cfd5b346100f95760407ffffffffffffffffffffffffffffffffffffffffffffffffffffffffffffffffc3601126100f95761032b61087b565b602435906387a211a2600c52335f526020600c2080548084116103945783900390555f526020600c20818154019055602052600c5160601c337fddf252ad1be2c89b69c2b068fc378daa952ba7f163c4a11628f55a4df523b3ef602080a3602060405160018152f35b63f4d678b85f526004601cfd5b346100f9575f7ffffffffffffffffffffffffffffffffffffffffffffffffffffffffffffffffc3601126100f957604051604081019080821067ffffffffffffffff83111761042b5761042791604052600281527f5454000000000000000000000000000000000000000000000000000000000000602082015260405191829182610833565b0390f35b7f4e487b71000000000000000000000000000000000000000000000000000000005f52604160045260245ffd5b346100f95760207ffffffffffffffffffffffffffffffffffffffffffffffffffffffffffffffffc3601126100f95761048f61087b565b6338377508600c525f52602080600c2054604051908152f35b346100f95760207ffffffffffffffffffffffffffffffffffffffffffffffffffffffffffffffffc3601126100f9576104df61087b565b6387a211a2600c525f52602080600c2054604051908152f35b346100f9575f7ffffffffffffffffffffffffffffffffffffffffffffffffffffffffffffffffc3601126100f957602060a06105326108c1565b828101907f54657374546f6b656e00000000000000000000000000000000000000000000008252519020604051907f8b73c3c69bb8fe3d512ecc4cf759cc79239f7b179b0ffacaa9a75d522b39400f8252838201527fc89efdaa54c0f20c7adf612882df0950f5a951637e0307cdcb4c672f298b8bc6604082015246606082015230608082015220604051908152f35b346100f9575f7ffffffffffffffffffffffffffffffffffffffffffffffffffffffffffffffffc3601126100f957602060405160128152f35b346100f95760607ffffffffffffffffffffffffffffffffffffffffffffffffffffffffffffffffc3601126100f95761063261087b565b61063a61089e565b604435908260601b33602052637f5e9f208117600c526034600c209081549182196106dc575b506387a211a2915017600c526020600c2080548084116103945783900390555f526020600c2081815401905560205273ffffffffffffffffffffffffffffffffffffffff600c5160601c91167fddf252ad1be2c89b69c2b068fc378daa952ba7f163c4a11628f55a4df523b3ef602080a3602060405160018152f35b8285116106f357846387a211a29303905585610660565b6313be252b5f526004601cfd5b346100f9575f7ffffffffffffffffffffffffffffffffffffffffffffffffffffffffffffffffc3601126100f95760206805345cdf77eb68f44c54604051908152f35b346100f95760407ffffffffffffffffffffffffffffffffffffffffffffffffffffffffffffffffc3601126100f95761077a61087b565b60243590602052637f5e9f20600c52335f52806034600c20555f52602c5160601c337f8c5be1e5ebec7d5bd14f71427d1e84f3dd0314c0f7b2291e5b200ac8c7c3b92560205fa3602060405160018152f35b346100f9575f7ffffffffffffffffffffffffffffffffffffffffffffffffffffffffffffffffc3601126100f9576104276108056108c1565b7f54657374546f6b656e00000000000000000000000000000000000000000000006020820152604051918291825b7fffffffffffffffffffffffffffffffffffffffffffffffffffffffffffffffe0601f602060409481855280519182918282880152018686015e5f8582860101520116010190565b6004359073ffffffffffffffffffffffffffffffffffffffff821682036100f957565b6024359073ffffffffffffffffffffffffffffffffffffffff821682036100f957565b604051906040820182811067ffffffffffffffff82111761042b57604052600982525600000000000000000000000000000c771f6176268d5a9846e0956c3ef58597a1",
        "nonce": "0x2bb",
        "chainId": "0xaa36a7"
      },
      "additionalContracts": [],
      "isFixedGasLimit": false
    },
    {
      "hash": "0x3191813aca8cf2b73ed8025ac450493197bc7cf527a0dfe882ba570a19e013c3",
      "transactionType": "CALL",
      "contractName": "TestToken",
      "contractAddress": "0x94bb1081b1d1685308a9545f6b5b9c8957dbc115",
      "function": "approve(address,uint256)",
      "arguments": [
        "0x7a6c3024D1D51467F79E386e360FB0D64E63c841",
        "115792089237316195423570985008687907853269984665640564039457584007913129639935"
      ],
      "transaction": {
        "from": "0x00000c771f6176268d5a9846e0956c3ef58597a1",
        "to": "0x94bb1081b1d1685308a9545f6b5b9c8957dbc115",
        "gas": "0xf8eb",
        "value": "0x0",
        "input": "0x095ea7b30000000000000000000000007a6c3024d1d51467f79e386e360fb0d64e63c841ffffffffffffffffffffffffffffffffffffffffffffffffffffffffffffffff",
        "nonce": "0x2bc",
        "chainId": "0xaa36a7"
      },
      "additionalContracts": [],
      "isFixedGasLimit": false
    },
    {
      "hash": "0x2048cd1c504299a8bbe1bde0f9fd621e14c6bf7dd9ea3a0beed8b821a4b4866d",
      "transactionType": "CALL",
      "contractName": "TestToken",
      "contractAddress": "0x94bb1081b1d1685308a9545f6b5b9c8957dbc115",
      "function": "approve(address,uint256)",
      "arguments": [
        "0x6C6ef35366305F6B87a550a3D3195930faFFaD84",
        "115792089237316195423570985008687907853269984665640564039457584007913129639935"
      ],
      "transaction": {
        "from": "0x00000c771f6176268d5a9846e0956c3ef58597a1",
        "to": "0x94bb1081b1d1685308a9545f6b5b9c8957dbc115",
        "gas": "0xf8eb",
        "value": "0x0",
        "input": "0x095ea7b30000000000000000000000006c6ef35366305f6b87a550a3d3195930faffad84ffffffffffffffffffffffffffffffffffffffffffffffffffffffffffffffff",
        "nonce": "0x2bd",
        "chainId": "0xaa36a7"
      },
      "additionalContracts": [],
      "isFixedGasLimit": false
    },
    {
      "hash": "0xa72c619643a117d5415ca6d5db88680caca1f5ef12568f1d89e75b7984636b42",
      "transactionType": "CALL",
      "contractName": null,
      "contractAddress": "0x6c6ef35366305f6b87a550a3d3195930faffad84",
      "function": "multicall(bytes[])",
      "arguments": [
        "[0xf3e32468000000000000000000000000000000000000000000000000000000000000000000000000000000000000000094bb1081b1d1685308a9545f6b5b9c8957dbc115000000000000000000000000000000000000000000c49ba5e353f7ce0000175e000000000000000000000000000000000000000000000000000000000081f64d, 0x9df3913d7a51e27c1170840469f33e6c91b9deb5f40f34dca5533c96164332f2dc7a9873000000000000000000000000000000000000000000000000000000000000000000000000000000000000000094bb1081b1d1685308a9545f6b5b9c8957dbc115000000000000000000000000000000000000000000c49ba5e353f7ce0000175efffffffffffffffffffffffffffffffffffffffffffffffffffffffffab6413e000000000000000000000000000000000000000000000000000000000549bec2000000000000000000000000000000000000000000000000002386f26fc10000000000000000000000000000000000000000000000000002b5e3af16b18800000000000000000000000000000000000000000000000000000000000000000000, 0x41865270]"
      ],
      "transaction": {
        "from": "0x00000c771f6176268d5a9846e0956c3ef58597a1",
        "to": "0x6c6ef35366305f6b87a550a3d3195930faffad84",
        "gas": "0x69494",
        "value": "0x2386f26fc10000",
        "input": "0xac9650d8000000000000000000000000000000000000000000000000000000000000002000000000000000000000000000000000000000000000000000000000000000030000000000000000000000000000000000000000000000000000000000000060000000000000000000000000000000000000000000000000000000000000012000000000000000000000000000000000000000000000000000000000000002800000000000000000000000000000000000000000000000000000000000000084f3e32468000000000000000000000000000000000000000000000000000000000000000000000000000000000000000094bb1081b1d1685308a9545f6b5b9c8957dbc115000000000000000000000000000000000000000000c49ba5e353f7ce0000175e000000000000000000000000000000000000000000000000000000000081f64d0000000000000000000000000000000000000000000000000000000000000000000000000000000000000000000000000000000000000000000001249df3913d7a51e27c1170840469f33e6c91b9deb5f40f34dca5533c96164332f2dc7a9873000000000000000000000000000000000000000000000000000000000000000000000000000000000000000094bb1081b1d1685308a9545f6b5b9c8957dbc115000000000000000000000000000000000000000000c49ba5e353f7ce0000175efffffffffffffffffffffffffffffffffffffffffffffffffffffffffab6413e000000000000000000000000000000000000000000000000000000000549bec2000000000000000000000000000000000000000000000000002386f26fc10000000000000000000000000000000000000000000000000002b5e3af16b188000000000000000000000000000000000000000000000000000000000000000000000000000000000000000000000000000000000000000000000000000000000000000000000000000000000000000000000000000000000000000000044186527000000000000000000000000000000000000000000000000000000000",
        "nonce": "0x2be",
        "chainId": "0xaa36a7"
      },
      "additionalContracts": [],
      "isFixedGasLimit": false
    },
    {
      "hash": "0xc7ad075899809568d30a4d8cd63444a520e40220f272c8a8eccdabcf6f0be4fe",
      "transactionType": "CALL",
      "contractName": null,
      "contractAddress": "0x7a6c3024d1d51467f79e386e360fb0d64e63c841",
      "function": "swap((address,address,bytes32),bool,int128,uint96,uint256)",
      "arguments": [
        "(0x0000000000000000000000000000000000000000, 0x94bB1081B1D1685308a9545F6b5b9C8957dBC115, 0x000000000000000000000000000000000000000000c49ba5e353f7ce0000175e)",
        "false",
        "100000",
        "0",
        "0"
      ],
      "transaction": {
        "from": "0x00000c771f6176268d5a9846e0956c3ef58597a1",
        "to": "0x7a6c3024d1d51467f79e386e360fb0d64e63c841",
        "gas": "0x20dc2",
        "value": "0x186a0",
        "input": "0x06b81a15000000000000000000000000000000000000000000000000000000000000000000000000000000000000000094bb1081b1d1685308a9545f6b5b9c8957dbc115000000000000000000000000000000000000000000c49ba5e353f7ce0000175e000000000000000000000000000000000000000000000000000000000000000000000000000000000000000000000000000000000000000000000000000186a000000000000000000000000000000000000000000000000000000000000000000000000000000000000000000000000000000000000000000000000000000000",
        "nonce": "0x2bf",
        "chainId": "0xaa36a7"
      },
      "additionalContracts": [],
      "isFixedGasLimit": false
    },
    {
      "hash": "0x5092b19b36aaed2f602e803d3d76db7a1926398dfd364fba236dbffd25bcaa67",
      "transactionType": "CALL",
      "contractName": null,
      "contractAddress": "0x7a6c3024d1d51467f79e386e360fb0d64e63c841",
      "function": "swap((address,address,bytes32),bool,int128,uint96,uint256)",
      "arguments": [
        "(0x0000000000000000000000000000000000000000, 0x94bB1081B1D1685308a9545F6b5b9C8957dBC115, 0x000000000000000000000000000000000000000000c49ba5e353f7ce0000175e)",
        "true",
        "500000000",
        "0",
        "0"
      ],
      "transaction": {
        "from": "0x00000c771f6176268d5a9846e0956c3ef58597a1",
        "to": "0x7a6c3024d1d51467f79e386e360fb0d64e63c841",
        "gas": "0x2309a",
        "value": "0x0",
        "input": "0x06b81a15000000000000000000000000000000000000000000000000000000000000000000000000000000000000000094bb1081b1d1685308a9545f6b5b9c8957dbc115000000000000000000000000000000000000000000c49ba5e353f7ce0000175e0000000000000000000000000000000000000000000000000000000000000001000000000000000000000000000000000000000000000000000000001dcd650000000000000000000000000000000000000000000000000000000000000000000000000000000000000000000000000000000000000000000000000000000000",
        "nonce": "0x2c0",
        "chainId": "0xaa36a7"
      },
      "additionalContracts": [],
      "isFixedGasLimit": false
    },
    {
      "hash": "0x3c7efd41a91bae802a46acc0a71aab1e8d587e0b9ac639f6f7020210363ffe70",
      "transactionType": "CALL",
      "contractName": null,
      "contractAddress": "0x7a6c3024d1d51467f79e386e360fb0d64e63c841",
      "function": "swap((address,address,bytes32),bool,int128,uint96,uint256)",
      "arguments": [
        "(0x0000000000000000000000000000000000000000, 0x94bB1081B1D1685308a9545F6b5b9C8957dBC115, 0x000000000000000000000000000000000000000000c49ba5e353f7ce0000175e)",
        "false",
        "100000",
        "0",
        "0"
      ],
      "transaction": {
        "from": "0x00000c771f6176268d5a9846e0956c3ef58597a1",
        "to": "0x7a6c3024d1d51467f79e386e360fb0d64e63c841",
        "gas": "0x1b17e",
        "value": "0x186a0",
        "input": "0x06b81a15000000000000000000000000000000000000000000000000000000000000000000000000000000000000000094bb1081b1d1685308a9545f6b5b9c8957dbc115000000000000000000000000000000000000000000c49ba5e353f7ce0000175e000000000000000000000000000000000000000000000000000000000000000000000000000000000000000000000000000000000000000000000000000186a000000000000000000000000000000000000000000000000000000000000000000000000000000000000000000000000000000000000000000000000000000000",
        "nonce": "0x2c1",
        "chainId": "0xaa36a7"
      },
      "additionalContracts": [],
      "isFixedGasLimit": false
    },
    {
      "hash": "0x76702cc507b5c259a0377adea22fbc0b6adbd216834205f32589ab807854f2f7",
      "transactionType": "CALL",
      "contractName": null,
      "contractAddress": "0x7a6c3024d1d51467f79e386e360fb0d64e63c841",
      "function": "swap((address,address,bytes32),bool,int128,uint96,uint256)",
      "arguments": [
        "(0x0000000000000000000000000000000000000000, 0x94bB1081B1D1685308a9545F6b5b9C8957dBC115, 0x000000000000000000000000000000000000000000c49ba5e353f7ce0000175e)",
        "true",
        "500000000",
        "0",
        "0"
      ],
      "transaction": {
        "from": "0x00000c771f6176268d5a9846e0956c3ef58597a1",
        "to": "0x7a6c3024d1d51467f79e386e360fb0d64e63c841",
        "gas": "0x1efe4",
        "value": "0x0",
        "input": "0x06b81a15000000000000000000000000000000000000000000000000000000000000000000000000000000000000000094bb1081b1d1685308a9545f6b5b9c8957dbc115000000000000000000000000000000000000000000c49ba5e353f7ce0000175e0000000000000000000000000000000000000000000000000000000000000001000000000000000000000000000000000000000000000000000000001dcd650000000000000000000000000000000000000000000000000000000000000000000000000000000000000000000000000000000000000000000000000000000000",
        "nonce": "0x2c2",
        "chainId": "0xaa36a7"
      },
      "additionalContracts": [],
      "isFixedGasLimit": false
    },
    {
      "hash": "0x71417fd2537a0c8a70f69fbc1f4f5325031c98d3509a1b71a09e44e8de9fd002",
      "transactionType": "CALL",
      "contractName": null,
      "contractAddress": "0x6c6ef35366305f6b87a550a3d3195930faffad84",
      "function": "multicall(bytes[])",
      "arguments": [
        "[0xf3e32468000000000000000000000000000000000000000000000000000000000000000000000000000000000000000094bb1081b1d1685308a9545f6b5b9c8957dbc115000000000000000000000000000000000000000000c49ba5e353f7ce00000000000000000000000000000000000000000000000000000000000000000081f64d, 0x9df3913d7a51e27c1170840469f33e6c91b9deb5f40f34dca5533c96164332f2dc7a9874000000000000000000000000000000000000000000000000000000000000000000000000000000000000000094bb1081b1d1685308a9545f6b5b9c8957dbc115000000000000000000000000000000000000000000c49ba5e353f7ce00000000fffffffffffffffffffffffffffffffffffffffffffffffffffffffffab6326d000000000000000000000000000000000000000000000000000000000549cd93000000000000000000000000000000000000000000000000002386f26fc10000000000000000000000000000000000000000000000000002b5e3af16b18800000000000000000000000000000000000000000000000000000000000000000000, 0x41865270]"
      ],
      "transaction": {
        "from": "0x00000c771f6176268d5a9846e0956c3ef58597a1",
        "to": "0x6c6ef35366305f6b87a550a3d3195930faffad84",
        "gas": "0x3f729",
        "value": "0x2386f26fc10000",
        "input": "0xac9650d8000000000000000000000000000000000000000000000000000000000000002000000000000000000000000000000000000000000000000000000000000000030000000000000000000000000000000000000000000000000000000000000060000000000000000000000000000000000000000000000000000000000000012000000000000000000000000000000000000000000000000000000000000002800000000000000000000000000000000000000000000000000000000000000084f3e32468000000000000000000000000000000000000000000000000000000000000000000000000000000000000000094bb1081b1d1685308a9545f6b5b9c8957dbc115000000000000000000000000000000000000000000c49ba5e353f7ce00000000000000000000000000000000000000000000000000000000000000000081f64d0000000000000000000000000000000000000000000000000000000000000000000000000000000000000000000000000000000000000000000001249df3913d7a51e27c1170840469f33e6c91b9deb5f40f34dca5533c96164332f2dc7a9874000000000000000000000000000000000000000000000000000000000000000000000000000000000000000094bb1081b1d1685308a9545f6b5b9c8957dbc115000000000000000000000000000000000000000000c49ba5e353f7ce00000000fffffffffffffffffffffffffffffffffffffffffffffffffffffffffab6326d000000000000000000000000000000000000000000000000000000000549cd93000000000000000000000000000000000000000000000000002386f26fc10000000000000000000000000000000000000000000000000002b5e3af16b188000000000000000000000000000000000000000000000000000000000000000000000000000000000000000000000000000000000000000000000000000000000000000000000000000000000000000000000000000000000000000000044186527000000000000000000000000000000000000000000000000000000000",
        "nonce": "0x2c3",
        "chainId": "0xaa36a7"
      },
      "additionalContracts": [],
      "isFixedGasLimit": false
    },
    {
      "hash": "0x2f50332090e48516f9952f14f89e5140eac96a7f022d76222d0e7ef63d898c62",
      "transactionType": "CALL",
      "contractName": null,
      "contractAddress": "0x7a6c3024d1d51467f79e386e360fb0d64e63c841",
      "function": "swap((address,address,bytes32),bool,int128,uint96,uint256)",
      "arguments": [
        "(0x0000000000000000000000000000000000000000, 0x94bB1081B1D1685308a9545F6b5b9C8957dBC115, 0x000000000000000000000000000000000000000000c49ba5e353f7ce00000000)",
        "false",
        "100000",
        "0",
        "0"
      ],
      "transaction": {
        "from": "0x00000c771f6176268d5a9846e0956c3ef58597a1",
        "to": "0x7a6c3024d1d51467f79e386e360fb0d64e63c841",
        "gas": "0x1f891",
        "value": "0x186a0",
        "input": "0x06b81a15000000000000000000000000000000000000000000000000000000000000000000000000000000000000000094bb1081b1d1685308a9545f6b5b9c8957dbc115000000000000000000000000000000000000000000c49ba5e353f7ce00000000000000000000000000000000000000000000000000000000000000000000000000000000000000000000000000000000000000000000000000000000000186a000000000000000000000000000000000000000000000000000000000000000000000000000000000000000000000000000000000000000000000000000000000",
        "nonce": "0x2c4",
        "chainId": "0xaa36a7"
      },
      "additionalContracts": [],
      "isFixedGasLimit": false
    },
    {
      "hash": "0x7eac2e195ef53c370aa93469c9cadceb71a0ad5247e59d28e6a6ab09ae530289",
      "transactionType": "CALL",
      "contractName": null,
      "contractAddress": "0x7a6c3024d1d51467f79e386e360fb0d64e63c841",
      "function": "swap((address,address,bytes32),bool,int128,uint96,uint256)",
      "arguments": [
        "(0x0000000000000000000000000000000000000000, 0x94bB1081B1D1685308a9545F6b5b9C8957dBC115, 0x000000000000000000000000000000000000000000c49ba5e353f7ce00000000)",
        "true",
        "500000000",
        "0",
        "0"
      ],
      "transaction": {
        "from": "0x00000c771f6176268d5a9846e0956c3ef58597a1",
        "to": "0x7a6c3024d1d51467f79e386e360fb0d64e63c841",
        "gas": "0x23b64",
        "value": "0x0",
        "input": "0x06b81a15000000000000000000000000000000000000000000000000000000000000000000000000000000000000000094bb1081b1d1685308a9545f6b5b9c8957dbc115000000000000000000000000000000000000000000c49ba5e353f7ce000000000000000000000000000000000000000000000000000000000000000000000001000000000000000000000000000000000000000000000000000000001dcd650000000000000000000000000000000000000000000000000000000000000000000000000000000000000000000000000000000000000000000000000000000000",
        "nonce": "0x2c5",
        "chainId": "0xaa36a7"
      },
      "additionalContracts": [],
      "isFixedGasLimit": false
    },
    {
      "hash": "0xbbd9fd0c0a6c9c6e370494dcf01fa4bb5d5294889053f6e9cc86aaa0b13b639d",
      "transactionType": "CALL",
      "contractName": null,
      "contractAddress": "0x7a6c3024d1d51467f79e386e360fb0d64e63c841",
      "function": "swap((address,address,bytes32),bool,int128,uint96,uint256)",
      "arguments": [
        "(0x0000000000000000000000000000000000000000, 0x94bB1081B1D1685308a9545F6b5b9C8957dBC115, 0x000000000000000000000000000000000000000000c49ba5e353f7ce00000000)",
        "false",
        "100000",
        "0",
        "0"
      ],
      "transaction": {
        "from": "0x00000c771f6176268d5a9846e0956c3ef58597a1",
        "to": "0x7a6c3024d1d51467f79e386e360fb0d64e63c841",
        "gas": "0x1b48f",
        "value": "0x186a0",
        "input": "0x06b81a15000000000000000000000000000000000000000000000000000000000000000000000000000000000000000094bb1081b1d1685308a9545f6b5b9c8957dbc115000000000000000000000000000000000000000000c49ba5e353f7ce00000000000000000000000000000000000000000000000000000000000000000000000000000000000000000000000000000000000000000000000000000000000186a000000000000000000000000000000000000000000000000000000000000000000000000000000000000000000000000000000000000000000000000000000000",
        "nonce": "0x2c6",
        "chainId": "0xaa36a7"
      },
      "additionalContracts": [],
      "isFixedGasLimit": false
    },
    {
      "hash": "0x85e6d25fb2ae8569381109173b238ddac520dcabd3355a5cd504a52b5898b81e",
      "transactionType": "CALL",
      "contractName": null,
      "contractAddress": "0x7a6c3024d1d51467f79e386e360fb0d64e63c841",
      "function": "swap((address,address,bytes32),bool,int128,uint96,uint256)",
      "arguments": [
        "(0x0000000000000000000000000000000000000000, 0x94bB1081B1D1685308a9545F6b5b9C8957dBC115, 0x000000000000000000000000000000000000000000c49ba5e353f7ce00000000)",
        "true",
        "500000000",
        "0",
        "0"
      ],
      "transaction": {
        "from": "0x00000c771f6176268d5a9846e0956c3ef58597a1",
        "to": "0x7a6c3024d1d51467f79e386e360fb0d64e63c841",
        "gas": "0x1bf62",
        "value": "0x0",
        "input": "0x06b81a15000000000000000000000000000000000000000000000000000000000000000000000000000000000000000094bb1081b1d1685308a9545f6b5b9c8957dbc115000000000000000000000000000000000000000000c49ba5e353f7ce000000000000000000000000000000000000000000000000000000000000000000000001000000000000000000000000000000000000000000000000000000001dcd650000000000000000000000000000000000000000000000000000000000000000000000000000000000000000000000000000000000000000000000000000000000",
        "nonce": "0x2c7",
        "chainId": "0xaa36a7"
      },
      "additionalContracts": [],
      "isFixedGasLimit": false
    },
    {
      "hash": "0x8849647bc29576801a05ae8cc04bfa625dce7e29df7320a6c36e1f841c7d1519",
      "transactionType": "CALL",
      "contractName": null,
      "contractAddress": "0x6c6ef35366305f6b87a550a3d3195930faffad84",
      "function": "multicall(bytes[])",
      "arguments": [
        "[0xf3e32468000000000000000000000000000000000000000000000000000000000000000000000000000000000000000094bb1081b1d1685308a9545f6b5b9c8957dbc1155194b498bc476a4f4dd31fd42e5103a31699eb1000000000000000000000000000000000000000000000000000000000000000000000000000000000004644f4, 0x9df3913d7a51e27c1170840469f33e6c91b9deb5f40f34dca5533c96164332f2dc7a9875000000000000000000000000000000000000000000000000000000000000000000000000000000000000000094bb1081b1d1685308a9545f6b5b9c8957dbc1155194b498bc476a4f4dd31fd42e5103a31699eb10000000000000000000000000fffffffffffffffffffffffffffffffffffffffffffffffffffffffffab6326d000000000000000000000000000000000000000000000000000000000549cd930000000000000000000000000000000000000000000000000de0b6b3a76400000000000000000000000000000000000000000000000000056bc75e2d631000000000000000000000000000000000000000000000000000000000000000000000, 0x41865270]"
      ],
      "transaction": {
        "from": "0x00000c771f6176268d5a9846e0956c3ef58597a1",
        "to": "0x6c6ef35366305f6b87a550a3d3195930faffad84",
        "gas": "0x534c3",
        "value": "0xde0b6b3a7640000",
        "input": "0xac9650d8000000000000000000000000000000000000000000000000000000000000002000000000000000000000000000000000000000000000000000000000000000030000000000000000000000000000000000000000000000000000000000000060000000000000000000000000000000000000000000000000000000000000012000000000000000000000000000000000000000000000000000000000000002800000000000000000000000000000000000000000000000000000000000000084f3e32468000000000000000000000000000000000000000000000000000000000000000000000000000000000000000094bb1081b1d1685308a9545f6b5b9c8957dbc1155194b498bc476a4f4dd31fd42e5103a31699eb1000000000000000000000000000000000000000000000000000000000000000000000000000000000004644f40000000000000000000000000000000000000000000000000000000000000000000000000000000000000000000000000000000000000000000001249df3913d7a51e27c1170840469f33e6c91b9deb5f40f34dca5533c96164332f2dc7a9875000000000000000000000000000000000000000000000000000000000000000000000000000000000000000094bb1081b1d1685308a9545f6b5b9c8957dbc1155194b498bc476a4f4dd31fd42e5103a31699eb10000000000000000000000000fffffffffffffffffffffffffffffffffffffffffffffffffffffffffab6326d000000000000000000000000000000000000000000000000000000000549cd930000000000000000000000000000000000000000000000000de0b6b3a76400000000000000000000000000000000000000000000000000056bc75e2d6310000000000000000000000000000000000000000000000000000000000000000000000000000000000000000000000000000000000000000000000000000000000000000000000000000000000000000000000000000000000000000000044186527000000000000000000000000000000000000000000000000000000000",
        "nonce": "0x2c8",
        "chainId": "0xaa36a7"
      },
      "additionalContracts": [],
      "isFixedGasLimit": false
    },
    {
      "hash": "0x329a67b2dc71482e0f3f026d011556ece0ac05f51ada54505b3a006e211f59b3",
      "transactionType": "CALL",
      "contractName": null,
      "contractAddress": "0x7a6c3024d1d51467f79e386e360fb0d64e63c841",
      "function": "swap((address,address,bytes32),bool,int128,uint96,uint256)",
      "arguments": [
        "(0x0000000000000000000000000000000000000000, 0x94bB1081B1D1685308a9545F6b5b9C8957dBC115, 0x5194b498bc476a4f4dd31fd42e5103a31699eb10000000000000000000000000)",
        "false",
        "100000",
        "0",
        "0"
      ],
      "transaction": {
        "from": "0x00000c771f6176268d5a9846e0956c3ef58597a1",
        "to": "0x7a6c3024d1d51467f79e386e360fb0d64e63c841",
        "gas": "0x1be85",
        "value": "0x186a0",
        "input": "0x06b81a15000000000000000000000000000000000000000000000000000000000000000000000000000000000000000094bb1081b1d1685308a9545f6b5b9c8957dbc1155194b498bc476a4f4dd31fd42e5103a31699eb10000000000000000000000000000000000000000000000000000000000000000000000000000000000000000000000000000000000000000000000000000000000000000000000000000186a000000000000000000000000000000000000000000000000000000000000000000000000000000000000000000000000000000000000000000000000000000000",
        "nonce": "0x2c9",
        "chainId": "0xaa36a7"
      },
      "additionalContracts": [],
      "isFixedGasLimit": false
    },
    {
      "hash": "0xc59eff85ca245bbc29ee8f43cacd457faf526f8a029a958805881020a09f162a",
      "transactionType": "CALL",
      "contractName": null,
      "contractAddress": "0x7a6c3024d1d51467f79e386e360fb0d64e63c841",
      "function": "swap((address,address,bytes32),bool,int128,uint96,uint256)",
      "arguments": [
        "(0x0000000000000000000000000000000000000000, 0x94bB1081B1D1685308a9545F6b5b9C8957dBC115, 0x5194b498bc476a4f4dd31fd42e5103a31699eb10000000000000000000000000)",
        "true",
        "500000000",
        "0",
        "0"
      ],
      "transaction": {
        "from": "0x00000c771f6176268d5a9846e0956c3ef58597a1",
        "to": "0x7a6c3024d1d51467f79e386e360fb0d64e63c841",
        "gas": "0x1fdec",
        "value": "0x0",
        "input": "0x06b81a15000000000000000000000000000000000000000000000000000000000000000000000000000000000000000094bb1081b1d1685308a9545f6b5b9c8957dbc1155194b498bc476a4f4dd31fd42e5103a31699eb100000000000000000000000000000000000000000000000000000000000000000000000000000000000000001000000000000000000000000000000000000000000000000000000001dcd650000000000000000000000000000000000000000000000000000000000000000000000000000000000000000000000000000000000000000000000000000000000",
        "nonce": "0x2ca",
        "chainId": "0xaa36a7"
      },
      "additionalContracts": [],
      "isFixedGasLimit": false
    },
    {
      "hash": "0xff42f340dcc5b607fd30c90466ee2d42cf4537ceacbb19583164f9d276b58857",
      "transactionType": "CALL",
      "contractName": null,
      "contractAddress": "0x7a6c3024d1d51467f79e386e360fb0d64e63c841",
      "function": "swap((address,address,bytes32),bool,int128,uint96,uint256)",
      "arguments": [
        "(0x0000000000000000000000000000000000000000, 0x94bB1081B1D1685308a9545F6b5b9C8957dBC115, 0x5194b498bc476a4f4dd31fd42e5103a31699eb10000000000000000000000000)",
        "false",
        "100000",
        "0",
        "0"
      ],
      "transaction": {
        "from": "0x00000c771f6176268d5a9846e0956c3ef58597a1",
        "to": "0x7a6c3024d1d51467f79e386e360fb0d64e63c841",
        "gas": "0x1d8cf",
        "value": "0x186a0",
        "input": "0x06b81a15000000000000000000000000000000000000000000000000000000000000000000000000000000000000000094bb1081b1d1685308a9545f6b5b9c8957dbc1155194b498bc476a4f4dd31fd42e5103a31699eb10000000000000000000000000000000000000000000000000000000000000000000000000000000000000000000000000000000000000000000000000000000000000000000000000000186a000000000000000000000000000000000000000000000000000000000000000000000000000000000000000000000000000000000000000000000000000000000",
        "nonce": "0x2cb",
        "chainId": "0xaa36a7"
      },
      "additionalContracts": [],
      "isFixedGasLimit": false
    },
    {
      "hash": "0xf2e9ea45d8cf40298cbe6d982843a5e1593914e1bc5deec3e547dca69e7f32ca",
      "transactionType": "CALL",
      "contractName": null,
      "contractAddress": "0x7a6c3024d1d51467f79e386e360fb0d64e63c841",
      "function": "swap((address,address,bytes32),bool,int128,uint96,uint256)",
      "arguments": [
        "(0x0000000000000000000000000000000000000000, 0x94bB1081B1D1685308a9545F6b5b9C8957dBC115, 0x5194b498bc476a4f4dd31fd42e5103a31699eb10000000000000000000000000)",
        "true",
        "500000000",
        "0",
        "0"
      ],
      "transaction": {
        "from": "0x00000c771f6176268d5a9846e0956c3ef58597a1",
        "to": "0x7a6c3024d1d51467f79e386e360fb0d64e63c841",
        "gas": "0x1fdec",
        "value": "0x0",
        "input": "0x06b81a15000000000000000000000000000000000000000000000000000000000000000000000000000000000000000094bb1081b1d1685308a9545f6b5b9c8957dbc1155194b498bc476a4f4dd31fd42e5103a31699eb100000000000000000000000000000000000000000000000000000000000000000000000000000000000000001000000000000000000000000000000000000000000000000000000001dcd650000000000000000000000000000000000000000000000000000000000000000000000000000000000000000000000000000000000000000000000000000000000",
        "nonce": "0x2cc",
        "chainId": "0xaa36a7"
      },
      "additionalContracts": [],
      "isFixedGasLimit": false
    },
    {
      "hash": "0x4ed19de5af90494c28f09e4e3d20804da7a6d1bda2d5aa6455e58d3a81783dc7",
      "transactionType": "CALL",
      "contractName": null,
      "contractAddress": "0x6c6ef35366305f6b87a550a3d3195930faffad84",
      "function": "multicall(bytes[])",
      "arguments": [
        "[0xf3e32468000000000000000000000000000000000000000000000000000000000000000000000000000000000000000094bb1081b1d1685308a9545f6b5b9c8957dbc1150000000000000000000000000000000000000000028f5c28f5c28f5c00004d5a000000000000000000000000000000000000000000000000000000000081f64d, 0x9df3913d7a51e27c1170840469f33e6c91b9deb5f40f34dca5533c96164332f2dc7a9876000000000000000000000000000000000000000000000000000000000000000000000000000000000000000094bb1081b1d1685308a9545f6b5b9c8957dbc1150000000000000000000000000000000000000000028f5c28f5c28f5c00004d5afffffffffffffffffffffffffffffffffffffffffffffffffffffffffab65900000000000000000000000000000000000000000000000000000000000549a700000000000000000000000000000000000000000000000000006a94d74f43000000000000000000000000000000000000000000000000001043561a88293000000000000000000000000000000000000000000000000000000000000000000000, 0x41865270]"
      ],
      "transaction": {
        "from": "0x00000c771f6176268d5a9846e0956c3ef58597a1",
        "to": "0x6c6ef35366305f6b87a550a3d3195930faffad84",
        "gas": "0x5d94b",
        "value": "0x6a94d74f430000",
        "input": "0xac9650d8000000000000000000000000000000000000000000000000000000000000002000000000000000000000000000000000000000000000000000000000000000030000000000000000000000000000000000000000000000000000000000000060000000000000000000000000000000000000000000000000000000000000012000000000000000000000000000000000000000000000000000000000000002800000000000000000000000000000000000000000000000000000000000000084f3e32468000000000000000000000000000000000000000000000000000000000000000000000000000000000000000094bb1081b1d1685308a9545f6b5b9c8957dbc1150000000000000000000000000000000000000000028f5c28f5c28f5c00004d5a000000000000000000000000000000000000000000000000000000000081f64d0000000000000000000000000000000000000000000000000000000000000000000000000000000000000000000000000000000000000000000001249df3913d7a51e27c1170840469f33e6c91b9deb5f40f34dca5533c96164332f2dc7a9876000000000000000000000000000000000000000000000000000000000000000000000000000000000000000094bb1081b1d1685308a9545f6b5b9c8957dbc1150000000000000000000000000000000000000000028f5c28f5c28f5c00004d5afffffffffffffffffffffffffffffffffffffffffffffffffffffffffab65900000000000000000000000000000000000000000000000000000000000549a700000000000000000000000000000000000000000000000000006a94d74f43000000000000000000000000000000000000000000000000001043561a882930000000000000000000000000000000000000000000000000000000000000000000000000000000000000000000000000000000000000000000000000000000000000000000000000000000000000000000000000000000000000000000044186527000000000000000000000000000000000000000000000000000000000",
        "nonce": "0x2cd",
        "chainId": "0xaa36a7"
      },
      "additionalContracts": [],
      "isFixedGasLimit": false
    }
  ],
  "receipts": [
    {
      "status": "0x1",
      "cumulativeGasUsed": "0xb9f552",
      "logs": [
        {
          "address": "0x94bb1081b1d1685308a9545f6b5b9c8957dbc115",
          "topics": [
            "0xddf252ad1be2c89b69c2b068fc378daa952ba7f163c4a11628f55a4df523b3ef",
            "0x0000000000000000000000000000000000000000000000000000000000000000",
            "0x00000000000000000000000000000c771f6176268d5a9846e0956c3ef58597a1"
          ],
          "data": "0xffffffffffffffffffffffffffffffffffffffffffffffffffffffffffffffff",
          "blockHash": "0xb43b425278384fb79dc254b2f51c6d9d6bef2fe177f587ac59d474981186c738",
          "blockNumber": "0x757f29",
          "transactionHash": "0x2d076636f1a22de362338bddb7b80f4fb61f14812ac8955d165fb8092b6c58a5",
          "transactionIndex": "0x7f",
          "logIndex": "0x90",
          "removed": false
        }
      ],
      "logsBloom": "0x00000000000000000000000000000000000004000000000000000000000000200000000000000000000000000000000000000000000000000000000000000040000000000000000000000008000000000000000000000000000000000000000000000000020000000000000000000800000000000000000000000010000000000000000000000000000000000000000000000004000100000000000000000000000000000000000000000000000000000000080000000000000000000000000000000002000000000000000000000000000000000000000000000000000020000000000000000000000000000000000000000000000000000000000000000000",
      "type": "0x2",
      "transactionHash": "0x2d076636f1a22de362338bddb7b80f4fb61f14812ac8955d165fb8092b6c58a5",
      "transactionIndex": "0x7f",
      "blockHash": "0xb43b425278384fb79dc254b2f51c6d9d6bef2fe177f587ac59d474981186c738",
      "blockNumber": "0x757f29",
      "gasUsed": "0x90ed7",
      "effectiveGasPrice": "0x811b2d40",
      "from": "0x00000c771f6176268d5a9846e0956c3ef58597a1",
      "to": null,
      "contractAddress": "0x94bb1081b1d1685308a9545f6b5b9c8957dbc115"
    },
    {
      "status": "0x1",
      "cumulativeGasUsed": "0x124d9ba",
      "logs": [
        {
          "address": "0x94bb1081b1d1685308a9545f6b5b9c8957dbc115",
          "topics": [
            "0x8c5be1e5ebec7d5bd14f71427d1e84f3dd0314c0f7b2291e5b200ac8c7c3b925",
            "0x00000000000000000000000000000c771f6176268d5a9846e0956c3ef58597a1",
            "0x0000000000000000000000007a6c3024d1d51467f79e386e360fb0d64e63c841"
          ],
          "data": "0xffffffffffffffffffffffffffffffffffffffffffffffffffffffffffffffff",
          "blockHash": "0xda35f8f08e3af9e754344c65cb513bd1903c01ab58f662fc41d12c6466967da8",
          "blockNumber": "0x757f2a",
          "transactionHash": "0x3191813aca8cf2b73ed8025ac450493197bc7cf527a0dfe882ba570a19e013c3",
          "transactionIndex": "0x8d",
          "logIndex": "0xf2",
          "removed": false
        }
      ],
      "logsBloom": "0x00000000000000000020000000000000000004000000000000000000000000200000000000000000000000000000000000000000000000000000000000200040000000000000000000000000000000000000000000000000000000000000000000000000000000000000000000000000000000000000000000000000000000000000000000000000000000000000000000000004000100000000000000000000020000000000000000000000000000000000090000000000000000000000000000000000000000000000000000000000000000000000000000000000000100000010000000000000000000000000000000000000000000000000000000000000",
      "type": "0x2",
      "transactionHash": "0x3191813aca8cf2b73ed8025ac450493197bc7cf527a0dfe882ba570a19e013c3",
      "transactionIndex": "0x8d",
      "blockHash": "0xda35f8f08e3af9e754344c65cb513bd1903c01ab58f662fc41d12c6466967da8",
      "blockNumber": "0x757f2a",
      "gasUsed": "0xb437",
      "effectiveGasPrice": "0x7beea3b7",
      "from": "0x00000c771f6176268d5a9846e0956c3ef58597a1",
      "to": "0x94bb1081b1d1685308a9545f6b5b9c8957dbc115",
      "contractAddress": null
    },
    {
      "status": "0x1",
      "cumulativeGasUsed": "0x12a14b8",
      "logs": [
        {
          "address": "0x94bb1081b1d1685308a9545f6b5b9c8957dbc115",
          "topics": [
            "0x8c5be1e5ebec7d5bd14f71427d1e84f3dd0314c0f7b2291e5b200ac8c7c3b925",
            "0x00000000000000000000000000000c771f6176268d5a9846e0956c3ef58597a1",
            "0x0000000000000000000000006c6ef35366305f6b87a550a3d3195930faffad84"
          ],
          "data": "0xffffffffffffffffffffffffffffffffffffffffffffffffffffffffffffffff",
          "blockHash": "0x8d34b3692db0a15451c1cd7c73bb1f75ec81d37587678106f7c3d51f919e3e30",
          "blockNumber": "0x757f2c",
          "transactionHash": "0x2048cd1c504299a8bbe1bde0f9fd621e14c6bf7dd9ea3a0beed8b821a4b4866d",
          "transactionIndex": "0x9e",
          "logIndex": "0x136",
          "removed": false
        }
      ],
      "logsBloom": "0x00000000000000000000000000000000000004000000000000000000000000200000000000000000000000000000000000000000000000000000000000200040000000000000000000000000000000000000000000000000000000000000000000000000000000000000000000000000000000000000000000000000000000000000000000000000000000000000000000000004000100000000000000000000020000000000000000000000010000000000080000000000000000000000000000000000000000000000000000000000000000000000000000000000000000000010010000000000000000000000000000000000000000000000000000000004",
      "type": "0x2",
      "transactionHash": "0x2048cd1c504299a8bbe1bde0f9fd621e14c6bf7dd9ea3a0beed8b821a4b4866d",
      "transactionIndex": "0x9e",
      "blockHash": "0x8d34b3692db0a15451c1cd7c73bb1f75ec81d37587678106f7c3d51f919e3e30",
      "blockNumber": "0x757f2c",
      "gasUsed": "0xb437",
      "effectiveGasPrice": "0x7868d105",
      "from": "0x00000c771f6176268d5a9846e0956c3ef58597a1",
      "to": "0x94bb1081b1d1685308a9545f6b5b9c8957dbc115",
      "contractAddress": null
    },
    {
      "status": "0x1",
      "cumulativeGasUsed": "0xdb8a1b",
      "logs": [
        {
          "address": "0x33b80e6f4365aadd0950ef1f2785c89bd6c2ac51",
          "topics": [
            "0x5e4688b340694b7c7fd30047fd082117dc46e32acfbf81a44bb1fac0ae65154d"
          ],
          "data": "0x3a45a9d23fad56b5e9408983f7cd76afd11764c14df946ca221944ddce70edc0000000000000000000000000000000000000000000000000000000000000000000000000000000000000000094bb1081b1d1685308a9545f6b5b9c8957dbc115000000000000000000000000000000000000000000c49ba5e353f7ce0000175e000000000000000000000000000000000000000000000000000000000081f64d000000000000000000000000000000000000000080000011ad7b7d57d2db6557",
          "blockHash": "0xffa0dded8e0efcdfa5651597b9ecfbd2bb4368e903ff4a939992820dab626777",
          "blockNumber": "0x757f2e",
          "transactionHash": "0xa72c619643a117d5415ca6d5db88680caca1f5ef12568f1d89e75b7984636b42",
          "transactionIndex": "0x8a",
          "logIndex": "0xd9",
          "removed": false
        },
        {
          "address": "0x6c6ef35366305f6b87a550a3d3195930faffad84",
          "topics": [
            "0xddf252ad1be2c89b69c2b068fc378daa952ba7f163c4a11628f55a4df523b3ef",
            "0x0000000000000000000000000000000000000000000000000000000000000000",
            "0x00000000000000000000000000000c771f6176268d5a9846e0956c3ef58597a1",
            "0x00000000000000000000000000000000000000000000000000008e281300d35f"
          ],
          "data": "0x",
          "blockHash": "0xffa0dded8e0efcdfa5651597b9ecfbd2bb4368e903ff4a939992820dab626777",
          "blockNumber": "0x757f2e",
          "transactionHash": "0xa72c619643a117d5415ca6d5db88680caca1f5ef12568f1d89e75b7984636b42",
          "transactionIndex": "0x8a",
          "logIndex": "0xda",
          "removed": false
        },
        {
          "address": "0x33b80e6f4365aadd0950ef1f2785c89bd6c2ac51",
          "topics": [
            "0xa2d4008be4187c63684f323788e131e1370dbc2205499befe2834005a00c792c"
          ],
          "data": "0x0000000000000000000000006c6ef35366305f6b87a550a3d3195930faffad843a45a9d23fad56b5e9408983f7cd76afd11764c14df946ca221944ddce70edc000000000000000000000000000000000000000000000000000008e281300d35ffffffffffffffffffffffffffffffffffffffffffffffffffffffffffab6413e000000000000000000000000000000000000000000000000000000000549bec200000000000000000000000000000000000000000000000009d025b9f39a7b59000000000000000000000000000000000000000000000000002386f26fc10000000000000000000000000000000000000000000000000002b5e39a9fdddd9e1c",
          "blockHash": "0xffa0dded8e0efcdfa5651597b9ecfbd2bb4368e903ff4a939992820dab626777",
          "blockNumber": "0x757f2e",
          "transactionHash": "0xa72c619643a117d5415ca6d5db88680caca1f5ef12568f1d89e75b7984636b42",
          "transactionIndex": "0x8a",
          "logIndex": "0xdb",
          "removed": false
        },
        {
          "address": "0x94bb1081b1d1685308a9545f6b5b9c8957dbc115",
          "topics": [
            "0xddf252ad1be2c89b69c2b068fc378daa952ba7f163c4a11628f55a4df523b3ef",
            "0x00000000000000000000000000000c771f6176268d5a9846e0956c3ef58597a1",
            "0x00000000000000000000000033b80e6f4365aadd0950ef1f2785c89bd6c2ac51"
          ],
          "data": "0x000000000000000000000000000000000000000000000002b5e39a9fdddd9e1c",
          "blockHash": "0xffa0dded8e0efcdfa5651597b9ecfbd2bb4368e903ff4a939992820dab626777",
          "blockNumber": "0x757f2e",
          "transactionHash": "0xa72c619643a117d5415ca6d5db88680caca1f5ef12568f1d89e75b7984636b42",
          "transactionIndex": "0x8a",
          "logIndex": "0xdc",
          "removed": false
        }
      ],
      "logsBloom": "0x00000000000100000000000000000000000004000100000000000000000000200000200000000080000000000000000000000000000000000000000000000040000000000000000000000008000000000000000000000000000000000000000020000000020000000000000000400800000000000000000000000010000000000000000001000000800000000008000000000004000100000000200000000200080000000040000000000000000000000000080000020000000000000400000000000002000000000000000000000000000000000000000000000000002020000000000000000000000004000000000000008000000000000000000000000000",
      "type": "0x2",
      "transactionHash": "0xa72c619643a117d5415ca6d5db88680caca1f5ef12568f1d89e75b7984636b42",
      "transactionIndex": "0x8a",
      "blockHash": "0xffa0dded8e0efcdfa5651597b9ecfbd2bb4368e903ff4a939992820dab626777",
      "blockNumber": "0x757f2e",
      "gasUsed": "0x4c39c",
      "effectiveGasPrice": "0x7a2e5352",
      "from": "0x00000c771f6176268d5a9846e0956c3ef58597a1",
      "to": "0x6c6ef35366305f6b87a550a3d3195930faffad84",
      "contractAddress": null
    },
    {
      "status": "0x1",
      "cumulativeGasUsed": "0x1590206",
      "logs": [
        {
          "address": "0x33b80e6f4365aadd0950ef1f2785c89bd6c2ac51",
          "topics": [],
          "data": "0x7a6c3024d1d51467f79e386e360fb0d64e63c8413a45a9d23fad56b5e9408983f7cd76afd11764c14df946ca221944ddce70edc0000000000000000000000000000186a0ffffffffffffffffffffffffe2497ffa000000000000000009d025b9f39a7b5980000011ad7b7d5711127bde0081f64c",
          "blockHash": "0xb7093ae23c5f078b9cb4dfebca8c0b43f64781a4548aceec2ec5c89e00bc5656",
          "blockNumber": "0x757f30",
          "transactionHash": "0xc7ad075899809568d30a4d8cd63444a520e40220f272c8a8eccdabcf6f0be4fe",
          "transactionIndex": "0xd9",
          "logIndex": "0x161",
          "removed": false
        },
        {
          "address": "0x94bb1081b1d1685308a9545f6b5b9c8957dbc115",
          "topics": [
            "0xddf252ad1be2c89b69c2b068fc378daa952ba7f163c4a11628f55a4df523b3ef",
            "0x00000000000000000000000033b80e6f4365aadd0950ef1f2785c89bd6c2ac51",
            "0x00000000000000000000000000000c771f6176268d5a9846e0956c3ef58597a1"
          ],
          "data": "0x000000000000000000000000000000000000000000000000000000001db68006",
          "blockHash": "0xb7093ae23c5f078b9cb4dfebca8c0b43f64781a4548aceec2ec5c89e00bc5656",
          "blockNumber": "0x757f30",
          "transactionHash": "0xc7ad075899809568d30a4d8cd63444a520e40220f272c8a8eccdabcf6f0be4fe",
          "transactionIndex": "0xd9",
          "logIndex": "0x162",
          "removed": false
        }
      ],
      "logsBloom": "0x00000000000000000000000000000000000004000000000000000000000000200000200000000000000000000000000000000000000000000000000000000040000000000000000000000008000000000000000000000000000000000000000000000000000000000000000000000000000000000000000000000010000000000000000001000000000000000000000000000004000100000000200000000000000000000040000000000000000000000000080000000000000000000000000000000002000000000000000000000000000000000000000000000000002000000000000000000000000004000000000000000000000000000000000000000000",
      "type": "0x2",
      "transactionHash": "0xc7ad075899809568d30a4d8cd63444a520e40220f272c8a8eccdabcf6f0be4fe",
      "transactionIndex": "0xd9",
      "blockHash": "0xb7093ae23c5f078b9cb4dfebca8c0b43f64781a4548aceec2ec5c89e00bc5656",
      "blockNumber": "0x757f30",
      "gasUsed": "0x17ca4",
      "effectiveGasPrice": "0x7366a592",
      "from": "0x00000c771f6176268d5a9846e0956c3ef58597a1",
      "to": "0x7a6c3024d1d51467f79e386e360fb0d64e63c841",
      "contractAddress": null
    },
    {
      "status": "0x1",
      "cumulativeGasUsed": "0xb73cc2",
      "logs": [
        {
          "address": "0x33b80e6f4365aadd0950ef1f2785c89bd6c2ac51",
          "topics": [],
          "data": "0x7a6c3024d1d51467f79e386e360fb0d64e63c8413a45a9d23fad56b5e9408983f7cd76afd11764c14df946ca221944ddce70edc0fffffffffffffffffffffffffffe7a8c0000000000000000000000001dcd6500000000000000000009d025b9f39a7b5980000011ad7b7d57d2db6fc20081f64d",
          "blockHash": "0x415dac19b91396218a53c19d2ad1840cb7854fcf4233fa609283076e5a18ae3b",
          "blockNumber": "0x757f31",
          "transactionHash": "0x5092b19b36aaed2f602e803d3d76db7a1926398dfd364fba236dbffd25bcaa67",
          "transactionIndex": "0x73",
          "logIndex": "0xc0",
          "removed": false
        },
        {
          "address": "0x94bb1081b1d1685308a9545f6b5b9c8957dbc115",
          "topics": [
            "0xddf252ad1be2c89b69c2b068fc378daa952ba7f163c4a11628f55a4df523b3ef",
            "0x00000000000000000000000000000c771f6176268d5a9846e0956c3ef58597a1",
            "0x00000000000000000000000033b80e6f4365aadd0950ef1f2785c89bd6c2ac51"
          ],
          "data": "0x000000000000000000000000000000000000000000000000000000001dcd6500",
          "blockHash": "0x415dac19b91396218a53c19d2ad1840cb7854fcf4233fa609283076e5a18ae3b",
          "blockNumber": "0x757f31",
          "transactionHash": "0x5092b19b36aaed2f602e803d3d76db7a1926398dfd364fba236dbffd25bcaa67",
          "transactionIndex": "0x73",
          "logIndex": "0xc1",
          "removed": false
        }
      ],
      "logsBloom": "0x00000000000000000000000000000000000004000000000000000000000000200000200000000000000000000000000000000000000000000000000000000040000000000000000000000008000000000000000000000000000000000000000000000000000000000000000000000000000000000000000000000010000000000000000001000000000000000000000000000004000100000000200000000000000000000040000000000000000000000000080000000000000000000000000000000002000000000000000000000000000000000000000000000000002000000000000000000000000004000000000000000000000000000000000000000000",
      "type": "0x2",
      "transactionHash": "0x5092b19b36aaed2f602e803d3d76db7a1926398dfd364fba236dbffd25bcaa67",
      "transactionIndex": "0x73",
      "blockHash": "0x415dac19b91396218a53c19d2ad1840cb7854fcf4233fa609283076e5a18ae3b",
      "blockNumber": "0x757f31",
      "gasUsed": "0x195df",
      "effectiveGasPrice": "0x7ed55883",
      "from": "0x00000c771f6176268d5a9846e0956c3ef58597a1",
      "to": "0x7a6c3024d1d51467f79e386e360fb0d64e63c841",
      "contractAddress": null
    },
    {
      "status": "0x1",
      "cumulativeGasUsed": "0xd71ba6",
      "logs": [
        {
          "address": "0x33b80e6f4365aadd0950ef1f2785c89bd6c2ac51",
          "topics": [],
          "data": "0x7a6c3024d1d51467f79e386e360fb0d64e63c8413a45a9d23fad56b5e9408983f7cd76afd11764c14df946ca221944ddce70edc0000000000000000000000000000186a0ffffffffffffffffffffffffe24991e8000000000000000009d025b9f39a7b5980000011ad7b7d571112fb3f0081f64c",
          "blockHash": "0x481e72ebbebf52d6042ff66cd46a0f38e458f86002c34e73f6b09e1d10c16f14",
          "blockNumber": "0x757f32",
          "transactionHash": "0x3c7efd41a91bae802a46acc0a71aab1e8d587e0b9ac639f6f7020210363ffe70",
          "transactionIndex": "0x7d",
          "logIndex": "0xf9",
          "removed": false
        },
        {
          "address": "0x94bb1081b1d1685308a9545f6b5b9c8957dbc115",
          "topics": [
            "0xddf252ad1be2c89b69c2b068fc378daa952ba7f163c4a11628f55a4df523b3ef",
            "0x00000000000000000000000033b80e6f4365aadd0950ef1f2785c89bd6c2ac51",
            "0x00000000000000000000000000000c771f6176268d5a9846e0956c3ef58597a1"
          ],
          "data": "0x000000000000000000000000000000000000000000000000000000001db66e18",
          "blockHash": "0x481e72ebbebf52d6042ff66cd46a0f38e458f86002c34e73f6b09e1d10c16f14",
          "blockNumber": "0x757f32",
          "transactionHash": "0x3c7efd41a91bae802a46acc0a71aab1e8d587e0b9ac639f6f7020210363ffe70",
          "transactionIndex": "0x7d",
          "logIndex": "0xfa",
          "removed": false
        }
      ],
      "logsBloom": "0x00000000000000000000000000000000000004000000000000000000000000200000200000000000000000000000000000000000000000000000000000000040000000000000000000000008000000000000000000000000000000000000000000000000000000000000000000000000000000000000000000000010000000000000000001000000000000000000000000000004000100000000200000000000000000000040000000000000000000000000080000000000000000000000000000000002000000000000000000000000000000000000000000000000002000000000000000000000000004000000000000000000000000000000000000000000",
      "type": "0x2",
      "transactionHash": "0x3c7efd41a91bae802a46acc0a71aab1e8d587e0b9ac639f6f7020210363ffe70",
      "transactionIndex": "0x7d",
      "blockHash": "0x481e72ebbebf52d6042ff66cd46a0f38e458f86002c34e73f6b09e1d10c16f14",
      "blockNumber": "0x757f32",
      "gasUsed": "0x139d8",
      "effectiveGasPrice": "0x7dc3ba69",
      "from": "0x00000c771f6176268d5a9846e0956c3ef58597a1",
      "to": "0x7a6c3024d1d51467f79e386e360fb0d64e63c841",
      "contractAddress": null
    },
    {
      "status": "0x1",
      "cumulativeGasUsed": "0x8197ed",
      "logs": [
        {
          "address": "0x33b80e6f4365aadd0950ef1f2785c89bd6c2ac51",
          "topics": [],
          "data": "0x7a6c3024d1d51467f79e386e360fb0d64e63c8413a45a9d23fad56b5e9408983f7cd76afd11764c14df946ca221944ddce70edc0fffffffffffffffffffffffffffe7a8c0000000000000000000000001dcd6500000000000000000009d025b9f39a7b5980000011ad7b7d57d2dbef230081f64d",
          "blockHash": "0xd87ba6b52bebc33b9d679d4194e2c167cda9dfed476a918307357c90a8133483",
          "blockNumber": "0x757f33",
          "transactionHash": "0x76702cc507b5c259a0377adea22fbc0b6adbd216834205f32589ab807854f2f7",
          "transactionIndex": "0x63",
          "logIndex": "0x7b",
          "removed": false
        },
        {
          "address": "0x94bb1081b1d1685308a9545f6b5b9c8957dbc115",
          "topics": [
            "0xddf252ad1be2c89b69c2b068fc378daa952ba7f163c4a11628f55a4df523b3ef",
            "0x00000000000000000000000000000c771f6176268d5a9846e0956c3ef58597a1",
            "0x00000000000000000000000033b80e6f4365aadd0950ef1f2785c89bd6c2ac51"
          ],
          "data": "0x000000000000000000000000000000000000000000000000000000001dcd6500",
          "blockHash": "0xd87ba6b52bebc33b9d679d4194e2c167cda9dfed476a918307357c90a8133483",
          "blockNumber": "0x757f33",
          "transactionHash": "0x76702cc507b5c259a0377adea22fbc0b6adbd216834205f32589ab807854f2f7",
          "transactionIndex": "0x63",
          "logIndex": "0x7c",
          "removed": false
        }
      ],
      "logsBloom": "0x00000000000000000000000000000000000004000000000000000000000000200000200000000000000000000000000000000000000000000000000000000040000000000000000000000008000000000000000000000000000000000000000000000000000000000000000000000000000000000000000000000010000000000000000001000000000000000000000000000004000100000000200000000000000000000040000000000000000000000000080000000000000000000000000000000002000000000000000000000000000000000000000000000000002000000000000000000000000004000000000000000000000000000000000000000000",
      "type": "0x2",
      "transactionHash": "0x76702cc507b5c259a0377adea22fbc0b6adbd216834205f32589ab807854f2f7",
      "transactionIndex": "0x63",
      "blockHash": "0xd87ba6b52bebc33b9d679d4194e2c167cda9dfed476a918307357c90a8133483",
      "blockNumber": "0x757f33",
      "gasUsed": "0x15313",
      "effectiveGasPrice": "0x8155b5b2",
      "from": "0x00000c771f6176268d5a9846e0956c3ef58597a1",
      "to": "0x7a6c3024d1d51467f79e386e360fb0d64e63c841",
      "contractAddress": null
    },
    {
      "status": "0x1",
      "cumulativeGasUsed": "0x100a8e9",
      "logs": [
        {
          "address": "0x33b80e6f4365aadd0950ef1f2785c89bd6c2ac51",
          "topics": [
            "0x5e4688b340694b7c7fd30047fd082117dc46e32acfbf81a44bb1fac0ae65154d"
          ],
          "data": "0x71735c5c3ae705e7f029b71abb40182fbf42e749361c174484495d15880f079e000000000000000000000000000000000000000000000000000000000000000000000000000000000000000094bb1081b1d1685308a9545f6b5b9c8957dbc115000000000000000000000000000000000000000000c49ba5e353f7ce00000000000000000000000000000000000000000000000000000000000000000081f64d000000000000000000000000000000000000000080000011ad7b7d57d2db6557",
          "blockHash": "0x6c0c8daa587a64822c44a456c7f854b9dec87c15cb72a91696aa911fb1065e4b",
          "blockNumber": "0x757f34",
          "transactionHash": "0x71417fd2537a0c8a70f69fbc1f4f5325031c98d3509a1b71a09e44e8de9fd002",
          "transactionIndex": "0x96",
          "logIndex": "0xf4",
          "removed": false
        },
        {
          "address": "0x6c6ef35366305f6b87a550a3d3195930faffad84",
          "topics": [
            "0xddf252ad1be2c89b69c2b068fc378daa952ba7f163c4a11628f55a4df523b3ef",
            "0x0000000000000000000000000000000000000000000000000000000000000000",
            "0x00000000000000000000000000000c771f6176268d5a9846e0956c3ef58597a1",
            "0x0000000000000000000000000000000000000000000000000000b1880081da3e"
          ],
          "data": "0x",
          "blockHash": "0x6c0c8daa587a64822c44a456c7f854b9dec87c15cb72a91696aa911fb1065e4b",
          "blockNumber": "0x757f34",
          "transactionHash": "0x71417fd2537a0c8a70f69fbc1f4f5325031c98d3509a1b71a09e44e8de9fd002",
          "transactionIndex": "0x96",
          "logIndex": "0xf5",
          "removed": false
        },
        {
          "address": "0x33b80e6f4365aadd0950ef1f2785c89bd6c2ac51",
          "topics": [
            "0xa2d4008be4187c63684f323788e131e1370dbc2205499befe2834005a00c792c"
          ],
          "data": "0x0000000000000000000000006c6ef35366305f6b87a550a3d3195930faffad8471735c5c3ae705e7f029b71abb40182fbf42e749361c174484495d15880f079e0000000000000000000000000000000000000000000000000000b1880081da3efffffffffffffffffffffffffffffffffffffffffffffffffffffffffab6326d000000000000000000000000000000000000000000000000000000000549cd9300000000000000000000000000000000000000000000000009d025b9f39a7b59000000000000000000000000000000000000000000000000002386f26fc10000000000000000000000000000000000000000000000000002b5e39a9fdddd9e1c",
          "blockHash": "0x6c0c8daa587a64822c44a456c7f854b9dec87c15cb72a91696aa911fb1065e4b",
          "blockNumber": "0x757f34",
          "transactionHash": "0x71417fd2537a0c8a70f69fbc1f4f5325031c98d3509a1b71a09e44e8de9fd002",
          "transactionIndex": "0x96",
          "logIndex": "0xf6",
          "removed": false
        },
        {
          "address": "0x94bb1081b1d1685308a9545f6b5b9c8957dbc115",
          "topics": [
            "0xddf252ad1be2c89b69c2b068fc378daa952ba7f163c4a11628f55a4df523b3ef",
            "0x00000000000000000000000000000c771f6176268d5a9846e0956c3ef58597a1",
            "0x00000000000000000000000033b80e6f4365aadd0950ef1f2785c89bd6c2ac51"
          ],
          "data": "0x000000000000000000000000000000000000000000000002b5e39a9fdddd9e1c",
          "blockHash": "0x6c0c8daa587a64822c44a456c7f854b9dec87c15cb72a91696aa911fb1065e4b",
          "blockNumber": "0x757f34",
          "transactionHash": "0x71417fd2537a0c8a70f69fbc1f4f5325031c98d3509a1b71a09e44e8de9fd002",
          "transactionIndex": "0x96",
          "logIndex": "0xf7",
          "removed": false
        }
      ],
      "logsBloom": "0x00000000000100000000000000000000000004000100000000000000000000200000200000000000000000000000000000000000000000000000000000000040000000000000000000000008000000000000000000000000000000000000000020000000020000000000000000000800000000000000000000000010000000000000000001000000800000000008000000000004000100000000200000000200000000000040000000000000000000000000080100020000000000000400000000000002000000000000000000000000000000000000000000000000002020000000010000000000000004000000000000008000010000000000000000000000",
      "type": "0x2",
      "transactionHash": "0x71417fd2537a0c8a70f69fbc1f4f5325031c98d3509a1b71a09e44e8de9fd002",
      "transactionIndex": "0x96",
      "blockHash": "0x6c0c8daa587a64822c44a456c7f854b9dec87c15cb72a91696aa911fb1065e4b",
      "blockNumber": "0x757f34",
      "gasUsed": "0x2b621",
      "effectiveGasPrice": "0x7ce9638f",
      "from": "0x00000c771f6176268d5a9846e0956c3ef58597a1",
      "to": "0x6c6ef35366305f6b87a550a3d3195930faffad84",
      "contractAddress": null
    },
    {
      "status": "0x1",
      "cumulativeGasUsed": "0x11a04b1",
      "logs": [
        {
          "address": "0x33b80e6f4365aadd0950ef1f2785c89bd6c2ac51",
          "topics": [],
          "data": "0x7a6c3024d1d51467f79e386e360fb0d64e63c84171735c5c3ae705e7f029b71abb40182fbf42e749361c174484495d15880f079e000000000000000000000000000186a0ffffffffffffffffffffffffe2497ffa000000000000000009d025b9f39a7b5980000011ad7b7d5711127bde0081f64c",
          "blockHash": "0xb8bd869f8bfb4a1687db0b634ea72f4604581f1db7220deb6275d154022b98ac",
          "blockNumber": "0x757f35",
          "transactionHash": "0x2f50332090e48516f9952f14f89e5140eac96a7f022d76222d0e7ef63d898c62",
          "transactionIndex": "0x81",
          "logIndex": "0xf4",
          "removed": false
        },
        {
          "address": "0x94bb1081b1d1685308a9545f6b5b9c8957dbc115",
          "topics": [
            "0xddf252ad1be2c89b69c2b068fc378daa952ba7f163c4a11628f55a4df523b3ef",
            "0x00000000000000000000000033b80e6f4365aadd0950ef1f2785c89bd6c2ac51",
            "0x00000000000000000000000000000c771f6176268d5a9846e0956c3ef58597a1"
          ],
          "data": "0x000000000000000000000000000000000000000000000000000000001db68006",
          "blockHash": "0xb8bd869f8bfb4a1687db0b634ea72f4604581f1db7220deb6275d154022b98ac",
          "blockNumber": "0x757f35",
          "transactionHash": "0x2f50332090e48516f9952f14f89e5140eac96a7f022d76222d0e7ef63d898c62",
          "transactionIndex": "0x81",
          "logIndex": "0xf5",
          "removed": false
        }
      ],
      "logsBloom": "0x00000000000000000000000000000000000004000000000000000000000000200000200000000000000000000000000000000000000000000000000000000040000000000000000000000008000000000000000000000000000000000000000000000000000000000000000000000000000000000000000000000010000000000000000001000000000000000000000000000004000100000000200000000000000000000040000000000000000000000000080000000000000000000000000000000002000000000000000000000000000000000000000000000000002000000000000000000000000004000000000000000000000000000000000000000000",
      "type": "0x2",
      "transactionHash": "0x2f50332090e48516f9952f14f89e5140eac96a7f022d76222d0e7ef63d898c62",
      "transactionIndex": "0x81",
      "blockHash": "0xb8bd869f8bfb4a1687db0b634ea72f4604581f1db7220deb6275d154022b98ac",
      "blockNumber": "0x757f35",
      "gasUsed": "0x16d4d",
      "effectiveGasPrice": "0x7d2ed3c5",
      "from": "0x00000c771f6176268d5a9846e0956c3ef58597a1",
      "to": "0x7a6c3024d1d51467f79e386e360fb0d64e63c841",
      "contractAddress": null
    },
    {
      "status": "0x1",
      "cumulativeGasUsed": "0x914caf",
      "logs": [
        {
          "address": "0x33b80e6f4365aadd0950ef1f2785c89bd6c2ac51",
          "topics": [],
          "data": "0x7a6c3024d1d51467f79e386e360fb0d64e63c84171735c5c3ae705e7f029b71abb40182fbf42e749361c174484495d15880f079efffffffffffffffffffffffffffe7a8c0000000000000000000000001dcd6500000000000000000009d025b9f39a7b5980000011ad7b7d57d2db6fc20081f64d",
          "blockHash": "0xb2a98c767a1ecaa3c5ec6420f6f41f11dcda8a61a68f71792aaef70bb5d91226",
          "blockNumber": "0x757f36",
          "transactionHash": "0x7eac2e195ef53c370aa93469c9cadceb71a0ad5247e59d28e6a6ab09ae530289",
          "transactionIndex": "0x74",
          "logIndex": "0x82",
          "removed": false
        },
        {
          "address": "0x94bb1081b1d1685308a9545f6b5b9c8957dbc115",
          "topics": [
            "0xddf252ad1be2c89b69c2b068fc378daa952ba7f163c4a11628f55a4df523b3ef",
            "0x00000000000000000000000000000c771f6176268d5a9846e0956c3ef58597a1",
            "0x00000000000000000000000033b80e6f4365aadd0950ef1f2785c89bd6c2ac51"
          ],
          "data": "0x000000000000000000000000000000000000000000000000000000001dcd6500",
          "blockHash": "0xb2a98c767a1ecaa3c5ec6420f6f41f11dcda8a61a68f71792aaef70bb5d91226",
          "blockNumber": "0x757f36",
          "transactionHash": "0x7eac2e195ef53c370aa93469c9cadceb71a0ad5247e59d28e6a6ab09ae530289",
          "transactionIndex": "0x74",
          "logIndex": "0x83",
          "removed": false
        }
      ],
      "logsBloom": "0x00000000000000000000000000000000000004000000000000000000000000200000200000000000000000000000000000000000000000000000000000000040000000000000000000000008000000000000000000000000000000000000000000000000000000000000000000000000000000000000000000000010000000000000000001000000000000000000000000000004000100000000200000000000000000000040000000000000000000000000080000000000000000000000000000000002000000000000000000000000000000000000000000000000002000000000000000000000000004000000000000000000000000000000000000000000",
      "type": "0x2",
      "transactionHash": "0x7eac2e195ef53c370aa93469c9cadceb71a0ad5247e59d28e6a6ab09ae530289",
      "transactionIndex": "0x74",
      "blockHash": "0xb2a98c767a1ecaa3c5ec6420f6f41f11dcda8a61a68f71792aaef70bb5d91226",
      "blockNumber": "0x757f36",
      "gasUsed": "0x186b2",
      "effectiveGasPrice": "0x8100c114",
      "from": "0x00000c771f6176268d5a9846e0956c3ef58597a1",
      "to": "0x7a6c3024d1d51467f79e386e360fb0d64e63c841",
      "contractAddress": null
    },
    {
      "status": "0x1",
      "cumulativeGasUsed": "0x8bb763",
      "logs": [
        {
          "address": "0x33b80e6f4365aadd0950ef1f2785c89bd6c2ac51",
          "topics": [],
          "data": "0x7a6c3024d1d51467f79e386e360fb0d64e63c84171735c5c3ae705e7f029b71abb40182fbf42e749361c174484495d15880f079e000000000000000000000000000186a0ffffffffffffffffffffffffe24991e8000000000000000009d025b9f39a7b5980000011ad7b7d571112fb3f0081f64c",
          "blockHash": "0x12ff3ef99d384e6bd4ed185acbdb7890d8d93cd9fd8a54d7797a9ccc3e3a7c00",
          "blockNumber": "0x757f37",
          "transactionHash": "0xbbd9fd0c0a6c9c6e370494dcf01fa4bb5d5294889053f6e9cc86aaa0b13b639d",
          "transactionIndex": "0x7c",
          "logIndex": "0x9f",
          "removed": false
        },
        {
          "address": "0x94bb1081b1d1685308a9545f6b5b9c8957dbc115",
          "topics": [
            "0xddf252ad1be2c89b69c2b068fc378daa952ba7f163c4a11628f55a4df523b3ef",
            "0x00000000000000000000000033b80e6f4365aadd0950ef1f2785c89bd6c2ac51",
            "0x00000000000000000000000000000c771f6176268d5a9846e0956c3ef58597a1"
          ],
          "data": "0x000000000000000000000000000000000000000000000000000000001db66e18",
          "blockHash": "0x12ff3ef99d384e6bd4ed185acbdb7890d8d93cd9fd8a54d7797a9ccc3e3a7c00",
          "blockNumber": "0x757f37",
          "transactionHash": "0xbbd9fd0c0a6c9c6e370494dcf01fa4bb5d5294889053f6e9cc86aaa0b13b639d",
          "transactionIndex": "0x7c",
          "logIndex": "0xa0",
          "removed": false
        }
      ],
      "logsBloom": "0x00000000000000000000000000000000000004000000000000000000000000200000200000000000000000000000000000000000000000000000000000000040000000000000000000000008000000000000000000000000000000000000000000000000000000000000000000000000000000000000000000000010000000000000000001000000000000000000000000000004000100000000200000000000000000000040000000000000000000000000080000000000000000000000000000000002000000000000000000000000000000000000000000000000002000000000000000000000000004000000000000000000000000000000000000000000",
      "type": "0x2",
      "transactionHash": "0xbbd9fd0c0a6c9c6e370494dcf01fa4bb5d5294889053f6e9cc86aaa0b13b639d",
      "transactionIndex": "0x7c",
      "blockHash": "0x12ff3ef99d384e6bd4ed185acbdb7890d8d93cd9fd8a54d7797a9ccc3e3a7c00",
      "blockNumber": "0x757f37",
      "gasUsed": "0x12a81",
      "effectiveGasPrice": "0x7d72e17c",
      "from": "0x00000c771f6176268d5a9846e0956c3ef58597a1",
      "to": "0x7a6c3024d1d51467f79e386e360fb0d64e63c841",
      "contractAddress": null
    },
    {
      "status": "0x1",
      "cumulativeGasUsed": "0xc30169",
      "logs": [
        {
          "address": "0x33b80e6f4365aadd0950ef1f2785c89bd6c2ac51",
          "topics": [],
          "data": "0x7a6c3024d1d51467f79e386e360fb0d64e63c84171735c5c3ae705e7f029b71abb40182fbf42e749361c174484495d15880f079efffffffffffffffffffffffffffe7a8c0000000000000000000000001dcd6500000000000000000009d025b9f39a7b5980000011ad7b7d57d2dbef230081f64d",
          "blockHash": "0xbd95109597ee5b49fac93efc29a7236ac2aaa93dd51af3a073721083830a5bc4",
          "blockNumber": "0x757f38",
          "transactionHash": "0x85e6d25fb2ae8569381109173b238ddac520dcabd3355a5cd504a52b5898b81e",
          "transactionIndex": "0x7c",
          "logIndex": "0xdd",
          "removed": false
        },
        {
          "address": "0x94bb1081b1d1685308a9545f6b5b9c8957dbc115",
          "topics": [
            "0xddf252ad1be2c89b69c2b068fc378daa952ba7f163c4a11628f55a4df523b3ef",
            "0x00000000000000000000000000000c771f6176268d5a9846e0956c3ef58597a1",
            "0x00000000000000000000000033b80e6f4365aadd0950ef1f2785c89bd6c2ac51"
          ],
          "data": "0x000000000000000000000000000000000000000000000000000000001dcd6500",
          "blockHash": "0xbd95109597ee5b49fac93efc29a7236ac2aaa93dd51af3a073721083830a5bc4",
          "blockNumber": "0x757f38",
          "transactionHash": "0x85e6d25fb2ae8569381109173b238ddac520dcabd3355a5cd504a52b5898b81e",
          "transactionIndex": "0x7c",
          "logIndex": "0xde",
          "removed": false
        }
      ],
      "logsBloom": "0x00000000000000000000000000000000000004000000000000000000000000200000200000000000000000000000000000000000000000000000000000000040000000000000000000000008000000000000000000000000000000000000000000000000000000000000000000000000000000000000000000000010000000000000000001000000000000000000000000000004000100000000200000000000000000000040000000000000000000000000080000000000000000000000000000000002000000000000000000000000000000000000000000000000002000000000000000000000000004000000000000000000000000000000000000000000",
      "type": "0x2",
      "transactionHash": "0x85e6d25fb2ae8569381109173b238ddac520dcabd3355a5cd504a52b5898b81e",
      "transactionIndex": "0x7c",
      "blockHash": "0xbd95109597ee5b49fac93efc29a7236ac2aaa93dd51af3a073721083830a5bc4",
      "blockNumber": "0x757f38",
      "gasUsed": "0x143e6",
      "effectiveGasPrice": "0x7b9379e3",
      "from": "0x00000c771f6176268d5a9846e0956c3ef58597a1",
      "to": "0x7a6c3024d1d51467f79e386e360fb0d64e63c841",
      "contractAddress": null
    },
    {
      "status": "0x1",
      "cumulativeGasUsed": "0xe5cc8a",
      "logs": [
        {
          "address": "0x5194b498bc476a4f4dd31fd42e5103a31699eb10",
          "topics": [],
          "data": "0x94bb1081b1d1685308a9545f6b5b9c8957dbc1150000000067ae23cc00000000000000000000000000000000000000000000000000000000",
          "blockHash": "0xfa29983d40d589f0c228b4bfbf80d4a319bbb7607b6c7c810d58b6a7b85844e0",
          "blockNumber": "0x757f39",
          "transactionHash": "0x8849647bc29576801a05ae8cc04bfa625dce7e29df7320a6c36e1f841c7d1519",
          "transactionIndex": "0x8e",
          "logIndex": "0xe3",
          "removed": false
        },
        {
          "address": "0x33b80e6f4365aadd0950ef1f2785c89bd6c2ac51",
          "topics": [
            "0x5e4688b340694b7c7fd30047fd082117dc46e32acfbf81a44bb1fac0ae65154d"
          ],
          "data": "0x657c3180f1402432edfd36a5aae7c9caa236672271df72cb0013f4a250e7080d000000000000000000000000000000000000000000000000000000000000000000000000000000000000000094bb1081b1d1685308a9545f6b5b9c8957dbc1155194b498bc476a4f4dd31fd42e5103a31699eb1000000000000000000000000000000000000000000000000000000000000000000000000000000000004644f40000000000000000000000000000000000000000800000027ffff5c0ff12dc20",
          "blockHash": "0xfa29983d40d589f0c228b4bfbf80d4a319bbb7607b6c7c810d58b6a7b85844e0",
          "blockNumber": "0x757f39",
          "transactionHash": "0x8849647bc29576801a05ae8cc04bfa625dce7e29df7320a6c36e1f841c7d1519",
          "transactionIndex": "0x8e",
          "logIndex": "0xe4",
          "removed": false
        },
        {
          "address": "0x6c6ef35366305f6b87a550a3d3195930faffad84",
          "topics": [
            "0xddf252ad1be2c89b69c2b068fc378daa952ba7f163c4a11628f55a4df523b3ef",
            "0x0000000000000000000000000000000000000000000000000000000000000000",
            "0x00000000000000000000000000000c771f6176268d5a9846e0956c3ef58597a1",
            "0x0000000000000000000000000000000000000000000000000000a4edcbb2c3fc"
          ],
          "data": "0x",
          "blockHash": "0xfa29983d40d589f0c228b4bfbf80d4a319bbb7607b6c7c810d58b6a7b85844e0",
          "blockNumber": "0x757f39",
          "transactionHash": "0x8849647bc29576801a05ae8cc04bfa625dce7e29df7320a6c36e1f841c7d1519",
          "transactionIndex": "0x8e",
          "logIndex": "0xe5",
          "removed": false
        },
        {
          "address": "0x33b80e6f4365aadd0950ef1f2785c89bd6c2ac51",
          "topics": [
            "0xa2d4008be4187c63684f323788e131e1370dbc2205499befe2834005a00c792c"
          ],
          "data": "0x0000000000000000000000006c6ef35366305f6b87a550a3d3195930faffad84657c3180f1402432edfd36a5aae7c9caa236672271df72cb0013f4a250e7080d0000000000000000000000000000000000000000000000000000a4edcbb2c3fcfffffffffffffffffffffffffffffffffffffffffffffffffffffffffab6326d000000000000000000000000000000000000000000000000000000000549cd930000000000000000000000000000000000000000000000008ac720cbc3f4a9180000000000000000000000000000000000000000000000000de0b6b3a76400000000000000000000000000000000000000000000000000056bc731bdec68448d",
          "blockHash": "0xfa29983d40d589f0c228b4bfbf80d4a319bbb7607b6c7c810d58b6a7b85844e0",
          "blockNumber": "0x757f39",
          "transactionHash": "0x8849647bc29576801a05ae8cc04bfa625dce7e29df7320a6c36e1f841c7d1519",
          "transactionIndex": "0x8e",
          "logIndex": "0xe6",
          "removed": false
        },
        {
          "address": "0x94bb1081b1d1685308a9545f6b5b9c8957dbc115",
          "topics": [
            "0xddf252ad1be2c89b69c2b068fc378daa952ba7f163c4a11628f55a4df523b3ef",
            "0x00000000000000000000000000000c771f6176268d5a9846e0956c3ef58597a1",
            "0x00000000000000000000000033b80e6f4365aadd0950ef1f2785c89bd6c2ac51"
          ],
          "data": "0x0000000000000000000000000000000000000000000000056bc731bdec68448d",
          "blockHash": "0xfa29983d40d589f0c228b4bfbf80d4a319bbb7607b6c7c810d58b6a7b85844e0",
          "blockNumber": "0x757f39",
          "transactionHash": "0x8849647bc29576801a05ae8cc04bfa625dce7e29df7320a6c36e1f841c7d1519",
          "transactionIndex": "0x8e",
          "logIndex": "0xe7",
          "removed": false
        }
      ],
      "logsBloom": "0x00000000000100000000000000000000000004000100000000000000000000200000200000000000000000020000000000000000000000000000000000000040000000000000000000000008040048000000000000000000000000000000000020000000020000000000000000000800000000000000000000000010000000000000000001000000800000000008000000000004000100000000200000000200000000000040000000000000000000000000080002020000000000000400000000000002000000000000000000000000000000000000000000100000002020000000000000000000000004000000000000008000000000000000000000000000",
      "type": "0x2",
      "transactionHash": "0x8849647bc29576801a05ae8cc04bfa625dce7e29df7320a6c36e1f841c7d1519",
      "transactionIndex": "0x8e",
      "blockHash": "0xfa29983d40d589f0c228b4bfbf80d4a319bbb7607b6c7c810d58b6a7b85844e0",
      "blockNumber": "0x757f39",
      "gasUsed": "0x38f4b",
      "effectiveGasPrice": "0x7bf19567",
      "from": "0x00000c771f6176268d5a9846e0956c3ef58597a1",
      "to": "0x6c6ef35366305f6b87a550a3d3195930faffad84",
      "contractAddress": null
    },
    {
      "status": "0x1",
      "cumulativeGasUsed": "0x9daf36",
      "logs": [
        {
          "address": "0x5194b498bc476a4f4dd31fd42e5103a31699eb10",
          "topics": [],
          "data": "0x94bb1081b1d1685308a9545f6b5b9c8957dbc1150000000067ae23d800000000000000000000001622d7568257f4a59400000000034b3b70",
          "blockHash": "0xffd00021f803eba04ca28258bd404d30780227ac104bd978b5ac318d38013fae",
          "blockNumber": "0x757f3a",
          "transactionHash": "0x329a67b2dc71482e0f3f026d011556ece0ac05f51ada54505b3a006e211f59b3",
          "transactionIndex": "0x75",
          "logIndex": "0x98",
          "removed": false
        },
        {
          "address": "0x33b80e6f4365aadd0950ef1f2785c89bd6c2ac51",
          "topics": [],
          "data": "0x7a6c3024d1d51467f79e386e360fb0d64e63c841657c3180f1402432edfd36a5aae7c9caa236672271df72cb0013f4a250e7080d000000000000000000000000000186a0ffffffffffffffffffffffffff6769b300000000000000008ac720cbc3f4a918800000027ffff5c0fecc7dd0004644f3",
          "blockHash": "0xffd00021f803eba04ca28258bd404d30780227ac104bd978b5ac318d38013fae",
          "blockNumber": "0x757f3a",
          "transactionHash": "0x329a67b2dc71482e0f3f026d011556ece0ac05f51ada54505b3a006e211f59b3",
          "transactionIndex": "0x75",
          "logIndex": "0x99",
          "removed": false
        },
        {
          "address": "0x94bb1081b1d1685308a9545f6b5b9c8957dbc115",
          "topics": [
            "0xddf252ad1be2c89b69c2b068fc378daa952ba7f163c4a11628f55a4df523b3ef",
            "0x00000000000000000000000033b80e6f4365aadd0950ef1f2785c89bd6c2ac51",
            "0x00000000000000000000000000000c771f6176268d5a9846e0956c3ef58597a1"
          ],
          "data": "0x000000000000000000000000000000000000000000000000000000000098964d",
          "blockHash": "0xffd00021f803eba04ca28258bd404d30780227ac104bd978b5ac318d38013fae",
          "blockNumber": "0x757f3a",
          "transactionHash": "0x329a67b2dc71482e0f3f026d011556ece0ac05f51ada54505b3a006e211f59b3",
          "transactionIndex": "0x75",
          "logIndex": "0x9a",
          "removed": false
        }
      ],
      "logsBloom": "0x00000000000000000000000000000000000004000000000000000000000000200000200000000000000000000000000000000000000000000000000000000040000000000000000000000008040048000000000000000000000000000000000000000000000000000000000000000000000000000000000000000010000000000000000001000000000000000000000000000004000100000000200000000000000000000040000000000000000000000000080000000000000000000000000000000002000000000000000000000000000000000000000000000000002000000000000000000000000004000000000000000000000000000000000000000000",
      "type": "0x2",
      "transactionHash": "0x329a67b2dc71482e0f3f026d011556ece0ac05f51ada54505b3a006e211f59b3",
      "transactionIndex": "0x75",
      "blockHash": "0xffd00021f803eba04ca28258bd404d30780227ac104bd978b5ac318d38013fae",
      "blockNumber": "0x757f3a",
      "gasUsed": "0x15a65",
      "effectiveGasPrice": "0x7a816d87",
      "from": "0x00000c771f6176268d5a9846e0956c3ef58597a1",
      "to": "0x7a6c3024d1d51467f79e386e360fb0d64e63c841",
      "contractAddress": null
    },
    {
      "status": "0x1",
      "cumulativeGasUsed": "0xdc9091",
      "logs": [
        {
          "address": "0x5194b498bc476a4f4dd31fd42e5103a31699eb10",
          "topics": [],
          "data": "0x94bb1081b1d1685308a9545f6b5b9c8957dbc1150000000067ae23f00000000000000000000000426886038707ddf0bc0000000009e1b238",
          "blockHash": "0xa6e442d453315e0037d5227317c53a7d12bbc1da072c8a2fab9c90f88461399d",
          "blockNumber": "0x757f3c",
          "transactionHash": "0xc59eff85ca245bbc29ee8f43cacd457faf526f8a029a958805881020a09f162a",
          "transactionIndex": "0x90",
          "logIndex": "0xf9",
          "removed": false
        },
        {
          "address": "0x33b80e6f4365aadd0950ef1f2785c89bd6c2ac51",
          "topics": [],
          "data": "0x7a6c3024d1d51467f79e386e360fb0d64e63c841657c3180f1402432edfd36a5aae7c9caa236672271df72cb0013f4a250e7080dffffffffffffffffffffffffffb3b4be0000000000000000000000001dcd650000000000000000008ac720cbc3f4a918800000027ffff5c10c8aedf5004644f4",
          "blockHash": "0xa6e442d453315e0037d5227317c53a7d12bbc1da072c8a2fab9c90f88461399d",
          "blockNumber": "0x757f3c",
          "transactionHash": "0xc59eff85ca245bbc29ee8f43cacd457faf526f8a029a958805881020a09f162a",
          "transactionIndex": "0x90",
          "logIndex": "0xfa",
          "removed": false
        },
        {
          "address": "0x94bb1081b1d1685308a9545f6b5b9c8957dbc115",
          "topics": [
            "0xddf252ad1be2c89b69c2b068fc378daa952ba7f163c4a11628f55a4df523b3ef",
            "0x00000000000000000000000000000c771f6176268d5a9846e0956c3ef58597a1",
            "0x00000000000000000000000033b80e6f4365aadd0950ef1f2785c89bd6c2ac51"
          ],
          "data": "0x000000000000000000000000000000000000000000000000000000001dcd6500",
          "blockHash": "0xa6e442d453315e0037d5227317c53a7d12bbc1da072c8a2fab9c90f88461399d",
          "blockNumber": "0x757f3c",
          "transactionHash": "0xc59eff85ca245bbc29ee8f43cacd457faf526f8a029a958805881020a09f162a",
          "transactionIndex": "0x90",
          "logIndex": "0xfb",
          "removed": false
        }
      ],
      "logsBloom": "0x00000000000000000000000000000000000004000000000000000000000000200000200000000000000000000000000000000000000000000000000000000040000000000000000000000008040048000000000000000000000000000000000000000000000000000000000000000000000000000000000000000010000000000000000001000000000000000000000000000004000100000000200000000000000000000040000000000000000000000000080000000000000000000000000000000002000000000000000000000000000000000000000000000000002000000000000000000000000004000000000000000000000000000000000000000000",
      "type": "0x2",
      "transactionHash": "0xc59eff85ca245bbc29ee8f43cacd457faf526f8a029a958805881020a09f162a",
      "transactionIndex": "0x90",
      "blockHash": "0xa6e442d453315e0037d5227317c53a7d12bbc1da072c8a2fab9c90f88461399d",
      "blockNumber": "0x757f3c",
      "gasUsed": "0x173ca",
      "effectiveGasPrice": "0x74f7140c",
      "from": "0x00000c771f6176268d5a9846e0956c3ef58597a1",
      "to": "0x7a6c3024d1d51467f79e386e360fb0d64e63c841",
      "contractAddress": null
    },
    {
      "status": "0x1",
      "cumulativeGasUsed": "0xc00013",
      "logs": [
        {
          "address": "0x5194b498bc476a4f4dd31fd42e5103a31699eb10",
          "topics": [],
          "data": "0x94bb1081b1d1685308a9545f6b5b9c8957dbc1150000000067ae23fc0000000000000000000000588b5d5a095fd29650000000000d2ceda8",
          "blockHash": "0x4ada9a65d5caffc329f8dfcd448da4eeef86b316cefb14daf73fbb77fb96853a",
          "blockNumber": "0x757f3d",
          "transactionHash": "0xff42f340dcc5b607fd30c90466ee2d42cf4537ceacbb19583164f9d276b58857",
          "transactionIndex": "0x7a",
          "logIndex": "0xaf",
          "removed": false
        },
        {
          "address": "0x33b80e6f4365aadd0950ef1f2785c89bd6c2ac51",
          "topics": [],
          "data": "0x7a6c3024d1d51467f79e386e360fb0d64e63c841657c3180f1402432edfd36a5aae7c9caa236672271df72cb0013f4a250e7080d000000000000000000000000000186a0ffffffffffffffffffffffffff6769be00000000000000008ac720cbc3f4a918800000027ffff5c10c448faa004644f4",
          "blockHash": "0x4ada9a65d5caffc329f8dfcd448da4eeef86b316cefb14daf73fbb77fb96853a",
          "blockNumber": "0x757f3d",
          "transactionHash": "0xff42f340dcc5b607fd30c90466ee2d42cf4537ceacbb19583164f9d276b58857",
          "transactionIndex": "0x7a",
          "logIndex": "0xb0",
          "removed": false
        },
        {
          "address": "0x94bb1081b1d1685308a9545f6b5b9c8957dbc115",
          "topics": [
            "0xddf252ad1be2c89b69c2b068fc378daa952ba7f163c4a11628f55a4df523b3ef",
            "0x00000000000000000000000033b80e6f4365aadd0950ef1f2785c89bd6c2ac51",
            "0x00000000000000000000000000000c771f6176268d5a9846e0956c3ef58597a1"
          ],
          "data": "0x0000000000000000000000000000000000000000000000000000000000989642",
          "blockHash": "0x4ada9a65d5caffc329f8dfcd448da4eeef86b316cefb14daf73fbb77fb96853a",
          "blockNumber": "0x757f3d",
          "transactionHash": "0xff42f340dcc5b607fd30c90466ee2d42cf4537ceacbb19583164f9d276b58857",
          "transactionIndex": "0x7a",
          "logIndex": "0xb1",
          "removed": false
        }
      ],
      "logsBloom": "0x00000000000000000000000000000000000004000000000000000000000000200000200000000000000000000000000000000000000000000000000000000040000000000000000000000008040048000000000000000000000000000000000000000000000000000000000000000000000000000000000000000010000000000000000001000000000000000000000000000004000100000000200000000000000000000040000000000000000000000000080000000000000000000000000000000002000000000000000000000000000000000000000000000000002000000000000000000000000004000000000000000000000000000000000000000000",
      "type": "0x2",
      "transactionHash": "0xff42f340dcc5b607fd30c90466ee2d42cf4537ceacbb19583164f9d276b58857",
      "transactionIndex": "0x7a",
      "blockHash": "0x4ada9a65d5caffc329f8dfcd448da4eeef86b316cefb14daf73fbb77fb96853a",
      "blockNumber": "0x757f3d",
      "gasUsed": "0x15a69",
      "effectiveGasPrice": "0x7b788b37",
      "from": "0x00000c771f6176268d5a9846e0956c3ef58597a1",
      "to": "0x7a6c3024d1d51467f79e386e360fb0d64e63c841",
      "contractAddress": null
    },
    {
      "status": "0x1",
      "cumulativeGasUsed": "0x9a658b",
      "logs": [
        {
          "address": "0x5194b498bc476a4f4dd31fd42e5103a31699eb10",
          "topics": [],
          "data": "0x94bb1081b1d1685308a9545f6b5b9c8957dbc1150000000067ae240800000000000000000000006eae34b08bb7c73be40000000010782918",
          "blockHash": "0x6fd7eb70e4e3dcdb30944eb8cca2d2d60908b90538d5fd30e51040e4d4daac67",
          "blockNumber": "0x757f3e",
          "transactionHash": "0xf2e9ea45d8cf40298cbe6d982843a5e1593914e1bc5deec3e547dca69e7f32ca",
          "transactionIndex": "0x5f",
          "logIndex": "0xb8",
          "removed": false
        },
        {
          "address": "0x33b80e6f4365aadd0950ef1f2785c89bd6c2ac51",
          "topics": [],
          "data": "0x7a6c3024d1d51467f79e386e360fb0d64e63c841657c3180f1402432edfd36a5aae7c9caa236672271df72cb0013f4a250e7080dffffffffffffffffffffffffffb3b4be0000000000000000000000001dcd650000000000000000008ac720cbc3f4a918800000027ffff5c11a02ffcf004644f4",
          "blockHash": "0x6fd7eb70e4e3dcdb30944eb8cca2d2d60908b90538d5fd30e51040e4d4daac67",
          "blockNumber": "0x757f3e",
          "transactionHash": "0xf2e9ea45d8cf40298cbe6d982843a5e1593914e1bc5deec3e547dca69e7f32ca",
          "transactionIndex": "0x5f",
          "logIndex": "0xb9",
          "removed": false
        },
        {
          "address": "0x94bb1081b1d1685308a9545f6b5b9c8957dbc115",
          "topics": [
            "0xddf252ad1be2c89b69c2b068fc378daa952ba7f163c4a11628f55a4df523b3ef",
            "0x00000000000000000000000000000c771f6176268d5a9846e0956c3ef58597a1",
            "0x00000000000000000000000033b80e6f4365aadd0950ef1f2785c89bd6c2ac51"
          ],
          "data": "0x000000000000000000000000000000000000000000000000000000001dcd6500",
          "blockHash": "0x6fd7eb70e4e3dcdb30944eb8cca2d2d60908b90538d5fd30e51040e4d4daac67",
          "blockNumber": "0x757f3e",
          "transactionHash": "0xf2e9ea45d8cf40298cbe6d982843a5e1593914e1bc5deec3e547dca69e7f32ca",
          "transactionIndex": "0x5f",
          "logIndex": "0xba",
          "removed": false
        }
      ],
      "logsBloom": "0x00000000000000000000000000000000000004000000000000000000000000200000200000000000000000000000000000000000000000000000000000000040000000000000000000000008040048000000000000000000000000000000000000000000000000000000000000000000000000000000000000000010000000000000000001000000000000000000000000000004000100000000200000000000000000000040000000000000000000000000080000000000000000000000000000000002000000000000000000000000000000000000000000000000002000000000000000000000000004000000000000000000000000000000000000000000",
      "type": "0x2",
      "transactionHash": "0xf2e9ea45d8cf40298cbe6d982843a5e1593914e1bc5deec3e547dca69e7f32ca",
      "transactionIndex": "0x5f",
      "blockHash": "0x6fd7eb70e4e3dcdb30944eb8cca2d2d60908b90538d5fd30e51040e4d4daac67",
      "blockNumber": "0x757f3e",
      "gasUsed": "0x173ca",
      "effectiveGasPrice": "0x7d52f06e",
      "from": "0x00000c771f6176268d5a9846e0956c3ef58597a1",
      "to": "0x7a6c3024d1d51467f79e386e360fb0d64e63c841",
      "contractAddress": null
    },
    {
      "status": "0x1",
      "cumulativeGasUsed": "0xb85c3b",
      "logs": [
        {
          "address": "0x33b80e6f4365aadd0950ef1f2785c89bd6c2ac51",
          "topics": [
            "0x5e4688b340694b7c7fd30047fd082117dc46e32acfbf81a44bb1fac0ae65154d"
          ],
          "data": "0x5b0de2f61bde3f2626b42d40d2de6d57aad5c25c394f0037a1fa5e15f9115141000000000000000000000000000000000000000000000000000000000000000000000000000000000000000094bb1081b1d1685308a9545f6b5b9c8957dbc1150000000000000000000000000000000000000000028f5c28f5c28f5c00004d5a000000000000000000000000000000000000000000000000000000000081f64d000000000000000000000000000000000000000080000011ad7b7d57d2db6557",
          "blockHash": "0xfaef68b21b9f1282c35685b2ab4e5c013a71cfc609eae66ce05b7e9b8a64ab54",
          "blockNumber": "0x757f3f",
          "transactionHash": "0x4ed19de5af90494c28f09e4e3d20804da7a6d1bda2d5aa6455e58d3a81783dc7",
          "transactionIndex": "0x71",
          "logIndex": "0xb8",
          "removed": false
        },
        {
          "address": "0x6c6ef35366305f6b87a550a3d3195930faffad84",
          "topics": [
            "0xddf252ad1be2c89b69c2b068fc378daa952ba7f163c4a11628f55a4df523b3ef",
            "0x0000000000000000000000000000000000000000000000000000000000000000",
            "0x00000000000000000000000000000c771f6176268d5a9846e0956c3ef58597a1",
            "0x0000000000000000000000000000000000000000000000000000c334c88fa2a0"
          ],
          "data": "0x",
          "blockHash": "0xfaef68b21b9f1282c35685b2ab4e5c013a71cfc609eae66ce05b7e9b8a64ab54",
          "blockNumber": "0x757f3f",
          "transactionHash": "0x4ed19de5af90494c28f09e4e3d20804da7a6d1bda2d5aa6455e58d3a81783dc7",
          "transactionIndex": "0x71",
          "logIndex": "0xb9",
          "removed": false
        },
        {
          "address": "0x33b80e6f4365aadd0950ef1f2785c89bd6c2ac51",
          "topics": [
            "0xa2d4008be4187c63684f323788e131e1370dbc2205499befe2834005a00c792c"
          ],
          "data": "0x0000000000000000000000006c6ef35366305f6b87a550a3d3195930faffad845b0de2f61bde3f2626b42d40d2de6d57aad5c25c394f0037a1fa5e15f91151410000000000000000000000000000000000000000000000000000c334c88fa2a0fffffffffffffffffffffffffffffffffffffffffffffffffffffffffab65900000000000000000000000000000000000000000000000000000000000549a7000000000000000000000000000000000000000000000000001d70712ddacf720b000000000000000000000000000000000000000000000000006a94d74f43000000000000000000000000000000000000000000000000000821aacfdf9998da53",
          "blockHash": "0xfaef68b21b9f1282c35685b2ab4e5c013a71cfc609eae66ce05b7e9b8a64ab54",
          "blockNumber": "0x757f3f",
          "transactionHash": "0x4ed19de5af90494c28f09e4e3d20804da7a6d1bda2d5aa6455e58d3a81783dc7",
          "transactionIndex": "0x71",
          "logIndex": "0xba",
          "removed": false
        },
        {
          "address": "0x94bb1081b1d1685308a9545f6b5b9c8957dbc115",
          "topics": [
            "0xddf252ad1be2c89b69c2b068fc378daa952ba7f163c4a11628f55a4df523b3ef",
            "0x00000000000000000000000000000c771f6176268d5a9846e0956c3ef58597a1",
            "0x00000000000000000000000033b80e6f4365aadd0950ef1f2785c89bd6c2ac51"
          ],
          "data": "0x00000000000000000000000000000000000000000000000821aacfdf9998da53",
          "blockHash": "0xfaef68b21b9f1282c35685b2ab4e5c013a71cfc609eae66ce05b7e9b8a64ab54",
          "blockNumber": "0x757f3f",
          "transactionHash": "0x4ed19de5af90494c28f09e4e3d20804da7a6d1bda2d5aa6455e58d3a81783dc7",
          "transactionIndex": "0x71",
          "logIndex": "0xbb",
          "removed": false
        }
      ],
      "logsBloom": "0x00000000000100000000000000000000000004000100000000000000000000200000200000000000000000000000000000000000200000000000000000000040000000000000000000000008000000000000000000000000000000000000000020000000020000000000000000000800000000000000000000000010000000000000000001000000800000000008004000000004000100000000200000000200000000000040000000000000000000000000080000020000000000000c00000000000002000000000000000000000000000000000000000000000000002020000000000000000000000004000000000000008000000000000000000000000000",
      "type": "0x2",
      "transactionHash": "0x4ed19de5af90494c28f09e4e3d20804da7a6d1bda2d5aa6455e58d3a81783dc7",
      "transactionIndex": "0x71",
      "blockHash": "0xfaef68b21b9f1282c35685b2ab4e5c013a71cfc609eae66ce05b7e9b8a64ab54",
      "blockNumber": "0x757f3f",
      "gasUsed": "0x43c04",
      "effectiveGasPrice": "0x78b97317",
      "from": "0x00000c771f6176268d5a9846e0956c3ef58597a1",
      "to": "0x6c6ef35366305f6b87a550a3d3195930faffad84",
      "contractAddress": null
    }
  ],
  "libraries": [],
  "pending": [],
  "returns": {},
  "timestamp": 1739465749,
  "chain": 11155111,
  "commit": "a789f3b"
}