{
  "transactions": [
    {
      "hash": "0x81c4b2b627d7fbedf255b226717935cee000cea1c040eb6187b8f6e0351b60df",
      "transactionType": "CREATE",
      "contractName": "TestToken",
      "contractAddress": "0xab8da9a292466b49520aa96b5166e9221d73c82a",
      "function": null,
      "arguments": [
        "0x00000C771F6176268D5A9846E0956C3eF58597A1"
      ],
      "transaction": {
        "from": "0x00000c771f6176268d5a9846e0956c3ef58597a1",
        "gas": "0xbc67d",
        "value": "0x0",
        "input": "0x60803460ce57601f6109cc38819003918201601f19168301916001600160401b0383118484101760d25780849260209460405283398101031260ce57516001600160a01b038116810360ce576805345cdf77eb68f44c545f19810190811060c1576805345cdf77eb68f44c556387a211a2600c525f526020600c205f1981540190555f19602052600c5160601c5f7fddf252ad1be2c89b69c2b068fc378daa952ba7f163c4a11628f55a4df523b3ef602080a36040516108e590816100e78239f35b63e5cfe9575f526004601cfd5b5f80fd5b634e487b7160e01b5f52604160045260245ffdfe60806040526004361015610011575f80fd5b5f3560e01c806306fdde03146107cc578063095ea7b31461074357806318160ddd1461070057806323b872dd146105fb578063313ce567146105c25780633644e515146104f857806370a08231146104a85780637ecebe001461045857806395d89b41146103a1578063a9059cbb146102f4578063d505accf146100fd5763dd62ed3e1461009d575f80fd5b346100f95760407ffffffffffffffffffffffffffffffffffffffffffffffffffffffffffffffffc3601126100f9576100d461087b565b6100dc61089e565b602052637f5e9f20600c525f5260206034600c2054604051908152f35b5f80fd5b346100f95760e07ffffffffffffffffffffffffffffffffffffffffffffffffffffffffffffffffc3601126100f95761013461087b565b61013c61089e565b6084359160643560443560ff851685036100f9576101586108c1565b60208101907f54657374546f6b656e00000000000000000000000000000000000000000000008252519020908242116102e75773ffffffffffffffffffffffffffffffffffffffff80604051951695169565383775081901600e52855f5260c06020600c20958654957f8b73c3c69bb8fe3d512ecc4cf759cc79239f7b179b0ffacaa9a75d522b39400f8252602082019586528660408301967fc89efdaa54c0f20c7adf612882df0950f5a951637e0307cdcb4c672f298b8bc688528b6060850198468a528c608087019330855260a08820602e527f6e71edae12b1b97f4d1f60370fef10105fa2faae0126114a169c64845d6126c9885252528688525260a082015220604e526042602c205f5260ff1660205260a43560405260c43560605260208060805f60015afa93853d51036102da577f8c5be1e5ebec7d5bd14f71427d1e84f3dd0314c0f7b2291e5b200ac8c7c3b9259460209401905585777f5e9f200000000000000000000000000000000000000000176040526034602c2055a3005b63ddafbaef5f526004601cfd5b631a15a3cc5f526004601cfd5b346100f95760407ffffffffffffffffffffffffffffffffffffffffffffffffffffffffffffffffc3601126100f95761032b61087b565b602435906387a211a2600c52335f526020600c2080548084116103945783900390555f526020600c20818154019055602052600c5160601c337fddf252ad1be2c89b69c2b068fc378daa952ba7f163c4a11628f55a4df523b3ef602080a3602060405160018152f35b63f4d678b85f526004601cfd5b346100f9575f7ffffffffffffffffffffffffffffffffffffffffffffffffffffffffffffffffc3601126100f957604051604081019080821067ffffffffffffffff83111761042b5761042791604052600281527f5454000000000000000000000000000000000000000000000000000000000000602082015260405191829182610833565b0390f35b7f4e487b71000000000000000000000000000000000000000000000000000000005f52604160045260245ffd5b346100f95760207ffffffffffffffffffffffffffffffffffffffffffffffffffffffffffffffffc3601126100f95761048f61087b565b6338377508600c525f52602080600c2054604051908152f35b346100f95760207ffffffffffffffffffffffffffffffffffffffffffffffffffffffffffffffffc3601126100f9576104df61087b565b6387a211a2600c525f52602080600c2054604051908152f35b346100f9575f7ffffffffffffffffffffffffffffffffffffffffffffffffffffffffffffffffc3601126100f957602060a06105326108c1565b828101907f54657374546f6b656e00000000000000000000000000000000000000000000008252519020604051907f8b73c3c69bb8fe3d512ecc4cf759cc79239f7b179b0ffacaa9a75d522b39400f8252838201527fc89efdaa54c0f20c7adf612882df0950f5a951637e0307cdcb4c672f298b8bc6604082015246606082015230608082015220604051908152f35b346100f9575f7ffffffffffffffffffffffffffffffffffffffffffffffffffffffffffffffffc3601126100f957602060405160128152f35b346100f95760607ffffffffffffffffffffffffffffffffffffffffffffffffffffffffffffffffc3601126100f95761063261087b565b61063a61089e565b604435908260601b33602052637f5e9f208117600c526034600c209081549182196106dc575b506387a211a2915017600c526020600c2080548084116103945783900390555f526020600c2081815401905560205273ffffffffffffffffffffffffffffffffffffffff600c5160601c91167fddf252ad1be2c89b69c2b068fc378daa952ba7f163c4a11628f55a4df523b3ef602080a3602060405160018152f35b8285116106f357846387a211a29303905585610660565b6313be252b5f526004601cfd5b346100f9575f7ffffffffffffffffffffffffffffffffffffffffffffffffffffffffffffffffc3601126100f95760206805345cdf77eb68f44c54604051908152f35b346100f95760407ffffffffffffffffffffffffffffffffffffffffffffffffffffffffffffffffc3601126100f95761077a61087b565b60243590602052637f5e9f20600c52335f52806034600c20555f52602c5160601c337f8c5be1e5ebec7d5bd14f71427d1e84f3dd0314c0f7b2291e5b200ac8c7c3b92560205fa3602060405160018152f35b346100f9575f7ffffffffffffffffffffffffffffffffffffffffffffffffffffffffffffffffc3601126100f9576104276108056108c1565b7f54657374546f6b656e00000000000000000000000000000000000000000000006020820152604051918291825b7fffffffffffffffffffffffffffffffffffffffffffffffffffffffffffffffe0601f602060409481855280519182918282880152018686015e5f8582860101520116010190565b6004359073ffffffffffffffffffffffffffffffffffffffff821682036100f957565b6024359073ffffffffffffffffffffffffffffffffffffffff821682036100f957565b604051906040820182811067ffffffffffffffff82111761042b57604052600982525600000000000000000000000000000c771f6176268d5a9846e0956c3ef58597a1",
        "nonce": "0x226",
        "chainId": "0xaa36a7"
      },
      "additionalContracts": [],
      "isFixedGasLimit": false
    },
    {
      "hash": "0x989ef88446797308a7dcc629fdac7b2184d2d328b33b523cf6065b3fb8ecdcd2",
      "transactionType": "CALL",
      "contractName": "TestToken",
      "contractAddress": "0xab8da9a292466b49520aa96b5166e9221d73c82a",
      "function": "approve(address,uint256)",
      "arguments": [
        "0x6ebE62C4d9B6Ad298fE7bcBbC54f6166b19330C3",
        "115792089237316195423570985008687907853269984665640564039457584007913129639935"
      ],
      "transaction": {
        "from": "0x00000c771f6176268d5a9846e0956c3ef58597a1",
        "to": "0xab8da9a292466b49520aa96b5166e9221d73c82a",
        "gas": "0xf8eb",
        "value": "0x0",
        "input": "0x095ea7b30000000000000000000000006ebe62c4d9b6ad298fe7bcbbc54f6166b19330c3ffffffffffffffffffffffffffffffffffffffffffffffffffffffffffffffff",
        "nonce": "0x227",
        "chainId": "0xaa36a7"
      },
      "additionalContracts": [],
      "isFixedGasLimit": false
    },
    {
      "hash": "0x2ca20a6023cd6394d44cec2df528a05544a80661c39e0012e1009830d790abc0",
      "transactionType": "CALL",
      "contractName": "TestToken",
      "contractAddress": "0xab8da9a292466b49520aa96b5166e9221d73c82a",
      "function": "approve(address,uint256)",
      "arguments": [
        "0x18b76224B5f32FBCB08e4ff3E434754AbCc07bF9",
        "115792089237316195423570985008687907853269984665640564039457584007913129639935"
      ],
      "transaction": {
        "from": "0x00000c771f6176268d5a9846e0956c3ef58597a1",
        "to": "0xab8da9a292466b49520aa96b5166e9221d73c82a",
        "gas": "0xf8eb",
        "value": "0x0",
        "input": "0x095ea7b300000000000000000000000018b76224b5f32fbcb08e4ff3e434754abcc07bf9ffffffffffffffffffffffffffffffffffffffffffffffffffffffffffffffff",
        "nonce": "0x228",
        "chainId": "0xaa36a7"
      },
      "additionalContracts": [],
      "isFixedGasLimit": false
    },
    {
      "hash": "0x3c061cbdf53c928df3beb62aaaadfca3d470f500d791e6aca588721bdb84f72e",
      "transactionType": "CALL",
      "contractName": null,
      "contractAddress": "0x18b76224b5f32fbcb08e4ff3e434754abcc07bf9",
      "function": "multicall(bytes[])",
      "arguments": [
        "[0x3bb838a80000000000000000000000000000000000000000000000000000000000000000000000000000000000000000ab8da9a292466b49520aa96b5166e9221d73c82a0000000000000000000000000000000000c49ba5e353f7ced916872b020c49ba000000000000000000000000000000000000000000000000000000000000175e0000000000000000000000000000000000000000000000000000000000000000000000000000000000000000000000000000000000000000000000000081f64d, 0xcda20b5080ccca83656ed50bab60e6b5d9508644096808970dd2b38129ecf075efed2eda0000000000000000000000000000000000000000000000000000000000000000000000000000000000000000ab8da9a292466b49520aa96b5166e9221d73c82a0000000000000000000000000000000000c49ba5e353f7ced916872b020c49ba000000000000000000000000000000000000000000000000000000000000175e0000000000000000000000000000000000000000000000000000000000000000fffffffffffffffffffffffffffffffffffffffffffffffffffffffffab6413e000000000000000000000000000000000000000000000000000000000549bec2000000000000000000000000000000000000000000000000002386f26fc10000000000000000000000000000000000000000000000000002b5e3af16b18800000000000000000000000000000000000000000000000000000000000000000000, 0x41865270]"
      ],
      "transaction": {
        "from": "0x00000c771f6176268d5a9846e0956c3ef58597a1",
        "to": "0x18b76224b5f32fbcb08e4ff3e434754abcc07bf9",
        "gas": "0x70f5b",
        "value": "0x2386f26fc10000",
        "input": "0xac9650d80000000000000000000000000000000000000000000000000000000000000020000000000000000000000000000000000000000000000000000000000000000300000000000000000000000000000000000000000000000000000000000000600000000000000000000000000000000000000000000000000000000000000160000000000000000000000000000000000000000000000000000000000000030000000000000000000000000000000000000000000000000000000000000000c43bb838a80000000000000000000000000000000000000000000000000000000000000000000000000000000000000000ab8da9a292466b49520aa96b5166e9221d73c82a0000000000000000000000000000000000c49ba5e353f7ced916872b020c49ba000000000000000000000000000000000000000000000000000000000000175e0000000000000000000000000000000000000000000000000000000000000000000000000000000000000000000000000000000000000000000000000081f64d000000000000000000000000000000000000000000000000000000000000000000000000000000000000000000000000000000000000000000000164cda20b5080ccca83656ed50bab60e6b5d9508644096808970dd2b38129ecf075efed2eda0000000000000000000000000000000000000000000000000000000000000000000000000000000000000000ab8da9a292466b49520aa96b5166e9221d73c82a0000000000000000000000000000000000c49ba5e353f7ced916872b020c49ba000000000000000000000000000000000000000000000000000000000000175e0000000000000000000000000000000000000000000000000000000000000000fffffffffffffffffffffffffffffffffffffffffffffffffffffffffab6413e000000000000000000000000000000000000000000000000000000000549bec2000000000000000000000000000000000000000000000000002386f26fc10000000000000000000000000000000000000000000000000002b5e3af16b188000000000000000000000000000000000000000000000000000000000000000000000000000000000000000000000000000000000000000000000000000000000000000000000000000000000000000000000000000000000000000000044186527000000000000000000000000000000000000000000000000000000000",
        "nonce": "0x229",
        "chainId": "0xaa36a7"
      },
      "additionalContracts": [],
      "isFixedGasLimit": false
    },
    {
      "hash": "0x002697abde4880eb34765724a57878d206153c65eecab35581292fcc2b3cb315",
      "transactionType": "CALL",
      "contractName": null,
      "contractAddress": "0x6ebe62c4d9b6ad298fe7bcbbc54f6166b19330c3",
      "function": "swap((address,address,uint128,uint32,address),bool,int128,uint256,uint256)",
      "arguments": [
        "(0x0000000000000000000000000000000000000000, 0xaB8DA9A292466b49520aa96b5166E9221D73C82a, 1020847100762815390390123822295304634, 5982, 0x0000000000000000000000000000000000000000)",
        "false",
        "100000",
        "18447191164202170526",
        "0"
      ],
      "transaction": {
        "from": "0x00000c771f6176268d5a9846e0956c3ef58597a1",
        "to": "0x6ebe62c4d9b6ad298fe7bcbbc54f6166b19330c3",
        "gas": "0x23eae",
        "value": "0x186a0",
        "input": "0xab81aca50000000000000000000000000000000000000000000000000000000000000000000000000000000000000000ab8da9a292466b49520aa96b5166e9221d73c82a0000000000000000000000000000000000c49ba5e353f7ced916872b020c49ba000000000000000000000000000000000000000000000000000000000000175e0000000000000000000000000000000000000000000000000000000000000000000000000000000000000000000000000000000000000000000000000000000000000000000000000000000000000000000000000000000000000000000186a0000000000000000000000000000000000000000000000001000196a05dfeb89e0000000000000000000000000000000000000000000000000000000000000000",
        "nonce": "0x22a",
        "chainId": "0xaa36a7"
      },
      "additionalContracts": [],
      "isFixedGasLimit": false
    },
    {
      "hash": "0x7559c354af5b57c772bcf342fb3ca11a11528e727257dd360cac9e28be905f23",
      "transactionType": "CALL",
      "contractName": null,
      "contractAddress": "0x6ebe62c4d9b6ad298fe7bcbbc54f6166b19330c3",
      "function": "swap((address,address,uint128,uint32,address),bool,int128,uint256,uint256)",
      "arguments": [
        "(0x0000000000000000000000000000000000000000, 0xaB8DA9A292466b49520aa96b5166E9221D73C82a, 1020847100762815390390123822295304634, 5982, 0x0000000000000000000000000000000000000000)",
        "true",
        "500000000",
        "6276949602062853172742588666638147158083741740262337144812",
        "0"
      ],
      "transaction": {
        "from": "0x00000c771f6176268d5a9846e0956c3ef58597a1",
        "to": "0x6ebe62c4d9b6ad298fe7bcbbc54f6166b19330c3",
        "gas": "0x239d4",
        "value": "0x0",
        "input": "0xab81aca50000000000000000000000000000000000000000000000000000000000000000000000000000000000000000ab8da9a292466b49520aa96b5166e9221d73c82a0000000000000000000000000000000000c49ba5e353f7ced916872b020c49ba000000000000000000000000000000000000000000000000000000000000175e00000000000000000000000000000000000000000000000000000000000000000000000000000000000000000000000000000000000000000000000000000001000000000000000000000000000000000000000000000000000000001dcd65000000000000000000fffe696227de541a6906a28c6409402eefdd9a358361e7ec0000000000000000000000000000000000000000000000000000000000000000",
        "nonce": "0x22b",
        "chainId": "0xaa36a7"
      },
      "additionalContracts": [],
      "isFixedGasLimit": false
    },
    {
      "hash": "0x7e081e035d55d01517231255a1c029e13a159201776620aa2c2ed2c200fb5d00",
      "transactionType": "CALL",
      "contractName": null,
      "contractAddress": "0x6ebe62c4d9b6ad298fe7bcbbc54f6166b19330c3",
      "function": "swap((address,address,uint128,uint32,address),bool,int128,uint256,uint256)",
      "arguments": [
        "(0x0000000000000000000000000000000000000000, 0xaB8DA9A292466b49520aa96b5166E9221D73C82a, 1020847100762815390390123822295304634, 5982, 0x0000000000000000000000000000000000000000)",
        "false",
        "100000",
        "18447191164202170526",
        "0"
      ],
      "transaction": {
        "from": "0x00000c771f6176268d5a9846e0956c3ef58597a1",
        "to": "0x6ebe62c4d9b6ad298fe7bcbbc54f6166b19330c3",
        "gas": "0x1c27d",
        "value": "0x186a0",
        "input": "0xab81aca50000000000000000000000000000000000000000000000000000000000000000000000000000000000000000ab8da9a292466b49520aa96b5166e9221d73c82a0000000000000000000000000000000000c49ba5e353f7ced916872b020c49ba000000000000000000000000000000000000000000000000000000000000175e0000000000000000000000000000000000000000000000000000000000000000000000000000000000000000000000000000000000000000000000000000000000000000000000000000000000000000000000000000000000000000000186a0000000000000000000000000000000000000000000000001000196a05dfeb89e0000000000000000000000000000000000000000000000000000000000000000",
        "nonce": "0x22c",
        "chainId": "0xaa36a7"
      },
      "additionalContracts": [],
      "isFixedGasLimit": false
    },
    {
      "hash": "0x05362d36de55c03ba6130cb3a58cec0a64c4d014a17954bb81c4d686d5e5ef03",
      "transactionType": "CALL",
      "contractName": null,
      "contractAddress": "0x6ebe62c4d9b6ad298fe7bcbbc54f6166b19330c3",
      "function": "swap((address,address,uint128,uint32,address),bool,int128,uint256,uint256)",
      "arguments": [
        "(0x0000000000000000000000000000000000000000, 0xaB8DA9A292466b49520aa96b5166E9221D73C82a, 1020847100762815390390123822295304634, 5982, 0x0000000000000000000000000000000000000000)",
        "true",
        "500000000",
        "6276949602062853172742588666638147158083741740262337144812",
        "0"
      ],
      "transaction": {
        "from": "0x00000c771f6176268d5a9846e0956c3ef58597a1",
        "to": "0x6ebe62c4d9b6ad298fe7bcbbc54f6166b19330c3",
        "gas": "0x1f9aa",
        "value": "0x0",
        "input": "0xab81aca50000000000000000000000000000000000000000000000000000000000000000000000000000000000000000ab8da9a292466b49520aa96b5166e9221d73c82a0000000000000000000000000000000000c49ba5e353f7ced916872b020c49ba000000000000000000000000000000000000000000000000000000000000175e00000000000000000000000000000000000000000000000000000000000000000000000000000000000000000000000000000000000000000000000000000001000000000000000000000000000000000000000000000000000000001dcd65000000000000000000fffe696227de541a6906a28c6409402eefdd9a358361e7ec0000000000000000000000000000000000000000000000000000000000000000",
        "nonce": "0x22d",
        "chainId": "0xaa36a7"
      },
      "additionalContracts": [],
      "isFixedGasLimit": false
    },
    {
      "hash": "0xf5cde66eec5a0e436a754938d2b34c059c2d570d4165619b596ffbf5bb5c4709",
      "transactionType": "CALL",
      "contractName": null,
      "contractAddress": "0x18b76224b5f32fbcb08e4ff3e434754abcc07bf9",
      "function": "multicall(bytes[])",
      "arguments": [
        "[0x3bb838a80000000000000000000000000000000000000000000000000000000000000000000000000000000000000000ab8da9a292466b49520aa96b5166e9221d73c82a00000000000000000000000000000000028f5c28f5c28f5c28f5c28f5c28f5c20000000000000000000000000000000000000000000000000000000000004d5a0000000000000000000000000000000000000000000000000000000000000000000000000000000000000000000000000000000000000000000000000081f64d, 0xcda20b5080ccca83656ed50bab60e6b5d9508644096808970dd2b38129ecf075efed2edb0000000000000000000000000000000000000000000000000000000000000000000000000000000000000000ab8da9a292466b49520aa96b5166e9221d73c82a00000000000000000000000000000000028f5c28f5c28f5c28f5c28f5c28f5c20000000000000000000000000000000000000000000000000000000000004d5a0000000000000000000000000000000000000000000000000000000000000000fffffffffffffffffffffffffffffffffffffffffffffffffffffffffab65900000000000000000000000000000000000000000000000000000000000549a700000000000000000000000000000000000000000000000000006a94d74f43000000000000000000000000000000000000000000000000001043561a88293000000000000000000000000000000000000000000000000000000000000000000000, 0x41865270]"
      ],
      "transaction": {
        "from": "0x00000c771f6176268d5a9846e0956c3ef58597a1",
        "to": "0x18b76224b5f32fbcb08e4ff3e434754abcc07bf9",
        "gas": "0x65411",
        "value": "0x6a94d74f430000",
        "input": "0xac9650d80000000000000000000000000000000000000000000000000000000000000020000000000000000000000000000000000000000000000000000000000000000300000000000000000000000000000000000000000000000000000000000000600000000000000000000000000000000000000000000000000000000000000160000000000000000000000000000000000000000000000000000000000000030000000000000000000000000000000000000000000000000000000000000000c43bb838a80000000000000000000000000000000000000000000000000000000000000000000000000000000000000000ab8da9a292466b49520aa96b5166e9221d73c82a00000000000000000000000000000000028f5c28f5c28f5c28f5c28f5c28f5c20000000000000000000000000000000000000000000000000000000000004d5a0000000000000000000000000000000000000000000000000000000000000000000000000000000000000000000000000000000000000000000000000081f64d000000000000000000000000000000000000000000000000000000000000000000000000000000000000000000000000000000000000000000000164cda20b5080ccca83656ed50bab60e6b5d9508644096808970dd2b38129ecf075efed2edb0000000000000000000000000000000000000000000000000000000000000000000000000000000000000000ab8da9a292466b49520aa96b5166e9221d73c82a00000000000000000000000000000000028f5c28f5c28f5c28f5c28f5c28f5c20000000000000000000000000000000000000000000000000000000000004d5a0000000000000000000000000000000000000000000000000000000000000000fffffffffffffffffffffffffffffffffffffffffffffffffffffffffab65900000000000000000000000000000000000000000000000000000000000549a700000000000000000000000000000000000000000000000000006a94d74f43000000000000000000000000000000000000000000000000001043561a882930000000000000000000000000000000000000000000000000000000000000000000000000000000000000000000000000000000000000000000000000000000000000000000000000000000000000000000000000000000000000000000044186527000000000000000000000000000000000000000000000000000000000",
        "nonce": "0x22e",
        "chainId": "0xaa36a7"
      },
      "additionalContracts": [],
      "isFixedGasLimit": false
    },
    {
      "hash": "0x7e79bd571bf26219c0c5af7d14ca9ee1f5a24001610a6b316a9b2c9b4e1e7b01",
      "transactionType": "CALL",
      "contractName": null,
      "contractAddress": "0x18b76224b5f32fbcb08e4ff3e434754abcc07bf9",
      "function": "multicall(bytes[])",
      "arguments": [
        "[0x3bb838a80000000000000000000000000000000000000000000000000000000000000000000000000000000000000000ab8da9a292466b49520aa96b5166e9221d73c82a000000000000000000000000000000000000000000000000000000000000000000000000000000000000000000000000000000000000000000000000000aa8ed0000000000000000000000005175ce931b14352cc59495cd2c7eef99ae7484de00000000000000000000000000000000000000000000000000000000004644f4, 0xcda20b5080ccca83656ed50bab60e6b5d9508644096808970dd2b38129ecf075efed2edc0000000000000000000000000000000000000000000000000000000000000000000000000000000000000000ab8da9a292466b49520aa96b5166e9221d73c82a000000000000000000000000000000000000000000000000000000000000000000000000000000000000000000000000000000000000000000000000000aa8ed0000000000000000000000005175ce931b14352cc59495cd2c7eef99ae7484defffffffffffffffffffffffffffffffffffffffffffffffffffffffffab6326d000000000000000000000000000000000000000000000000000000000549cd930000000000000000000000000000000000000000000000000de0b6b3a76400000000000000000000000000000000000000000000000000056bc75e2d631000000000000000000000000000000000000000000000000000000000000000000000, 0x41865270]"
      ],
      "transaction": {
        "from": "0x00000c771f6176268d5a9846e0956c3ef58597a1",
        "to": "0x18b76224b5f32fbcb08e4ff3e434754abcc07bf9",
        "gas": "0x77a61",
        "value": "0xde0b6b3a7640000",
        "input": "0xac9650d80000000000000000000000000000000000000000000000000000000000000020000000000000000000000000000000000000000000000000000000000000000300000000000000000000000000000000000000000000000000000000000000600000000000000000000000000000000000000000000000000000000000000160000000000000000000000000000000000000000000000000000000000000030000000000000000000000000000000000000000000000000000000000000000c43bb838a80000000000000000000000000000000000000000000000000000000000000000000000000000000000000000ab8da9a292466b49520aa96b5166e9221d73c82a000000000000000000000000000000000000000000000000000000000000000000000000000000000000000000000000000000000000000000000000000aa8ed0000000000000000000000005175ce931b14352cc59495cd2c7eef99ae7484de00000000000000000000000000000000000000000000000000000000004644f4000000000000000000000000000000000000000000000000000000000000000000000000000000000000000000000000000000000000000000000164cda20b5080ccca83656ed50bab60e6b5d9508644096808970dd2b38129ecf075efed2edc0000000000000000000000000000000000000000000000000000000000000000000000000000000000000000ab8da9a292466b49520aa96b5166e9221d73c82a000000000000000000000000000000000000000000000000000000000000000000000000000000000000000000000000000000000000000000000000000aa8ed0000000000000000000000005175ce931b14352cc59495cd2c7eef99ae7484defffffffffffffffffffffffffffffffffffffffffffffffffffffffffab6326d000000000000000000000000000000000000000000000000000000000549cd930000000000000000000000000000000000000000000000000de0b6b3a76400000000000000000000000000000000000000000000000000056bc75e2d6310000000000000000000000000000000000000000000000000000000000000000000000000000000000000000000000000000000000000000000000000000000000000000000000000000000000000000000000000000000000000000000044186527000000000000000000000000000000000000000000000000000000000",
        "nonce": "0x22f",
        "chainId": "0xaa36a7"
      },
      "additionalContracts": [],
      "isFixedGasLimit": false
    }
  ],
  "receipts": [
    {
      "status": "0x1",
      "cumulativeGasUsed": "0xf4e21b",
      "logs": [
        {
          "address": "0xab8da9a292466b49520aa96b5166e9221d73c82a",
          "topics": [
            "0xddf252ad1be2c89b69c2b068fc378daa952ba7f163c4a11628f55a4df523b3ef",
            "0x0000000000000000000000000000000000000000000000000000000000000000",
            "0x00000000000000000000000000000c771f6176268d5a9846e0956c3ef58597a1"
          ],
          "data": "0xffffffffffffffffffffffffffffffffffffffffffffffffffffffffffffffff",
          "blockHash": "0x65a8221abe1dec4bfd302a172453adf4c72f2e41d17e6cc9db44ce577d6eda27",
          "blockNumber": "0x74b6e7",
          "transactionHash": "0x81c4b2b627d7fbedf255b226717935cee000cea1c040eb6187b8f6e0351b60df",
          "transactionIndex": "0x57",
          "logIndex": "0x129",
          "removed": false
        }
      ],
      "logsBloom": "0x00000000000000000000000000000000000004000000000000000000000000200000200000000000000000000000000000000000000000000000000000000000000000000000000000000008000000000000100000000000000000000000000000000000020000000000000000000800000000000000000000000010000000000000000000000000000000000000000000000000000100000000000000000000000000000000000000000000000000000000000000000000000000000000000000000002000000000000000000000000000000000000000000000000000020000000000000000000000000000000000000000000800000000000000000000000",
      "type": "0x2",
      "transactionHash": "0x81c4b2b627d7fbedf255b226717935cee000cea1c040eb6187b8f6e0351b60df",
      "transactionIndex": "0x57",
      "blockHash": "0x65a8221abe1dec4bfd302a172453adf4c72f2e41d17e6cc9db44ce577d6eda27",
      "blockNumber": "0x74b6e7",
      "gasUsed": "0x90ed7",
      "effectiveGasPrice": "0x7d841958",
      "from": "0x00000c771f6176268d5a9846e0956c3ef58597a1",
      "to": null,
      "contractAddress": "0xab8da9a292466b49520aa96b5166e9221d73c82a"
    },
    {
      "status": "0x1",
      "cumulativeGasUsed": "0x76dbb0",
      "logs": [
        {
          "address": "0xab8da9a292466b49520aa96b5166e9221d73c82a",
          "topics": [
            "0x8c5be1e5ebec7d5bd14f71427d1e84f3dd0314c0f7b2291e5b200ac8c7c3b925",
            "0x00000000000000000000000000000c771f6176268d5a9846e0956c3ef58597a1",
            "0x0000000000000000000000006ebe62c4d9b6ad298fe7bcbbc54f6166b19330c3"
          ],
          "data": "0xffffffffffffffffffffffffffffffffffffffffffffffffffffffffffffffff",
          "blockHash": "0x2b3e161829c3dace8239b64a30b78600933759ef70186c229829712e4d101a56",
          "blockNumber": "0x74b6e8",
          "transactionHash": "0x989ef88446797308a7dcc629fdac7b2184d2d328b33b523cf6065b3fb8ecdcd2",
          "transactionIndex": "0x4c",
          "logIndex": "0x75",
          "removed": false
        }
      ],
      "logsBloom": "0x00000000000000000000000000000000000004000000000000000000000000200000200000000000000000000000000000040040000000000000000000200000000000000000000000000000000000000000100000000000000000000000000000000000000000000000000000000000000000002000000000000000000000000000000000000000000000000000000000000000000100000000000000000000020000000000000000000000000000000000000000000000000000000000000000000000000000000000000000000000000000000000000000000000000000000010000000000000000000000000000000000000800000000000000000000000",
      "type": "0x2",
      "transactionHash": "0x989ef88446797308a7dcc629fdac7b2184d2d328b33b523cf6065b3fb8ecdcd2",
      "transactionIndex": "0x4c",
      "blockHash": "0x2b3e161829c3dace8239b64a30b78600933759ef70186c229829712e4d101a56",
      "blockNumber": "0x74b6e8",
      "gasUsed": "0xb437",
      "effectiveGasPrice": "0x7e1cfaa2",
      "from": "0x00000c771f6176268d5a9846e0956c3ef58597a1",
      "to": "0xab8da9a292466b49520aa96b5166e9221d73c82a",
      "contractAddress": null
    },
    {
      "status": "0x1",
      "cumulativeGasUsed": "0x18ccd43",
      "logs": [
        {
          "address": "0xab8da9a292466b49520aa96b5166e9221d73c82a",
          "topics": [
            "0x8c5be1e5ebec7d5bd14f71427d1e84f3dd0314c0f7b2291e5b200ac8c7c3b925",
            "0x00000000000000000000000000000c771f6176268d5a9846e0956c3ef58597a1",
            "0x00000000000000000000000018b76224b5f32fbcb08e4ff3e434754abcc07bf9"
          ],
          "data": "0xffffffffffffffffffffffffffffffffffffffffffffffffffffffffffffffff",
          "blockHash": "0x05b02659b57461767a507b68829f1612a9e7c6350f8540512dd5faad7b75f633",
          "blockNumber": "0x74b6e9",
          "transactionHash": "0x2ca20a6023cd6394d44cec2df528a05544a80661c39e0012e1009830d790abc0",
          "transactionIndex": "0xa1",
          "logIndex": "0x173",
          "removed": false
        }
      ],
      "logsBloom": "0x00000000000000000000000000000000000004000000000000000000000000200000200000000000000000000000000000000000000000000000000000200000000000000000000000000000000000000000100000000000000000000000000000000000000000000000000000000000000000000000000000000000000000000000000000000000000000000000000000000000000100000000000000000000020000000000000000000000000000000000000000000000000000000000000000010000000000000000000040000000000000000000000000200000000000000010000000000000000000000000000000000000800000000000000000000000",
      "type": "0x2",
      "transactionHash": "0x2ca20a6023cd6394d44cec2df528a05544a80661c39e0012e1009830d790abc0",
      "transactionIndex": "0xa1",
      "blockHash": "0x05b02659b57461767a507b68829f1612a9e7c6350f8540512dd5faad7b75f633",
      "blockNumber": "0x74b6e9",
      "gasUsed": "0xb437",
      "effectiveGasPrice": "0x7755c4b8",
      "from": "0x00000c771f6176268d5a9846e0956c3ef58597a1",
      "to": "0xab8da9a292466b49520aa96b5166e9221d73c82a",
      "contractAddress": null
    },
    {
      "status": "0x1",
      "cumulativeGasUsed": "0x811d9e",
      "logs": [
        {
          "address": "0xf42bf217a0fb332358cfd48cbb8df35f92c01437",
          "topics": [
            "0x5014502cd7c1cd1f671286e947be5af016cf1bff863e084d012d73b1133f7cfb"
          ],
          "data": "0x285486881409c269592aa92eef0007f9230ce8235f8c347f9e35feef5b3f19830000000000000000000000000000000000000000000000000000000000000000000000000000000000000000ab8da9a292466b49520aa96b5166e9221d73c82a0000000000000000000000000000000000c49ba5e353f7ced916872b020c49ba000000000000000000000000000000000000000000000000000000000000175e0000000000000000000000000000000000000000000000000000000000000000000000000000000000000000000000000000000000000000000000000081f64d00000000000000000000000000000046b5edf55f4b6d955ca5ad5187dff5e61a",
          "blockHash": "0x80b7276ebd1fdc8b89deda4fe4f33869e8baca2bf96221db89138e89a0e8d16f",
          "blockNumber": "0x74b6ea",
          "transactionHash": "0x3c061cbdf53c928df3beb62aaaadfca3d470f500d791e6aca588721bdb84f72e",
          "transactionIndex": "0xa9",
          "logIndex": "0x49",
          "removed": false
        },
        {
          "address": "0x18b76224b5f32fbcb08e4ff3e434754abcc07bf9",
          "topics": [
            "0xddf252ad1be2c89b69c2b068fc378daa952ba7f163c4a11628f55a4df523b3ef",
            "0x0000000000000000000000000000000000000000000000000000000000000000",
            "0x00000000000000000000000000000c771f6176268d5a9846e0956c3ef58597a1",
            "0x00000000000000000000000000000000000000000000000000004309a3882561"
          ],
          "data": "0x",
          "blockHash": "0x80b7276ebd1fdc8b89deda4fe4f33869e8baca2bf96221db89138e89a0e8d16f",
          "blockNumber": "0x74b6ea",
          "transactionHash": "0x3c061cbdf53c928df3beb62aaaadfca3d470f500d791e6aca588721bdb84f72e",
          "transactionIndex": "0xa9",
          "logIndex": "0x4a",
          "removed": false
        },
        {
          "address": "0xf42bf217a0fb332358cfd48cbb8df35f92c01437",
          "topics": [
            "0xa2d4008be4187c63684f323788e131e1370dbc2205499befe2834005a00c792c"
          ],
          "data": "0x00000000000000000000000018b76224b5f32fbcb08e4ff3e434754abcc07bf9285486881409c269592aa92eef0007f9230ce8235f8c347f9e35feef5b3f198300000000000000000000000000000000000000000000000000004309a3882561fffffffffffffffffffffffffffffffffffffffffffffffffffffffffab6413e000000000000000000000000000000000000000000000000000000000549bec200000000000000000000000000000000000000000000000009d025b9f39a7b59000000000000000000000000000000000000000000000000002386f26fc10000000000000000000000000000000000000000000000000002b5e39a9fdddd9e1c",
          "blockHash": "0x80b7276ebd1fdc8b89deda4fe4f33869e8baca2bf96221db89138e89a0e8d16f",
          "blockNumber": "0x74b6ea",
          "transactionHash": "0x3c061cbdf53c928df3beb62aaaadfca3d470f500d791e6aca588721bdb84f72e",
          "transactionIndex": "0xa9",
          "logIndex": "0x4b",
          "removed": false
        },
        {
          "address": "0xab8da9a292466b49520aa96b5166e9221d73c82a",
          "topics": [
            "0xddf252ad1be2c89b69c2b068fc378daa952ba7f163c4a11628f55a4df523b3ef",
            "0x00000000000000000000000000000c771f6176268d5a9846e0956c3ef58597a1",
            "0x000000000000000000000000f42bf217a0fb332358cfd48cbb8df35f92c01437"
          ],
          "data": "0x000000000000000000000000000000000000000000000002b5e39a9fdddd9e1c",
          "blockHash": "0x80b7276ebd1fdc8b89deda4fe4f33869e8baca2bf96221db89138e89a0e8d16f",
          "blockNumber": "0x74b6ea",
          "transactionHash": "0x3c061cbdf53c928df3beb62aaaadfca3d470f500d791e6aca588721bdb84f72e",
          "transactionIndex": "0xa9",
          "logIndex": "0x4c",
          "removed": false
        }
      ],
      "logsBloom": "0x00000000008000000100000000000000000004000100000000000000000000200000200000000000100000000000000000000000000000000000000000000000100000000000000000000008000001000000100001000000000000200000000020000000020000000000000000000800000000000000000000000010000000000000000000000000000000000008000000000000000100000000000000001000000000000010000040000000000002000000000000000000000000000000000000000002000000000000000000000000000000000000000000000000000020000000001040000000000000000000000000000000840000000000000000000000",
      "type": "0x2",
      "transactionHash": "0x3c061cbdf53c928df3beb62aaaadfca3d470f500d791e6aca588721bdb84f72e",
      "transactionIndex": "0xa9",
      "blockHash": "0x80b7276ebd1fdc8b89deda4fe4f33869e8baca2bf96221db89138e89a0e8d16f",
      "blockNumber": "0x74b6ea",
      "gasUsed": "0x51c7f",
      "effectiveGasPrice": "0x8036379a",
      "from": "0x00000c771f6176268d5a9846e0956c3ef58597a1",
      "to": "0x18b76224b5f32fbcb08e4ff3e434754abcc07bf9",
      "contractAddress": null
    },
    {
      "status": "0x1",
      "cumulativeGasUsed": "0x86fe60",
      "logs": [
        {
          "address": "0xf42bf217a0fb332358cfd48cbb8df35f92c01437",
          "topics": [],
          "data": "0x6ebe62c4d9b6ad298fe7bcbbc54f6166b19330c3285486881409c269592aa92eef0007f9230ce8235f8c347f9e35feef5b3f1983000000000000000000000000000186a0ffffffffffffffffffffffffe2497ff9000000000000000009d025b9f39a7b590000000000000046b5edf55c4449ef7497539f80a00c1b230081f64c",
          "blockHash": "0x2bc0e97157473d4c9b10d06339c061e9b1c9c9a643197fedf62beed2d6abf494",
          "blockNumber": "0x74b6eb",
          "transactionHash": "0x002697abde4880eb34765724a57878d206153c65eecab35581292fcc2b3cb315",
          "transactionIndex": "0x5e",
          "logIndex": "0x71",
          "removed": false
        },
        {
          "address": "0xab8da9a292466b49520aa96b5166e9221d73c82a",
          "topics": [
            "0xddf252ad1be2c89b69c2b068fc378daa952ba7f163c4a11628f55a4df523b3ef",
            "0x000000000000000000000000f42bf217a0fb332358cfd48cbb8df35f92c01437",
            "0x00000000000000000000000000000c771f6176268d5a9846e0956c3ef58597a1"
          ],
          "data": "0x000000000000000000000000000000000000000000000000000000001db68007",
          "blockHash": "0x2bc0e97157473d4c9b10d06339c061e9b1c9c9a643197fedf62beed2d6abf494",
          "blockNumber": "0x74b6eb",
          "transactionHash": "0x002697abde4880eb34765724a57878d206153c65eecab35581292fcc2b3cb315",
          "transactionIndex": "0x5e",
          "logIndex": "0x72",
          "removed": false
        }
      ],
      "logsBloom": "0x00000000000000000000000000000000000004000000000000000000000000200000200000000000100000000000000000000000000000000000000000000000000000000000000000000008000000000000100001000000000000000000000000000000000000000000000000000000000000000000000000000010000000000000000000000000000000000000000000000000000100000000000000001000000000000000000000000000000002000000000000000000000000000000000000000002000000000000000000000000000000000000000000000000000000000000000040000000000000000000000000000000840000000000000000000000",
      "type": "0x2",
      "transactionHash": "0x002697abde4880eb34765724a57878d206153c65eecab35581292fcc2b3cb315",
      "transactionIndex": "0x5e",
      "blockHash": "0x2bc0e97157473d4c9b10d06339c061e9b1c9c9a643197fedf62beed2d6abf494",
      "blockNumber": "0x74b6eb",
      "gasUsed": "0x188f2",
      "effectiveGasPrice": "0x7bb8fe28",
      "from": "0x00000c771f6176268d5a9846e0956c3ef58597a1",
      "to": "0x6ebe62c4d9b6ad298fe7bcbbc54f6166b19330c3",
      "contractAddress": null
    },
    {
      "status": "0x1",
      "cumulativeGasUsed": "0x6a4df1",
      "logs": [
        {
          "address": "0xf42bf217a0fb332358cfd48cbb8df35f92c01437",
          "topics": [],
          "data": "0x6ebe62c4d9b6ad298fe7bcbbc54f6166b19330c3285486881409c269592aa92eef0007f9230ce8235f8c347f9e35feef5b3f1983fffffffffffffffffffffffffffe7a8c0000000000000000000000001dcd6500000000000000000009d025b9f39a7b590000000000000046b5edf55f4b6dbf06947d160474f95e090081f64d",
          "blockHash": "0x899b35e06e66f742c7ee8a91b3a6aad763283b28470284a1809f4dc0b2a51d08",
          "blockNumber": "0x74b6ed",
          "transactionHash": "0x7559c354af5b57c772bcf342fb3ca11a11528e727257dd360cac9e28be905f23",
          "transactionIndex": "0x70",
          "logIndex": "0x6b",
          "removed": false
        },
        {
          "address": "0xab8da9a292466b49520aa96b5166e9221d73c82a",
          "topics": [
            "0xddf252ad1be2c89b69c2b068fc378daa952ba7f163c4a11628f55a4df523b3ef",
            "0x00000000000000000000000000000c771f6176268d5a9846e0956c3ef58597a1",
            "0x000000000000000000000000f42bf217a0fb332358cfd48cbb8df35f92c01437"
          ],
          "data": "0x000000000000000000000000000000000000000000000000000000001dcd6500",
          "blockHash": "0x899b35e06e66f742c7ee8a91b3a6aad763283b28470284a1809f4dc0b2a51d08",
          "blockNumber": "0x74b6ed",
          "transactionHash": "0x7559c354af5b57c772bcf342fb3ca11a11528e727257dd360cac9e28be905f23",
          "transactionIndex": "0x70",
          "logIndex": "0x6c",
          "removed": false
        }
      ],
      "logsBloom": "0x00000000000000000000000000000000000004000000000000000000000000200000200000000000100000000000000000000000000000000000000000000000000000000000000000000008000000000000100001000000000000000000000000000000000000000000000000000000000000000000000000000010000000000000000000000000000000000000000000000000000100000000000000001000000000000000000000000000000002000000000000000000000000000000000000000002000000000000000000000000000000000000000000000000000000000000000040000000000000000000000000000000840000000000000000000000",
      "type": "0x2",
      "transactionHash": "0x7559c354af5b57c772bcf342fb3ca11a11528e727257dd360cac9e28be905f23",
      "transactionIndex": "0x70",
      "blockHash": "0x899b35e06e66f742c7ee8a91b3a6aad763283b28470284a1809f4dc0b2a51d08",
      "blockNumber": "0x74b6ed",
      "gasUsed": "0x19c8d",
      "effectiveGasPrice": "0x8039b9ae",
      "from": "0x00000c771f6176268d5a9846e0956c3ef58597a1",
      "to": "0x6ebe62c4d9b6ad298fe7bcbbc54f6166b19330c3",
      "contractAddress": null
    },
    {
      "status": "0x1",
      "cumulativeGasUsed": "0x7eca7b",
      "logs": [
        {
          "address": "0xf42bf217a0fb332358cfd48cbb8df35f92c01437",
          "topics": [],
          "data": "0x6ebe62c4d9b6ad298fe7bcbbc54f6166b19330c3285486881409c269592aa92eef0007f9230ce8235f8c347f9e35feef5b3f1983000000000000000000000000000186a0ffffffffffffffffffffffffe24991e8000000000000000009d025b9f39a7b590000000000000046b5edf55c444becfabd7205d9bc7ffd4d0081f64c",
          "blockHash": "0x2c29c79a844207b32cad07d2a9fb34eb0e873cb3c14b052b7859f86aa63bb85f",
          "blockNumber": "0x74b6ee",
          "transactionHash": "0x7e081e035d55d01517231255a1c029e13a159201776620aa2c2ed2c200fb5d00",
          "transactionIndex": "0x5f",
          "logIndex": "0x71",
          "removed": false
        },
        {
          "address": "0xab8da9a292466b49520aa96b5166e9221d73c82a",
          "topics": [
            "0xddf252ad1be2c89b69c2b068fc378daa952ba7f163c4a11628f55a4df523b3ef",
            "0x000000000000000000000000f42bf217a0fb332358cfd48cbb8df35f92c01437",
            "0x00000000000000000000000000000c771f6176268d5a9846e0956c3ef58597a1"
          ],
          "data": "0x000000000000000000000000000000000000000000000000000000001db66e18",
          "blockHash": "0x2c29c79a844207b32cad07d2a9fb34eb0e873cb3c14b052b7859f86aa63bb85f",
          "blockNumber": "0x74b6ee",
          "transactionHash": "0x7e081e035d55d01517231255a1c029e13a159201776620aa2c2ed2c200fb5d00",
          "transactionIndex": "0x5f",
          "logIndex": "0x72",
          "removed": false
        }
      ],
      "logsBloom": "0x00000000000000000000000000000000000004000000000000000000000000200000200000000000100000000000000000000000000000000000000000000000000000000000000000000008000000000000100001000000000000000000000000000000000000000000000000000000000000000000000000000010000000000000000000000000000000000000000000000000000100000000000000001000000000000000000000000000000002000000000000000000000000000000000000000002000000000000000000000000000000000000000000000000000000000000000040000000000000000000000000000000840000000000000000000000",
      "type": "0x2",
      "transactionHash": "0x7e081e035d55d01517231255a1c029e13a159201776620aa2c2ed2c200fb5d00",
      "transactionIndex": "0x5f",
      "blockHash": "0x2c29c79a844207b32cad07d2a9fb34eb0e873cb3c14b052b7859f86aa63bb85f",
      "blockNumber": "0x74b6ee",
      "gasUsed": "0x14626",
      "effectiveGasPrice": "0x7ac9ebef",
      "from": "0x00000c771f6176268d5a9846e0956c3ef58597a1",
      "to": "0x6ebe62c4d9b6ad298fe7bcbbc54f6166b19330c3",
      "contractAddress": null
    },
    {
      "status": "0x1",
      "cumulativeGasUsed": "0x17f3708",
      "logs": [
        {
          "address": "0xf42bf217a0fb332358cfd48cbb8df35f92c01437",
          "topics": [],
          "data": "0x6ebe62c4d9b6ad298fe7bcbbc54f6166b19330c3285486881409c269592aa92eef0007f9230ce8235f8c347f9e35feef5b3f1983fffffffffffffffffffffffffffe7a8c0000000000000000000000001dcd6500000000000000000009d025b9f39a7b590000000000000046b5edf55f4b6fbc8cba9b7c5d916d40330081f64d",
          "blockHash": "0x28fca540234a45e5c63b659f4046541a3d329916b270ab44c8b0cfda80d7734b",
          "blockNumber": "0x74b6ef",
          "transactionHash": "0x05362d36de55c03ba6130cb3a58cec0a64c4d014a17954bb81c4d686d5e5ef03",
          "transactionIndex": "0x92",
          "logIndex": "0x16a",
          "removed": false
        },
        {
          "address": "0xab8da9a292466b49520aa96b5166e9221d73c82a",
          "topics": [
            "0xddf252ad1be2c89b69c2b068fc378daa952ba7f163c4a11628f55a4df523b3ef",
            "0x00000000000000000000000000000c771f6176268d5a9846e0956c3ef58597a1",
            "0x000000000000000000000000f42bf217a0fb332358cfd48cbb8df35f92c01437"
          ],
          "data": "0x000000000000000000000000000000000000000000000000000000001dcd6500",
          "blockHash": "0x28fca540234a45e5c63b659f4046541a3d329916b270ab44c8b0cfda80d7734b",
          "blockNumber": "0x74b6ef",
          "transactionHash": "0x05362d36de55c03ba6130cb3a58cec0a64c4d014a17954bb81c4d686d5e5ef03",
          "transactionIndex": "0x92",
          "logIndex": "0x16b",
          "removed": false
        }
      ],
      "logsBloom": "0x00000000000000000000000000000000000004000000000000000000000000200000200000000000100000000000000000000000000000000000000000000000000000000000000000000008000000000000100001000000000000000000000000000000000000000000000000000000000000000000000000000010000000000000000000000000000000000000000000000000000100000000000000001000000000000000000000000000000002000000000000000000000000000000000000000002000000000000000000000000000000000000000000000000000000000000000040000000000000000000000000000000840000000000000000000000",
      "type": "0x2",
      "transactionHash": "0x05362d36de55c03ba6130cb3a58cec0a64c4d014a17954bb81c4d686d5e5ef03",
      "transactionIndex": "0x92",
      "blockHash": "0x28fca540234a45e5c63b659f4046541a3d329916b270ab44c8b0cfda80d7734b",
      "blockNumber": "0x74b6ef",
      "gasUsed": "0x159c1",
      "effectiveGasPrice": "0x7598fb2e",
      "from": "0x00000c771f6176268d5a9846e0956c3ef58597a1",
      "to": "0x6ebe62c4d9b6ad298fe7bcbbc54f6166b19330c3",
      "contractAddress": null
    },
    {
      "status": "0x1",
      "cumulativeGasUsed": "0x7b8d78",
      "logs": [
        {
          "address": "0xf42bf217a0fb332358cfd48cbb8df35f92c01437",
          "topics": [
            "0x5014502cd7c1cd1f671286e947be5af016cf1bff863e084d012d73b1133f7cfb"
          ],
          "data": "0xbb2e5aeb51cbaf1dad7b5ec156c2e7a6d4e2732a32b00f40f2cb9bb163bd3a270000000000000000000000000000000000000000000000000000000000000000000000000000000000000000ab8da9a292466b49520aa96b5166e9221d73c82a00000000000000000000000000000000028f5c28f5c28f5c28f5c28f5c28f5c20000000000000000000000000000000000000000000000000000000000004d5a0000000000000000000000000000000000000000000000000000000000000000000000000000000000000000000000000000000000000000000000000081f64d00000000000000000000000000000046b5edf55f4b6d955ca5ad5187dff5e61a",
          "blockHash": "0x9cf1d3c8478003bdcf4ebeb2b633595fd610b5c524ca3cba6dab4035efedce95",
          "blockNumber": "0x74b6f0",
          "transactionHash": "0xf5cde66eec5a0e436a754938d2b34c059c2d570d4165619b596ffbf5bb5c4709",
          "transactionIndex": "0x6f",
          "logIndex": "0x7a",
          "removed": false
        },
        {
          "address": "0x18b76224b5f32fbcb08e4ff3e434754abcc07bf9",
          "topics": [
            "0xddf252ad1be2c89b69c2b068fc378daa952ba7f163c4a11628f55a4df523b3ef",
            "0x0000000000000000000000000000000000000000000000000000000000000000",
            "0x00000000000000000000000000000c771f6176268d5a9846e0956c3ef58597a1",
            "0x0000000000000000000000000000000000000000000000000000edfcc8fb1e61"
          ],
          "data": "0x",
          "blockHash": "0x9cf1d3c8478003bdcf4ebeb2b633595fd610b5c524ca3cba6dab4035efedce95",
          "blockNumber": "0x74b6f0",
          "transactionHash": "0xf5cde66eec5a0e436a754938d2b34c059c2d570d4165619b596ffbf5bb5c4709",
          "transactionIndex": "0x6f",
          "logIndex": "0x7b",
          "removed": false
        },
        {
          "address": "0xf42bf217a0fb332358cfd48cbb8df35f92c01437",
          "topics": [
            "0xa2d4008be4187c63684f323788e131e1370dbc2205499befe2834005a00c792c"
          ],
          "data": "0x00000000000000000000000018b76224b5f32fbcb08e4ff3e434754abcc07bf9bb2e5aeb51cbaf1dad7b5ec156c2e7a6d4e2732a32b00f40f2cb9bb163bd3a270000000000000000000000000000000000000000000000000000edfcc8fb1e61fffffffffffffffffffffffffffffffffffffffffffffffffffffffffab65900000000000000000000000000000000000000000000000000000000000549a7000000000000000000000000000000000000000000000000001d70712ddacf720b000000000000000000000000000000000000000000000000006a94d74f43000000000000000000000000000000000000000000000000000821aacfdf9998da53",
          "blockHash": "0x9cf1d3c8478003bdcf4ebeb2b633595fd610b5c524ca3cba6dab4035efedce95",
          "blockNumber": "0x74b6f0",
          "transactionHash": "0xf5cde66eec5a0e436a754938d2b34c059c2d570d4165619b596ffbf5bb5c4709",
          "transactionIndex": "0x6f",
          "logIndex": "0x7c",
          "removed": false
        },
        {
          "address": "0xab8da9a292466b49520aa96b5166e9221d73c82a",
          "topics": [
            "0xddf252ad1be2c89b69c2b068fc378daa952ba7f163c4a11628f55a4df523b3ef",
            "0x00000000000000000000000000000c771f6176268d5a9846e0956c3ef58597a1",
            "0x000000000000000000000000f42bf217a0fb332358cfd48cbb8df35f92c01437"
          ],
          "data": "0x00000000000000000000000000000000000000000000000821aacfdf9998da53",
          "blockHash": "0x9cf1d3c8478003bdcf4ebeb2b633595fd610b5c524ca3cba6dab4035efedce95",
          "blockNumber": "0x74b6f0",
          "transactionHash": "0xf5cde66eec5a0e436a754938d2b34c059c2d570d4165619b596ffbf5bb5c4709",
          "transactionIndex": "0x6f",
          "logIndex": "0x7d",
          "removed": false
        }
      ],
      "logsBloom": "0x00000000008000000100000000000000000004000100000000000000000000200000200000000000100000000000000000000000000000000000000000000000100000000000000000000008000000000000100001000000000000000000000020000000020000000000000000000800000000000000000000000010000000000000000000000000000000000008000000000020000100000000000000001000000000000000000040000000000002000000000000000000000000000000000000000002040000000000000000000000000000000000000000000000000020000000001040000000000000000000000000000000840000000000000000000000",
      "type": "0x2",
      "transactionHash": "0xf5cde66eec5a0e436a754938d2b34c059c2d570d4165619b596ffbf5bb5c4709",
      "transactionIndex": "0x6f",
      "blockHash": "0x9cf1d3c8478003bdcf4ebeb2b633595fd610b5c524ca3cba6dab4035efedce95",
      "blockNumber": "0x74b6f0",
      "gasUsed": "0x494e7",
      "effectiveGasPrice": "0x7db1234c",
      "from": "0x00000c771f6176268d5a9846e0956c3ef58597a1",
      "to": "0x18b76224b5f32fbcb08e4ff3e434754abcc07bf9",
      "contractAddress": null
    },
    {
      "status": "0x1",
      "cumulativeGasUsed": "0x142204a",
      "logs": [
        {
          "address": "0x5175ce931b14352cc59495cd2c7eef99ae7484de",
          "topics": [
            "0x125bfa7929686b76004b9ecf89fff5fa1cafc656618b2086e01686bc4063f2dd",
            "0x000000000000000000000000ab8da9a292466b49520aa96b5166e9221d73c82a"
          ],
          "data": "0x0000000000000000000000000000000000000000000000000000000067a4279c00000000000000000000000000000000000000000000000000000000000000000000000000000000000000000000000000000000000000000000000000000000",
          "blockHash": "0x8959d601d894e629b60e994117564e6ffe2ef67d50c1365ed31d4672fa079a59",
          "blockNumber": "0x74b6f1",
          "transactionHash": "0x7e79bd571bf26219c0c5af7d14ca9ee1f5a24001610a6b316a9b2c9b4e1e7b01",
          "transactionIndex": "0x8a",
          "logIndex": "0x19c",
          "removed": false
        },
        {
          "address": "0xf42bf217a0fb332358cfd48cbb8df35f92c01437",
          "topics": [
            "0x5014502cd7c1cd1f671286e947be5af016cf1bff863e084d012d73b1133f7cfb"
          ],
          "data": "0xc8e41f4afcd79223e8481e71d69e55b95c84f87e79cd91e5ccef8fdc01f480b50000000000000000000000000000000000000000000000000000000000000000000000000000000000000000ab8da9a292466b49520aa96b5166e9221d73c82a000000000000000000000000000000000000000000000000000000000000000000000000000000000000000000000000000000000000000000000000000aa8ed0000000000000000000000005175ce931b14352cc59495cd2c7eef99ae7484de00000000000000000000000000000000000000000000000000000000004644f400000000000000000000000000000009ffffd703fc4b70813166c0384b06a36c",
          "blockHash": "0x8959d601d894e629b60e994117564e6ffe2ef67d50c1365ed31d4672fa079a59",
          "blockNumber": "0x74b6f1",
          "transactionHash": "0x7e79bd571bf26219c0c5af7d14ca9ee1f5a24001610a6b316a9b2c9b4e1e7b01",
          "transactionIndex": "0x8a",
          "logIndex": "0x19d",
          "removed": false
        },
        {
          "address": "0x18b76224b5f32fbcb08e4ff3e434754abcc07bf9",
          "topics": [
            "0xddf252ad1be2c89b69c2b068fc378daa952ba7f163c4a11628f55a4df523b3ef",
            "0x0000000000000000000000000000000000000000000000000000000000000000",
            "0x00000000000000000000000000000c771f6176268d5a9846e0956c3ef58597a1",
            "0x000000000000000000000000000000000000000000000000000075b02e2b1347"
          ],
          "data": "0x",
          "blockHash": "0x8959d601d894e629b60e994117564e6ffe2ef67d50c1365ed31d4672fa079a59",
          "blockNumber": "0x74b6f1",
          "transactionHash": "0x7e79bd571bf26219c0c5af7d14ca9ee1f5a24001610a6b316a9b2c9b4e1e7b01",
          "transactionIndex": "0x8a",
          "logIndex": "0x19e",
          "removed": false
        },
        {
          "address": "0xf42bf217a0fb332358cfd48cbb8df35f92c01437",
          "topics": [
            "0xa2d4008be4187c63684f323788e131e1370dbc2205499befe2834005a00c792c"
          ],
          "data": "0x00000000000000000000000018b76224b5f32fbcb08e4ff3e434754abcc07bf9c8e41f4afcd79223e8481e71d69e55b95c84f87e79cd91e5ccef8fdc01f480b5000000000000000000000000000000000000000000000000000075b02e2b1347fffffffffffffffffffffffffffffffffffffffffffffffffffffffffab6326d000000000000000000000000000000000000000000000000000000000549cd930000000000000000000000000000000000000000000000008ac720cbc3f4a9190000000000000000000000000000000000000000000000000de0b6b3a76400000000000000000000000000000000000000000000000000056bc731bdec684497",
          "blockHash": "0x8959d601d894e629b60e994117564e6ffe2ef67d50c1365ed31d4672fa079a59",
          "blockNumber": "0x74b6f1",
          "transactionHash": "0x7e79bd571bf26219c0c5af7d14ca9ee1f5a24001610a6b316a9b2c9b4e1e7b01",
          "transactionIndex": "0x8a",
          "logIndex": "0x19f",
          "removed": false
        },
        {
          "address": "0xab8da9a292466b49520aa96b5166e9221d73c82a",
          "topics": [
            "0xddf252ad1be2c89b69c2b068fc378daa952ba7f163c4a11628f55a4df523b3ef",
            "0x00000000000000000000000000000c771f6176268d5a9846e0956c3ef58597a1",
            "0x000000000000000000000000f42bf217a0fb332358cfd48cbb8df35f92c01437"
          ],
          "data": "0x0000000000000000000000000000000000000000000000056bc731bdec684497",
          "blockHash": "0x8959d601d894e629b60e994117564e6ffe2ef67d50c1365ed31d4672fa079a59",
          "blockNumber": "0x74b6f1",
          "transactionHash": "0x7e79bd571bf26219c0c5af7d14ca9ee1f5a24001610a6b316a9b2c9b4e1e7b01",
          "transactionIndex": "0x8a",
          "logIndex": "0x1a0",
          "removed": false
        }
      ],
      "logsBloom": "0x00000000008000080100000000020000000004000100000000000000000000200000200000000000100000000004000000000000000000000000000000000000100000000000000000000008000000000000500001000000000000000000000022000000020000000000000000000820000020002000000000000010000000000000000000000000000000000008000000800000000100000000000000001000000000000800000040000000000002080000000000000000000000000000000000000002000000000000000000000000000000000000000000000000000020000000001040001000000000000000000000000000840000000000000000000000",
      "type": "0x2",
      "transactionHash": "0x7e79bd571bf26219c0c5af7d14ca9ee1f5a24001610a6b316a9b2c9b4e1e7b01",
      "transactionIndex": "0x8a",
      "blockHash": "0x8959d601d894e629b60e994117564e6ffe2ef67d50c1365ed31d4672fa079a59",
      "blockNumber": "0x74b6f1",
      "gasUsed": "0x51cfb",
      "effectiveGasPrice": "0x77bf6c7e",
      "from": "0x00000c771f6176268d5a9846e0956c3ef58597a1",
      "to": "0x18b76224b5f32fbcb08e4ff3e434754abcc07bf9",
      "contractAddress": null
    }
  ],
  "libraries": [],
  "pending": [],
  "returns": {},
  "timestamp": 1738811293,
  "chain": 11155111,
  "commit": "e754408"
}