{
  "transactions": [
    {
      "hash": "0xe92b8ac61a8d30da233db12d496a7222b6d7ec51326c5e22589c9ddd55e3d456",
      "transactionType": "CREATE",
      "contractName": "TestToken",
      "contractAddress": "0x71c489da6766fed563c2c9c423268698f87966ec",
      "function": null,
      "arguments": [
        "0x00000C771F6176268D5A9846E0956C3eF58597A1"
      ],
      "transaction": {
        "from": "0x00000c771f6176268d5a9846e0956c3ef58597a1",
        "gas": "0xbc67d",
        "value": "0x0",
        "input": "0x60803460ce57601f6109cc38819003918201601f19168301916001600160401b0383118484101760d25780849260209460405283398101031260ce57516001600160a01b038116810360ce576805345cdf77eb68f44c545f19810190811060c1576805345cdf77eb68f44c556387a211a2600c525f526020600c205f1981540190555f19602052600c5160601c5f7fddf252ad1be2c89b69c2b068fc378daa952ba7f163c4a11628f55a4df523b3ef602080a36040516108e590816100e78239f35b63e5cfe9575f526004601cfd5b5f80fd5b634e487b7160e01b5f52604160045260245ffdfe60806040526004361015610011575f80fd5b5f3560e01c806306fdde03146107cc578063095ea7b31461074357806318160ddd1461070057806323b872dd146105fb578063313ce567146105c25780633644e515146104f857806370a08231146104a85780637ecebe001461045857806395d89b41146103a1578063a9059cbb146102f4578063d505accf146100fd5763dd62ed3e1461009d575f80fd5b346100f95760407ffffffffffffffffffffffffffffffffffffffffffffffffffffffffffffffffc3601126100f9576100d461087b565b6100dc61089e565b602052637f5e9f20600c525f5260206034600c2054604051908152f35b5f80fd5b346100f95760e07ffffffffffffffffffffffffffffffffffffffffffffffffffffffffffffffffc3601126100f95761013461087b565b61013c61089e565b6084359160643560443560ff851685036100f9576101586108c1565b60208101907f54657374546f6b656e00000000000000000000000000000000000000000000008252519020908242116102e75773ffffffffffffffffffffffffffffffffffffffff80604051951695169565383775081901600e52855f5260c06020600c20958654957f8b73c3c69bb8fe3d512ecc4cf759cc79239f7b179b0ffacaa9a75d522b39400f8252602082019586528660408301967fc89efdaa54c0f20c7adf612882df0950f5a951637e0307cdcb4c672f298b8bc688528b6060850198468a528c608087019330855260a08820602e527f6e71edae12b1b97f4d1f60370fef10105fa2faae0126114a169c64845d6126c9885252528688525260a082015220604e526042602c205f5260ff1660205260a43560405260c43560605260208060805f60015afa93853d51036102da577f8c5be1e5ebec7d5bd14f71427d1e84f3dd0314c0f7b2291e5b200ac8c7c3b9259460209401905585777f5e9f200000000000000000000000000000000000000000176040526034602c2055a3005b63ddafbaef5f526004601cfd5b631a15a3cc5f526004601cfd5b346100f95760407ffffffffffffffffffffffffffffffffffffffffffffffffffffffffffffffffc3601126100f95761032b61087b565b602435906387a211a2600c52335f526020600c2080548084116103945783900390555f526020600c20818154019055602052600c5160601c337fddf252ad1be2c89b69c2b068fc378daa952ba7f163c4a11628f55a4df523b3ef602080a3602060405160018152f35b63f4d678b85f526004601cfd5b346100f9575f7ffffffffffffffffffffffffffffffffffffffffffffffffffffffffffffffffc3601126100f957604051604081019080821067ffffffffffffffff83111761042b5761042791604052600281527f5454000000000000000000000000000000000000000000000000000000000000602082015260405191829182610833565b0390f35b7f4e487b71000000000000000000000000000000000000000000000000000000005f52604160045260245ffd5b346100f95760207ffffffffffffffffffffffffffffffffffffffffffffffffffffffffffffffffc3601126100f95761048f61087b565b6338377508600c525f52602080600c2054604051908152f35b346100f95760207ffffffffffffffffffffffffffffffffffffffffffffffffffffffffffffffffc3601126100f9576104df61087b565b6387a211a2600c525f52602080600c2054604051908152f35b346100f9575f7ffffffffffffffffffffffffffffffffffffffffffffffffffffffffffffffffc3601126100f957602060a06105326108c1565b828101907f54657374546f6b656e00000000000000000000000000000000000000000000008252519020604051907f8b73c3c69bb8fe3d512ecc4cf759cc79239f7b179b0ffacaa9a75d522b39400f8252838201527fc89efdaa54c0f20c7adf612882df0950f5a951637e0307cdcb4c672f298b8bc6604082015246606082015230608082015220604051908152f35b346100f9575f7ffffffffffffffffffffffffffffffffffffffffffffffffffffffffffffffffc3601126100f957602060405160128152f35b346100f95760607ffffffffffffffffffffffffffffffffffffffffffffffffffffffffffffffffc3601126100f95761063261087b565b61063a61089e565b604435908260601b33602052637f5e9f208117600c526034600c209081549182196106dc575b506387a211a2915017600c526020600c2080548084116103945783900390555f526020600c2081815401905560205273ffffffffffffffffffffffffffffffffffffffff600c5160601c91167fddf252ad1be2c89b69c2b068fc378daa952ba7f163c4a11628f55a4df523b3ef602080a3602060405160018152f35b8285116106f357846387a211a29303905585610660565b6313be252b5f526004601cfd5b346100f9575f7ffffffffffffffffffffffffffffffffffffffffffffffffffffffffffffffffc3601126100f95760206805345cdf77eb68f44c54604051908152f35b346100f95760407ffffffffffffffffffffffffffffffffffffffffffffffffffffffffffffffffc3601126100f95761077a61087b565b60243590602052637f5e9f20600c52335f52806034600c20555f52602c5160601c337f8c5be1e5ebec7d5bd14f71427d1e84f3dd0314c0f7b2291e5b200ac8c7c3b92560205fa3602060405160018152f35b346100f9575f7ffffffffffffffffffffffffffffffffffffffffffffffffffffffffffffffffc3601126100f9576104276108056108c1565b7f54657374546f6b656e00000000000000000000000000000000000000000000006020820152604051918291825b7fffffffffffffffffffffffffffffffffffffffffffffffffffffffffffffffe0601f602060409481855280519182918282880152018686015e5f8582860101520116010190565b6004359073ffffffffffffffffffffffffffffffffffffffff821682036100f957565b6024359073ffffffffffffffffffffffffffffffffffffffff821682036100f957565b604051906040820182811067ffffffffffffffff82111761042b57604052600982525600000000000000000000000000000c771f6176268d5a9846e0956c3ef58597a1",
        "nonce": "0x373",
        "chainId": "0xaa36a7"
      },
      "additionalContracts": [],
      "isFixedGasLimit": false
    },
    {
      "hash": "0xa0244868fd0a27c922bd23bf2b552be2e79f12e2aebbb7f05804db55e725ff61",
      "transactionType": "CALL",
      "contractName": "TestToken",
      "contractAddress": "0x71c489da6766fed563c2c9c423268698f87966ec",
      "function": "approve(address,uint256)",
      "arguments": [
        "0x82d25D06A00F04bae3a19107a8131afC019F3ADf",
        "115792089237316195423570985008687907853269984665640564039457584007913129639935"
      ],
      "transaction": {
        "from": "0x00000c771f6176268d5a9846e0956c3ef58597a1",
        "to": "0x71c489da6766fed563c2c9c423268698f87966ec",
        "gas": "0xf8eb",
        "value": "0x0",
        "input": "0x095ea7b300000000000000000000000082d25d06a00f04bae3a19107a8131afc019f3adfffffffffffffffffffffffffffffffffffffffffffffffffffffffffffffffff",
        "nonce": "0x374",
        "chainId": "0xaa36a7"
      },
      "additionalContracts": [],
      "isFixedGasLimit": false
    },
    {
      "hash": "0x8ab28b280fdf2a55f3ae83f3f53c5a5ea58230c0b8f663185241c3204f416c35",
      "transactionType": "CALL",
      "contractName": "TestToken",
      "contractAddress": "0x71c489da6766fed563c2c9c423268698f87966ec",
      "function": "approve(address,uint256)",
      "arguments": [
        "0x75166E153b72f913Aa21E1d1d83cD10454C6BFf6",
        "115792089237316195423570985008687907853269984665640564039457584007913129639935"
      ],
      "transaction": {
        "from": "0x00000c771f6176268d5a9846e0956c3ef58597a1",
        "to": "0x71c489da6766fed563c2c9c423268698f87966ec",
        "gas": "0xf8eb",
        "value": "0x0",
        "input": "0x095ea7b300000000000000000000000075166e153b72f913aa21e1d1d83cd10454c6bff6ffffffffffffffffffffffffffffffffffffffffffffffffffffffffffffffff",
        "nonce": "0x375",
        "chainId": "0xaa36a7"
      },
      "additionalContracts": [],
      "isFixedGasLimit": false
    },
    {
      "hash": "0x407485a51172a86370779a565080c5278ec80e6eda4277282fb8fabd9b9dc1d1",
      "transactionType": "CALL",
      "contractName": null,
      "contractAddress": "0x75166e153b72f913aa21e1d1d83cd10454c6bff6",
      "function": "multicall(bytes[])",
      "arguments": [
        "[0xf3e32468000000000000000000000000000000000000000000000000000000000000000000000000000000000000000071c489da6766fed563c2c9c423268698f87966ec000000000000000000000000000000000000000000c49ba5e353f7ce0000175e000000000000000000000000000000000000000000000000000000000081f64d, 0x9df3913d5695884aee5d7c48043574875f8d62e51f4600e7a81d0f30ba74308a14918d7c000000000000000000000000000000000000000000000000000000000000000000000000000000000000000071c489da6766fed563c2c9c423268698f87966ec000000000000000000000000000000000000000000c49ba5e353f7ce0000175efffffffffffffffffffffffffffffffffffffffffffffffffffffffffab6413e000000000000000000000000000000000000000000000000000000000549bec2000000000000000000000000000000000000000000000000002386f26fc10000000000000000000000000000000000000000000000000002b5e3af16b18800000000000000000000000000000000000000000000000000000000000000000000, 0x41865270]"
      ],
      "transaction": {
        "from": "0x00000c771f6176268d5a9846e0956c3ef58597a1",
        "to": "0x75166e153b72f913aa21e1d1d83cd10454c6bff6",
        "gas": "0x698a4",
        "value": "0x2386f26fc10000",
        "input": "0xac9650d8000000000000000000000000000000000000000000000000000000000000002000000000000000000000000000000000000000000000000000000000000000030000000000000000000000000000000000000000000000000000000000000060000000000000000000000000000000000000000000000000000000000000012000000000000000000000000000000000000000000000000000000000000002800000000000000000000000000000000000000000000000000000000000000084f3e32468000000000000000000000000000000000000000000000000000000000000000000000000000000000000000071c489da6766fed563c2c9c423268698f87966ec000000000000000000000000000000000000000000c49ba5e353f7ce0000175e000000000000000000000000000000000000000000000000000000000081f64d0000000000000000000000000000000000000000000000000000000000000000000000000000000000000000000000000000000000000000000001249df3913d5695884aee5d7c48043574875f8d62e51f4600e7a81d0f30ba74308a14918d7c000000000000000000000000000000000000000000000000000000000000000000000000000000000000000071c489da6766fed563c2c9c423268698f87966ec000000000000000000000000000000000000000000c49ba5e353f7ce0000175efffffffffffffffffffffffffffffffffffffffffffffffffffffffffab6413e000000000000000000000000000000000000000000000000000000000549bec2000000000000000000000000000000000000000000000000002386f26fc10000000000000000000000000000000000000000000000000002b5e3af16b188000000000000000000000000000000000000000000000000000000000000000000000000000000000000000000000000000000000000000000000000000000000000000000000000000000000000000000000000000000000000000000044186527000000000000000000000000000000000000000000000000000000000",
        "nonce": "0x376",
        "chainId": "0xaa36a7"
      },
      "additionalContracts": [],
      "isFixedGasLimit": false
    },
    {
      "hash": "0x908712f18d383c2675099ddaddd85a783cbfe7a2fc76c5e904b3689563f2f29c",
      "transactionType": "CALL",
      "contractName": null,
      "contractAddress": "0x82d25d06a00f04bae3a19107a8131afc019f3adf",
      "function": "swap((address,address,bytes32),bool,int128,uint96,uint256)",
      "arguments": [
        "(0x0000000000000000000000000000000000000000, 0x71C489Da6766FEd563C2c9c423268698F87966Ec, 0x000000000000000000000000000000000000000000c49ba5e353f7ce0000175e)",
        "false",
        "100000",
        "0",
        "0"
      ],
      "transaction": {
        "from": "0x00000c771f6176268d5a9846e0956c3ef58597a1",
        "to": "0x82d25d06a00f04bae3a19107a8131afc019f3adf",
        "gas": "0x208aa",
        "value": "0x186a0",
        "input": "0x06b81a15000000000000000000000000000000000000000000000000000000000000000000000000000000000000000071c489da6766fed563c2c9c423268698f87966ec000000000000000000000000000000000000000000c49ba5e353f7ce0000175e000000000000000000000000000000000000000000000000000000000000000000000000000000000000000000000000000000000000000000000000000186a000000000000000000000000000000000000000000000000000000000000000000000000000000000000000000000000000000000000000000000000000000000",
        "nonce": "0x377",
        "chainId": "0xaa36a7"
      },
      "additionalContracts": [],
      "isFixedGasLimit": false
    },
    {
      "hash": "0x7deaf9f2f20a776f1d480059f0d625978f49f22afaff3aa2a6464e3f08b465b7",
      "transactionType": "CALL",
      "contractName": null,
      "contractAddress": "0x82d25d06a00f04bae3a19107a8131afc019f3adf",
      "function": "swap((address,address,bytes32),bool,int128,uint96,uint256)",
      "arguments": [
        "(0x0000000000000000000000000000000000000000, 0x71C489Da6766FEd563C2c9c423268698F87966Ec, 0x000000000000000000000000000000000000000000c49ba5e353f7ce0000175e)",
        "true",
        "500000000",
        "0",
        "0"
      ],
      "transaction": {
        "from": "0x00000c771f6176268d5a9846e0956c3ef58597a1",
        "to": "0x82d25d06a00f04bae3a19107a8131afc019f3adf",
        "gas": "0x22d95",
        "value": "0x0",
        "input": "0x06b81a15000000000000000000000000000000000000000000000000000000000000000000000000000000000000000071c489da6766fed563c2c9c423268698f87966ec000000000000000000000000000000000000000000c49ba5e353f7ce0000175e0000000000000000000000000000000000000000000000000000000000000001000000000000000000000000000000000000000000000000000000001dcd650000000000000000000000000000000000000000000000000000000000000000000000000000000000000000000000000000000000000000000000000000000000",
        "nonce": "0x378",
        "chainId": "0xaa36a7"
      },
      "additionalContracts": [],
      "isFixedGasLimit": false
    },
    {
      "hash": "0xf3382e06c8026f678af6271c4d318279d2e9a567998041f8056f784c0b23e751",
      "transactionType": "CALL",
      "contractName": null,
      "contractAddress": "0x82d25d06a00f04bae3a19107a8131afc019f3adf",
      "function": "swap((address,address,bytes32),bool,int128,uint96,uint256)",
      "arguments": [
        "(0x0000000000000000000000000000000000000000, 0x71C489Da6766FEd563C2c9c423268698F87966Ec, 0x000000000000000000000000000000000000000000c49ba5e353f7ce0000175e)",
        "false",
        "100000",
        "0",
        "0"
      ],
      "transaction": {
        "from": "0x00000c771f6176268d5a9846e0956c3ef58597a1",
        "to": "0x82d25d06a00f04bae3a19107a8131afc019f3adf",
        "gas": "0x1ac66",
        "value": "0x186a0",
        "input": "0x06b81a15000000000000000000000000000000000000000000000000000000000000000000000000000000000000000071c489da6766fed563c2c9c423268698f87966ec000000000000000000000000000000000000000000c49ba5e353f7ce0000175e000000000000000000000000000000000000000000000000000000000000000000000000000000000000000000000000000000000000000000000000000186a000000000000000000000000000000000000000000000000000000000000000000000000000000000000000000000000000000000000000000000000000000000",
        "nonce": "0x379",
        "chainId": "0xaa36a7"
      },
      "additionalContracts": [],
      "isFixedGasLimit": false
    },
    {
      "hash": "0xa94ba6f1598a92e4ce639332288f31ad279ee43a114cbaaf38403ba23c70a6f6",
      "transactionType": "CALL",
      "contractName": null,
      "contractAddress": "0x82d25d06a00f04bae3a19107a8131afc019f3adf",
      "function": "swap((address,address,bytes32),bool,int128,uint96,uint256)",
      "arguments": [
        "(0x0000000000000000000000000000000000000000, 0x71C489Da6766FEd563C2c9c423268698F87966Ec, 0x000000000000000000000000000000000000000000c49ba5e353f7ce0000175e)",
        "true",
        "500000000",
        "0",
        "0"
      ],
      "transaction": {
        "from": "0x00000c771f6176268d5a9846e0956c3ef58597a1",
        "to": "0x82d25d06a00f04bae3a19107a8131afc019f3adf",
        "gas": "0x1ecb1",
        "value": "0x0",
        "input": "0x06b81a15000000000000000000000000000000000000000000000000000000000000000000000000000000000000000071c489da6766fed563c2c9c423268698f87966ec000000000000000000000000000000000000000000c49ba5e353f7ce0000175e0000000000000000000000000000000000000000000000000000000000000001000000000000000000000000000000000000000000000000000000001dcd650000000000000000000000000000000000000000000000000000000000000000000000000000000000000000000000000000000000000000000000000000000000",
        "nonce": "0x37a",
        "chainId": "0xaa36a7"
      },
      "additionalContracts": [],
      "isFixedGasLimit": false
    },
    {
      "hash": "0xf14e871238bcedf3ce3172c6e954fe42c7220901ed35e30227a2210b0b07d5a8",
      "transactionType": "CALL",
      "contractName": null,
      "contractAddress": "0x75166e153b72f913aa21e1d1d83cd10454c6bff6",
      "function": "multicall(bytes[])",
      "arguments": [
        "[0xf3e32468000000000000000000000000000000000000000000000000000000000000000000000000000000000000000071c489da6766fed563c2c9c423268698f87966ec000000000000000000000000000000000000000000c49ba5e353f7ce00000000000000000000000000000000000000000000000000000000000000000081f64d, 0x9df3913d5695884aee5d7c48043574875f8d62e51f4600e7a81d0f30ba74308a14918d7d000000000000000000000000000000000000000000000000000000000000000000000000000000000000000071c489da6766fed563c2c9c423268698f87966ec000000000000000000000000000000000000000000c49ba5e353f7ce00000000fffffffffffffffffffffffffffffffffffffffffffffffffffffffffab6326d000000000000000000000000000000000000000000000000000000000549cd93000000000000000000000000000000000000000000000000002386f26fc10000000000000000000000000000000000000000000000000002b5e3af16b18800000000000000000000000000000000000000000000000000000000000000000000, 0x41865270]"
      ],
      "transaction": {
        "from": "0x00000c771f6176268d5a9846e0956c3ef58597a1",
        "to": "0x75166e153b72f913aa21e1d1d83cd10454c6bff6",
        "gas": "0x3f9d1",
        "value": "0x2386f26fc10000",
        "input": "0xac9650d8000000000000000000000000000000000000000000000000000000000000002000000000000000000000000000000000000000000000000000000000000000030000000000000000000000000000000000000000000000000000000000000060000000000000000000000000000000000000000000000000000000000000012000000000000000000000000000000000000000000000000000000000000002800000000000000000000000000000000000000000000000000000000000000084f3e32468000000000000000000000000000000000000000000000000000000000000000000000000000000000000000071c489da6766fed563c2c9c423268698f87966ec000000000000000000000000000000000000000000c49ba5e353f7ce00000000000000000000000000000000000000000000000000000000000000000081f64d0000000000000000000000000000000000000000000000000000000000000000000000000000000000000000000000000000000000000000000001249df3913d5695884aee5d7c48043574875f8d62e51f4600e7a81d0f30ba74308a14918d7d000000000000000000000000000000000000000000000000000000000000000000000000000000000000000071c489da6766fed563c2c9c423268698f87966ec000000000000000000000000000000000000000000c49ba5e353f7ce00000000fffffffffffffffffffffffffffffffffffffffffffffffffffffffffab6326d000000000000000000000000000000000000000000000000000000000549cd93000000000000000000000000000000000000000000000000002386f26fc10000000000000000000000000000000000000000000000000002b5e3af16b188000000000000000000000000000000000000000000000000000000000000000000000000000000000000000000000000000000000000000000000000000000000000000000000000000000000000000000000000000000000000000000044186527000000000000000000000000000000000000000000000000000000000",
        "nonce": "0x37b",
        "chainId": "0xaa36a7"
      },
      "additionalContracts": [],
      "isFixedGasLimit": false
    },
    {
      "hash": "0x460268cbd8e66b730f762f345659b052580686923eaf9ad47fa54e8dc7bf5c1f",
      "transactionType": "CALL",
      "contractName": null,
      "contractAddress": "0x82d25d06a00f04bae3a19107a8131afc019f3adf",
      "function": "swap((address,address,bytes32),bool,int128,uint96,uint256)",
      "arguments": [
        "(0x0000000000000000000000000000000000000000, 0x71C489Da6766FEd563C2c9c423268698F87966Ec, 0x000000000000000000000000000000000000000000c49ba5e353f7ce00000000)",
        "false",
        "100000",
        "0",
        "0"
      ],
      "transaction": {
        "from": "0x00000c771f6176268d5a9846e0956c3ef58597a1",
        "to": "0x82d25d06a00f04bae3a19107a8131afc019f3adf",
        "gas": "0x1f370",
        "value": "0x186a0",
        "input": "0x06b81a15000000000000000000000000000000000000000000000000000000000000000000000000000000000000000071c489da6766fed563c2c9c423268698f87966ec000000000000000000000000000000000000000000c49ba5e353f7ce00000000000000000000000000000000000000000000000000000000000000000000000000000000000000000000000000000000000000000000000000000000000186a000000000000000000000000000000000000000000000000000000000000000000000000000000000000000000000000000000000000000000000000000000000",
        "nonce": "0x37c",
        "chainId": "0xaa36a7"
      },
      "additionalContracts": [],
      "isFixedGasLimit": false
    },
    {
      "hash": "0x0bb3ab0eadaba3ae8a495560a920ebf1e9a47cb8db9b17dedff85845df8489b7",
      "transactionType": "CALL",
      "contractName": null,
      "contractAddress": "0x82d25d06a00f04bae3a19107a8131afc019f3adf",
      "function": "swap((address,address,bytes32),bool,int128,uint96,uint256)",
      "arguments": [
        "(0x0000000000000000000000000000000000000000, 0x71C489Da6766FEd563C2c9c423268698F87966Ec, 0x000000000000000000000000000000000000000000c49ba5e353f7ce00000000)",
        "true",
        "500000000",
        "0",
        "0"
      ],
      "transaction": {
        "from": "0x00000c771f6176268d5a9846e0956c3ef58597a1",
        "to": "0x82d25d06a00f04bae3a19107a8131afc019f3adf",
        "gas": "0x23826",
        "value": "0x0",
        "input": "0x06b81a15000000000000000000000000000000000000000000000000000000000000000000000000000000000000000071c489da6766fed563c2c9c423268698f87966ec000000000000000000000000000000000000000000c49ba5e353f7ce000000000000000000000000000000000000000000000000000000000000000000000001000000000000000000000000000000000000000000000000000000001dcd650000000000000000000000000000000000000000000000000000000000000000000000000000000000000000000000000000000000000000000000000000000000",
        "nonce": "0x37d",
        "chainId": "0xaa36a7"
      },
      "additionalContracts": [],
      "isFixedGasLimit": false
    },
    {
      "hash": "0x98d751e91268f9bbcad878c015fe6f90a64cbdd82ad20c1e0ec88417801dc311",
      "transactionType": "CALL",
      "contractName": null,
      "contractAddress": "0x82d25d06a00f04bae3a19107a8131afc019f3adf",
      "function": "swap((address,address,bytes32),bool,int128,uint96,uint256)",
      "arguments": [
        "(0x0000000000000000000000000000000000000000, 0x71C489Da6766FEd563C2c9c423268698F87966Ec, 0x000000000000000000000000000000000000000000c49ba5e353f7ce00000000)",
        "false",
        "100000",
        "0",
        "0"
      ],
      "transaction": {
        "from": "0x00000c771f6176268d5a9846e0956c3ef58597a1",
        "to": "0x82d25d06a00f04bae3a19107a8131afc019f3adf",
        "gas": "0x1af20",
        "value": "0x186a0",
        "input": "0x06b81a15000000000000000000000000000000000000000000000000000000000000000000000000000000000000000071c489da6766fed563c2c9c423268698f87966ec000000000000000000000000000000000000000000c49ba5e353f7ce00000000000000000000000000000000000000000000000000000000000000000000000000000000000000000000000000000000000000000000000000000000000186a000000000000000000000000000000000000000000000000000000000000000000000000000000000000000000000000000000000000000000000000000000000",
        "nonce": "0x37e",
        "chainId": "0xaa36a7"
      },
      "additionalContracts": [],
      "isFixedGasLimit": false
    },
    {
      "hash": "0x0861c3bf6e6e4cc5a03d919e04bce802dd89c0fe75e26951562e29b10ebb431b",
      "transactionType": "CALL",
      "contractName": null,
      "contractAddress": "0x82d25d06a00f04bae3a19107a8131afc019f3adf",
      "function": "swap((address,address,bytes32),bool,int128,uint96,uint256)",
      "arguments": [
        "(0x0000000000000000000000000000000000000000, 0x71C489Da6766FEd563C2c9c423268698F87966Ec, 0x000000000000000000000000000000000000000000c49ba5e353f7ce00000000)",
        "true",
        "500000000",
        "0",
        "0"
      ],
      "transaction": {
        "from": "0x00000c771f6176268d5a9846e0956c3ef58597a1",
        "to": "0x82d25d06a00f04bae3a19107a8131afc019f3adf",
        "gas": "0x1bc52",
        "value": "0x0",
        "input": "0x06b81a15000000000000000000000000000000000000000000000000000000000000000000000000000000000000000071c489da6766fed563c2c9c423268698f87966ec000000000000000000000000000000000000000000c49ba5e353f7ce000000000000000000000000000000000000000000000000000000000000000000000001000000000000000000000000000000000000000000000000000000001dcd650000000000000000000000000000000000000000000000000000000000000000000000000000000000000000000000000000000000000000000000000000000000",
        "nonce": "0x37f",
        "chainId": "0xaa36a7"
      },
      "additionalContracts": [],
      "isFixedGasLimit": false
    },
    {
      "hash": "0xef7a85e1be79e57068ccaeaf8bfabd53a9e8a5e6abbc5cb21dde810081588dcf",
      "transactionType": "CALL",
      "contractName": null,
      "contractAddress": "0x75166e153b72f913aa21e1d1d83cd10454c6bff6",
      "function": "multicall(bytes[])",
      "arguments": [
        "[0xf3e32468000000000000000000000000000000000000000000000000000000000000000000000000000000000000000071c489da6766fed563c2c9c423268698f87966ec519c98252304a4933cdef1e66f139dfb0e2d246200000000000000000000000000000000000000000000000000000000000000000000000000000000004644f4, 0x9df3913d5695884aee5d7c48043574875f8d62e51f4600e7a81d0f30ba74308a14918d7e000000000000000000000000000000000000000000000000000000000000000000000000000000000000000071c489da6766fed563c2c9c423268698f87966ec519c98252304a4933cdef1e66f139dfb0e2d2462000000000000000000000000fffffffffffffffffffffffffffffffffffffffffffffffffffffffffab6326d000000000000000000000000000000000000000000000000000000000549cd93000000000000000000000000000000000000000000000000002386f26fc100000000000000000000000000000000000000000000000000000de0b6b3a76400000000000000000000000000000000000000000000000000000000000000000000, 0x41865270]"
      ],
      "transaction": {
        "from": "0x00000c771f6176268d5a9846e0956c3ef58597a1",
        "to": "0x75166e153b72f913aa21e1d1d83cd10454c6bff6",
        "gas": "0x4ed34",
        "value": "0x2386f26fc10000",
        "input": "0xac9650d8000000000000000000000000000000000000000000000000000000000000002000000000000000000000000000000000000000000000000000000000000000030000000000000000000000000000000000000000000000000000000000000060000000000000000000000000000000000000000000000000000000000000012000000000000000000000000000000000000000000000000000000000000002800000000000000000000000000000000000000000000000000000000000000084f3e32468000000000000000000000000000000000000000000000000000000000000000000000000000000000000000071c489da6766fed563c2c9c423268698f87966ec519c98252304a4933cdef1e66f139dfb0e2d246200000000000000000000000000000000000000000000000000000000000000000000000000000000004644f40000000000000000000000000000000000000000000000000000000000000000000000000000000000000000000000000000000000000000000001249df3913d5695884aee5d7c48043574875f8d62e51f4600e7a81d0f30ba74308a14918d7e000000000000000000000000000000000000000000000000000000000000000000000000000000000000000071c489da6766fed563c2c9c423268698f87966ec519c98252304a4933cdef1e66f139dfb0e2d2462000000000000000000000000fffffffffffffffffffffffffffffffffffffffffffffffffffffffffab6326d000000000000000000000000000000000000000000000000000000000549cd93000000000000000000000000000000000000000000000000002386f26fc100000000000000000000000000000000000000000000000000000de0b6b3a764000000000000000000000000000000000000000000000000000000000000000000000000000000000000000000000000000000000000000000000000000000000000000000000000000000000000000000000000000000000000000000044186527000000000000000000000000000000000000000000000000000000000",
        "nonce": "0x380",
        "chainId": "0xaa36a7"
      },
      "additionalContracts": [],
      "isFixedGasLimit": false
    },
    {
      "hash": "0xadc8cacb1293d011a138dcd0aec77eee77c0766a8bec15c6ff681cac7c9970e1",
      "transactionType": "CALL",
      "contractName": null,
      "contractAddress": "0x82d25d06a00f04bae3a19107a8131afc019f3adf",
      "function": "swap((address,address,bytes32),bool,int128,uint96,uint256)",
      "arguments": [
        "(0x0000000000000000000000000000000000000000, 0x71C489Da6766FEd563C2c9c423268698F87966Ec, 0x519c98252304a4933cdef1e66f139dfb0e2d2462000000000000000000000000)",
        "false",
        "100000",
        "0",
        "0"
      ],
      "transaction": {
        "from": "0x00000c771f6176268d5a9846e0956c3ef58597a1",
        "to": "0x82d25d06a00f04bae3a19107a8131afc019f3adf",
        "gas": "0x1c503",
        "value": "0x186a0",
        "input": "0x06b81a15000000000000000000000000000000000000000000000000000000000000000000000000000000000000000071c489da6766fed563c2c9c423268698f87966ec519c98252304a4933cdef1e66f139dfb0e2d2462000000000000000000000000000000000000000000000000000000000000000000000000000000000000000000000000000000000000000000000000000000000000000000000000000186a000000000000000000000000000000000000000000000000000000000000000000000000000000000000000000000000000000000000000000000000000000000",
        "nonce": "0x381",
        "chainId": "0xaa36a7"
      },
      "additionalContracts": [],
      "isFixedGasLimit": false
    },
    {
      "hash": "0xc1f190dc07e5dcadcb14525b953429d00a45c3f66ef56d85e7edc350a285c77e",
      "transactionType": "CALL",
      "contractName": null,
      "contractAddress": "0x82d25d06a00f04bae3a19107a8131afc019f3adf",
      "function": "swap((address,address,bytes32),bool,int128,uint96,uint256)",
      "arguments": [
        "(0x0000000000000000000000000000000000000000, 0x71C489Da6766FEd563C2c9c423268698F87966Ec, 0x519c98252304a4933cdef1e66f139dfb0e2d2462000000000000000000000000)",
        "true",
        "500000000",
        "0",
        "0"
      ],
      "transaction": {
        "from": "0x00000c771f6176268d5a9846e0956c3ef58597a1",
        "to": "0x82d25d06a00f04bae3a19107a8131afc019f3adf",
        "gas": "0x1d0fe",
        "value": "0x0",
        "input": "0x06b81a15000000000000000000000000000000000000000000000000000000000000000000000000000000000000000071c489da6766fed563c2c9c423268698f87966ec519c98252304a4933cdef1e66f139dfb0e2d24620000000000000000000000000000000000000000000000000000000000000000000000000000000000000001000000000000000000000000000000000000000000000000000000001dcd650000000000000000000000000000000000000000000000000000000000000000000000000000000000000000000000000000000000000000000000000000000000",
        "nonce": "0x382",
        "chainId": "0xaa36a7"
      },
      "additionalContracts": [],
      "isFixedGasLimit": false
    },
    {
      "hash": "0xa73b0b4f3a4a5b8470b4da287fe335b0f807590b517d5483e27897cd131ad872",
      "transactionType": "CALL",
      "contractName": null,
      "contractAddress": "0x82d25d06a00f04bae3a19107a8131afc019f3adf",
      "function": "swap((address,address,bytes32),bool,int128,uint96,uint256)",
      "arguments": [
        "(0x0000000000000000000000000000000000000000, 0x71C489Da6766FEd563C2c9c423268698F87966Ec, 0x519c98252304a4933cdef1e66f139dfb0e2d2462000000000000000000000000)",
        "false",
        "100000",
        "0",
        "0"
      ],
      "transaction": {
        "from": "0x00000c771f6176268d5a9846e0956c3ef58597a1",
        "to": "0x82d25d06a00f04bae3a19107a8131afc019f3adf",
        "gas": "0x1abde",
        "value": "0x186a0",
        "input": "0x06b81a15000000000000000000000000000000000000000000000000000000000000000000000000000000000000000071c489da6766fed563c2c9c423268698f87966ec519c98252304a4933cdef1e66f139dfb0e2d2462000000000000000000000000000000000000000000000000000000000000000000000000000000000000000000000000000000000000000000000000000000000000000000000000000186a000000000000000000000000000000000000000000000000000000000000000000000000000000000000000000000000000000000000000000000000000000000",
        "nonce": "0x383",
        "chainId": "0xaa36a7"
      },
      "additionalContracts": [],
      "isFixedGasLimit": false
    },
    {
      "hash": "0x8c08a82aa49557a588469e9a4a86dcaf1c6130f61b170a4a0afa5f3c0e1cbecf",
      "transactionType": "CALL",
      "contractName": null,
      "contractAddress": "0x82d25d06a00f04bae3a19107a8131afc019f3adf",
      "function": "swap((address,address,bytes32),bool,int128,uint96,uint256)",
      "arguments": [
        "(0x0000000000000000000000000000000000000000, 0x71C489Da6766FEd563C2c9c423268698F87966Ec, 0x519c98252304a4933cdef1e66f139dfb0e2d2462000000000000000000000000)",
        "true",
        "500000000",
        "0",
        "0"
      ],
      "transaction": {
        "from": "0x00000c771f6176268d5a9846e0956c3ef58597a1",
        "to": "0x82d25d06a00f04bae3a19107a8131afc019f3adf",
        "gas": "0x1d0fe",
        "value": "0x0",
        "input": "0x06b81a15000000000000000000000000000000000000000000000000000000000000000000000000000000000000000071c489da6766fed563c2c9c423268698f87966ec519c98252304a4933cdef1e66f139dfb0e2d24620000000000000000000000000000000000000000000000000000000000000000000000000000000000000001000000000000000000000000000000000000000000000000000000001dcd650000000000000000000000000000000000000000000000000000000000000000000000000000000000000000000000000000000000000000000000000000000000",
        "nonce": "0x384",
        "chainId": "0xaa36a7"
      },
      "additionalContracts": [],
      "isFixedGasLimit": false
    },
    {
      "hash": "0x2e81c9f11a59a8da2b274e45c93d8fd6dd1d73e50d0c42a3507f59a3449402ef",
      "transactionType": "CALL",
      "contractName": null,
      "contractAddress": "0x75166e153b72f913aa21e1d1d83cd10454c6bff6",
      "function": "multicall(bytes[])",
      "arguments": [
        "[0xf3e32468000000000000000000000000000000000000000000000000000000000000000000000000000000000000000071c489da6766fed563c2c9c423268698f87966ec0000000000000000000000000000000000000000028f5c28f5c28f5c00004d5a000000000000000000000000000000000000000000000000000000000081f64d, 0x9df3913d5695884aee5d7c48043574875f8d62e51f4600e7a81d0f30ba74308a14918d7f000000000000000000000000000000000000000000000000000000000000000000000000000000000000000071c489da6766fed563c2c9c423268698f87966ec0000000000000000000000000000000000000000028f5c28f5c28f5c00004d5afffffffffffffffffffffffffffffffffffffffffffffffffffffffffab65900000000000000000000000000000000000000000000000000000000000549a700000000000000000000000000000000000000000000000000006a94d74f43000000000000000000000000000000000000000000000000001043561a88293000000000000000000000000000000000000000000000000000000000000000000000, 0x41865270]"
      ],
      "transaction": {
        "from": "0x00000c771f6176268d5a9846e0956c3ef58597a1",
        "to": "0x75166e153b72f913aa21e1d1d83cd10454c6bff6",
        "gas": "0x5dbcd",
        "value": "0x6a94d74f430000",
        "input": "0xac9650d8000000000000000000000000000000000000000000000000000000000000002000000000000000000000000000000000000000000000000000000000000000030000000000000000000000000000000000000000000000000000000000000060000000000000000000000000000000000000000000000000000000000000012000000000000000000000000000000000000000000000000000000000000002800000000000000000000000000000000000000000000000000000000000000084f3e32468000000000000000000000000000000000000000000000000000000000000000000000000000000000000000071c489da6766fed563c2c9c423268698f87966ec0000000000000000000000000000000000000000028f5c28f5c28f5c00004d5a000000000000000000000000000000000000000000000000000000000081f64d0000000000000000000000000000000000000000000000000000000000000000000000000000000000000000000000000000000000000000000001249df3913d5695884aee5d7c48043574875f8d62e51f4600e7a81d0f30ba74308a14918d7f000000000000000000000000000000000000000000000000000000000000000000000000000000000000000071c489da6766fed563c2c9c423268698f87966ec0000000000000000000000000000000000000000028f5c28f5c28f5c00004d5afffffffffffffffffffffffffffffffffffffffffffffffffffffffffab65900000000000000000000000000000000000000000000000000000000000549a700000000000000000000000000000000000000000000000000006a94d74f43000000000000000000000000000000000000000000000000001043561a882930000000000000000000000000000000000000000000000000000000000000000000000000000000000000000000000000000000000000000000000000000000000000000000000000000000000000000000000000000000000000000000044186527000000000000000000000000000000000000000000000000000000000",
        "nonce": "0x385",
        "chainId": "0xaa36a7"
      },
      "additionalContracts": [],
      "isFixedGasLimit": false
    },
    {
      "hash": "0x821eeaeed4c3bf817a43ff3197406bfabeb4d1aed6ff33ba99a008bd665dcc75",
      "transactionType": "CALL",
      "contractName": null,
      "contractAddress": "0x75166e153b72f913aa21e1d1d83cd10454c6bff6",
      "function": "multicall(bytes[])",
      "arguments": [
        "[0xf3e32468000000000000000000000000000000000000000000000000000000000000000000000000000000000000000071c489da6766fed563c2c9c423268698f87966ecd03417f73b726b310e12eb64274060069d06ca22028f5c28f5c28f5c00000000000000000000000000000000000000000000000000000000000000000081f64d, 0x9df3913d5695884aee5d7c48043574875f8d62e51f4600e7a81d0f30ba74308a14918d80000000000000000000000000000000000000000000000000000000000000000000000000000000000000000071c489da6766fed563c2c9c423268698f87966ecd03417f73b726b310e12eb64274060069d06ca22028f5c28f5c28f5c00000000fffffffffffffffffffffffffffffffffffffffffffffffffffffffffab6326d000000000000000000000000000000000000000000000000000000000549cd93000000000000000000000000000000000000000000000000006a94d74f43000000000000000000000000000000000000000000000000001043561a88293000000000000000000000000000000000000000000000000000000000000000000000, 0x41865270]"
      ],
      "transaction": {
        "from": "0x00000c771f6176268d5a9846e0956c3ef58597a1",
        "to": "0x75166e153b72f913aa21e1d1d83cd10454c6bff6",
        "gas": "0x4f304",
        "value": "0x6a94d74f430000",
        "input": "0xac9650d8000000000000000000000000000000000000000000000000000000000000002000000000000000000000000000000000000000000000000000000000000000030000000000000000000000000000000000000000000000000000000000000060000000000000000000000000000000000000000000000000000000000000012000000000000000000000000000000000000000000000000000000000000002800000000000000000000000000000000000000000000000000000000000000084f3e32468000000000000000000000000000000000000000000000000000000000000000000000000000000000000000071c489da6766fed563c2c9c423268698f87966ecd03417f73b726b310e12eb64274060069d06ca22028f5c28f5c28f5c00000000000000000000000000000000000000000000000000000000000000000081f64d0000000000000000000000000000000000000000000000000000000000000000000000000000000000000000000000000000000000000000000001249df3913d5695884aee5d7c48043574875f8d62e51f4600e7a81d0f30ba74308a14918d80000000000000000000000000000000000000000000000000000000000000000000000000000000000000000071c489da6766fed563c2c9c423268698f87966ecd03417f73b726b310e12eb64274060069d06ca22028f5c28f5c28f5c00000000fffffffffffffffffffffffffffffffffffffffffffffffffffffffffab6326d000000000000000000000000000000000000000000000000000000000549cd93000000000000000000000000000000000000000000000000006a94d74f43000000000000000000000000000000000000000000000000001043561a882930000000000000000000000000000000000000000000000000000000000000000000000000000000000000000000000000000000000000000000000000000000000000000000000000000000000000000000000000000000000000000000044186527000000000000000000000000000000000000000000000000000000000",
        "nonce": "0x386",
        "chainId": "0xaa36a7"
      },
      "additionalContracts": [],
      "isFixedGasLimit": false
    },
    {
      "hash": "0xdd196aa83da6e9e4db39d8b63faa08d3b3bc3990dbb7b292997a0fce2f57a306",
      "transactionType": "CALL",
      "contractName": "TestToken",
      "contractAddress": "0x71c489da6766fed563c2c9c423268698f87966ec",
      "function": "approve(address,uint256)",
      "arguments": [
        "0x026013C7517e46B5FF84B51C2cFe6Df4D9C16489",
        "115792089237316195423570985008687907853269984665640564039457584007913129639935"
      ],
      "transaction": {
        "from": "0x00000c771f6176268d5a9846e0956c3ef58597a1",
        "to": "0x71c489da6766fed563c2c9c423268698f87966ec",
        "gas": "0xf8eb",
        "value": "0x0",
        "input": "0x095ea7b3000000000000000000000000026013c7517e46b5ff84b51c2cfe6df4d9c16489ffffffffffffffffffffffffffffffffffffffffffffffffffffffffffffffff",
        "nonce": "0x387",
        "chainId": "0xaa36a7"
      },
      "additionalContracts": [],
      "isFixedGasLimit": false
    },
    {
      "hash": "0xcc0271acaa03581ed7cda15c5012fca4987360211306636cc6ce6dcc8b3e2437",
      "transactionType": "CALL",
      "contractName": null,
      "contractAddress": "0x026013c7517e46b5ff84b51c2cfe6df4d9c16489",
      "function": "mintAndIncreaseSellAmount((address,address,uint64,uint256,uint256),uint112,uint112)",
      "arguments": [
        "(0x71C489Da6766FEd563C2c9c423268698F87966Ec, 0x0000000000000000000000000000000000000000, 184467440737095516, 0, 1741303760)",
        "100000000000000000000",
        "5192296858534827628530496329220095"
      ],
      "transaction": {
        "from": "0x00000c771f6176268d5a9846e0956c3ef58597a1",
        "to": "0x026013c7517e46b5ff84b51c2cfe6df4d9c16489",
        "gas": "0x490e2",
        "value": "0x0",
        "input": "0x7d5d2aa100000000000000000000000071c489da6766fed563c2c9c423268698f87966ec0000000000000000000000000000000000000000000000000000000000000000000000000000000000000000000000000000000000000000028f5c28f5c28f5c00000000000000000000000000000000000000000000000000000000000000000000000000000000000000000000000000000000000000000000000067ca2fd00000000000000000000000000000000000000000000000056bc75e2d63100000000000000000000000000000000000000000ffffffffffffffffffffffffffff",
        "nonce": "0x388",
        "chainId": "0xaa36a7"
      },
      "additionalContracts": [],
      "isFixedGasLimit": false
    },
    {
      "hash": "0x59e7468d5161464fd3857686cf6ff9e41c3a36e89162951342f6dec855d49daf",
      "transactionType": "CALL",
      "contractName": null,
      "contractAddress": "0x026013c7517e46b5ff84b51c2cfe6df4d9c16489",
      "function": "mintAndIncreaseSellAmount((address,address,uint64,uint256,uint256),uint112,uint112)",
      "arguments": [
        "(0x0000000000000000000000000000000000000000, 0x71C489Da6766FEd563C2c9c423268698F87966Ec, 184467440737095516, 0, 1741316096)",
        "5000000000000000",
        "5192296858534827628530496329220095"
      ],
      "transaction": {
        "from": "0x00000c771f6176268d5a9846e0956c3ef58597a1",
        "to": "0x026013c7517e46b5ff84b51c2cfe6df4d9c16489",
        "gas": "0x3c62c",
        "value": "0x11c37937e08000",
        "input": "0x7d5d2aa1000000000000000000000000000000000000000000000000000000000000000000000000000000000000000071c489da6766fed563c2c9c423268698f87966ec000000000000000000000000000000000000000000000000028f5c28f5c28f5c00000000000000000000000000000000000000000000000000000000000000000000000000000000000000000000000000000000000000000000000067ca60000000000000000000000000000000000000000000000000000011c37937e08000000000000000000000000000000000000000ffffffffffffffffffffffffffff",
        "nonce": "0x389",
        "chainId": "0xaa36a7"
      },
      "additionalContracts": [],
      "isFixedGasLimit": false
    }
  ],
  "receipts": [
    {
      "status": "0x1",
      "cumulativeGasUsed": "0xa196f9",
      "logs": [
        {
          "address": "0x71c489da6766fed563c2c9c423268698f87966ec",
          "topics": [
            "0xddf252ad1be2c89b69c2b068fc378daa952ba7f163c4a11628f55a4df523b3ef",
            "0x0000000000000000000000000000000000000000000000000000000000000000",
            "0x00000000000000000000000000000c771f6176268d5a9846e0956c3ef58597a1"
          ],
          "data": "0xffffffffffffffffffffffffffffffffffffffffffffffffffffffffffffffff",
          "blockHash": "0x0ccf008e4c27f26a2be4cc015f9f81613ad56f4b161e3c694331abe653521926",
          "blockNumber": "0x77c06f",
          "transactionHash": "0xe92b8ac61a8d30da233db12d496a7222b6d7ec51326c5e22589c9ddd55e3d456",
          "transactionIndex": "0x5d",
          "logIndex": "0x86",
          "removed": false
        }
      ],
      "logsBloom": "0x00000000000000000000000000000000000004000000000000000000000002200000000000400000000000000000000000000000000000000000000000000000000000000000000000000008000000000000000000000000001000000000000000000000020000000000000000000800000000000000000000000010000000000000000000000000000000000000000000000000000100000000000000000000000000000000000000000000000000000000000000000000000000000000000000000002000000000000000000000000000000000000000000000000000020000000000000000000000000000000000000000000000000000000000000000000",
      "type": "0x2",
      "transactionHash": "0xe92b8ac61a8d30da233db12d496a7222b6d7ec51326c5e22589c9ddd55e3d456",
      "transactionIndex": "0x5d",
      "blockHash": "0x0ccf008e4c27f26a2be4cc015f9f81613ad56f4b161e3c694331abe653521926",
      "blockNumber": "0x77c06f",
      "gasUsed": "0x90ed7",
      "effectiveGasPrice": "0x114d8f",
      "from": "0x00000c771f6176268d5a9846e0956c3ef58597a1",
      "to": null,
      "contractAddress": "0x71c489da6766fed563c2c9c423268698f87966ec"
    },
    {
      "status": "0x1",
      "cumulativeGasUsed": "0xa24b30",
      "logs": [
        {
          "address": "0x71c489da6766fed563c2c9c423268698f87966ec",
          "topics": [
            "0x8c5be1e5ebec7d5bd14f71427d1e84f3dd0314c0f7b2291e5b200ac8c7c3b925",
            "0x00000000000000000000000000000c771f6176268d5a9846e0956c3ef58597a1",
            "0x00000000000000000000000082d25d06a00f04bae3a19107a8131afc019f3adf"
          ],
          "data": "0xffffffffffffffffffffffffffffffffffffffffffffffffffffffffffffffff",
          "blockHash": "0x0ccf008e4c27f26a2be4cc015f9f81613ad56f4b161e3c694331abe653521926",
          "blockNumber": "0x77c06f",
          "transactionHash": "0xa0244868fd0a27c922bd23bf2b552be2e79f12e2aebbb7f05804db55e725ff61",
          "transactionIndex": "0x5e",
          "logIndex": "0x87",
          "removed": false
        }
      ],
      "logsBloom": "0x00000000000000000000000000000000000004000000000000000000000002200000000000400000000000000000000000000000000000000000000000200000000000000000000000000000000000000000000000000000001000000000000000000000000400800000000000000000000000000000000000000000000000000000000000000000000000000000000000000000000100000000000000000000020000000000000000000000008000000000000000000000000000000000000000000000000000000000000000000000000000000000000000000000000000000010000000000000000000000000000000000000000000000000000000000000",
      "type": "0x2",
      "transactionHash": "0xa0244868fd0a27c922bd23bf2b552be2e79f12e2aebbb7f05804db55e725ff61",
      "transactionIndex": "0x5e",
      "blockHash": "0x0ccf008e4c27f26a2be4cc015f9f81613ad56f4b161e3c694331abe653521926",
      "blockNumber": "0x77c06f",
      "gasUsed": "0xb437",
      "effectiveGasPrice": "0x114d8f",
      "from": "0x00000c771f6176268d5a9846e0956c3ef58597a1",
      "to": "0x71c489da6766fed563c2c9c423268698f87966ec",
      "contractAddress": null
    },
    {
      "status": "0x1",
      "cumulativeGasUsed": "0xa2ff67",
      "logs": [
        {
          "address": "0x71c489da6766fed563c2c9c423268698f87966ec",
          "topics": [
            "0x8c5be1e5ebec7d5bd14f71427d1e84f3dd0314c0f7b2291e5b200ac8c7c3b925",
            "0x00000000000000000000000000000c771f6176268d5a9846e0956c3ef58597a1",
            "0x00000000000000000000000075166e153b72f913aa21e1d1d83cd10454c6bff6"
          ],
          "data": "0xffffffffffffffffffffffffffffffffffffffffffffffffffffffffffffffff",
          "blockHash": "0x0ccf008e4c27f26a2be4cc015f9f81613ad56f4b161e3c694331abe653521926",
          "blockNumber": "0x77c06f",
          "transactionHash": "0x8ab28b280fdf2a55f3ae83f3f53c5a5ea58230c0b8f663185241c3204f416c35",
          "transactionIndex": "0x5f",
          "logIndex": "0x88",
          "removed": false
        }
      ],
      "logsBloom": "0x00000000000000000000000000000000000004000000000000000000000002200000000000400000000000000000000000000000000000000000000000200000000000000000000000000000000000000000000000000000001000000000000000000000000000000000000000000000000000000000000000000000000000000000000000000000000000000000000000000000100100000000000000000000020000004000000000000000000000000000000000000000000000000000000000000000000000000000000000000000000000000000000000000000000000000010000000000000000000000000000000000000000000000000000000004000",
      "type": "0x2",
      "transactionHash": "0x8ab28b280fdf2a55f3ae83f3f53c5a5ea58230c0b8f663185241c3204f416c35",
      "transactionIndex": "0x5f",
      "blockHash": "0x0ccf008e4c27f26a2be4cc015f9f81613ad56f4b161e3c694331abe653521926",
      "blockNumber": "0x77c06f",
      "gasUsed": "0xb437",
      "effectiveGasPrice": "0x114d8f",
      "from": "0x00000c771f6176268d5a9846e0956c3ef58597a1",
      "to": "0x71c489da6766fed563c2c9c423268698f87966ec",
      "contractAddress": null
    },
    {
      "status": "0x1",
      "cumulativeGasUsed": "0xa78208",
      "logs": [
        {
          "address": "0xb98c50b291a8b69cffabd172de4d1bbc773f962a",
          "topics": [
            "0x5e4688b340694b7c7fd30047fd082117dc46e32acfbf81a44bb1fac0ae65154d"
          ],
          "data": "0xa65a30a674b18012edc2844eb3ee6e1fdd87c0113cf9db1079e00506a9637175000000000000000000000000000000000000000000000000000000000000000000000000000000000000000071c489da6766fed563c2c9c423268698f87966ec000000000000000000000000000000000000000000c49ba5e353f7ce0000175e000000000000000000000000000000000000000000000000000000000081f64d000000000000000000000000000000000000000080000011ad7b7d57d2db6557",
          "blockHash": "0x0ccf008e4c27f26a2be4cc015f9f81613ad56f4b161e3c694331abe653521926",
          "blockNumber": "0x77c06f",
          "transactionHash": "0x407485a51172a86370779a565080c5278ec80e6eda4277282fb8fabd9b9dc1d1",
          "transactionIndex": "0x60",
          "logIndex": "0x89",
          "removed": false
        },
        {
          "address": "0x75166e153b72f913aa21e1d1d83cd10454c6bff6",
          "topics": [
            "0xddf252ad1be2c89b69c2b068fc378daa952ba7f163c4a11628f55a4df523b3ef",
            "0x0000000000000000000000000000000000000000000000000000000000000000",
            "0x00000000000000000000000000000c771f6176268d5a9846e0956c3ef58597a1",
            "0x0000000000000000000000000000000000000000000000000000f67a43345060"
          ],
          "data": "0x",
          "blockHash": "0x0ccf008e4c27f26a2be4cc015f9f81613ad56f4b161e3c694331abe653521926",
          "blockNumber": "0x77c06f",
          "transactionHash": "0x407485a51172a86370779a565080c5278ec80e6eda4277282fb8fabd9b9dc1d1",
          "transactionIndex": "0x60",
          "logIndex": "0x8a",
          "removed": false
        },
        {
          "address": "0xb98c50b291a8b69cffabd172de4d1bbc773f962a",
          "topics": [
            "0xa2d4008be4187c63684f323788e131e1370dbc2205499befe2834005a00c792c"
          ],
          "data": "0x00000000000000000000000075166e153b72f913aa21e1d1d83cd10454c6bff6a65a30a674b18012edc2844eb3ee6e1fdd87c0113cf9db1079e00506a96371750000000000000000000000000000000000000000000000000000f67a43345060fffffffffffffffffffffffffffffffffffffffffffffffffffffffffab6413e000000000000000000000000000000000000000000000000000000000549bec200000000000000000000000000000000000000000000000009d025b9f39a7b59000000000000000000000000000000000000000000000000002386f26fc10000000000000000000000000000000000000000000000000002b5e39a9fdddd9e1c",
          "blockHash": "0x0ccf008e4c27f26a2be4cc015f9f81613ad56f4b161e3c694331abe653521926",
          "blockNumber": "0x77c06f",
          "transactionHash": "0x407485a51172a86370779a565080c5278ec80e6eda4277282fb8fabd9b9dc1d1",
          "transactionIndex": "0x60",
          "logIndex": "0x8b",
          "removed": false
        },
        {
          "address": "0x71c489da6766fed563c2c9c423268698f87966ec",
          "topics": [
            "0xddf252ad1be2c89b69c2b068fc378daa952ba7f163c4a11628f55a4df523b3ef",
            "0x00000000000000000000000000000c771f6176268d5a9846e0956c3ef58597a1",
            "0x000000000000000000000000b98c50b291a8b69cffabd172de4d1bbc773f962a"
          ],
          "data": "0x000000000000000000000000000000000000000000000002b5e39a9fdddd9e1c",
          "blockHash": "0x0ccf008e4c27f26a2be4cc015f9f81613ad56f4b161e3c694331abe653521926",
          "blockNumber": "0x77c06f",
          "transactionHash": "0x407485a51172a86370779a565080c5278ec80e6eda4277282fb8fabd9b9dc1d1",
          "transactionIndex": "0x60",
          "logIndex": "0x8c",
          "removed": false
        }
      ],
      "logsBloom": "0x00000000000100000080000000000000000004000100000000000000000002200000000000400004000000000000000000000000000000000000000000000000000000000000000000002008000000000000000000000000001000000000000020000000020000000000000000000800000800000000000000000010000000000000000004000000000040000008000000000000000100000000000000000000000000000000000200000000010000000000000000000002000000000400000000000002000000000000000000000000000000000000000000000000000020000000000800000100000000000000002000008000000000000000000000000000",
      "type": "0x2",
      "transactionHash": "0x407485a51172a86370779a565080c5278ec80e6eda4277282fb8fabd9b9dc1d1",
      "transactionIndex": "0x60",
      "blockHash": "0x0ccf008e4c27f26a2be4cc015f9f81613ad56f4b161e3c694331abe653521926",
      "blockNumber": "0x77c06f",
      "gasUsed": "0x482a1",
      "effectiveGasPrice": "0x114d8f",
      "from": "0x00000c771f6176268d5a9846e0956c3ef58597a1",
      "to": "0x75166e153b72f913aa21e1d1d83cd10454c6bff6",
      "contractAddress": null
    },
    {
      "status": "0x1",
      "cumulativeGasUsed": "0xa8fafc",
      "logs": [
        {
          "address": "0xb98c50b291a8b69cffabd172de4d1bbc773f962a",
          "topics": [],
          "data": "0x82d25d06a00f04bae3a19107a8131afc019f3adfa65a30a674b18012edc2844eb3ee6e1fdd87c0113cf9db1079e00506a9637175000000000000000000000000000186a0ffffffffffffffffffffffffe2497ffa000000000000000009d025b9f39a7b5980000011ad7b7d5711127bde0081f64c",
          "blockHash": "0x0ccf008e4c27f26a2be4cc015f9f81613ad56f4b161e3c694331abe653521926",
          "blockNumber": "0x77c06f",
          "transactionHash": "0x908712f18d383c2675099ddaddd85a783cbfe7a2fc76c5e904b3689563f2f29c",
          "transactionIndex": "0x61",
          "logIndex": "0x8d",
          "removed": false
        },
        {
          "address": "0x71c489da6766fed563c2c9c423268698f87966ec",
          "topics": [
            "0xddf252ad1be2c89b69c2b068fc378daa952ba7f163c4a11628f55a4df523b3ef",
            "0x000000000000000000000000b98c50b291a8b69cffabd172de4d1bbc773f962a",
            "0x00000000000000000000000000000c771f6176268d5a9846e0956c3ef58597a1"
          ],
          "data": "0x000000000000000000000000000000000000000000000000000000001db68006",
          "blockHash": "0x0ccf008e4c27f26a2be4cc015f9f81613ad56f4b161e3c694331abe653521926",
          "blockNumber": "0x77c06f",
          "transactionHash": "0x908712f18d383c2675099ddaddd85a783cbfe7a2fc76c5e904b3689563f2f29c",
          "transactionIndex": "0x61",
          "logIndex": "0x8e",
          "removed": false
        }
      ],
      "logsBloom": "0x00000000000000000080000000000000000004000000000000000000000002200000000000400000000000000000000000000000000000000000000000000000000000000000000000000008000000000000000000000000001000000000000000000000000000000000000000000000000000000000000000000010000000000000000004000000000040000000000000000000000100000000000000000000000000000000000200000000010000000000000000000000000000000000000000000002000000000000000000000000000000000000000000000000000000000000000000000100000000000000000000000000000000000000000000000000",
      "type": "0x2",
      "transactionHash": "0x908712f18d383c2675099ddaddd85a783cbfe7a2fc76c5e904b3689563f2f29c",
      "transactionIndex": "0x61",
      "blockHash": "0x0ccf008e4c27f26a2be4cc015f9f81613ad56f4b161e3c694331abe653521926",
      "blockNumber": "0x77c06f",
      "gasUsed": "0x178f4",
      "effectiveGasPrice": "0x114d8f",
      "from": "0x00000c771f6176268d5a9846e0956c3ef58597a1",
      "to": "0x82d25d06a00f04bae3a19107a8131afc019f3adf",
      "contractAddress": null
    },
    {
      "status": "0x1",
      "cumulativeGasUsed": "0xaa8eab",
      "logs": [
        {
          "address": "0xb98c50b291a8b69cffabd172de4d1bbc773f962a",
          "topics": [],
          "data": "0x82d25d06a00f04bae3a19107a8131afc019f3adfa65a30a674b18012edc2844eb3ee6e1fdd87c0113cf9db1079e00506a9637175fffffffffffffffffffffffffffe7a8c0000000000000000000000001dcd6500000000000000000009d025b9f39a7b5980000011ad7b7d57d2db6fc20081f64d",
          "blockHash": "0x0ccf008e4c27f26a2be4cc015f9f81613ad56f4b161e3c694331abe653521926",
          "blockNumber": "0x77c06f",
          "transactionHash": "0x7deaf9f2f20a776f1d480059f0d625978f49f22afaff3aa2a6464e3f08b465b7",
          "transactionIndex": "0x62",
          "logIndex": "0x8f",
          "removed": false
        },
        {
          "address": "0x71c489da6766fed563c2c9c423268698f87966ec",
          "topics": [
            "0xddf252ad1be2c89b69c2b068fc378daa952ba7f163c4a11628f55a4df523b3ef",
            "0x00000000000000000000000000000c771f6176268d5a9846e0956c3ef58597a1",
            "0x000000000000000000000000b98c50b291a8b69cffabd172de4d1bbc773f962a"
          ],
          "data": "0x000000000000000000000000000000000000000000000000000000001dcd6500",
          "blockHash": "0x0ccf008e4c27f26a2be4cc015f9f81613ad56f4b161e3c694331abe653521926",
          "blockNumber": "0x77c06f",
          "transactionHash": "0x7deaf9f2f20a776f1d480059f0d625978f49f22afaff3aa2a6464e3f08b465b7",
          "transactionIndex": "0x62",
          "logIndex": "0x90",
          "removed": false
        }
      ],
      "logsBloom": "0x00000000000000000080000000000000000004000000000000000000000002200000000000400000000000000000000000000000000000000000000000000000000000000000000000000008000000000000000000000000001000000000000000000000000000000000000000000000000000000000000000000010000000000000000004000000000040000000000000000000000100000000000000000000000000000000000200000000010000000000000000000000000000000000000000000002000000000000000000000000000000000000000000000000000000000000000000000100000000000000000000000000000000000000000000000000",
      "type": "0x2",
      "transactionHash": "0x7deaf9f2f20a776f1d480059f0d625978f49f22afaff3aa2a6464e3f08b465b7",
      "transactionIndex": "0x62",
      "blockHash": "0x0ccf008e4c27f26a2be4cc015f9f81613ad56f4b161e3c694331abe653521926",
      "blockNumber": "0x77c06f",
      "gasUsed": "0x193af",
      "effectiveGasPrice": "0x114d8f",
      "from": "0x00000c771f6176268d5a9846e0956c3ef58597a1",
      "to": "0x82d25d06a00f04bae3a19107a8131afc019f3adf",
      "contractAddress": null
    },
    {
      "status": "0x1",
      "cumulativeGasUsed": "0xabc4d3",
      "logs": [
        {
          "address": "0xb98c50b291a8b69cffabd172de4d1bbc773f962a",
          "topics": [],
          "data": "0x82d25d06a00f04bae3a19107a8131afc019f3adfa65a30a674b18012edc2844eb3ee6e1fdd87c0113cf9db1079e00506a9637175000000000000000000000000000186a0ffffffffffffffffffffffffe24991e8000000000000000009d025b9f39a7b5980000011ad7b7d571112fb3f0081f64c",
          "blockHash": "0x0ccf008e4c27f26a2be4cc015f9f81613ad56f4b161e3c694331abe653521926",
          "blockNumber": "0x77c06f",
          "transactionHash": "0xf3382e06c8026f678af6271c4d318279d2e9a567998041f8056f784c0b23e751",
          "transactionIndex": "0x63",
          "logIndex": "0x91",
          "removed": false
        },
        {
          "address": "0x71c489da6766fed563c2c9c423268698f87966ec",
          "topics": [
            "0xddf252ad1be2c89b69c2b068fc378daa952ba7f163c4a11628f55a4df523b3ef",
            "0x000000000000000000000000b98c50b291a8b69cffabd172de4d1bbc773f962a",
            "0x00000000000000000000000000000c771f6176268d5a9846e0956c3ef58597a1"
          ],
          "data": "0x000000000000000000000000000000000000000000000000000000001db66e18",
          "blockHash": "0x0ccf008e4c27f26a2be4cc015f9f81613ad56f4b161e3c694331abe653521926",
          "blockNumber": "0x77c06f",
          "transactionHash": "0xf3382e06c8026f678af6271c4d318279d2e9a567998041f8056f784c0b23e751",
          "transactionIndex": "0x63",
          "logIndex": "0x92",
          "removed": false
        }
      ],
      "logsBloom": "0x00000000000000000080000000000000000004000000000000000000000002200000000000400000000000000000000000000000000000000000000000000000000000000000000000000008000000000000000000000000001000000000000000000000000000000000000000000000000000000000000000000010000000000000000004000000000040000000000000000000000100000000000000000000000000000000000200000000010000000000000000000000000000000000000000000002000000000000000000000000000000000000000000000000000000000000000000000100000000000000000000000000000000000000000000000000",
      "type": "0x2",
      "transactionHash": "0xf3382e06c8026f678af6271c4d318279d2e9a567998041f8056f784c0b23e751",
      "transactionIndex": "0x63",
      "blockHash": "0x0ccf008e4c27f26a2be4cc015f9f81613ad56f4b161e3c694331abe653521926",
      "blockNumber": "0x77c06f",
      "gasUsed": "0x13628",
      "effectiveGasPrice": "0x114d8f",
      "from": "0x00000c771f6176268d5a9846e0956c3ef58597a1",
      "to": "0x82d25d06a00f04bae3a19107a8131afc019f3adf",
      "contractAddress": null
    },
    {
      "status": "0x1",
      "cumulativeGasUsed": "0xad15b6",
      "logs": [
        {
          "address": "0xb98c50b291a8b69cffabd172de4d1bbc773f962a",
          "topics": [],
          "data": "0x82d25d06a00f04bae3a19107a8131afc019f3adfa65a30a674b18012edc2844eb3ee6e1fdd87c0113cf9db1079e00506a9637175fffffffffffffffffffffffffffe7a8c0000000000000000000000001dcd6500000000000000000009d025b9f39a7b5980000011ad7b7d57d2dbef230081f64d",
          "blockHash": "0x0ccf008e4c27f26a2be4cc015f9f81613ad56f4b161e3c694331abe653521926",
          "blockNumber": "0x77c06f",
          "transactionHash": "0xa94ba6f1598a92e4ce639332288f31ad279ee43a114cbaaf38403ba23c70a6f6",
          "transactionIndex": "0x64",
          "logIndex": "0x93",
          "removed": false
        },
        {
          "address": "0x71c489da6766fed563c2c9c423268698f87966ec",
          "topics": [
            "0xddf252ad1be2c89b69c2b068fc378daa952ba7f163c4a11628f55a4df523b3ef",
            "0x00000000000000000000000000000c771f6176268d5a9846e0956c3ef58597a1",
            "0x000000000000000000000000b98c50b291a8b69cffabd172de4d1bbc773f962a"
          ],
          "data": "0x000000000000000000000000000000000000000000000000000000001dcd6500",
          "blockHash": "0x0ccf008e4c27f26a2be4cc015f9f81613ad56f4b161e3c694331abe653521926",
          "blockNumber": "0x77c06f",
          "transactionHash": "0xa94ba6f1598a92e4ce639332288f31ad279ee43a114cbaaf38403ba23c70a6f6",
          "transactionIndex": "0x64",
          "logIndex": "0x94",
          "removed": false
        }
      ],
      "logsBloom": "0x00000000000000000080000000000000000004000000000000000000000002200000000000400000000000000000000000000000000000000000000000000000000000000000000000000008000000000000000000000000001000000000000000000000000000000000000000000000000000000000000000000010000000000000000004000000000040000000000000000000000100000000000000000000000000000000000200000000010000000000000000000000000000000000000000000002000000000000000000000000000000000000000000000000000000000000000000000100000000000000000000000000000000000000000000000000",
      "type": "0x2",
      "transactionHash": "0xa94ba6f1598a92e4ce639332288f31ad279ee43a114cbaaf38403ba23c70a6f6",
      "transactionIndex": "0x64",
      "blockHash": "0x0ccf008e4c27f26a2be4cc015f9f81613ad56f4b161e3c694331abe653521926",
      "blockNumber": "0x77c06f",
      "gasUsed": "0x150e3",
      "effectiveGasPrice": "0x114d8f",
      "from": "0x00000c771f6176268d5a9846e0956c3ef58597a1",
      "to": "0x82d25d06a00f04bae3a19107a8131afc019f3adf",
      "contractAddress": null
    },
    {
      "status": "0x1",
      "cumulativeGasUsed": "0xafcda8",
      "logs": [
        {
          "address": "0xb98c50b291a8b69cffabd172de4d1bbc773f962a",
          "topics": [
            "0x5e4688b340694b7c7fd30047fd082117dc46e32acfbf81a44bb1fac0ae65154d"
          ],
          "data": "0xd17dc2f1e4bde4a1bce8afd6fb1f290de14bd72560ef0363275cb95f57ca700f000000000000000000000000000000000000000000000000000000000000000000000000000000000000000071c489da6766fed563c2c9c423268698f87966ec000000000000000000000000000000000000000000c49ba5e353f7ce00000000000000000000000000000000000000000000000000000000000000000081f64d000000000000000000000000000000000000000080000011ad7b7d57d2db6557",
          "blockHash": "0x0ccf008e4c27f26a2be4cc015f9f81613ad56f4b161e3c694331abe653521926",
          "blockNumber": "0x77c06f",
          "transactionHash": "0xf14e871238bcedf3ce3172c6e954fe42c7220901ed35e30227a2210b0b07d5a8",
          "transactionIndex": "0x65",
          "logIndex": "0x95",
          "removed": false
        },
        {
          "address": "0x75166e153b72f913aa21e1d1d83cd10454c6bff6",
          "topics": [
            "0xddf252ad1be2c89b69c2b068fc378daa952ba7f163c4a11628f55a4df523b3ef",
            "0x0000000000000000000000000000000000000000000000000000000000000000",
            "0x00000000000000000000000000000c771f6176268d5a9846e0956c3ef58597a1",
            "0x00000000000000000000000000000000000000000000000000004183e1159a9c"
          ],
          "data": "0x",
          "blockHash": "0x0ccf008e4c27f26a2be4cc015f9f81613ad56f4b161e3c694331abe653521926",
          "blockNumber": "0x77c06f",
          "transactionHash": "0xf14e871238bcedf3ce3172c6e954fe42c7220901ed35e30227a2210b0b07d5a8",
          "transactionIndex": "0x65",
          "logIndex": "0x96",
          "removed": false
        },
        {
          "address": "0xb98c50b291a8b69cffabd172de4d1bbc773f962a",
          "topics": [
            "0xa2d4008be4187c63684f323788e131e1370dbc2205499befe2834005a00c792c"
          ],
          "data": "0x00000000000000000000000075166e153b72f913aa21e1d1d83cd10454c6bff6d17dc2f1e4bde4a1bce8afd6fb1f290de14bd72560ef0363275cb95f57ca700f00000000000000000000000000000000000000000000000000004183e1159a9cfffffffffffffffffffffffffffffffffffffffffffffffffffffffffab6326d000000000000000000000000000000000000000000000000000000000549cd9300000000000000000000000000000000000000000000000009d025b9f39a7b59000000000000000000000000000000000000000000000000002386f26fc10000000000000000000000000000000000000000000000000002b5e39a9fdddd9e1c",
          "blockHash": "0x0ccf008e4c27f26a2be4cc015f9f81613ad56f4b161e3c694331abe653521926",
          "blockNumber": "0x77c06f",
          "transactionHash": "0xf14e871238bcedf3ce3172c6e954fe42c7220901ed35e30227a2210b0b07d5a8",
          "transactionIndex": "0x65",
          "logIndex": "0x97",
          "removed": false
        },
        {
          "address": "0x71c489da6766fed563c2c9c423268698f87966ec",
          "topics": [
            "0xddf252ad1be2c89b69c2b068fc378daa952ba7f163c4a11628f55a4df523b3ef",
            "0x00000000000000000000000000000c771f6176268d5a9846e0956c3ef58597a1",
            "0x000000000000000000000000b98c50b291a8b69cffabd172de4d1bbc773f962a"
          ],
          "data": "0x000000000000000000000000000000000000000000000002b5e39a9fdddd9e1c",
          "blockHash": "0x0ccf008e4c27f26a2be4cc015f9f81613ad56f4b161e3c694331abe653521926",
          "blockNumber": "0x77c06f",
          "transactionHash": "0xf14e871238bcedf3ce3172c6e954fe42c7220901ed35e30227a2210b0b07d5a8",
          "transactionIndex": "0x65",
          "logIndex": "0x98",
          "removed": false
        }
      ],
      "logsBloom": "0x00000000000100000080000000000000000004000100000000000000000002200000000000400004000000000000000000001000000000000000000000000000000000000000000000002008000000000000000000200000001000000000000020000000020000000000000000000800000800000000000000000010000000000000000004000000000040000008000000000000000100000000000000000000000000000000000200000000010000000000000000000000000000000400000000000002000000100000000000000000000000000000000000000000000020000000000000000100000000000000000000008000000000000000000000000000",
      "type": "0x2",
      "transactionHash": "0xf14e871238bcedf3ce3172c6e954fe42c7220901ed35e30227a2210b0b07d5a8",
      "transactionIndex": "0x65",
      "blockHash": "0x0ccf008e4c27f26a2be4cc015f9f81613ad56f4b161e3c694331abe653521926",
      "blockNumber": "0x77c06f",
      "gasUsed": "0x2b7f2",
      "effectiveGasPrice": "0x114d8f",
      "from": "0x00000c771f6176268d5a9846e0956c3ef58597a1",
      "to": "0x75166e153b72f913aa21e1d1d83cd10454c6bff6",
      "contractAddress": null
    },
    {
      "status": "0x1",
      "cumulativeGasUsed": "0xb1373e",
      "logs": [
        {
          "address": "0xb98c50b291a8b69cffabd172de4d1bbc773f962a",
          "topics": [],
          "data": "0x82d25d06a00f04bae3a19107a8131afc019f3adfd17dc2f1e4bde4a1bce8afd6fb1f290de14bd72560ef0363275cb95f57ca700f000000000000000000000000000186a0ffffffffffffffffffffffffe2497ffa000000000000000009d025b9f39a7b5980000011ad7b7d5711127bde0081f64c",
          "blockHash": "0x0ccf008e4c27f26a2be4cc015f9f81613ad56f4b161e3c694331abe653521926",
          "blockNumber": "0x77c06f",
          "transactionHash": "0x460268cbd8e66b730f762f345659b052580686923eaf9ad47fa54e8dc7bf5c1f",
          "transactionIndex": "0x66",
          "logIndex": "0x99",
          "removed": false
        },
        {
          "address": "0x71c489da6766fed563c2c9c423268698f87966ec",
          "topics": [
            "0xddf252ad1be2c89b69c2b068fc378daa952ba7f163c4a11628f55a4df523b3ef",
            "0x000000000000000000000000b98c50b291a8b69cffabd172de4d1bbc773f962a",
            "0x00000000000000000000000000000c771f6176268d5a9846e0956c3ef58597a1"
          ],
          "data": "0x000000000000000000000000000000000000000000000000000000001db68006",
          "blockHash": "0x0ccf008e4c27f26a2be4cc015f9f81613ad56f4b161e3c694331abe653521926",
          "blockNumber": "0x77c06f",
          "transactionHash": "0x460268cbd8e66b730f762f345659b052580686923eaf9ad47fa54e8dc7bf5c1f",
          "transactionIndex": "0x66",
          "logIndex": "0x9a",
          "removed": false
        }
      ],
      "logsBloom": "0x00000000000000000080000000000000000004000000000000000000000002200000000000400000000000000000000000000000000000000000000000000000000000000000000000000008000000000000000000000000001000000000000000000000000000000000000000000000000000000000000000000010000000000000000004000000000040000000000000000000000100000000000000000000000000000000000200000000010000000000000000000000000000000000000000000002000000000000000000000000000000000000000000000000000000000000000000000100000000000000000000000000000000000000000000000000",
      "type": "0x2",
      "transactionHash": "0x460268cbd8e66b730f762f345659b052580686923eaf9ad47fa54e8dc7bf5c1f",
      "transactionIndex": "0x66",
      "blockHash": "0x0ccf008e4c27f26a2be4cc015f9f81613ad56f4b161e3c694331abe653521926",
      "blockNumber": "0x77c06f",
      "gasUsed": "0x16996",
      "effectiveGasPrice": "0x114d8f",
      "from": "0x00000c771f6176268d5a9846e0956c3ef58597a1",
      "to": "0x82d25d06a00f04bae3a19107a8131afc019f3adf",
      "contractAddress": null
    },
    {
      "status": "0x1",
      "cumulativeGasUsed": "0xb2bbb9",
      "logs": [
        {
          "address": "0xb98c50b291a8b69cffabd172de4d1bbc773f962a",
          "topics": [],
          "data": "0x82d25d06a00f04bae3a19107a8131afc019f3adfd17dc2f1e4bde4a1bce8afd6fb1f290de14bd72560ef0363275cb95f57ca700ffffffffffffffffffffffffffffe7a8c0000000000000000000000001dcd6500000000000000000009d025b9f39a7b5980000011ad7b7d57d2db6fc20081f64d",
          "blockHash": "0x0ccf008e4c27f26a2be4cc015f9f81613ad56f4b161e3c694331abe653521926",
          "blockNumber": "0x77c06f",
          "transactionHash": "0x0bb3ab0eadaba3ae8a495560a920ebf1e9a47cb8db9b17dedff85845df8489b7",
          "transactionIndex": "0x67",
          "logIndex": "0x9b",
          "removed": false
        },
        {
          "address": "0x71c489da6766fed563c2c9c423268698f87966ec",
          "topics": [
            "0xddf252ad1be2c89b69c2b068fc378daa952ba7f163c4a11628f55a4df523b3ef",
            "0x00000000000000000000000000000c771f6176268d5a9846e0956c3ef58597a1",
            "0x000000000000000000000000b98c50b291a8b69cffabd172de4d1bbc773f962a"
          ],
          "data": "0x000000000000000000000000000000000000000000000000000000001dcd6500",
          "blockHash": "0x0ccf008e4c27f26a2be4cc015f9f81613ad56f4b161e3c694331abe653521926",
          "blockNumber": "0x77c06f",
          "transactionHash": "0x0bb3ab0eadaba3ae8a495560a920ebf1e9a47cb8db9b17dedff85845df8489b7",
          "transactionIndex": "0x67",
          "logIndex": "0x9c",
          "removed": false
        }
      ],
      "logsBloom": "0x00000000000000000080000000000000000004000000000000000000000002200000000000400000000000000000000000000000000000000000000000000000000000000000000000000008000000000000000000000000001000000000000000000000000000000000000000000000000000000000000000000010000000000000000004000000000040000000000000000000000100000000000000000000000000000000000200000000010000000000000000000000000000000000000000000002000000000000000000000000000000000000000000000000000000000000000000000100000000000000000000000000000000000000000000000000",
      "type": "0x2",
      "transactionHash": "0x0bb3ab0eadaba3ae8a495560a920ebf1e9a47cb8db9b17dedff85845df8489b7",
      "transactionIndex": "0x67",
      "blockHash": "0x0ccf008e4c27f26a2be4cc015f9f81613ad56f4b161e3c694331abe653521926",
      "blockNumber": "0x77c06f",
      "gasUsed": "0x1847b",
      "effectiveGasPrice": "0x114d8f",
      "from": "0x00000c771f6176268d5a9846e0956c3ef58597a1",
      "to": "0x82d25d06a00f04bae3a19107a8131afc019f3adf",
      "contractAddress": null
    },
    {
      "status": "0x1",
      "cumulativeGasUsed": "0xb3e283",
      "logs": [
        {
          "address": "0xb98c50b291a8b69cffabd172de4d1bbc773f962a",
          "topics": [],
          "data": "0x82d25d06a00f04bae3a19107a8131afc019f3adfd17dc2f1e4bde4a1bce8afd6fb1f290de14bd72560ef0363275cb95f57ca700f000000000000000000000000000186a0ffffffffffffffffffffffffe24991e8000000000000000009d025b9f39a7b5980000011ad7b7d571112fb3f0081f64c",
          "blockHash": "0x0ccf008e4c27f26a2be4cc015f9f81613ad56f4b161e3c694331abe653521926",
          "blockNumber": "0x77c06f",
          "transactionHash": "0x98d751e91268f9bbcad878c015fe6f90a64cbdd82ad20c1e0ec88417801dc311",
          "transactionIndex": "0x68",
          "logIndex": "0x9d",
          "removed": false
        },
        {
          "address": "0x71c489da6766fed563c2c9c423268698f87966ec",
          "topics": [
            "0xddf252ad1be2c89b69c2b068fc378daa952ba7f163c4a11628f55a4df523b3ef",
            "0x000000000000000000000000b98c50b291a8b69cffabd172de4d1bbc773f962a",
            "0x00000000000000000000000000000c771f6176268d5a9846e0956c3ef58597a1"
          ],
          "data": "0x000000000000000000000000000000000000000000000000000000001db66e18",
          "blockHash": "0x0ccf008e4c27f26a2be4cc015f9f81613ad56f4b161e3c694331abe653521926",
          "blockNumber": "0x77c06f",
          "transactionHash": "0x98d751e91268f9bbcad878c015fe6f90a64cbdd82ad20c1e0ec88417801dc311",
          "transactionIndex": "0x68",
          "logIndex": "0x9e",
          "removed": false
        }
      ],
      "logsBloom": "0x00000000000000000080000000000000000004000000000000000000000002200000000000400000000000000000000000000000000000000000000000000000000000000000000000000008000000000000000000000000001000000000000000000000000000000000000000000000000000000000000000000010000000000000000004000000000040000000000000000000000100000000000000000000000000000000000200000000010000000000000000000000000000000000000000000002000000000000000000000000000000000000000000000000000000000000000000000100000000000000000000000000000000000000000000000000",
      "type": "0x2",
      "transactionHash": "0x98d751e91268f9bbcad878c015fe6f90a64cbdd82ad20c1e0ec88417801dc311",
      "transactionIndex": "0x68",
      "blockHash": "0x0ccf008e4c27f26a2be4cc015f9f81613ad56f4b161e3c694331abe653521926",
      "blockNumber": "0x77c06f",
      "gasUsed": "0x126ca",
      "effectiveGasPrice": "0x114d8f",
      "from": "0x00000c771f6176268d5a9846e0956c3ef58597a1",
      "to": "0x82d25d06a00f04bae3a19107a8131afc019f3adf",
      "contractAddress": null
    },
    {
      "status": "0x1",
      "cumulativeGasUsed": "0xb52432",
      "logs": [
        {
          "address": "0xb98c50b291a8b69cffabd172de4d1bbc773f962a",
          "topics": [],
          "data": "0x82d25d06a00f04bae3a19107a8131afc019f3adfd17dc2f1e4bde4a1bce8afd6fb1f290de14bd72560ef0363275cb95f57ca700ffffffffffffffffffffffffffffe7a8c0000000000000000000000001dcd6500000000000000000009d025b9f39a7b5980000011ad7b7d57d2dbef230081f64d",
          "blockHash": "0x0ccf008e4c27f26a2be4cc015f9f81613ad56f4b161e3c694331abe653521926",
          "blockNumber": "0x77c06f",
          "transactionHash": "0x0861c3bf6e6e4cc5a03d919e04bce802dd89c0fe75e26951562e29b10ebb431b",
          "transactionIndex": "0x69",
          "logIndex": "0x9f",
          "removed": false
        },
        {
          "address": "0x71c489da6766fed563c2c9c423268698f87966ec",
          "topics": [
            "0xddf252ad1be2c89b69c2b068fc378daa952ba7f163c4a11628f55a4df523b3ef",
            "0x00000000000000000000000000000c771f6176268d5a9846e0956c3ef58597a1",
            "0x000000000000000000000000b98c50b291a8b69cffabd172de4d1bbc773f962a"
          ],
          "data": "0x000000000000000000000000000000000000000000000000000000001dcd6500",
          "blockHash": "0x0ccf008e4c27f26a2be4cc015f9f81613ad56f4b161e3c694331abe653521926",
          "blockNumber": "0x77c06f",
          "transactionHash": "0x0861c3bf6e6e4cc5a03d919e04bce802dd89c0fe75e26951562e29b10ebb431b",
          "transactionIndex": "0x69",
          "logIndex": "0xa0",
          "removed": false
        }
      ],
      "logsBloom": "0x00000000000000000080000000000000000004000000000000000000000002200000000000400000000000000000000000000000000000000000000000000000000000000000000000000008000000000000000000000000001000000000000000000000000000000000000000000000000000000000000000000010000000000000000004000000000040000000000000000000000100000000000000000000000000000000000200000000010000000000000000000000000000000000000000000002000000000000000000000000000000000000000000000000000000000000000000000100000000000000000000000000000000000000000000000000",
      "type": "0x2",
      "transactionHash": "0x0861c3bf6e6e4cc5a03d919e04bce802dd89c0fe75e26951562e29b10ebb431b",
      "transactionIndex": "0x69",
      "blockHash": "0x0ccf008e4c27f26a2be4cc015f9f81613ad56f4b161e3c694331abe653521926",
      "blockNumber": "0x77c06f",
      "gasUsed": "0x141af",
      "effectiveGasPrice": "0x114d8f",
      "from": "0x00000c771f6176268d5a9846e0956c3ef58597a1",
      "to": "0x82d25d06a00f04bae3a19107a8131afc019f3adf",
      "contractAddress": null
    },
    {
      "status": "0x1",
      "cumulativeGasUsed": "0xb8b549",
      "logs": [
        {
          "address": "0x519c98252304a4933cdef1e66f139dfb0e2d2462",
          "topics": [],
          "data": "0x71c489da6766fed563c2c9c423268698f87966ec0000000067ca2f0800000000000000000000000000000000000000000000000000000000",
          "blockHash": "0x0ccf008e4c27f26a2be4cc015f9f81613ad56f4b161e3c694331abe653521926",
          "blockNumber": "0x77c06f",
          "transactionHash": "0xef7a85e1be79e57068ccaeaf8bfabd53a9e8a5e6abbc5cb21dde810081588dcf",
          "transactionIndex": "0x6a",
          "logIndex": "0xa1",
          "removed": false
        },
        {
          "address": "0xb98c50b291a8b69cffabd172de4d1bbc773f962a",
          "topics": [
            "0x5e4688b340694b7c7fd30047fd082117dc46e32acfbf81a44bb1fac0ae65154d"
          ],
          "data": "0xa491e92984adb6a18167bbc92d67a4cf5661e602f9cdf32e68c980b4191df8b7000000000000000000000000000000000000000000000000000000000000000000000000000000000000000071c489da6766fed563c2c9c423268698f87966ec519c98252304a4933cdef1e66f139dfb0e2d246200000000000000000000000000000000000000000000000000000000000000000000000000000000004644f40000000000000000000000000000000000000000800000027ffff5c0ff12dc20",
          "blockHash": "0x0ccf008e4c27f26a2be4cc015f9f81613ad56f4b161e3c694331abe653521926",
          "blockNumber": "0x77c06f",
          "transactionHash": "0xef7a85e1be79e57068ccaeaf8bfabd53a9e8a5e6abbc5cb21dde810081588dcf",
          "transactionIndex": "0x6a",
          "logIndex": "0xa2",
          "removed": false
        },
        {
          "address": "0x75166e153b72f913aa21e1d1d83cd10454c6bff6",
          "topics": [
            "0xddf252ad1be2c89b69c2b068fc378daa952ba7f163c4a11628f55a4df523b3ef",
            "0x0000000000000000000000000000000000000000000000000000000000000000",
            "0x00000000000000000000000000000c771f6176268d5a9846e0956c3ef58597a1",
            "0x0000000000000000000000000000000000000000000000000000e761e0595842"
          ],
          "data": "0x",
          "blockHash": "0x0ccf008e4c27f26a2be4cc015f9f81613ad56f4b161e3c694331abe653521926",
          "blockNumber": "0x77c06f",
          "transactionHash": "0xef7a85e1be79e57068ccaeaf8bfabd53a9e8a5e6abbc5cb21dde810081588dcf",
          "transactionIndex": "0x6a",
          "logIndex": "0xa3",
          "removed": false
        },
        {
          "address": "0xb98c50b291a8b69cffabd172de4d1bbc773f962a",
          "topics": [
            "0xa2d4008be4187c63684f323788e131e1370dbc2205499befe2834005a00c792c"
          ],
          "data": "0x00000000000000000000000075166e153b72f913aa21e1d1d83cd10454c6bff6a491e92984adb6a18167bbc92d67a4cf5661e602f9cdf32e68c980b4191df8b70000000000000000000000000000000000000000000000000000e761e0595842fffffffffffffffffffffffffffffffffffffffffffffffffffffffffab6326d000000000000000000000000000000000000000000000000000000000549cd9300000000000000000000000000000000000000000000000001634572ad7ac440000000000000000000000000000000000000000000000000002386f26fc100000000000000000000000000000000000000000000000000000de0b641e6343e1e",
          "blockHash": "0x0ccf008e4c27f26a2be4cc015f9f81613ad56f4b161e3c694331abe653521926",
          "blockNumber": "0x77c06f",
          "transactionHash": "0xef7a85e1be79e57068ccaeaf8bfabd53a9e8a5e6abbc5cb21dde810081588dcf",
          "transactionIndex": "0x6a",
          "logIndex": "0xa4",
          "removed": false
        },
        {
          "address": "0x71c489da6766fed563c2c9c423268698f87966ec",
          "topics": [
            "0xddf252ad1be2c89b69c2b068fc378daa952ba7f163c4a11628f55a4df523b3ef",
            "0x00000000000000000000000000000c771f6176268d5a9846e0956c3ef58597a1",
            "0x000000000000000000000000b98c50b291a8b69cffabd172de4d1bbc773f962a"
          ],
          "data": "0x0000000000000000000000000000000000000000000000000de0b641e6343e1e",
          "blockHash": "0x0ccf008e4c27f26a2be4cc015f9f81613ad56f4b161e3c694331abe653521926",
          "blockNumber": "0x77c06f",
          "transactionHash": "0xef7a85e1be79e57068ccaeaf8bfabd53a9e8a5e6abbc5cb21dde810081588dcf",
          "transactionIndex": "0x6a",
          "logIndex": "0xa5",
          "removed": false
        }
      ],
      "logsBloom": "0x00000000000100000080000000000000000004000100000000000000000002200000000000400004000000000000000000000000000000000000010000000000000000000000000000002008000000000000000000000000001000000000000020000000020000000000000000000800000800000000000000000010000000000000000004000000000040000008000000000000000100000000000000000000000000000000000200000000010004000000000000000000004000000400000000000002000000000000000000000000000000000080000000000000000020000000000000000100000000000000000000008000000000000000000020010000",
      "type": "0x2",
      "transactionHash": "0xef7a85e1be79e57068ccaeaf8bfabd53a9e8a5e6abbc5cb21dde810081588dcf",
      "transactionIndex": "0x6a",
      "blockHash": "0x0ccf008e4c27f26a2be4cc015f9f81613ad56f4b161e3c694331abe653521926",
      "blockNumber": "0x77c06f",
      "gasUsed": "0x39117",
      "effectiveGasPrice": "0x114d8f",
      "from": "0x00000c771f6176268d5a9846e0956c3ef58597a1",
      "to": "0x75166e153b72f913aa21e1d1d83cd10454c6bff6",
      "contractAddress": null
    },
    {
      "status": "0x1",
      "cumulativeGasUsed": "0xb9eb0a",
      "logs": [
        {
          "address": "0xb98c50b291a8b69cffabd172de4d1bbc773f962a",
          "topics": [],
          "data": "0x82d25d06a00f04bae3a19107a8131afc019f3adfa491e92984adb6a18167bbc92d67a4cf5661e602f9cdf32e68c980b4191df8b7000000000000000000000000000186a0ffffffffffffffffffffffffff6769e7000000000000000001634572ad7ac440800000027ffff5c0e3960e61004644f3",
          "blockHash": "0x0ccf008e4c27f26a2be4cc015f9f81613ad56f4b161e3c694331abe653521926",
          "blockNumber": "0x77c06f",
          "transactionHash": "0xadc8cacb1293d011a138dcd0aec77eee77c0766a8bec15c6ff681cac7c9970e1",
          "transactionIndex": "0x6b",
          "logIndex": "0xa6",
          "removed": false
        },
        {
          "address": "0x71c489da6766fed563c2c9c423268698f87966ec",
          "topics": [
            "0xddf252ad1be2c89b69c2b068fc378daa952ba7f163c4a11628f55a4df523b3ef",
            "0x000000000000000000000000b98c50b291a8b69cffabd172de4d1bbc773f962a",
            "0x00000000000000000000000000000c771f6176268d5a9846e0956c3ef58597a1"
          ],
          "data": "0x0000000000000000000000000000000000000000000000000000000000989619",
          "blockHash": "0x0ccf008e4c27f26a2be4cc015f9f81613ad56f4b161e3c694331abe653521926",
          "blockNumber": "0x77c06f",
          "transactionHash": "0xadc8cacb1293d011a138dcd0aec77eee77c0766a8bec15c6ff681cac7c9970e1",
          "transactionIndex": "0x6b",
          "logIndex": "0xa7",
          "removed": false
        }
      ],
      "logsBloom": "0x00000000000000000080000000000000000004000000000000000000000002200000000000400000000000000000000000000000000000000000000000000000000000000000000000000008000000000000000000000000001000000000000000000000000000000000000000000000000000000000000000000010000000000000000004000000000040000000000000000000000100000000000000000000000000000000000200000000010000000000000000000000000000000000000000000002000000000000000000000000000000000000000000000000000000000000000000000100000000000000000000000000000000000000000000000000",
      "type": "0x2",
      "transactionHash": "0xadc8cacb1293d011a138dcd0aec77eee77c0766a8bec15c6ff681cac7c9970e1",
      "transactionIndex": "0x6b",
      "blockHash": "0x0ccf008e4c27f26a2be4cc015f9f81613ad56f4b161e3c694331abe653521926",
      "blockNumber": "0x77c06f",
      "gasUsed": "0x135c1",
      "effectiveGasPrice": "0x114d8f",
      "from": "0x00000c771f6176268d5a9846e0956c3ef58597a1",
      "to": "0x82d25d06a00f04bae3a19107a8131afc019f3adf",
      "contractAddress": null
    },
    {
      "status": "0x1",
      "cumulativeGasUsed": "0xbb3bb0",
      "logs": [
        {
          "address": "0xb98c50b291a8b69cffabd172de4d1bbc773f962a",
          "topics": [],
          "data": "0x82d25d06a00f04bae3a19107a8131afc019f3adfa491e92984adb6a18167bbc92d67a4cf5661e602f9cdf32e68c980b4191df8b7ffffffffffffffffffffffffffb3b4be0000000000000000000000001dcd6500000000000000000001634572ad7ac440800000027ffff5c641f9dced004644f4",
          "blockHash": "0x0ccf008e4c27f26a2be4cc015f9f81613ad56f4b161e3c694331abe653521926",
          "blockNumber": "0x77c06f",
          "transactionHash": "0xc1f190dc07e5dcadcb14525b953429d00a45c3f66ef56d85e7edc350a285c77e",
          "transactionIndex": "0x6c",
          "logIndex": "0xa8",
          "removed": false
        },
        {
          "address": "0x71c489da6766fed563c2c9c423268698f87966ec",
          "topics": [
            "0xddf252ad1be2c89b69c2b068fc378daa952ba7f163c4a11628f55a4df523b3ef",
            "0x00000000000000000000000000000c771f6176268d5a9846e0956c3ef58597a1",
            "0x000000000000000000000000b98c50b291a8b69cffabd172de4d1bbc773f962a"
          ],
          "data": "0x000000000000000000000000000000000000000000000000000000001dcd6500",
          "blockHash": "0x0ccf008e4c27f26a2be4cc015f9f81613ad56f4b161e3c694331abe653521926",
          "blockNumber": "0x77c06f",
          "transactionHash": "0xc1f190dc07e5dcadcb14525b953429d00a45c3f66ef56d85e7edc350a285c77e",
          "transactionIndex": "0x6c",
          "logIndex": "0xa9",
          "removed": false
        }
      ],
      "logsBloom": "0x00000000000000000080000000000000000004000000000000000000000002200000000000400000000000000000000000000000000000000000000000000000000000000000000000000008000000000000000000000000001000000000000000000000000000000000000000000000000000000000000000000010000000000000000004000000000040000000000000000000000100000000000000000000000000000000000200000000010000000000000000000000000000000000000000000002000000000000000000000000000000000000000000000000000000000000000000000100000000000000000000000000000000000000000000000000",
      "type": "0x2",
      "transactionHash": "0xc1f190dc07e5dcadcb14525b953429d00a45c3f66ef56d85e7edc350a285c77e",
      "transactionIndex": "0x6c",
      "blockHash": "0x0ccf008e4c27f26a2be4cc015f9f81613ad56f4b161e3c694331abe653521926",
      "blockNumber": "0x77c06f",
      "gasUsed": "0x150a6",
      "effectiveGasPrice": "0x114d8f",
      "from": "0x00000c771f6176268d5a9846e0956c3ef58597a1",
      "to": "0x82d25d06a00f04bae3a19107a8131afc019f3adf",
      "contractAddress": null
    },
    {
      "status": "0x1",
      "cumulativeGasUsed": "0xbc7175",
      "logs": [
        {
          "address": "0xb98c50b291a8b69cffabd172de4d1bbc773f962a",
          "topics": [],
          "data": "0x82d25d06a00f04bae3a19107a8131afc019f3adfa491e92984adb6a18167bbc92d67a4cf5661e602f9cdf32e68c980b4191df8b7000000000000000000000000000186a0ffffffffffffffffffffffffff6769bd000000000000000001634572ad7ac440800000027ffff5c6267d0799004644f4",
          "blockHash": "0x0ccf008e4c27f26a2be4cc015f9f81613ad56f4b161e3c694331abe653521926",
          "blockNumber": "0x77c06f",
          "transactionHash": "0xa73b0b4f3a4a5b8470b4da287fe335b0f807590b517d5483e27897cd131ad872",
          "transactionIndex": "0x6d",
          "logIndex": "0xaa",
          "removed": false
        },
        {
          "address": "0x71c489da6766fed563c2c9c423268698f87966ec",
          "topics": [
            "0xddf252ad1be2c89b69c2b068fc378daa952ba7f163c4a11628f55a4df523b3ef",
            "0x000000000000000000000000b98c50b291a8b69cffabd172de4d1bbc773f962a",
            "0x00000000000000000000000000000c771f6176268d5a9846e0956c3ef58597a1"
          ],
          "data": "0x0000000000000000000000000000000000000000000000000000000000989643",
          "blockHash": "0x0ccf008e4c27f26a2be4cc015f9f81613ad56f4b161e3c694331abe653521926",
          "blockNumber": "0x77c06f",
          "transactionHash": "0xa73b0b4f3a4a5b8470b4da287fe335b0f807590b517d5483e27897cd131ad872",
          "transactionIndex": "0x6d",
          "logIndex": "0xab",
          "removed": false
        }
      ],
      "logsBloom": "0x00000000000000000080000000000000000004000000000000000000000002200000000000400000000000000000000000000000000000000000000000000000000000000000000000000008000000000000000000000000001000000000000000000000000000000000000000000000000000000000000000000010000000000000000004000000000040000000000000000000000100000000000000000000000000000000000200000000010000000000000000000000000000000000000000000002000000000000000000000000000000000000000000000000000000000000000000000100000000000000000000000000000000000000000000000000",
      "type": "0x2",
      "transactionHash": "0xa73b0b4f3a4a5b8470b4da287fe335b0f807590b517d5483e27897cd131ad872",
      "transactionIndex": "0x6d",
      "blockHash": "0x0ccf008e4c27f26a2be4cc015f9f81613ad56f4b161e3c694331abe653521926",
      "blockNumber": "0x77c06f",
      "gasUsed": "0x135c5",
      "effectiveGasPrice": "0x114d8f",
      "from": "0x00000c771f6176268d5a9846e0956c3ef58597a1",
      "to": "0x82d25d06a00f04bae3a19107a8131afc019f3adf",
      "contractAddress": null
    },
    {
      "status": "0x1",
      "cumulativeGasUsed": "0xbdc21b",
      "logs": [
        {
          "address": "0xb98c50b291a8b69cffabd172de4d1bbc773f962a",
          "topics": [],
          "data": "0x82d25d06a00f04bae3a19107a8131afc019f3adfa491e92984adb6a18167bbc92d67a4cf5661e602f9cdf32e68c980b4191df8b7ffffffffffffffffffffffffffb3b4be0000000000000000000000001dcd6500000000000000000001634572ad7ac440800000027ffff5cb84e0d625004644f4",
          "blockHash": "0x0ccf008e4c27f26a2be4cc015f9f81613ad56f4b161e3c694331abe653521926",
          "blockNumber": "0x77c06f",
          "transactionHash": "0x8c08a82aa49557a588469e9a4a86dcaf1c6130f61b170a4a0afa5f3c0e1cbecf",
          "transactionIndex": "0x6e",
          "logIndex": "0xac",
          "removed": false
        },
        {
          "address": "0x71c489da6766fed563c2c9c423268698f87966ec",
          "topics": [
            "0xddf252ad1be2c89b69c2b068fc378daa952ba7f163c4a11628f55a4df523b3ef",
            "0x00000000000000000000000000000c771f6176268d5a9846e0956c3ef58597a1",
            "0x000000000000000000000000b98c50b291a8b69cffabd172de4d1bbc773f962a"
          ],
          "data": "0x000000000000000000000000000000000000000000000000000000001dcd6500",
          "blockHash": "0x0ccf008e4c27f26a2be4cc015f9f81613ad56f4b161e3c694331abe653521926",
          "blockNumber": "0x77c06f",
          "transactionHash": "0x8c08a82aa49557a588469e9a4a86dcaf1c6130f61b170a4a0afa5f3c0e1cbecf",
          "transactionIndex": "0x6e",
          "logIndex": "0xad",
          "removed": false
        }
      ],
      "logsBloom": "0x00000000000000000080000000000000000004000000000000000000000002200000000000400000000000000000000000000000000000000000000000000000000000000000000000000008000000000000000000000000001000000000000000000000000000000000000000000000000000000000000000000010000000000000000004000000000040000000000000000000000100000000000000000000000000000000000200000000010000000000000000000000000000000000000000000002000000000000000000000000000000000000000000000000000000000000000000000100000000000000000000000000000000000000000000000000",
      "type": "0x2",
      "transactionHash": "0x8c08a82aa49557a588469e9a4a86dcaf1c6130f61b170a4a0afa5f3c0e1cbecf",
      "transactionIndex": "0x6e",
      "blockHash": "0x0ccf008e4c27f26a2be4cc015f9f81613ad56f4b161e3c694331abe653521926",
      "blockNumber": "0x77c06f",
      "gasUsed": "0x150a6",
      "effectiveGasPrice": "0x114d8f",
      "from": "0x00000c771f6176268d5a9846e0956c3ef58597a1",
      "to": "0x82d25d06a00f04bae3a19107a8131afc019f3adf",
      "contractAddress": null
    },
    {
      "status": "0x1",
      "cumulativeGasUsed": "0xc1fff0",
      "logs": [
        {
          "address": "0xb98c50b291a8b69cffabd172de4d1bbc773f962a",
          "topics": [
            "0x5e4688b340694b7c7fd30047fd082117dc46e32acfbf81a44bb1fac0ae65154d"
          ],
          "data": "0xecf38bd82ffd8940774db5d0e370f71c85a7acd6616158577fccf1508c729da4000000000000000000000000000000000000000000000000000000000000000000000000000000000000000071c489da6766fed563c2c9c423268698f87966ec0000000000000000000000000000000000000000028f5c28f5c28f5c00004d5a000000000000000000000000000000000000000000000000000000000081f64d000000000000000000000000000000000000000080000011ad7b7d57d2db6557",
          "blockHash": "0x0ccf008e4c27f26a2be4cc015f9f81613ad56f4b161e3c694331abe653521926",
          "blockNumber": "0x77c06f",
          "transactionHash": "0x2e81c9f11a59a8da2b274e45c93d8fd6dd1d73e50d0c42a3507f59a3449402ef",
          "transactionIndex": "0x6f",
          "logIndex": "0xae",
          "removed": false
        },
        {
          "address": "0x75166e153b72f913aa21e1d1d83cd10454c6bff6",
          "topics": [
            "0xddf252ad1be2c89b69c2b068fc378daa952ba7f163c4a11628f55a4df523b3ef",
            "0x0000000000000000000000000000000000000000000000000000000000000000",
            "0x00000000000000000000000000000c771f6176268d5a9846e0956c3ef58597a1",
            "0x0000000000000000000000000000000000000000000000000000f1c954e77f04"
          ],
          "data": "0x",
          "blockHash": "0x0ccf008e4c27f26a2be4cc015f9f81613ad56f4b161e3c694331abe653521926",
          "blockNumber": "0x77c06f",
          "transactionHash": "0x2e81c9f11a59a8da2b274e45c93d8fd6dd1d73e50d0c42a3507f59a3449402ef",
          "transactionIndex": "0x6f",
          "logIndex": "0xaf",
          "removed": false
        },
        {
          "address": "0xb98c50b291a8b69cffabd172de4d1bbc773f962a",
          "topics": [
            "0xa2d4008be4187c63684f323788e131e1370dbc2205499befe2834005a00c792c"
          ],
          "data": "0x00000000000000000000000075166e153b72f913aa21e1d1d83cd10454c6bff6ecf38bd82ffd8940774db5d0e370f71c85a7acd6616158577fccf1508c729da40000000000000000000000000000000000000000000000000000f1c954e77f04fffffffffffffffffffffffffffffffffffffffffffffffffffffffffab65900000000000000000000000000000000000000000000000000000000000549a7000000000000000000000000000000000000000000000000001d70712ddacf720b000000000000000000000000000000000000000000000000006a94d74f43000000000000000000000000000000000000000000000000000821aacfdf9998da53",
          "blockHash": "0x0ccf008e4c27f26a2be4cc015f9f81613ad56f4b161e3c694331abe653521926",
          "blockNumber": "0x77c06f",
          "transactionHash": "0x2e81c9f11a59a8da2b274e45c93d8fd6dd1d73e50d0c42a3507f59a3449402ef",
          "transactionIndex": "0x6f",
          "logIndex": "0xb0",
          "removed": false
        },
        {
          "address": "0x71c489da6766fed563c2c9c423268698f87966ec",
          "topics": [
            "0xddf252ad1be2c89b69c2b068fc378daa952ba7f163c4a11628f55a4df523b3ef",
            "0x00000000000000000000000000000c771f6176268d5a9846e0956c3ef58597a1",
            "0x000000000000000000000000b98c50b291a8b69cffabd172de4d1bbc773f962a"
          ],
          "data": "0x00000000000000000000000000000000000000000000000821aacfdf9998da53",
          "blockHash": "0x0ccf008e4c27f26a2be4cc015f9f81613ad56f4b161e3c694331abe653521926",
          "blockNumber": "0x77c06f",
          "transactionHash": "0x2e81c9f11a59a8da2b274e45c93d8fd6dd1d73e50d0c42a3507f59a3449402ef",
          "transactionIndex": "0x6f",
          "logIndex": "0xb1",
          "removed": false
        }
      ],
      "logsBloom": "0x00000000000100000080000000000000800004000100000000000000000002200000000000400004000000000000000000000000000000000000000010000000000000000000000000002008000000000000000000000000001000000000000020000000020000000000000000000800000800000000000000000010000000000000000004000000000040000008000000000000000100000000000000000000000000000000000200000000010000000000000000000000000000000400000000000022000000000000000000000000000000000000000000000000000020000000000000000100000000000000000000008000000000000000000000000000",
      "type": "0x2",
      "transactionHash": "0x2e81c9f11a59a8da2b274e45c93d8fd6dd1d73e50d0c42a3507f59a3449402ef",
      "transactionIndex": "0x6f",
      "blockHash": "0x0ccf008e4c27f26a2be4cc015f9f81613ad56f4b161e3c694331abe653521926",
      "blockNumber": "0x77c06f",
      "gasUsed": "0x43dd5",
      "effectiveGasPrice": "0x114d8f",
      "from": "0x00000c771f6176268d5a9846e0956c3ef58597a1",
      "to": "0x75166e153b72f913aa21e1d1d83cd10454c6bff6",
      "contractAddress": null
    },
    {
      "status": "0x1",
      "cumulativeGasUsed": "0xc5953d",
      "logs": [
        {
          "address": "0xb98c50b291a8b69cffabd172de4d1bbc773f962a",
          "topics": [
            "0x5e4688b340694b7c7fd30047fd082117dc46e32acfbf81a44bb1fac0ae65154d"
          ],
          "data": "0xa6cd6b26e6bb16131dca3e6ad267cfd1680f2faa6ae75763988f94b5294ff656000000000000000000000000000000000000000000000000000000000000000000000000000000000000000071c489da6766fed563c2c9c423268698f87966ecd03417f73b726b310e12eb64274060069d06ca22028f5c28f5c28f5c00000000000000000000000000000000000000000000000000000000000000000081f64d000000000000000000000000000000000000000080000011ad7b7d57d2db6557",
          "blockHash": "0x0ccf008e4c27f26a2be4cc015f9f81613ad56f4b161e3c694331abe653521926",
          "blockNumber": "0x77c06f",
          "transactionHash": "0x821eeaeed4c3bf817a43ff3197406bfabeb4d1aed6ff33ba99a008bd665dcc75",
          "transactionIndex": "0x70",
          "logIndex": "0xb2",
          "removed": false
        },
        {
          "address": "0xd03417f73b726b310e12eb64274060069d06ca22",
          "topics": [],
          "data": "0xa6cd6b26e6bb16131dca3e6ad267cfd1680f2faa6ae75763988f94b5294ff65600000000000000000000000000000000000000000000000000000000",
          "blockHash": "0x0ccf008e4c27f26a2be4cc015f9f81613ad56f4b161e3c694331abe653521926",
          "blockNumber": "0x77c06f",
          "transactionHash": "0x821eeaeed4c3bf817a43ff3197406bfabeb4d1aed6ff33ba99a008bd665dcc75",
          "transactionIndex": "0x70",
          "logIndex": "0xb3",
          "removed": false
        },
        {
          "address": "0x75166e153b72f913aa21e1d1d83cd10454c6bff6",
          "topics": [
            "0xddf252ad1be2c89b69c2b068fc378daa952ba7f163c4a11628f55a4df523b3ef",
            "0x0000000000000000000000000000000000000000000000000000000000000000",
            "0x00000000000000000000000000000c771f6176268d5a9846e0956c3ef58597a1",
            "0x0000000000000000000000000000000000000000000000000000ebfadc247f24"
          ],
          "data": "0x",
          "blockHash": "0x0ccf008e4c27f26a2be4cc015f9f81613ad56f4b161e3c694331abe653521926",
          "blockNumber": "0x77c06f",
          "transactionHash": "0x821eeaeed4c3bf817a43ff3197406bfabeb4d1aed6ff33ba99a008bd665dcc75",
          "transactionIndex": "0x70",
          "logIndex": "0xb4",
          "removed": false
        },
        {
          "address": "0xb98c50b291a8b69cffabd172de4d1bbc773f962a",
          "topics": [
            "0xa2d4008be4187c63684f323788e131e1370dbc2205499befe2834005a00c792c"
          ],
          "data": "0x00000000000000000000000075166e153b72f913aa21e1d1d83cd10454c6bff6a6cd6b26e6bb16131dca3e6ad267cfd1680f2faa6ae75763988f94b5294ff6560000000000000000000000000000000000000000000000000000ebfadc247f24fffffffffffffffffffffffffffffffffffffffffffffffffffffffffab6326d000000000000000000000000000000000000000000000000000000000549cd930000000000000000000000000000000000000000000000001d70712ddacf720b000000000000000000000000000000000000000000000000006a94d74f43000000000000000000000000000000000000000000000000000821aacfdf9998da53",
          "blockHash": "0x0ccf008e4c27f26a2be4cc015f9f81613ad56f4b161e3c694331abe653521926",
          "blockNumber": "0x77c06f",
          "transactionHash": "0x821eeaeed4c3bf817a43ff3197406bfabeb4d1aed6ff33ba99a008bd665dcc75",
          "transactionIndex": "0x70",
          "logIndex": "0xb5",
          "removed": false
        },
        {
          "address": "0x71c489da6766fed563c2c9c423268698f87966ec",
          "topics": [
            "0xddf252ad1be2c89b69c2b068fc378daa952ba7f163c4a11628f55a4df523b3ef",
            "0x00000000000000000000000000000c771f6176268d5a9846e0956c3ef58597a1",
            "0x000000000000000000000000b98c50b291a8b69cffabd172de4d1bbc773f962a"
          ],
          "data": "0x00000000000000000000000000000000000000000000000821aacfdf9998da53",
          "blockHash": "0x0ccf008e4c27f26a2be4cc015f9f81613ad56f4b161e3c694331abe653521926",
          "blockNumber": "0x77c06f",
          "transactionHash": "0x821eeaeed4c3bf817a43ff3197406bfabeb4d1aed6ff33ba99a008bd665dcc75",
          "transactionIndex": "0x70",
          "logIndex": "0xb6",
          "removed": false
        }
      ],
      "logsBloom": "0x00000000000100000080000000000000000004000110000000000000000002200000000000400004008000000000000800000000000000000000000000000000000000000000000000002008000000000001000000000000001000000000000020000000020000000000000000000800000800000000000000000010000000000000000004000000000040000008000000000000000100000000000000000000000000000000000200000000010000000080000000000000000000000400000000000002000000000000000000000000000000000000000000000000000020000000000000000100000000000000000000008000000020000000000000000000",
      "type": "0x2",
      "transactionHash": "0x821eeaeed4c3bf817a43ff3197406bfabeb4d1aed6ff33ba99a008bd665dcc75",
      "transactionIndex": "0x70",
      "blockHash": "0x0ccf008e4c27f26a2be4cc015f9f81613ad56f4b161e3c694331abe653521926",
      "blockNumber": "0x77c06f",
      "gasUsed": "0x3954d",
      "effectiveGasPrice": "0x114d8f",
      "from": "0x00000c771f6176268d5a9846e0956c3ef58597a1",
      "to": "0x75166e153b72f913aa21e1d1d83cd10454c6bff6",
      "contractAddress": null
    },
    {
      "status": "0x1",
      "cumulativeGasUsed": "0xc64974",
      "logs": [
        {
          "address": "0x71c489da6766fed563c2c9c423268698f87966ec",
          "topics": [
            "0x8c5be1e5ebec7d5bd14f71427d1e84f3dd0314c0f7b2291e5b200ac8c7c3b925",
            "0x00000000000000000000000000000c771f6176268d5a9846e0956c3ef58597a1",
            "0x000000000000000000000000026013c7517e46b5ff84b51c2cfe6df4d9c16489"
          ],
          "data": "0xffffffffffffffffffffffffffffffffffffffffffffffffffffffffffffffff",
          "blockHash": "0x0ccf008e4c27f26a2be4cc015f9f81613ad56f4b161e3c694331abe653521926",
          "blockNumber": "0x77c06f",
          "transactionHash": "0xdd196aa83da6e9e4db39d8b63faa08d3b3bc3990dbb7b292997a0fce2f57a306",
          "transactionIndex": "0x71",
          "logIndex": "0xb7",
          "removed": false
        }
      ],
      "logsBloom": "0x00000000000000000000000000000000000004000000000000000000000002200000000000400000000000000000000000000000000000000000000000200000000000000000000000000000000000000000000000000000001000000000000000000000000000000000000000000000000000000000000000000000000010000000000000040000000000000000000000000000000100000000000000000000020000000000000000000000000000000000000000000000000000000000000000000000000000000000000000000000000000000000000000000400000000000010000000000000000000000000000000000000000000000000000000000000",
      "type": "0x2",
      "transactionHash": "0xdd196aa83da6e9e4db39d8b63faa08d3b3bc3990dbb7b292997a0fce2f57a306",
      "transactionIndex": "0x71",
      "blockHash": "0x0ccf008e4c27f26a2be4cc015f9f81613ad56f4b161e3c694331abe653521926",
      "blockNumber": "0x77c06f",
      "gasUsed": "0xb437",
      "effectiveGasPrice": "0x114d8f",
      "from": "0x00000c771f6176268d5a9846e0956c3ef58597a1",
      "to": "0x71c489da6766fed563c2c9c423268698f87966ec",
      "contractAddress": null
    },
    {
      "status": "0x1",
      "cumulativeGasUsed": "0xc997b4",
      "logs": [
        {
          "address": "0x026013c7517e46b5ff84b51c2cfe6df4d9c16489",
          "topics": [
            "0xddf252ad1be2c89b69c2b068fc378daa952ba7f163c4a11628f55a4df523b3ef",
            "0x0000000000000000000000000000000000000000000000000000000000000000",
            "0x00000000000000000000000000000c771f6176268d5a9846e0956c3ef58597a1",
            "0x0000000000000000000000000000000000000000000000000000cf5e7afa04b2"
          ],
          "data": "0x",
          "blockHash": "0x0ccf008e4c27f26a2be4cc015f9f81613ad56f4b161e3c694331abe653521926",
          "blockNumber": "0x77c06f",
          "transactionHash": "0xcc0271acaa03581ed7cda15c5012fca4987360211306636cc6ce6dcc8b3e2437",
          "transactionIndex": "0x72",
          "logIndex": "0xb8",
          "removed": false
        },
        {
          "address": "0xd03417f73b726b310e12eb64274060069d06ca22",
          "topics": [
            "0x7c8a7287149dd38ccf269c60c4074a91adb99a9df90bff524e1f75d3e99e1b0b"
          ],
          "data": "0x000000000000000000000000026013c7517e46b5ff84b51c2cfe6df4d9c164890000000000000000000000000000000000000000000000000000cf5e7afa04b200000000000000000000000071c489da6766fed563c2c9c423268698f87966ec0000000000000000000000000000000000000000000000000000000000000000000000000000000000000000000000000000000000000000028f5c28f5c28f5c00000000000000000000000000000000000000000000000000000000000000000000000000000000000000000000000000000000000000000000000067ca2fd0000000000000000000000000000000000000000006f05b59d3b2000000000000",
          "blockHash": "0x0ccf008e4c27f26a2be4cc015f9f81613ad56f4b161e3c694331abe653521926",
          "blockNumber": "0x77c06f",
          "transactionHash": "0xcc0271acaa03581ed7cda15c5012fca4987360211306636cc6ce6dcc8b3e2437",
          "transactionIndex": "0x72",
          "logIndex": "0xb9",
          "removed": false
        },
        {
          "address": "0x71c489da6766fed563c2c9c423268698f87966ec",
          "topics": [
            "0xddf252ad1be2c89b69c2b068fc378daa952ba7f163c4a11628f55a4df523b3ef",
            "0x00000000000000000000000000000c771f6176268d5a9846e0956c3ef58597a1",
            "0x000000000000000000000000b98c50b291a8b69cffabd172de4d1bbc773f962a"
          ],
          "data": "0x0000000000000000000000000000000000000000000000056bc75e2d63100000",
          "blockHash": "0x0ccf008e4c27f26a2be4cc015f9f81613ad56f4b161e3c694331abe653521926",
          "blockNumber": "0x77c06f",
          "transactionHash": "0xcc0271acaa03581ed7cda15c5012fca4987360211306636cc6ce6dcc8b3e2437",
          "transactionIndex": "0x72",
          "logIndex": "0xba",
          "removed": false
        }
      ],
      "logsBloom": "0x00000000000000000080000000000000000004000010000040000000000002200000000000400000000000000000000800100000000000400000000000000000000000000000000000000008000000000001000000000000001000000000000000000000020000000000000000000800000000080000000000000010000000000000000000000000000040000000080000000000100100000000000000000000000000000000000000000000010000000000000000000000000000000000000000000002000000000000000000000020000000000000000000000800000020000000000000000000000000010000000000000000000000000000000000000000",
      "type": "0x2",
      "transactionHash": "0xcc0271acaa03581ed7cda15c5012fca4987360211306636cc6ce6dcc8b3e2437",
      "transactionIndex": "0x72",
      "blockHash": "0x0ccf008e4c27f26a2be4cc015f9f81613ad56f4b161e3c694331abe653521926",
      "blockNumber": "0x77c06f",
      "gasUsed": "0x34e40",
      "effectiveGasPrice": "0x114d8f",
      "from": "0x00000c771f6176268d5a9846e0956c3ef58597a1",
      "to": "0x026013c7517e46b5ff84b51c2cfe6df4d9c16489",
      "contractAddress": null
    },
    {
      "status": "0x1",
      "cumulativeGasUsed": "0xcc2c56",
      "logs": [
        {
          "address": "0x026013c7517e46b5ff84b51c2cfe6df4d9c16489",
          "topics": [
            "0xddf252ad1be2c89b69c2b068fc378daa952ba7f163c4a11628f55a4df523b3ef",
            "0x0000000000000000000000000000000000000000000000000000000000000000",
            "0x00000000000000000000000000000c771f6176268d5a9846e0956c3ef58597a1",
            "0x0000000000000000000000000000000000000000000000000000a00eb775e952"
          ],
          "data": "0x",
          "blockHash": "0x0ccf008e4c27f26a2be4cc015f9f81613ad56f4b161e3c694331abe653521926",
          "blockNumber": "0x77c06f",
          "transactionHash": "0x59e7468d5161464fd3857686cf6ff9e41c3a36e89162951342f6dec855d49daf",
          "transactionIndex": "0x73",
          "logIndex": "0xbb",
          "removed": false
        },
        {
          "address": "0xd03417f73b726b310e12eb64274060069d06ca22",
          "topics": [
            "0x7c8a7287149dd38ccf269c60c4074a91adb99a9df90bff524e1f75d3e99e1b0b"
          ],
          "data": "0x000000000000000000000000026013c7517e46b5ff84b51c2cfe6df4d9c164890000000000000000000000000000000000000000000000000000a00eb775e952000000000000000000000000000000000000000000000000000000000000000000000000000000000000000071c489da6766fed563c2c9c423268698f87966ec000000000000000000000000000000000000000000000000028f5c28f5c28f5c00000000000000000000000000000000000000000000000000000000000000000000000000000000000000000000000000000000000000000000000067ca600000000000000000000000000000000000000000000000005cdd63fac84a7f19f9",
          "blockHash": "0x0ccf008e4c27f26a2be4cc015f9f81613ad56f4b161e3c694331abe653521926",
          "blockNumber": "0x77c06f",
          "transactionHash": "0x59e7468d5161464fd3857686cf6ff9e41c3a36e89162951342f6dec855d49daf",
          "transactionIndex": "0x73",
          "logIndex": "0xbc",
          "removed": false
        }
      ],
      "logsBloom": "0x00000000000000000000000000000000000004000010000040000000000000200000000000000000000000000000000800100000000000400000000000000000000000000000000000000008000000000001000000000000000000000000000000000000020000000000000000000800000000000000000000000010000200000000000000000100000000000000080000000000100100004000000000000000000000000000000000000000000000000000000000000000000000000000000000000002000000000000000000000020000000000000000000000000000020000000000000000000000000000000000000000000000000000000000000000000",
      "type": "0x2",
      "transactionHash": "0x59e7468d5161464fd3857686cf6ff9e41c3a36e89162951342f6dec855d49daf",
      "transactionIndex": "0x73",
      "blockHash": "0x0ccf008e4c27f26a2be4cc015f9f81613ad56f4b161e3c694331abe653521926",
      "blockNumber": "0x77c06f",
      "gasUsed": "0x294a2",
      "effectiveGasPrice": "0x114d8f",
      "from": "0x00000c771f6176268d5a9846e0956c3ef58597a1",
      "to": "0x026013c7517e46b5ff84b51c2cfe6df4d9c16489",
      "contractAddress": null
    }
  ],
  "libraries": [],
  "pending": [],
  "returns": {},
  "timestamp": 1741303561,
  "chain": 11155111,
  "commit": "5c06999"
}