{
  "transactions": [
    {
      "hash": "0x526513c76ae8dd15b5e6cbefeaae92de929486a0da5bd45569a3eddf1ad55fef",
      "transactionType": "CREATE",
      "contractName": "TestToken",
      "contractAddress": "0x28f2c86c76116cb48347668423104a7bc19ddd27",
      "function": null,
      "arguments": [
        "0x00000C771F6176268D5A9846E0956C3eF58597A1"
      ],
      "transaction": {
        "from": "0x00000c771f6176268d5a9846e0956c3ef58597a1",
        "gas": "0xbc67d",
        "value": "0x0",
        "input": "0x60803460ce57601f6109cc38819003918201601f19168301916001600160401b0383118484101760d25780849260209460405283398101031260ce57516001600160a01b038116810360ce576805345cdf77eb68f44c545f19810190811060c1576805345cdf77eb68f44c556387a211a2600c525f526020600c205f1981540190555f19602052600c5160601c5f7fddf252ad1be2c89b69c2b068fc378daa952ba7f163c4a11628f55a4df523b3ef602080a36040516108e590816100e78239f35b63e5cfe9575f526004601cfd5b5f80fd5b634e487b7160e01b5f52604160045260245ffdfe60806040526004361015610011575f80fd5b5f3560e01c806306fdde03146107cc578063095ea7b31461074357806318160ddd1461070057806323b872dd146105fb578063313ce567146105c25780633644e515146104f857806370a08231146104a85780637ecebe001461045857806395d89b41146103a1578063a9059cbb146102f4578063d505accf146100fd5763dd62ed3e1461009d575f80fd5b346100f95760407ffffffffffffffffffffffffffffffffffffffffffffffffffffffffffffffffc3601126100f9576100d461087b565b6100dc61089e565b602052637f5e9f20600c525f5260206034600c2054604051908152f35b5f80fd5b346100f95760e07ffffffffffffffffffffffffffffffffffffffffffffffffffffffffffffffffc3601126100f95761013461087b565b61013c61089e565b6084359160643560443560ff851685036100f9576101586108c1565b60208101907f54657374546f6b656e00000000000000000000000000000000000000000000008252519020908242116102e75773ffffffffffffffffffffffffffffffffffffffff80604051951695169565383775081901600e52855f5260c06020600c20958654957f8b73c3c69bb8fe3d512ecc4cf759cc79239f7b179b0ffacaa9a75d522b39400f8252602082019586528660408301967fc89efdaa54c0f20c7adf612882df0950f5a951637e0307cdcb4c672f298b8bc688528b6060850198468a528c608087019330855260a08820602e527f6e71edae12b1b97f4d1f60370fef10105fa2faae0126114a169c64845d6126c9885252528688525260a082015220604e526042602c205f5260ff1660205260a43560405260c43560605260208060805f60015afa93853d51036102da577f8c5be1e5ebec7d5bd14f71427d1e84f3dd0314c0f7b2291e5b200ac8c7c3b9259460209401905585777f5e9f200000000000000000000000000000000000000000176040526034602c2055a3005b63ddafbaef5f526004601cfd5b631a15a3cc5f526004601cfd5b346100f95760407ffffffffffffffffffffffffffffffffffffffffffffffffffffffffffffffffc3601126100f95761032b61087b565b602435906387a211a2600c52335f526020600c2080548084116103945783900390555f526020600c20818154019055602052600c5160601c337fddf252ad1be2c89b69c2b068fc378daa952ba7f163c4a11628f55a4df523b3ef602080a3602060405160018152f35b63f4d678b85f526004601cfd5b346100f9575f7ffffffffffffffffffffffffffffffffffffffffffffffffffffffffffffffffc3601126100f957604051604081019080821067ffffffffffffffff83111761042b5761042791604052600281527f5454000000000000000000000000000000000000000000000000000000000000602082015260405191829182610833565b0390f35b7f4e487b71000000000000000000000000000000000000000000000000000000005f52604160045260245ffd5b346100f95760207ffffffffffffffffffffffffffffffffffffffffffffffffffffffffffffffffc3601126100f95761048f61087b565b6338377508600c525f52602080600c2054604051908152f35b346100f95760207ffffffffffffffffffffffffffffffffffffffffffffffffffffffffffffffffc3601126100f9576104df61087b565b6387a211a2600c525f52602080600c2054604051908152f35b346100f9575f7ffffffffffffffffffffffffffffffffffffffffffffffffffffffffffffffffc3601126100f957602060a06105326108c1565b828101907f54657374546f6b656e00000000000000000000000000000000000000000000008252519020604051907f8b73c3c69bb8fe3d512ecc4cf759cc79239f7b179b0ffacaa9a75d522b39400f8252838201527fc89efdaa54c0f20c7adf612882df0950f5a951637e0307cdcb4c672f298b8bc6604082015246606082015230608082015220604051908152f35b346100f9575f7ffffffffffffffffffffffffffffffffffffffffffffffffffffffffffffffffc3601126100f957602060405160128152f35b346100f95760607ffffffffffffffffffffffffffffffffffffffffffffffffffffffffffffffffc3601126100f95761063261087b565b61063a61089e565b604435908260601b33602052637f5e9f208117600c526034600c209081549182196106dc575b506387a211a2915017600c526020600c2080548084116103945783900390555f526020600c2081815401905560205273ffffffffffffffffffffffffffffffffffffffff600c5160601c91167fddf252ad1be2c89b69c2b068fc378daa952ba7f163c4a11628f55a4df523b3ef602080a3602060405160018152f35b8285116106f357846387a211a29303905585610660565b6313be252b5f526004601cfd5b346100f9575f7ffffffffffffffffffffffffffffffffffffffffffffffffffffffffffffffffc3601126100f95760206805345cdf77eb68f44c54604051908152f35b346100f95760407ffffffffffffffffffffffffffffffffffffffffffffffffffffffffffffffffc3601126100f95761077a61087b565b60243590602052637f5e9f20600c52335f52806034600c20555f52602c5160601c337f8c5be1e5ebec7d5bd14f71427d1e84f3dd0314c0f7b2291e5b200ac8c7c3b92560205fa3602060405160018152f35b346100f9575f7ffffffffffffffffffffffffffffffffffffffffffffffffffffffffffffffffc3601126100f9576104276108056108c1565b7f54657374546f6b656e00000000000000000000000000000000000000000000006020820152604051918291825b7fffffffffffffffffffffffffffffffffffffffffffffffffffffffffffffffe0601f602060409481855280519182918282880152018686015e5f8582860101520116010190565b6004359073ffffffffffffffffffffffffffffffffffffffff821682036100f957565b6024359073ffffffffffffffffffffffffffffffffffffffff821682036100f957565b604051906040820182811067ffffffffffffffff82111761042b57604052600982525600000000000000000000000000000c771f6176268d5a9846e0956c3ef58597a1",
        "nonce": "0x207",
        "chainId": "0xaa36a7"
      },
      "additionalContracts": [],
      "isFixedGasLimit": false
    },
    {
      "hash": "0xf7eb22bb49ffb46054a11bf675420f249c6a81f9ecf95a5642892f22a64939e7",
      "transactionType": "CALL",
      "contractName": "TestToken",
      "contractAddress": "0x28f2c86c76116cb48347668423104a7bc19ddd27",
      "function": "approve(address,uint256)",
      "arguments": [
        "0x5aCA2B05eDFaa5F5CD1C178cfC397d479E467f98",
        "115792089237316195423570985008687907853269984665640564039457584007913129639935"
      ],
      "transaction": {
        "from": "0x00000c771f6176268d5a9846e0956c3ef58597a1",
        "to": "0x28f2c86c76116cb48347668423104a7bc19ddd27",
        "gas": "0xf8eb",
        "value": "0x0",
        "input": "0x095ea7b30000000000000000000000005aca2b05edfaa5f5cd1c178cfc397d479e467f98ffffffffffffffffffffffffffffffffffffffffffffffffffffffffffffffff",
        "nonce": "0x208",
        "chainId": "0xaa36a7"
      },
      "additionalContracts": [],
      "isFixedGasLimit": false
    },
    {
      "hash": "0x8dc2c6631f2cc02a8e0e15dbb5b6a4864422f011103c8b20191992d36e6b389e",
      "transactionType": "CALL",
      "contractName": "TestToken",
      "contractAddress": "0x28f2c86c76116cb48347668423104a7bc19ddd27",
      "function": "approve(address,uint256)",
      "arguments": [
        "0xb91C28b1b9DE28AA9c651c388415eEe7395eBfA4",
        "115792089237316195423570985008687907853269984665640564039457584007913129639935"
      ],
      "transaction": {
        "from": "0x00000c771f6176268d5a9846e0956c3ef58597a1",
        "to": "0x28f2c86c76116cb48347668423104a7bc19ddd27",
        "gas": "0xf8eb",
        "value": "0x0",
        "input": "0x095ea7b3000000000000000000000000b91c28b1b9de28aa9c651c388415eee7395ebfa4ffffffffffffffffffffffffffffffffffffffffffffffffffffffffffffffff",
        "nonce": "0x209",
        "chainId": "0xaa36a7"
      },
      "additionalContracts": [],
      "isFixedGasLimit": false
    },
    {
      "hash": null,
      "transactionType": "CALL",
      "contractName": null,
      "contractAddress": "0xb91c28b1b9de28aa9c651c388415eee7395ebfa4",
      "function": "multicall(bytes[])",
      "arguments": [
        "[0x3bb838a8000000000000000000000000000000000000000000000000000000000000000000000000000000000000000028f2c86c76116cb48347668423104a7bc19ddd270000000000000000000000000000000000c49ba5e353f7ced916872b020c49ba000000000000000000000000000000000000000000000000000000000000175e0000000000000000000000000000000000000000000000000000000000000000000000000000000000000000000000000000000000000000000000000081f64d, 0xcda20b5047fdbfc63adc540c446318bd995469a3ff0d3bf4201f837c3bbbd184152ca964000000000000000000000000000000000000000000000000000000000000000000000000000000000000000028f2c86c76116cb48347668423104a7bc19ddd270000000000000000000000000000000000c49ba5e353f7ced916872b020c49ba000000000000000000000000000000000000000000000000000000000000175e0000000000000000000000000000000000000000000000000000000000000000fffffffffffffffffffffffffffffffffffffffffffffffffffffffffab6413e000000000000000000000000000000000000000000000000000000000549bec2000000000000000000000000000000000000000000000000002386f26fc10000000000000000000000000000000000000000000000000002b5e3af16b18800000000000000000000000000000000000000000000000000000000000000000000, 0x41865270]"
      ],
      "transaction": {
        "from": "0x00000c771f6176268d5a9846e0956c3ef58597a1",
        "to": "0xb91c28b1b9de28aa9c651c388415eee7395ebfa4",
        "gas": "0x70ff4",
        "value": "0x2386f26fc10000",
        "input": "0xac9650d80000000000000000000000000000000000000000000000000000000000000020000000000000000000000000000000000000000000000000000000000000000300000000000000000000000000000000000000000000000000000000000000600000000000000000000000000000000000000000000000000000000000000160000000000000000000000000000000000000000000000000000000000000030000000000000000000000000000000000000000000000000000000000000000c43bb838a8000000000000000000000000000000000000000000000000000000000000000000000000000000000000000028f2c86c76116cb48347668423104a7bc19ddd270000000000000000000000000000000000c49ba5e353f7ced916872b020c49ba000000000000000000000000000000000000000000000000000000000000175e0000000000000000000000000000000000000000000000000000000000000000000000000000000000000000000000000000000000000000000000000081f64d000000000000000000000000000000000000000000000000000000000000000000000000000000000000000000000000000000000000000000000164cda20b5047fdbfc63adc540c446318bd995469a3ff0d3bf4201f837c3bbbd184152ca964000000000000000000000000000000000000000000000000000000000000000000000000000000000000000028f2c86c76116cb48347668423104a7bc19ddd270000000000000000000000000000000000c49ba5e353f7ced916872b020c49ba000000000000000000000000000000000000000000000000000000000000175e0000000000000000000000000000000000000000000000000000000000000000fffffffffffffffffffffffffffffffffffffffffffffffffffffffffab6413e000000000000000000000000000000000000000000000000000000000549bec2000000000000000000000000000000000000000000000000002386f26fc10000000000000000000000000000000000000000000000000002b5e3af16b188000000000000000000000000000000000000000000000000000000000000000000000000000000000000000000000000000000000000000000000000000000000000000000000000000000000000000000000000000000000000000000044186527000000000000000000000000000000000000000000000000000000000",
        "nonce": "0x20a",
        "chainId": "0xaa36a7"
      },
      "additionalContracts": [],
      "isFixedGasLimit": false
    },
    {
      "hash": null,
      "transactionType": "CALL",
      "contractName": null,
      "contractAddress": "0x5aca2b05edfaa5f5cd1c178cfc397d479e467f98",
      "function": "swap(((address,address,uint128,uint32,address),uint256,uint256),(address,int128),int256)",
      "arguments": [
        "((0x0000000000000000000000000000000000000000, 0x28f2c86c76116CB48347668423104A7bC19ddd27, 1020847100762815390390123822295304634, 5982, 0x0000000000000000000000000000000000000000), 0, 0)",
        "(0x0000000000000000000000000000000000000000, 100000)",
        "250000000"
      ],
      "transaction": {
        "from": "0x00000c771f6176268d5a9846e0956c3ef58597a1",
        "to": "0x5aca2b05edfaa5f5cd1c178cfc397d479e467f98",
        "gas": "0x24b54",
        "value": "0x186a0",
        "input": "0xe07ba4cf000000000000000000000000000000000000000000000000000000000000000000000000000000000000000028f2c86c76116cb48347668423104a7bc19ddd270000000000000000000000000000000000c49ba5e353f7ced916872b020c49ba000000000000000000000000000000000000000000000000000000000000175e000000000000000000000000000000000000000000000000000000000000000000000000000000000000000000000000000000000000000000000000000000000000000000000000000000000000000000000000000000000000000000000000000000000000000000000000000000000000000000000000000000000000000000000000000000000000000000000000000000000000000000000000000186a0000000000000000000000000000000000000000000000000000000000ee6b280",
        "nonce": "0x20b",
        "chainId": "0xaa36a7"
      },
      "additionalContracts": [],
      "isFixedGasLimit": false
    },
    {
      "hash": null,
      "transactionType": "CALL",
      "contractName": null,
      "contractAddress": "0x5aca2b05edfaa5f5cd1c178cfc397d479e467f98",
      "function": "swap(((address,address,uint128,uint32,address),uint256,uint256),(address,int128),int256)",
      "arguments": [
        "((0x0000000000000000000000000000000000000000, 0x28f2c86c76116CB48347668423104A7bC19ddd27, 1020847100762815390390123822295304634, 5982, 0x0000000000000000000000000000000000000000), 0, 0)",
        "(0x28f2c86c76116CB48347668423104A7bC19ddd27, 500000000)",
        "50000"
      ],
      "transaction": {
        "from": "0x00000c771f6176268d5a9846e0956c3ef58597a1",
        "to": "0x5aca2b05edfaa5f5cd1c178cfc397d479e467f98",
        "gas": "0x28a69",
        "value": "0x186a0",
        "input": "0xe07ba4cf000000000000000000000000000000000000000000000000000000000000000000000000000000000000000028f2c86c76116cb48347668423104a7bc19ddd270000000000000000000000000000000000c49ba5e353f7ced916872b020c49ba000000000000000000000000000000000000000000000000000000000000175e00000000000000000000000000000000000000000000000000000000000000000000000000000000000000000000000000000000000000000000000000000000000000000000000000000000000000000000000000000000000000000000000000000000000000000000000028f2c86c76116cb48347668423104a7bc19ddd27000000000000000000000000000000000000000000000000000000001dcd6500000000000000000000000000000000000000000000000000000000000000c350",
        "nonce": "0x20c",
        "chainId": "0xaa36a7"
      },
      "additionalContracts": [],
      "isFixedGasLimit": false
    },
    {
      "hash": null,
      "transactionType": "CALL",
      "contractName": null,
      "contractAddress": "0x5aca2b05edfaa5f5cd1c178cfc397d479e467f98",
      "function": "swap(((address,address,uint128,uint32,address),uint256,uint256),(address,int128),int256)",
      "arguments": [
        "((0x0000000000000000000000000000000000000000, 0x28f2c86c76116CB48347668423104A7bC19ddd27, 1020847100762815390390123822295304634, 5982, 0x0000000000000000000000000000000000000000), 0, 0)",
        "(0x0000000000000000000000000000000000000000, 100000)",
        "250000000"
      ],
      "transaction": {
        "from": "0x00000c771f6176268d5a9846e0956c3ef58597a1",
        "to": "0x5aca2b05edfaa5f5cd1c178cfc397d479e467f98",
        "gas": "0x1ef11",
        "value": "0x186a0",
        "input": "0xe07ba4cf000000000000000000000000000000000000000000000000000000000000000000000000000000000000000028f2c86c76116cb48347668423104a7bc19ddd270000000000000000000000000000000000c49ba5e353f7ced916872b020c49ba000000000000000000000000000000000000000000000000000000000000175e000000000000000000000000000000000000000000000000000000000000000000000000000000000000000000000000000000000000000000000000000000000000000000000000000000000000000000000000000000000000000000000000000000000000000000000000000000000000000000000000000000000000000000000000000000000000000000000000000000000000000000000000000186a0000000000000000000000000000000000000000000000000000000000ee6b280",
        "nonce": "0x20d",
        "chainId": "0xaa36a7"
      },
      "additionalContracts": [],
      "isFixedGasLimit": false
    },
    {
      "hash": null,
      "transactionType": "CALL",
      "contractName": null,
      "contractAddress": "0x5aca2b05edfaa5f5cd1c178cfc397d479e467f98",
      "function": "swap(((address,address,uint128,uint32,address),uint256,uint256),(address,int128),int256)",
      "arguments": [
        "((0x0000000000000000000000000000000000000000, 0x28f2c86c76116CB48347668423104A7bC19ddd27, 1020847100762815390390123822295304634, 5982, 0x0000000000000000000000000000000000000000), 0, 0)",
        "(0x28f2c86c76116CB48347668423104A7bC19ddd27, 500000000)",
        "50000"
      ],
      "transaction": {
        "from": "0x00000c771f6176268d5a9846e0956c3ef58597a1",
        "to": "0x5aca2b05edfaa5f5cd1c178cfc397d479e467f98",
        "gas": "0x20a02",
        "value": "0x186a0",
        "input": "0xe07ba4cf000000000000000000000000000000000000000000000000000000000000000000000000000000000000000028f2c86c76116cb48347668423104a7bc19ddd270000000000000000000000000000000000c49ba5e353f7ced916872b020c49ba000000000000000000000000000000000000000000000000000000000000175e00000000000000000000000000000000000000000000000000000000000000000000000000000000000000000000000000000000000000000000000000000000000000000000000000000000000000000000000000000000000000000000000000000000000000000000000028f2c86c76116cb48347668423104a7bc19ddd27000000000000000000000000000000000000000000000000000000001dcd6500000000000000000000000000000000000000000000000000000000000000c350",
        "nonce": "0x20e",
        "chainId": "0xaa36a7"
      },
      "additionalContracts": [],
      "isFixedGasLimit": false
    },
    {
      "hash": null,
      "transactionType": "CALL",
      "contractName": null,
      "contractAddress": "0xb91c28b1b9de28aa9c651c388415eee7395ebfa4",
      "function": "multicall(bytes[])",
      "arguments": [
        "[0x3bb838a8000000000000000000000000000000000000000000000000000000000000000000000000000000000000000028f2c86c76116cb48347668423104a7bc19ddd2700000000000000000000000000000000028f5c28f5c28f5c28f5c28f5c28f5c20000000000000000000000000000000000000000000000000000000000004d5a0000000000000000000000000000000000000000000000000000000000000000000000000000000000000000000000000000000000000000000000000081f64d, 0xcda20b5047fdbfc63adc540c446318bd995469a3ff0d3bf4201f837c3bbbd184152ca965000000000000000000000000000000000000000000000000000000000000000000000000000000000000000028f2c86c76116cb48347668423104a7bc19ddd2700000000000000000000000000000000028f5c28f5c28f5c28f5c28f5c28f5c20000000000000000000000000000000000000000000000000000000000004d5a0000000000000000000000000000000000000000000000000000000000000000fffffffffffffffffffffffffffffffffffffffffffffffffffffffffab65900000000000000000000000000000000000000000000000000000000000549a700000000000000000000000000000000000000000000000000006a94d74f43000000000000000000000000000000000000000000000000001043561a88293000000000000000000000000000000000000000000000000000000000000000000000, 0x41865270]"
      ],
      "transaction": {
        "from": "0x00000c771f6176268d5a9846e0956c3ef58597a1",
        "to": "0xb91c28b1b9de28aa9c651c388415eee7395ebfa4",
        "gas": "0x654ab",
        "value": "0x6a94d74f430000",
        "input": "0xac9650d80000000000000000000000000000000000000000000000000000000000000020000000000000000000000000000000000000000000000000000000000000000300000000000000000000000000000000000000000000000000000000000000600000000000000000000000000000000000000000000000000000000000000160000000000000000000000000000000000000000000000000000000000000030000000000000000000000000000000000000000000000000000000000000000c43bb838a8000000000000000000000000000000000000000000000000000000000000000000000000000000000000000028f2c86c76116cb48347668423104a7bc19ddd2700000000000000000000000000000000028f5c28f5c28f5c28f5c28f5c28f5c20000000000000000000000000000000000000000000000000000000000004d5a0000000000000000000000000000000000000000000000000000000000000000000000000000000000000000000000000000000000000000000000000081f64d000000000000000000000000000000000000000000000000000000000000000000000000000000000000000000000000000000000000000000000164cda20b5047fdbfc63adc540c446318bd995469a3ff0d3bf4201f837c3bbbd184152ca965000000000000000000000000000000000000000000000000000000000000000000000000000000000000000028f2c86c76116cb48347668423104a7bc19ddd2700000000000000000000000000000000028f5c28f5c28f5c28f5c28f5c28f5c20000000000000000000000000000000000000000000000000000000000004d5a0000000000000000000000000000000000000000000000000000000000000000fffffffffffffffffffffffffffffffffffffffffffffffffffffffffab65900000000000000000000000000000000000000000000000000000000000549a700000000000000000000000000000000000000000000000000006a94d74f43000000000000000000000000000000000000000000000000001043561a882930000000000000000000000000000000000000000000000000000000000000000000000000000000000000000000000000000000000000000000000000000000000000000000000000000000000000000000000000000000000000000000044186527000000000000000000000000000000000000000000000000000000000",
        "nonce": "0x20f",
        "chainId": "0xaa36a7"
      },
      "additionalContracts": [],
      "isFixedGasLimit": false
    },
    {
      "hash": null,
      "transactionType": "CALL",
      "contractName": null,
      "contractAddress": "0xb91c28b1b9de28aa9c651c388415eee7395ebfa4",
      "function": "multicall(bytes[])",
      "arguments": [
        "[0x3bb838a8000000000000000000000000000000000000000000000000000000000000000000000000000000000000000028f2c86c76116cb48347668423104a7bc19ddd27000000000000000000000000000000000000000000000000000000000000000000000000000000000000000000000000000000000000000000000000000aa8ed00000000000000000000000051d580c15c43684081ff84d7a623f889e8289c2f00000000000000000000000000000000000000000000000000000000004644f4, 0xcda20b5047fdbfc63adc540c446318bd995469a3ff0d3bf4201f837c3bbbd184152ca966000000000000000000000000000000000000000000000000000000000000000000000000000000000000000028f2c86c76116cb48347668423104a7bc19ddd27000000000000000000000000000000000000000000000000000000000000000000000000000000000000000000000000000000000000000000000000000aa8ed00000000000000000000000051d580c15c43684081ff84d7a623f889e8289c2ffffffffffffffffffffffffffffffffffffffffffffffffffffffffffab6326d000000000000000000000000000000000000000000000000000000000549cd930000000000000000000000000000000000000000000000000de0b6b3a76400000000000000000000000000000000000000000000000000056bc75e2d631000000000000000000000000000000000000000000000000000000000000000000000, 0x41865270]"
      ],
      "transaction": {
        "from": "0x00000c771f6176268d5a9846e0956c3ef58597a1",
        "to": "0xb91c28b1b9de28aa9c651c388415eee7395ebfa4",
        "gas": "0x77b04",
        "value": "0xde0b6b3a7640000",
        "input": "0xac9650d80000000000000000000000000000000000000000000000000000000000000020000000000000000000000000000000000000000000000000000000000000000300000000000000000000000000000000000000000000000000000000000000600000000000000000000000000000000000000000000000000000000000000160000000000000000000000000000000000000000000000000000000000000030000000000000000000000000000000000000000000000000000000000000000c43bb838a8000000000000000000000000000000000000000000000000000000000000000000000000000000000000000028f2c86c76116cb48347668423104a7bc19ddd27000000000000000000000000000000000000000000000000000000000000000000000000000000000000000000000000000000000000000000000000000aa8ed00000000000000000000000051d580c15c43684081ff84d7a623f889e8289c2f00000000000000000000000000000000000000000000000000000000004644f4000000000000000000000000000000000000000000000000000000000000000000000000000000000000000000000000000000000000000000000164cda20b5047fdbfc63adc540c446318bd995469a3ff0d3bf4201f837c3bbbd184152ca966000000000000000000000000000000000000000000000000000000000000000000000000000000000000000028f2c86c76116cb48347668423104a7bc19ddd27000000000000000000000000000000000000000000000000000000000000000000000000000000000000000000000000000000000000000000000000000aa8ed00000000000000000000000051d580c15c43684081ff84d7a623f889e8289c2ffffffffffffffffffffffffffffffffffffffffffffffffffffffffffab6326d000000000000000000000000000000000000000000000000000000000549cd930000000000000000000000000000000000000000000000000de0b6b3a76400000000000000000000000000000000000000000000000000056bc75e2d6310000000000000000000000000000000000000000000000000000000000000000000000000000000000000000000000000000000000000000000000000000000000000000000000000000000000000000000000000000000000000000000044186527000000000000000000000000000000000000000000000000000000000",
        "nonce": "0x210",
        "chainId": "0xaa36a7"
      },
      "additionalContracts": [],
      "isFixedGasLimit": false
    }
  ],
  "receipts": [
    {
      "status": "0x1",
      "cumulativeGasUsed": "0x6447a6",
      "logs": [
        {
          "address": "0x28f2c86c76116cb48347668423104a7bc19ddd27",
          "topics": [
            "0xddf252ad1be2c89b69c2b068fc378daa952ba7f163c4a11628f55a4df523b3ef",
            "0x0000000000000000000000000000000000000000000000000000000000000000",
            "0x00000000000000000000000000000c771f6176268d5a9846e0956c3ef58597a1"
          ],
          "data": "0xffffffffffffffffffffffffffffffffffffffffffffffffffffffffffffffff",
          "blockHash": "0x1832c799006de4b28fc663a99d1fe7e62dc0288b86802db51dcc8df34c8fc6d0",
          "blockNumber": "0x7496ef",
          "transactionHash": "0x526513c76ae8dd15b5e6cbefeaae92de929486a0da5bd45569a3eddf1ad55fef",
          "transactionIndex": "0x3e",
          "logIndex": "0x5f",
          "removed": false
        }
      ],
      "logsBloom": "0x00000000000000000001000000000000000004000000000000000000000008200000000000000000000000000000000000000000000000000000000000000000000000000000000000000008000000000000000000000000000000000000000000000000030000000000000000000800000000000000000000000010000000000000000000000000000000000000000000000000000100000000000000000000000000000000000000000000000000000000000000000000000000000000000000000002000000000000000000000000000000000000000000000000000020000000000000000000000000000000000000000000000000000000000000000000",
      "type": "0x2",
      "transactionHash": "0x526513c76ae8dd15b5e6cbefeaae92de929486a0da5bd45569a3eddf1ad55fef",
      "transactionIndex": "0x3e",
      "blockHash": "0x1832c799006de4b28fc663a99d1fe7e62dc0288b86802db51dcc8df34c8fc6d0",
      "blockNumber": "0x7496ef",
      "gasUsed": "0x90ed7",
      "effectiveGasPrice": "0x491bafe9",
      "from": "0x00000c771f6176268d5a9846e0956c3ef58597a1",
      "to": null,
      "contractAddress": "0x28f2c86c76116cb48347668423104a7bc19ddd27"
    },
    {
      "status": "0x1",
      "cumulativeGasUsed": "0xb43f91",
      "logs": [
        {
          "address": "0x28f2c86c76116cb48347668423104a7bc19ddd27",
          "topics": [
            "0x8c5be1e5ebec7d5bd14f71427d1e84f3dd0314c0f7b2291e5b200ac8c7c3b925",
            "0x00000000000000000000000000000c771f6176268d5a9846e0956c3ef58597a1",
            "0x0000000000000000000000005aca2b05edfaa5f5cd1c178cfc397d479e467f98"
          ],
          "data": "0xffffffffffffffffffffffffffffffffffffffffffffffffffffffffffffffff",
          "blockHash": "0x9c8d07a17545404987d253ac6bb79e45857ade5dd56cc829ec9405361bfe56ab",
          "blockNumber": "0x7496f2",
          "transactionHash": "0xf7eb22bb49ffb46054a11bf675420f249c6a81f9ecf95a5642892f22a64939e7",
          "transactionIndex": "0x53",
          "logIndex": "0x9b",
          "removed": false
        }
      ],
      "logsBloom": "0x00000000000000000001000000000000000004000000000000000000000008200000000000000000000000000000000000000200000000000000000000200000000000000000000000000000000000000000000000000000000000000000000000000000010000000004000000000000000000000000000000000000000000000000000000000000000000000000000000000000000100000000000000000000020000000000000000000000000000000000000000800000000000000000000000000000000000000000000000000000000000000000000000000000000000000010000000000000000000000000000000000000000000000000000000000000",
      "type": "0x2",
      "transactionHash": "0xf7eb22bb49ffb46054a11bf675420f249c6a81f9ecf95a5642892f22a64939e7",
      "transactionIndex": "0x53",
      "blockHash": "0x9c8d07a17545404987d253ac6bb79e45857ade5dd56cc829ec9405361bfe56ab",
      "blockNumber": "0x7496f2",
      "gasUsed": "0xb437",
      "effectiveGasPrice": "0x4879c1d4",
      "from": "0x00000c771f6176268d5a9846e0956c3ef58597a1",
      "to": "0x28f2c86c76116cb48347668423104a7bc19ddd27",
      "contractAddress": null
    }
  ],
  "libraries": [],
  "pending": [
    "0x8dc2c6631f2cc02a8e0e15dbb5b6a4864422f011103c8b20191992d36e6b389e"
  ],
  "returns": {},
  "timestamp": 1738705801,
  "chain": 11155111,
  "commit": "6831e37"
}