{
  "transactions": [
    {
      "hash": "0x613f8f14d083f268cd2f9c82dc4f7a2fb6726b079803d0b9c0a19ab4476bb9d5",
      "transactionType": "CREATE",
      "contractName": "TestToken",
      "contractAddress": "0x5762bbdbb246811deef78cca9ffe5c64cb02f711",
      "function": null,
      "arguments": [
        "0x00000C771F6176268D5A9846E0956C3eF58597A1"
      ],
      "transaction": {
        "from": "0x00000c771f6176268d5a9846e0956c3ef58597a1",
        "gas": "0xbc67d",
        "value": "0x0",
        "input": "0x60803460ce57601f6109cc38819003918201601f19168301916001600160401b0383118484101760d25780849260209460405283398101031260ce57516001600160a01b038116810360ce576805345cdf77eb68f44c545f19810190811060c1576805345cdf77eb68f44c556387a211a2600c525f526020600c205f1981540190555f19602052600c5160601c5f7fddf252ad1be2c89b69c2b068fc378daa952ba7f163c4a11628f55a4df523b3ef602080a36040516108e590816100e78239f35b63e5cfe9575f526004601cfd5b5f80fd5b634e487b7160e01b5f52604160045260245ffdfe60806040526004361015610011575f80fd5b5f3560e01c806306fdde03146107cc578063095ea7b31461074357806318160ddd1461070057806323b872dd146105fb578063313ce567146105c25780633644e515146104f857806370a08231146104a85780637ecebe001461045857806395d89b41146103a1578063a9059cbb146102f4578063d505accf146100fd5763dd62ed3e1461009d575f80fd5b346100f95760407ffffffffffffffffffffffffffffffffffffffffffffffffffffffffffffffffc3601126100f9576100d461087b565b6100dc61089e565b602052637f5e9f20600c525f5260206034600c2054604051908152f35b5f80fd5b346100f95760e07ffffffffffffffffffffffffffffffffffffffffffffffffffffffffffffffffc3601126100f95761013461087b565b61013c61089e565b6084359160643560443560ff851685036100f9576101586108c1565b60208101907f54657374546f6b656e00000000000000000000000000000000000000000000008252519020908242116102e75773ffffffffffffffffffffffffffffffffffffffff80604051951695169565383775081901600e52855f5260c06020600c20958654957f8b73c3c69bb8fe3d512ecc4cf759cc79239f7b179b0ffacaa9a75d522b39400f8252602082019586528660408301967fc89efdaa54c0f20c7adf612882df0950f5a951637e0307cdcb4c672f298b8bc688528b6060850198468a528c608087019330855260a08820602e527f6e71edae12b1b97f4d1f60370fef10105fa2faae0126114a169c64845d6126c9885252528688525260a082015220604e526042602c205f5260ff1660205260a43560405260c43560605260208060805f60015afa93853d51036102da577f8c5be1e5ebec7d5bd14f71427d1e84f3dd0314c0f7b2291e5b200ac8c7c3b9259460209401905585777f5e9f200000000000000000000000000000000000000000176040526034602c2055a3005b63ddafbaef5f526004601cfd5b631a15a3cc5f526004601cfd5b346100f95760407ffffffffffffffffffffffffffffffffffffffffffffffffffffffffffffffffc3601126100f95761032b61087b565b602435906387a211a2600c52335f526020600c2080548084116103945783900390555f526020600c20818154019055602052600c5160601c337fddf252ad1be2c89b69c2b068fc378daa952ba7f163c4a11628f55a4df523b3ef602080a3602060405160018152f35b63f4d678b85f526004601cfd5b346100f9575f7ffffffffffffffffffffffffffffffffffffffffffffffffffffffffffffffffc3601126100f957604051604081019080821067ffffffffffffffff83111761042b5761042791604052600281527f5454000000000000000000000000000000000000000000000000000000000000602082015260405191829182610833565b0390f35b7f4e487b71000000000000000000000000000000000000000000000000000000005f52604160045260245ffd5b346100f95760207ffffffffffffffffffffffffffffffffffffffffffffffffffffffffffffffffc3601126100f95761048f61087b565b6338377508600c525f52602080600c2054604051908152f35b346100f95760207ffffffffffffffffffffffffffffffffffffffffffffffffffffffffffffffffc3601126100f9576104df61087b565b6387a211a2600c525f52602080600c2054604051908152f35b346100f9575f7ffffffffffffffffffffffffffffffffffffffffffffffffffffffffffffffffc3601126100f957602060a06105326108c1565b828101907f54657374546f6b656e00000000000000000000000000000000000000000000008252519020604051907f8b73c3c69bb8fe3d512ecc4cf759cc79239f7b179b0ffacaa9a75d522b39400f8252838201527fc89efdaa54c0f20c7adf612882df0950f5a951637e0307cdcb4c672f298b8bc6604082015246606082015230608082015220604051908152f35b346100f9575f7ffffffffffffffffffffffffffffffffffffffffffffffffffffffffffffffffc3601126100f957602060405160128152f35b346100f95760607ffffffffffffffffffffffffffffffffffffffffffffffffffffffffffffffffc3601126100f95761063261087b565b61063a61089e565b604435908260601b33602052637f5e9f208117600c526034600c209081549182196106dc575b506387a211a2915017600c526020600c2080548084116103945783900390555f526020600c2081815401905560205273ffffffffffffffffffffffffffffffffffffffff600c5160601c91167fddf252ad1be2c89b69c2b068fc378daa952ba7f163c4a11628f55a4df523b3ef602080a3602060405160018152f35b8285116106f357846387a211a29303905585610660565b6313be252b5f526004601cfd5b346100f9575f7ffffffffffffffffffffffffffffffffffffffffffffffffffffffffffffffffc3601126100f95760206805345cdf77eb68f44c54604051908152f35b346100f95760407ffffffffffffffffffffffffffffffffffffffffffffffffffffffffffffffffc3601126100f95761077a61087b565b60243590602052637f5e9f20600c52335f52806034600c20555f52602c5160601c337f8c5be1e5ebec7d5bd14f71427d1e84f3dd0314c0f7b2291e5b200ac8c7c3b92560205fa3602060405160018152f35b346100f9575f7ffffffffffffffffffffffffffffffffffffffffffffffffffffffffffffffffc3601126100f9576104276108056108c1565b7f54657374546f6b656e00000000000000000000000000000000000000000000006020820152604051918291825b7fffffffffffffffffffffffffffffffffffffffffffffffffffffffffffffffe0601f602060409481855280519182918282880152018686015e5f8582860101520116010190565b6004359073ffffffffffffffffffffffffffffffffffffffff821682036100f957565b6024359073ffffffffffffffffffffffffffffffffffffffff821682036100f957565b604051906040820182811067ffffffffffffffff82111761042b57604052600982525600000000000000000000000000000c771f6176268d5a9846e0956c3ef58597a1",
        "nonce": "0x2d8",
        "chainId": "0xaa36a7"
      },
      "additionalContracts": [],
      "isFixedGasLimit": false
    },
    {
      "hash": "0xbb3c8a7489ea72d4f7fea7c9f0c60b0e8bc3406880bd10ee5c0a5c18837916ef",
      "transactionType": "CALL",
      "contractName": "TestToken",
      "contractAddress": "0x5762bbdbb246811deef78cca9ffe5c64cb02f711",
      "function": "approve(address,uint256)",
      "arguments": [
        "0x06B43d6EB4C8ec542B38ba9789B1Ad62817a853C",
        "115792089237316195423570985008687907853269984665640564039457584007913129639935"
      ],
      "transaction": {
        "from": "0x00000c771f6176268d5a9846e0956c3ef58597a1",
        "to": "0x5762bbdbb246811deef78cca9ffe5c64cb02f711",
        "gas": "0xf8eb",
        "value": "0x0",
        "input": "0x095ea7b300000000000000000000000006b43d6eb4c8ec542b38ba9789b1ad62817a853cffffffffffffffffffffffffffffffffffffffffffffffffffffffffffffffff",
        "nonce": "0x2d9",
        "chainId": "0xaa36a7"
      },
      "additionalContracts": [],
      "isFixedGasLimit": false
    },
    {
      "hash": "0xac61c41f551af093fb8c64ccb0a8c2d0627f2cb299c83a58dcabec3ba4661077",
      "transactionType": "CALL",
      "contractName": "TestToken",
      "contractAddress": "0x5762bbdbb246811deef78cca9ffe5c64cb02f711",
      "function": "approve(address,uint256)",
      "arguments": [
        "0x21fab96fad31F103a21Bb27DfE52c4e1E5976C0D",
        "115792089237316195423570985008687907853269984665640564039457584007913129639935"
      ],
      "transaction": {
        "from": "0x00000c771f6176268d5a9846e0956c3ef58597a1",
        "to": "0x5762bbdbb246811deef78cca9ffe5c64cb02f711",
        "gas": "0xf8eb",
        "value": "0x0",
        "input": "0x095ea7b300000000000000000000000021fab96fad31f103a21bb27dfe52c4e1e5976c0dffffffffffffffffffffffffffffffffffffffffffffffffffffffffffffffff",
        "nonce": "0x2da",
        "chainId": "0xaa36a7"
      },
      "additionalContracts": [],
      "isFixedGasLimit": false
    },
    {
      "hash": "0x62e9cc56d1a37a729b391d26f3376e61ff209f41ad1e2644e38661e69564fff0",
      "transactionType": "CALL",
      "contractName": null,
      "contractAddress": "0x21fab96fad31f103a21bb27dfe52c4e1e5976c0d",
      "function": "multicall(bytes[])",
      "arguments": [
        "[0xf3e3246800000000000000000000000000000000000000000000000000000000000000000000000000000000000000005762bbdbb246811deef78cca9ffe5c64cb02f711000000000000000000000000000000000000000000c49ba5e353f7ce0000175e000000000000000000000000000000000000000000000000000000000081f64d, 0x9df3913d9acca38359a2dfc871b715d4072edc7acfefc7c7d638a8ab76d675b6cb05f8e800000000000000000000000000000000000000000000000000000000000000000000000000000000000000005762bbdbb246811deef78cca9ffe5c64cb02f711000000000000000000000000000000000000000000c49ba5e353f7ce0000175efffffffffffffffffffffffffffffffffffffffffffffffffffffffffab6413e000000000000000000000000000000000000000000000000000000000549bec2000000000000000000000000000000000000000000000000002386f26fc10000000000000000000000000000000000000000000000000002b5e3af16b18800000000000000000000000000000000000000000000000000000000000000000000, 0x41865270]"
      ],
      "transaction": {
        "from": "0x00000c771f6176268d5a9846e0956c3ef58597a1",
        "to": "0x21fab96fad31f103a21bb27dfe52c4e1e5976c0d",
        "gas": "0x69494",
        "value": "0x2386f26fc10000",
        "input": "0xac9650d8000000000000000000000000000000000000000000000000000000000000002000000000000000000000000000000000000000000000000000000000000000030000000000000000000000000000000000000000000000000000000000000060000000000000000000000000000000000000000000000000000000000000012000000000000000000000000000000000000000000000000000000000000002800000000000000000000000000000000000000000000000000000000000000084f3e3246800000000000000000000000000000000000000000000000000000000000000000000000000000000000000005762bbdbb246811deef78cca9ffe5c64cb02f711000000000000000000000000000000000000000000c49ba5e353f7ce0000175e000000000000000000000000000000000000000000000000000000000081f64d0000000000000000000000000000000000000000000000000000000000000000000000000000000000000000000000000000000000000000000001249df3913d9acca38359a2dfc871b715d4072edc7acfefc7c7d638a8ab76d675b6cb05f8e800000000000000000000000000000000000000000000000000000000000000000000000000000000000000005762bbdbb246811deef78cca9ffe5c64cb02f711000000000000000000000000000000000000000000c49ba5e353f7ce0000175efffffffffffffffffffffffffffffffffffffffffffffffffffffffffab6413e000000000000000000000000000000000000000000000000000000000549bec2000000000000000000000000000000000000000000000000002386f26fc10000000000000000000000000000000000000000000000000002b5e3af16b188000000000000000000000000000000000000000000000000000000000000000000000000000000000000000000000000000000000000000000000000000000000000000000000000000000000000000000000000000000000000000000044186527000000000000000000000000000000000000000000000000000000000",
        "nonce": "0x2db",
        "chainId": "0xaa36a7"
      },
      "additionalContracts": [],
      "isFixedGasLimit": false
    },
    {
      "hash": "0x9f80fc6f490bda5d3cf453bb6fb63a5d097b865ab4588b6a2e3ae1ce710ccfee",
      "transactionType": "CALL",
      "contractName": null,
      "contractAddress": "0x06b43d6eb4c8ec542b38ba9789b1ad62817a853c",
      "function": "swap((address,address,bytes32),bool,int128,uint96,uint256)",
      "arguments": [
        "(0x0000000000000000000000000000000000000000, 0x5762bbdBB246811DEEf78CCA9Ffe5C64Cb02f711, 0x000000000000000000000000000000000000000000c49ba5e353f7ce0000175e)",
        "false",
        "100000",
        "0",
        "0"
      ],
      "transaction": {
        "from": "0x00000c771f6176268d5a9846e0956c3ef58597a1",
        "to": "0x06b43d6eb4c8ec542b38ba9789b1ad62817a853c",
        "gas": "0x20dc2",
        "value": "0x186a0",
        "input": "0x06b81a1500000000000000000000000000000000000000000000000000000000000000000000000000000000000000005762bbdbb246811deef78cca9ffe5c64cb02f711000000000000000000000000000000000000000000c49ba5e353f7ce0000175e000000000000000000000000000000000000000000000000000000000000000000000000000000000000000000000000000000000000000000000000000186a000000000000000000000000000000000000000000000000000000000000000000000000000000000000000000000000000000000000000000000000000000000",
        "nonce": "0x2dc",
        "chainId": "0xaa36a7"
      },
      "additionalContracts": [],
      "isFixedGasLimit": false
    },
    {
      "hash": "0x0134000f52cce3a76d16433ec71aa6faa2907582868479a70df4f0926e7c02ce",
      "transactionType": "CALL",
      "contractName": null,
      "contractAddress": "0x06b43d6eb4c8ec542b38ba9789b1ad62817a853c",
      "function": "swap((address,address,bytes32),bool,int128,uint96,uint256)",
      "arguments": [
        "(0x0000000000000000000000000000000000000000, 0x5762bbdBB246811DEEf78CCA9Ffe5C64Cb02f711, 0x000000000000000000000000000000000000000000c49ba5e353f7ce0000175e)",
        "true",
        "500000000",
        "0",
        "0"
      ],
      "transaction": {
        "from": "0x00000c771f6176268d5a9846e0956c3ef58597a1",
        "to": "0x06b43d6eb4c8ec542b38ba9789b1ad62817a853c",
        "gas": "0x2309a",
        "value": "0x0",
        "input": "0x06b81a1500000000000000000000000000000000000000000000000000000000000000000000000000000000000000005762bbdbb246811deef78cca9ffe5c64cb02f711000000000000000000000000000000000000000000c49ba5e353f7ce0000175e0000000000000000000000000000000000000000000000000000000000000001000000000000000000000000000000000000000000000000000000001dcd650000000000000000000000000000000000000000000000000000000000000000000000000000000000000000000000000000000000000000000000000000000000",
        "nonce": "0x2dd",
        "chainId": "0xaa36a7"
      },
      "additionalContracts": [],
      "isFixedGasLimit": false
    },
    {
      "hash": "0x1b4d1baba0e7891aee00c6ad7370e974066a3ace868552a4142504f397382475",
      "transactionType": "CALL",
      "contractName": null,
      "contractAddress": "0x06b43d6eb4c8ec542b38ba9789b1ad62817a853c",
      "function": "swap((address,address,bytes32),bool,int128,uint96,uint256)",
      "arguments": [
        "(0x0000000000000000000000000000000000000000, 0x5762bbdBB246811DEEf78CCA9Ffe5C64Cb02f711, 0x000000000000000000000000000000000000000000c49ba5e353f7ce0000175e)",
        "false",
        "100000",
        "0",
        "0"
      ],
      "transaction": {
        "from": "0x00000c771f6176268d5a9846e0956c3ef58597a1",
        "to": "0x06b43d6eb4c8ec542b38ba9789b1ad62817a853c",
        "gas": "0x1b17e",
        "value": "0x186a0",
        "input": "0x06b81a1500000000000000000000000000000000000000000000000000000000000000000000000000000000000000005762bbdbb246811deef78cca9ffe5c64cb02f711000000000000000000000000000000000000000000c49ba5e353f7ce0000175e000000000000000000000000000000000000000000000000000000000000000000000000000000000000000000000000000000000000000000000000000186a000000000000000000000000000000000000000000000000000000000000000000000000000000000000000000000000000000000000000000000000000000000",
        "nonce": "0x2de",
        "chainId": "0xaa36a7"
      },
      "additionalContracts": [],
      "isFixedGasLimit": false
    },
    {
      "hash": "0x7326e6fb6ea6b9d97d7798259d2118f98e7c5c5d3feaebc8a229505bff255c3c",
      "transactionType": "CALL",
      "contractName": null,
      "contractAddress": "0x06b43d6eb4c8ec542b38ba9789b1ad62817a853c",
      "function": "swap((address,address,bytes32),bool,int128,uint96,uint256)",
      "arguments": [
        "(0x0000000000000000000000000000000000000000, 0x5762bbdBB246811DEEf78CCA9Ffe5C64Cb02f711, 0x000000000000000000000000000000000000000000c49ba5e353f7ce0000175e)",
        "true",
        "500000000",
        "0",
        "0"
      ],
      "transaction": {
        "from": "0x00000c771f6176268d5a9846e0956c3ef58597a1",
        "to": "0x06b43d6eb4c8ec542b38ba9789b1ad62817a853c",
        "gas": "0x1efe4",
        "value": "0x0",
        "input": "0x06b81a1500000000000000000000000000000000000000000000000000000000000000000000000000000000000000005762bbdbb246811deef78cca9ffe5c64cb02f711000000000000000000000000000000000000000000c49ba5e353f7ce0000175e0000000000000000000000000000000000000000000000000000000000000001000000000000000000000000000000000000000000000000000000001dcd650000000000000000000000000000000000000000000000000000000000000000000000000000000000000000000000000000000000000000000000000000000000",
        "nonce": "0x2df",
        "chainId": "0xaa36a7"
      },
      "additionalContracts": [],
      "isFixedGasLimit": false
    },
    {
      "hash": "0x700d995a2f10a665c75802e292df2a58d647efe9d6de767153933054cb3b5a35",
      "transactionType": "CALL",
      "contractName": null,
      "contractAddress": "0x21fab96fad31f103a21bb27dfe52c4e1e5976c0d",
      "function": "multicall(bytes[])",
      "arguments": [
        "[0xf3e3246800000000000000000000000000000000000000000000000000000000000000000000000000000000000000005762bbdbb246811deef78cca9ffe5c64cb02f711000000000000000000000000000000000000000000c49ba5e353f7ce00000000000000000000000000000000000000000000000000000000000000000081f64d, 0x9df3913d9acca38359a2dfc871b715d4072edc7acfefc7c7d638a8ab76d675b6cb05f8e900000000000000000000000000000000000000000000000000000000000000000000000000000000000000005762bbdbb246811deef78cca9ffe5c64cb02f711000000000000000000000000000000000000000000c49ba5e353f7ce00000000fffffffffffffffffffffffffffffffffffffffffffffffffffffffffab6326d000000000000000000000000000000000000000000000000000000000549cd93000000000000000000000000000000000000000000000000002386f26fc10000000000000000000000000000000000000000000000000002b5e3af16b18800000000000000000000000000000000000000000000000000000000000000000000, 0x41865270]"
      ],
      "transaction": {
        "from": "0x00000c771f6176268d5a9846e0956c3ef58597a1",
        "to": "0x21fab96fad31f103a21bb27dfe52c4e1e5976c0d",
        "gas": "0x3f729",
        "value": "0x2386f26fc10000",
        "input": "0xac9650d8000000000000000000000000000000000000000000000000000000000000002000000000000000000000000000000000000000000000000000000000000000030000000000000000000000000000000000000000000000000000000000000060000000000000000000000000000000000000000000000000000000000000012000000000000000000000000000000000000000000000000000000000000002800000000000000000000000000000000000000000000000000000000000000084f3e3246800000000000000000000000000000000000000000000000000000000000000000000000000000000000000005762bbdbb246811deef78cca9ffe5c64cb02f711000000000000000000000000000000000000000000c49ba5e353f7ce00000000000000000000000000000000000000000000000000000000000000000081f64d0000000000000000000000000000000000000000000000000000000000000000000000000000000000000000000000000000000000000000000001249df3913d9acca38359a2dfc871b715d4072edc7acfefc7c7d638a8ab76d675b6cb05f8e900000000000000000000000000000000000000000000000000000000000000000000000000000000000000005762bbdbb246811deef78cca9ffe5c64cb02f711000000000000000000000000000000000000000000c49ba5e353f7ce00000000fffffffffffffffffffffffffffffffffffffffffffffffffffffffffab6326d000000000000000000000000000000000000000000000000000000000549cd93000000000000000000000000000000000000000000000000002386f26fc10000000000000000000000000000000000000000000000000002b5e3af16b188000000000000000000000000000000000000000000000000000000000000000000000000000000000000000000000000000000000000000000000000000000000000000000000000000000000000000000000000000000000000000000044186527000000000000000000000000000000000000000000000000000000000",
        "nonce": "0x2e0",
        "chainId": "0xaa36a7"
      },
      "additionalContracts": [],
      "isFixedGasLimit": false
    },
    {
      "hash": "0xd7e88f8b2ec4516330005d176355fe31b9a416fd7381a517073717dda4355a27",
      "transactionType": "CALL",
      "contractName": null,
      "contractAddress": "0x06b43d6eb4c8ec542b38ba9789b1ad62817a853c",
      "function": "swap((address,address,bytes32),bool,int128,uint96,uint256)",
      "arguments": [
        "(0x0000000000000000000000000000000000000000, 0x5762bbdBB246811DEEf78CCA9Ffe5C64Cb02f711, 0x000000000000000000000000000000000000000000c49ba5e353f7ce00000000)",
        "false",
        "100000",
        "0",
        "0"
      ],
      "transaction": {
        "from": "0x00000c771f6176268d5a9846e0956c3ef58597a1",
        "to": "0x06b43d6eb4c8ec542b38ba9789b1ad62817a853c",
        "gas": "0x1f891",
        "value": "0x186a0",
        "input": "0x06b81a1500000000000000000000000000000000000000000000000000000000000000000000000000000000000000005762bbdbb246811deef78cca9ffe5c64cb02f711000000000000000000000000000000000000000000c49ba5e353f7ce00000000000000000000000000000000000000000000000000000000000000000000000000000000000000000000000000000000000000000000000000000000000186a000000000000000000000000000000000000000000000000000000000000000000000000000000000000000000000000000000000000000000000000000000000",
        "nonce": "0x2e1",
        "chainId": "0xaa36a7"
      },
      "additionalContracts": [],
      "isFixedGasLimit": false
    },
    {
      "hash": "0xfc786d848af91ac817d354fe9a3719a97bad4b3f6b03c18f518ab08353847523",
      "transactionType": "CALL",
      "contractName": null,
      "contractAddress": "0x06b43d6eb4c8ec542b38ba9789b1ad62817a853c",
      "function": "swap((address,address,bytes32),bool,int128,uint96,uint256)",
      "arguments": [
        "(0x0000000000000000000000000000000000000000, 0x5762bbdBB246811DEEf78CCA9Ffe5C64Cb02f711, 0x000000000000000000000000000000000000000000c49ba5e353f7ce00000000)",
        "true",
        "500000000",
        "0",
        "0"
      ],
      "transaction": {
        "from": "0x00000c771f6176268d5a9846e0956c3ef58597a1",
        "to": "0x06b43d6eb4c8ec542b38ba9789b1ad62817a853c",
        "gas": "0x23b64",
        "value": "0x0",
        "input": "0x06b81a1500000000000000000000000000000000000000000000000000000000000000000000000000000000000000005762bbdbb246811deef78cca9ffe5c64cb02f711000000000000000000000000000000000000000000c49ba5e353f7ce000000000000000000000000000000000000000000000000000000000000000000000001000000000000000000000000000000000000000000000000000000001dcd650000000000000000000000000000000000000000000000000000000000000000000000000000000000000000000000000000000000000000000000000000000000",
        "nonce": "0x2e2",
        "chainId": "0xaa36a7"
      },
      "additionalContracts": [],
      "isFixedGasLimit": false
    },
    {
      "hash": "0x05258b0633b5374ad93e45e08746dc4f10dc4e428cb7076c5a15d65e3cf11ae7",
      "transactionType": "CALL",
      "contractName": null,
      "contractAddress": "0x06b43d6eb4c8ec542b38ba9789b1ad62817a853c",
      "function": "swap((address,address,bytes32),bool,int128,uint96,uint256)",
      "arguments": [
        "(0x0000000000000000000000000000000000000000, 0x5762bbdBB246811DEEf78CCA9Ffe5C64Cb02f711, 0x000000000000000000000000000000000000000000c49ba5e353f7ce00000000)",
        "false",
        "100000",
        "0",
        "0"
      ],
      "transaction": {
        "from": "0x00000c771f6176268d5a9846e0956c3ef58597a1",
        "to": "0x06b43d6eb4c8ec542b38ba9789b1ad62817a853c",
        "gas": "0x1b48f",
        "value": "0x186a0",
        "input": "0x06b81a1500000000000000000000000000000000000000000000000000000000000000000000000000000000000000005762bbdbb246811deef78cca9ffe5c64cb02f711000000000000000000000000000000000000000000c49ba5e353f7ce00000000000000000000000000000000000000000000000000000000000000000000000000000000000000000000000000000000000000000000000000000000000186a000000000000000000000000000000000000000000000000000000000000000000000000000000000000000000000000000000000000000000000000000000000",
        "nonce": "0x2e3",
        "chainId": "0xaa36a7"
      },
      "additionalContracts": [],
      "isFixedGasLimit": false
    },
    {
      "hash": "0x64902b5d1d4b523b94de15a96c5e07b7fb447d7ed5f361393d0eed6f5b35afda",
      "transactionType": "CALL",
      "contractName": null,
      "contractAddress": "0x06b43d6eb4c8ec542b38ba9789b1ad62817a853c",
      "function": "swap((address,address,bytes32),bool,int128,uint96,uint256)",
      "arguments": [
        "(0x0000000000000000000000000000000000000000, 0x5762bbdBB246811DEEf78CCA9Ffe5C64Cb02f711, 0x000000000000000000000000000000000000000000c49ba5e353f7ce00000000)",
        "true",
        "500000000",
        "0",
        "0"
      ],
      "transaction": {
        "from": "0x00000c771f6176268d5a9846e0956c3ef58597a1",
        "to": "0x06b43d6eb4c8ec542b38ba9789b1ad62817a853c",
        "gas": "0x1bf62",
        "value": "0x0",
        "input": "0x06b81a1500000000000000000000000000000000000000000000000000000000000000000000000000000000000000005762bbdbb246811deef78cca9ffe5c64cb02f711000000000000000000000000000000000000000000c49ba5e353f7ce000000000000000000000000000000000000000000000000000000000000000000000001000000000000000000000000000000000000000000000000000000001dcd650000000000000000000000000000000000000000000000000000000000000000000000000000000000000000000000000000000000000000000000000000000000",
        "nonce": "0x2e4",
        "chainId": "0xaa36a7"
      },
      "additionalContracts": [],
      "isFixedGasLimit": false
    },
    {
      "hash": "0xe0850a80e25df775ef71f5fc12685fec6bba224d4c3a6c700e3c2ad8de292db7",
      "transactionType": "CALL",
      "contractName": null,
      "contractAddress": "0x21fab96fad31f103a21bb27dfe52c4e1e5976c0d",
      "function": "multicall(bytes[])",
      "arguments": [
        "[0xf3e3246800000000000000000000000000000000000000000000000000000000000000000000000000000000000000005762bbdbb246811deef78cca9ffe5c64cb02f7115107aaf0900af3e514bcdbaf94ddf4660d8cd0cb00000000000000000000000000000000000000000000000000000000000000000000000000000000004644f4, 0x9df3913d9acca38359a2dfc871b715d4072edc7acfefc7c7d638a8ab76d675b6cb05f8ea00000000000000000000000000000000000000000000000000000000000000000000000000000000000000005762bbdbb246811deef78cca9ffe5c64cb02f7115107aaf0900af3e514bcdbaf94ddf4660d8cd0cb000000000000000000000000fffffffffffffffffffffffffffffffffffffffffffffffffffffffffab6326d000000000000000000000000000000000000000000000000000000000549cd93000000000000000000000000000000000000000000000000002386f26fc100000000000000000000000000000000000000000000000000000de0b6b3a76400000000000000000000000000000000000000000000000000000000000000000000, 0x41865270]"
      ],
      "transaction": {
        "from": "0x00000c771f6176268d5a9846e0956c3ef58597a1",
        "to": "0x21fab96fad31f103a21bb27dfe52c4e1e5976c0d",
        "gas": "0x534a0",
        "value": "0x2386f26fc10000",
        "input": "0xac9650d8000000000000000000000000000000000000000000000000000000000000002000000000000000000000000000000000000000000000000000000000000000030000000000000000000000000000000000000000000000000000000000000060000000000000000000000000000000000000000000000000000000000000012000000000000000000000000000000000000000000000000000000000000002800000000000000000000000000000000000000000000000000000000000000084f3e3246800000000000000000000000000000000000000000000000000000000000000000000000000000000000000005762bbdbb246811deef78cca9ffe5c64cb02f7115107aaf0900af3e514bcdbaf94ddf4660d8cd0cb00000000000000000000000000000000000000000000000000000000000000000000000000000000004644f40000000000000000000000000000000000000000000000000000000000000000000000000000000000000000000000000000000000000000000001249df3913d9acca38359a2dfc871b715d4072edc7acfefc7c7d638a8ab76d675b6cb05f8ea00000000000000000000000000000000000000000000000000000000000000000000000000000000000000005762bbdbb246811deef78cca9ffe5c64cb02f7115107aaf0900af3e514bcdbaf94ddf4660d8cd0cb000000000000000000000000fffffffffffffffffffffffffffffffffffffffffffffffffffffffffab6326d000000000000000000000000000000000000000000000000000000000549cd93000000000000000000000000000000000000000000000000002386f26fc100000000000000000000000000000000000000000000000000000de0b6b3a764000000000000000000000000000000000000000000000000000000000000000000000000000000000000000000000000000000000000000000000000000000000000000000000000000000000000000000000000000000000000000000044186527000000000000000000000000000000000000000000000000000000000",
        "nonce": "0x2e5",
        "chainId": "0xaa36a7"
      },
      "additionalContracts": [],
      "isFixedGasLimit": false
    },
    {
      "hash": "0x2d2630b7f7e9cc449e9d812e75bb24abaa9cc81f671b2503b430928f71bbd609",
      "transactionType": "CALL",
      "contractName": null,
      "contractAddress": "0x06b43d6eb4c8ec542b38ba9789b1ad62817a853c",
      "function": "swap((address,address,bytes32),bool,int128,uint96,uint256)",
      "arguments": [
        "(0x0000000000000000000000000000000000000000, 0x5762bbdBB246811DEEf78CCA9Ffe5C64Cb02f711, 0x5107aaf0900af3e514bcdbaf94ddf4660d8cd0cb000000000000000000000000)",
        "false",
        "100000",
        "0",
        "0"
      ],
      "transaction": {
        "from": "0x00000c771f6176268d5a9846e0956c3ef58597a1",
        "to": "0x06b43d6eb4c8ec542b38ba9789b1ad62817a853c",
        "gas": "0x1cb54",
        "value": "0x186a0",
        "input": "0x06b81a1500000000000000000000000000000000000000000000000000000000000000000000000000000000000000005762bbdbb246811deef78cca9ffe5c64cb02f7115107aaf0900af3e514bcdbaf94ddf4660d8cd0cb000000000000000000000000000000000000000000000000000000000000000000000000000000000000000000000000000000000000000000000000000000000000000000000000000186a000000000000000000000000000000000000000000000000000000000000000000000000000000000000000000000000000000000000000000000000000000000",
        "nonce": "0x2e6",
        "chainId": "0xaa36a7"
      },
      "additionalContracts": [],
      "isFixedGasLimit": false
    },
    {
      "hash": "0x15427c47b4ce7424d79d52005b180a9802416de9f0226e4d18b2be9499ea30c2",
      "transactionType": "CALL",
      "contractName": null,
      "contractAddress": "0x06b43d6eb4c8ec542b38ba9789b1ad62817a853c",
      "function": "swap((address,address,bytes32),bool,int128,uint96,uint256)",
      "arguments": [
        "(0x0000000000000000000000000000000000000000, 0x5762bbdBB246811DEEf78CCA9Ffe5C64Cb02f711, 0x5107aaf0900af3e514bcdbaf94ddf4660d8cd0cb000000000000000000000000)",
        "true",
        "500000000",
        "0",
        "0"
      ],
      "transaction": {
        "from": "0x00000c771f6176268d5a9846e0956c3ef58597a1",
        "to": "0x06b43d6eb4c8ec542b38ba9789b1ad62817a853c",
        "gas": "0x1d4e3",
        "value": "0x0",
        "input": "0x06b81a1500000000000000000000000000000000000000000000000000000000000000000000000000000000000000005762bbdbb246811deef78cca9ffe5c64cb02f7115107aaf0900af3e514bcdbaf94ddf4660d8cd0cb0000000000000000000000000000000000000000000000000000000000000000000000000000000000000001000000000000000000000000000000000000000000000000000000001dcd650000000000000000000000000000000000000000000000000000000000000000000000000000000000000000000000000000000000000000000000000000000000",
        "nonce": "0x2e7",
        "chainId": "0xaa36a7"
      },
      "additionalContracts": [],
      "isFixedGasLimit": false
    },
    {
      "hash": "0x4226a236fca47114dbb60cdb87ab36d0737bbc7f07aeb43e7b9c7181e72688aa",
      "transactionType": "CALL",
      "contractName": null,
      "contractAddress": "0x06b43d6eb4c8ec542b38ba9789b1ad62817a853c",
      "function": "swap((address,address,bytes32),bool,int128,uint96,uint256)",
      "arguments": [
        "(0x0000000000000000000000000000000000000000, 0x5762bbdBB246811DEEf78CCA9Ffe5C64Cb02f711, 0x5107aaf0900af3e514bcdbaf94ddf4660d8cd0cb000000000000000000000000)",
        "false",
        "100000",
        "0",
        "0"
      ],
      "transaction": {
        "from": "0x00000c771f6176268d5a9846e0956c3ef58597a1",
        "to": "0x06b43d6eb4c8ec542b38ba9789b1ad62817a853c",
        "gas": "0x1b1d5",
        "value": "0x186a0",
        "input": "0x06b81a1500000000000000000000000000000000000000000000000000000000000000000000000000000000000000005762bbdbb246811deef78cca9ffe5c64cb02f7115107aaf0900af3e514bcdbaf94ddf4660d8cd0cb000000000000000000000000000000000000000000000000000000000000000000000000000000000000000000000000000000000000000000000000000000000000000000000000000186a000000000000000000000000000000000000000000000000000000000000000000000000000000000000000000000000000000000000000000000000000000000",
        "nonce": "0x2e8",
        "chainId": "0xaa36a7"
      },
      "additionalContracts": [],
      "isFixedGasLimit": false
    },
    {
      "hash": "0x4f6e4d55cfe2cf401a1008cc5fe4e571e5960c633c881c2598050dfded4f8dd5",
      "transactionType": "CALL",
      "contractName": null,
      "contractAddress": "0x06b43d6eb4c8ec542b38ba9789b1ad62817a853c",
      "function": "swap((address,address,bytes32),bool,int128,uint96,uint256)",
      "arguments": [
        "(0x0000000000000000000000000000000000000000, 0x5762bbdBB246811DEEf78CCA9Ffe5C64Cb02f711, 0x5107aaf0900af3e514bcdbaf94ddf4660d8cd0cb000000000000000000000000)",
        "true",
        "500000000",
        "0",
        "0"
      ],
      "transaction": {
        "from": "0x00000c771f6176268d5a9846e0956c3ef58597a1",
        "to": "0x06b43d6eb4c8ec542b38ba9789b1ad62817a853c",
        "gas": "0x1d4e3",
        "value": "0x0",
        "input": "0x06b81a1500000000000000000000000000000000000000000000000000000000000000000000000000000000000000005762bbdbb246811deef78cca9ffe5c64cb02f7115107aaf0900af3e514bcdbaf94ddf4660d8cd0cb0000000000000000000000000000000000000000000000000000000000000000000000000000000000000001000000000000000000000000000000000000000000000000000000001dcd650000000000000000000000000000000000000000000000000000000000000000000000000000000000000000000000000000000000000000000000000000000000",
        "nonce": "0x2e9",
        "chainId": "0xaa36a7"
      },
      "additionalContracts": [],
      "isFixedGasLimit": false
    },
    {
      "hash": "0x1b2dd2b71d70bbb3280dcb81d706af6c9228a7fa3b06b120e0ec3826fd9c0153",
      "transactionType": "CALL",
      "contractName": null,
      "contractAddress": "0x21fab96fad31f103a21bb27dfe52c4e1e5976c0d",
      "function": "multicall(bytes[])",
      "arguments": [
        "[0xf3e3246800000000000000000000000000000000000000000000000000000000000000000000000000000000000000005762bbdbb246811deef78cca9ffe5c64cb02f7110000000000000000000000000000000000000000028f5c28f5c28f5c00004d5a000000000000000000000000000000000000000000000000000000000081f64d, 0x9df3913d9acca38359a2dfc871b715d4072edc7acfefc7c7d638a8ab76d675b6cb05f8eb00000000000000000000000000000000000000000000000000000000000000000000000000000000000000005762bbdbb246811deef78cca9ffe5c64cb02f7110000000000000000000000000000000000000000028f5c28f5c28f5c00004d5afffffffffffffffffffffffffffffffffffffffffffffffffffffffffab65900000000000000000000000000000000000000000000000000000000000549a700000000000000000000000000000000000000000000000000000110d9316ec00000000000000000000000000000000000000000000000001043561a88293000000000000000000000000000000000000000000000000000000000000000000000, 0x41865270]"
      ],
      "transaction": {
        "from": "0x00000c771f6176268d5a9846e0956c3ef58597a1",
        "to": "0x21fab96fad31f103a21bb27dfe52c4e1e5976c0d",
        "gas": "0x5d95c",
        "value": "0x110d9316ec000",
        "input": "0xac9650d8000000000000000000000000000000000000000000000000000000000000002000000000000000000000000000000000000000000000000000000000000000030000000000000000000000000000000000000000000000000000000000000060000000000000000000000000000000000000000000000000000000000000012000000000000000000000000000000000000000000000000000000000000002800000000000000000000000000000000000000000000000000000000000000084f3e3246800000000000000000000000000000000000000000000000000000000000000000000000000000000000000005762bbdbb246811deef78cca9ffe5c64cb02f7110000000000000000000000000000000000000000028f5c28f5c28f5c00004d5a000000000000000000000000000000000000000000000000000000000081f64d0000000000000000000000000000000000000000000000000000000000000000000000000000000000000000000000000000000000000000000001249df3913d9acca38359a2dfc871b715d4072edc7acfefc7c7d638a8ab76d675b6cb05f8eb00000000000000000000000000000000000000000000000000000000000000000000000000000000000000005762bbdbb246811deef78cca9ffe5c64cb02f7110000000000000000000000000000000000000000028f5c28f5c28f5c00004d5afffffffffffffffffffffffffffffffffffffffffffffffffffffffffab65900000000000000000000000000000000000000000000000000000000000549a700000000000000000000000000000000000000000000000000000110d9316ec00000000000000000000000000000000000000000000000001043561a882930000000000000000000000000000000000000000000000000000000000000000000000000000000000000000000000000000000000000000000000000000000000000000000000000000000000000000000000000000000000000000000044186527000000000000000000000000000000000000000000000000000000000",
        "nonce": "0x2ea",
        "chainId": "0xaa36a7"
      },
      "additionalContracts": [],
      "isFixedGasLimit": false
    }
  ],
  "receipts": [
    {
      "status": "0x1",
      "cumulativeGasUsed": "0xca9a05",
      "logs": [
        {
          "address": "0x5762bbdbb246811deef78cca9ffe5c64cb02f711",
          "topics": [
            "0xddf252ad1be2c89b69c2b068fc378daa952ba7f163c4a11628f55a4df523b3ef",
            "0x0000000000000000000000000000000000000000000000000000000000000000",
            "0x00000000000000000000000000000c771f6176268d5a9846e0956c3ef58597a1"
          ],
          "data": "0xffffffffffffffffffffffffffffffffffffffffffffffffffffffffffffffff",
          "blockHash": "0xb527187ca4bf4b7f078194c06e13abcd4f3dfb1bc3e0a48c9ea0d243dfa14636",
          "blockNumber": "0x75810e",
          "transactionHash": "0x613f8f14d083f268cd2f9c82dc4f7a2fb6726b079803d0b9c0a19ab4476bb9d5",
          "transactionIndex": "0x6b",
          "logIndex": "0xb4",
          "removed": false
        }
      ],
      "logsBloom": "0x00000000000000000000000000000000000004000000000000000000000000200000000000000000000000000000000000000000000000000000000000000000000000000000000000000008000000000000001000000000000000000000000000000000020000000080000000000800000010000000000000000010000000000000000000000000000000000000000000000000000100000000000000000000000000000000000000000000000000000000000000000000000000000000000000000002000000000000000000000000000000000000000000000000000020000000000000000000000000000000000000000000000000000000000000000000",
      "type": "0x2",
      "transactionHash": "0x613f8f14d083f268cd2f9c82dc4f7a2fb6726b079803d0b9c0a19ab4476bb9d5",
      "transactionIndex": "0x6b",
      "blockHash": "0xb527187ca4bf4b7f078194c06e13abcd4f3dfb1bc3e0a48c9ea0d243dfa14636",
      "blockNumber": "0x75810e",
      "gasUsed": "0x90ed7",
      "effectiveGasPrice": "0x40a5b67b",
      "from": "0x00000c771f6176268d5a9846e0956c3ef58597a1",
      "to": null,
      "contractAddress": "0x5762bbdbb246811deef78cca9ffe5c64cb02f711"
    },
    {
      "status": "0x1",
      "cumulativeGasUsed": "0x85e4ff",
      "logs": [
        {
          "address": "0x5762bbdbb246811deef78cca9ffe5c64cb02f711",
          "topics": [
            "0x8c5be1e5ebec7d5bd14f71427d1e84f3dd0314c0f7b2291e5b200ac8c7c3b925",
            "0x00000000000000000000000000000c771f6176268d5a9846e0956c3ef58597a1",
            "0x00000000000000000000000006b43d6eb4c8ec542b38ba9789b1ad62817a853c"
          ],
          "data": "0xffffffffffffffffffffffffffffffffffffffffffffffffffffffffffffffff",
          "blockHash": "0x062385ba06ba20a1054a5a978cda9785807c578b5b0ee3ffb1fd05866991b66d",
          "blockNumber": "0x75810f",
          "transactionHash": "0xbb3c8a7489ea72d4f7fea7c9f0c60b0e8bc3406880bd10ee5c0a5c18837916ef",
          "transactionIndex": "0x5a",
          "logIndex": "0x76",
          "removed": false
        }
      ],
      "logsBloom": "0x00000000000000000000000000000000000004000000000000000000000000200000000000000000000000000000000000000000000000000000000000200000000000000000000000000000000000000000001000000000000000000000000000000000000000000080000000000000000010000000000000000000000000000000000000000000000000000000000000000000000100000000000000000000020000000000000000000000000000000000000000000000000000000000000000000000000000000000000000000020000000000000000000000000000000000010000800000000000000000000000000000000000000000020000000000000",
      "type": "0x2",
      "transactionHash": "0xbb3c8a7489ea72d4f7fea7c9f0c60b0e8bc3406880bd10ee5c0a5c18837916ef",
      "transactionIndex": "0x5a",
      "blockHash": "0x062385ba06ba20a1054a5a978cda9785807c578b5b0ee3ffb1fd05866991b66d",
      "blockNumber": "0x75810f",
      "gasUsed": "0xb437",
      "effectiveGasPrice": "0x4160fd07",
      "from": "0x00000c771f6176268d5a9846e0956c3ef58597a1",
      "to": "0x5762bbdbb246811deef78cca9ffe5c64cb02f711",
      "contractAddress": null
    },
    {
      "status": "0x1",
      "cumulativeGasUsed": "0xdce3d5",
      "logs": [
        {
          "address": "0x5762bbdbb246811deef78cca9ffe5c64cb02f711",
          "topics": [
            "0x8c5be1e5ebec7d5bd14f71427d1e84f3dd0314c0f7b2291e5b200ac8c7c3b925",
            "0x00000000000000000000000000000c771f6176268d5a9846e0956c3ef58597a1",
            "0x00000000000000000000000021fab96fad31f103a21bb27dfe52c4e1e5976c0d"
          ],
          "data": "0xffffffffffffffffffffffffffffffffffffffffffffffffffffffffffffffff",
          "blockHash": "0x61b59e6fbdf99d77ac872d64f5654e2bcd463d817fdd4b75242c93cfe3dc3a46",
          "blockNumber": "0x758110",
          "transactionHash": "0xac61c41f551af093fb8c64ccb0a8c2d0627f2cb299c83a58dcabec3ba4661077",
          "transactionIndex": "0x73",
          "logIndex": "0xed",
          "removed": false
        }
      ],
      "logsBloom": "0x00000000000000000000000000000000000004000000000000000000000000200000000000000000000000000000000000000000000000000000000000200000000000000000000000000000000000000000001000000000000000000000000000000000000000040080080000000000000010000000000000000000000000000000000000000000000000000000040000000000000100000000000000000000020000000000000000000000000000000000000000000000000000000000000000000000000000000000000000000000000000000000000000000000000000000010000000000000000000000000000000000000000000000000000000000000",
      "type": "0x2",
      "transactionHash": "0xac61c41f551af093fb8c64ccb0a8c2d0627f2cb299c83a58dcabec3ba4661077",
      "transactionIndex": "0x73",
      "blockHash": "0x61b59e6fbdf99d77ac872d64f5654e2bcd463d817fdd4b75242c93cfe3dc3a46",
      "blockNumber": "0x758110",
      "gasUsed": "0xb437",
      "effectiveGasPrice": "0x4078a4e6",
      "from": "0x00000c771f6176268d5a9846e0956c3ef58597a1",
      "to": "0x5762bbdbb246811deef78cca9ffe5c64cb02f711",
      "contractAddress": null
    },
    {
      "status": "0x1",
      "cumulativeGasUsed": "0x107063e",
      "logs": [
        {
          "address": "0x928facb6b7283cd2bb82d50308e36db6d0335657",
          "topics": [
            "0x5e4688b340694b7c7fd30047fd082117dc46e32acfbf81a44bb1fac0ae65154d"
          ],
          "data": "0xab9358de62f65d893de8d2824673eecf88a304d9c16f5adaffbfec592b602d7d00000000000000000000000000000000000000000000000000000000000000000000000000000000000000005762bbdbb246811deef78cca9ffe5c64cb02f711000000000000000000000000000000000000000000c49ba5e353f7ce0000175e000000000000000000000000000000000000000000000000000000000081f64d000000000000000000000000000000000000000080000011ad7b7d57d2db6557",
          "blockHash": "0x734ed9943e40c16e7fbe8b0d94b860a6289adb0a3d23c42f8f0b1207185369c1",
          "blockNumber": "0x758111",
          "transactionHash": "0x62e9cc56d1a37a729b391d26f3376e61ff209f41ad1e2644e38661e69564fff0",
          "transactionIndex": "0x7c",
          "logIndex": "0xc9",
          "removed": false
        },
        {
          "address": "0x21fab96fad31f103a21bb27dfe52c4e1e5976c0d",
          "topics": [
            "0xddf252ad1be2c89b69c2b068fc378daa952ba7f163c4a11628f55a4df523b3ef",
            "0x0000000000000000000000000000000000000000000000000000000000000000",
            "0x00000000000000000000000000000c771f6176268d5a9846e0956c3ef58597a1",
            "0x0000000000000000000000000000000000000000000000000000ab084c341535"
          ],
          "data": "0x",
          "blockHash": "0x734ed9943e40c16e7fbe8b0d94b860a6289adb0a3d23c42f8f0b1207185369c1",
          "blockNumber": "0x758111",
          "transactionHash": "0x62e9cc56d1a37a729b391d26f3376e61ff209f41ad1e2644e38661e69564fff0",
          "transactionIndex": "0x7c",
          "logIndex": "0xca",
          "removed": false
        },
        {
          "address": "0x928facb6b7283cd2bb82d50308e36db6d0335657",
          "topics": [
            "0xa2d4008be4187c63684f323788e131e1370dbc2205499befe2834005a00c792c"
          ],
          "data": "0x00000000000000000000000021fab96fad31f103a21bb27dfe52c4e1e5976c0dab9358de62f65d893de8d2824673eecf88a304d9c16f5adaffbfec592b602d7d0000000000000000000000000000000000000000000000000000ab084c341535fffffffffffffffffffffffffffffffffffffffffffffffffffffffffab6413e000000000000000000000000000000000000000000000000000000000549bec200000000000000000000000000000000000000000000000009d025b9f39a7b59000000000000000000000000000000000000000000000000002386f26fc10000000000000000000000000000000000000000000000000002b5e39a9fdddd9e1c",
          "blockHash": "0x734ed9943e40c16e7fbe8b0d94b860a6289adb0a3d23c42f8f0b1207185369c1",
          "blockNumber": "0x758111",
          "transactionHash": "0x62e9cc56d1a37a729b391d26f3376e61ff209f41ad1e2644e38661e69564fff0",
          "transactionIndex": "0x7c",
          "logIndex": "0xcb",
          "removed": false
        },
        {
          "address": "0x5762bbdbb246811deef78cca9ffe5c64cb02f711",
          "topics": [
            "0xddf252ad1be2c89b69c2b068fc378daa952ba7f163c4a11628f55a4df523b3ef",
            "0x00000000000000000000000000000c771f6176268d5a9846e0956c3ef58597a1",
            "0x000000000000000000000000928facb6b7283cd2bb82d50308e36db6d0335657"
          ],
          "data": "0x000000000000000000000000000000000000000000000002b5e39a9fdddd9e1c",
          "blockHash": "0x734ed9943e40c16e7fbe8b0d94b860a6289adb0a3d23c42f8f0b1207185369c1",
          "blockNumber": "0x758111",
          "transactionHash": "0x62e9cc56d1a37a729b391d26f3376e61ff209f41ad1e2644e38661e69564fff0",
          "transactionIndex": "0x7c",
          "logIndex": "0xcc",
          "removed": false
        }
      ],
      "logsBloom": "0x00000000000100000000000000000000000004000100000000000000000000200000000000000000000000000000000000000000000000000000000000000000000000000000020000000008800000000000001000000000000000020000000020000000020000000080000000000800000010000000000000000010000001020000000000000000000000040008000000000002000100000000000000000000000000000000000000000000000000000000000000000000000000000400000020000002000000000000000000008000000000000000000000000400000020000000000000000000000000000000000000009000000020000000000000000000",
      "type": "0x2",
      "transactionHash": "0x62e9cc56d1a37a729b391d26f3376e61ff209f41ad1e2644e38661e69564fff0",
      "transactionIndex": "0x7c",
      "blockHash": "0x734ed9943e40c16e7fbe8b0d94b860a6289adb0a3d23c42f8f0b1207185369c1",
      "blockNumber": "0x758111",
      "gasUsed": "0x4c39c",
      "effectiveGasPrice": "0x3f493cde",
      "from": "0x00000c771f6176268d5a9846e0956c3ef58597a1",
      "to": "0x21fab96fad31f103a21bb27dfe52c4e1e5976c0d",
      "contractAddress": null
    },
    {
      "status": "0x1",
      "cumulativeGasUsed": "0x11b0d05",
      "logs": [
        {
          "address": "0x928facb6b7283cd2bb82d50308e36db6d0335657",
          "topics": [],
          "data": "0x06b43d6eb4c8ec542b38ba9789b1ad62817a853cab9358de62f65d893de8d2824673eecf88a304d9c16f5adaffbfec592b602d7d000000000000000000000000000186a0ffffffffffffffffffffffffe2497ffa000000000000000009d025b9f39a7b5980000011ad7b7d5711127bde0081f64c",
          "blockHash": "0xee47c9386e7a624e0ee3676574e37520eeeb538738a697076ee01f16b54602d5",
          "blockNumber": "0x758112",
          "transactionHash": "0x9f80fc6f490bda5d3cf453bb6fb63a5d097b865ab4588b6a2e3ae1ce710ccfee",
          "transactionIndex": "0x8a",
          "logIndex": "0xe1",
          "removed": false
        },
        {
          "address": "0x5762bbdbb246811deef78cca9ffe5c64cb02f711",
          "topics": [
            "0xddf252ad1be2c89b69c2b068fc378daa952ba7f163c4a11628f55a4df523b3ef",
            "0x000000000000000000000000928facb6b7283cd2bb82d50308e36db6d0335657",
            "0x00000000000000000000000000000c771f6176268d5a9846e0956c3ef58597a1"
          ],
          "data": "0x000000000000000000000000000000000000000000000000000000001db68006",
          "blockHash": "0xee47c9386e7a624e0ee3676574e37520eeeb538738a697076ee01f16b54602d5",
          "blockNumber": "0x758112",
          "transactionHash": "0x9f80fc6f490bda5d3cf453bb6fb63a5d097b865ab4588b6a2e3ae1ce710ccfee",
          "transactionIndex": "0x8a",
          "logIndex": "0xe2",
          "removed": false
        }
      ],
      "logsBloom": "0x00000000000000000000000000000000000004000000000000000000000000200000000000000000000000000000000000000000000000000000000000000000000000000000000000000008800000000000001000000000000000020000000000000000000000000080000000000000000010000000000000000010000000000000000000000000000000040000000000000002000100000000000000000000000000000000000000000000000000000000000000000000000000000000000020000002000000000000000000000000000000000000000000000000000000000000000000000000000000000000000000001000000000000000000000000000",
      "type": "0x2",
      "transactionHash": "0x9f80fc6f490bda5d3cf453bb6fb63a5d097b865ab4588b6a2e3ae1ce710ccfee",
      "transactionIndex": "0x8a",
      "blockHash": "0xee47c9386e7a624e0ee3676574e37520eeeb538738a697076ee01f16b54602d5",
      "blockNumber": "0x758112",
      "gasUsed": "0x17ca4",
      "effectiveGasPrice": "0x40887ff1",
      "from": "0x00000c771f6176268d5a9846e0956c3ef58597a1",
      "to": "0x06b43d6eb4c8ec542b38ba9789b1ad62817a853c",
      "contractAddress": null
    },
    {
      "status": "0x1",
      "cumulativeGasUsed": "0x890764",
      "logs": [
        {
          "address": "0x928facb6b7283cd2bb82d50308e36db6d0335657",
          "topics": [],
          "data": "0x06b43d6eb4c8ec542b38ba9789b1ad62817a853cab9358de62f65d893de8d2824673eecf88a304d9c16f5adaffbfec592b602d7dfffffffffffffffffffffffffffe7a8c0000000000000000000000001dcd6500000000000000000009d025b9f39a7b5980000011ad7b7d57d2db6fc20081f64d",
          "blockHash": "0x71b9b0634ab9b2ace4c07344a17e0b968a610b05060aa4f582ff0ed74dba4c38",
          "blockNumber": "0x758113",
          "transactionHash": "0x0134000f52cce3a76d16433ec71aa6faa2907582868479a70df4f0926e7c02ce",
          "transactionIndex": "0x62",
          "logIndex": "0x69",
          "removed": false
        },
        {
          "address": "0x5762bbdbb246811deef78cca9ffe5c64cb02f711",
          "topics": [
            "0xddf252ad1be2c89b69c2b068fc378daa952ba7f163c4a11628f55a4df523b3ef",
            "0x00000000000000000000000000000c771f6176268d5a9846e0956c3ef58597a1",
            "0x000000000000000000000000928facb6b7283cd2bb82d50308e36db6d0335657"
          ],
          "data": "0x000000000000000000000000000000000000000000000000000000001dcd6500",
          "blockHash": "0x71b9b0634ab9b2ace4c07344a17e0b968a610b05060aa4f582ff0ed74dba4c38",
          "blockNumber": "0x758113",
          "transactionHash": "0x0134000f52cce3a76d16433ec71aa6faa2907582868479a70df4f0926e7c02ce",
          "transactionIndex": "0x62",
          "logIndex": "0x6a",
          "removed": false
        }
      ],
      "logsBloom": "0x00000000000000000000000000000000000004000000000000000000000000200000000000000000000000000000000000000000000000000000000000000000000000000000000000000008800000000000001000000000000000020000000000000000000000000080000000000000000010000000000000000010000000000000000000000000000000040000000000000002000100000000000000000000000000000000000000000000000000000000000000000000000000000000000020000002000000000000000000000000000000000000000000000000000000000000000000000000000000000000000000001000000000000000000000000000",
      "type": "0x2",
      "transactionHash": "0x0134000f52cce3a76d16433ec71aa6faa2907582868479a70df4f0926e7c02ce",
      "transactionIndex": "0x62",
      "blockHash": "0x71b9b0634ab9b2ace4c07344a17e0b968a610b05060aa4f582ff0ed74dba4c38",
      "blockNumber": "0x758113",
      "gasUsed": "0x195df",
      "effectiveGasPrice": "0x43b30354",
      "from": "0x00000c771f6176268d5a9846e0956c3ef58597a1",
      "to": "0x06b43d6eb4c8ec542b38ba9789b1ad62817a853c",
      "contractAddress": null
    },
    {
      "status": "0x1",
      "cumulativeGasUsed": "0x108f3f9",
      "logs": [
        {
          "address": "0x928facb6b7283cd2bb82d50308e36db6d0335657",
          "topics": [],
          "data": "0x06b43d6eb4c8ec542b38ba9789b1ad62817a853cab9358de62f65d893de8d2824673eecf88a304d9c16f5adaffbfec592b602d7d000000000000000000000000000186a0ffffffffffffffffffffffffe24991e8000000000000000009d025b9f39a7b5980000011ad7b7d571112fb3f0081f64c",
          "blockHash": "0x38fcdf0da117fc5ac0efc9578299f561e3dc4cfe309241c54c1bc7d1347c6f99",
          "blockNumber": "0x758114",
          "transactionHash": "0x1b4d1baba0e7891aee00c6ad7370e974066a3ace868552a4142504f397382475",
          "transactionIndex": "0x85",
          "logIndex": "0xd5",
          "removed": false
        },
        {
          "address": "0x5762bbdbb246811deef78cca9ffe5c64cb02f711",
          "topics": [
            "0xddf252ad1be2c89b69c2b068fc378daa952ba7f163c4a11628f55a4df523b3ef",
            "0x000000000000000000000000928facb6b7283cd2bb82d50308e36db6d0335657",
            "0x00000000000000000000000000000c771f6176268d5a9846e0956c3ef58597a1"
          ],
          "data": "0x000000000000000000000000000000000000000000000000000000001db66e18",
          "blockHash": "0x38fcdf0da117fc5ac0efc9578299f561e3dc4cfe309241c54c1bc7d1347c6f99",
          "blockNumber": "0x758114",
          "transactionHash": "0x1b4d1baba0e7891aee00c6ad7370e974066a3ace868552a4142504f397382475",
          "transactionIndex": "0x85",
          "logIndex": "0xd6",
          "removed": false
        }
      ],
      "logsBloom": "0x00000000000000000000000000000000000004000000000000000000000000200000000000000000000000000000000000000000000000000000000000000000000000000000000000000008800000000000001000000000000000020000000000000000000000000080000000000000000010000000000000000010000000000000000000000000000000040000000000000002000100000000000000000000000000000000000000000000000000000000000000000000000000000000000020000002000000000000000000000000000000000000000000000000000000000000000000000000000000000000000000001000000000000000000000000000",
      "type": "0x2",
      "transactionHash": "0x1b4d1baba0e7891aee00c6ad7370e974066a3ace868552a4142504f397382475",
      "transactionIndex": "0x85",
      "blockHash": "0x38fcdf0da117fc5ac0efc9578299f561e3dc4cfe309241c54c1bc7d1347c6f99",
      "blockNumber": "0x758114",
      "gasUsed": "0x139d8",
      "effectiveGasPrice": "0x401dff08",
      "from": "0x00000c771f6176268d5a9846e0956c3ef58597a1",
      "to": "0x06b43d6eb4c8ec542b38ba9789b1ad62817a853c",
      "contractAddress": null
    },
    {
      "status": "0x1",
      "cumulativeGasUsed": "0xf9a8e5",
      "logs": [
        {
          "address": "0x928facb6b7283cd2bb82d50308e36db6d0335657",
          "topics": [],
          "data": "0x06b43d6eb4c8ec542b38ba9789b1ad62817a853cab9358de62f65d893de8d2824673eecf88a304d9c16f5adaffbfec592b602d7dfffffffffffffffffffffffffffe7a8c0000000000000000000000001dcd6500000000000000000009d025b9f39a7b5980000011ad7b7d57d2dbef230081f64d",
          "blockHash": "0xe4d268721296db3fe4a3be6bb578b41f4e0af145029ca359bb7f8230bb0e4c67",
          "blockNumber": "0x758115",
          "transactionHash": "0x7326e6fb6ea6b9d97d7798259d2118f98e7c5c5d3feaebc8a229505bff255c3c",
          "transactionIndex": "0xa7",
          "logIndex": "0xfb",
          "removed": false
        },
        {
          "address": "0x5762bbdbb246811deef78cca9ffe5c64cb02f711",
          "topics": [
            "0xddf252ad1be2c89b69c2b068fc378daa952ba7f163c4a11628f55a4df523b3ef",
            "0x00000000000000000000000000000c771f6176268d5a9846e0956c3ef58597a1",
            "0x000000000000000000000000928facb6b7283cd2bb82d50308e36db6d0335657"
          ],
          "data": "0x000000000000000000000000000000000000000000000000000000001dcd6500",
          "blockHash": "0xe4d268721296db3fe4a3be6bb578b41f4e0af145029ca359bb7f8230bb0e4c67",
          "blockNumber": "0x758115",
          "transactionHash": "0x7326e6fb6ea6b9d97d7798259d2118f98e7c5c5d3feaebc8a229505bff255c3c",
          "transactionIndex": "0xa7",
          "logIndex": "0xfc",
          "removed": false
        }
      ],
      "logsBloom": "0x00000000000000000000000000000000000004000000000000000000000000200000000000000000000000000000000000000000000000000000000000000000000000000000000000000008800000000000001000000000000000020000000000000000000000000080000000000000000010000000000000000010000000000000000000000000000000040000000000000002000100000000000000000000000000000000000000000000000000000000000000000000000000000000000020000002000000000000000000000000000000000000000000000000000000000000000000000000000000000000000000001000000000000000000000000000",
      "type": "0x2",
      "transactionHash": "0x7326e6fb6ea6b9d97d7798259d2118f98e7c5c5d3feaebc8a229505bff255c3c",
      "transactionIndex": "0xa7",
      "blockHash": "0xe4d268721296db3fe4a3be6bb578b41f4e0af145029ca359bb7f8230bb0e4c67",
      "blockNumber": "0x758115",
      "gasUsed": "0x15313",
      "effectiveGasPrice": "0x443247a1",
      "from": "0x00000c771f6176268d5a9846e0956c3ef58597a1",
      "to": "0x06b43d6eb4c8ec542b38ba9789b1ad62817a853c",
      "contractAddress": null
    },
    {
      "status": "0x1",
      "cumulativeGasUsed": "0x76c00b",
      "logs": [
        {
          "address": "0x928facb6b7283cd2bb82d50308e36db6d0335657",
          "topics": [
            "0x5e4688b340694b7c7fd30047fd082117dc46e32acfbf81a44bb1fac0ae65154d"
          ],
          "data": "0x1732c4dfae282caf604a93c474e29f45ed883f17fa3d0ed8377012a6abee8ee600000000000000000000000000000000000000000000000000000000000000000000000000000000000000005762bbdbb246811deef78cca9ffe5c64cb02f711000000000000000000000000000000000000000000c49ba5e353f7ce00000000000000000000000000000000000000000000000000000000000000000081f64d000000000000000000000000000000000000000080000011ad7b7d57d2db6557",
          "blockHash": "0xc35315b83b1c809df8e8405d68256e92007c39f83d0fcb4057ec6653a89bba57",
          "blockNumber": "0x758116",
          "transactionHash": "0x700d995a2f10a665c75802e292df2a58d647efe9d6de767153933054cb3b5a35",
          "transactionIndex": "0x52",
          "logIndex": "0x6e",
          "removed": false
        },
        {
          "address": "0x21fab96fad31f103a21bb27dfe52c4e1e5976c0d",
          "topics": [
            "0xddf252ad1be2c89b69c2b068fc378daa952ba7f163c4a11628f55a4df523b3ef",
            "0x0000000000000000000000000000000000000000000000000000000000000000",
            "0x00000000000000000000000000000c771f6176268d5a9846e0956c3ef58597a1",
            "0x0000000000000000000000000000000000000000000000000000f8db21519b25"
          ],
          "data": "0x",
          "blockHash": "0xc35315b83b1c809df8e8405d68256e92007c39f83d0fcb4057ec6653a89bba57",
          "blockNumber": "0x758116",
          "transactionHash": "0x700d995a2f10a665c75802e292df2a58d647efe9d6de767153933054cb3b5a35",
          "transactionIndex": "0x52",
          "logIndex": "0x6f",
          "removed": false
        },
        {
          "address": "0x928facb6b7283cd2bb82d50308e36db6d0335657",
          "topics": [
            "0xa2d4008be4187c63684f323788e131e1370dbc2205499befe2834005a00c792c"
          ],
          "data": "0x00000000000000000000000021fab96fad31f103a21bb27dfe52c4e1e5976c0d1732c4dfae282caf604a93c474e29f45ed883f17fa3d0ed8377012a6abee8ee60000000000000000000000000000000000000000000000000000f8db21519b25fffffffffffffffffffffffffffffffffffffffffffffffffffffffffab6326d000000000000000000000000000000000000000000000000000000000549cd9300000000000000000000000000000000000000000000000009d025b9f39a7b59000000000000000000000000000000000000000000000000002386f26fc10000000000000000000000000000000000000000000000000002b5e39a9fdddd9e1c",
          "blockHash": "0xc35315b83b1c809df8e8405d68256e92007c39f83d0fcb4057ec6653a89bba57",
          "blockNumber": "0x758116",
          "transactionHash": "0x700d995a2f10a665c75802e292df2a58d647efe9d6de767153933054cb3b5a35",
          "transactionIndex": "0x52",
          "logIndex": "0x70",
          "removed": false
        },
        {
          "address": "0x5762bbdbb246811deef78cca9ffe5c64cb02f711",
          "topics": [
            "0xddf252ad1be2c89b69c2b068fc378daa952ba7f163c4a11628f55a4df523b3ef",
            "0x00000000000000000000000000000c771f6176268d5a9846e0956c3ef58597a1",
            "0x000000000000000000000000928facb6b7283cd2bb82d50308e36db6d0335657"
          ],
          "data": "0x000000000000000000000000000000000000000000000002b5e39a9fdddd9e1c",
          "blockHash": "0xc35315b83b1c809df8e8405d68256e92007c39f83d0fcb4057ec6653a89bba57",
          "blockNumber": "0x758116",
          "transactionHash": "0x700d995a2f10a665c75802e292df2a58d647efe9d6de767153933054cb3b5a35",
          "transactionIndex": "0x52",
          "logIndex": "0x71",
          "removed": false
        }
      ],
      "logsBloom": "0x00000000000100000000000000100000000004000100000000000000000000200000000000000000000000000000000000000000000000000000000000000000000000000000020000000008800000000000001000000000000000020000000020000000020000000080000000000800000010000000000000000010000000000000000000000000000000040008000000000002000100000000000000000000000000000000000000000000000000000000000000000000000000000400000020000002001000000000000000008000000000000000000000000000000020000000000000000002000000000000000000009000000020000000000000000000",
      "type": "0x2",
      "transactionHash": "0x700d995a2f10a665c75802e292df2a58d647efe9d6de767153933054cb3b5a35",
      "transactionIndex": "0x52",
      "blockHash": "0xc35315b83b1c809df8e8405d68256e92007c39f83d0fcb4057ec6653a89bba57",
      "blockNumber": "0x758116",
      "gasUsed": "0x2b621",
      "effectiveGasPrice": "0x46ae7000",
      "from": "0x00000c771f6176268d5a9846e0956c3ef58597a1",
      "to": "0x21fab96fad31f103a21bb27dfe52c4e1e5976c0d",
      "contractAddress": null
    },
    {
      "status": "0x1",
      "cumulativeGasUsed": "0xd1e7be",
      "logs": [
        {
          "address": "0x928facb6b7283cd2bb82d50308e36db6d0335657",
          "topics": [],
          "data": "0x06b43d6eb4c8ec542b38ba9789b1ad62817a853c1732c4dfae282caf604a93c474e29f45ed883f17fa3d0ed8377012a6abee8ee6000000000000000000000000000186a0ffffffffffffffffffffffffe2497ffa000000000000000009d025b9f39a7b5980000011ad7b7d5711127bde0081f64c",
          "blockHash": "0x732abec70ce07c2123c02e638d006a529b640b861309fffe991d1a1c34f315fe",
          "blockNumber": "0x758117",
          "transactionHash": "0xd7e88f8b2ec4516330005d176355fe31b9a416fd7381a517073717dda4355a27",
          "transactionIndex": "0x77",
          "logIndex": "0xcb",
          "removed": false
        },
        {
          "address": "0x5762bbdbb246811deef78cca9ffe5c64cb02f711",
          "topics": [
            "0xddf252ad1be2c89b69c2b068fc378daa952ba7f163c4a11628f55a4df523b3ef",
            "0x000000000000000000000000928facb6b7283cd2bb82d50308e36db6d0335657",
            "0x00000000000000000000000000000c771f6176268d5a9846e0956c3ef58597a1"
          ],
          "data": "0x000000000000000000000000000000000000000000000000000000001db68006",
          "blockHash": "0x732abec70ce07c2123c02e638d006a529b640b861309fffe991d1a1c34f315fe",
          "blockNumber": "0x758117",
          "transactionHash": "0xd7e88f8b2ec4516330005d176355fe31b9a416fd7381a517073717dda4355a27",
          "transactionIndex": "0x77",
          "logIndex": "0xcc",
          "removed": false
        }
      ],
      "logsBloom": "0x00000000000000000000000000000000000004000000000000000000000000200000000000000000000000000000000000000000000000000000000000000000000000000000000000000008800000000000001000000000000000020000000000000000000000000080000000000000000010000000000000000010000000000000000000000000000000040000000000000002000100000000000000000000000000000000000000000000000000000000000000000000000000000000000020000002000000000000000000000000000000000000000000000000000000000000000000000000000000000000000000001000000000000000000000000000",
      "type": "0x2",
      "transactionHash": "0xd7e88f8b2ec4516330005d176355fe31b9a416fd7381a517073717dda4355a27",
      "transactionIndex": "0x77",
      "blockHash": "0x732abec70ce07c2123c02e638d006a529b640b861309fffe991d1a1c34f315fe",
      "blockNumber": "0x758117",
      "gasUsed": "0x16d4d",
      "effectiveGasPrice": "0x431a50bb",
      "from": "0x00000c771f6176268d5a9846e0956c3ef58597a1",
      "to": "0x06b43d6eb4c8ec542b38ba9789b1ad62817a853c",
      "contractAddress": null
    },
    {
      "status": "0x1",
      "cumulativeGasUsed": "0xa10bca",
      "logs": [
        {
          "address": "0x928facb6b7283cd2bb82d50308e36db6d0335657",
          "topics": [],
          "data": "0x06b43d6eb4c8ec542b38ba9789b1ad62817a853c1732c4dfae282caf604a93c474e29f45ed883f17fa3d0ed8377012a6abee8ee6fffffffffffffffffffffffffffe7a8c0000000000000000000000001dcd6500000000000000000009d025b9f39a7b5980000011ad7b7d57d2db6fc20081f64d",
          "blockHash": "0x2467be2e4c6c96952c52bbd77b009a64b1e60873af01eaa94e0615da8835e002",
          "blockNumber": "0x758118",
          "transactionHash": "0xfc786d848af91ac817d354fe9a3719a97bad4b3f6b03c18f518ab08353847523",
          "transactionIndex": "0x61",
          "logIndex": "0x8a",
          "removed": false
        },
        {
          "address": "0x5762bbdbb246811deef78cca9ffe5c64cb02f711",
          "topics": [
            "0xddf252ad1be2c89b69c2b068fc378daa952ba7f163c4a11628f55a4df523b3ef",
            "0x00000000000000000000000000000c771f6176268d5a9846e0956c3ef58597a1",
            "0x000000000000000000000000928facb6b7283cd2bb82d50308e36db6d0335657"
          ],
          "data": "0x000000000000000000000000000000000000000000000000000000001dcd6500",
          "blockHash": "0x2467be2e4c6c96952c52bbd77b009a64b1e60873af01eaa94e0615da8835e002",
          "blockNumber": "0x758118",
          "transactionHash": "0xfc786d848af91ac817d354fe9a3719a97bad4b3f6b03c18f518ab08353847523",
          "transactionIndex": "0x61",
          "logIndex": "0x8b",
          "removed": false
        }
      ],
      "logsBloom": "0x00000000000000000000000000000000000004000000000000000000000000200000000000000000000000000000000000000000000000000000000000000000000000000000000000000008800000000000001000000000000000020000000000000000000000000080000000000000000010000000000000000010000000000000000000000000000000040000000000000002000100000000000000000000000000000000000000000000000000000000000000000000000000000000000020000002000000000000000000000000000000000000000000000000000000000000000000000000000000000000000000001000000000000000000000000000",
      "type": "0x2",
      "transactionHash": "0xfc786d848af91ac817d354fe9a3719a97bad4b3f6b03c18f518ab08353847523",
      "transactionIndex": "0x61",
      "blockHash": "0x2467be2e4c6c96952c52bbd77b009a64b1e60873af01eaa94e0615da8835e002",
      "blockNumber": "0x758118",
      "gasUsed": "0x186b2",
      "effectiveGasPrice": "0x43343b04",
      "from": "0x00000c771f6176268d5a9846e0956c3ef58597a1",
      "to": "0x06b43d6eb4c8ec542b38ba9789b1ad62817a853c",
      "contractAddress": null
    },
    {
      "status": "0x1",
      "cumulativeGasUsed": "0x1258113",
      "logs": [
        {
          "address": "0x928facb6b7283cd2bb82d50308e36db6d0335657",
          "topics": [],
          "data": "0x06b43d6eb4c8ec542b38ba9789b1ad62817a853c1732c4dfae282caf604a93c474e29f45ed883f17fa3d0ed8377012a6abee8ee6000000000000000000000000000186a0ffffffffffffffffffffffffe24991e8000000000000000009d025b9f39a7b5980000011ad7b7d571112fb3f0081f64c",
          "blockHash": "0x45672bc6bb11b26368a91941fdd27754887933699c1db11c53bc7f870cc0fba4",
          "blockNumber": "0x758119",
          "transactionHash": "0x05258b0633b5374ad93e45e08746dc4f10dc4e428cb7076c5a15d65e3cf11ae7",
          "transactionIndex": "0x78",
          "logIndex": "0xd5",
          "removed": false
        },
        {
          "address": "0x5762bbdbb246811deef78cca9ffe5c64cb02f711",
          "topics": [
            "0xddf252ad1be2c89b69c2b068fc378daa952ba7f163c4a11628f55a4df523b3ef",
            "0x000000000000000000000000928facb6b7283cd2bb82d50308e36db6d0335657",
            "0x00000000000000000000000000000c771f6176268d5a9846e0956c3ef58597a1"
          ],
          "data": "0x000000000000000000000000000000000000000000000000000000001db66e18",
          "blockHash": "0x45672bc6bb11b26368a91941fdd27754887933699c1db11c53bc7f870cc0fba4",
          "blockNumber": "0x758119",
          "transactionHash": "0x05258b0633b5374ad93e45e08746dc4f10dc4e428cb7076c5a15d65e3cf11ae7",
          "transactionIndex": "0x78",
          "logIndex": "0xd6",
          "removed": false
        }
      ],
      "logsBloom": "0x00000000000000000000000000000000000004000000000000000000000000200000000000000000000000000000000000000000000000000000000000000000000000000000000000000008800000000000001000000000000000020000000000000000000000000080000000000000000010000000000000000010000000000000000000000000000000040000000000000002000100000000000000000000000000000000000000000000000000000000000000000000000000000000000020000002000000000000000000000000000000000000000000000000000000000000000000000000000000000000000000001000000000000000000000000000",
      "type": "0x2",
      "transactionHash": "0x05258b0633b5374ad93e45e08746dc4f10dc4e428cb7076c5a15d65e3cf11ae7",
      "transactionIndex": "0x78",
      "blockHash": "0x45672bc6bb11b26368a91941fdd27754887933699c1db11c53bc7f870cc0fba4",
      "blockNumber": "0x758119",
      "gasUsed": "0x12a81",
      "effectiveGasPrice": "0x40a9405e",
      "from": "0x00000c771f6176268d5a9846e0956c3ef58597a1",
      "to": "0x06b43d6eb4c8ec542b38ba9789b1ad62817a853c",
      "contractAddress": null
    },
    {
      "status": "0x1",
      "cumulativeGasUsed": "0x8f19e0",
      "logs": [
        {
          "address": "0x928facb6b7283cd2bb82d50308e36db6d0335657",
          "topics": [],
          "data": "0x06b43d6eb4c8ec542b38ba9789b1ad62817a853c1732c4dfae282caf604a93c474e29f45ed883f17fa3d0ed8377012a6abee8ee6fffffffffffffffffffffffffffe7a8c0000000000000000000000001dcd6500000000000000000009d025b9f39a7b5980000011ad7b7d57d2dbef230081f64d",
          "blockHash": "0x51f5802a4dca8610cdf9b9300016e08e66b953dcf2b312b8d86d86f91094a353",
          "blockNumber": "0x75811a",
          "transactionHash": "0x64902b5d1d4b523b94de15a96c5e07b7fb447d7ed5f361393d0eed6f5b35afda",
          "transactionIndex": "0x66",
          "logIndex": "0x91",
          "removed": false
        },
        {
          "address": "0x5762bbdbb246811deef78cca9ffe5c64cb02f711",
          "topics": [
            "0xddf252ad1be2c89b69c2b068fc378daa952ba7f163c4a11628f55a4df523b3ef",
            "0x00000000000000000000000000000c771f6176268d5a9846e0956c3ef58597a1",
            "0x000000000000000000000000928facb6b7283cd2bb82d50308e36db6d0335657"
          ],
          "data": "0x000000000000000000000000000000000000000000000000000000001dcd6500",
          "blockHash": "0x51f5802a4dca8610cdf9b9300016e08e66b953dcf2b312b8d86d86f91094a353",
          "blockNumber": "0x75811a",
          "transactionHash": "0x64902b5d1d4b523b94de15a96c5e07b7fb447d7ed5f361393d0eed6f5b35afda",
          "transactionIndex": "0x66",
          "logIndex": "0x92",
          "removed": false
        }
      ],
      "logsBloom": "0x00000000000000000000000000000000000004000000000000000000000000200000000000000000000000000000000000000000000000000000000000000000000000000000000000000008800000000000001000000000000000020000000000000000000000000080000000000000000010000000000000000010000000000000000000000000000000040000000000000002000100000000000000000000000000000000000000000000000000000000000000000000000000000000000020000002000000000000000000000000000000000000000000000000000000000000000000000000000000000000000000001000000000000000000000000000",
      "type": "0x2",
      "transactionHash": "0x64902b5d1d4b523b94de15a96c5e07b7fb447d7ed5f361393d0eed6f5b35afda",
      "transactionIndex": "0x66",
      "blockHash": "0x51f5802a4dca8610cdf9b9300016e08e66b953dcf2b312b8d86d86f91094a353",
      "blockNumber": "0x75811a",
      "gasUsed": "0x143e6",
      "effectiveGasPrice": "0x456a001e",
      "from": "0x00000c771f6176268d5a9846e0956c3ef58597a1",
      "to": "0x06b43d6eb4c8ec542b38ba9789b1ad62817a853c",
      "contractAddress": null
    },
    {
      "status": "0x1",
      "cumulativeGasUsed": "0x8b1fe1",
      "logs": [
        {
          "address": "0x5107aaf0900af3e514bcdbaf94ddf4660d8cd0cb",
          "topics": [],
          "data": "0x5762bbdbb246811deef78cca9ffe5c64cb02f7110000000067ae3b0c00000000000000000000000000000000000000000000000000000000",
          "blockHash": "0x837bd00109764b6e285428ac7378af01c9ed2130b32c683bf81e9ec2aa326ac1",
          "blockNumber": "0x75811b",
          "transactionHash": "0xe0850a80e25df775ef71f5fc12685fec6bba224d4c3a6c700e3c2ad8de292db7",
          "transactionIndex": "0x5d",
          "logIndex": "0x8a",
          "removed": false
        },
        {
          "address": "0x928facb6b7283cd2bb82d50308e36db6d0335657",
          "topics": [
            "0x5e4688b340694b7c7fd30047fd082117dc46e32acfbf81a44bb1fac0ae65154d"
          ],
          "data": "0x87af51d2c5fc8091da85e4de78cdd0f73248755dcf73eec9de539be1c493dd0400000000000000000000000000000000000000000000000000000000000000000000000000000000000000005762bbdbb246811deef78cca9ffe5c64cb02f7115107aaf0900af3e514bcdbaf94ddf4660d8cd0cb00000000000000000000000000000000000000000000000000000000000000000000000000000000004644f40000000000000000000000000000000000000000800000027ffff5c0ff12dc20",
          "blockHash": "0x837bd00109764b6e285428ac7378af01c9ed2130b32c683bf81e9ec2aa326ac1",
          "blockNumber": "0x75811b",
          "transactionHash": "0xe0850a80e25df775ef71f5fc12685fec6bba224d4c3a6c700e3c2ad8de292db7",
          "transactionIndex": "0x5d",
          "logIndex": "0x8b",
          "removed": false
        },
        {
          "address": "0x21fab96fad31f103a21bb27dfe52c4e1e5976c0d",
          "topics": [
            "0xddf252ad1be2c89b69c2b068fc378daa952ba7f163c4a11628f55a4df523b3ef",
            "0x0000000000000000000000000000000000000000000000000000000000000000",
            "0x00000000000000000000000000000c771f6176268d5a9846e0956c3ef58597a1",
            "0x000000000000000000000000000000000000000000000000000092080be108d4"
          ],
          "data": "0x",
          "blockHash": "0x837bd00109764b6e285428ac7378af01c9ed2130b32c683bf81e9ec2aa326ac1",
          "blockNumber": "0x75811b",
          "transactionHash": "0xe0850a80e25df775ef71f5fc12685fec6bba224d4c3a6c700e3c2ad8de292db7",
          "transactionIndex": "0x5d",
          "logIndex": "0x8c",
          "removed": false
        },
        {
          "address": "0x928facb6b7283cd2bb82d50308e36db6d0335657",
          "topics": [
            "0xa2d4008be4187c63684f323788e131e1370dbc2205499befe2834005a00c792c"
          ],
          "data": "0x00000000000000000000000021fab96fad31f103a21bb27dfe52c4e1e5976c0d87af51d2c5fc8091da85e4de78cdd0f73248755dcf73eec9de539be1c493dd04000000000000000000000000000000000000000000000000000092080be108d4fffffffffffffffffffffffffffffffffffffffffffffffffffffffffab6326d000000000000000000000000000000000000000000000000000000000549cd9300000000000000000000000000000000000000000000000001634572ad7ac440000000000000000000000000000000000000000000000000002386f26fc100000000000000000000000000000000000000000000000000000de0b641e6343e1e",
          "blockHash": "0x837bd00109764b6e285428ac7378af01c9ed2130b32c683bf81e9ec2aa326ac1",
          "blockNumber": "0x75811b",
          "transactionHash": "0xe0850a80e25df775ef71f5fc12685fec6bba224d4c3a6c700e3c2ad8de292db7",
          "transactionIndex": "0x5d",
          "logIndex": "0x8d",
          "removed": false
        },
        {
          "address": "0x5762bbdbb246811deef78cca9ffe5c64cb02f711",
          "topics": [
            "0xddf252ad1be2c89b69c2b068fc378daa952ba7f163c4a11628f55a4df523b3ef",
            "0x00000000000000000000000000000c771f6176268d5a9846e0956c3ef58597a1",
            "0x000000000000000000000000928facb6b7283cd2bb82d50308e36db6d0335657"
          ],
          "data": "0x0000000000000000000000000000000000000000000000000de0b641e6343e1e",
          "blockHash": "0x837bd00109764b6e285428ac7378af01c9ed2130b32c683bf81e9ec2aa326ac1",
          "blockNumber": "0x75811b",
          "transactionHash": "0xe0850a80e25df775ef71f5fc12685fec6bba224d4c3a6c700e3c2ad8de292db7",
          "transactionIndex": "0x5d",
          "logIndex": "0x8e",
          "removed": false
        }
      ],
      "logsBloom": "0x00000000000100000000000000000000000004000100000000002000100000200000000000000000000000000000000000000000000000000000000000000000000000000000020000000008800000000000001000000000000000020000000020000000060000000080000000000800000010000000000000000010000000000000000000000000800000040008000000000002000100000000000000000000000000000000000000000000000000002000000000004000000000000400000020000002000000000000000000008000000000000000000000000000000020000000000000000000000000000000000000009000000020000000000000000000",
      "type": "0x2",
      "transactionHash": "0xe0850a80e25df775ef71f5fc12685fec6bba224d4c3a6c700e3c2ad8de292db7",
      "transactionIndex": "0x5d",
      "blockHash": "0x837bd00109764b6e285428ac7378af01c9ed2130b32c683bf81e9ec2aa326ac1",
      "blockNumber": "0x75811b",
      "gasUsed": "0x38f33",
      "effectiveGasPrice": "0x43c5bbfc",
      "from": "0x00000c771f6176268d5a9846e0956c3ef58597a1",
      "to": "0x21fab96fad31f103a21bb27dfe52c4e1e5976c0d",
      "contractAddress": null
    },
    {
      "status": "0x1",
      "cumulativeGasUsed": "0xa0fc19",
      "logs": [
        {
          "address": "0x5107aaf0900af3e514bcdbaf94ddf4660d8cd0cb",
          "topics": [],
          "data": "0x5762bbdbb246811deef78cca9ffe5c64cb02f7110000000067ae3b180000000000000000000008a59c1dcaea5b922ca400000000034b3b70",
          "blockHash": "0x6c797ddd029bbc049669d6c7fe8f4914730b6801db02090e904088fb4017ed44",
          "blockNumber": "0x75811c",
          "transactionHash": "0x2d2630b7f7e9cc449e9d812e75bb24abaa9cc81f671b2503b430928f71bbd609",
          "transactionIndex": "0x76",
          "logIndex": "0xa9",
          "removed": false
        },
        {
          "address": "0x928facb6b7283cd2bb82d50308e36db6d0335657",
          "topics": [],
          "data": "0x06b43d6eb4c8ec542b38ba9789b1ad62817a853c87af51d2c5fc8091da85e4de78cdd0f73248755dcf73eec9de539be1c493dd04000000000000000000000000000186a0ffffffffffffffffffffffffff6769e7000000000000000001634572ad7ac440800000027ffff5c0e3960e61004644f3",
          "blockHash": "0x6c797ddd029bbc049669d6c7fe8f4914730b6801db02090e904088fb4017ed44",
          "blockNumber": "0x75811c",
          "transactionHash": "0x2d2630b7f7e9cc449e9d812e75bb24abaa9cc81f671b2503b430928f71bbd609",
          "transactionIndex": "0x76",
          "logIndex": "0xaa",
          "removed": false
        },
        {
          "address": "0x5762bbdbb246811deef78cca9ffe5c64cb02f711",
          "topics": [
            "0xddf252ad1be2c89b69c2b068fc378daa952ba7f163c4a11628f55a4df523b3ef",
            "0x000000000000000000000000928facb6b7283cd2bb82d50308e36db6d0335657",
            "0x00000000000000000000000000000c771f6176268d5a9846e0956c3ef58597a1"
          ],
          "data": "0x0000000000000000000000000000000000000000000000000000000000989619",
          "blockHash": "0x6c797ddd029bbc049669d6c7fe8f4914730b6801db02090e904088fb4017ed44",
          "blockNumber": "0x75811c",
          "transactionHash": "0x2d2630b7f7e9cc449e9d812e75bb24abaa9cc81f671b2503b430928f71bbd609",
          "transactionIndex": "0x76",
          "logIndex": "0xab",
          "removed": false
        }
      ],
      "logsBloom": "0x00000000000000000000000000000000000004000000000000000000000000200000000000000000000000000000000000000000000000000000000000000000000000000000000000000008800000000000001000000000000000020000000000000000040000000080000000000000000010000000000000000010000000000000000000000000800000040000000000000002000100000000000000000000000000000000000000000000000000000000000000004000000000000000000020000002000000000000000000000000000000000000000000000000000000000000000000000000000000000000000000001000000000000000000000000000",
      "type": "0x2",
      "transactionHash": "0x2d2630b7f7e9cc449e9d812e75bb24abaa9cc81f671b2503b430928f71bbd609",
      "transactionIndex": "0x76",
      "blockHash": "0x6c797ddd029bbc049669d6c7fe8f4914730b6801db02090e904088fb4017ed44",
      "blockNumber": "0x75811c",
      "gasUsed": "0x15132",
      "effectiveGasPrice": "0x4206ce40",
      "from": "0x00000c771f6176268d5a9846e0956c3ef58597a1",
      "to": "0x06b43d6eb4c8ec542b38ba9789b1ad62817a853c",
      "contractAddress": null
    },
    {
      "status": "0x1",
      "cumulativeGasUsed": "0xbd050d",
      "logs": [
        {
          "address": "0x5107aaf0900af3e514bcdbaf94ddf4660d8cd0cb",
          "topics": [],
          "data": "0x5762bbdbb246811deef78cca9ffe5c64cb02f7110000000067ae3b2400000000000000000000114b383b95d4b724594800000000069676d4",
          "blockHash": "0x4ca534c2de620ccfffe200ddefe6dc9465b7cf0042caf443e0a722003f04dd15",
          "blockNumber": "0x75811d",
          "transactionHash": "0x15427c47b4ce7424d79d52005b180a9802416de9f0226e4d18b2be9499ea30c2",
          "transactionIndex": "0x6a",
          "logIndex": "0xad",
          "removed": false
        },
        {
          "address": "0x928facb6b7283cd2bb82d50308e36db6d0335657",
          "topics": [],
          "data": "0x06b43d6eb4c8ec542b38ba9789b1ad62817a853c87af51d2c5fc8091da85e4de78cdd0f73248755dcf73eec9de539be1c493dd04ffffffffffffffffffffffffffb3b4be0000000000000000000000001dcd6500000000000000000001634572ad7ac440800000027ffff5c641f9dced004644f4",
          "blockHash": "0x4ca534c2de620ccfffe200ddefe6dc9465b7cf0042caf443e0a722003f04dd15",
          "blockNumber": "0x75811d",
          "transactionHash": "0x15427c47b4ce7424d79d52005b180a9802416de9f0226e4d18b2be9499ea30c2",
          "transactionIndex": "0x6a",
          "logIndex": "0xae",
          "removed": false
        },
        {
          "address": "0x5762bbdbb246811deef78cca9ffe5c64cb02f711",
          "topics": [
            "0xddf252ad1be2c89b69c2b068fc378daa952ba7f163c4a11628f55a4df523b3ef",
            "0x00000000000000000000000000000c771f6176268d5a9846e0956c3ef58597a1",
            "0x000000000000000000000000928facb6b7283cd2bb82d50308e36db6d0335657"
          ],
          "data": "0x000000000000000000000000000000000000000000000000000000001dcd6500",
          "blockHash": "0x4ca534c2de620ccfffe200ddefe6dc9465b7cf0042caf443e0a722003f04dd15",
          "blockNumber": "0x75811d",
          "transactionHash": "0x15427c47b4ce7424d79d52005b180a9802416de9f0226e4d18b2be9499ea30c2",
          "transactionIndex": "0x6a",
          "logIndex": "0xaf",
          "removed": false
        }
      ],
      "logsBloom": "0x00000000000000000000000000000000000004000000000000000000000000200000000000000000000000000000000000000000000000000000000000000000000000000000000000000008800000000000001000000000000000020000000000000000040000000080000000000000000010000000000000000010000000000000000000000000800000040000000000000002000100000000000000000000000000000000000000000000000000000000000000004000000000000000000020000002000000000000000000000000000000000000000000000000000000000000000000000000000000000000000000001000000000000000000000000000",
      "type": "0x2",
      "transactionHash": "0x15427c47b4ce7424d79d52005b180a9802416de9f0226e4d18b2be9499ea30c2",
      "transactionIndex": "0x6a",
      "blockHash": "0x4ca534c2de620ccfffe200ddefe6dc9465b7cf0042caf443e0a722003f04dd15",
      "blockNumber": "0x75811d",
      "gasUsed": "0x16a97",
      "effectiveGasPrice": "0x411384eb",
      "from": "0x00000c771f6176268d5a9846e0956c3ef58597a1",
      "to": "0x06b43d6eb4c8ec542b38ba9789b1ad62817a853c",
      "contractAddress": null
    },
    {
      "status": "0x1",
      "cumulativeGasUsed": "0x970e49",
      "logs": [
        {
          "address": "0x5107aaf0900af3e514bcdbaf94ddf4660d8cd0cb",
          "topics": [],
          "data": "0x5762bbdbb246811deef78cca9ffe5c64cb02f7110000000067ae3b300000000000000000000019f0d45960bf12b685ec0000000009e1b244",
          "blockHash": "0x8a9379b02bc10de39eb0c79f17f87d197a569e935b09439ef4c31e05d7e04658",
          "blockNumber": "0x75811e",
          "transactionHash": "0x4226a236fca47114dbb60cdb87ab36d0737bbc7f07aeb43e7b9c7181e72688aa",
          "transactionIndex": "0x4b",
          "logIndex": "0x72",
          "removed": false
        },
        {
          "address": "0x928facb6b7283cd2bb82d50308e36db6d0335657",
          "topics": [],
          "data": "0x06b43d6eb4c8ec542b38ba9789b1ad62817a853c87af51d2c5fc8091da85e4de78cdd0f73248755dcf73eec9de539be1c493dd04000000000000000000000000000186a0ffffffffffffffffffffffffff6769bd000000000000000001634572ad7ac440800000027ffff5c6267d0799004644f4",
          "blockHash": "0x8a9379b02bc10de39eb0c79f17f87d197a569e935b09439ef4c31e05d7e04658",
          "blockNumber": "0x75811e",
          "transactionHash": "0x4226a236fca47114dbb60cdb87ab36d0737bbc7f07aeb43e7b9c7181e72688aa",
          "transactionIndex": "0x4b",
          "logIndex": "0x73",
          "removed": false
        },
        {
          "address": "0x5762bbdbb246811deef78cca9ffe5c64cb02f711",
          "topics": [
            "0xddf252ad1be2c89b69c2b068fc378daa952ba7f163c4a11628f55a4df523b3ef",
            "0x000000000000000000000000928facb6b7283cd2bb82d50308e36db6d0335657",
            "0x00000000000000000000000000000c771f6176268d5a9846e0956c3ef58597a1"
          ],
          "data": "0x0000000000000000000000000000000000000000000000000000000000989643",
          "blockHash": "0x8a9379b02bc10de39eb0c79f17f87d197a569e935b09439ef4c31e05d7e04658",
          "blockNumber": "0x75811e",
          "transactionHash": "0x4226a236fca47114dbb60cdb87ab36d0737bbc7f07aeb43e7b9c7181e72688aa",
          "transactionIndex": "0x4b",
          "logIndex": "0x74",
          "removed": false
        }
      ],
      "logsBloom": "0x00000000000000000000000000000000000004000000000000000000000000200000000000000000000000000000000000000000000000000000000000000000000000000000000000000008800000000000001000000000000000020000000000000000040000000080000000000000000010000000000000000010000000000000000000000000800000040000000000000002000100000000000000000000000000000000000000000000000000000000000000004000000000000000000020000002000000000000000000000000000000000000000000000000000000000000000000000000000000000000000000001000000000000000000000000000",
      "type": "0x2",
      "transactionHash": "0x4226a236fca47114dbb60cdb87ab36d0737bbc7f07aeb43e7b9c7181e72688aa",
      "transactionIndex": "0x4b",
      "blockHash": "0x8a9379b02bc10de39eb0c79f17f87d197a569e935b09439ef4c31e05d7e04658",
      "blockNumber": "0x75811e",
      "gasUsed": "0x15136",
      "effectiveGasPrice": "0x417e99a7",
      "from": "0x00000c771f6176268d5a9846e0956c3ef58597a1",
      "to": "0x06b43d6eb4c8ec542b38ba9789b1ad62817a853c",
      "contractAddress": null
    },
    {
      "status": "0x1",
      "cumulativeGasUsed": "0xa6ae40",
      "logs": [
        {
          "address": "0x5107aaf0900af3e514bcdbaf94ddf4660d8cd0cb",
          "topics": [],
          "data": "0x5762bbdbb246811deef78cca9ffe5c64cb02f7110000000067ae3b3c00000000000000000000229670772ba96e48b290000000000d2cedb4",
          "blockHash": "0x0deeee019c8a932629d255f484a0ef0b715905e43069740bd9617b7394bb7746",
          "blockNumber": "0x75811f",
          "transactionHash": "0x4f6e4d55cfe2cf401a1008cc5fe4e571e5960c633c881c2598050dfded4f8dd5",
          "transactionIndex": "0x70",
          "logIndex": "0xb1",
          "removed": false
        },
        {
          "address": "0x928facb6b7283cd2bb82d50308e36db6d0335657",
          "topics": [],
          "data": "0x06b43d6eb4c8ec542b38ba9789b1ad62817a853c87af51d2c5fc8091da85e4de78cdd0f73248755dcf73eec9de539be1c493dd04ffffffffffffffffffffffffffb3b4be0000000000000000000000001dcd6500000000000000000001634572ad7ac440800000027ffff5cb84e0d625004644f4",
          "blockHash": "0x0deeee019c8a932629d255f484a0ef0b715905e43069740bd9617b7394bb7746",
          "blockNumber": "0x75811f",
          "transactionHash": "0x4f6e4d55cfe2cf401a1008cc5fe4e571e5960c633c881c2598050dfded4f8dd5",
          "transactionIndex": "0x70",
          "logIndex": "0xb2",
          "removed": false
        },
        {
          "address": "0x5762bbdbb246811deef78cca9ffe5c64cb02f711",
          "topics": [
            "0xddf252ad1be2c89b69c2b068fc378daa952ba7f163c4a11628f55a4df523b3ef",
            "0x00000000000000000000000000000c771f6176268d5a9846e0956c3ef58597a1",
            "0x000000000000000000000000928facb6b7283cd2bb82d50308e36db6d0335657"
          ],
          "data": "0x000000000000000000000000000000000000000000000000000000001dcd6500",
          "blockHash": "0x0deeee019c8a932629d255f484a0ef0b715905e43069740bd9617b7394bb7746",
          "blockNumber": "0x75811f",
          "transactionHash": "0x4f6e4d55cfe2cf401a1008cc5fe4e571e5960c633c881c2598050dfded4f8dd5",
          "transactionIndex": "0x70",
          "logIndex": "0xb3",
          "removed": false
        }
      ],
      "logsBloom": "0x00000000000000000000000000000000000004000000000000000000000000200000000000000000000000000000000000000000000000000000000000000000000000000000000000000008800000000000001000000000000000020000000000000000040000000080000000000000000010000000000000000010000000000000000000000000800000040000000000000002000100000000000000000000000000000000000000000000000000000000000000004000000000000000000020000002000000000000000000000000000000000000000000000000000000000000000000000000000000000000000000001000000000000000000000000000",
      "type": "0x2",
      "transactionHash": "0x4f6e4d55cfe2cf401a1008cc5fe4e571e5960c633c881c2598050dfded4f8dd5",
      "transactionIndex": "0x70",
      "blockHash": "0x0deeee019c8a932629d255f484a0ef0b715905e43069740bd9617b7394bb7746",
      "blockNumber": "0x75811f",
      "gasUsed": "0x16a97",
      "effectiveGasPrice": "0x41298e0b",
      "from": "0x00000c771f6176268d5a9846e0956c3ef58597a1",
      "to": "0x06b43d6eb4c8ec542b38ba9789b1ad62817a853c",
      "contractAddress": null
    },
    {
      "status": "0x1",
      "cumulativeGasUsed": "0xf17fd0",
      "logs": [
        {
          "address": "0x928facb6b7283cd2bb82d50308e36db6d0335657",
          "topics": [
            "0x5e4688b340694b7c7fd30047fd082117dc46e32acfbf81a44bb1fac0ae65154d"
          ],
          "data": "0x35b1efc0339c632222037a388b732698b7c31f8590ed0d2e37e09f51ead6b3f600000000000000000000000000000000000000000000000000000000000000000000000000000000000000005762bbdbb246811deef78cca9ffe5c64cb02f7110000000000000000000000000000000000000000028f5c28f5c28f5c00004d5a000000000000000000000000000000000000000000000000000000000081f64d000000000000000000000000000000000000000080000011ad7b7d57d2db6557",
          "blockHash": "0x9bb83d5e700ab4fa3670e137ba345d2f5b727d0f68fa5511097d7a5ecaeedf0d",
          "blockNumber": "0x758120",
          "transactionHash": "0x1b2dd2b71d70bbb3280dcb81d706af6c9228a7fa3b06b120e0ec3826fd9c0153",
          "transactionIndex": "0x77",
          "logIndex": "0xd0",
          "removed": false
        },
        {
          "address": "0x21fab96fad31f103a21bb27dfe52c4e1e5976c0d",
          "topics": [
            "0xddf252ad1be2c89b69c2b068fc378daa952ba7f163c4a11628f55a4df523b3ef",
            "0x0000000000000000000000000000000000000000000000000000000000000000",
            "0x00000000000000000000000000000c771f6176268d5a9846e0956c3ef58597a1",
            "0x00000000000000000000000000000000000000000000000000009c7179c02deb"
          ],
          "data": "0x",
          "blockHash": "0x9bb83d5e700ab4fa3670e137ba345d2f5b727d0f68fa5511097d7a5ecaeedf0d",
          "blockNumber": "0x758120",
          "transactionHash": "0x1b2dd2b71d70bbb3280dcb81d706af6c9228a7fa3b06b120e0ec3826fd9c0153",
          "transactionIndex": "0x77",
          "logIndex": "0xd1",
          "removed": false
        },
        {
          "address": "0x928facb6b7283cd2bb82d50308e36db6d0335657",
          "topics": [
            "0xa2d4008be4187c63684f323788e131e1370dbc2205499befe2834005a00c792c"
          ],
          "data": "0x00000000000000000000000021fab96fad31f103a21bb27dfe52c4e1e5976c0d35b1efc0339c632222037a388b732698b7c31f8590ed0d2e37e09f51ead6b3f600000000000000000000000000000000000000000000000000009c7179c02debfffffffffffffffffffffffffffffffffffffffffffffffffffffffffab65900000000000000000000000000000000000000000000000000000000000549a700000000000000000000000000000000000000000000000000004b5d4ab2d3fe94000000000000000000000000000000000000000000000000000110d9316ec00000000000000000000000000000000000000000000000000014d1117050e55e2f",
          "blockHash": "0x9bb83d5e700ab4fa3670e137ba345d2f5b727d0f68fa5511097d7a5ecaeedf0d",
          "blockNumber": "0x758120",
          "transactionHash": "0x1b2dd2b71d70bbb3280dcb81d706af6c9228a7fa3b06b120e0ec3826fd9c0153",
          "transactionIndex": "0x77",
          "logIndex": "0xd2",
          "removed": false
        },
        {
          "address": "0x5762bbdbb246811deef78cca9ffe5c64cb02f711",
          "topics": [
            "0xddf252ad1be2c89b69c2b068fc378daa952ba7f163c4a11628f55a4df523b3ef",
            "0x00000000000000000000000000000c771f6176268d5a9846e0956c3ef58597a1",
            "0x000000000000000000000000928facb6b7283cd2bb82d50308e36db6d0335657"
          ],
          "data": "0x00000000000000000000000000000000000000000000000014d1117050e55e2f",
          "blockHash": "0x9bb83d5e700ab4fa3670e137ba345d2f5b727d0f68fa5511097d7a5ecaeedf0d",
          "blockNumber": "0x758120",
          "transactionHash": "0x1b2dd2b71d70bbb3280dcb81d706af6c9228a7fa3b06b120e0ec3826fd9c0153",
          "transactionIndex": "0x77",
          "logIndex": "0xd3",
          "removed": false
        }
      ],
      "logsBloom": "0x00000000000100000000004000000000000004000100000000000000000000200000000000000000000000000000000000000000000000000000000000000000000000000000020000000008800000000000001000000000000000020000000020000000020000000080000000000800000010000000000000000010000000000000000000000000000000040008000000000002000100000000000000000000000000000000000000000000020000000000000000000000000000000400000020000002000000000000000000008000000000000000000000000000000020000000000000000000000000000000000000009000000020000000000000800000",
      "type": "0x2",
      "transactionHash": "0x1b2dd2b71d70bbb3280dcb81d706af6c9228a7fa3b06b120e0ec3826fd9c0153",
      "transactionIndex": "0x77",
      "blockHash": "0x9bb83d5e700ab4fa3670e137ba345d2f5b727d0f68fa5511097d7a5ecaeedf0d",
      "blockNumber": "0x758120",
      "gasUsed": "0x43c10",
      "effectiveGasPrice": "0x3e9d7f47",
      "from": "0x00000c771f6176268d5a9846e0956c3ef58597a1",
      "to": "0x21fab96fad31f103a21bb27dfe52c4e1e5976c0d",
      "contractAddress": null
    }
  ],
  "libraries": [],
  "pending": [],
  "returns": {},
  "timestamp": 1739471691,
  "chain": 11155111,
  "commit": "2840104"
}