{
  "transactions": [
    {
      "hash": "0x23043f737fb13198b17534414de9182a925242fa064cce96b611dfee83c09f3c",
      "transactionType": "CREATE",
      "contractName": "TestToken",
      "contractAddress": "0x0d8f11f1e248c771920b06d1a11507d89e247389",
      "function": null,
      "arguments": [
        "0x00000C771F6176268D5A9846E0956C3eF58597A1"
      ],
      "transaction": {
        "from": "0x00000c771f6176268d5a9846e0956c3ef58597a1",
        "gas": "0xbc67d",
        "value": "0x0",
        "input": "0x60803460ce57601f6109cc38819003918201601f19168301916001600160401b0383118484101760d25780849260209460405283398101031260ce57516001600160a01b038116810360ce576805345cdf77eb68f44c545f19810190811060c1576805345cdf77eb68f44c556387a211a2600c525f526020600c205f1981540190555f19602052600c5160601c5f7fddf252ad1be2c89b69c2b068fc378daa952ba7f163c4a11628f55a4df523b3ef602080a36040516108e590816100e78239f35b63e5cfe9575f526004601cfd5b5f80fd5b634e487b7160e01b5f52604160045260245ffdfe60806040526004361015610011575f80fd5b5f3560e01c806306fdde03146107cc578063095ea7b31461074357806318160ddd1461070057806323b872dd146105fb578063313ce567146105c25780633644e515146104f857806370a08231146104a85780637ecebe001461045857806395d89b41146103a1578063a9059cbb146102f4578063d505accf146100fd5763dd62ed3e1461009d575f80fd5b346100f95760407ffffffffffffffffffffffffffffffffffffffffffffffffffffffffffffffffc3601126100f9576100d461087b565b6100dc61089e565b602052637f5e9f20600c525f5260206034600c2054604051908152f35b5f80fd5b346100f95760e07ffffffffffffffffffffffffffffffffffffffffffffffffffffffffffffffffc3601126100f95761013461087b565b61013c61089e565b6084359160643560443560ff851685036100f9576101586108c1565b60208101907f54657374546f6b656e00000000000000000000000000000000000000000000008252519020908242116102e75773ffffffffffffffffffffffffffffffffffffffff80604051951695169565383775081901600e52855f5260c06020600c20958654957f8b73c3c69bb8fe3d512ecc4cf759cc79239f7b179b0ffacaa9a75d522b39400f8252602082019586528660408301967fc89efdaa54c0f20c7adf612882df0950f5a951637e0307cdcb4c672f298b8bc688528b6060850198468a528c608087019330855260a08820602e527f6e71edae12b1b97f4d1f60370fef10105fa2faae0126114a169c64845d6126c9885252528688525260a082015220604e526042602c205f5260ff1660205260a43560405260c43560605260208060805f60015afa93853d51036102da577f8c5be1e5ebec7d5bd14f71427d1e84f3dd0314c0f7b2291e5b200ac8c7c3b9259460209401905585777f5e9f200000000000000000000000000000000000000000176040526034602c2055a3005b63ddafbaef5f526004601cfd5b631a15a3cc5f526004601cfd5b346100f95760407ffffffffffffffffffffffffffffffffffffffffffffffffffffffffffffffffc3601126100f95761032b61087b565b602435906387a211a2600c52335f526020600c2080548084116103945783900390555f526020600c20818154019055602052600c5160601c337fddf252ad1be2c89b69c2b068fc378daa952ba7f163c4a11628f55a4df523b3ef602080a3602060405160018152f35b63f4d678b85f526004601cfd5b346100f9575f7ffffffffffffffffffffffffffffffffffffffffffffffffffffffffffffffffc3601126100f957604051604081019080821067ffffffffffffffff83111761042b5761042791604052600281527f5454000000000000000000000000000000000000000000000000000000000000602082015260405191829182610833565b0390f35b7f4e487b71000000000000000000000000000000000000000000000000000000005f52604160045260245ffd5b346100f95760207ffffffffffffffffffffffffffffffffffffffffffffffffffffffffffffffffc3601126100f95761048f61087b565b6338377508600c525f52602080600c2054604051908152f35b346100f95760207ffffffffffffffffffffffffffffffffffffffffffffffffffffffffffffffffc3601126100f9576104df61087b565b6387a211a2600c525f52602080600c2054604051908152f35b346100f9575f7ffffffffffffffffffffffffffffffffffffffffffffffffffffffffffffffffc3601126100f957602060a06105326108c1565b828101907f54657374546f6b656e00000000000000000000000000000000000000000000008252519020604051907f8b73c3c69bb8fe3d512ecc4cf759cc79239f7b179b0ffacaa9a75d522b39400f8252838201527fc89efdaa54c0f20c7adf612882df0950f5a951637e0307cdcb4c672f298b8bc6604082015246606082015230608082015220604051908152f35b346100f9575f7ffffffffffffffffffffffffffffffffffffffffffffffffffffffffffffffffc3601126100f957602060405160128152f35b346100f95760607ffffffffffffffffffffffffffffffffffffffffffffffffffffffffffffffffc3601126100f95761063261087b565b61063a61089e565b604435908260601b33602052637f5e9f208117600c526034600c209081549182196106dc575b506387a211a2915017600c526020600c2080548084116103945783900390555f526020600c2081815401905560205273ffffffffffffffffffffffffffffffffffffffff600c5160601c91167fddf252ad1be2c89b69c2b068fc378daa952ba7f163c4a11628f55a4df523b3ef602080a3602060405160018152f35b8285116106f357846387a211a29303905585610660565b6313be252b5f526004601cfd5b346100f9575f7ffffffffffffffffffffffffffffffffffffffffffffffffffffffffffffffffc3601126100f95760206805345cdf77eb68f44c54604051908152f35b346100f95760407ffffffffffffffffffffffffffffffffffffffffffffffffffffffffffffffffc3601126100f95761077a61087b565b60243590602052637f5e9f20600c52335f52806034600c20555f52602c5160601c337f8c5be1e5ebec7d5bd14f71427d1e84f3dd0314c0f7b2291e5b200ac8c7c3b92560205fa3602060405160018152f35b346100f9575f7ffffffffffffffffffffffffffffffffffffffffffffffffffffffffffffffffc3601126100f9576104276108056108c1565b7f54657374546f6b656e00000000000000000000000000000000000000000000006020820152604051918291825b7fffffffffffffffffffffffffffffffffffffffffffffffffffffffffffffffe0601f602060409481855280519182918282880152018686015e5f8582860101520116010190565b6004359073ffffffffffffffffffffffffffffffffffffffff821682036100f957565b6024359073ffffffffffffffffffffffffffffffffffffffff821682036100f957565b604051906040820182811067ffffffffffffffff82111761042b57604052600982525600000000000000000000000000000c771f6176268d5a9846e0956c3ef58597a1",
        "nonce": "0x281",
        "chainId": "0xaa36a7"
      },
      "additionalContracts": [],
      "isFixedGasLimit": false
    },
    {
      "hash": "0xb99e36057531a912b87674620599d9a05727dfc248cda4da97eba7074a29d7b3",
      "transactionType": "CALL",
      "contractName": "TestToken",
      "contractAddress": "0x0d8f11f1e248c771920b06d1a11507d89e247389",
      "function": "approve(address,uint256)",
      "arguments": [
        "0x3C41F10E4167833189E2735Eaa6E535b78C29968",
        "115792089237316195423570985008687907853269984665640564039457584007913129639935"
      ],
      "transaction": {
        "from": "0x00000c771f6176268d5a9846e0956c3ef58597a1",
        "to": "0x0d8f11f1e248c771920b06d1a11507d89e247389",
        "gas": "0xf8eb",
        "value": "0x0",
        "input": "0x095ea7b30000000000000000000000003c41f10e4167833189e2735eaa6e535b78c29968ffffffffffffffffffffffffffffffffffffffffffffffffffffffffffffffff",
        "nonce": "0x282",
        "chainId": "0xaa36a7"
      },
      "additionalContracts": [],
      "isFixedGasLimit": false
    },
    {
      "hash": "0x2b6b4e955246690c7b74fedeac979cc9c845ea3a40dcabec77eb183dfe0125b6",
      "transactionType": "CALL",
      "contractName": "TestToken",
      "contractAddress": "0x0d8f11f1e248c771920b06d1a11507d89e247389",
      "function": "approve(address,uint256)",
      "arguments": [
        "0xd2A7d896D33328cF7dF5BeFFe3A2Af935D9ab5e4",
        "115792089237316195423570985008687907853269984665640564039457584007913129639935"
      ],
      "transaction": {
        "from": "0x00000c771f6176268d5a9846e0956c3ef58597a1",
        "to": "0x0d8f11f1e248c771920b06d1a11507d89e247389",
        "gas": "0xf8eb",
        "value": "0x0",
        "input": "0x095ea7b3000000000000000000000000d2a7d896d33328cf7df5beffe3a2af935d9ab5e4ffffffffffffffffffffffffffffffffffffffffffffffffffffffffffffffff",
        "nonce": "0x283",
        "chainId": "0xaa36a7"
      },
      "additionalContracts": [],
      "isFixedGasLimit": false
    },
    {
      "hash": "0xcf15d0b710b3605e0f5512e0ffbb79a7082e343eff56814b555f0864ae917356",
      "transactionType": "CALL",
      "contractName": null,
      "contractAddress": "0xd2a7d896d33328cf7df5beffe3a2af935d9ab5e4",
      "function": "multicall(bytes[])",
      "arguments": [
        "[0x3bb838a800000000000000000000000000000000000000000000000000000000000000000000000000000000000000000d8f11f1e248c771920b06d1a11507d89e2473890000000000000000000000000000000000c49ba5e353f7ced916872b020c49ba000000000000000000000000000000000000000000000000000000000000175e0000000000000000000000000000000000000000000000000000000000000000000000000000000000000000000000000000000000000000000000000081f64d, 0xcda20b50a192685fff972d56d88e02c5bd9b39a274f7ef80b869f3d1fa74b02fbc1be31000000000000000000000000000000000000000000000000000000000000000000000000000000000000000000d8f11f1e248c771920b06d1a11507d89e2473890000000000000000000000000000000000c49ba5e353f7ced916872b020c49ba000000000000000000000000000000000000000000000000000000000000175e0000000000000000000000000000000000000000000000000000000000000000fffffffffffffffffffffffffffffffffffffffffffffffffffffffffab6413e000000000000000000000000000000000000000000000000000000000549bec2000000000000000000000000000000000000000000000000002386f26fc10000000000000000000000000000000000000000000000000002b5e3af16b18800000000000000000000000000000000000000000000000000000000000000000000, 0x41865270]"
      ],
      "transaction": {
        "from": "0x00000c771f6176268d5a9846e0956c3ef58597a1",
        "to": "0xd2a7d896d33328cf7df5beffe3a2af935d9ab5e4",
        "gas": "0x6a035",
        "value": "0x2386f26fc10000",
        "input": "0xac9650d80000000000000000000000000000000000000000000000000000000000000020000000000000000000000000000000000000000000000000000000000000000300000000000000000000000000000000000000000000000000000000000000600000000000000000000000000000000000000000000000000000000000000160000000000000000000000000000000000000000000000000000000000000030000000000000000000000000000000000000000000000000000000000000000c43bb838a800000000000000000000000000000000000000000000000000000000000000000000000000000000000000000d8f11f1e248c771920b06d1a11507d89e2473890000000000000000000000000000000000c49ba5e353f7ced916872b020c49ba000000000000000000000000000000000000000000000000000000000000175e0000000000000000000000000000000000000000000000000000000000000000000000000000000000000000000000000000000000000000000000000081f64d000000000000000000000000000000000000000000000000000000000000000000000000000000000000000000000000000000000000000000000164cda20b50a192685fff972d56d88e02c5bd9b39a274f7ef80b869f3d1fa74b02fbc1be31000000000000000000000000000000000000000000000000000000000000000000000000000000000000000000d8f11f1e248c771920b06d1a11507d89e2473890000000000000000000000000000000000c49ba5e353f7ced916872b020c49ba000000000000000000000000000000000000000000000000000000000000175e0000000000000000000000000000000000000000000000000000000000000000fffffffffffffffffffffffffffffffffffffffffffffffffffffffffab6413e000000000000000000000000000000000000000000000000000000000549bec2000000000000000000000000000000000000000000000000002386f26fc10000000000000000000000000000000000000000000000000002b5e3af16b188000000000000000000000000000000000000000000000000000000000000000000000000000000000000000000000000000000000000000000000000000000000000000000000000000000000000000000000000000000000000000000044186527000000000000000000000000000000000000000000000000000000000",
        "nonce": "0x284",
        "chainId": "0xaa36a7"
      },
      "additionalContracts": [],
      "isFixedGasLimit": false
    },
    {
      "hash": "0x40db0b499d091d5b9eba3015e88f4e96b638fce3bd2c06397ce0674dbf52433d",
      "transactionType": "CALL",
      "contractName": null,
      "contractAddress": "0x3c41f10e4167833189e2735eaa6e535b78c29968",
      "function": "swap((address,address,uint128,uint32,address),bool,int128,uint96,uint256)",
      "arguments": [
        "(0x0000000000000000000000000000000000000000, 0x0d8F11F1e248C771920b06D1a11507d89E247389, 1020847100762815390390123822295304634, 5982, 0x0000000000000000000000000000000000000000)",
        "false",
        "100000",
        "0",
        "0"
      ],
      "transaction": {
        "from": "0x00000c771f6176268d5a9846e0956c3ef58597a1",
        "to": "0x3c41f10e4167833189e2735eaa6e535b78c29968",
        "gas": "0x21858",
        "value": "0x186a0",
        "input": "0xf9afbd8000000000000000000000000000000000000000000000000000000000000000000000000000000000000000000d8f11f1e248c771920b06d1a11507d89e2473890000000000000000000000000000000000c49ba5e353f7ced916872b020c49ba000000000000000000000000000000000000000000000000000000000000175e0000000000000000000000000000000000000000000000000000000000000000000000000000000000000000000000000000000000000000000000000000000000000000000000000000000000000000000000000000000000000000000186a000000000000000000000000000000000000000000000000000000000000000000000000000000000000000000000000000000000000000000000000000000000",
        "nonce": "0x285",
        "chainId": "0xaa36a7"
      },
      "additionalContracts": [],
      "isFixedGasLimit": false
    },
    {
      "hash": "0x3a1ca0e4b256940aab2d88b9b45cbdfe77fe63d027dd4dffc98fc14f1744f35d",
      "transactionType": "CALL",
      "contractName": null,
      "contractAddress": "0x3c41f10e4167833189e2735eaa6e535b78c29968",
      "function": "swap((address,address,uint128,uint32,address),bool,int128,uint96,uint256)",
      "arguments": [
        "(0x0000000000000000000000000000000000000000, 0x0d8F11F1e248C771920b06D1a11507d89E247389, 1020847100762815390390123822295304634, 5982, 0x0000000000000000000000000000000000000000)",
        "true",
        "500000000",
        "0",
        "0"
      ],
      "transaction": {
        "from": "0x00000c771f6176268d5a9846e0956c3ef58597a1",
        "to": "0x3c41f10e4167833189e2735eaa6e535b78c29968",
        "gas": "0x23b78",
        "value": "0x0",
        "input": "0xf9afbd8000000000000000000000000000000000000000000000000000000000000000000000000000000000000000000d8f11f1e248c771920b06d1a11507d89e2473890000000000000000000000000000000000c49ba5e353f7ced916872b020c49ba000000000000000000000000000000000000000000000000000000000000175e00000000000000000000000000000000000000000000000000000000000000000000000000000000000000000000000000000000000000000000000000000001000000000000000000000000000000000000000000000000000000001dcd650000000000000000000000000000000000000000000000000000000000000000000000000000000000000000000000000000000000000000000000000000000000",
        "nonce": "0x286",
        "chainId": "0xaa36a7"
      },
      "additionalContracts": [],
      "isFixedGasLimit": false
    },
    {
      "hash": "0x8f86777bf0a800b0c64369264bd61e21937c759087eabf30af0aff321b8d14f7",
      "transactionType": "CALL",
      "contractName": null,
      "contractAddress": "0x3c41f10e4167833189e2735eaa6e535b78c29968",
      "function": "swap((address,address,uint128,uint32,address),bool,int128,uint96,uint256)",
      "arguments": [
        "(0x0000000000000000000000000000000000000000, 0x0d8F11F1e248C771920b06D1a11507d89E247389, 1020847100762815390390123822295304634, 5982, 0x0000000000000000000000000000000000000000)",
        "false",
        "100000",
        "0",
        "0"
      ],
      "transaction": {
        "from": "0x00000c771f6176268d5a9846e0956c3ef58597a1",
        "to": "0x3c41f10e4167833189e2735eaa6e535b78c29968",
        "gas": "0x1d635",
        "value": "0x186a0",
        "input": "0xf9afbd8000000000000000000000000000000000000000000000000000000000000000000000000000000000000000000d8f11f1e248c771920b06d1a11507d89e2473890000000000000000000000000000000000c49ba5e353f7ced916872b020c49ba000000000000000000000000000000000000000000000000000000000000175e0000000000000000000000000000000000000000000000000000000000000000000000000000000000000000000000000000000000000000000000000000000000000000000000000000000000000000000000000000000000000000000186a000000000000000000000000000000000000000000000000000000000000000000000000000000000000000000000000000000000000000000000000000000000",
        "nonce": "0x287",
        "chainId": "0xaa36a7"
      },
      "additionalContracts": [],
      "isFixedGasLimit": false
    },
    {
      "hash": "0x477bfd3dcd1f775b33904d288a4cedc9dbbf700cf510527f0593bf7e85935900",
      "transactionType": "CALL",
      "contractName": null,
      "contractAddress": "0x3c41f10e4167833189e2735eaa6e535b78c29968",
      "function": "swap((address,address,uint128,uint32,address),bool,int128,uint96,uint256)",
      "arguments": [
        "(0x0000000000000000000000000000000000000000, 0x0d8F11F1e248C771920b06D1a11507d89E247389, 1020847100762815390390123822295304634, 5982, 0x0000000000000000000000000000000000000000)",
        "true",
        "500000000",
        "0",
        "0"
      ],
      "transaction": {
        "from": "0x00000c771f6176268d5a9846e0956c3ef58597a1",
        "to": "0x3c41f10e4167833189e2735eaa6e535b78c29968",
        "gas": "0x1fb66",
        "value": "0x0",
        "input": "0xf9afbd8000000000000000000000000000000000000000000000000000000000000000000000000000000000000000000d8f11f1e248c771920b06d1a11507d89e2473890000000000000000000000000000000000c49ba5e353f7ced916872b020c49ba000000000000000000000000000000000000000000000000000000000000175e00000000000000000000000000000000000000000000000000000000000000000000000000000000000000000000000000000000000000000000000000000001000000000000000000000000000000000000000000000000000000001dcd650000000000000000000000000000000000000000000000000000000000000000000000000000000000000000000000000000000000000000000000000000000000",
        "nonce": "0x288",
        "chainId": "0xaa36a7"
      },
      "additionalContracts": [],
      "isFixedGasLimit": false
    },
    {
      "hash": "0xe22a7e1bc7a3071b5d1eea6c73175d652fdb0b6ef1466bb9cef136a643ec0663",
      "transactionType": "CALL",
      "contractName": null,
      "contractAddress": "0xd2a7d896d33328cf7df5beffe3a2af935d9ab5e4",
      "function": "multicall(bytes[])",
      "arguments": [
        "[0x3bb838a800000000000000000000000000000000000000000000000000000000000000000000000000000000000000000d8f11f1e248c771920b06d1a11507d89e2473890000000000000000000000000000000000c49ba5e353f7ced916872b020c49ba00000000000000000000000000000000000000000000000000000000000000000000000000000000000000000000000000000000000000000000000000000000000000000000000000000000000000000000000000000000000000000081f64d, 0xcda20b50a192685fff972d56d88e02c5bd9b39a274f7ef80b869f3d1fa74b02fbc1be31100000000000000000000000000000000000000000000000000000000000000000000000000000000000000000d8f11f1e248c771920b06d1a11507d89e2473890000000000000000000000000000000000c49ba5e353f7ced916872b020c49ba00000000000000000000000000000000000000000000000000000000000000000000000000000000000000000000000000000000000000000000000000000000fffffffffffffffffffffffffffffffffffffffffffffffffffffffffab6326d000000000000000000000000000000000000000000000000000000000549cd93000000000000000000000000000000000000000000000000002386f26fc10000000000000000000000000000000000000000000000000002b5e3af16b18800000000000000000000000000000000000000000000000000000000000000000000, 0x41865270]"
      ],
      "transaction": {
        "from": "0x00000c771f6176268d5a9846e0956c3ef58597a1",
        "to": "0xd2a7d896d33328cf7df5beffe3a2af935d9ab5e4",
        "gas": "0x40377",
        "value": "0x2386f26fc10000",
        "input": "0xac9650d80000000000000000000000000000000000000000000000000000000000000020000000000000000000000000000000000000000000000000000000000000000300000000000000000000000000000000000000000000000000000000000000600000000000000000000000000000000000000000000000000000000000000160000000000000000000000000000000000000000000000000000000000000030000000000000000000000000000000000000000000000000000000000000000c43bb838a800000000000000000000000000000000000000000000000000000000000000000000000000000000000000000d8f11f1e248c771920b06d1a11507d89e2473890000000000000000000000000000000000c49ba5e353f7ced916872b020c49ba00000000000000000000000000000000000000000000000000000000000000000000000000000000000000000000000000000000000000000000000000000000000000000000000000000000000000000000000000000000000000000081f64d000000000000000000000000000000000000000000000000000000000000000000000000000000000000000000000000000000000000000000000164cda20b50a192685fff972d56d88e02c5bd9b39a274f7ef80b869f3d1fa74b02fbc1be31100000000000000000000000000000000000000000000000000000000000000000000000000000000000000000d8f11f1e248c771920b06d1a11507d89e2473890000000000000000000000000000000000c49ba5e353f7ced916872b020c49ba00000000000000000000000000000000000000000000000000000000000000000000000000000000000000000000000000000000000000000000000000000000fffffffffffffffffffffffffffffffffffffffffffffffffffffffffab6326d000000000000000000000000000000000000000000000000000000000549cd93000000000000000000000000000000000000000000000000002386f26fc10000000000000000000000000000000000000000000000000002b5e3af16b188000000000000000000000000000000000000000000000000000000000000000000000000000000000000000000000000000000000000000000000000000000000000000000000000000000000000000000000000000000000000000000044186527000000000000000000000000000000000000000000000000000000000",
        "nonce": "0x289",
        "chainId": "0xaa36a7"
      },
      "additionalContracts": [],
      "isFixedGasLimit": false
    },
    {
      "hash": "0x4656cfcb3a1fbc1fa451d4c9fc5859929c25ef2c97327f9e82488f56badfd47d",
      "transactionType": "CALL",
      "contractName": null,
      "contractAddress": "0x3c41f10e4167833189e2735eaa6e535b78c29968",
      "function": "swap((address,address,uint128,uint32,address),bool,int128,uint96,uint256)",
      "arguments": [
        "(0x0000000000000000000000000000000000000000, 0x0d8F11F1e248C771920b06D1a11507d89E247389, 1020847100762815390390123822295304634, 0, 0x0000000000000000000000000000000000000000)",
        "false",
        "100000",
        "0",
        "0"
      ],
      "transaction": {
        "from": "0x00000c771f6176268d5a9846e0956c3ef58597a1",
        "to": "0x3c41f10e4167833189e2735eaa6e535b78c29968",
        "gas": "0x22206",
        "value": "0x186a0",
        "input": "0xf9afbd8000000000000000000000000000000000000000000000000000000000000000000000000000000000000000000d8f11f1e248c771920b06d1a11507d89e2473890000000000000000000000000000000000c49ba5e353f7ced916872b020c49ba00000000000000000000000000000000000000000000000000000000000000000000000000000000000000000000000000000000000000000000000000000000000000000000000000000000000000000000000000000000000000000000000000000000000000000000000000000000000000000000000000000000000186a000000000000000000000000000000000000000000000000000000000000000000000000000000000000000000000000000000000000000000000000000000000",
        "nonce": "0x28a",
        "chainId": "0xaa36a7"
      },
      "additionalContracts": [],
      "isFixedGasLimit": false
    },
    {
      "hash": "0xb720af32256c246f46ebe02e90ae79d2f2f3b1f3c663351b22f95c0569899f53",
      "transactionType": "CALL",
      "contractName": null,
      "contractAddress": "0x3c41f10e4167833189e2735eaa6e535b78c29968",
      "function": "swap((address,address,uint128,uint32,address),bool,int128,uint96,uint256)",
      "arguments": [
        "(0x0000000000000000000000000000000000000000, 0x0d8F11F1e248C771920b06D1a11507d89E247389, 1020847100762815390390123822295304634, 0, 0x0000000000000000000000000000000000000000)",
        "true",
        "500000000",
        "0",
        "0"
      ],
      "transaction": {
        "from": "0x00000c771f6176268d5a9846e0956c3ef58597a1",
        "to": "0x3c41f10e4167833189e2735eaa6e535b78c29968",
        "gas": "0x226eb",
        "value": "0x0",
        "input": "0xf9afbd8000000000000000000000000000000000000000000000000000000000000000000000000000000000000000000d8f11f1e248c771920b06d1a11507d89e2473890000000000000000000000000000000000c49ba5e353f7ced916872b020c49ba000000000000000000000000000000000000000000000000000000000000000000000000000000000000000000000000000000000000000000000000000000000000000000000000000000000000000000000000000000000000000000000001000000000000000000000000000000000000000000000000000000001dcd650000000000000000000000000000000000000000000000000000000000000000000000000000000000000000000000000000000000000000000000000000000000",
        "nonce": "0x28b",
        "chainId": "0xaa36a7"
      },
      "additionalContracts": [],
      "isFixedGasLimit": false
    },
    {
      "hash": "0xfb635501dce2d39fc04093109e38c265d8bb0245fbf33407a85bdeb94c5afaed",
      "transactionType": "CALL",
      "contractName": null,
      "contractAddress": "0x3c41f10e4167833189e2735eaa6e535b78c29968",
      "function": "swap((address,address,uint128,uint32,address),bool,int128,uint96,uint256)",
      "arguments": [
        "(0x0000000000000000000000000000000000000000, 0x0d8F11F1e248C771920b06D1a11507d89E247389, 1020847100762815390390123822295304634, 0, 0x0000000000000000000000000000000000000000)",
        "false",
        "100000",
        "0",
        "0"
      ],
      "transaction": {
        "from": "0x00000c771f6176268d5a9846e0956c3ef58597a1",
        "to": "0x3c41f10e4167833189e2735eaa6e535b78c29968",
        "gas": "0x1a76c",
        "value": "0x186a0",
        "input": "0xf9afbd8000000000000000000000000000000000000000000000000000000000000000000000000000000000000000000d8f11f1e248c771920b06d1a11507d89e2473890000000000000000000000000000000000c49ba5e353f7ced916872b020c49ba00000000000000000000000000000000000000000000000000000000000000000000000000000000000000000000000000000000000000000000000000000000000000000000000000000000000000000000000000000000000000000000000000000000000000000000000000000000000000000000000000000000000186a000000000000000000000000000000000000000000000000000000000000000000000000000000000000000000000000000000000000000000000000000000000",
        "nonce": "0x28c",
        "chainId": "0xaa36a7"
      },
      "additionalContracts": [],
      "isFixedGasLimit": false
    },
    {
      "hash": "0x564c9a3baf09256bd61d7ab1ac581deb8b7e8b131318b909d5a4b14e5aff0e68",
      "transactionType": "CALL",
      "contractName": null,
      "contractAddress": "0x3c41f10e4167833189e2735eaa6e535b78c29968",
      "function": "swap((address,address,uint128,uint32,address),bool,int128,uint96,uint256)",
      "arguments": [
        "(0x0000000000000000000000000000000000000000, 0x0d8F11F1e248C771920b06D1a11507d89E247389, 1020847100762815390390123822295304634, 0, 0x0000000000000000000000000000000000000000)",
        "true",
        "500000000",
        "0",
        "0"
      ],
      "transaction": {
        "from": "0x00000c771f6176268d5a9846e0956c3ef58597a1",
        "to": "0x3c41f10e4167833189e2735eaa6e535b78c29968",
        "gas": "0x1caa9",
        "value": "0x0",
        "input": "0xf9afbd8000000000000000000000000000000000000000000000000000000000000000000000000000000000000000000d8f11f1e248c771920b06d1a11507d89e2473890000000000000000000000000000000000c49ba5e353f7ced916872b020c49ba000000000000000000000000000000000000000000000000000000000000000000000000000000000000000000000000000000000000000000000000000000000000000000000000000000000000000000000000000000000000000000000001000000000000000000000000000000000000000000000000000000001dcd650000000000000000000000000000000000000000000000000000000000000000000000000000000000000000000000000000000000000000000000000000000000",
        "nonce": "0x28d",
        "chainId": "0xaa36a7"
      },
      "additionalContracts": [],
      "isFixedGasLimit": false
    },
    {
      "hash": "0x3c455cb77e849858d21e82efaea2cc509ccfe0ccf06dd2aa8a8ca2fdfa847132",
      "transactionType": "CALL",
      "contractName": null,
      "contractAddress": "0xd2a7d896d33328cf7df5beffe3a2af935d9ab5e4",
      "function": "multicall(bytes[])",
      "arguments": [
        "[0x3bb838a800000000000000000000000000000000000000000000000000000000000000000000000000000000000000000d8f11f1e248c771920b06d1a11507d89e24738900000000000000000000000000000000000000000000000000000000000000000000000000000000000000000000000000000000000000000000000000000000000000000000000000000000512fff02f2cfd03e2c0cdc20003cb519451689a100000000000000000000000000000000000000000000000000000000004644f4, 0xcda20b50a192685fff972d56d88e02c5bd9b39a274f7ef80b869f3d1fa74b02fbc1be31200000000000000000000000000000000000000000000000000000000000000000000000000000000000000000d8f11f1e248c771920b06d1a11507d89e24738900000000000000000000000000000000000000000000000000000000000000000000000000000000000000000000000000000000000000000000000000000000000000000000000000000000512fff02f2cfd03e2c0cdc20003cb519451689a1fffffffffffffffffffffffffffffffffffffffffffffffffffffffffab6326d000000000000000000000000000000000000000000000000000000000549cd930000000000000000000000000000000000000000000000000de0b6b3a76400000000000000000000000000000000000000000000000000056bc75e2d631000000000000000000000000000000000000000000000000000000000000000000000, 0x41865270]"
      ],
      "transaction": {
        "from": "0x00000c771f6176268d5a9846e0956c3ef58597a1",
        "to": "0xd2a7d896d33328cf7df5beffe3a2af935d9ab5e4",
        "gas": "0x53e8a",
        "value": "0xde0b6b3a7640000",
        "input": "0xac9650d80000000000000000000000000000000000000000000000000000000000000020000000000000000000000000000000000000000000000000000000000000000300000000000000000000000000000000000000000000000000000000000000600000000000000000000000000000000000000000000000000000000000000160000000000000000000000000000000000000000000000000000000000000030000000000000000000000000000000000000000000000000000000000000000c43bb838a800000000000000000000000000000000000000000000000000000000000000000000000000000000000000000d8f11f1e248c771920b06d1a11507d89e24738900000000000000000000000000000000000000000000000000000000000000000000000000000000000000000000000000000000000000000000000000000000000000000000000000000000512fff02f2cfd03e2c0cdc20003cb519451689a100000000000000000000000000000000000000000000000000000000004644f4000000000000000000000000000000000000000000000000000000000000000000000000000000000000000000000000000000000000000000000164cda20b50a192685fff972d56d88e02c5bd9b39a274f7ef80b869f3d1fa74b02fbc1be31200000000000000000000000000000000000000000000000000000000000000000000000000000000000000000d8f11f1e248c771920b06d1a11507d89e24738900000000000000000000000000000000000000000000000000000000000000000000000000000000000000000000000000000000000000000000000000000000000000000000000000000000512fff02f2cfd03e2c0cdc20003cb519451689a1fffffffffffffffffffffffffffffffffffffffffffffffffffffffffab6326d000000000000000000000000000000000000000000000000000000000549cd930000000000000000000000000000000000000000000000000de0b6b3a76400000000000000000000000000000000000000000000000000056bc75e2d6310000000000000000000000000000000000000000000000000000000000000000000000000000000000000000000000000000000000000000000000000000000000000000000000000000000000000000000000000000000000000000000044186527000000000000000000000000000000000000000000000000000000000",
        "nonce": "0x28e",
        "chainId": "0xaa36a7"
      },
      "additionalContracts": [],
      "isFixedGasLimit": false
    },
    {
      "hash": "0x8af2107ae7ed36e2163b3f30f3c963e8863f0c2be2411d90a659f1a685ab4bf0",
      "transactionType": "CALL",
      "contractName": null,
      "contractAddress": "0x3c41f10e4167833189e2735eaa6e535b78c29968",
      "function": "swap((address,address,uint128,uint32,address),bool,int128,uint96,uint256)",
      "arguments": [
        "(0x0000000000000000000000000000000000000000, 0x0d8F11F1e248C771920b06D1a11507d89E247389, 0, 0, 0x512FfF02f2CfD03e2c0cdc20003Cb519451689a1)",
        "false",
        "100000",
        "0",
        "0"
      ],
      "transaction": {
        "from": "0x00000c771f6176268d5a9846e0956c3ef58597a1",
        "to": "0x3c41f10e4167833189e2735eaa6e535b78c29968",
        "gas": "0x1cbe3",
        "value": "0x186a0",
        "input": "0xf9afbd8000000000000000000000000000000000000000000000000000000000000000000000000000000000000000000d8f11f1e248c771920b06d1a11507d89e24738900000000000000000000000000000000000000000000000000000000000000000000000000000000000000000000000000000000000000000000000000000000000000000000000000000000512fff02f2cfd03e2c0cdc20003cb519451689a1000000000000000000000000000000000000000000000000000000000000000000000000000000000000000000000000000000000000000000000000000186a000000000000000000000000000000000000000000000000000000000000000000000000000000000000000000000000000000000000000000000000000000000",
        "nonce": "0x28f",
        "chainId": "0xaa36a7"
      },
      "additionalContracts": [],
      "isFixedGasLimit": false
    },
    {
      "hash": "0xae568afd437628cd09c7652e390144b780752b0c7ed3363a6538a80802262cdd",
      "transactionType": "CALL",
      "contractName": null,
      "contractAddress": "0x3c41f10e4167833189e2735eaa6e535b78c29968",
      "function": "swap((address,address,uint128,uint32,address),bool,int128,uint96,uint256)",
      "arguments": [
        "(0x0000000000000000000000000000000000000000, 0x0d8F11F1e248C771920b06D1a11507d89E247389, 0, 0, 0x512FfF02f2CfD03e2c0cdc20003Cb519451689a1)",
        "true",
        "500000000",
        "0",
        "0"
      ],
      "transaction": {
        "from": "0x00000c771f6176268d5a9846e0956c3ef58597a1",
        "to": "0x3c41f10e4167833189e2735eaa6e535b78c29968",
        "gas": "0x1ef1f",
        "value": "0x0",
        "input": "0xf9afbd8000000000000000000000000000000000000000000000000000000000000000000000000000000000000000000d8f11f1e248c771920b06d1a11507d89e24738900000000000000000000000000000000000000000000000000000000000000000000000000000000000000000000000000000000000000000000000000000000000000000000000000000000512fff02f2cfd03e2c0cdc20003cb519451689a10000000000000000000000000000000000000000000000000000000000000001000000000000000000000000000000000000000000000000000000001dcd650000000000000000000000000000000000000000000000000000000000000000000000000000000000000000000000000000000000000000000000000000000000",
        "nonce": "0x290",
        "chainId": "0xaa36a7"
      },
      "additionalContracts": [],
      "isFixedGasLimit": false
    },
    {
      "hash": "0xe9670cc3ed2e6277377ff07141a84784e50c05c061d3c7be669590384ac97d3d",
      "transactionType": "CALL",
      "contractName": null,
      "contractAddress": "0x3c41f10e4167833189e2735eaa6e535b78c29968",
      "function": "swap((address,address,uint128,uint32,address),bool,int128,uint96,uint256)",
      "arguments": [
        "(0x0000000000000000000000000000000000000000, 0x0d8F11F1e248C771920b06D1a11507d89E247389, 0, 0, 0x512FfF02f2CfD03e2c0cdc20003Cb519451689a1)",
        "false",
        "100000",
        "0",
        "0"
      ],
      "transaction": {
        "from": "0x00000c771f6176268d5a9846e0956c3ef58597a1",
        "to": "0x3c41f10e4167833189e2735eaa6e535b78c29968",
        "gas": "0x1cbe9",
        "value": "0x186a0",
        "input": "0xf9afbd8000000000000000000000000000000000000000000000000000000000000000000000000000000000000000000d8f11f1e248c771920b06d1a11507d89e24738900000000000000000000000000000000000000000000000000000000000000000000000000000000000000000000000000000000000000000000000000000000000000000000000000000000512fff02f2cfd03e2c0cdc20003cb519451689a1000000000000000000000000000000000000000000000000000000000000000000000000000000000000000000000000000000000000000000000000000186a000000000000000000000000000000000000000000000000000000000000000000000000000000000000000000000000000000000000000000000000000000000",
        "nonce": "0x291",
        "chainId": "0xaa36a7"
      },
      "additionalContracts": [],
      "isFixedGasLimit": false
    },
    {
      "hash": "0xb37ab7a93eb025e72c8b27f97e394a1d58186312bd5016dd4f74094c51eadf8a",
      "transactionType": "CALL",
      "contractName": null,
      "contractAddress": "0x3c41f10e4167833189e2735eaa6e535b78c29968",
      "function": "swap((address,address,uint128,uint32,address),bool,int128,uint96,uint256)",
      "arguments": [
        "(0x0000000000000000000000000000000000000000, 0x0d8F11F1e248C771920b06D1a11507d89E247389, 0, 0, 0x512FfF02f2CfD03e2c0cdc20003Cb519451689a1)",
        "true",
        "500000000",
        "0",
        "0"
      ],
      "transaction": {
        "from": "0x00000c771f6176268d5a9846e0956c3ef58597a1",
        "to": "0x3c41f10e4167833189e2735eaa6e535b78c29968",
        "gas": "0x1ef1f",
        "value": "0x0",
        "input": "0xf9afbd8000000000000000000000000000000000000000000000000000000000000000000000000000000000000000000d8f11f1e248c771920b06d1a11507d89e24738900000000000000000000000000000000000000000000000000000000000000000000000000000000000000000000000000000000000000000000000000000000000000000000000000000000512fff02f2cfd03e2c0cdc20003cb519451689a10000000000000000000000000000000000000000000000000000000000000001000000000000000000000000000000000000000000000000000000001dcd650000000000000000000000000000000000000000000000000000000000000000000000000000000000000000000000000000000000000000000000000000000000",
        "nonce": "0x292",
        "chainId": "0xaa36a7"
      },
      "additionalContracts": [],
      "isFixedGasLimit": false
    },
    {
      "hash": "0x14ca9ba2e5ad5544512763df3540df7b2ac583a43f8a67669a164c7fcc8e35ad",
      "transactionType": "CALL",
      "contractName": null,
      "contractAddress": "0xd2a7d896d33328cf7df5beffe3a2af935d9ab5e4",
      "function": "multicall(bytes[])",
      "arguments": [
        "[0x3bb838a800000000000000000000000000000000000000000000000000000000000000000000000000000000000000000d8f11f1e248c771920b06d1a11507d89e24738900000000000000000000000000000000028f5c28f5c28f5c28f5c28f5c28f5c20000000000000000000000000000000000000000000000000000000000004d5a0000000000000000000000000000000000000000000000000000000000000000000000000000000000000000000000000000000000000000000000000081f64d, 0xcda20b50a192685fff972d56d88e02c5bd9b39a274f7ef80b869f3d1fa74b02fbc1be31300000000000000000000000000000000000000000000000000000000000000000000000000000000000000000d8f11f1e248c771920b06d1a11507d89e24738900000000000000000000000000000000028f5c28f5c28f5c28f5c28f5c28f5c20000000000000000000000000000000000000000000000000000000000004d5a0000000000000000000000000000000000000000000000000000000000000000fffffffffffffffffffffffffffffffffffffffffffffffffffffffffab65900000000000000000000000000000000000000000000000000000000000549a700000000000000000000000000000000000000000000000000006a94d74f43000000000000000000000000000000000000000000000000001043561a88293000000000000000000000000000000000000000000000000000000000000000000000, 0x41865270]"
      ],
      "transaction": {
        "from": "0x00000c771f6176268d5a9846e0956c3ef58597a1",
        "to": "0xd2a7d896d33328cf7df5beffe3a2af935d9ab5e4",
        "gas": "0x5e4eb",
        "value": "0x6a94d74f430000",
        "input": "0xac9650d80000000000000000000000000000000000000000000000000000000000000020000000000000000000000000000000000000000000000000000000000000000300000000000000000000000000000000000000000000000000000000000000600000000000000000000000000000000000000000000000000000000000000160000000000000000000000000000000000000000000000000000000000000030000000000000000000000000000000000000000000000000000000000000000c43bb838a800000000000000000000000000000000000000000000000000000000000000000000000000000000000000000d8f11f1e248c771920b06d1a11507d89e24738900000000000000000000000000000000028f5c28f5c28f5c28f5c28f5c28f5c20000000000000000000000000000000000000000000000000000000000004d5a0000000000000000000000000000000000000000000000000000000000000000000000000000000000000000000000000000000000000000000000000081f64d000000000000000000000000000000000000000000000000000000000000000000000000000000000000000000000000000000000000000000000164cda20b50a192685fff972d56d88e02c5bd9b39a274f7ef80b869f3d1fa74b02fbc1be31300000000000000000000000000000000000000000000000000000000000000000000000000000000000000000d8f11f1e248c771920b06d1a11507d89e24738900000000000000000000000000000000028f5c28f5c28f5c28f5c28f5c28f5c20000000000000000000000000000000000000000000000000000000000004d5a0000000000000000000000000000000000000000000000000000000000000000fffffffffffffffffffffffffffffffffffffffffffffffffffffffffab65900000000000000000000000000000000000000000000000000000000000549a700000000000000000000000000000000000000000000000000006a94d74f43000000000000000000000000000000000000000000000000001043561a882930000000000000000000000000000000000000000000000000000000000000000000000000000000000000000000000000000000000000000000000000000000000000000000000000000000000000000000000000000000000000000000044186527000000000000000000000000000000000000000000000000000000000",
        "nonce": "0x293",
        "chainId": "0xaa36a7"
      },
      "additionalContracts": [],
      "isFixedGasLimit": false
    }
  ],
  "receipts": [
    {
      "status": "0x1",
      "cumulativeGasUsed": "0xe30e9d",
      "logs": [
        {
          "address": "0x0d8f11f1e248c771920b06d1a11507d89e247389",
          "topics": [
            "0xddf252ad1be2c89b69c2b068fc378daa952ba7f163c4a11628f55a4df523b3ef",
            "0x0000000000000000000000000000000000000000000000000000000000000000",
            "0x00000000000000000000000000000c771f6176268d5a9846e0956c3ef58597a1"
          ],
          "data": "0xffffffffffffffffffffffffffffffffffffffffffffffffffffffffffffffff",
          "blockHash": "0x57e06580f39cbc4836caf98c822c0c6d51cfb433c7b49ab550f5537e52bb0d4a",
          "blockNumber": "0x756898",
          "transactionHash": "0x23043f737fb13198b17534414de9182a925242fa064cce96b611dfee83c09f3c",
          "transactionIndex": "0x96",
          "logIndex": "0xec",
          "removed": false
        }
      ],
      "logsBloom": "0x00000000000000000000000000000000000004000000000000000000000000200000000000000000000000000000000000000000000000000000000000008000000000000000000000000008000000000000000000000000000000000000000000000000020000000000000000000800000000000000000000000010000000000000000000000000000000000000000000000000000100000000000000000000000000000000000000000000000000000000000000080000000000000000000000000002000000000000000000000000000000000000000000000000000020000000000000000000000000000000000000000000000000000000800000000000",
      "type": "0x2",
      "transactionHash": "0x23043f737fb13198b17534414de9182a925242fa064cce96b611dfee83c09f3c",
      "transactionIndex": "0x96",
      "blockHash": "0x57e06580f39cbc4836caf98c822c0c6d51cfb433c7b49ab550f5537e52bb0d4a",
      "blockNumber": "0x756898",
      "gasUsed": "0x90ed7",
      "effectiveGasPrice": "0x44fffc13",
      "from": "0x00000c771f6176268d5a9846e0956c3ef58597a1",
      "to": null,
      "contractAddress": "0x0d8f11f1e248c771920b06d1a11507d89e247389"
    },
    {
      "status": "0x1",
      "cumulativeGasUsed": "0x85427b",
      "logs": [
        {
          "address": "0x0d8f11f1e248c771920b06d1a11507d89e247389",
          "topics": [
            "0x8c5be1e5ebec7d5bd14f71427d1e84f3dd0314c0f7b2291e5b200ac8c7c3b925",
            "0x00000000000000000000000000000c771f6176268d5a9846e0956c3ef58597a1",
            "0x0000000000000000000000003c41f10e4167833189e2735eaa6e535b78c29968"
          ],
          "data": "0xffffffffffffffffffffffffffffffffffffffffffffffffffffffffffffffff",
          "blockHash": "0x10b49a6f17cd1487e8f400d9a04e0fff2058b88b1ac0bfe1ec76d99cee0c931c",
          "blockNumber": "0x756899",
          "transactionHash": "0xb99e36057531a912b87674620599d9a05727dfc248cda4da97eba7074a29d7b3",
          "transactionIndex": "0x60",
          "logIndex": "0x87",
          "removed": false
        }
      ],
      "logsBloom": "0x00000000000000000000000000000000000004000000000000000000000000200000000000000000000000000000000000000000004000000000000000208000000000001000000000000000000000000000000000000000000000000000000000000000000000000000000000000000000000000000000000000000000000000000000000000000000000000000000000000000000100000000000000000000020000000000000000000000000000000000000000080000000000000000000000000000000000000000000000000000000000000000000000000000000000000010000000000000000020000000000000000000000000000000800000000000",
      "type": "0x2",
      "transactionHash": "0xb99e36057531a912b87674620599d9a05727dfc248cda4da97eba7074a29d7b3",
      "transactionIndex": "0x60",
      "blockHash": "0x10b49a6f17cd1487e8f400d9a04e0fff2058b88b1ac0bfe1ec76d99cee0c931c",
      "blockNumber": "0x756899",
      "gasUsed": "0xb437",
      "effectiveGasPrice": "0x47f49f83",
      "from": "0x00000c771f6176268d5a9846e0956c3ef58597a1",
      "to": "0x0d8f11f1e248c771920b06d1a11507d89e247389",
      "contractAddress": null
    },
    {
      "status": "0x1",
      "cumulativeGasUsed": "0x4fe0cc",
      "logs": [
        {
          "address": "0x0d8f11f1e248c771920b06d1a11507d89e247389",
          "topics": [
            "0x8c5be1e5ebec7d5bd14f71427d1e84f3dd0314c0f7b2291e5b200ac8c7c3b925",
            "0x00000000000000000000000000000c771f6176268d5a9846e0956c3ef58597a1",
            "0x000000000000000000000000d2a7d896d33328cf7df5beffe3a2af935d9ab5e4"
          ],
          "data": "0xffffffffffffffffffffffffffffffffffffffffffffffffffffffffffffffff",
          "blockHash": "0x10d0b7cb45015ae4d50cd43f67ad99f048b7e1598db3bd0f4b41da3c1836e172",
          "blockNumber": "0x75689a",
          "transactionHash": "0x2b6b4e955246690c7b74fedeac979cc9c845ea3a40dcabec77eb183dfe0125b6",
          "transactionIndex": "0x47",
          "logIndex": "0x5a",
          "removed": false
        }
      ],
      "logsBloom": "0x00000000000000000000000000000000000004000000000000000000000000200000000000000000000000000000000000000000000000000000000000208000000000000000000000000000000000000000000000000000000000000000000000000000000000000000000000000000000000000000000000000000000000000000000000000000000000000010000000000000000100000000000000000000020000000000000000000000000000000000000000080000000008000000000000000000000000000000000000000000000000000000000000000000000000000010000000000000000000000000000000000000000001000000800000000000",
      "type": "0x2",
      "transactionHash": "0x2b6b4e955246690c7b74fedeac979cc9c845ea3a40dcabec77eb183dfe0125b6",
      "transactionIndex": "0x47",
      "blockHash": "0x10d0b7cb45015ae4d50cd43f67ad99f048b7e1598db3bd0f4b41da3c1836e172",
      "blockNumber": "0x75689a",
      "gasUsed": "0xb437",
      "effectiveGasPrice": "0x471297b2",
      "from": "0x00000c771f6176268d5a9846e0956c3ef58597a1",
      "to": "0x0d8f11f1e248c771920b06d1a11507d89e247389",
      "contractAddress": null
    },
    {
      "status": "0x1",
      "cumulativeGasUsed": "0xb0ee0d",
      "logs": [
        {
          "address": "0x91f2b20cf51eaceb8191ed4426480579b2665e63",
          "topics": [
            "0x45f9870e4a7b53fa01dd08111608d9666d3391144e8a28ee2f06e7483afec459"
          ],
          "data": "0xfd725d9421331fede70530428e053735994da6772ed7d694623f1be7673666de00000000000000000000000000000000000000000000000000000000000000000000000000000000000000000d8f11f1e248c771920b06d1a11507d89e2473890000000000000000000000000000000000c49ba5e353f7ced916872b020c49ba000000000000000000000000000000000000000000000000000000000000175e0000000000000000000000000000000000000000000000000000000000000000000000000000000000000000000000000000000000000000000000000081f64d000000000000000000000000000000000000000080000011ad7b7d57d2db6557",
          "blockHash": "0x451b88537364359d870cdc439b66aad9e54a9b007a5c02705c3a3b6234336f9c",
          "blockNumber": "0x75689b",
          "transactionHash": "0xcf15d0b710b3605e0f5512e0ffbb79a7082e343eff56814b555f0864ae917356",
          "transactionIndex": "0x5d",
          "logIndex": "0x94",
          "removed": false
        },
        {
          "address": "0xd2a7d896d33328cf7df5beffe3a2af935d9ab5e4",
          "topics": [
            "0xddf252ad1be2c89b69c2b068fc378daa952ba7f163c4a11628f55a4df523b3ef",
            "0x0000000000000000000000000000000000000000000000000000000000000000",
            "0x00000000000000000000000000000c771f6176268d5a9846e0956c3ef58597a1",
            "0x00000000000000000000000000000000000000000000000000003c41100dc1c1"
          ],
          "data": "0x",
          "blockHash": "0x451b88537364359d870cdc439b66aad9e54a9b007a5c02705c3a3b6234336f9c",
          "blockNumber": "0x75689b",
          "transactionHash": "0xcf15d0b710b3605e0f5512e0ffbb79a7082e343eff56814b555f0864ae917356",
          "transactionIndex": "0x5d",
          "logIndex": "0x95",
          "removed": false
        },
        {
          "address": "0x91f2b20cf51eaceb8191ed4426480579b2665e63",
          "topics": [
            "0xa2d4008be4187c63684f323788e131e1370dbc2205499befe2834005a00c792c"
          ],
          "data": "0x000000000000000000000000d2a7d896d33328cf7df5beffe3a2af935d9ab5e4fd725d9421331fede70530428e053735994da6772ed7d694623f1be7673666de00000000000000000000000000000000000000000000000000003c41100dc1c1fffffffffffffffffffffffffffffffffffffffffffffffffffffffffab6413e000000000000000000000000000000000000000000000000000000000549bec200000000000000000000000000000000000000000000000009d025b9f39a7b59000000000000000000000000000000000000000000000000002386f26fc10000000000000000000000000000000000000000000000000002b5e39a9fdddd9e1c",
          "blockHash": "0x451b88537364359d870cdc439b66aad9e54a9b007a5c02705c3a3b6234336f9c",
          "blockNumber": "0x75689b",
          "transactionHash": "0xcf15d0b710b3605e0f5512e0ffbb79a7082e343eff56814b555f0864ae917356",
          "transactionIndex": "0x5d",
          "logIndex": "0x96",
          "removed": false
        },
        {
          "address": "0x0d8f11f1e248c771920b06d1a11507d89e247389",
          "topics": [
            "0xddf252ad1be2c89b69c2b068fc378daa952ba7f163c4a11628f55a4df523b3ef",
            "0x00000000000000000000000000000c771f6176268d5a9846e0956c3ef58597a1",
            "0x00000000000000000000000091f2b20cf51eaceb8191ed4426480579b2665e63"
          ],
          "data": "0x000000000000000000000000000000000000000000000002b5e39a9fdddd9e1c",
          "blockHash": "0x451b88537364359d870cdc439b66aad9e54a9b007a5c02705c3a3b6234336f9c",
          "blockNumber": "0x75689b",
          "transactionHash": "0xcf15d0b710b3605e0f5512e0ffbb79a7082e343eff56814b555f0864ae917356",
          "transactionIndex": "0x5d",
          "logIndex": "0x97",
          "removed": false
        }
      ],
      "logsBloom": "0x000000000000000000000000000000000002040001000000020000000000002000000000000000000000000000000000000000000000080000000000000080000000c0000000000008080008400000000000000000000000000000000000000024000000020000000000000000000800000000000000000000000010000000000000000000000000000000000008000800000000000100000000000000800000000000000000000000000100000000000000800000080000000000000000000000000002000000000000000000000000000000000000000080000000000020000000000000000000000000000000000000000000000000000001800000000000",
      "type": "0x2",
      "transactionHash": "0xcf15d0b710b3605e0f5512e0ffbb79a7082e343eff56814b555f0864ae917356",
      "transactionIndex": "0x5d",
      "blockHash": "0x451b88537364359d870cdc439b66aad9e54a9b007a5c02705c3a3b6234336f9c",
      "blockNumber": "0x75689b",
      "gasUsed": "0x4cc07",
      "effectiveGasPrice": "0x41b4a0da",
      "from": "0x00000c771f6176268d5a9846e0956c3ef58597a1",
      "to": "0xd2a7d896d33328cf7df5beffe3a2af935d9ab5e4",
      "contractAddress": null
    },
    {
      "status": "0x1",
      "cumulativeGasUsed": "0x61e39b",
      "logs": [
        {
          "address": "0x91f2b20cf51eaceb8191ed4426480579b2665e63",
          "topics": [],
          "data": "0x3c41f10e4167833189e2735eaa6e535b78c29968fd725d9421331fede70530428e053735994da6772ed7d694623f1be7673666de000000000000000000000000000186a0ffffffffffffffffffffffffe2497ffa000000000000000009d025b9f39a7b5980000011ad7b7d5711127bde0081f64c",
          "blockHash": "0x82db4d4a06819f5d146c4201a2d8fb007cde6140b2406c4ce0e9d0bc5e146eee",
          "blockNumber": "0x75689c",
          "transactionHash": "0x40db0b499d091d5b9eba3015e88f4e96b638fce3bd2c06397ce0674dbf52433d",
          "transactionIndex": "0x48",
          "logIndex": "0x4b",
          "removed": false
        },
        {
          "address": "0x0d8f11f1e248c771920b06d1a11507d89e247389",
          "topics": [
            "0xddf252ad1be2c89b69c2b068fc378daa952ba7f163c4a11628f55a4df523b3ef",
            "0x00000000000000000000000091f2b20cf51eaceb8191ed4426480579b2665e63",
            "0x00000000000000000000000000000c771f6176268d5a9846e0956c3ef58597a1"
          ],
          "data": "0x000000000000000000000000000000000000000000000000000000001db68006",
          "blockHash": "0x82db4d4a06819f5d146c4201a2d8fb007cde6140b2406c4ce0e9d0bc5e146eee",
          "blockNumber": "0x75689c",
          "transactionHash": "0x40db0b499d091d5b9eba3015e88f4e96b638fce3bd2c06397ce0674dbf52433d",
          "transactionIndex": "0x48",
          "logIndex": "0x4c",
          "removed": false
        }
      ],
      "logsBloom": "0x00000000000000000000000000000000000004000000000002000000000000200000000000000000000000000000000000000000000000000000000000008000000040000000000000000008000000000000000000000000000000000000000004000000000000000000000000000000000000000000000000000010000000000000000000000000000000000000000800000000000100000000000000000000000000000000000000000100000000000000000000080000000000000000000000000002000000000000000000000000000000000000000080000000000000000000000000000000000000000000000000000000000000000000800000000000",
      "type": "0x2",
      "transactionHash": "0x40db0b499d091d5b9eba3015e88f4e96b638fce3bd2c06397ce0674dbf52433d",
      "transactionIndex": "0x48",
      "blockHash": "0x82db4d4a06819f5d146c4201a2d8fb007cde6140b2406c4ce0e9d0bc5e146eee",
      "blockNumber": "0x75689c",
      "gasUsed": "0x1844f",
      "effectiveGasPrice": "0x409111e7",
      "from": "0x00000c771f6176268d5a9846e0956c3ef58597a1",
      "to": "0x3c41f10e4167833189e2735eaa6e535b78c29968",
      "contractAddress": null
    },
    {
      "status": "0x1",
      "cumulativeGasUsed": "0xcaae19",
      "logs": [
        {
          "address": "0x91f2b20cf51eaceb8191ed4426480579b2665e63",
          "topics": [],
          "data": "0x3c41f10e4167833189e2735eaa6e535b78c29968fd725d9421331fede70530428e053735994da6772ed7d694623f1be7673666defffffffffffffffffffffffffffe7a8c0000000000000000000000001dcd6500000000000000000009d025b9f39a7b5980000011ad7b7d57d2db6fc20081f64d",
          "blockHash": "0x5b86c07e23271e2ad0e013ad802ceb4ce01b3d793583c50106284e64538a5d3d",
          "blockNumber": "0x75689d",
          "transactionHash": "0x3a1ca0e4b256940aab2d88b9b45cbdfe77fe63d027dd4dffc98fc14f1744f35d",
          "transactionIndex": "0x92",
          "logIndex": "0xc3",
          "removed": false
        },
        {
          "address": "0x0d8f11f1e248c771920b06d1a11507d89e247389",
          "topics": [
            "0xddf252ad1be2c89b69c2b068fc378daa952ba7f163c4a11628f55a4df523b3ef",
            "0x00000000000000000000000000000c771f6176268d5a9846e0956c3ef58597a1",
            "0x00000000000000000000000091f2b20cf51eaceb8191ed4426480579b2665e63"
          ],
          "data": "0x000000000000000000000000000000000000000000000000000000001dcd6500",
          "blockHash": "0x5b86c07e23271e2ad0e013ad802ceb4ce01b3d793583c50106284e64538a5d3d",
          "blockNumber": "0x75689d",
          "transactionHash": "0x3a1ca0e4b256940aab2d88b9b45cbdfe77fe63d027dd4dffc98fc14f1744f35d",
          "transactionIndex": "0x92",
          "logIndex": "0xc4",
          "removed": false
        }
      ],
      "logsBloom": "0x00000000000000000000000000000000000004000000000002000000000000200000000000000000000000000000000000000000000000000000000000008000000040000000000000000008000000000000000000000000000000000000000004000000000000000000000000000000000000000000000000000010000000000000000000000000000000000000000800000000000100000000000000000000000000000000000000000100000000000000000000080000000000000000000000000002000000000000000000000000000000000000000080000000000000000000000000000000000000000000000000000000000000000000800000000000",
      "type": "0x2",
      "transactionHash": "0x3a1ca0e4b256940aab2d88b9b45cbdfe77fe63d027dd4dffc98fc14f1744f35d",
      "transactionIndex": "0x92",
      "blockHash": "0x5b86c07e23271e2ad0e013ad802ceb4ce01b3d793583c50106284e64538a5d3d",
      "blockNumber": "0x75689d",
      "gasUsed": "0x19dbd",
      "effectiveGasPrice": "0x3d9785ac",
      "from": "0x00000c771f6176268d5a9846e0956c3ef58597a1",
      "to": "0x3c41f10e4167833189e2735eaa6e535b78c29968",
      "contractAddress": null
    },
    {
      "status": "0x1",
      "cumulativeGasUsed": "0xb43768",
      "logs": [
        {
          "address": "0x91f2b20cf51eaceb8191ed4426480579b2665e63",
          "topics": [],
          "data": "0x3c41f10e4167833189e2735eaa6e535b78c29968fd725d9421331fede70530428e053735994da6772ed7d694623f1be7673666de000000000000000000000000000186a0ffffffffffffffffffffffffe24991e8000000000000000009d025b9f39a7b5980000011ad7b7d571112fb3f0081f64c",
          "blockHash": "0xe44894d11c571466e1e1a4272186820ca53e8ac8758361538a8de44ace985c9e",
          "blockNumber": "0x75689e",
          "transactionHash": "0x8f86777bf0a800b0c64369264bd61e21937c759087eabf30af0aff321b8d14f7",
          "transactionIndex": "0x44",
          "logIndex": "0x69",
          "removed": false
        },
        {
          "address": "0x0d8f11f1e248c771920b06d1a11507d89e247389",
          "topics": [
            "0xddf252ad1be2c89b69c2b068fc378daa952ba7f163c4a11628f55a4df523b3ef",
            "0x00000000000000000000000091f2b20cf51eaceb8191ed4426480579b2665e63",
            "0x00000000000000000000000000000c771f6176268d5a9846e0956c3ef58597a1"
          ],
          "data": "0x000000000000000000000000000000000000000000000000000000001db66e18",
          "blockHash": "0xe44894d11c571466e1e1a4272186820ca53e8ac8758361538a8de44ace985c9e",
          "blockNumber": "0x75689e",
          "transactionHash": "0x8f86777bf0a800b0c64369264bd61e21937c759087eabf30af0aff321b8d14f7",
          "transactionIndex": "0x44",
          "logIndex": "0x6a",
          "removed": false
        }
      ],
      "logsBloom": "0x00000000000000000000000000000000000004000000000002000000000000200000000000000000000000000000000000000000000000000000000000008000000040000000000000000008000000000000000000000000000000000000000004000000000000000000000000000000000000000000000000000010000000000000000000000000000000000000000800000000000100000000000000000000000000000000000000000100000000000000000000080000000000000000000000000002000000000000000000000000000000000000000080000000000000000000000000000000000000000000000000000000000000000000800000000000",
      "type": "0x2",
      "transactionHash": "0x8f86777bf0a800b0c64369264bd61e21937c759087eabf30af0aff321b8d14f7",
      "transactionIndex": "0x44",
      "blockHash": "0xe44894d11c571466e1e1a4272186820ca53e8ac8758361538a8de44ace985c9e",
      "blockNumber": "0x75689e",
      "gasUsed": "0x14183",
      "effectiveGasPrice": "0x3d5bdd90",
      "from": "0x00000c771f6176268d5a9846e0956c3ef58597a1",
      "to": "0x3c41f10e4167833189e2735eaa6e535b78c29968",
      "contractAddress": null
    },
    {
      "status": "0x1",
      "cumulativeGasUsed": "0x8842b5",
      "logs": [
        {
          "address": "0x91f2b20cf51eaceb8191ed4426480579b2665e63",
          "topics": [],
          "data": "0x3c41f10e4167833189e2735eaa6e535b78c29968fd725d9421331fede70530428e053735994da6772ed7d694623f1be7673666defffffffffffffffffffffffffffe7a8c0000000000000000000000001dcd6500000000000000000009d025b9f39a7b5980000011ad7b7d57d2dbef230081f64d",
          "blockHash": "0xc90a23db0ef4335885746069728dc4ac2bf9596ee9d45711cf97ea20954ae0a5",
          "blockNumber": "0x75689f",
          "transactionHash": "0x477bfd3dcd1f775b33904d288a4cedc9dbbf700cf510527f0593bf7e85935900",
          "transactionIndex": "0x5c",
          "logIndex": "0x7c",
          "removed": false
        },
        {
          "address": "0x0d8f11f1e248c771920b06d1a11507d89e247389",
          "topics": [
            "0xddf252ad1be2c89b69c2b068fc378daa952ba7f163c4a11628f55a4df523b3ef",
            "0x00000000000000000000000000000c771f6176268d5a9846e0956c3ef58597a1",
            "0x00000000000000000000000091f2b20cf51eaceb8191ed4426480579b2665e63"
          ],
          "data": "0x000000000000000000000000000000000000000000000000000000001dcd6500",
          "blockHash": "0xc90a23db0ef4335885746069728dc4ac2bf9596ee9d45711cf97ea20954ae0a5",
          "blockNumber": "0x75689f",
          "transactionHash": "0x477bfd3dcd1f775b33904d288a4cedc9dbbf700cf510527f0593bf7e85935900",
          "transactionIndex": "0x5c",
          "logIndex": "0x7d",
          "removed": false
        }
      ],
      "logsBloom": "0x00000000000000000000000000000000000004000000000002000000000000200000000000000000000000000000000000000000000000000000000000008000000040000000000000000008000000000000000000000000000000000000000004000000000000000000000000000000000000000000000000000010000000000000000000000000000000000000000800000000000100000000000000000000000000000000000000000100000000000000000000080000000000000000000000000002000000000000000000000000000000000000000080000000000000000000000000000000000000000000000000000000000000000000800000000000",
      "type": "0x2",
      "transactionHash": "0x477bfd3dcd1f775b33904d288a4cedc9dbbf700cf510527f0593bf7e85935900",
      "transactionIndex": "0x5c",
      "blockHash": "0xc90a23db0ef4335885746069728dc4ac2bf9596ee9d45711cf97ea20954ae0a5",
      "blockNumber": "0x75689f",
      "gasUsed": "0x15af1",
      "effectiveGasPrice": "0x3b199030",
      "from": "0x00000c771f6176268d5a9846e0956c3ef58597a1",
      "to": "0x3c41f10e4167833189e2735eaa6e535b78c29968",
      "contractAddress": null
    },
    {
      "status": "0x1",
      "cumulativeGasUsed": "0x1fe92e8",
      "logs": [
        {
          "address": "0x91f2b20cf51eaceb8191ed4426480579b2665e63",
          "topics": [
            "0x45f9870e4a7b53fa01dd08111608d9666d3391144e8a28ee2f06e7483afec459"
          ],
          "data": "0x7364007584fcdd540b961034ab5e9b88cff87276bfef6fc198c9ecafd343d73000000000000000000000000000000000000000000000000000000000000000000000000000000000000000000d8f11f1e248c771920b06d1a11507d89e2473890000000000000000000000000000000000c49ba5e353f7ced916872b020c49ba00000000000000000000000000000000000000000000000000000000000000000000000000000000000000000000000000000000000000000000000000000000000000000000000000000000000000000000000000000000000000000081f64d000000000000000000000000000000000000000080000011ad7b7d57d2db6557",
          "blockHash": "0x3c1347f863b236e6b1a61b5ad7bc6a39872e2eff7581bb66361b61297a677dab",
          "blockNumber": "0x7568a1",
          "transactionHash": "0xe22a7e1bc7a3071b5d1eea6c73175d652fdb0b6ef1466bb9cef136a643ec0663",
          "transactionIndex": "0x3c",
          "logIndex": "0x10df",
          "removed": false
        },
        {
          "address": "0xd2a7d896d33328cf7df5beffe3a2af935d9ab5e4",
          "topics": [
            "0xddf252ad1be2c89b69c2b068fc378daa952ba7f163c4a11628f55a4df523b3ef",
            "0x0000000000000000000000000000000000000000000000000000000000000000",
            "0x00000000000000000000000000000c771f6176268d5a9846e0956c3ef58597a1",
            "0x0000000000000000000000000000000000000000000000000000c36ea8c4c753"
          ],
          "data": "0x",
          "blockHash": "0x3c1347f863b236e6b1a61b5ad7bc6a39872e2eff7581bb66361b61297a677dab",
          "blockNumber": "0x7568a1",
          "transactionHash": "0xe22a7e1bc7a3071b5d1eea6c73175d652fdb0b6ef1466bb9cef136a643ec0663",
          "transactionIndex": "0x3c",
          "logIndex": "0x10e0",
          "removed": false
        },
        {
          "address": "0x91f2b20cf51eaceb8191ed4426480579b2665e63",
          "topics": [
            "0xa2d4008be4187c63684f323788e131e1370dbc2205499befe2834005a00c792c"
          ],
          "data": "0x000000000000000000000000d2a7d896d33328cf7df5beffe3a2af935d9ab5e47364007584fcdd540b961034ab5e9b88cff87276bfef6fc198c9ecafd343d7300000000000000000000000000000000000000000000000000000c36ea8c4c753fffffffffffffffffffffffffffffffffffffffffffffffffffffffffab6326d000000000000000000000000000000000000000000000000000000000549cd9300000000000000000000000000000000000000000000000009d025b9f39a7b59000000000000000000000000000000000000000000000000002386f26fc10000000000000000000000000000000000000000000000000002b5e39a9fdddd9e1c",
          "blockHash": "0x3c1347f863b236e6b1a61b5ad7bc6a39872e2eff7581bb66361b61297a677dab",
          "blockNumber": "0x7568a1",
          "transactionHash": "0xe22a7e1bc7a3071b5d1eea6c73175d652fdb0b6ef1466bb9cef136a643ec0663",
          "transactionIndex": "0x3c",
          "logIndex": "0x10e1",
          "removed": false
        },
        {
          "address": "0x0d8f11f1e248c771920b06d1a11507d89e247389",
          "topics": [
            "0xddf252ad1be2c89b69c2b068fc378daa952ba7f163c4a11628f55a4df523b3ef",
            "0x00000000000000000000000000000c771f6176268d5a9846e0956c3ef58597a1",
            "0x00000000000000000000000091f2b20cf51eaceb8191ed4426480579b2665e63"
          ],
          "data": "0x000000000000000000000000000000000000000000000002b5e39a9fdddd9e1c",
          "blockHash": "0x3c1347f863b236e6b1a61b5ad7bc6a39872e2eff7581bb66361b61297a677dab",
          "blockNumber": "0x7568a1",
          "transactionHash": "0xe22a7e1bc7a3071b5d1eea6c73175d652fdb0b6ef1466bb9cef136a643ec0663",
          "transactionIndex": "0x3c",
          "logIndex": "0x10e2",
          "removed": false
        }
      ],
      "logsBloom": "0x00000000004000000000000000000000000004000100000002000000000000200000000000000000000000000000000000000000000008000000000000008000000040000000000000080008400000000080000000000000000000000000000024000000020000000000000000000800000000000000000000000010000000000000000000000000000000000008000800000000000100000000000000800000000000000000000000000100000000000000800000080000000000000000000000000002000000000000000000000000000000000000000080000000000020000000000000000000000000100000000000000000000000000001800000000000",
      "type": "0x2",
      "transactionHash": "0xe22a7e1bc7a3071b5d1eea6c73175d652fdb0b6ef1466bb9cef136a643ec0663",
      "transactionIndex": "0x3c",
      "blockHash": "0x3c1347f863b236e6b1a61b5ad7bc6a39872e2eff7581bb66361b61297a677dab",
      "blockNumber": "0x7568a1",
      "gasUsed": "0x2be8b",
      "effectiveGasPrice": "0x3fe5e980",
      "from": "0x00000c771f6176268d5a9846e0956c3ef58597a1",
      "to": "0xd2a7d896d33328cf7df5beffe3a2af935d9ab5e4",
      "contractAddress": null
    },
    {
      "status": "0x1",
      "cumulativeGasUsed": "0x6702ea",
      "logs": [
        {
          "address": "0x91f2b20cf51eaceb8191ed4426480579b2665e63",
          "topics": [],
          "data": "0x3c41f10e4167833189e2735eaa6e535b78c299687364007584fcdd540b961034ab5e9b88cff87276bfef6fc198c9ecafd343d730000000000000000000000000000186a0ffffffffffffffffffffffffe2497ffa000000000000000009d025b9f39a7b5980000011ad7b7d5711127bde0081f64c",
          "blockHash": "0x6d3181984f54c925e8094fcc5ef6c2b79afde4a83b2b9803c13f7ff56f3c5060",
          "blockNumber": "0x7568a2",
          "transactionHash": "0x4656cfcb3a1fbc1fa451d4c9fc5859929c25ef2c97327f9e82488f56badfd47d",
          "transactionIndex": "0x4d",
          "logIndex": "0x5e",
          "removed": false
        },
        {
          "address": "0x0d8f11f1e248c771920b06d1a11507d89e247389",
          "topics": [
            "0xddf252ad1be2c89b69c2b068fc378daa952ba7f163c4a11628f55a4df523b3ef",
            "0x00000000000000000000000091f2b20cf51eaceb8191ed4426480579b2665e63",
            "0x00000000000000000000000000000c771f6176268d5a9846e0956c3ef58597a1"
          ],
          "data": "0x000000000000000000000000000000000000000000000000000000001db68006",
          "blockHash": "0x6d3181984f54c925e8094fcc5ef6c2b79afde4a83b2b9803c13f7ff56f3c5060",
          "blockNumber": "0x7568a2",
          "transactionHash": "0x4656cfcb3a1fbc1fa451d4c9fc5859929c25ef2c97327f9e82488f56badfd47d",
          "transactionIndex": "0x4d",
          "logIndex": "0x5f",
          "removed": false
        }
      ],
      "logsBloom": "0x00000000000000000000000000000000000004000000000002000000000000200000000000000000000000000000000000000000000000000000000000008000000040000000000000000008000000000000000000000000000000000000000004000000000000000000000000000000000000000000000000000010000000000000000000000000000000000000000800000000000100000000000000000000000000000000000000000100000000000000000000080000000000000000000000000002000000000000000000000000000000000000000080000000000000000000000000000000000000000000000000000000000000000000800000000000",
      "type": "0x2",
      "transactionHash": "0x4656cfcb3a1fbc1fa451d4c9fc5859929c25ef2c97327f9e82488f56badfd47d",
      "transactionIndex": "0x4d",
      "blockHash": "0x6d3181984f54c925e8094fcc5ef6c2b79afde4a83b2b9803c13f7ff56f3c5060",
      "blockNumber": "0x7568a2",
      "gasUsed": "0x1755a",
      "effectiveGasPrice": "0x47bfd989",
      "from": "0x00000c771f6176268d5a9846e0956c3ef58597a1",
      "to": "0x3c41f10e4167833189e2735eaa6e535b78c29968",
      "contractAddress": null
    },
    {
      "status": "0x1",
      "cumulativeGasUsed": "0xb3abb4",
      "logs": [
        {
          "address": "0x91f2b20cf51eaceb8191ed4426480579b2665e63",
          "topics": [],
          "data": "0x3c41f10e4167833189e2735eaa6e535b78c299687364007584fcdd540b961034ab5e9b88cff87276bfef6fc198c9ecafd343d730fffffffffffffffffffffffffffe7a8c0000000000000000000000001dcd6500000000000000000009d025b9f39a7b5980000011ad7b7d57d2db6fc20081f64d",
          "blockHash": "0xc8fa4b781d73eab1fab69e45f0d5c7ca94f82f450a0a844f183751b6d4420c78",
          "blockNumber": "0x7568a4",
          "transactionHash": "0xb720af32256c246f46ebe02e90ae79d2f2f3b1f3c663351b22f95c0569899f53",
          "transactionIndex": "0x8b",
          "logIndex": "0xc0",
          "removed": false
        },
        {
          "address": "0x0d8f11f1e248c771920b06d1a11507d89e247389",
          "topics": [
            "0xddf252ad1be2c89b69c2b068fc378daa952ba7f163c4a11628f55a4df523b3ef",
            "0x00000000000000000000000000000c771f6176268d5a9846e0956c3ef58597a1",
            "0x00000000000000000000000091f2b20cf51eaceb8191ed4426480579b2665e63"
          ],
          "data": "0x000000000000000000000000000000000000000000000000000000001dcd6500",
          "blockHash": "0xc8fa4b781d73eab1fab69e45f0d5c7ca94f82f450a0a844f183751b6d4420c78",
          "blockNumber": "0x7568a4",
          "transactionHash": "0xb720af32256c246f46ebe02e90ae79d2f2f3b1f3c663351b22f95c0569899f53",
          "transactionIndex": "0x8b",
          "logIndex": "0xc1",
          "removed": false
        }
      ],
      "logsBloom": "0x00000000000000000000000000000000000004000000000002000000000000200000000000000000000000000000000000000000000000000000000000008000000040000000000000000008000000000000000000000000000000000000000004000000000000000000000000000000000000000000000000000010000000000000000000000000000000000000000800000000000100000000000000000000000000000000000000000100000000000000000000080000000000000000000000000002000000000000000000000000000000000000000080000000000000000000000000000000000000000000000000000000000000000000800000000000",
      "type": "0x2",
      "transactionHash": "0xb720af32256c246f46ebe02e90ae79d2f2f3b1f3c663351b22f95c0569899f53",
      "transactionIndex": "0x8b",
      "blockHash": "0xc8fa4b781d73eab1fab69e45f0d5c7ca94f82f450a0a844f183751b6d4420c78",
      "blockNumber": "0x7568a4",
      "gasUsed": "0x18edc",
      "effectiveGasPrice": "0x41f683ec",
      "from": "0x00000c771f6176268d5a9846e0956c3ef58597a1",
      "to": "0x3c41f10e4167833189e2735eaa6e535b78c29968",
      "contractAddress": null
    },
    {
      "status": "0x1",
      "cumulativeGasUsed": "0x568c7a",
      "logs": [
        {
          "address": "0x91f2b20cf51eaceb8191ed4426480579b2665e63",
          "topics": [],
          "data": "0x3c41f10e4167833189e2735eaa6e535b78c299687364007584fcdd540b961034ab5e9b88cff87276bfef6fc198c9ecafd343d730000000000000000000000000000186a0ffffffffffffffffffffffffe24991e8000000000000000009d025b9f39a7b5980000011ad7b7d571112fb3f0081f64c",
          "blockHash": "0x1fbbd48ff6468d81b29e27745c0a8d02333cf6f207a29370dd6feefffaa6dc5a",
          "blockNumber": "0x7568a5",
          "transactionHash": "0xfb635501dce2d39fc04093109e38c265d8bb0245fbf33407a85bdeb94c5afaed",
          "transactionIndex": "0x4d",
          "logIndex": "0x54",
          "removed": false
        },
        {
          "address": "0x0d8f11f1e248c771920b06d1a11507d89e247389",
          "topics": [
            "0xddf252ad1be2c89b69c2b068fc378daa952ba7f163c4a11628f55a4df523b3ef",
            "0x00000000000000000000000091f2b20cf51eaceb8191ed4426480579b2665e63",
            "0x00000000000000000000000000000c771f6176268d5a9846e0956c3ef58597a1"
          ],
          "data": "0x000000000000000000000000000000000000000000000000000000001db66e18",
          "blockHash": "0x1fbbd48ff6468d81b29e27745c0a8d02333cf6f207a29370dd6feefffaa6dc5a",
          "blockNumber": "0x7568a5",
          "transactionHash": "0xfb635501dce2d39fc04093109e38c265d8bb0245fbf33407a85bdeb94c5afaed",
          "transactionIndex": "0x4d",
          "logIndex": "0x55",
          "removed": false
        }
      ],
      "logsBloom": "0x00000000000000000000000000000000000004000000000002000000000000200000000000000000000000000000000000000000000000000000000000008000000040000000000000000008000000000000000000000000000000000000000004000000000000000000000000000000000000000000000000000010000000000000000000000000000000000000000800000000000100000000000000000000000000000000000000000100000000000000000000080000000000000000000000000002000000000000000000000000000000000000000080000000000000000000000000000000000000000000000000000000000000000000800000000000",
      "type": "0x2",
      "transactionHash": "0xfb635501dce2d39fc04093109e38c265d8bb0245fbf33407a85bdeb94c5afaed",
      "transactionIndex": "0x4d",
      "blockHash": "0x1fbbd48ff6468d81b29e27745c0a8d02333cf6f207a29370dd6feefffaa6dc5a",
      "blockNumber": "0x7568a5",
      "gasUsed": "0x1328e",
      "effectiveGasPrice": "0x456bfdee",
      "from": "0x00000c771f6176268d5a9846e0956c3ef58597a1",
      "to": "0x3c41f10e4167833189e2735eaa6e535b78c29968",
      "contractAddress": null
    },
    {
      "status": "0x1",
      "cumulativeGasUsed": "0x81d407",
      "logs": [
        {
          "address": "0x91f2b20cf51eaceb8191ed4426480579b2665e63",
          "topics": [],
          "data": "0x3c41f10e4167833189e2735eaa6e535b78c299687364007584fcdd540b961034ab5e9b88cff87276bfef6fc198c9ecafd343d730fffffffffffffffffffffffffffe7a8c0000000000000000000000001dcd6500000000000000000009d025b9f39a7b5980000011ad7b7d57d2dbef230081f64d",
          "blockHash": "0xd538ff73fdd2436b0cd3ab065b3599ed0b7967ba19e2bc5bb2be41c0e878f13f",
          "blockNumber": "0x7568a6",
          "transactionHash": "0x564c9a3baf09256bd61d7ab1ac581deb8b7e8b131318b909d5a4b14e5aff0e68",
          "transactionIndex": "0x6a",
          "logIndex": "0x89",
          "removed": false
        },
        {
          "address": "0x0d8f11f1e248c771920b06d1a11507d89e247389",
          "topics": [
            "0xddf252ad1be2c89b69c2b068fc378daa952ba7f163c4a11628f55a4df523b3ef",
            "0x00000000000000000000000000000c771f6176268d5a9846e0956c3ef58597a1",
            "0x00000000000000000000000091f2b20cf51eaceb8191ed4426480579b2665e63"
          ],
          "data": "0x000000000000000000000000000000000000000000000000000000001dcd6500",
          "blockHash": "0xd538ff73fdd2436b0cd3ab065b3599ed0b7967ba19e2bc5bb2be41c0e878f13f",
          "blockNumber": "0x7568a6",
          "transactionHash": "0x564c9a3baf09256bd61d7ab1ac581deb8b7e8b131318b909d5a4b14e5aff0e68",
          "transactionIndex": "0x6a",
          "logIndex": "0x8a",
          "removed": false
        }
      ],
      "logsBloom": "0x00000000000000000000000000000000000004000000000002000000000000200000000000000000000000000000000000000000000000000000000000008000000040000000000000000008000000000000000000000000000000000000000004000000000000000000000000000000000000000000000000000010000000000000000000000000000000000000000800000000000100000000000000000000000000000000000000000100000000000000000000080000000000000000000000000002000000000000000000000000000000000000000080000000000000000000000000000000000000000000000000000000000000000000800000000000",
      "type": "0x2",
      "transactionHash": "0x564c9a3baf09256bd61d7ab1ac581deb8b7e8b131318b909d5a4b14e5aff0e68",
      "transactionIndex": "0x6a",
      "blockHash": "0xd538ff73fdd2436b0cd3ab065b3599ed0b7967ba19e2bc5bb2be41c0e878f13f",
      "blockNumber": "0x7568a6",
      "gasUsed": "0x14c10",
      "effectiveGasPrice": "0x4088f980",
      "from": "0x00000c771f6176268d5a9846e0956c3ef58597a1",
      "to": "0x3c41f10e4167833189e2735eaa6e535b78c29968",
      "contractAddress": null
    },
    {
      "status": "0x1",
      "cumulativeGasUsed": "0x1458e35",
      "logs": [
        {
          "address": "0x512fff02f2cfd03e2c0cdc20003cb519451689a1",
          "topics": [],
          "data": "0x0d8f11f1e248c771920b06d1a11507d89e2473890000000067ad001800000000000000000000000000000000000000000000000000000000",
          "blockHash": "0x304ff538fb739230b201a3d1a18e0c4ffe0b467d12fd65c8369e91d5009da819",
          "blockNumber": "0x7568a7",
          "transactionHash": "0x3c455cb77e849858d21e82efaea2cc509ccfe0ccf06dd2aa8a8ca2fdfa847132",
          "transactionIndex": "0x75",
          "logIndex": "0xbe",
          "removed": false
        },
        {
          "address": "0x91f2b20cf51eaceb8191ed4426480579b2665e63",
          "topics": [
            "0x45f9870e4a7b53fa01dd08111608d9666d3391144e8a28ee2f06e7483afec459"
          ],
          "data": "0xb578727b11c408ac5e0ac610472f213a5afa34d3fe7391fb1c73ea8e7d6a57e200000000000000000000000000000000000000000000000000000000000000000000000000000000000000000d8f11f1e248c771920b06d1a11507d89e24738900000000000000000000000000000000000000000000000000000000000000000000000000000000000000000000000000000000000000000000000000000000000000000000000000000000512fff02f2cfd03e2c0cdc20003cb519451689a100000000000000000000000000000000000000000000000000000000004644f40000000000000000000000000000000000000000800000027ffff5c0ff12dc20",
          "blockHash": "0x304ff538fb739230b201a3d1a18e0c4ffe0b467d12fd65c8369e91d5009da819",
          "blockNumber": "0x7568a7",
          "transactionHash": "0x3c455cb77e849858d21e82efaea2cc509ccfe0ccf06dd2aa8a8ca2fdfa847132",
          "transactionIndex": "0x75",
          "logIndex": "0xbf",
          "removed": false
        },
        {
          "address": "0xd2a7d896d33328cf7df5beffe3a2af935d9ab5e4",
          "topics": [
            "0xddf252ad1be2c89b69c2b068fc378daa952ba7f163c4a11628f55a4df523b3ef",
            "0x0000000000000000000000000000000000000000000000000000000000000000",
            "0x00000000000000000000000000000c771f6176268d5a9846e0956c3ef58597a1",
            "0x0000000000000000000000000000000000000000000000000000ff3ad3ab8067"
          ],
          "data": "0x",
          "blockHash": "0x304ff538fb739230b201a3d1a18e0c4ffe0b467d12fd65c8369e91d5009da819",
          "blockNumber": "0x7568a7",
          "transactionHash": "0x3c455cb77e849858d21e82efaea2cc509ccfe0ccf06dd2aa8a8ca2fdfa847132",
          "transactionIndex": "0x75",
          "logIndex": "0xc0",
          "removed": false
        },
        {
          "address": "0x91f2b20cf51eaceb8191ed4426480579b2665e63",
          "topics": [
            "0xa2d4008be4187c63684f323788e131e1370dbc2205499befe2834005a00c792c"
          ],
          "data": "0x000000000000000000000000d2a7d896d33328cf7df5beffe3a2af935d9ab5e4b578727b11c408ac5e0ac610472f213a5afa34d3fe7391fb1c73ea8e7d6a57e20000000000000000000000000000000000000000000000000000ff3ad3ab8067fffffffffffffffffffffffffffffffffffffffffffffffffffffffffab6326d000000000000000000000000000000000000000000000000000000000549cd930000000000000000000000000000000000000000000000008ac720cbc3f4a9180000000000000000000000000000000000000000000000000de0b6b3a76400000000000000000000000000000000000000000000000000056bc731bdec68448d",
          "blockHash": "0x304ff538fb739230b201a3d1a18e0c4ffe0b467d12fd65c8369e91d5009da819",
          "blockNumber": "0x7568a7",
          "transactionHash": "0x3c455cb77e849858d21e82efaea2cc509ccfe0ccf06dd2aa8a8ca2fdfa847132",
          "transactionIndex": "0x75",
          "logIndex": "0xc1",
          "removed": false
        },
        {
          "address": "0x0d8f11f1e248c771920b06d1a11507d89e247389",
          "topics": [
            "0xddf252ad1be2c89b69c2b068fc378daa952ba7f163c4a11628f55a4df523b3ef",
            "0x00000000000000000000000000000c771f6176268d5a9846e0956c3ef58597a1",
            "0x00000000000000000000000091f2b20cf51eaceb8191ed4426480579b2665e63"
          ],
          "data": "0x0000000000000000000000000000000000000000000000056bc731bdec68448d",
          "blockHash": "0x304ff538fb739230b201a3d1a18e0c4ffe0b467d12fd65c8369e91d5009da819",
          "blockNumber": "0x7568a7",
          "transactionHash": "0x3c455cb77e849858d21e82efaea2cc509ccfe0ccf06dd2aa8a8ca2fdfa847132",
          "transactionIndex": "0x75",
          "logIndex": "0xc2",
          "removed": false
        }
      ],
      "logsBloom": "0x00000000000000000000000000000000000004000100000002000000000000200000000000000000000000000000000000000000000008000000000000008000000040040000000000080008400000002000000000000000000000000000000024000000020000000000000000000800000000000000000000000010000000000000080000000000000000000008000800000000000100000000000000800000000000000001000000000100000000000000800000080000000000000010000000000002000000000000000000000000000000000000000080000000000020000000000000000000000000000000000000000000000000000001808000000000",
      "type": "0x2",
      "transactionHash": "0x3c455cb77e849858d21e82efaea2cc509ccfe0ccf06dd2aa8a8ca2fdfa847132",
      "transactionIndex": "0x75",
      "blockHash": "0x304ff538fb739230b201a3d1a18e0c4ffe0b467d12fd65c8369e91d5009da819",
      "blockNumber": "0x7568a7",
      "gasUsed": "0x395fa",
      "effectiveGasPrice": "0x3cc751f0",
      "from": "0x00000c771f6176268d5a9846e0956c3ef58597a1",
      "to": "0xd2a7d896d33328cf7df5beffe3a2af935d9ab5e4",
      "contractAddress": null
    },
    {
      "status": "0x1",
      "cumulativeGasUsed": "0x11d04c5",
      "logs": [
        {
          "address": "0x512fff02f2cfd03e2c0cdc20003cb519451689a1",
          "topics": [],
          "data": "0x0d8f11f1e248c771920b06d1a11507d89e2473890000000067ad003c0000000000000000000000426886038707ddf0bc0000000009e1b250",
          "blockHash": "0x2e088b71ab6bfbdae77c2edaaf63504c312848a7a839ff2587c174ba9b0850da",
          "blockNumber": "0x7568a9",
          "transactionHash": "0x8af2107ae7ed36e2163b3f30f3c963e8863f0c2be2411d90a659f1a685ab4bf0",
          "transactionIndex": "0xaa",
          "logIndex": "0x103",
          "removed": false
        },
        {
          "address": "0x91f2b20cf51eaceb8191ed4426480579b2665e63",
          "topics": [],
          "data": "0x3c41f10e4167833189e2735eaa6e535b78c29968b578727b11c408ac5e0ac610472f213a5afa34d3fe7391fb1c73ea8e7d6a57e2000000000000000000000000000186a0ffffffffffffffffffffffffff6769b300000000000000008ac720cbc3f4a918800000027ffff5c0fecc7dd0004644f3",
          "blockHash": "0x2e088b71ab6bfbdae77c2edaaf63504c312848a7a839ff2587c174ba9b0850da",
          "blockNumber": "0x7568a9",
          "transactionHash": "0x8af2107ae7ed36e2163b3f30f3c963e8863f0c2be2411d90a659f1a685ab4bf0",
          "transactionIndex": "0xaa",
          "logIndex": "0x104",
          "removed": false
        },
        {
          "address": "0x0d8f11f1e248c771920b06d1a11507d89e247389",
          "topics": [
            "0xddf252ad1be2c89b69c2b068fc378daa952ba7f163c4a11628f55a4df523b3ef",
            "0x00000000000000000000000091f2b20cf51eaceb8191ed4426480579b2665e63",
            "0x00000000000000000000000000000c771f6176268d5a9846e0956c3ef58597a1"
          ],
          "data": "0x000000000000000000000000000000000000000000000000000000000098964d",
          "blockHash": "0x2e088b71ab6bfbdae77c2edaaf63504c312848a7a839ff2587c174ba9b0850da",
          "blockNumber": "0x7568a9",
          "transactionHash": "0x8af2107ae7ed36e2163b3f30f3c963e8863f0c2be2411d90a659f1a685ab4bf0",
          "transactionIndex": "0xaa",
          "logIndex": "0x105",
          "removed": false
        }
      ],
      "logsBloom": "0x00000000000000000000000000000000000004000000000002000000000000200000000000000000000000000000000000000000000000000000000000008000000040000000000000000008000000000000000000000000000000000000000004000000000000000000000000000000000000000000000000000010000000000000080000000000000000000000000800000000000100000000000000000000000000000000000000000100000000000000000000080000000000000010000000000002000000000000000000000000000000000000000080000000000000000000000000000000000000000000000000000000000000000000808000000000",
      "type": "0x2",
      "transactionHash": "0x8af2107ae7ed36e2163b3f30f3c963e8863f0c2be2411d90a659f1a685ab4bf0",
      "transactionIndex": "0xaa",
      "blockHash": "0x2e088b71ab6bfbdae77c2edaaf63504c312848a7a839ff2587c174ba9b0850da",
      "blockNumber": "0x7568a9",
      "gasUsed": "0x16426",
      "effectiveGasPrice": "0x3a7fec10",
      "from": "0x00000c771f6176268d5a9846e0956c3ef58597a1",
      "to": "0x3c41f10e4167833189e2735eaa6e535b78c29968",
      "contractAddress": null
    },
    {
      "status": "0x1",
      "cumulativeGasUsed": "0xb2238b",
      "logs": [
        {
          "address": "0x512fff02f2cfd03e2c0cdc20003cb519451689a1",
          "topics": [],
          "data": "0x0d8f11f1e248c771920b06d1a11507d89e2473890000000067ad005400000000000000000000006eae34b08bb7c73be40000000010782918",
          "blockHash": "0x468b7df733092e3073f39f6d8b479cd6df065e45e9c25ba28596a4293c26fbc7",
          "blockNumber": "0x7568aa",
          "transactionHash": "0xae568afd437628cd09c7652e390144b780752b0c7ed3363a6538a80802262cdd",
          "transactionIndex": "0x8a",
          "logIndex": "0xaf",
          "removed": false
        },
        {
          "address": "0x91f2b20cf51eaceb8191ed4426480579b2665e63",
          "topics": [],
          "data": "0x3c41f10e4167833189e2735eaa6e535b78c29968b578727b11c408ac5e0ac610472f213a5afa34d3fe7391fb1c73ea8e7d6a57e2ffffffffffffffffffffffffffb3b4be0000000000000000000000001dcd650000000000000000008ac720cbc3f4a918800000027ffff5c10c8aedf5004644f4",
          "blockHash": "0x468b7df733092e3073f39f6d8b479cd6df065e45e9c25ba28596a4293c26fbc7",
          "blockNumber": "0x7568aa",
          "transactionHash": "0xae568afd437628cd09c7652e390144b780752b0c7ed3363a6538a80802262cdd",
          "transactionIndex": "0x8a",
          "logIndex": "0xb0",
          "removed": false
        },
        {
          "address": "0x0d8f11f1e248c771920b06d1a11507d89e247389",
          "topics": [
            "0xddf252ad1be2c89b69c2b068fc378daa952ba7f163c4a11628f55a4df523b3ef",
            "0x00000000000000000000000000000c771f6176268d5a9846e0956c3ef58597a1",
            "0x00000000000000000000000091f2b20cf51eaceb8191ed4426480579b2665e63"
          ],
          "data": "0x000000000000000000000000000000000000000000000000000000001dcd6500",
          "blockHash": "0x468b7df733092e3073f39f6d8b479cd6df065e45e9c25ba28596a4293c26fbc7",
          "blockNumber": "0x7568aa",
          "transactionHash": "0xae568afd437628cd09c7652e390144b780752b0c7ed3363a6538a80802262cdd",
          "transactionIndex": "0x8a",
          "logIndex": "0xb1",
          "removed": false
        }
      ],
      "logsBloom": "0x00000000000000000000000000000000000004000000000002000000000000200000000000000000000000000000000000000000000000000000000000008000000040000000000000000008000000000000000000000000000000000000000004000000000000000000000000000000000000000000000000000010000000000000080000000000000000000000000800000000000100000000000000000000000000000000000000000100000000000000000000080000000000000010000000000002000000000000000000000000000000000000000080000000000000000000000000000000000000000000000000000000000000000000808000000000",
      "type": "0x2",
      "transactionHash": "0xae568afd437628cd09c7652e390144b780752b0c7ed3363a6538a80802262cdd",
      "transactionIndex": "0x8a",
      "blockHash": "0x468b7df733092e3073f39f6d8b479cd6df065e45e9c25ba28596a4293c26fbc7",
      "blockNumber": "0x7568aa",
      "gasUsed": "0x17da8",
      "effectiveGasPrice": "0x3d96657d",
      "from": "0x00000c771f6176268d5a9846e0956c3ef58597a1",
      "to": "0x3c41f10e4167833189e2735eaa6e535b78c29968",
      "contractAddress": null
    },
    {
      "status": "0x1",
      "cumulativeGasUsed": "0x20e5d77",
      "logs": [
        {
          "address": "0x512fff02f2cfd03e2c0cdc20003cb519451689a1",
          "topics": [],
          "data": "0x0d8f11f1e248c771920b06d1a11507d89e2473890000000067ad0060000000000000000000000084d10c070e0fbbe1780000000013c36488",
          "blockHash": "0x04d66fe42950e175c4a7df656eca31465cd768519420e7f906b79281c043b40a",
          "blockNumber": "0x7568ab",
          "transactionHash": "0xe9670cc3ed2e6277377ff07141a84784e50c05c061d3c7be669590384ac97d3d",
          "transactionIndex": "0x48",
          "logIndex": "0x10ee",
          "removed": false
        },
        {
          "address": "0x91f2b20cf51eaceb8191ed4426480579b2665e63",
          "topics": [],
          "data": "0x3c41f10e4167833189e2735eaa6e535b78c29968b578727b11c408ac5e0ac610472f213a5afa34d3fe7391fb1c73ea8e7d6a57e2000000000000000000000000000186a0ffffffffffffffffffffffffff6769be00000000000000008ac720cbc3f4a918800000027ffff5c10c448faa004644f4",
          "blockHash": "0x04d66fe42950e175c4a7df656eca31465cd768519420e7f906b79281c043b40a",
          "blockNumber": "0x7568ab",
          "transactionHash": "0xe9670cc3ed2e6277377ff07141a84784e50c05c061d3c7be669590384ac97d3d",
          "transactionIndex": "0x48",
          "logIndex": "0x10ef",
          "removed": false
        },
        {
          "address": "0x0d8f11f1e248c771920b06d1a11507d89e247389",
          "topics": [
            "0xddf252ad1be2c89b69c2b068fc378daa952ba7f163c4a11628f55a4df523b3ef",
            "0x00000000000000000000000091f2b20cf51eaceb8191ed4426480579b2665e63",
            "0x00000000000000000000000000000c771f6176268d5a9846e0956c3ef58597a1"
          ],
          "data": "0x0000000000000000000000000000000000000000000000000000000000989642",
          "blockHash": "0x04d66fe42950e175c4a7df656eca31465cd768519420e7f906b79281c043b40a",
          "blockNumber": "0x7568ab",
          "transactionHash": "0xe9670cc3ed2e6277377ff07141a84784e50c05c061d3c7be669590384ac97d3d",
          "transactionIndex": "0x48",
          "logIndex": "0x10f0",
          "removed": false
        }
      ],
      "logsBloom": "0x00000000000000000000000000000000000004000000000002000000000000200000000000000000000000000000000000000000000000000000000000008000000040000000000000000008000000000000000000000000000000000000000004000000000000000000000000000000000000000000000000000010000000000000080000000000000000000000000800000000000100000000000000000000000000000000000000000100000000000000000000080000000000000010000000000002000000000000000000000000000000000000000080000000000000000000000000000000000000000000000000000000000000000000808000000000",
      "type": "0x2",
      "transactionHash": "0xe9670cc3ed2e6277377ff07141a84784e50c05c061d3c7be669590384ac97d3d",
      "transactionIndex": "0x48",
      "blockHash": "0x04d66fe42950e175c4a7df656eca31465cd768519420e7f906b79281c043b40a",
      "blockNumber": "0x7568ab",
      "gasUsed": "0x1642a",
      "effectiveGasPrice": "0x3d55cdfb",
      "from": "0x00000c771f6176268d5a9846e0956c3ef58597a1",
      "to": "0x3c41f10e4167833189e2735eaa6e535b78c29968",
      "contractAddress": null
    },
    {
      "status": "0x1",
      "cumulativeGasUsed": "0x722baf",
      "logs": [
        {
          "address": "0x512fff02f2cfd03e2c0cdc20003cb519451689a1",
          "topics": [],
          "data": "0x0d8f11f1e248c771920b06d1a11507d89e2473890000000067ad006c00000000000000000000009af3e35d9067b0870c00000000170e9ff8",
          "blockHash": "0x37f3051f2eadf1081634ec20ac08a4dd98e9f27456fe42fca9552cd53c1ce369",
          "blockNumber": "0x7568ac",
          "transactionHash": "0xb37ab7a93eb025e72c8b27f97e394a1d58186312bd5016dd4f74094c51eadf8a",
          "transactionIndex": "0x4d",
          "logIndex": "0x6d",
          "removed": false
        },
        {
          "address": "0x91f2b20cf51eaceb8191ed4426480579b2665e63",
          "topics": [],
          "data": "0x3c41f10e4167833189e2735eaa6e535b78c29968b578727b11c408ac5e0ac610472f213a5afa34d3fe7391fb1c73ea8e7d6a57e2ffffffffffffffffffffffffffb3b4be0000000000000000000000001dcd650000000000000000008ac720cbc3f4a918800000027ffff5c11a02ffcf004644f4",
          "blockHash": "0x37f3051f2eadf1081634ec20ac08a4dd98e9f27456fe42fca9552cd53c1ce369",
          "blockNumber": "0x7568ac",
          "transactionHash": "0xb37ab7a93eb025e72c8b27f97e394a1d58186312bd5016dd4f74094c51eadf8a",
          "transactionIndex": "0x4d",
          "logIndex": "0x6e",
          "removed": false
        },
        {
          "address": "0x0d8f11f1e248c771920b06d1a11507d89e247389",
          "topics": [
            "0xddf252ad1be2c89b69c2b068fc378daa952ba7f163c4a11628f55a4df523b3ef",
            "0x00000000000000000000000000000c771f6176268d5a9846e0956c3ef58597a1",
            "0x00000000000000000000000091f2b20cf51eaceb8191ed4426480579b2665e63"
          ],
          "data": "0x000000000000000000000000000000000000000000000000000000001dcd6500",
          "blockHash": "0x37f3051f2eadf1081634ec20ac08a4dd98e9f27456fe42fca9552cd53c1ce369",
          "blockNumber": "0x7568ac",
          "transactionHash": "0xb37ab7a93eb025e72c8b27f97e394a1d58186312bd5016dd4f74094c51eadf8a",
          "transactionIndex": "0x4d",
          "logIndex": "0x6f",
          "removed": false
        }
      ],
      "logsBloom": "0x00000000000000000000000000000000000004000000000002000000000000200000000000000000000000000000000000000000000000000000000000008000000040000000000000000008000000000000000000000000000000000000000004000000000000000000000000000000000000000000000000000010000000000000080000000000000000000000000800000000000100000000000000000000000000000000000000000100000000000000000000080000000000000010000000000002000000000000000000000000000000000000000080000000000000000000000000000000000000000000000000000000000000000000808000000000",
      "type": "0x2",
      "transactionHash": "0xb37ab7a93eb025e72c8b27f97e394a1d58186312bd5016dd4f74094c51eadf8a",
      "transactionIndex": "0x4d",
      "blockHash": "0x37f3051f2eadf1081634ec20ac08a4dd98e9f27456fe42fca9552cd53c1ce369",
      "blockNumber": "0x7568ac",
      "gasUsed": "0x17da8",
      "effectiveGasPrice": "0x44e7983c",
      "from": "0x00000c771f6176268d5a9846e0956c3ef58597a1",
      "to": "0x3c41f10e4167833189e2735eaa6e535b78c29968",
      "contractAddress": null
    },
    {
      "status": "0x1",
      "cumulativeGasUsed": "0xa054e3",
      "logs": [
        {
          "address": "0x91f2b20cf51eaceb8191ed4426480579b2665e63",
          "topics": [
            "0x45f9870e4a7b53fa01dd08111608d9666d3391144e8a28ee2f06e7483afec459"
          ],
          "data": "0x045da25cfcd0e9f48238d15844593cb8a0a2ee59c7d24d82014c29f4a474d68f00000000000000000000000000000000000000000000000000000000000000000000000000000000000000000d8f11f1e248c771920b06d1a11507d89e24738900000000000000000000000000000000028f5c28f5c28f5c28f5c28f5c28f5c20000000000000000000000000000000000000000000000000000000000004d5a0000000000000000000000000000000000000000000000000000000000000000000000000000000000000000000000000000000000000000000000000081f64d000000000000000000000000000000000000000080000011ad7b7d57d2db6557",
          "blockHash": "0x20ab5e7320b2ba984adccd09245d8b7544d6a070c2447308151c06c5cd80f989",
          "blockNumber": "0x7568ad",
          "transactionHash": "0x14ca9ba2e5ad5544512763df3540df7b2ac583a43f8a67669a164c7fcc8e35ad",
          "transactionIndex": "0x65",
          "logIndex": "0xa5",
          "removed": false
        },
        {
          "address": "0xd2a7d896d33328cf7df5beffe3a2af935d9ab5e4",
          "topics": [
            "0xddf252ad1be2c89b69c2b068fc378daa952ba7f163c4a11628f55a4df523b3ef",
            "0x0000000000000000000000000000000000000000000000000000000000000000",
            "0x00000000000000000000000000000c771f6176268d5a9846e0956c3ef58597a1",
            "0x00000000000000000000000000000000000000000000000000003b575c2fad41"
          ],
          "data": "0x",
          "blockHash": "0x20ab5e7320b2ba984adccd09245d8b7544d6a070c2447308151c06c5cd80f989",
          "blockNumber": "0x7568ad",
          "transactionHash": "0x14ca9ba2e5ad5544512763df3540df7b2ac583a43f8a67669a164c7fcc8e35ad",
          "transactionIndex": "0x65",
          "logIndex": "0xa6",
          "removed": false
        },
        {
          "address": "0x91f2b20cf51eaceb8191ed4426480579b2665e63",
          "topics": [
            "0xa2d4008be4187c63684f323788e131e1370dbc2205499befe2834005a00c792c"
          ],
          "data": "0x000000000000000000000000d2a7d896d33328cf7df5beffe3a2af935d9ab5e4045da25cfcd0e9f48238d15844593cb8a0a2ee59c7d24d82014c29f4a474d68f00000000000000000000000000000000000000000000000000003b575c2fad41fffffffffffffffffffffffffffffffffffffffffffffffffffffffffab65900000000000000000000000000000000000000000000000000000000000549a7000000000000000000000000000000000000000000000000001d70712ddacf720b000000000000000000000000000000000000000000000000006a94d74f43000000000000000000000000000000000000000000000000000821aacfdf9998da53",
          "blockHash": "0x20ab5e7320b2ba984adccd09245d8b7544d6a070c2447308151c06c5cd80f989",
          "blockNumber": "0x7568ad",
          "transactionHash": "0x14ca9ba2e5ad5544512763df3540df7b2ac583a43f8a67669a164c7fcc8e35ad",
          "transactionIndex": "0x65",
          "logIndex": "0xa7",
          "removed": false
        },
        {
          "address": "0x0d8f11f1e248c771920b06d1a11507d89e247389",
          "topics": [
            "0xddf252ad1be2c89b69c2b068fc378daa952ba7f163c4a11628f55a4df523b3ef",
            "0x00000000000000000000000000000c771f6176268d5a9846e0956c3ef58597a1",
            "0x00000000000000000000000091f2b20cf51eaceb8191ed4426480579b2665e63"
          ],
          "data": "0x00000000000000000000000000000000000000000000000821aacfdf9998da53",
          "blockHash": "0x20ab5e7320b2ba984adccd09245d8b7544d6a070c2447308151c06c5cd80f989",
          "blockNumber": "0x7568ad",
          "transactionHash": "0x14ca9ba2e5ad5544512763df3540df7b2ac583a43f8a67669a164c7fcc8e35ad",
          "transactionIndex": "0x65",
          "logIndex": "0xa8",
          "removed": false
        }
      ],
      "logsBloom": "0x00000000000000000000000000000000000004000100000002000000000000200000000000000000000008000000000000000000000008000000000000008000000040000000000000080008400000000000400000000000000000000000000024000000020000000000000000000800000000000000200000000010000000000000000000000000000000000008000800000000000100000000000000800000000000000000000000000100000000000000800000080000000000000000000000000002000000000000000000000000000000000000000080000000000020000000000000000000000000000000000000000000000000000001800000000000",
      "type": "0x2",
      "transactionHash": "0x14ca9ba2e5ad5544512763df3540df7b2ac583a43f8a67669a164c7fcc8e35ad",
      "transactionIndex": "0x65",
      "blockHash": "0x20ab5e7320b2ba984adccd09245d8b7544d6a070c2447308151c06c5cd80f989",
      "blockNumber": "0x7568ad",
      "gasUsed": "0x4446f",
      "effectiveGasPrice": "0x41396940",
      "from": "0x00000c771f6176268d5a9846e0956c3ef58597a1",
      "to": "0xd2a7d896d33328cf7df5beffe3a2af935d9ab5e4",
      "contractAddress": null
    }
  ],
  "libraries": [],
  "pending": [],
  "returns": {},
  "timestamp": 1739391097,
  "chain": 11155111,
  "commit": "84d25b9"
}