{
  "transactions": [
    {
      "hash": "0xee7ae3daa753bfccb88997342a1979d05821392e80886d00797e95f5f17fee0c",
      "transactionType": "CREATE",
      "contractName": "TestToken",
      "contractAddress": "0x3983da713bce9898f7a67b7f2a7ea5806593c7af",
      "function": null,
      "arguments": [
        "0x00000C771F6176268D5A9846E0956C3eF58597A1"
      ],
      "transaction": {
        "from": "0x00000c771f6176268d5a9846e0956c3ef58597a1",
        "gas": "0xbc67d",
        "value": "0x0",
        "input": "0x60803460ce57601f6109cc38819003918201601f19168301916001600160401b0383118484101760d25780849260209460405283398101031260ce57516001600160a01b038116810360ce576805345cdf77eb68f44c545f19810190811060c1576805345cdf77eb68f44c556387a211a2600c525f526020600c205f1981540190555f19602052600c5160601c5f7fddf252ad1be2c89b69c2b068fc378daa952ba7f163c4a11628f55a4df523b3ef602080a36040516108e590816100e78239f35b63e5cfe9575f526004601cfd5b5f80fd5b634e487b7160e01b5f52604160045260245ffdfe60806040526004361015610011575f80fd5b5f3560e01c806306fdde03146107cc578063095ea7b31461074357806318160ddd1461070057806323b872dd146105fb578063313ce567146105c25780633644e515146104f857806370a08231146104a85780637ecebe001461045857806395d89b41146103a1578063a9059cbb146102f4578063d505accf146100fd5763dd62ed3e1461009d575f80fd5b346100f95760407ffffffffffffffffffffffffffffffffffffffffffffffffffffffffffffffffc3601126100f9576100d461087b565b6100dc61089e565b602052637f5e9f20600c525f5260206034600c2054604051908152f35b5f80fd5b346100f95760e07ffffffffffffffffffffffffffffffffffffffffffffffffffffffffffffffffc3601126100f95761013461087b565b61013c61089e565b6084359160643560443560ff851685036100f9576101586108c1565b60208101907f54657374546f6b656e00000000000000000000000000000000000000000000008252519020908242116102e75773ffffffffffffffffffffffffffffffffffffffff80604051951695169565383775081901600e52855f5260c06020600c20958654957f8b73c3c69bb8fe3d512ecc4cf759cc79239f7b179b0ffacaa9a75d522b39400f8252602082019586528660408301967fc89efdaa54c0f20c7adf612882df0950f5a951637e0307cdcb4c672f298b8bc688528b6060850198468a528c608087019330855260a08820602e527f6e71edae12b1b97f4d1f60370fef10105fa2faae0126114a169c64845d6126c9885252528688525260a082015220604e526042602c205f5260ff1660205260a43560405260c43560605260208060805f60015afa93853d51036102da577f8c5be1e5ebec7d5bd14f71427d1e84f3dd0314c0f7b2291e5b200ac8c7c3b9259460209401905585777f5e9f200000000000000000000000000000000000000000176040526034602c2055a3005b63ddafbaef5f526004601cfd5b631a15a3cc5f526004601cfd5b346100f95760407ffffffffffffffffffffffffffffffffffffffffffffffffffffffffffffffffc3601126100f95761032b61087b565b602435906387a211a2600c52335f526020600c2080548084116103945783900390555f526020600c20818154019055602052600c5160601c337fddf252ad1be2c89b69c2b068fc378daa952ba7f163c4a11628f55a4df523b3ef602080a3602060405160018152f35b63f4d678b85f526004601cfd5b346100f9575f7ffffffffffffffffffffffffffffffffffffffffffffffffffffffffffffffffc3601126100f957604051604081019080821067ffffffffffffffff83111761042b5761042791604052600281527f5454000000000000000000000000000000000000000000000000000000000000602082015260405191829182610833565b0390f35b7f4e487b71000000000000000000000000000000000000000000000000000000005f52604160045260245ffd5b346100f95760207ffffffffffffffffffffffffffffffffffffffffffffffffffffffffffffffffc3601126100f95761048f61087b565b6338377508600c525f52602080600c2054604051908152f35b346100f95760207ffffffffffffffffffffffffffffffffffffffffffffffffffffffffffffffffc3601126100f9576104df61087b565b6387a211a2600c525f52602080600c2054604051908152f35b346100f9575f7ffffffffffffffffffffffffffffffffffffffffffffffffffffffffffffffffc3601126100f957602060a06105326108c1565b828101907f54657374546f6b656e00000000000000000000000000000000000000000000008252519020604051907f8b73c3c69bb8fe3d512ecc4cf759cc79239f7b179b0ffacaa9a75d522b39400f8252838201527fc89efdaa54c0f20c7adf612882df0950f5a951637e0307cdcb4c672f298b8bc6604082015246606082015230608082015220604051908152f35b346100f9575f7ffffffffffffffffffffffffffffffffffffffffffffffffffffffffffffffffc3601126100f957602060405160128152f35b346100f95760607ffffffffffffffffffffffffffffffffffffffffffffffffffffffffffffffffc3601126100f95761063261087b565b61063a61089e565b604435908260601b33602052637f5e9f208117600c526034600c209081549182196106dc575b506387a211a2915017600c526020600c2080548084116103945783900390555f526020600c2081815401905560205273ffffffffffffffffffffffffffffffffffffffff600c5160601c91167fddf252ad1be2c89b69c2b068fc378daa952ba7f163c4a11628f55a4df523b3ef602080a3602060405160018152f35b8285116106f357846387a211a29303905585610660565b6313be252b5f526004601cfd5b346100f9575f7ffffffffffffffffffffffffffffffffffffffffffffffffffffffffffffffffc3601126100f95760206805345cdf77eb68f44c54604051908152f35b346100f95760407ffffffffffffffffffffffffffffffffffffffffffffffffffffffffffffffffc3601126100f95761077a61087b565b60243590602052637f5e9f20600c52335f52806034600c20555f52602c5160601c337f8c5be1e5ebec7d5bd14f71427d1e84f3dd0314c0f7b2291e5b200ac8c7c3b92560205fa3602060405160018152f35b346100f9575f7ffffffffffffffffffffffffffffffffffffffffffffffffffffffffffffffffc3601126100f9576104276108056108c1565b7f54657374546f6b656e00000000000000000000000000000000000000000000006020820152604051918291825b7fffffffffffffffffffffffffffffffffffffffffffffffffffffffffffffffe0601f602060409481855280519182918282880152018686015e5f8582860101520116010190565b6004359073ffffffffffffffffffffffffffffffffffffffff821682036100f957565b6024359073ffffffffffffffffffffffffffffffffffffffff821682036100f957565b604051906040820182811067ffffffffffffffff82111761042b57604052600982525600000000000000000000000000000c771f6176268d5a9846e0956c3ef58597a1",
        "nonce": "0x2f5",
        "chainId": "0xaa36a7"
      },
      "additionalContracts": [],
      "isFixedGasLimit": false
    },
    {
      "hash": "0xe9a12bd73957b4dc0f94fb8f709071f41485cf0da5fc004470779b5ff5a6c49b",
      "transactionType": "CALL",
      "contractName": "TestToken",
      "contractAddress": "0x3983da713bce9898f7a67b7f2a7ea5806593c7af",
      "function": "approve(address,uint256)",
      "arguments": [
        "0x41612426b98238A6683d5F90c0C976D627346Be7",
        "115792089237316195423570985008687907853269984665640564039457584007913129639935"
      ],
      "transaction": {
        "from": "0x00000c771f6176268d5a9846e0956c3ef58597a1",
        "to": "0x3983da713bce9898f7a67b7f2a7ea5806593c7af",
        "gas": "0xf8eb",
        "value": "0x0",
        "input": "0x095ea7b300000000000000000000000041612426b98238a6683d5f90c0c976d627346be7ffffffffffffffffffffffffffffffffffffffffffffffffffffffffffffffff",
        "nonce": "0x2f6",
        "chainId": "0xaa36a7"
      },
      "additionalContracts": [],
      "isFixedGasLimit": false
    },
    {
      "hash": "0xe9cfbc3b6cde881cd0b90ee9d57a99f5c12cefdc03808266762442ef69a89823",
      "transactionType": "CALL",
      "contractName": "TestToken",
      "contractAddress": "0x3983da713bce9898f7a67b7f2a7ea5806593c7af",
      "function": "approve(address,uint256)",
      "arguments": [
        "0x199294d58142c76A71f0d4050c1f6bFfB7903650",
        "115792089237316195423570985008687907853269984665640564039457584007913129639935"
      ],
      "transaction": {
        "from": "0x00000c771f6176268d5a9846e0956c3ef58597a1",
        "to": "0x3983da713bce9898f7a67b7f2a7ea5806593c7af",
        "gas": "0xf8eb",
        "value": "0x0",
        "input": "0x095ea7b3000000000000000000000000199294d58142c76a71f0d4050c1f6bffb7903650ffffffffffffffffffffffffffffffffffffffffffffffffffffffffffffffff",
        "nonce": "0x2f7",
        "chainId": "0xaa36a7"
      },
      "additionalContracts": [],
      "isFixedGasLimit": false
    },
    {
      "hash": "0xe44f4568752a162e3d99fe704783ebd398ed084ffe1fec6e7ff2db71f11cf772",
      "transactionType": "CALL",
      "contractName": null,
      "contractAddress": "0x199294d58142c76a71f0d4050c1f6bffb7903650",
      "function": "multicall(bytes[])",
      "arguments": [
        "[0xf3e3246800000000000000000000000000000000000000000000000000000000000000000000000000000000000000003983da713bce9898f7a67b7f2a7ea5806593c7af000000000000000000000000000000000000000000c49ba5e353f7ce0000175e000000000000000000000000000000000000000000000000000000000081f64d, 0x9df3913dd485f4bf05672cc7157a1ded42bba2281017b6aac588e4443d9b7656948f392300000000000000000000000000000000000000000000000000000000000000000000000000000000000000003983da713bce9898f7a67b7f2a7ea5806593c7af000000000000000000000000000000000000000000c49ba5e353f7ce0000175efffffffffffffffffffffffffffffffffffffffffffffffffffffffffab6413e000000000000000000000000000000000000000000000000000000000549bec2000000000000000000000000000000000000000000000000002386f26fc10000000000000000000000000000000000000000000000000002b5e3af16b18800000000000000000000000000000000000000000000000000000000000000000000, 0x41865270]"
      ],
      "transaction": {
        "from": "0x00000c771f6176268d5a9846e0956c3ef58597a1",
        "to": "0x199294d58142c76a71f0d4050c1f6bffb7903650",
        "gas": "0x6950f",
        "value": "0x2386f26fc10000",
        "input": "0xac9650d8000000000000000000000000000000000000000000000000000000000000002000000000000000000000000000000000000000000000000000000000000000030000000000000000000000000000000000000000000000000000000000000060000000000000000000000000000000000000000000000000000000000000012000000000000000000000000000000000000000000000000000000000000002800000000000000000000000000000000000000000000000000000000000000084f3e3246800000000000000000000000000000000000000000000000000000000000000000000000000000000000000003983da713bce9898f7a67b7f2a7ea5806593c7af000000000000000000000000000000000000000000c49ba5e353f7ce0000175e000000000000000000000000000000000000000000000000000000000081f64d0000000000000000000000000000000000000000000000000000000000000000000000000000000000000000000000000000000000000000000001249df3913dd485f4bf05672cc7157a1ded42bba2281017b6aac588e4443d9b7656948f392300000000000000000000000000000000000000000000000000000000000000000000000000000000000000003983da713bce9898f7a67b7f2a7ea5806593c7af000000000000000000000000000000000000000000c49ba5e353f7ce0000175efffffffffffffffffffffffffffffffffffffffffffffffffffffffffab6413e000000000000000000000000000000000000000000000000000000000549bec2000000000000000000000000000000000000000000000000002386f26fc10000000000000000000000000000000000000000000000000002b5e3af16b188000000000000000000000000000000000000000000000000000000000000000000000000000000000000000000000000000000000000000000000000000000000000000000000000000000000000000000000000000000000000000000044186527000000000000000000000000000000000000000000000000000000000",
        "nonce": "0x2f8",
        "chainId": "0xaa36a7"
      },
      "additionalContracts": [],
      "isFixedGasLimit": false
    },
    {
      "hash": "0x13fefc83da858491421bd6fcdaaf00220c2c4314b2b6f684eb26deba96ecc7ae",
      "transactionType": "CALL",
      "contractName": null,
      "contractAddress": "0x41612426b98238a6683d5f90c0c976d627346be7",
      "function": "swap((address,address,bytes32),bool,int128,uint96,uint256)",
      "arguments": [
        "(0x0000000000000000000000000000000000000000, 0x3983Da713BCE9898F7a67b7F2A7EA5806593C7Af, 0x000000000000000000000000000000000000000000c49ba5e353f7ce0000175e)",
        "false",
        "100000",
        "0",
        "0"
      ],
      "transaction": {
        "from": "0x00000c771f6176268d5a9846e0956c3ef58597a1",
        "to": "0x41612426b98238a6683d5f90c0c976d627346be7",
        "gas": "0x208b4",
        "value": "0x186a0",
        "input": "0x06b81a1500000000000000000000000000000000000000000000000000000000000000000000000000000000000000003983da713bce9898f7a67b7f2a7ea5806593c7af000000000000000000000000000000000000000000c49ba5e353f7ce0000175e000000000000000000000000000000000000000000000000000000000000000000000000000000000000000000000000000000000000000000000000000186a000000000000000000000000000000000000000000000000000000000000000000000000000000000000000000000000000000000000000000000000000000000",
        "nonce": "0x2f9",
        "chainId": "0xaa36a7"
      },
      "additionalContracts": [],
      "isFixedGasLimit": false
    },
    {
      "hash": "0x954bb36ffd19116005810546d9769eaad32766506c49f12682953560c0f4624b",
      "transactionType": "CALL",
      "contractName": null,
      "contractAddress": "0x41612426b98238a6683d5f90c0c976d627346be7",
      "function": "swap((address,address,bytes32),bool,int128,uint96,uint256)",
      "arguments": [
        "(0x0000000000000000000000000000000000000000, 0x3983Da713BCE9898F7a67b7F2A7EA5806593C7Af, 0x000000000000000000000000000000000000000000c49ba5e353f7ce0000175e)",
        "true",
        "500000000",
        "0",
        "0"
      ],
      "transaction": {
        "from": "0x00000c771f6176268d5a9846e0956c3ef58597a1",
        "to": "0x41612426b98238a6683d5f90c0c976d627346be7",
        "gas": "0x24c70",
        "value": "0x0",
        "input": "0x06b81a1500000000000000000000000000000000000000000000000000000000000000000000000000000000000000003983da713bce9898f7a67b7f2a7ea5806593c7af000000000000000000000000000000000000000000c49ba5e353f7ce0000175e0000000000000000000000000000000000000000000000000000000000000001000000000000000000000000000000000000000000000000000000001dcd650000000000000000000000000000000000000000000000000000000000000000000000000000000000000000000000000000000000000000000000000000000000",
        "nonce": "0x2fa",
        "chainId": "0xaa36a7"
      },
      "additionalContracts": [],
      "isFixedGasLimit": false
    },
    {
      "hash": "0x0591a46e598d147bb1a8458b35abb3c2d76dea3fe9d9436533b8cf56930a6157",
      "transactionType": "CALL",
      "contractName": null,
      "contractAddress": "0x41612426b98238a6683d5f90c0c976d627346be7",
      "function": "swap((address,address,bytes32),bool,int128,uint96,uint256)",
      "arguments": [
        "(0x0000000000000000000000000000000000000000, 0x3983Da713BCE9898F7a67b7F2A7EA5806593C7Af, 0x000000000000000000000000000000000000000000c49ba5e353f7ce0000175e)",
        "false",
        "100000",
        "0",
        "0"
      ],
      "transaction": {
        "from": "0x00000c771f6176268d5a9846e0956c3ef58597a1",
        "to": "0x41612426b98238a6683d5f90c0c976d627346be7",
        "gas": "0x1ac72",
        "value": "0x186a0",
        "input": "0x06b81a1500000000000000000000000000000000000000000000000000000000000000000000000000000000000000003983da713bce9898f7a67b7f2a7ea5806593c7af000000000000000000000000000000000000000000c49ba5e353f7ce0000175e000000000000000000000000000000000000000000000000000000000000000000000000000000000000000000000000000000000000000000000000000186a000000000000000000000000000000000000000000000000000000000000000000000000000000000000000000000000000000000000000000000000000000000",
        "nonce": "0x2fb",
        "chainId": "0xaa36a7"
      },
      "additionalContracts": [],
      "isFixedGasLimit": false
    },
    {
      "hash": "0x962c835c75b261d0a8c2a1cc66b4a9dd23105de204a122fcbadad26d2d118cc0",
      "transactionType": "CALL",
      "contractName": null,
      "contractAddress": "0x41612426b98238a6683d5f90c0c976d627346be7",
      "function": "swap((address,address,bytes32),bool,int128,uint96,uint256)",
      "arguments": [
        "(0x0000000000000000000000000000000000000000, 0x3983Da713BCE9898F7a67b7F2A7EA5806593C7Af, 0x000000000000000000000000000000000000000000c49ba5e353f7ce0000175e)",
        "true",
        "500000000",
        "0",
        "0"
      ],
      "transaction": {
        "from": "0x00000c771f6176268d5a9846e0956c3ef58597a1",
        "to": "0x41612426b98238a6683d5f90c0c976d627346be7",
        "gas": "0x1cf7b",
        "value": "0x0",
        "input": "0x06b81a1500000000000000000000000000000000000000000000000000000000000000000000000000000000000000003983da713bce9898f7a67b7f2a7ea5806593c7af000000000000000000000000000000000000000000c49ba5e353f7ce0000175e0000000000000000000000000000000000000000000000000000000000000001000000000000000000000000000000000000000000000000000000001dcd650000000000000000000000000000000000000000000000000000000000000000000000000000000000000000000000000000000000000000000000000000000000",
        "nonce": "0x2fc",
        "chainId": "0xaa36a7"
      },
      "additionalContracts": [],
      "isFixedGasLimit": false
    },
    {
      "hash": "0x90e4cdd82d8367129e79e0a141bd3c96980a028a83b2c884128977d0e4e99241",
      "transactionType": "CALL",
      "contractName": null,
      "contractAddress": "0x199294d58142c76a71f0d4050c1f6bffb7903650",
      "function": "multicall(bytes[])",
      "arguments": [
        "[0xf3e3246800000000000000000000000000000000000000000000000000000000000000000000000000000000000000003983da713bce9898f7a67b7f2a7ea5806593c7af000000000000000000000000000000000000000000c49ba5e353f7ce00000000000000000000000000000000000000000000000000000000000000000081f64d, 0x9df3913dd485f4bf05672cc7157a1ded42bba2281017b6aac588e4443d9b7656948f392400000000000000000000000000000000000000000000000000000000000000000000000000000000000000003983da713bce9898f7a67b7f2a7ea5806593c7af000000000000000000000000000000000000000000c49ba5e353f7ce00000000fffffffffffffffffffffffffffffffffffffffffffffffffffffffffab6326d000000000000000000000000000000000000000000000000000000000549cd93000000000000000000000000000000000000000000000000002386f26fc10000000000000000000000000000000000000000000000000002b5e3af16b18800000000000000000000000000000000000000000000000000000000000000000000, 0x41865270]"
      ],
      "transaction": {
        "from": "0x00000c771f6176268d5a9846e0956c3ef58597a1",
        "to": "0x199294d58142c76a71f0d4050c1f6bffb7903650",
        "gas": "0x3f7aa",
        "value": "0x2386f26fc10000",
        "input": "0xac9650d8000000000000000000000000000000000000000000000000000000000000002000000000000000000000000000000000000000000000000000000000000000030000000000000000000000000000000000000000000000000000000000000060000000000000000000000000000000000000000000000000000000000000012000000000000000000000000000000000000000000000000000000000000002800000000000000000000000000000000000000000000000000000000000000084f3e3246800000000000000000000000000000000000000000000000000000000000000000000000000000000000000003983da713bce9898f7a67b7f2a7ea5806593c7af000000000000000000000000000000000000000000c49ba5e353f7ce00000000000000000000000000000000000000000000000000000000000000000081f64d0000000000000000000000000000000000000000000000000000000000000000000000000000000000000000000000000000000000000000000001249df3913dd485f4bf05672cc7157a1ded42bba2281017b6aac588e4443d9b7656948f392400000000000000000000000000000000000000000000000000000000000000000000000000000000000000003983da713bce9898f7a67b7f2a7ea5806593c7af000000000000000000000000000000000000000000c49ba5e353f7ce00000000fffffffffffffffffffffffffffffffffffffffffffffffffffffffffab6326d000000000000000000000000000000000000000000000000000000000549cd93000000000000000000000000000000000000000000000000002386f26fc10000000000000000000000000000000000000000000000000002b5e3af16b188000000000000000000000000000000000000000000000000000000000000000000000000000000000000000000000000000000000000000000000000000000000000000000000000000000000000000000000000000000000000000000044186527000000000000000000000000000000000000000000000000000000000",
        "nonce": "0x2fd",
        "chainId": "0xaa36a7"
      },
      "additionalContracts": [],
      "isFixedGasLimit": false
    },
    {
      "hash": "0xd7c5fb8ffd4e10419cb93dc2fb5e1b00132d26214aafd86c5b21666a706ef57b",
      "transactionType": "CALL",
      "contractName": null,
      "contractAddress": "0x41612426b98238a6683d5f90c0c976d627346be7",
      "function": "swap((address,address,bytes32),bool,int128,uint96,uint256)",
      "arguments": [
        "(0x0000000000000000000000000000000000000000, 0x3983Da713BCE9898F7a67b7F2A7EA5806593C7Af, 0x000000000000000000000000000000000000000000c49ba5e353f7ce00000000)",
        "false",
        "100000",
        "0",
        "0"
      ],
      "transaction": {
        "from": "0x00000c771f6176268d5a9846e0956c3ef58597a1",
        "to": "0x41612426b98238a6683d5f90c0c976d627346be7",
        "gas": "0x1f390",
        "value": "0x186a0",
        "input": "0x06b81a1500000000000000000000000000000000000000000000000000000000000000000000000000000000000000003983da713bce9898f7a67b7f2a7ea5806593c7af000000000000000000000000000000000000000000c49ba5e353f7ce00000000000000000000000000000000000000000000000000000000000000000000000000000000000000000000000000000000000000000000000000000000000186a000000000000000000000000000000000000000000000000000000000000000000000000000000000000000000000000000000000000000000000000000000000",
        "nonce": "0x2fe",
        "chainId": "0xaa36a7"
      },
      "additionalContracts": [],
      "isFixedGasLimit": false
    },
    {
      "hash": "0xbb1162a91f18962e8cce85993a78824b9b4bbbc39aae8d6f9d8d907209364c17",
      "transactionType": "CALL",
      "contractName": null,
      "contractAddress": "0x41612426b98238a6683d5f90c0c976d627346be7",
      "function": "swap((address,address,bytes32),bool,int128,uint96,uint256)",
      "arguments": [
        "(0x0000000000000000000000000000000000000000, 0x3983Da713BCE9898F7a67b7F2A7EA5806593C7Af, 0x000000000000000000000000000000000000000000c49ba5e353f7ce00000000)",
        "true",
        "500000000",
        "0",
        "0"
      ],
      "transaction": {
        "from": "0x00000c771f6176268d5a9846e0956c3ef58597a1",
        "to": "0x41612426b98238a6683d5f90c0c976d627346be7",
        "gas": "0x216d5",
        "value": "0x0",
        "input": "0x06b81a1500000000000000000000000000000000000000000000000000000000000000000000000000000000000000003983da713bce9898f7a67b7f2a7ea5806593c7af000000000000000000000000000000000000000000c49ba5e353f7ce000000000000000000000000000000000000000000000000000000000000000000000001000000000000000000000000000000000000000000000000000000001dcd650000000000000000000000000000000000000000000000000000000000000000000000000000000000000000000000000000000000000000000000000000000000",
        "nonce": "0x2ff",
        "chainId": "0xaa36a7"
      },
      "additionalContracts": [],
      "isFixedGasLimit": false
    },
    {
      "hash": "0x9be6e329d9b29df6306ebd29c313d086f2acb4765bd8bbc84e40e87cbeab340e",
      "transactionType": "CALL",
      "contractName": null,
      "contractAddress": "0x41612426b98238a6683d5f90c0c976d627346be7",
      "function": "swap((address,address,bytes32),bool,int128,uint96,uint256)",
      "arguments": [
        "(0x0000000000000000000000000000000000000000, 0x3983Da713BCE9898F7a67b7F2A7EA5806593C7Af, 0x000000000000000000000000000000000000000000c49ba5e353f7ce00000000)",
        "false",
        "100000",
        "0",
        "0"
      ],
      "transaction": {
        "from": "0x00000c771f6176268d5a9846e0956c3ef58597a1",
        "to": "0x41612426b98238a6683d5f90c0c976d627346be7",
        "gas": "0x1af43",
        "value": "0x186a0",
        "input": "0x06b81a1500000000000000000000000000000000000000000000000000000000000000000000000000000000000000003983da713bce9898f7a67b7f2a7ea5806593c7af000000000000000000000000000000000000000000c49ba5e353f7ce00000000000000000000000000000000000000000000000000000000000000000000000000000000000000000000000000000000000000000000000000000000000186a000000000000000000000000000000000000000000000000000000000000000000000000000000000000000000000000000000000000000000000000000000000",
        "nonce": "0x300",
        "chainId": "0xaa36a7"
      },
      "additionalContracts": [],
      "isFixedGasLimit": false
    },
    {
      "hash": "0xb7a3efdabdd96b972c816f17cf5c9ee31d04ccd996caaf3db36945f597a75017",
      "transactionType": "CALL",
      "contractName": null,
      "contractAddress": "0x41612426b98238a6683d5f90c0c976d627346be7",
      "function": "swap((address,address,bytes32),bool,int128,uint96,uint256)",
      "arguments": [
        "(0x0000000000000000000000000000000000000000, 0x3983Da713BCE9898F7a67b7F2A7EA5806593C7Af, 0x000000000000000000000000000000000000000000c49ba5e353f7ce00000000)",
        "true",
        "500000000",
        "0",
        "0"
      ],
      "transaction": {
        "from": "0x00000c771f6176268d5a9846e0956c3ef58597a1",
        "to": "0x41612426b98238a6683d5f90c0c976d627346be7",
        "gas": "0x1d49a",
        "value": "0x0",
        "input": "0x06b81a1500000000000000000000000000000000000000000000000000000000000000000000000000000000000000003983da713bce9898f7a67b7f2a7ea5806593c7af000000000000000000000000000000000000000000c49ba5e353f7ce000000000000000000000000000000000000000000000000000000000000000000000001000000000000000000000000000000000000000000000000000000001dcd650000000000000000000000000000000000000000000000000000000000000000000000000000000000000000000000000000000000000000000000000000000000",
        "nonce": "0x301",
        "chainId": "0xaa36a7"
      },
      "additionalContracts": [],
      "isFixedGasLimit": false
    },
    {
      "hash": "0xd81f3c2915067532173cf06b4116b91bf68047322ae7b2b2d2b9b6e040fa5959",
      "transactionType": "CALL",
      "contractName": null,
      "contractAddress": "0x199294d58142c76a71f0d4050c1f6bffb7903650",
      "function": "multicall(bytes[])",
      "arguments": [
        "[0xf3e3246800000000000000000000000000000000000000000000000000000000000000000000000000000000000000003983da713bce9898f7a67b7f2a7ea5806593c7af511cca7a9e8f4fff1758c20e950a7b48e75c7d8f00000000000000000000000000000000000000000000000000000000000000000000000000000000004644f4, 0x9df3913dd485f4bf05672cc7157a1ded42bba2281017b6aac588e4443d9b7656948f392500000000000000000000000000000000000000000000000000000000000000000000000000000000000000003983da713bce9898f7a67b7f2a7ea5806593c7af511cca7a9e8f4fff1758c20e950a7b48e75c7d8f000000000000000000000000fffffffffffffffffffffffffffffffffffffffffffffffffffffffffab6326d000000000000000000000000000000000000000000000000000000000549cd93000000000000000000000000000000000000000000000000002386f26fc100000000000000000000000000000000000000000000000000000de0b6b3a76400000000000000000000000000000000000000000000000000000000000000000000, 0x41865270]"
      ],
      "transaction": {
        "from": "0x00000c771f6176268d5a9846e0956c3ef58597a1",
        "to": "0x199294d58142c76a71f0d4050c1f6bffb7903650",
        "gas": "0x4eb2a",
        "value": "0x2386f26fc10000",
        "input": "0xac9650d8000000000000000000000000000000000000000000000000000000000000002000000000000000000000000000000000000000000000000000000000000000030000000000000000000000000000000000000000000000000000000000000060000000000000000000000000000000000000000000000000000000000000012000000000000000000000000000000000000000000000000000000000000002800000000000000000000000000000000000000000000000000000000000000084f3e3246800000000000000000000000000000000000000000000000000000000000000000000000000000000000000003983da713bce9898f7a67b7f2a7ea5806593c7af511cca7a9e8f4fff1758c20e950a7b48e75c7d8f00000000000000000000000000000000000000000000000000000000000000000000000000000000004644f40000000000000000000000000000000000000000000000000000000000000000000000000000000000000000000000000000000000000000000001249df3913dd485f4bf05672cc7157a1ded42bba2281017b6aac588e4443d9b7656948f392500000000000000000000000000000000000000000000000000000000000000000000000000000000000000003983da713bce9898f7a67b7f2a7ea5806593c7af511cca7a9e8f4fff1758c20e950a7b48e75c7d8f000000000000000000000000fffffffffffffffffffffffffffffffffffffffffffffffffffffffffab6326d000000000000000000000000000000000000000000000000000000000549cd93000000000000000000000000000000000000000000000000002386f26fc100000000000000000000000000000000000000000000000000000de0b6b3a764000000000000000000000000000000000000000000000000000000000000000000000000000000000000000000000000000000000000000000000000000000000000000000000000000000000000000000000000000000000000000000044186527000000000000000000000000000000000000000000000000000000000",
        "nonce": "0x302",
        "chainId": "0xaa36a7"
      },
      "additionalContracts": [],
      "isFixedGasLimit": false
    },
    {
      "hash": "0x19be8c282872308e870b80fe997f1c69357c1db67da9db1028c7eddf829479d6",
      "transactionType": "CALL",
      "contractName": null,
      "contractAddress": "0x41612426b98238a6683d5f90c0c976d627346be7",
      "function": "swap((address,address,bytes32),bool,int128,uint96,uint256)",
      "arguments": [
        "(0x0000000000000000000000000000000000000000, 0x3983Da713BCE9898F7a67b7F2A7EA5806593C7Af, 0x511cca7a9e8f4fff1758c20e950a7b48e75c7d8f000000000000000000000000)",
        "false",
        "100000",
        "0",
        "0"
      ],
      "transaction": {
        "from": "0x00000c771f6176268d5a9846e0956c3ef58597a1",
        "to": "0x41612426b98238a6683d5f90c0c976d627346be7",
        "gas": "0x1c540",
        "value": "0x186a0",
        "input": "0x06b81a1500000000000000000000000000000000000000000000000000000000000000000000000000000000000000003983da713bce9898f7a67b7f2a7ea5806593c7af511cca7a9e8f4fff1758c20e950a7b48e75c7d8f000000000000000000000000000000000000000000000000000000000000000000000000000000000000000000000000000000000000000000000000000000000000000000000000000186a000000000000000000000000000000000000000000000000000000000000000000000000000000000000000000000000000000000000000000000000000000000",
        "nonce": "0x303",
        "chainId": "0xaa36a7"
      },
      "additionalContracts": [],
      "isFixedGasLimit": false
    },
    {
      "hash": "0x9640bb1710a7c2628e7e7c3e68e770f7457183b5672bd65bcb0cd78ed18bc88b",
      "transactionType": "CALL",
      "contractName": null,
      "contractAddress": "0x41612426b98238a6683d5f90c0c976d627346be7",
      "function": "swap((address,address,bytes32),bool,int128,uint96,uint256)",
      "arguments": [
        "(0x0000000000000000000000000000000000000000, 0x3983Da713BCE9898F7a67b7F2A7EA5806593C7Af, 0x511cca7a9e8f4fff1758c20e950a7b48e75c7d8f000000000000000000000000)",
        "true",
        "500000000",
        "0",
        "0"
      ],
      "transaction": {
        "from": "0x00000c771f6176268d5a9846e0956c3ef58597a1",
        "to": "0x41612426b98238a6683d5f90c0c976d627346be7",
        "gas": "0x1ea97",
        "value": "0x0",
        "input": "0x06b81a1500000000000000000000000000000000000000000000000000000000000000000000000000000000000000003983da713bce9898f7a67b7f2a7ea5806593c7af511cca7a9e8f4fff1758c20e950a7b48e75c7d8f0000000000000000000000000000000000000000000000000000000000000000000000000000000000000001000000000000000000000000000000000000000000000000000000001dcd650000000000000000000000000000000000000000000000000000000000000000000000000000000000000000000000000000000000000000000000000000000000",
        "nonce": "0x304",
        "chainId": "0xaa36a7"
      },
      "additionalContracts": [],
      "isFixedGasLimit": false
    },
    {
      "hash": "0xb00c0abf7fc3a218291386a12cc68179db3902ca45c53962fbb6eff45a725156",
      "transactionType": "CALL",
      "contractName": null,
      "contractAddress": "0x41612426b98238a6683d5f90c0c976d627346be7",
      "function": "swap((address,address,bytes32),bool,int128,uint96,uint256)",
      "arguments": [
        "(0x0000000000000000000000000000000000000000, 0x3983Da713BCE9898F7a67b7F2A7EA5806593C7Af, 0x511cca7a9e8f4fff1758c20e950a7b48e75c7d8f000000000000000000000000)",
        "false",
        "100000",
        "0",
        "0"
      ],
      "transaction": {
        "from": "0x00000c771f6176268d5a9846e0956c3ef58597a1",
        "to": "0x41612426b98238a6683d5f90c0c976d627346be7",
        "gas": "0x1ac17",
        "value": "0x186a0",
        "input": "0x06b81a1500000000000000000000000000000000000000000000000000000000000000000000000000000000000000003983da713bce9898f7a67b7f2a7ea5806593c7af511cca7a9e8f4fff1758c20e950a7b48e75c7d8f000000000000000000000000000000000000000000000000000000000000000000000000000000000000000000000000000000000000000000000000000000000000000000000000000186a000000000000000000000000000000000000000000000000000000000000000000000000000000000000000000000000000000000000000000000000000000000",
        "nonce": "0x305",
        "chainId": "0xaa36a7"
      },
      "additionalContracts": [],
      "isFixedGasLimit": false
    },
    {
      "hash": "0x648bd931f0fb1163b67b9745e9602cdafc321f543864cd622d40e88ef7330def",
      "transactionType": "CALL",
      "contractName": null,
      "contractAddress": "0x41612426b98238a6683d5f90c0c976d627346be7",
      "function": "swap((address,address,bytes32),bool,int128,uint96,uint256)",
      "arguments": [
        "(0x0000000000000000000000000000000000000000, 0x3983Da713BCE9898F7a67b7F2A7EA5806593C7Af, 0x511cca7a9e8f4fff1758c20e950a7b48e75c7d8f000000000000000000000000)",
        "true",
        "500000000",
        "0",
        "0"
      ],
      "transaction": {
        "from": "0x00000c771f6176268d5a9846e0956c3ef58597a1",
        "to": "0x41612426b98238a6683d5f90c0c976d627346be7",
        "gas": "0x1ea97",
        "value": "0x0",
        "input": "0x06b81a1500000000000000000000000000000000000000000000000000000000000000000000000000000000000000003983da713bce9898f7a67b7f2a7ea5806593c7af511cca7a9e8f4fff1758c20e950a7b48e75c7d8f0000000000000000000000000000000000000000000000000000000000000000000000000000000000000001000000000000000000000000000000000000000000000000000000001dcd650000000000000000000000000000000000000000000000000000000000000000000000000000000000000000000000000000000000000000000000000000000000",
        "nonce": "0x306",
        "chainId": "0xaa36a7"
      },
      "additionalContracts": [],
      "isFixedGasLimit": false
    },
    {
      "hash": "0x2cd1ae9490e927683fb9d045b7585d15482591e04b1ef960730a70a70e30485c",
      "transactionType": "CALL",
      "contractName": null,
      "contractAddress": "0x199294d58142c76a71f0d4050c1f6bffb7903650",
      "function": "multicall(bytes[])",
      "arguments": [
        "[0xf3e3246800000000000000000000000000000000000000000000000000000000000000000000000000000000000000003983da713bce9898f7a67b7f2a7ea5806593c7af0000000000000000000000000000000000000000028f5c28f5c28f5c00004d5a000000000000000000000000000000000000000000000000000000000081f64d, 0x9df3913dd485f4bf05672cc7157a1ded42bba2281017b6aac588e4443d9b7656948f392600000000000000000000000000000000000000000000000000000000000000000000000000000000000000003983da713bce9898f7a67b7f2a7ea5806593c7af0000000000000000000000000000000000000000028f5c28f5c28f5c00004d5afffffffffffffffffffffffffffffffffffffffffffffffffffffffffab65900000000000000000000000000000000000000000000000000000000000549a700000000000000000000000000000000000000000000000000006a94d74f43000000000000000000000000000000000000000000000000001043561a88293000000000000000000000000000000000000000000000000000000000000000000000, 0x41865270]"
      ],
      "transaction": {
        "from": "0x00000c771f6176268d5a9846e0956c3ef58597a1",
        "to": "0x199294d58142c76a71f0d4050c1f6bffb7903650",
        "gas": "0x5d9c4",
        "value": "0x6a94d74f430000",
        "input": "0xac9650d8000000000000000000000000000000000000000000000000000000000000002000000000000000000000000000000000000000000000000000000000000000030000000000000000000000000000000000000000000000000000000000000060000000000000000000000000000000000000000000000000000000000000012000000000000000000000000000000000000000000000000000000000000002800000000000000000000000000000000000000000000000000000000000000084f3e3246800000000000000000000000000000000000000000000000000000000000000000000000000000000000000003983da713bce9898f7a67b7f2a7ea5806593c7af0000000000000000000000000000000000000000028f5c28f5c28f5c00004d5a000000000000000000000000000000000000000000000000000000000081f64d0000000000000000000000000000000000000000000000000000000000000000000000000000000000000000000000000000000000000000000001249df3913dd485f4bf05672cc7157a1ded42bba2281017b6aac588e4443d9b7656948f392600000000000000000000000000000000000000000000000000000000000000000000000000000000000000003983da713bce9898f7a67b7f2a7ea5806593c7af0000000000000000000000000000000000000000028f5c28f5c28f5c00004d5afffffffffffffffffffffffffffffffffffffffffffffffffffffffffab65900000000000000000000000000000000000000000000000000000000000549a700000000000000000000000000000000000000000000000000006a94d74f43000000000000000000000000000000000000000000000000001043561a882930000000000000000000000000000000000000000000000000000000000000000000000000000000000000000000000000000000000000000000000000000000000000000000000000000000000000000000000000000000000000000000044186527000000000000000000000000000000000000000000000000000000000",
        "nonce": "0x307",
        "chainId": "0xaa36a7"
      },
      "additionalContracts": [],
      "isFixedGasLimit": false
    }
  ],
  "receipts": [
    {
      "status": "0x1",
      "cumulativeGasUsed": "0x78df68",
      "logs": [
        {
          "address": "0x3983da713bce9898f7a67b7f2a7ea5806593c7af",
          "topics": [
            "0xddf252ad1be2c89b69c2b068fc378daa952ba7f163c4a11628f55a4df523b3ef",
            "0x0000000000000000000000000000000000000000000000000000000000000000",
            "0x00000000000000000000000000000c771f6176268d5a9846e0956c3ef58597a1"
          ],
          "data": "0xffffffffffffffffffffffffffffffffffffffffffffffffffffffffffffffff",
          "blockHash": "0x307cfe6100dc70f41f2d98738d0d31b9a0f0c6514028413e0d84007e0057faa7",
          "blockNumber": "0x7693ac",
          "transactionHash": "0xee7ae3daa753bfccb88997342a1979d05821392e80886d00797e95f5f17fee0c",
          "transactionIndex": "0x59",
          "logIndex": "0x53",
          "removed": false
        }
      ],
      "logsBloom": "0x00000000000000000000020000000000000004000000000000000000000000200000000000000000000000000000000000000000000000000000000000000000000000000000000000000008000000000000000000000000000000000010000000000000020000000000000000000800000000000000000000000010000000000000000000000000000000000000000000000000000100000000000000000000000000000000000000000000000000000000000000000000000000000000000000000002000000000000000000000000000000000000000000000000000020000000000000000000000000000000000000000000000000000800000000000000",
      "type": "0x2",
      "transactionHash": "0xee7ae3daa753bfccb88997342a1979d05821392e80886d00797e95f5f17fee0c",
      "transactionIndex": "0x59",
      "blockHash": "0x307cfe6100dc70f41f2d98738d0d31b9a0f0c6514028413e0d84007e0057faa7",
      "blockNumber": "0x7693ac",
      "gasUsed": "0x90ed7",
      "effectiveGasPrice": "0x15f354d0",
      "from": "0x00000c771f6176268d5a9846e0956c3ef58597a1",
      "to": null,
      "contractAddress": "0x3983da713bce9898f7a67b7f2a7ea5806593c7af"
    },
    {
      "status": "0x1",
      "cumulativeGasUsed": "0x69b456",
      "logs": [
        {
          "address": "0x3983da713bce9898f7a67b7f2a7ea5806593c7af",
          "topics": [
            "0x8c5be1e5ebec7d5bd14f71427d1e84f3dd0314c0f7b2291e5b200ac8c7c3b925",
            "0x00000000000000000000000000000c771f6176268d5a9846e0956c3ef58597a1",
            "0x00000000000000000000000041612426b98238a6683d5f90c0c976d627346be7"
          ],
          "data": "0xffffffffffffffffffffffffffffffffffffffffffffffffffffffffffffffff",
          "blockHash": "0x8a587ddf06c09868f088d89dc98089a00f689ccccab8264eb6b9b9a72a81df37",
          "blockNumber": "0x7693ad",
          "transactionHash": "0xe9a12bd73957b4dc0f94fb8f709071f41485cf0da5fc004470779b5ff5a6c49b",
          "transactionIndex": "0x47",
          "logIndex": "0x6d",
          "removed": false
        }
      ],
      "logsBloom": "0x00000800000000000000020000000000000004000000000000000000000000200000000000000000000000000000000000000000000000000000000000200000000000000000000000000000000000000000000000000000000000000010040000000000000000000000000000000000000000000000000000000000000000000000000000000000000000000000000000000000000100000000000000000000020000000000000000000000000000000000001000000000000000000000000000000000000000000000000000000000000000000000000000000000000000000010000000000000000000000000000000000000000000000800000000000000",
      "type": "0x2",
      "transactionHash": "0xe9a12bd73957b4dc0f94fb8f709071f41485cf0da5fc004470779b5ff5a6c49b",
      "transactionIndex": "0x47",
      "blockHash": "0x8a587ddf06c09868f088d89dc98089a00f689ccccab8264eb6b9b9a72a81df37",
      "blockNumber": "0x7693ad",
      "gasUsed": "0xb437",
      "effectiveGasPrice": "0x159024b9",
      "from": "0x00000c771f6176268d5a9846e0956c3ef58597a1",
      "to": "0x3983da713bce9898f7a67b7f2a7ea5806593c7af",
      "contractAddress": null
    },
    {
      "status": "0x1",
      "cumulativeGasUsed": "0x954251",
      "logs": [
        {
          "address": "0x3983da713bce9898f7a67b7f2a7ea5806593c7af",
          "topics": [
            "0x8c5be1e5ebec7d5bd14f71427d1e84f3dd0314c0f7b2291e5b200ac8c7c3b925",
            "0x00000000000000000000000000000c771f6176268d5a9846e0956c3ef58597a1",
            "0x000000000000000000000000199294d58142c76a71f0d4050c1f6bffb7903650"
          ],
          "data": "0xffffffffffffffffffffffffffffffffffffffffffffffffffffffffffffffff",
          "blockHash": "0xc193b6e3718a59d8bdaae99f1fc7fc8ce147ec4d15e4ed707a151412e09ba92d",
          "blockNumber": "0x7693ae",
          "transactionHash": "0xe9cfbc3b6cde881cd0b90ee9d57a99f5c12cefdc03808266762442ef69a89823",
          "transactionIndex": "0x63",
          "logIndex": "0x7f",
          "removed": false
        }
      ],
      "logsBloom": "0x00000000000000000000020000000000000004000000000000000000000000200000000000000000000000000000000000000000000000000000000000200000000000000000000000000000020000000000000000000000000000000010000000000000000000000000000000000000000000000000000000000000000000000000000000000000000000000000000000000000000100000000000000000000020000000000000000000000000000000000000000000000000000000000000000000004000000000000000000000000000000000000000000000000000000000010000000020000000000000000000000000000000000000800000000000000",
      "type": "0x2",
      "transactionHash": "0xe9cfbc3b6cde881cd0b90ee9d57a99f5c12cefdc03808266762442ef69a89823",
      "transactionIndex": "0x63",
      "blockHash": "0xc193b6e3718a59d8bdaae99f1fc7fc8ce147ec4d15e4ed707a151412e09ba92d",
      "blockNumber": "0x7693ae",
      "gasUsed": "0xb437",
      "effectiveGasPrice": "0x1467a315",
      "from": "0x00000c771f6176268d5a9846e0956c3ef58597a1",
      "to": "0x3983da713bce9898f7a67b7f2a7ea5806593c7af",
      "contractAddress": null
    },
    {
      "status": "0x1",
      "cumulativeGasUsed": "0x99b118",
      "logs": [
        {
          "address": "0x329a537e8e8075235e84cffd37c8fa2bfd520fa0",
          "topics": [
            "0x5e4688b340694b7c7fd30047fd082117dc46e32acfbf81a44bb1fac0ae65154d"
          ],
          "data": "0x70246f58712d4dd0c8035d4bf59ed5806de8102c00b832c1c29e0fb61725388400000000000000000000000000000000000000000000000000000000000000000000000000000000000000003983da713bce9898f7a67b7f2a7ea5806593c7af000000000000000000000000000000000000000000c49ba5e353f7ce0000175e000000000000000000000000000000000000000000000000000000000081f64d000000000000000000000000000000000000000080000011ad7b7d57d2db6557",
          "blockHash": "0xd1f41fbd462aa9f47fe2dcb2bf8c7fd5afec3bb316dbea93dd89c91c81e38e3d",
          "blockNumber": "0x7693af",
          "transactionHash": "0xe44f4568752a162e3d99fe704783ebd398ed084ffe1fec6e7ff2db71f11cf772",
          "transactionIndex": "0x6e",
          "logIndex": "0xc3",
          "removed": false
        },
        {
          "address": "0x199294d58142c76a71f0d4050c1f6bffb7903650",
          "topics": [
            "0xddf252ad1be2c89b69c2b068fc378daa952ba7f163c4a11628f55a4df523b3ef",
            "0x0000000000000000000000000000000000000000000000000000000000000000",
            "0x00000000000000000000000000000c771f6176268d5a9846e0956c3ef58597a1",
            "0x000000000000000000000000000000000000000000000000000049c41ce65cf1"
          ],
          "data": "0x",
          "blockHash": "0xd1f41fbd462aa9f47fe2dcb2bf8c7fd5afec3bb316dbea93dd89c91c81e38e3d",
          "blockNumber": "0x7693af",
          "transactionHash": "0xe44f4568752a162e3d99fe704783ebd398ed084ffe1fec6e7ff2db71f11cf772",
          "transactionIndex": "0x6e",
          "logIndex": "0xc4",
          "removed": false
        },
        {
          "address": "0x329a537e8e8075235e84cffd37c8fa2bfd520fa0",
          "topics": [
            "0xa2d4008be4187c63684f323788e131e1370dbc2205499befe2834005a00c792c"
          ],
          "data": "0x000000000000000000000000199294d58142c76a71f0d4050c1f6bffb790365070246f58712d4dd0c8035d4bf59ed5806de8102c00b832c1c29e0fb617253884000000000000000000000000000000000000000000000000000049c41ce65cf1fffffffffffffffffffffffffffffffffffffffffffffffffffffffffab6413e000000000000000000000000000000000000000000000000000000000549bec200000000000000000000000000000000000000000000000009d025b9f39a7b59000000000000000000000000000000000000000000000000002386f26fc10000000000000000000000000000000000000000000000000002b5e39a9fdddd9e1c",
          "blockHash": "0xd1f41fbd462aa9f47fe2dcb2bf8c7fd5afec3bb316dbea93dd89c91c81e38e3d",
          "blockNumber": "0x7693af",
          "transactionHash": "0xe44f4568752a162e3d99fe704783ebd398ed084ffe1fec6e7ff2db71f11cf772",
          "transactionIndex": "0x6e",
          "logIndex": "0xc5",
          "removed": false
        },
        {
          "address": "0x3983da713bce9898f7a67b7f2a7ea5806593c7af",
          "topics": [
            "0xddf252ad1be2c89b69c2b068fc378daa952ba7f163c4a11628f55a4df523b3ef",
            "0x00000000000000000000000000000c771f6176268d5a9846e0956c3ef58597a1",
            "0x000000000000000000000000329a537e8e8075235e84cffd37c8fa2bfd520fa0"
          ],
          "data": "0x000000000000000000000000000000000000000000000002b5e39a9fdddd9e1c",
          "blockHash": "0xd1f41fbd462aa9f47fe2dcb2bf8c7fd5afec3bb316dbea93dd89c91c81e38e3d",
          "blockNumber": "0x7693af",
          "transactionHash": "0xe44f4568752a162e3d99fe704783ebd398ed084ffe1fec6e7ff2db71f11cf772",
          "transactionIndex": "0x6e",
          "logIndex": "0xc6",
          "removed": false
        }
      ],
      "logsBloom": "0x00000000000100000000020000000000000004000100000000000000000000200040000008000000000000000000000000000000000000000000000000000000000000001000000000000008000000000000000000004000000000000010000020000000020000001000000000000800000000000000000000000010000000000000000000000000000040000008000000000000002100000000000400001000000000000000000000000000000000000000000000000000000001000400010000000002000000000000000000000000000000000000000000000000000020000000000000000000000000000000000000808000000000000800000000000000",
      "type": "0x2",
      "transactionHash": "0xe44f4568752a162e3d99fe704783ebd398ed084ffe1fec6e7ff2db71f11cf772",
      "transactionIndex": "0x6e",
      "blockHash": "0xd1f41fbd462aa9f47fe2dcb2bf8c7fd5afec3bb316dbea93dd89c91c81e38e3d",
      "blockNumber": "0x7693af",
      "gasUsed": "0x4c3f4",
      "effectiveGasPrice": "0x141be13c",
      "from": "0x00000c771f6176268d5a9846e0956c3ef58597a1",
      "to": "0x199294d58142c76a71f0d4050c1f6bffb7903650",
      "contractAddress": null
    },
    {
      "status": "0x1",
      "cumulativeGasUsed": "0x98e2cc",
      "logs": [
        {
          "address": "0x329a537e8e8075235e84cffd37c8fa2bfd520fa0",
          "topics": [],
          "data": "0x41612426b98238a6683d5f90c0c976d627346be770246f58712d4dd0c8035d4bf59ed5806de8102c00b832c1c29e0fb617253884000000000000000000000000000186a0ffffffffffffffffffffffffe2497ffa000000000000000009d025b9f39a7b5980000011ad7b7d5711127bde0081f64c",
          "blockHash": "0xbd98bc2f83ced0c5ecc91859a1e04179c0447d2bf4bd52b09ecec4fecd962e6b",
          "blockNumber": "0x7693b0",
          "transactionHash": "0x13fefc83da858491421bd6fcdaaf00220c2c4314b2b6f684eb26deba96ecc7ae",
          "transactionIndex": "0x51",
          "logIndex": "0x70",
          "removed": false
        },
        {
          "address": "0x3983da713bce9898f7a67b7f2a7ea5806593c7af",
          "topics": [
            "0xddf252ad1be2c89b69c2b068fc378daa952ba7f163c4a11628f55a4df523b3ef",
            "0x000000000000000000000000329a537e8e8075235e84cffd37c8fa2bfd520fa0",
            "0x00000000000000000000000000000c771f6176268d5a9846e0956c3ef58597a1"
          ],
          "data": "0x000000000000000000000000000000000000000000000000000000001db68006",
          "blockHash": "0xbd98bc2f83ced0c5ecc91859a1e04179c0447d2bf4bd52b09ecec4fecd962e6b",
          "blockNumber": "0x7693b0",
          "transactionHash": "0x13fefc83da858491421bd6fcdaaf00220c2c4314b2b6f684eb26deba96ecc7ae",
          "transactionIndex": "0x51",
          "logIndex": "0x71",
          "removed": false
        }
      ],
      "logsBloom": "0x00000000000000000000020000000000000004000000000000000000000000200000000000000000000000000000000000000000000000000000000000000000000000001000000000000008000000000000000000000000000000000010000000000000000000000000000000000000000000000000000000000010000000000000000000000000000000000000000000000000002100000000000400001000000000000000000000000000000000000000000000000000000000000000010000000002000000000000000000000000000000000000000000000000000000000000000000000000000000000000000000800000000000000800000000000000",
      "type": "0x2",
      "transactionHash": "0x13fefc83da858491421bd6fcdaaf00220c2c4314b2b6f684eb26deba96ecc7ae",
      "transactionIndex": "0x51",
      "blockHash": "0xbd98bc2f83ced0c5ecc91859a1e04179c0447d2bf4bd52b09ecec4fecd962e6b",
      "blockNumber": "0x7693b0",
      "gasUsed": "0x178fc",
      "effectiveGasPrice": "0x13ffc9bf",
      "from": "0x00000c771f6176268d5a9846e0956c3ef58597a1",
      "to": "0x41612426b98238a6683d5f90c0c976d627346be7",
      "contractAddress": null
    },
    {
      "status": "0x1",
      "cumulativeGasUsed": "0xc0c599",
      "logs": [
        {
          "address": "0x329a537e8e8075235e84cffd37c8fa2bfd520fa0",
          "topics": [],
          "data": "0x41612426b98238a6683d5f90c0c976d627346be770246f58712d4dd0c8035d4bf59ed5806de8102c00b832c1c29e0fb617253884fffffffffffffffffffffffffffe7a8c0000000000000000000000001dcd6500000000000000000009d025b9f39a7b5980000011ad7b7d57d2db6fc20081f64d",
          "blockHash": "0xb20d8cfc4dcb9efaa8adadc6c6d69fd8a19e875d7611507f69a5c51344f4e256",
          "blockNumber": "0x7693b1",
          "transactionHash": "0x954bb36ffd19116005810546d9769eaad32766506c49f12682953560c0f4624b",
          "transactionIndex": "0x63",
          "logIndex": "0x11a",
          "removed": false
        },
        {
          "address": "0x3983da713bce9898f7a67b7f2a7ea5806593c7af",
          "topics": [
            "0xddf252ad1be2c89b69c2b068fc378daa952ba7f163c4a11628f55a4df523b3ef",
            "0x00000000000000000000000000000c771f6176268d5a9846e0956c3ef58597a1",
            "0x000000000000000000000000329a537e8e8075235e84cffd37c8fa2bfd520fa0"
          ],
          "data": "0x000000000000000000000000000000000000000000000000000000001dcd6500",
          "blockHash": "0xb20d8cfc4dcb9efaa8adadc6c6d69fd8a19e875d7611507f69a5c51344f4e256",
          "blockNumber": "0x7693b1",
          "transactionHash": "0x954bb36ffd19116005810546d9769eaad32766506c49f12682953560c0f4624b",
          "transactionIndex": "0x63",
          "logIndex": "0x11b",
          "removed": false
        }
      ],
      "logsBloom": "0x00000000000000000000020000000000000004000000000000000000000000200000000000000000000000000000000000000000000000000000000000000000000000001000000000000008000000000000000000000000000000000010000000000000000000000000000000000000000000000000000000000010000000000000000000000000000000000000000000000000002100000000000400001000000000000000000000000000000000000000000000000000000000000000010000000002000000000000000000000000000000000000000000000000000000000000000000000000000000000000000000800000000000000800000000000000",
      "type": "0x2",
      "transactionHash": "0x954bb36ffd19116005810546d9769eaad32766506c49f12682953560c0f4624b",
      "transactionIndex": "0x63",
      "blockHash": "0xb20d8cfc4dcb9efaa8adadc6c6d69fd8a19e875d7611507f69a5c51344f4e256",
      "blockNumber": "0x7693b1",
      "gasUsed": "0x1925a",
      "effectiveGasPrice": "0x13833526",
      "from": "0x00000c771f6176268d5a9846e0956c3ef58597a1",
      "to": "0x41612426b98238a6683d5f90c0c976d627346be7",
      "contractAddress": null
    },
    {
      "status": "0x1",
      "cumulativeGasUsed": "0x100ef8c",
      "logs": [
        {
          "address": "0x329a537e8e8075235e84cffd37c8fa2bfd520fa0",
          "topics": [],
          "data": "0x41612426b98238a6683d5f90c0c976d627346be770246f58712d4dd0c8035d4bf59ed5806de8102c00b832c1c29e0fb617253884000000000000000000000000000186a0ffffffffffffffffffffffffe24991e8000000000000000009d025b9f39a7b5980000011ad7b7d571112fb3f0081f64c",
          "blockHash": "0x0bb716075552064695b0909dc9e653d03dc478efadafae0d49774a29d0e22bba",
          "blockNumber": "0x7693b3",
          "transactionHash": "0x0591a46e598d147bb1a8458b35abb3c2d76dea3fe9d9436533b8cf56930a6157",
          "transactionIndex": "0x77",
          "logIndex": "0x1b1",
          "removed": false
        },
        {
          "address": "0x3983da713bce9898f7a67b7f2a7ea5806593c7af",
          "topics": [
            "0xddf252ad1be2c89b69c2b068fc378daa952ba7f163c4a11628f55a4df523b3ef",
            "0x000000000000000000000000329a537e8e8075235e84cffd37c8fa2bfd520fa0",
            "0x00000000000000000000000000000c771f6176268d5a9846e0956c3ef58597a1"
          ],
          "data": "0x000000000000000000000000000000000000000000000000000000001db66e18",
          "blockHash": "0x0bb716075552064695b0909dc9e653d03dc478efadafae0d49774a29d0e22bba",
          "blockNumber": "0x7693b3",
          "transactionHash": "0x0591a46e598d147bb1a8458b35abb3c2d76dea3fe9d9436533b8cf56930a6157",
          "transactionIndex": "0x77",
          "logIndex": "0x1b2",
          "removed": false
        }
      ],
      "logsBloom": "0x00000000000000000000020000000000000004000000000000000000000000200000000000000000000000000000000000000000000000000000000000000000000000001000000000000008000000000000000000000000000000000010000000000000000000000000000000000000000000000000000000000010000000000000000000000000000000000000000000000000002100000000000400001000000000000000000000000000000000000000000000000000000000000000010000000002000000000000000000000000000000000000000000000000000000000000000000000000000000000000000000800000000000000800000000000000",
      "type": "0x2",
      "transactionHash": "0x0591a46e598d147bb1a8458b35abb3c2d76dea3fe9d9436533b8cf56930a6157",
      "transactionIndex": "0x77",
      "blockHash": "0x0bb716075552064695b0909dc9e653d03dc478efadafae0d49774a29d0e22bba",
      "blockNumber": "0x7693b3",
      "gasUsed": "0x13630",
      "effectiveGasPrice": "0x12e0c319",
      "from": "0x00000c771f6176268d5a9846e0956c3ef58597a1",
      "to": "0x41612426b98238a6683d5f90c0c976d627346be7",
      "contractAddress": null
    },
    {
      "status": "0x1",
      "cumulativeGasUsed": "0x664a3b",
      "logs": [
        {
          "address": "0x329a537e8e8075235e84cffd37c8fa2bfd520fa0",
          "topics": [],
          "data": "0x41612426b98238a6683d5f90c0c976d627346be770246f58712d4dd0c8035d4bf59ed5806de8102c00b832c1c29e0fb617253884fffffffffffffffffffffffffffe7a8c0000000000000000000000001dcd6500000000000000000009d025b9f39a7b5980000011ad7b7d57d2dbef230081f64d",
          "blockHash": "0x65ed86c4e61823d51bbf70929e51ae3e2f019fd8217e291a39f43344cfea83cf",
          "blockNumber": "0x7693b4",
          "transactionHash": "0x962c835c75b261d0a8c2a1cc66b4a9dd23105de204a122fcbadad26d2d118cc0",
          "transactionIndex": "0x5b",
          "logIndex": "0x6a",
          "removed": false
        },
        {
          "address": "0x3983da713bce9898f7a67b7f2a7ea5806593c7af",
          "topics": [
            "0xddf252ad1be2c89b69c2b068fc378daa952ba7f163c4a11628f55a4df523b3ef",
            "0x00000000000000000000000000000c771f6176268d5a9846e0956c3ef58597a1",
            "0x000000000000000000000000329a537e8e8075235e84cffd37c8fa2bfd520fa0"
          ],
          "data": "0x000000000000000000000000000000000000000000000000000000001dcd6500",
          "blockHash": "0x65ed86c4e61823d51bbf70929e51ae3e2f019fd8217e291a39f43344cfea83cf",
          "blockNumber": "0x7693b4",
          "transactionHash": "0x962c835c75b261d0a8c2a1cc66b4a9dd23105de204a122fcbadad26d2d118cc0",
          "transactionIndex": "0x5b",
          "logIndex": "0x6b",
          "removed": false
        }
      ],
      "logsBloom": "0x00000000000000000000020000000000000004000000000000000000000000200000000000000000000000000000000000000000000000000000000000000000000000001000000000000008000000000000000000000000000000000010000000000000000000000000000000000000000000000000000000000010000000000000000000000000000000000000000000000000002100000000000400001000000000000000000000000000000000000000000000000000000000000000010000000002000000000000000000000000000000000000000000000000000000000000000000000000000000000000000000800000000000000800000000000000",
      "type": "0x2",
      "transactionHash": "0x962c835c75b261d0a8c2a1cc66b4a9dd23105de204a122fcbadad26d2d118cc0",
      "transactionIndex": "0x5b",
      "blockHash": "0x65ed86c4e61823d51bbf70929e51ae3e2f019fd8217e291a39f43344cfea83cf",
      "blockNumber": "0x7693b4",
      "gasUsed": "0x14f8e",
      "effectiveGasPrice": "0x13355a8b",
      "from": "0x00000c771f6176268d5a9846e0956c3ef58597a1",
      "to": "0x41612426b98238a6683d5f90c0c976d627346be7",
      "contractAddress": null
    },
    {
      "status": "0x1",
      "cumulativeGasUsed": "0xec8269",
      "logs": [
        {
          "address": "0x329a537e8e8075235e84cffd37c8fa2bfd520fa0",
          "topics": [
            "0x5e4688b340694b7c7fd30047fd082117dc46e32acfbf81a44bb1fac0ae65154d"
          ],
          "data": "0x5108e3146851918025d1e96198486567f2ac6e3980b68b5519fe9ee84980457400000000000000000000000000000000000000000000000000000000000000000000000000000000000000003983da713bce9898f7a67b7f2a7ea5806593c7af000000000000000000000000000000000000000000c49ba5e353f7ce00000000000000000000000000000000000000000000000000000000000000000081f64d000000000000000000000000000000000000000080000011ad7b7d57d2db6557",
          "blockHash": "0x500009e6e8b9bb3d069596a7c87894fcaa4e98f7d782caedac6ed20058ff13a4",
          "blockNumber": "0x7693b6",
          "transactionHash": "0x90e4cdd82d8367129e79e0a141bd3c96980a028a83b2c884128977d0e4e99241",
          "transactionIndex": "0xa6",
          "logIndex": "0x152",
          "removed": false
        },
        {
          "address": "0x199294d58142c76a71f0d4050c1f6bffb7903650",
          "topics": [
            "0xddf252ad1be2c89b69c2b068fc378daa952ba7f163c4a11628f55a4df523b3ef",
            "0x0000000000000000000000000000000000000000000000000000000000000000",
            "0x00000000000000000000000000000c771f6176268d5a9846e0956c3ef58597a1",
            "0x0000000000000000000000000000000000000000000000000000e8df2f772c4c"
          ],
          "data": "0x",
          "blockHash": "0x500009e6e8b9bb3d069596a7c87894fcaa4e98f7d782caedac6ed20058ff13a4",
          "blockNumber": "0x7693b6",
          "transactionHash": "0x90e4cdd82d8367129e79e0a141bd3c96980a028a83b2c884128977d0e4e99241",
          "transactionIndex": "0xa6",
          "logIndex": "0x153",
          "removed": false
        },
        {
          "address": "0x329a537e8e8075235e84cffd37c8fa2bfd520fa0",
          "topics": [
            "0xa2d4008be4187c63684f323788e131e1370dbc2205499befe2834005a00c792c"
          ],
          "data": "0x000000000000000000000000199294d58142c76a71f0d4050c1f6bffb79036505108e3146851918025d1e96198486567f2ac6e3980b68b5519fe9ee8498045740000000000000000000000000000000000000000000000000000e8df2f772c4cfffffffffffffffffffffffffffffffffffffffffffffffffffffffffab6326d000000000000000000000000000000000000000000000000000000000549cd9300000000000000000000000000000000000000000000000009d025b9f39a7b59000000000000000000000000000000000000000000000000002386f26fc10000000000000000000000000000000000000000000000000002b5e39a9fdddd9e1c",
          "blockHash": "0x500009e6e8b9bb3d069596a7c87894fcaa4e98f7d782caedac6ed20058ff13a4",
          "blockNumber": "0x7693b6",
          "transactionHash": "0x90e4cdd82d8367129e79e0a141bd3c96980a028a83b2c884128977d0e4e99241",
          "transactionIndex": "0xa6",
          "logIndex": "0x154",
          "removed": false
        },
        {
          "address": "0x3983da713bce9898f7a67b7f2a7ea5806593c7af",
          "topics": [
            "0xddf252ad1be2c89b69c2b068fc378daa952ba7f163c4a11628f55a4df523b3ef",
            "0x00000000000000000000000000000c771f6176268d5a9846e0956c3ef58597a1",
            "0x000000000000000000000000329a537e8e8075235e84cffd37c8fa2bfd520fa0"
          ],
          "data": "0x000000000000000000000000000000000000000000000002b5e39a9fdddd9e1c",
          "blockHash": "0x500009e6e8b9bb3d069596a7c87894fcaa4e98f7d782caedac6ed20058ff13a4",
          "blockNumber": "0x7693b6",
          "transactionHash": "0x90e4cdd82d8367129e79e0a141bd3c96980a028a83b2c884128977d0e4e99241",
          "transactionIndex": "0xa6",
          "logIndex": "0x155",
          "removed": false
        }
      ],
      "logsBloom": "0x00000000000100000000020000000000000004000100000000000000000000200040000008000000000000000000000000000000000000000000000000000000400000001000000000000008000000000000000000004000000000000010000020000000020000000000000000000840000000000000000000000010000000000000000000000000000000000008000000000000002100000000000400001000000000000000000000020000000000000000000000000000000000000400010000000002000000000000000000000000000000000000000000000000000020000000000000000000000000000000000000808000000000000800000000000000",
      "type": "0x2",
      "transactionHash": "0x90e4cdd82d8367129e79e0a141bd3c96980a028a83b2c884128977d0e4e99241",
      "transactionIndex": "0xa6",
      "blockHash": "0x500009e6e8b9bb3d069596a7c87894fcaa4e98f7d782caedac6ed20058ff13a4",
      "blockNumber": "0x7693b6",
      "gasUsed": "0x2b679",
      "effectiveGasPrice": "0x1137d526",
      "from": "0x00000c771f6176268d5a9846e0956c3ef58597a1",
      "to": "0x199294d58142c76a71f0d4050c1f6bffb7903650",
      "contractAddress": null
    },
    {
      "status": "0x1",
      "cumulativeGasUsed": "0x4e1780",
      "logs": [
        {
          "address": "0x329a537e8e8075235e84cffd37c8fa2bfd520fa0",
          "topics": [],
          "data": "0x41612426b98238a6683d5f90c0c976d627346be75108e3146851918025d1e96198486567f2ac6e3980b68b5519fe9ee849804574000000000000000000000000000186a0ffffffffffffffffffffffffe2497ffa000000000000000009d025b9f39a7b5980000011ad7b7d5711127bde0081f64c",
          "blockHash": "0x63ea8c3f4d7213969c1882e0b8e74721fc175e5b116258828dc928b489da5f7a",
          "blockNumber": "0x7693b7",
          "transactionHash": "0xd7c5fb8ffd4e10419cb93dc2fb5e1b00132d26214aafd86c5b21666a706ef57b",
          "transactionIndex": "0x49",
          "logIndex": "0x4c",
          "removed": false
        },
        {
          "address": "0x3983da713bce9898f7a67b7f2a7ea5806593c7af",
          "topics": [
            "0xddf252ad1be2c89b69c2b068fc378daa952ba7f163c4a11628f55a4df523b3ef",
            "0x000000000000000000000000329a537e8e8075235e84cffd37c8fa2bfd520fa0",
            "0x00000000000000000000000000000c771f6176268d5a9846e0956c3ef58597a1"
          ],
          "data": "0x000000000000000000000000000000000000000000000000000000001db68006",
          "blockHash": "0x63ea8c3f4d7213969c1882e0b8e74721fc175e5b116258828dc928b489da5f7a",
          "blockNumber": "0x7693b7",
          "transactionHash": "0xd7c5fb8ffd4e10419cb93dc2fb5e1b00132d26214aafd86c5b21666a706ef57b",
          "transactionIndex": "0x49",
          "logIndex": "0x4d",
          "removed": false
        }
      ],
      "logsBloom": "0x00000000000000000000020000000000000004000000000000000000000000200000000000000000000000000000000000000000000000000000000000000000000000001000000000000008000000000000000000000000000000000010000000000000000000000000000000000000000000000000000000000010000000000000000000000000000000000000000000000000002100000000000400001000000000000000000000000000000000000000000000000000000000000000010000000002000000000000000000000000000000000000000000000000000000000000000000000000000000000000000000800000000000000800000000000000",
      "type": "0x2",
      "transactionHash": "0xd7c5fb8ffd4e10419cb93dc2fb5e1b00132d26214aafd86c5b21666a706ef57b",
      "transactionIndex": "0x49",
      "blockHash": "0x63ea8c3f4d7213969c1882e0b8e74721fc175e5b116258828dc928b489da5f7a",
      "blockNumber": "0x7693b7",
      "gasUsed": "0x169ae",
      "effectiveGasPrice": "0x12405861",
      "from": "0x00000c771f6176268d5a9846e0956c3ef58597a1",
      "to": "0x41612426b98238a6683d5f90c0c976d627346be7",
      "contractAddress": null
    },
    {
      "status": "0x1",
      "cumulativeGasUsed": "0x9806d3",
      "logs": [
        {
          "address": "0x329a537e8e8075235e84cffd37c8fa2bfd520fa0",
          "topics": [],
          "data": "0x41612426b98238a6683d5f90c0c976d627346be75108e3146851918025d1e96198486567f2ac6e3980b68b5519fe9ee849804574fffffffffffffffffffffffffffe7a8c0000000000000000000000001dcd6500000000000000000009d025b9f39a7b5980000011ad7b7d57d2db6fc20081f64d",
          "blockHash": "0x2b5bd43b494933c92bfb1960fc2c37ac64959983800f51bb1cb8af430d8bc989",
          "blockNumber": "0x7693b9",
          "transactionHash": "0xbb1162a91f18962e8cce85993a78824b9b4bbbc39aae8d6f9d8d907209364c17",
          "transactionIndex": "0x66",
          "logIndex": "0x62",
          "removed": false
        },
        {
          "address": "0x3983da713bce9898f7a67b7f2a7ea5806593c7af",
          "topics": [
            "0xddf252ad1be2c89b69c2b068fc378daa952ba7f163c4a11628f55a4df523b3ef",
            "0x00000000000000000000000000000c771f6176268d5a9846e0956c3ef58597a1",
            "0x000000000000000000000000329a537e8e8075235e84cffd37c8fa2bfd520fa0"
          ],
          "data": "0x000000000000000000000000000000000000000000000000000000001dcd6500",
          "blockHash": "0x2b5bd43b494933c92bfb1960fc2c37ac64959983800f51bb1cb8af430d8bc989",
          "blockNumber": "0x7693b9",
          "transactionHash": "0xbb1162a91f18962e8cce85993a78824b9b4bbbc39aae8d6f9d8d907209364c17",
          "transactionIndex": "0x66",
          "logIndex": "0x63",
          "removed": false
        }
      ],
      "logsBloom": "0x00000000000000000000020000000000000004000000000000000000000000200000000000000000000000000000000000000000000000000000000000000000000000001000000000000008000000000000000000000000000000000010000000000000000000000000000000000000000000000000000000000010000000000000000000000000000000000000000000000000002100000000000400001000000000000000000000000000000000000000000000000000000000000000010000000002000000000000000000000000000000000000000000000000000000000000000000000000000000000000000000800000000000000800000000000000",
      "type": "0x2",
      "transactionHash": "0xbb1162a91f18962e8cce85993a78824b9b4bbbc39aae8d6f9d8d907209364c17",
      "transactionIndex": "0x66",
      "blockHash": "0x2b5bd43b494933c92bfb1960fc2c37ac64959983800f51bb1cb8af430d8bc989",
      "blockNumber": "0x7693b9",
      "gasUsed": "0x18336",
      "effectiveGasPrice": "0x1356448a",
      "from": "0x00000c771f6176268d5a9846e0956c3ef58597a1",
      "to": "0x41612426b98238a6683d5f90c0c976d627346be7",
      "contractAddress": null
    },
    {
      "status": "0x1",
      "cumulativeGasUsed": "0x205ba0b",
      "logs": [
        {
          "address": "0x329a537e8e8075235e84cffd37c8fa2bfd520fa0",
          "topics": [],
          "data": "0x41612426b98238a6683d5f90c0c976d627346be75108e3146851918025d1e96198486567f2ac6e3980b68b5519fe9ee849804574000000000000000000000000000186a0ffffffffffffffffffffffffe24991e8000000000000000009d025b9f39a7b5980000011ad7b7d571112fb3f0081f64c",
          "blockHash": "0x61ee8ecc8521ed59a7095689ad7a1afc3bc711afdd2063c5bcb777af29d388e8",
          "blockNumber": "0x7693ba",
          "transactionHash": "0x9be6e329d9b29df6306ebd29c313d086f2acb4765bd8bbc84e40e87cbeab340e",
          "transactionIndex": "0x59",
          "logIndex": "0x10ee",
          "removed": false
        },
        {
          "address": "0x3983da713bce9898f7a67b7f2a7ea5806593c7af",
          "topics": [
            "0xddf252ad1be2c89b69c2b068fc378daa952ba7f163c4a11628f55a4df523b3ef",
            "0x000000000000000000000000329a537e8e8075235e84cffd37c8fa2bfd520fa0",
            "0x00000000000000000000000000000c771f6176268d5a9846e0956c3ef58597a1"
          ],
          "data": "0x000000000000000000000000000000000000000000000000000000001db66e18",
          "blockHash": "0x61ee8ecc8521ed59a7095689ad7a1afc3bc711afdd2063c5bcb777af29d388e8",
          "blockNumber": "0x7693ba",
          "transactionHash": "0x9be6e329d9b29df6306ebd29c313d086f2acb4765bd8bbc84e40e87cbeab340e",
          "transactionIndex": "0x59",
          "logIndex": "0x10ef",
          "removed": false
        }
      ],
      "logsBloom": "0x00000000000000000000020000000000000004000000000000000000000000200000000000000000000000000000000000000000000000000000000000000000000000001000000000000008000000000000000000000000000000000010000000000000000000000000000000000000000000000000000000000010000000000000000000000000000000000000000000000000002100000000000400001000000000000000000000000000000000000000000000000000000000000000010000000002000000000000000000000000000000000000000000000000000000000000000000000000000000000000000000800000000000000800000000000000",
      "type": "0x2",
      "transactionHash": "0x9be6e329d9b29df6306ebd29c313d086f2acb4765bd8bbc84e40e87cbeab340e",
      "transactionIndex": "0x59",
      "blockHash": "0x61ee8ecc8521ed59a7095689ad7a1afc3bc711afdd2063c5bcb777af29d388e8",
      "blockNumber": "0x7693ba",
      "gasUsed": "0x126e2",
      "effectiveGasPrice": "0x146ce877",
      "from": "0x00000c771f6176268d5a9846e0956c3ef58597a1",
      "to": "0x41612426b98238a6683d5f90c0c976d627346be7",
      "contractAddress": null
    },
    {
      "status": "0x1",
      "cumulativeGasUsed": "0xa8ce2e",
      "logs": [
        {
          "address": "0x329a537e8e8075235e84cffd37c8fa2bfd520fa0",
          "topics": [],
          "data": "0x41612426b98238a6683d5f90c0c976d627346be75108e3146851918025d1e96198486567f2ac6e3980b68b5519fe9ee849804574fffffffffffffffffffffffffffe7a8c0000000000000000000000001dcd6500000000000000000009d025b9f39a7b5980000011ad7b7d57d2dbef230081f64d",
          "blockHash": "0x18bc1c22ee8866e3af96f3f37630ef971092ffef44efeb45b72ac6d1c19f05c9",
          "blockNumber": "0x7693bc",
          "transactionHash": "0xb7a3efdabdd96b972c816f17cf5c9ee31d04ccd996caaf3db36945f597a75017",
          "transactionIndex": "0x55",
          "logIndex": "0x84",
          "removed": false
        },
        {
          "address": "0x3983da713bce9898f7a67b7f2a7ea5806593c7af",
          "topics": [
            "0xddf252ad1be2c89b69c2b068fc378daa952ba7f163c4a11628f55a4df523b3ef",
            "0x00000000000000000000000000000c771f6176268d5a9846e0956c3ef58597a1",
            "0x000000000000000000000000329a537e8e8075235e84cffd37c8fa2bfd520fa0"
          ],
          "data": "0x000000000000000000000000000000000000000000000000000000001dcd6500",
          "blockHash": "0x18bc1c22ee8866e3af96f3f37630ef971092ffef44efeb45b72ac6d1c19f05c9",
          "blockNumber": "0x7693bc",
          "transactionHash": "0xb7a3efdabdd96b972c816f17cf5c9ee31d04ccd996caaf3db36945f597a75017",
          "transactionIndex": "0x55",
          "logIndex": "0x85",
          "removed": false
        }
      ],
      "logsBloom": "0x00000000000000000000020000000000000004000000000000000000000000200000000000000000000000000000000000000000000000000000000000000000000000001000000000000008000000000000000000000000000000000010000000000000000000000000000000000000000000000000000000000010000000000000000000000000000000000000000000000000002100000000000400001000000000000000000000000000000000000000000000000000000000000000010000000002000000000000000000000000000000000000000000000000000000000000000000000000000000000000000000800000000000000800000000000000",
      "type": "0x2",
      "transactionHash": "0xb7a3efdabdd96b972c816f17cf5c9ee31d04ccd996caaf3db36945f597a75017",
      "transactionIndex": "0x55",
      "blockHash": "0x18bc1c22ee8866e3af96f3f37630ef971092ffef44efeb45b72ac6d1c19f05c9",
      "blockNumber": "0x7693bc",
      "gasUsed": "0x1406a",
      "effectiveGasPrice": "0x14ee72fd",
      "from": "0x00000c771f6176268d5a9846e0956c3ef58597a1",
      "to": "0x41612426b98238a6683d5f90c0c976d627346be7",
      "contractAddress": null
    },
    {
      "status": "0x1",
      "cumulativeGasUsed": "0x1665f87",
      "logs": [
        {
          "address": "0x511cca7a9e8f4fff1758c20e950a7b48e75c7d8f",
          "topics": [],
          "data": "0x3983da713bce9898f7a67b7f2a7ea5806593c7af0000000067bb84c400000000000000000000000000000000000000000000000000000000",
          "blockHash": "0x89e0a06e812ed4edbb1f83cd5488baff95e11a1e3113b876446f7d4ecdc558d8",
          "blockNumber": "0x7693bd",
          "transactionHash": "0xd81f3c2915067532173cf06b4116b91bf68047322ae7b2b2d2b9b6e040fa5959",
          "transactionIndex": "0xb9",
          "logIndex": "0x16e",
          "removed": false
        },
        {
          "address": "0x329a537e8e8075235e84cffd37c8fa2bfd520fa0",
          "topics": [
            "0x5e4688b340694b7c7fd30047fd082117dc46e32acfbf81a44bb1fac0ae65154d"
          ],
          "data": "0x1aa7901b58c764827a190e818c209b80d6bc6e75786101829bdfa19752ad8a0800000000000000000000000000000000000000000000000000000000000000000000000000000000000000003983da713bce9898f7a67b7f2a7ea5806593c7af511cca7a9e8f4fff1758c20e950a7b48e75c7d8f00000000000000000000000000000000000000000000000000000000000000000000000000000000004644f40000000000000000000000000000000000000000800000027ffff5c0ff12dc20",
          "blockHash": "0x89e0a06e812ed4edbb1f83cd5488baff95e11a1e3113b876446f7d4ecdc558d8",
          "blockNumber": "0x7693bd",
          "transactionHash": "0xd81f3c2915067532173cf06b4116b91bf68047322ae7b2b2d2b9b6e040fa5959",
          "transactionIndex": "0xb9",
          "logIndex": "0x16f",
          "removed": false
        },
        {
          "address": "0x199294d58142c76a71f0d4050c1f6bffb7903650",
          "topics": [
            "0xddf252ad1be2c89b69c2b068fc378daa952ba7f163c4a11628f55a4df523b3ef",
            "0x0000000000000000000000000000000000000000000000000000000000000000",
            "0x00000000000000000000000000000c771f6176268d5a9846e0956c3ef58597a1",
            "0x000000000000000000000000000000000000000000000000000002d6390499c2"
          ],
          "data": "0x",
          "blockHash": "0x89e0a06e812ed4edbb1f83cd5488baff95e11a1e3113b876446f7d4ecdc558d8",
          "blockNumber": "0x7693bd",
          "transactionHash": "0xd81f3c2915067532173cf06b4116b91bf68047322ae7b2b2d2b9b6e040fa5959",
          "transactionIndex": "0xb9",
          "logIndex": "0x170",
          "removed": false
        },
        {
          "address": "0x329a537e8e8075235e84cffd37c8fa2bfd520fa0",
          "topics": [
            "0xa2d4008be4187c63684f323788e131e1370dbc2205499befe2834005a00c792c"
          ],
          "data": "0x000000000000000000000000199294d58142c76a71f0d4050c1f6bffb79036501aa7901b58c764827a190e818c209b80d6bc6e75786101829bdfa19752ad8a08000000000000000000000000000000000000000000000000000002d6390499c2fffffffffffffffffffffffffffffffffffffffffffffffffffffffffab6326d000000000000000000000000000000000000000000000000000000000549cd9300000000000000000000000000000000000000000000000001634572ad7ac440000000000000000000000000000000000000000000000000002386f26fc100000000000000000000000000000000000000000000000000000de0b641e6343e1e",
          "blockHash": "0x89e0a06e812ed4edbb1f83cd5488baff95e11a1e3113b876446f7d4ecdc558d8",
          "blockNumber": "0x7693bd",
          "transactionHash": "0xd81f3c2915067532173cf06b4116b91bf68047322ae7b2b2d2b9b6e040fa5959",
          "transactionIndex": "0xb9",
          "logIndex": "0x171",
          "removed": false
        },
        {
          "address": "0x3983da713bce9898f7a67b7f2a7ea5806593c7af",
          "topics": [
            "0xddf252ad1be2c89b69c2b068fc378daa952ba7f163c4a11628f55a4df523b3ef",
            "0x00000000000000000000000000000c771f6176268d5a9846e0956c3ef58597a1",
            "0x000000000000000000000000329a537e8e8075235e84cffd37c8fa2bfd520fa0"
          ],
          "data": "0x0000000000000000000000000000000000000000000000000de0b641e6343e1e",
          "blockHash": "0x89e0a06e812ed4edbb1f83cd5488baff95e11a1e3113b876446f7d4ecdc558d8",
          "blockNumber": "0x7693bd",
          "transactionHash": "0xd81f3c2915067532173cf06b4116b91bf68047322ae7b2b2d2b9b6e040fa5959",
          "transactionIndex": "0xb9",
          "logIndex": "0x172",
          "removed": false
        }
      ],
      "logsBloom": "0x00000000000100000000020000000000000014000100000000000000000000200040000008000000000000000000000000000000000000000000000000000000000080001000000000000008000000000000000000004000000000000010000020000000020000000000000000000800000000000000000000000010000000000000000000000000000000000008000000000000002100000000000400001000000000000000000000000000200000000000000000000000000000000400010000000002000000000040000000000000000000000000000000000000000220000000000000000000000000000080000000808000000000000800000000000000",
      "type": "0x2",
      "transactionHash": "0xd81f3c2915067532173cf06b4116b91bf68047322ae7b2b2d2b9b6e040fa5959",
      "transactionIndex": "0xb9",
      "blockHash": "0x89e0a06e812ed4edbb1f83cd5488baff95e11a1e3113b876446f7d4ecdc558d8",
      "blockNumber": "0x7693bd",
      "gasUsed": "0x38f9e",
      "effectiveGasPrice": "0x146aea9d",
      "from": "0x00000c771f6176268d5a9846e0956c3ef58597a1",
      "to": "0x199294d58142c76a71f0d4050c1f6bffb7903650",
      "contractAddress": null
    },
    {
      "status": "0x1",
      "cumulativeGasUsed": "0x4c8c68",
      "logs": [
        {
          "address": "0x511cca7a9e8f4fff1758c20e950a7b48e75c7d8f",
          "topics": [],
          "data": "0x3983da713bce9898f7a67b7f2a7ea5806593c7af0000000067bb84d00000000000000000000008a59c1dcaea5b922ca400000000034b3b70",
          "blockHash": "0x8e1f34292fd2f6f017ff8ccc07cede5a6713cb7bdb6e46b2f6829f4f41e13c1c",
          "blockNumber": "0x7693be",
          "transactionHash": "0x19be8c282872308e870b80fe997f1c69357c1db67da9db1028c7eddf829479d6",
          "transactionIndex": "0x44",
          "logIndex": "0x43",
          "removed": false
        },
        {
          "address": "0x329a537e8e8075235e84cffd37c8fa2bfd520fa0",
          "topics": [],
          "data": "0x41612426b98238a6683d5f90c0c976d627346be71aa7901b58c764827a190e818c209b80d6bc6e75786101829bdfa19752ad8a08000000000000000000000000000186a0ffffffffffffffffffffffffff6769e7000000000000000001634572ad7ac440800000027ffff5c0e3960e61004644f3",
          "blockHash": "0x8e1f34292fd2f6f017ff8ccc07cede5a6713cb7bdb6e46b2f6829f4f41e13c1c",
          "blockNumber": "0x7693be",
          "transactionHash": "0x19be8c282872308e870b80fe997f1c69357c1db67da9db1028c7eddf829479d6",
          "transactionIndex": "0x44",
          "logIndex": "0x44",
          "removed": false
        },
        {
          "address": "0x3983da713bce9898f7a67b7f2a7ea5806593c7af",
          "topics": [
            "0xddf252ad1be2c89b69c2b068fc378daa952ba7f163c4a11628f55a4df523b3ef",
            "0x000000000000000000000000329a537e8e8075235e84cffd37c8fa2bfd520fa0",
            "0x00000000000000000000000000000c771f6176268d5a9846e0956c3ef58597a1"
          ],
          "data": "0x0000000000000000000000000000000000000000000000000000000000989619",
          "blockHash": "0x8e1f34292fd2f6f017ff8ccc07cede5a6713cb7bdb6e46b2f6829f4f41e13c1c",
          "blockNumber": "0x7693be",
          "transactionHash": "0x19be8c282872308e870b80fe997f1c69357c1db67da9db1028c7eddf829479d6",
          "transactionIndex": "0x44",
          "logIndex": "0x45",
          "removed": false
        }
      ],
      "logsBloom": "0x00000000000000000000020000000000000004000000000000000000000000200000000000000000000000000000000000000000000000000000000000000000000080001000000000000008000000000000000000000000000000000010000000000000000000000000000000000000000000000000000000000010000000000000000000000000000000000000000000000000002100000000000400001000000000000000000000000000200000000000000000000000000000000000010000000002000000000040000000000000000000000000000000000000000000000000000000000000000000000000000000800000000000000800000000000000",
      "type": "0x2",
      "transactionHash": "0x19be8c282872308e870b80fe997f1c69357c1db67da9db1028c7eddf829479d6",
      "transactionIndex": "0x44",
      "blockHash": "0x8e1f34292fd2f6f017ff8ccc07cede5a6713cb7bdb6e46b2f6829f4f41e13c1c",
      "blockNumber": "0x7693be",
      "gasUsed": "0x14d05",
      "effectiveGasPrice": "0x163041cb",
      "from": "0x00000c771f6176268d5a9846e0956c3ef58597a1",
      "to": "0x41612426b98238a6683d5f90c0c976d627346be7",
      "contractAddress": null
    },
    {
      "status": "0x1",
      "cumulativeGasUsed": "0xa454d6",
      "logs": [
        {
          "address": "0x511cca7a9e8f4fff1758c20e950a7b48e75c7d8f",
          "topics": [],
          "data": "0x3983da713bce9898f7a67b7f2a7ea5806593c7af0000000067bb84dc00000000000000000000114b383b95d4b724594800000000069676d4",
          "blockHash": "0x3ec3c4861297924c931561a082ef64527e344c3b453d6d446bfb4728a0ca46ff",
          "blockNumber": "0x7693bf",
          "transactionHash": "0x9640bb1710a7c2628e7e7c3e68e770f7457183b5672bd65bcb0cd78ed18bc88b",
          "transactionIndex": "0x5c",
          "logIndex": "0x87",
          "removed": false
        },
        {
          "address": "0x329a537e8e8075235e84cffd37c8fa2bfd520fa0",
          "topics": [],
          "data": "0x41612426b98238a6683d5f90c0c976d627346be71aa7901b58c764827a190e818c209b80d6bc6e75786101829bdfa19752ad8a08ffffffffffffffffffffffffffb3b4be0000000000000000000000001dcd6500000000000000000001634572ad7ac440800000027ffff5c641f9dced004644f4",
          "blockHash": "0x3ec3c4861297924c931561a082ef64527e344c3b453d6d446bfb4728a0ca46ff",
          "blockNumber": "0x7693bf",
          "transactionHash": "0x9640bb1710a7c2628e7e7c3e68e770f7457183b5672bd65bcb0cd78ed18bc88b",
          "transactionIndex": "0x5c",
          "logIndex": "0x88",
          "removed": false
        },
        {
          "address": "0x3983da713bce9898f7a67b7f2a7ea5806593c7af",
          "topics": [
            "0xddf252ad1be2c89b69c2b068fc378daa952ba7f163c4a11628f55a4df523b3ef",
            "0x00000000000000000000000000000c771f6176268d5a9846e0956c3ef58597a1",
            "0x000000000000000000000000329a537e8e8075235e84cffd37c8fa2bfd520fa0"
          ],
          "data": "0x000000000000000000000000000000000000000000000000000000001dcd6500",
          "blockHash": "0x3ec3c4861297924c931561a082ef64527e344c3b453d6d446bfb4728a0ca46ff",
          "blockNumber": "0x7693bf",
          "transactionHash": "0x9640bb1710a7c2628e7e7c3e68e770f7457183b5672bd65bcb0cd78ed18bc88b",
          "transactionIndex": "0x5c",
          "logIndex": "0x89",
          "removed": false
        }
      ],
      "logsBloom": "0x00000000000000000000020000000000000004000000000000000000000000200000000000000000000000000000000000000000000000000000000000000000000080001000000000000008000000000000000000000000000000000010000000000000000000000000000000000000000000000000000000000010000000000000000000000000000000000000000000000000002100000000000400001000000000000000000000000000200000000000000000000000000000000000010000000002000000000040000000000000000000000000000000000000000000000000000000000000000000000000000000800000000000000800000000000000",
      "type": "0x2",
      "transactionHash": "0x9640bb1710a7c2628e7e7c3e68e770f7457183b5672bd65bcb0cd78ed18bc88b",
      "transactionIndex": "0x5c",
      "blockHash": "0x3ec3c4861297924c931561a082ef64527e344c3b453d6d446bfb4728a0ca46ff",
      "blockNumber": "0x7693bf",
      "gasUsed": "0x1668d",
      "effectiveGasPrice": "0x158a0c96",
      "from": "0x00000c771f6176268d5a9846e0956c3ef58597a1",
      "to": "0x41612426b98238a6683d5f90c0c976d627346be7",
      "contractAddress": null
    },
    {
      "status": "0x1",
      "cumulativeGasUsed": "0x603e5e",
      "logs": [
        {
          "address": "0x511cca7a9e8f4fff1758c20e950a7b48e75c7d8f",
          "topics": [],
          "data": "0x3983da713bce9898f7a67b7f2a7ea5806593c7af0000000067bb84e80000000000000000000019f0d45960bf12b685ec0000000009e1b244",
          "blockHash": "0xec2e109dd606d16c25724801805a7f1b60f173c9ef19ab29a0ccd281d8eeb21e",
          "blockNumber": "0x7693c0",
          "transactionHash": "0xb00c0abf7fc3a218291386a12cc68179db3902ca45c53962fbb6eff45a725156",
          "transactionIndex": "0x5d",
          "logIndex": "0x54",
          "removed": false
        },
        {
          "address": "0x329a537e8e8075235e84cffd37c8fa2bfd520fa0",
          "topics": [],
          "data": "0x41612426b98238a6683d5f90c0c976d627346be71aa7901b58c764827a190e818c209b80d6bc6e75786101829bdfa19752ad8a08000000000000000000000000000186a0ffffffffffffffffffffffffff6769bd000000000000000001634572ad7ac440800000027ffff5c6267d0799004644f4",
          "blockHash": "0xec2e109dd606d16c25724801805a7f1b60f173c9ef19ab29a0ccd281d8eeb21e",
          "blockNumber": "0x7693c0",
          "transactionHash": "0xb00c0abf7fc3a218291386a12cc68179db3902ca45c53962fbb6eff45a725156",
          "transactionIndex": "0x5d",
          "logIndex": "0x55",
          "removed": false
        },
        {
          "address": "0x3983da713bce9898f7a67b7f2a7ea5806593c7af",
          "topics": [
            "0xddf252ad1be2c89b69c2b068fc378daa952ba7f163c4a11628f55a4df523b3ef",
            "0x000000000000000000000000329a537e8e8075235e84cffd37c8fa2bfd520fa0",
            "0x00000000000000000000000000000c771f6176268d5a9846e0956c3ef58597a1"
          ],
          "data": "0x0000000000000000000000000000000000000000000000000000000000989643",
          "blockHash": "0xec2e109dd606d16c25724801805a7f1b60f173c9ef19ab29a0ccd281d8eeb21e",
          "blockNumber": "0x7693c0",
          "transactionHash": "0xb00c0abf7fc3a218291386a12cc68179db3902ca45c53962fbb6eff45a725156",
          "transactionIndex": "0x5d",
          "logIndex": "0x56",
          "removed": false
        }
      ],
      "logsBloom": "0x00000000000000000000020000000000000004000000000000000000000000200000000000000000000000000000000000000000000000000000000000000000000080001000000000000008000000000000000000000000000000000010000000000000000000000000000000000000000000000000000000000010000000000000000000000000000000000000000000000000002100000000000400001000000000000000000000000000200000000000000000000000000000000000010000000002000000000040000000000000000000000000000000000000000000000000000000000000000000000000000000800000000000000800000000000000",
      "type": "0x2",
      "transactionHash": "0xb00c0abf7fc3a218291386a12cc68179db3902ca45c53962fbb6eff45a725156",
      "transactionIndex": "0x5d",
      "blockHash": "0xec2e109dd606d16c25724801805a7f1b60f173c9ef19ab29a0ccd281d8eeb21e",
      "blockNumber": "0x7693c0",
      "gasUsed": "0x14d09",
      "effectiveGasPrice": "0x15dd3999",
      "from": "0x00000c771f6176268d5a9846e0956c3ef58597a1",
      "to": "0x41612426b98238a6683d5f90c0c976d627346be7",
      "contractAddress": null
    },
    {
      "status": "0x1",
      "cumulativeGasUsed": "0x98f4dc",
      "logs": [
        {
          "address": "0x511cca7a9e8f4fff1758c20e950a7b48e75c7d8f",
          "topics": [],
          "data": "0x3983da713bce9898f7a67b7f2a7ea5806593c7af0000000067bb84f400000000000000000000229670772ba96e48b290000000000d2cedb4",
          "blockHash": "0x81a6445e511b98128cf7263ee32d0e59a144ae3428cc78907fe5d95f40933c60",
          "blockNumber": "0x7693c1",
          "transactionHash": "0x648bd931f0fb1163b67b9745e9602cdafc321f543864cd622d40e88ef7330def",
          "transactionIndex": "0x61",
          "logIndex": "0xb1",
          "removed": false
        },
        {
          "address": "0x329a537e8e8075235e84cffd37c8fa2bfd520fa0",
          "topics": [],
          "data": "0x41612426b98238a6683d5f90c0c976d627346be71aa7901b58c764827a190e818c209b80d6bc6e75786101829bdfa19752ad8a08ffffffffffffffffffffffffffb3b4be0000000000000000000000001dcd6500000000000000000001634572ad7ac440800000027ffff5cb84e0d625004644f4",
          "blockHash": "0x81a6445e511b98128cf7263ee32d0e59a144ae3428cc78907fe5d95f40933c60",
          "blockNumber": "0x7693c1",
          "transactionHash": "0x648bd931f0fb1163b67b9745e9602cdafc321f543864cd622d40e88ef7330def",
          "transactionIndex": "0x61",
          "logIndex": "0xb2",
          "removed": false
        },
        {
          "address": "0x3983da713bce9898f7a67b7f2a7ea5806593c7af",
          "topics": [
            "0xddf252ad1be2c89b69c2b068fc378daa952ba7f163c4a11628f55a4df523b3ef",
            "0x00000000000000000000000000000c771f6176268d5a9846e0956c3ef58597a1",
            "0x000000000000000000000000329a537e8e8075235e84cffd37c8fa2bfd520fa0"
          ],
          "data": "0x000000000000000000000000000000000000000000000000000000001dcd6500",
          "blockHash": "0x81a6445e511b98128cf7263ee32d0e59a144ae3428cc78907fe5d95f40933c60",
          "blockNumber": "0x7693c1",
          "transactionHash": "0x648bd931f0fb1163b67b9745e9602cdafc321f543864cd622d40e88ef7330def",
          "transactionIndex": "0x61",
          "logIndex": "0xb3",
          "removed": false
        }
      ],
      "logsBloom": "0x00000000000000000000020000000000000004000000000000000000000000200000000000000000000000000000000000000000000000000000000000000000000080001000000000000008000000000000000000000000000000000010000000000000000000000000000000000000000000000000000000000010000000000000000000000000000000000000000000000000002100000000000400001000000000000000000000000000200000000000000000000000000000000000010000000002000000000040000000000000000000000000000000000000000000000000000000000000000000000000000000800000000000000800000000000000",
      "type": "0x2",
      "transactionHash": "0x648bd931f0fb1163b67b9745e9602cdafc321f543864cd622d40e88ef7330def",
      "transactionIndex": "0x61",
      "blockHash": "0x81a6445e511b98128cf7263ee32d0e59a144ae3428cc78907fe5d95f40933c60",
      "blockNumber": "0x7693c1",
      "gasUsed": "0x1668d",
      "effectiveGasPrice": "0x14b8918d",
      "from": "0x00000c771f6176268d5a9846e0956c3ef58597a1",
      "to": "0x41612426b98238a6683d5f90c0c976d627346be7",
      "contractAddress": null
    },
    {
      "status": "0x1",
      "cumulativeGasUsed": "0xa34225",
      "logs": [
        {
          "address": "0x329a537e8e8075235e84cffd37c8fa2bfd520fa0",
          "topics": [
            "0x5e4688b340694b7c7fd30047fd082117dc46e32acfbf81a44bb1fac0ae65154d"
          ],
          "data": "0xeeff02e0731eacd292375660f98d57252886a1b37c16ce8bd7f5bfc6b5a61b1200000000000000000000000000000000000000000000000000000000000000000000000000000000000000003983da713bce9898f7a67b7f2a7ea5806593c7af0000000000000000000000000000000000000000028f5c28f5c28f5c00004d5a000000000000000000000000000000000000000000000000000000000081f64d000000000000000000000000000000000000000080000011ad7b7d57d2db6557",
          "blockHash": "0x016d8384c4f6e7118baf2d427b99867a516f914c9d45641fcfeb8e2e35fb91bc",
          "blockNumber": "0x7693c2",
          "transactionHash": "0x2cd1ae9490e927683fb9d045b7585d15482591e04b1ef960730a70a70e30485c",
          "transactionIndex": "0x69",
          "logIndex": "0xe7",
          "removed": false
        },
        {
          "address": "0x199294d58142c76a71f0d4050c1f6bffb7903650",
          "topics": [
            "0xddf252ad1be2c89b69c2b068fc378daa952ba7f163c4a11628f55a4df523b3ef",
            "0x0000000000000000000000000000000000000000000000000000000000000000",
            "0x00000000000000000000000000000c771f6176268d5a9846e0956c3ef58597a1",
            "0x00000000000000000000000000000000000000000000000000005fcd6649689e"
          ],
          "data": "0x",
          "blockHash": "0x016d8384c4f6e7118baf2d427b99867a516f914c9d45641fcfeb8e2e35fb91bc",
          "blockNumber": "0x7693c2",
          "transactionHash": "0x2cd1ae9490e927683fb9d045b7585d15482591e04b1ef960730a70a70e30485c",
          "transactionIndex": "0x69",
          "logIndex": "0xe8",
          "removed": false
        },
        {
          "address": "0x329a537e8e8075235e84cffd37c8fa2bfd520fa0",
          "topics": [
            "0xa2d4008be4187c63684f323788e131e1370dbc2205499befe2834005a00c792c"
          ],
          "data": "0x000000000000000000000000199294d58142c76a71f0d4050c1f6bffb7903650eeff02e0731eacd292375660f98d57252886a1b37c16ce8bd7f5bfc6b5a61b1200000000000000000000000000000000000000000000000000005fcd6649689efffffffffffffffffffffffffffffffffffffffffffffffffffffffffab65900000000000000000000000000000000000000000000000000000000000549a7000000000000000000000000000000000000000000000000001d70712ddacf720b000000000000000000000000000000000000000000000000006a94d74f43000000000000000000000000000000000000000000000000000821aacfdf9998da53",
          "blockHash": "0x016d8384c4f6e7118baf2d427b99867a516f914c9d45641fcfeb8e2e35fb91bc",
          "blockNumber": "0x7693c2",
          "transactionHash": "0x2cd1ae9490e927683fb9d045b7585d15482591e04b1ef960730a70a70e30485c",
          "transactionIndex": "0x69",
          "logIndex": "0xe9",
          "removed": false
        },
        {
          "address": "0x3983da713bce9898f7a67b7f2a7ea5806593c7af",
          "topics": [
            "0xddf252ad1be2c89b69c2b068fc378daa952ba7f163c4a11628f55a4df523b3ef",
            "0x00000000000000000000000000000c771f6176268d5a9846e0956c3ef58597a1",
            "0x000000000000000000000000329a537e8e8075235e84cffd37c8fa2bfd520fa0"
          ],
          "data": "0x00000000000000000000000000000000000000000000000821aacfdf9998da53",
          "blockHash": "0x016d8384c4f6e7118baf2d427b99867a516f914c9d45641fcfeb8e2e35fb91bc",
          "blockNumber": "0x7693c2",
          "transactionHash": "0x2cd1ae9490e927683fb9d045b7585d15482591e04b1ef960730a70a70e30485c",
          "transactionIndex": "0x69",
          "logIndex": "0xea",
          "removed": false
        }
      ],
      "logsBloom": "0x00000000000100000000020000000000000004000100000000000000000000200040000008000000000000000000000000000000000000000000000000000000000000001000000000000008000000000000000000004000000000080010000020000000020000000000001000000800000000000000000000000010000000000000000000000000000000000008000000000000002100000000000400001000000000000000000000000000000000000000000000000000000000000400010000000002000000000000000000008000000000000000000000000000000020000000000000000000000000000000000000808000000000000800000000000000",
      "type": "0x2",
      "transactionHash": "0x2cd1ae9490e927683fb9d045b7585d15482591e04b1ef960730a70a70e30485c",
      "transactionIndex": "0x69",
      "blockHash": "0x016d8384c4f6e7118baf2d427b99867a516f914c9d45641fcfeb8e2e35fb91bc",
      "blockNumber": "0x7693c2",
      "gasUsed": "0x43c5c",
      "effectiveGasPrice": "0x13c60e30",
      "from": "0x00000c771f6176268d5a9846e0956c3ef58597a1",
      "to": "0x199294d58142c76a71f0d4050c1f6bffb7903650",
      "contractAddress": null
    }
  ],
  "libraries": [],
  "pending": [],
  "returns": {},
  "timestamp": 1740342528,
  "chain": 11155111,
  "commit": "d26b022"
}