{
  "transactions": [
    {
      "hash": "0xf55f4be9ea555553319bded4397350e5afe7aead86ae6a2fc7d0c254822bacfb",
      "transactionType": "CREATE",
      "contractName": "TestToken",
      "contractAddress": "0x328e038bfc43270f51311f964c6d9bb8bb9195e4",
      "function": null,
      "arguments": [
        "0x00000C771F6176268D5A9846E0956C3eF58597A1"
      ],
      "transaction": {
        "from": "0x00000c771f6176268d5a9846e0956c3ef58597a1",
        "gas": "0xbc67d",
        "value": "0x0",
        "input": "0x60803460ce57601f6109cc38819003918201601f19168301916001600160401b0383118484101760d25780849260209460405283398101031260ce57516001600160a01b038116810360ce576805345cdf77eb68f44c545f19810190811060c1576805345cdf77eb68f44c556387a211a2600c525f526020600c205f1981540190555f19602052600c5160601c5f7fddf252ad1be2c89b69c2b068fc378daa952ba7f163c4a11628f55a4df523b3ef602080a36040516108e590816100e78239f35b63e5cfe9575f526004601cfd5b5f80fd5b634e487b7160e01b5f52604160045260245ffdfe60806040526004361015610011575f80fd5b5f3560e01c806306fdde03146107cc578063095ea7b31461074357806318160ddd1461070057806323b872dd146105fb578063313ce567146105c25780633644e515146104f857806370a08231146104a85780637ecebe001461045857806395d89b41146103a1578063a9059cbb146102f4578063d505accf146100fd5763dd62ed3e1461009d575f80fd5b346100f95760407ffffffffffffffffffffffffffffffffffffffffffffffffffffffffffffffffc3601126100f9576100d461087b565b6100dc61089e565b602052637f5e9f20600c525f5260206034600c2054604051908152f35b5f80fd5b346100f95760e07ffffffffffffffffffffffffffffffffffffffffffffffffffffffffffffffffc3601126100f95761013461087b565b61013c61089e565b6084359160643560443560ff851685036100f9576101586108c1565b60208101907f54657374546f6b656e00000000000000000000000000000000000000000000008252519020908242116102e75773ffffffffffffffffffffffffffffffffffffffff80604051951695169565383775081901600e52855f5260c06020600c20958654957f8b73c3c69bb8fe3d512ecc4cf759cc79239f7b179b0ffacaa9a75d522b39400f8252602082019586528660408301967fc89efdaa54c0f20c7adf612882df0950f5a951637e0307cdcb4c672f298b8bc688528b6060850198468a528c608087019330855260a08820602e527f6e71edae12b1b97f4d1f60370fef10105fa2faae0126114a169c64845d6126c9885252528688525260a082015220604e526042602c205f5260ff1660205260a43560405260c43560605260208060805f60015afa93853d51036102da577f8c5be1e5ebec7d5bd14f71427d1e84f3dd0314c0f7b2291e5b200ac8c7c3b9259460209401905585777f5e9f200000000000000000000000000000000000000000176040526034602c2055a3005b63ddafbaef5f526004601cfd5b631a15a3cc5f526004601cfd5b346100f95760407ffffffffffffffffffffffffffffffffffffffffffffffffffffffffffffffffc3601126100f95761032b61087b565b602435906387a211a2600c52335f526020600c2080548084116103945783900390555f526020600c20818154019055602052600c5160601c337fddf252ad1be2c89b69c2b068fc378daa952ba7f163c4a11628f55a4df523b3ef602080a3602060405160018152f35b63f4d678b85f526004601cfd5b346100f9575f7ffffffffffffffffffffffffffffffffffffffffffffffffffffffffffffffffc3601126100f957604051604081019080821067ffffffffffffffff83111761042b5761042791604052600281527f5454000000000000000000000000000000000000000000000000000000000000602082015260405191829182610833565b0390f35b7f4e487b71000000000000000000000000000000000000000000000000000000005f52604160045260245ffd5b346100f95760207ffffffffffffffffffffffffffffffffffffffffffffffffffffffffffffffffc3601126100f95761048f61087b565b6338377508600c525f52602080600c2054604051908152f35b346100f95760207ffffffffffffffffffffffffffffffffffffffffffffffffffffffffffffffffc3601126100f9576104df61087b565b6387a211a2600c525f52602080600c2054604051908152f35b346100f9575f7ffffffffffffffffffffffffffffffffffffffffffffffffffffffffffffffffc3601126100f957602060a06105326108c1565b828101907f54657374546f6b656e00000000000000000000000000000000000000000000008252519020604051907f8b73c3c69bb8fe3d512ecc4cf759cc79239f7b179b0ffacaa9a75d522b39400f8252838201527fc89efdaa54c0f20c7adf612882df0950f5a951637e0307cdcb4c672f298b8bc6604082015246606082015230608082015220604051908152f35b346100f9575f7ffffffffffffffffffffffffffffffffffffffffffffffffffffffffffffffffc3601126100f957602060405160128152f35b346100f95760607ffffffffffffffffffffffffffffffffffffffffffffffffffffffffffffffffc3601126100f95761063261087b565b61063a61089e565b604435908260601b33602052637f5e9f208117600c526034600c209081549182196106dc575b506387a211a2915017600c526020600c2080548084116103945783900390555f526020600c2081815401905560205273ffffffffffffffffffffffffffffffffffffffff600c5160601c91167fddf252ad1be2c89b69c2b068fc378daa952ba7f163c4a11628f55a4df523b3ef602080a3602060405160018152f35b8285116106f357846387a211a29303905585610660565b6313be252b5f526004601cfd5b346100f9575f7ffffffffffffffffffffffffffffffffffffffffffffffffffffffffffffffffc3601126100f95760206805345cdf77eb68f44c54604051908152f35b346100f95760407ffffffffffffffffffffffffffffffffffffffffffffffffffffffffffffffffc3601126100f95761077a61087b565b60243590602052637f5e9f20600c52335f52806034600c20555f52602c5160601c337f8c5be1e5ebec7d5bd14f71427d1e84f3dd0314c0f7b2291e5b200ac8c7c3b92560205fa3602060405160018152f35b346100f9575f7ffffffffffffffffffffffffffffffffffffffffffffffffffffffffffffffffc3601126100f9576104276108056108c1565b7f54657374546f6b656e00000000000000000000000000000000000000000000006020820152604051918291825b7fffffffffffffffffffffffffffffffffffffffffffffffffffffffffffffffe0601f602060409481855280519182918282880152018686015e5f8582860101520116010190565b6004359073ffffffffffffffffffffffffffffffffffffffff821682036100f957565b6024359073ffffffffffffffffffffffffffffffffffffffff821682036100f957565b604051906040820182811067ffffffffffffffff82111761042b57604052600982525600000000000000000000000000000c771f6176268d5a9846e0956c3ef58597a1",
        "nonce": "0x23a",
        "chainId": "0xaa36a7"
      },
      "additionalContracts": [],
      "isFixedGasLimit": false
    },
    {
      "hash": "0x770105d692a59b43d4ae0d2c9dde5b49a198845dfd4b7d651c238331c0e70b57",
      "transactionType": "CALL",
      "contractName": "TestToken",
      "contractAddress": "0x328e038bfc43270f51311f964c6d9bb8bb9195e4",
      "function": "approve(address,uint256)",
      "arguments": [
        "0x1816Ad7f281F5E5C1Aec83fdac5711Bfd6DD7F13",
        "115792089237316195423570985008687907853269984665640564039457584007913129639935"
      ],
      "transaction": {
        "from": "0x00000c771f6176268d5a9846e0956c3ef58597a1",
        "to": "0x328e038bfc43270f51311f964c6d9bb8bb9195e4",
        "gas": "0xf8eb",
        "value": "0x0",
        "input": "0x095ea7b30000000000000000000000001816ad7f281f5e5c1aec83fdac5711bfd6dd7f13ffffffffffffffffffffffffffffffffffffffffffffffffffffffffffffffff",
        "nonce": "0x23b",
        "chainId": "0xaa36a7"
      },
      "additionalContracts": [],
      "isFixedGasLimit": false
    },
    {
      "hash": "0x37a5de18d5966bd256ae85851bd9c5b980f93f3e7b69189ce102078f5de695d2",
      "transactionType": "CALL",
      "contractName": "TestToken",
      "contractAddress": "0x328e038bfc43270f51311f964c6d9bb8bb9195e4",
      "function": "approve(address,uint256)",
      "arguments": [
        "0x35eed2913997C4cd119A12a4f09483Ec805Ca9dF",
        "115792089237316195423570985008687907853269984665640564039457584007913129639935"
      ],
      "transaction": {
        "from": "0x00000c771f6176268d5a9846e0956c3ef58597a1",
        "to": "0x328e038bfc43270f51311f964c6d9bb8bb9195e4",
        "gas": "0xf8eb",
        "value": "0x0",
        "input": "0x095ea7b300000000000000000000000035eed2913997c4cd119a12a4f09483ec805ca9dfffffffffffffffffffffffffffffffffffffffffffffffffffffffffffffffff",
        "nonce": "0x23c",
        "chainId": "0xaa36a7"
      },
      "additionalContracts": [],
      "isFixedGasLimit": false
    },
    {
      "hash": "0x4cdad5ec7bcc35a66756151122e31522db2556131a4a9932798f985a45fb080b",
      "transactionType": "CALL",
      "contractName": null,
      "contractAddress": "0x35eed2913997c4cd119a12a4f09483ec805ca9df",
      "function": "multicall(bytes[])",
      "arguments": [
        "[0x3bb838a80000000000000000000000000000000000000000000000000000000000000000000000000000000000000000328e038bfc43270f51311f964c6d9bb8bb9195e40000000000000000000000000000000000c49ba5e353f7ced916872b020c49ba000000000000000000000000000000000000000000000000000000000000175e0000000000000000000000000000000000000000000000000000000000000000000000000000000000000000000000000000000000000000000000000081f64d, 0xcda20b5030c90db3dce0dd46af20df535611a4a02f35006af1efe19a53d1afb402c6eb250000000000000000000000000000000000000000000000000000000000000000000000000000000000000000328e038bfc43270f51311f964c6d9bb8bb9195e40000000000000000000000000000000000c49ba5e353f7ced916872b020c49ba000000000000000000000000000000000000000000000000000000000000175e0000000000000000000000000000000000000000000000000000000000000000fffffffffffffffffffffffffffffffffffffffffffffffffffffffffab6413e000000000000000000000000000000000000000000000000000000000549bec2000000000000000000000000000000000000000000000000002386f26fc10000000000000000000000000000000000000000000000000002b5e3af16b18800000000000000000000000000000000000000000000000000000000000000000000, 0x41865270]"
      ],
      "transaction": {
        "from": "0x00000c771f6176268d5a9846e0956c3ef58597a1",
        "to": "0x35eed2913997c4cd119a12a4f09483ec805ca9df",
        "gas": "0x710a2",
        "value": "0x2386f26fc10000",
        "input": "0xac9650d80000000000000000000000000000000000000000000000000000000000000020000000000000000000000000000000000000000000000000000000000000000300000000000000000000000000000000000000000000000000000000000000600000000000000000000000000000000000000000000000000000000000000160000000000000000000000000000000000000000000000000000000000000030000000000000000000000000000000000000000000000000000000000000000c43bb838a80000000000000000000000000000000000000000000000000000000000000000000000000000000000000000328e038bfc43270f51311f964c6d9bb8bb9195e40000000000000000000000000000000000c49ba5e353f7ced916872b020c49ba000000000000000000000000000000000000000000000000000000000000175e0000000000000000000000000000000000000000000000000000000000000000000000000000000000000000000000000000000000000000000000000081f64d000000000000000000000000000000000000000000000000000000000000000000000000000000000000000000000000000000000000000000000164cda20b5030c90db3dce0dd46af20df535611a4a02f35006af1efe19a53d1afb402c6eb250000000000000000000000000000000000000000000000000000000000000000000000000000000000000000328e038bfc43270f51311f964c6d9bb8bb9195e40000000000000000000000000000000000c49ba5e353f7ced916872b020c49ba000000000000000000000000000000000000000000000000000000000000175e0000000000000000000000000000000000000000000000000000000000000000fffffffffffffffffffffffffffffffffffffffffffffffffffffffffab6413e000000000000000000000000000000000000000000000000000000000549bec2000000000000000000000000000000000000000000000000002386f26fc10000000000000000000000000000000000000000000000000002b5e3af16b188000000000000000000000000000000000000000000000000000000000000000000000000000000000000000000000000000000000000000000000000000000000000000000000000000000000000000000000000000000000000000000044186527000000000000000000000000000000000000000000000000000000000",
        "nonce": "0x23d",
        "chainId": "0xaa36a7"
      },
      "additionalContracts": [],
      "isFixedGasLimit": false
    },
    {
      "hash": "0x2e6ed2937a7e9b4fd2d1642365a41228867a559653cdc2b11906a60cc4bb8602",
      "transactionType": "CALL",
      "contractName": null,
      "contractAddress": "0x1816ad7f281f5e5c1aec83fdac5711bfd6dd7f13",
      "function": "swap((address,address,uint128,uint32,address),bool,int128,uint256,uint256)",
      "arguments": [
        "(0x0000000000000000000000000000000000000000, 0x328E038Bfc43270f51311f964C6D9Bb8BB9195e4, 1020847100762815390390123822295304634, 5982, 0x0000000000000000000000000000000000000000)",
        "false",
        "100000",
        "18447191164202170526",
        "0"
      ],
      "transaction": {
        "from": "0x00000c771f6176268d5a9846e0956c3ef58597a1",
        "to": "0x1816ad7f281f5e5c1aec83fdac5711bfd6dd7f13",
        "gas": "0x21e07",
        "value": "0x186a0",
        "input": "0xab81aca50000000000000000000000000000000000000000000000000000000000000000000000000000000000000000328e038bfc43270f51311f964c6d9bb8bb9195e40000000000000000000000000000000000c49ba5e353f7ced916872b020c49ba000000000000000000000000000000000000000000000000000000000000175e0000000000000000000000000000000000000000000000000000000000000000000000000000000000000000000000000000000000000000000000000000000000000000000000000000000000000000000000000000000000000000000186a0000000000000000000000000000000000000000000000001000196a05dfeb89e0000000000000000000000000000000000000000000000000000000000000000",
        "nonce": "0x23e",
        "chainId": "0xaa36a7"
      },
      "additionalContracts": [],
      "isFixedGasLimit": false
    },
    {
      "hash": "0x3769432eeb07eeaeb028d764b7f3d4d5ff7cc2c5d4a9a3434330206b8489a433",
      "transactionType": "CALL",
      "contractName": null,
      "contractAddress": "0x1816ad7f281f5e5c1aec83fdac5711bfd6dd7f13",
      "function": "swap((address,address,uint128,uint32,address),bool,int128,uint256,uint256)",
      "arguments": [
        "(0x0000000000000000000000000000000000000000, 0x328E038Bfc43270f51311f964C6D9Bb8BB9195e4, 1020847100762815390390123822295304634, 5982, 0x0000000000000000000000000000000000000000)",
        "true",
        "500000000",
        "6276949602062853172742588666638147158083741740262337144812",
        "0"
      ],
      "transaction": {
        "from": "0x00000c771f6176268d5a9846e0956c3ef58597a1",
        "to": "0x1816ad7f281f5e5c1aec83fdac5711bfd6dd7f13",
        "gas": "0x24164",
        "value": "0x0",
        "input": "0xab81aca50000000000000000000000000000000000000000000000000000000000000000000000000000000000000000328e038bfc43270f51311f964c6d9bb8bb9195e40000000000000000000000000000000000c49ba5e353f7ced916872b020c49ba000000000000000000000000000000000000000000000000000000000000175e00000000000000000000000000000000000000000000000000000000000000000000000000000000000000000000000000000000000000000000000000000001000000000000000000000000000000000000000000000000000000001dcd65000000000000000000fffe696227de541a6906a28c6409402eefdd9a358361e7ec0000000000000000000000000000000000000000000000000000000000000000",
        "nonce": "0x23f",
        "chainId": "0xaa36a7"
      },
      "additionalContracts": [],
      "isFixedGasLimit": false
    },
    {
      "hash": "0x0293dfff1192a38cee993fc56966290149aa611cd565801bbce42cdd7834f95c",
      "transactionType": "CALL",
      "contractName": null,
      "contractAddress": "0x1816ad7f281f5e5c1aec83fdac5711bfd6dd7f13",
      "function": "swap((address,address,uint128,uint32,address),bool,int128,uint256,uint256)",
      "arguments": [
        "(0x0000000000000000000000000000000000000000, 0x328E038Bfc43270f51311f964C6D9Bb8BB9195e4, 1020847100762815390390123822295304634, 5982, 0x0000000000000000000000000000000000000000)",
        "false",
        "100000",
        "18447191164202170526",
        "0"
      ],
      "transaction": {
        "from": "0x00000c771f6176268d5a9846e0956c3ef58597a1",
        "to": "0x1816ad7f281f5e5c1aec83fdac5711bfd6dd7f13",
        "gas": "0x1c1c5",
        "value": "0x186a0",
        "input": "0xab81aca50000000000000000000000000000000000000000000000000000000000000000000000000000000000000000328e038bfc43270f51311f964c6d9bb8bb9195e40000000000000000000000000000000000c49ba5e353f7ced916872b020c49ba000000000000000000000000000000000000000000000000000000000000175e0000000000000000000000000000000000000000000000000000000000000000000000000000000000000000000000000000000000000000000000000000000000000000000000000000000000000000000000000000000000000000000186a0000000000000000000000000000000000000000000000001000196a05dfeb89e0000000000000000000000000000000000000000000000000000000000000000",
        "nonce": "0x240",
        "chainId": "0xaa36a7"
      },
      "additionalContracts": [],
      "isFixedGasLimit": false
    },
    {
      "hash": "0xd31b373316068f9571c68909f4991ea1bfc71955f80482978102e1efda3b0d71",
      "transactionType": "CALL",
      "contractName": null,
      "contractAddress": "0x1816ad7f281f5e5c1aec83fdac5711bfd6dd7f13",
      "function": "swap((address,address,uint128,uint32,address),bool,int128,uint256,uint256)",
      "arguments": [
        "(0x0000000000000000000000000000000000000000, 0x328E038Bfc43270f51311f964C6D9Bb8BB9195e4, 1020847100762815390390123822295304634, 5982, 0x0000000000000000000000000000000000000000)",
        "true",
        "500000000",
        "6276949602062853172742588666638147158083741740262337144812",
        "0"
      ],
      "transaction": {
        "from": "0x00000c771f6176268d5a9846e0956c3ef58597a1",
        "to": "0x1816ad7f281f5e5c1aec83fdac5711bfd6dd7f13",
        "gas": "0x201aa",
        "value": "0x0",
        "input": "0xab81aca50000000000000000000000000000000000000000000000000000000000000000000000000000000000000000328e038bfc43270f51311f964c6d9bb8bb9195e40000000000000000000000000000000000c49ba5e353f7ced916872b020c49ba000000000000000000000000000000000000000000000000000000000000175e00000000000000000000000000000000000000000000000000000000000000000000000000000000000000000000000000000000000000000000000000000001000000000000000000000000000000000000000000000000000000001dcd65000000000000000000fffe696227de541a6906a28c6409402eefdd9a358361e7ec0000000000000000000000000000000000000000000000000000000000000000",
        "nonce": "0x241",
        "chainId": "0xaa36a7"
      },
      "additionalContracts": [],
      "isFixedGasLimit": false
    },
    {
      "hash": "0x24138be79a80ee6a0afe2e2fdc907d5dc7339a8847d4582366a6fe04bf722add",
      "transactionType": "CALL",
      "contractName": null,
      "contractAddress": "0x1816ad7f281f5e5c1aec83fdac5711bfd6dd7f13",
      "function": "swap((address,address,uint128,uint32,address),bool,int128,uint256,uint256)",
      "arguments": [
        "(0x0000000000000000000000000000000000000000, 0x328E038Bfc43270f51311f964C6D9Bb8BB9195e4, 1020847100762815390390123822295304634, 5982, 0x0000000000000000000000000000000000000000)",
        "false",
        "100000",
        "18447191164202170526",
        "0"
      ],
      "transaction": {
        "from": "0x00000c771f6176268d5a9846e0956c3ef58597a1",
        "to": "0x1816ad7f281f5e5c1aec83fdac5711bfd6dd7f13",
        "gas": "0x1c1c5",
        "value": "0x186a0",
        "input": "0xab81aca50000000000000000000000000000000000000000000000000000000000000000000000000000000000000000328e038bfc43270f51311f964c6d9bb8bb9195e40000000000000000000000000000000000c49ba5e353f7ced916872b020c49ba000000000000000000000000000000000000000000000000000000000000175e0000000000000000000000000000000000000000000000000000000000000000000000000000000000000000000000000000000000000000000000000000000000000000000000000000000000000000000000000000000000000000000186a0000000000000000000000000000000000000000000000001000196a05dfeb89e0000000000000000000000000000000000000000000000000000000000000000",
        "nonce": "0x242",
        "chainId": "0xaa36a7"
      },
      "additionalContracts": [],
      "isFixedGasLimit": false
    },
    {
      "hash": "0x7db394bca2b7202857c008e272c7a35d1303e54a335c1d12e662047fcd082a38",
      "transactionType": "CALL",
      "contractName": null,
      "contractAddress": "0x1816ad7f281f5e5c1aec83fdac5711bfd6dd7f13",
      "function": "swap((address,address,uint128,uint32,address),bool,int128,uint256,uint256)",
      "arguments": [
        "(0x0000000000000000000000000000000000000000, 0x328E038Bfc43270f51311f964C6D9Bb8BB9195e4, 1020847100762815390390123822295304634, 5982, 0x0000000000000000000000000000000000000000)",
        "true",
        "500000000",
        "6276949602062853172742588666638147158083741740262337144812",
        "0"
      ],
      "transaction": {
        "from": "0x00000c771f6176268d5a9846e0956c3ef58597a1",
        "to": "0x1816ad7f281f5e5c1aec83fdac5711bfd6dd7f13",
        "gas": "0x201aa",
        "value": "0x0",
        "input": "0xab81aca50000000000000000000000000000000000000000000000000000000000000000000000000000000000000000328e038bfc43270f51311f964c6d9bb8bb9195e40000000000000000000000000000000000c49ba5e353f7ced916872b020c49ba000000000000000000000000000000000000000000000000000000000000175e00000000000000000000000000000000000000000000000000000000000000000000000000000000000000000000000000000000000000000000000000000001000000000000000000000000000000000000000000000000000000001dcd65000000000000000000fffe696227de541a6906a28c6409402eefdd9a358361e7ec0000000000000000000000000000000000000000000000000000000000000000",
        "nonce": "0x243",
        "chainId": "0xaa36a7"
      },
      "additionalContracts": [],
      "isFixedGasLimit": false
    },
    {
      "hash": "0x12dfa07c87b46edc1564895e19224fd4502d29c300dc4ca0cbfddd54987a2980",
      "transactionType": "CALL",
      "contractName": null,
      "contractAddress": "0x1816ad7f281f5e5c1aec83fdac5711bfd6dd7f13",
      "function": "swap((address,address,uint128,uint32,address),bool,int128,uint256,uint256)",
      "arguments": [
        "(0x0000000000000000000000000000000000000000, 0x328E038Bfc43270f51311f964C6D9Bb8BB9195e4, 1020847100762815390390123822295304634, 5982, 0x0000000000000000000000000000000000000000)",
        "false",
        "100000",
        "18447191164202170526",
        "0"
      ],
      "transaction": {
        "from": "0x00000c771f6176268d5a9846e0956c3ef58597a1",
        "to": "0x1816ad7f281f5e5c1aec83fdac5711bfd6dd7f13",
        "gas": "0x1c1c5",
        "value": "0x186a0",
        "input": "0xab81aca50000000000000000000000000000000000000000000000000000000000000000000000000000000000000000328e038bfc43270f51311f964c6d9bb8bb9195e40000000000000000000000000000000000c49ba5e353f7ced916872b020c49ba000000000000000000000000000000000000000000000000000000000000175e0000000000000000000000000000000000000000000000000000000000000000000000000000000000000000000000000000000000000000000000000000000000000000000000000000000000000000000000000000000000000000000186a0000000000000000000000000000000000000000000000001000196a05dfeb89e0000000000000000000000000000000000000000000000000000000000000000",
        "nonce": "0x244",
        "chainId": "0xaa36a7"
      },
      "additionalContracts": [],
      "isFixedGasLimit": false
    },
    {
      "hash": "0x93f11f67dd043827d3d87d9f3bcc0823dcd8ccbc47e4645c5d17520adddca09b",
      "transactionType": "CALL",
      "contractName": null,
      "contractAddress": "0x1816ad7f281f5e5c1aec83fdac5711bfd6dd7f13",
      "function": "swap((address,address,uint128,uint32,address),bool,int128,uint256,uint256)",
      "arguments": [
        "(0x0000000000000000000000000000000000000000, 0x328E038Bfc43270f51311f964C6D9Bb8BB9195e4, 1020847100762815390390123822295304634, 5982, 0x0000000000000000000000000000000000000000)",
        "true",
        "500000000",
        "6276949602062853172742588666638147158083741740262337144812",
        "0"
      ],
      "transaction": {
        "from": "0x00000c771f6176268d5a9846e0956c3ef58597a1",
        "to": "0x1816ad7f281f5e5c1aec83fdac5711bfd6dd7f13",
        "gas": "0x201aa",
        "value": "0x0",
        "input": "0xab81aca50000000000000000000000000000000000000000000000000000000000000000000000000000000000000000328e038bfc43270f51311f964c6d9bb8bb9195e40000000000000000000000000000000000c49ba5e353f7ced916872b020c49ba000000000000000000000000000000000000000000000000000000000000175e00000000000000000000000000000000000000000000000000000000000000000000000000000000000000000000000000000000000000000000000000000001000000000000000000000000000000000000000000000000000000001dcd65000000000000000000fffe696227de541a6906a28c6409402eefdd9a358361e7ec0000000000000000000000000000000000000000000000000000000000000000",
        "nonce": "0x245",
        "chainId": "0xaa36a7"
      },
      "additionalContracts": [],
      "isFixedGasLimit": false
    },
    {
      "hash": "0xd3c9bc7a2787f9e95a000f3d7e21f3f0160dbc63f460efa5654f8fb0e8037b4c",
      "transactionType": "CALL",
      "contractName": null,
      "contractAddress": "0x35eed2913997c4cd119a12a4f09483ec805ca9df",
      "function": "multicall(bytes[])",
      "arguments": [
        "[0x3bb838a80000000000000000000000000000000000000000000000000000000000000000000000000000000000000000328e038bfc43270f51311f964c6d9bb8bb9195e400000000000000000000000000000000028f5c28f5c28f5c28f5c28f5c28f5c20000000000000000000000000000000000000000000000000000000000004d5a0000000000000000000000000000000000000000000000000000000000000000000000000000000000000000000000000000000000000000000000000081f64d, 0xcda20b5030c90db3dce0dd46af20df535611a4a02f35006af1efe19a53d1afb402c6eb260000000000000000000000000000000000000000000000000000000000000000000000000000000000000000328e038bfc43270f51311f964c6d9bb8bb9195e400000000000000000000000000000000028f5c28f5c28f5c28f5c28f5c28f5c20000000000000000000000000000000000000000000000000000000000004d5a0000000000000000000000000000000000000000000000000000000000000000fffffffffffffffffffffffffffffffffffffffffffffffffffffffffab65900000000000000000000000000000000000000000000000000000000000549a700000000000000000000000000000000000000000000000000006a94d74f43000000000000000000000000000000000000000000000000001043561a88293000000000000000000000000000000000000000000000000000000000000000000000, 0x41865270]"
      ],
      "transaction": {
        "from": "0x00000c771f6176268d5a9846e0956c3ef58597a1",
        "to": "0x35eed2913997c4cd119a12a4f09483ec805ca9df",
        "gas": "0x65559",
        "value": "0x6a94d74f430000",
        "input": "0xac9650d80000000000000000000000000000000000000000000000000000000000000020000000000000000000000000000000000000000000000000000000000000000300000000000000000000000000000000000000000000000000000000000000600000000000000000000000000000000000000000000000000000000000000160000000000000000000000000000000000000000000000000000000000000030000000000000000000000000000000000000000000000000000000000000000c43bb838a80000000000000000000000000000000000000000000000000000000000000000000000000000000000000000328e038bfc43270f51311f964c6d9bb8bb9195e400000000000000000000000000000000028f5c28f5c28f5c28f5c28f5c28f5c20000000000000000000000000000000000000000000000000000000000004d5a0000000000000000000000000000000000000000000000000000000000000000000000000000000000000000000000000000000000000000000000000081f64d000000000000000000000000000000000000000000000000000000000000000000000000000000000000000000000000000000000000000000000164cda20b5030c90db3dce0dd46af20df535611a4a02f35006af1efe19a53d1afb402c6eb260000000000000000000000000000000000000000000000000000000000000000000000000000000000000000328e038bfc43270f51311f964c6d9bb8bb9195e400000000000000000000000000000000028f5c28f5c28f5c28f5c28f5c28f5c20000000000000000000000000000000000000000000000000000000000004d5a0000000000000000000000000000000000000000000000000000000000000000fffffffffffffffffffffffffffffffffffffffffffffffffffffffffab65900000000000000000000000000000000000000000000000000000000000549a700000000000000000000000000000000000000000000000000006a94d74f43000000000000000000000000000000000000000000000000001043561a882930000000000000000000000000000000000000000000000000000000000000000000000000000000000000000000000000000000000000000000000000000000000000000000000000000000000000000000000000000000000000000000044186527000000000000000000000000000000000000000000000000000000000",
        "nonce": "0x246",
        "chainId": "0xaa36a7"
      },
      "additionalContracts": [],
      "isFixedGasLimit": false
    },
    {
      "hash": "0x0c11f374d324f97c913af464fdb3433db226804f50283e8baf752328be923315",
      "transactionType": "CALL",
      "contractName": null,
      "contractAddress": "0x35eed2913997c4cd119a12a4f09483ec805ca9df",
      "function": "multicall(bytes[])",
      "arguments": [
        "[0x3bb838a80000000000000000000000000000000000000000000000000000000000000000000000000000000000000000328e038bfc43270f51311f964c6d9bb8bb9195e40000000000000000000000000000000000000000000000000000000000000000000000000000000000000000000000000000000000000000000000000000000000000000000000000000000051bdea09883dc448f98f71d643d4c905bae1b28300000000000000000000000000000000000000000000000000000000004644f4, 0xcda20b5030c90db3dce0dd46af20df535611a4a02f35006af1efe19a53d1afb402c6eb270000000000000000000000000000000000000000000000000000000000000000000000000000000000000000328e038bfc43270f51311f964c6d9bb8bb9195e40000000000000000000000000000000000000000000000000000000000000000000000000000000000000000000000000000000000000000000000000000000000000000000000000000000051bdea09883dc448f98f71d643d4c905bae1b283fffffffffffffffffffffffffffffffffffffffffffffffffffffffffab6326d000000000000000000000000000000000000000000000000000000000549cd930000000000000000000000000000000000000000000000000de0b6b3a76400000000000000000000000000000000000000000000000000056bc75e2d631000000000000000000000000000000000000000000000000000000000000000000000, 0x41865270]"
      ],
      "transaction": {
        "from": "0x00000c771f6176268d5a9846e0956c3ef58597a1",
        "to": "0x35eed2913997c4cd119a12a4f09483ec805ca9df",
        "gas": "0x56504",
        "value": "0xde0b6b3a7640000",
        "input": "0xac9650d80000000000000000000000000000000000000000000000000000000000000020000000000000000000000000000000000000000000000000000000000000000300000000000000000000000000000000000000000000000000000000000000600000000000000000000000000000000000000000000000000000000000000160000000000000000000000000000000000000000000000000000000000000030000000000000000000000000000000000000000000000000000000000000000c43bb838a80000000000000000000000000000000000000000000000000000000000000000000000000000000000000000328e038bfc43270f51311f964c6d9bb8bb9195e40000000000000000000000000000000000000000000000000000000000000000000000000000000000000000000000000000000000000000000000000000000000000000000000000000000051bdea09883dc448f98f71d643d4c905bae1b28300000000000000000000000000000000000000000000000000000000004644f4000000000000000000000000000000000000000000000000000000000000000000000000000000000000000000000000000000000000000000000164cda20b5030c90db3dce0dd46af20df535611a4a02f35006af1efe19a53d1afb402c6eb270000000000000000000000000000000000000000000000000000000000000000000000000000000000000000328e038bfc43270f51311f964c6d9bb8bb9195e40000000000000000000000000000000000000000000000000000000000000000000000000000000000000000000000000000000000000000000000000000000000000000000000000000000051bdea09883dc448f98f71d643d4c905bae1b283fffffffffffffffffffffffffffffffffffffffffffffffffffffffffab6326d000000000000000000000000000000000000000000000000000000000549cd930000000000000000000000000000000000000000000000000de0b6b3a76400000000000000000000000000000000000000000000000000056bc75e2d6310000000000000000000000000000000000000000000000000000000000000000000000000000000000000000000000000000000000000000000000000000000000000000000000000000000000000000000000000000000000000000000044186527000000000000000000000000000000000000000000000000000000000",
        "nonce": "0x247",
        "chainId": "0xaa36a7"
      },
      "additionalContracts": [],
      "isFixedGasLimit": false
    },
    {
      "hash": "0xb034728158afc81fdbc69e2812a87e6250aef33048748bf0dea0cdb05db1e055",
      "transactionType": "CALL",
      "contractName": null,
      "contractAddress": "0x1816ad7f281f5e5c1aec83fdac5711bfd6dd7f13",
      "function": "swap((address,address,uint128,uint32,address),bool,int128,uint256,uint256)",
      "arguments": [
        "(0x0000000000000000000000000000000000000000, 0x328E038Bfc43270f51311f964C6D9Bb8BB9195e4, 0, 0, 0x51BdEa09883Dc448f98f71d643d4c905Bae1b283)",
        "false",
        "100000",
        "18447191164202170526",
        "0"
      ],
      "transaction": {
        "from": "0x00000c771f6176268d5a9846e0956c3ef58597a1",
        "to": "0x1816ad7f281f5e5c1aec83fdac5711bfd6dd7f13",
        "gas": "0x1eb73",
        "value": "0x186a0",
        "input": "0xab81aca50000000000000000000000000000000000000000000000000000000000000000000000000000000000000000328e038bfc43270f51311f964c6d9bb8bb9195e40000000000000000000000000000000000000000000000000000000000000000000000000000000000000000000000000000000000000000000000000000000000000000000000000000000051bdea09883dc448f98f71d643d4c905bae1b283000000000000000000000000000000000000000000000000000000000000000000000000000000000000000000000000000000000000000000000000000186a0000000000000000000000000000000000000000000000001000196a05dfeb89e0000000000000000000000000000000000000000000000000000000000000000",
        "nonce": "0x248",
        "chainId": "0xaa36a7"
      },
      "additionalContracts": [],
      "isFixedGasLimit": false
    },
    {
      "hash": "0x01003a7c521e3b72648b160c59008253abbe1b050e0ca48913e6a9308f384136",
      "transactionType": "CALL",
      "contractName": null,
      "contractAddress": "0x1816ad7f281f5e5c1aec83fdac5711bfd6dd7f13",
      "function": "swap((address,address,uint128,uint32,address),bool,int128,uint256,uint256)",
      "arguments": [
        "(0x0000000000000000000000000000000000000000, 0x328E038Bfc43270f51311f964C6D9Bb8BB9195e4, 0, 0, 0x51BdEa09883Dc448f98f71d643d4c905Bae1b283)",
        "true",
        "500000000",
        "6276949602062853172742588666638147158083741740262337144812",
        "0"
      ],
      "transaction": {
        "from": "0x00000c771f6176268d5a9846e0956c3ef58597a1",
        "to": "0x1816ad7f281f5e5c1aec83fdac5711bfd6dd7f13",
        "gas": "0x1f3bd",
        "value": "0x0",
        "input": "0xab81aca50000000000000000000000000000000000000000000000000000000000000000000000000000000000000000328e038bfc43270f51311f964c6d9bb8bb9195e40000000000000000000000000000000000000000000000000000000000000000000000000000000000000000000000000000000000000000000000000000000000000000000000000000000051bdea09883dc448f98f71d643d4c905bae1b2830000000000000000000000000000000000000000000000000000000000000001000000000000000000000000000000000000000000000000000000001dcd65000000000000000000fffe696227de541a6906a28c6409402eefdd9a358361e7ec0000000000000000000000000000000000000000000000000000000000000000",
        "nonce": "0x249",
        "chainId": "0xaa36a7"
      },
      "additionalContracts": [],
      "isFixedGasLimit": false
    },
    {
      "hash": "0x438fd3bc02192af0e9d3f067b9d7c7332df50c1c8d2b6f1b5c671f326b079878",
      "transactionType": "CALL",
      "contractName": null,
      "contractAddress": "0x1816ad7f281f5e5c1aec83fdac5711bfd6dd7f13",
      "function": "swap((address,address,uint128,uint32,address),bool,int128,uint256,uint256)",
      "arguments": [
        "(0x0000000000000000000000000000000000000000, 0x328E038Bfc43270f51311f964C6D9Bb8BB9195e4, 0, 0, 0x51BdEa09883Dc448f98f71d643d4c905Bae1b283)",
        "false",
        "100000",
        "18447191164202170526",
        "0"
      ],
      "transaction": {
        "from": "0x00000c771f6176268d5a9846e0956c3ef58597a1",
        "to": "0x1816ad7f281f5e5c1aec83fdac5711bfd6dd7f13",
        "gas": "0x1d02a",
        "value": "0x186a0",
        "input": "0xab81aca50000000000000000000000000000000000000000000000000000000000000000000000000000000000000000328e038bfc43270f51311f964c6d9bb8bb9195e40000000000000000000000000000000000000000000000000000000000000000000000000000000000000000000000000000000000000000000000000000000000000000000000000000000051bdea09883dc448f98f71d643d4c905bae1b283000000000000000000000000000000000000000000000000000000000000000000000000000000000000000000000000000000000000000000000000000186a0000000000000000000000000000000000000000000000001000196a05dfeb89e0000000000000000000000000000000000000000000000000000000000000000",
        "nonce": "0x24a",
        "chainId": "0xaa36a7"
      },
      "additionalContracts": [],
      "isFixedGasLimit": false
    },
    {
      "hash": "0x981a3ac2591dae5d77e9cd0986737f87f7ff957230fbccb4f277ce177f19474b",
      "transactionType": "CALL",
      "contractName": null,
      "contractAddress": "0x1816ad7f281f5e5c1aec83fdac5711bfd6dd7f13",
      "function": "swap((address,address,uint128,uint32,address),bool,int128,uint256,uint256)",
      "arguments": [
        "(0x0000000000000000000000000000000000000000, 0x328E038Bfc43270f51311f964C6D9Bb8BB9195e4, 0, 0, 0x51BdEa09883Dc448f98f71d643d4c905Bae1b283)",
        "true",
        "500000000",
        "6276949602062853172742588666638147158083741740262337144812",
        "0"
      ],
      "transaction": {
        "from": "0x00000c771f6176268d5a9846e0956c3ef58597a1",
        "to": "0x1816ad7f281f5e5c1aec83fdac5711bfd6dd7f13",
        "gas": "0x1f3bd",
        "value": "0x0",
        "input": "0xab81aca50000000000000000000000000000000000000000000000000000000000000000000000000000000000000000328e038bfc43270f51311f964c6d9bb8bb9195e40000000000000000000000000000000000000000000000000000000000000000000000000000000000000000000000000000000000000000000000000000000000000000000000000000000051bdea09883dc448f98f71d643d4c905bae1b2830000000000000000000000000000000000000000000000000000000000000001000000000000000000000000000000000000000000000000000000001dcd65000000000000000000fffe696227de541a6906a28c6409402eefdd9a358361e7ec0000000000000000000000000000000000000000000000000000000000000000",
        "nonce": "0x24b",
        "chainId": "0xaa36a7"
      },
      "additionalContracts": [],
      "isFixedGasLimit": false
    }
  ],
  "receipts": [
    {
      "status": "0x1",
      "cumulativeGasUsed": "0xa9e842",
      "logs": [
        {
          "address": "0x328e038bfc43270f51311f964c6d9bb8bb9195e4",
          "topics": [
            "0xddf252ad1be2c89b69c2b068fc378daa952ba7f163c4a11628f55a4df523b3ef",
            "0x0000000000000000000000000000000000000000000000000000000000000000",
            "0x00000000000000000000000000000c771f6176268d5a9846e0956c3ef58597a1"
          ],
          "data": "0xffffffffffffffffffffffffffffffffffffffffffffffffffffffffffffffff",
          "blockHash": "0xd6c406ba2e966aa2cf581281889925e880f435d1d072fcc3991ef6e222504bad",
          "blockNumber": "0x751b2d",
          "transactionHash": "0xf55f4be9ea555553319bded4397350e5afe7aead86ae6a2fc7d0c254822bacfb",
          "transactionIndex": "0x5c",
          "logIndex": "0x84",
          "removed": false
        }
      ],
      "logsBloom": "0x00000020000000000000000000000000000004000000000000000000000000200000000000000000000000000000000000000000000000000000000000000000000000000000000000000008000000000000000000000000000000000000000000000000020000000000000000000800000000000000000000000010000000000000000000000000000000000010000000000000000100000000000000000000000000000000000000000000000000000000000000000000000000000000000000000002000000000000000000000000000000000000000000000000000020000000000000000000000000000000000000000000000000000000000000000010",
      "type": "0x2",
      "transactionHash": "0xf55f4be9ea555553319bded4397350e5afe7aead86ae6a2fc7d0c254822bacfb",
      "transactionIndex": "0x5c",
      "blockHash": "0xd6c406ba2e966aa2cf581281889925e880f435d1d072fcc3991ef6e222504bad",
      "blockNumber": "0x751b2d",
      "gasUsed": "0x90ed7",
      "effectiveGasPrice": "0x4b1fc2ee",
      "from": "0x00000c771f6176268d5a9846e0956c3ef58597a1",
      "to": null,
      "contractAddress": "0x328e038bfc43270f51311f964c6d9bb8bb9195e4"
    },
    {
      "status": "0x1",
      "cumulativeGasUsed": "0xcbc3cd",
      "logs": [
        {
          "address": "0x328e038bfc43270f51311f964c6d9bb8bb9195e4",
          "topics": [
            "0x8c5be1e5ebec7d5bd14f71427d1e84f3dd0314c0f7b2291e5b200ac8c7c3b925",
            "0x00000000000000000000000000000c771f6176268d5a9846e0956c3ef58597a1",
            "0x0000000000000000000000001816ad7f281f5e5c1aec83fdac5711bfd6dd7f13"
          ],
          "data": "0xffffffffffffffffffffffffffffffffffffffffffffffffffffffffffffffff",
          "blockHash": "0xf4a1c31694d64bcb04abdfc4f7cae9f072f735d726fa49be1ff06119f6bf4989",
          "blockNumber": "0x751b2e",
          "transactionHash": "0x770105d692a59b43d4ae0d2c9dde5b49a198845dfd4b7d651c238331c0e70b57",
          "transactionIndex": "0x3a",
          "logIndex": "0x117",
          "removed": false
        }
      ],
      "logsBloom": "0x00000020000000000000000000000000000004000000002000000000000000200000000000000000000000010000000000000000000000000000000000200000000000000000000000000000000000000000000000000000000000000000000000000000000000000000000000000000000000000000000000000000000000000000000000000000000000000010000000000000000100000000000000000000020000000000000000000002000000000000000000000000000000000000000000000000000000000000000000000000000000000000000000000000000000000010000000000000000000000000000000000000000000000000000000000010",
      "type": "0x2",
      "transactionHash": "0x770105d692a59b43d4ae0d2c9dde5b49a198845dfd4b7d651c238331c0e70b57",
      "transactionIndex": "0x3a",
      "blockHash": "0xf4a1c31694d64bcb04abdfc4f7cae9f072f735d726fa49be1ff06119f6bf4989",
      "blockNumber": "0x751b2e",
      "gasUsed": "0xb437",
      "effectiveGasPrice": "0x4c549902",
      "from": "0x00000c771f6176268d5a9846e0956c3ef58597a1",
      "to": "0x328e038bfc43270f51311f964c6d9bb8bb9195e4",
      "contractAddress": null
    },
    {
      "status": "0x1",
      "cumulativeGasUsed": "0x84876b",
      "logs": [
        {
          "address": "0x328e038bfc43270f51311f964c6d9bb8bb9195e4",
          "topics": [
            "0x8c5be1e5ebec7d5bd14f71427d1e84f3dd0314c0f7b2291e5b200ac8c7c3b925",
            "0x00000000000000000000000000000c771f6176268d5a9846e0956c3ef58597a1",
            "0x00000000000000000000000035eed2913997c4cd119a12a4f09483ec805ca9df"
          ],
          "data": "0xffffffffffffffffffffffffffffffffffffffffffffffffffffffffffffffff",
          "blockHash": "0x534c7a77acd19325533555dc0ca516cb6245b1f78cd831448b4d736e6df7a334",
          "blockNumber": "0x751b2f",
          "transactionHash": "0x37a5de18d5966bd256ae85851bd9c5b980f93f3e7b69189ce102078f5de695d2",
          "transactionIndex": "0x50",
          "logIndex": "0x6b",
          "removed": false
        }
      ],
      "logsBloom": "0x00000020000000000000000000000000000004000000000000000000000000200000000000000000000000000000000000000000000000000000000000200000000000000000000000000000000000000000000000000000000000000000000000000080000000000000000000000000000000000000000000000000000000000000000000000000000000000010000000000000000100000000000000000000060000000000000000000000000000000000000000000000000000000000000000000000000000000000000000000000000000000000000000000000000000000010000000000000000000000000000000000000000002000000000000000010",
      "type": "0x2",
      "transactionHash": "0x37a5de18d5966bd256ae85851bd9c5b980f93f3e7b69189ce102078f5de695d2",
      "transactionIndex": "0x50",
      "blockHash": "0x534c7a77acd19325533555dc0ca516cb6245b1f78cd831448b4d736e6df7a334",
      "blockNumber": "0x751b2f",
      "gasUsed": "0xb437",
      "effectiveGasPrice": "0x4b92a86d",
      "from": "0x00000c771f6176268d5a9846e0956c3ef58597a1",
      "to": "0x328e038bfc43270f51311f964c6d9bb8bb9195e4",
      "contractAddress": null
    },
    {
      "status": "0x1",
      "cumulativeGasUsed": "0xef1c0d",
      "logs": [
        {
          "address": "0xfeb74ca6cf43257a76a1fc59caa5c5d28a15d6ce",
          "topics": [
            "0x5014502cd7c1cd1f671286e947be5af016cf1bff863e084d012d73b1133f7cfb"
          ],
          "data": "0x1fb778b7448d8c3ad62230ec0560a46ace276e830f46acb4ab19ece5bec41aca0000000000000000000000000000000000000000000000000000000000000000000000000000000000000000328e038bfc43270f51311f964c6d9bb8bb9195e40000000000000000000000000000000000c49ba5e353f7ced916872b020c49ba000000000000000000000000000000000000000000000000000000000000175e0000000000000000000000000000000000000000000000000000000000000000000000000000000000000000000000000000000000000000000000000081f64d00000000000000000000000000000046b5edf55f4b6d955ca5ad5187dff5e61a",
          "blockHash": "0x24278a4abb3a3cb9d65d4c2b4791bb045788442db914c1861bb751567480d01b",
          "blockNumber": "0x751b30",
          "transactionHash": "0x4cdad5ec7bcc35a66756151122e31522db2556131a4a9932798f985a45fb080b",
          "transactionIndex": "0x46",
          "logIndex": "0x157",
          "removed": false
        },
        {
          "address": "0x35eed2913997c4cd119a12a4f09483ec805ca9df",
          "topics": [
            "0xddf252ad1be2c89b69c2b068fc378daa952ba7f163c4a11628f55a4df523b3ef",
            "0x0000000000000000000000000000000000000000000000000000000000000000",
            "0x00000000000000000000000000000c771f6176268d5a9846e0956c3ef58597a1",
            "0x00000000000000000000000000000000000000000000000000004b450cda10c9"
          ],
          "data": "0x",
          "blockHash": "0x24278a4abb3a3cb9d65d4c2b4791bb045788442db914c1861bb751567480d01b",
          "blockNumber": "0x751b30",
          "transactionHash": "0x4cdad5ec7bcc35a66756151122e31522db2556131a4a9932798f985a45fb080b",
          "transactionIndex": "0x46",
          "logIndex": "0x158",
          "removed": false
        },
        {
          "address": "0xfeb74ca6cf43257a76a1fc59caa5c5d28a15d6ce",
          "topics": [
            "0xa2d4008be4187c63684f323788e131e1370dbc2205499befe2834005a00c792c"
          ],
          "data": "0x00000000000000000000000035eed2913997c4cd119a12a4f09483ec805ca9df1fb778b7448d8c3ad62230ec0560a46ace276e830f46acb4ab19ece5bec41aca00000000000000000000000000000000000000000000000000004b450cda10c9fffffffffffffffffffffffffffffffffffffffffffffffffffffffffab6413e000000000000000000000000000000000000000000000000000000000549bec200000000000000000000000000000000000000000000000009d025b9f39a7b59000000000000000000000000000000000000000000000000002386f26fc10000000000000000000000000000000000000000000000000002b5e39a9fdddd9e1c",
          "blockHash": "0x24278a4abb3a3cb9d65d4c2b4791bb045788442db914c1861bb751567480d01b",
          "blockNumber": "0x751b30",
          "transactionHash": "0x4cdad5ec7bcc35a66756151122e31522db2556131a4a9932798f985a45fb080b",
          "transactionIndex": "0x46",
          "logIndex": "0x159",
          "removed": false
        },
        {
          "address": "0x328e038bfc43270f51311f964c6d9bb8bb9195e4",
          "topics": [
            "0xddf252ad1be2c89b69c2b068fc378daa952ba7f163c4a11628f55a4df523b3ef",
            "0x00000000000000000000000000000c771f6176268d5a9846e0956c3ef58597a1",
            "0x000000000000000000000000feb74ca6cf43257a76a1fc59caa5c5d28a15d6ce"
          ],
          "data": "0x000000000000000000000000000000000000000000000002b5e39a9fdddd9e1c",
          "blockHash": "0x24278a4abb3a3cb9d65d4c2b4791bb045788442db914c1861bb751567480d01b",
          "blockNumber": "0x751b30",
          "transactionHash": "0x4cdad5ec7bcc35a66756151122e31522db2556131a4a9932798f985a45fb080b",
          "transactionIndex": "0x46",
          "logIndex": "0x15a",
          "removed": false
        }
      ],
      "logsBloom": "0x00000020000000000100000000000000000044000100020000000000000000200000000000000000000000000000000000000000000000000000000000000000000000000000000000000008000000000000000801000000000000000400000020000000020008000000000200000800000000000084000080000010000100000000000000000000000000000018000000000000000100800000000000000000000000000000000000000000000000000000000000000000000000000000000000000002000000000000000080000000000000000000000000000000000020000000001000000000000000000000000000000000000000000000000000000010",
      "type": "0x2",
      "transactionHash": "0x4cdad5ec7bcc35a66756151122e31522db2556131a4a9932798f985a45fb080b",
      "transactionIndex": "0x46",
      "blockHash": "0x24278a4abb3a3cb9d65d4c2b4791bb045788442db914c1861bb751567480d01b",
      "blockNumber": "0x751b30",
      "gasUsed": "0x51d6c",
      "effectiveGasPrice": "0x4b53551b",
      "from": "0x00000c771f6176268d5a9846e0956c3ef58597a1",
      "to": "0x35eed2913997c4cd119a12a4f09483ec805ca9df",
      "contractAddress": null
    },
    {
      "status": "0x1",
      "cumulativeGasUsed": "0x603025",
      "logs": [
        {
          "address": "0xfeb74ca6cf43257a76a1fc59caa5c5d28a15d6ce",
          "topics": [],
          "data": "0x1816ad7f281f5e5c1aec83fdac5711bfd6dd7f131fb778b7448d8c3ad62230ec0560a46ace276e830f46acb4ab19ece5bec41aca000000000000000000000000000186a0ffffffffffffffffffffffffe2497ff9000000000000000009d025b9f39a7b590000000000000046b5edf55c4449ef7497539f80a00c1b230081f64c",
          "blockHash": "0xf1d4130f1050c16aa5970b2c180ecda17101ef0e1d03a9130394398a660c202a",
          "blockNumber": "0x751b31",
          "transactionHash": "0x2e6ed2937a7e9b4fd2d1642365a41228867a559653cdc2b11906a60cc4bb8602",
          "transactionIndex": "0x50",
          "logIndex": "0x60",
          "removed": false
        },
        {
          "address": "0x328e038bfc43270f51311f964c6d9bb8bb9195e4",
          "topics": [
            "0xddf252ad1be2c89b69c2b068fc378daa952ba7f163c4a11628f55a4df523b3ef",
            "0x000000000000000000000000feb74ca6cf43257a76a1fc59caa5c5d28a15d6ce",
            "0x00000000000000000000000000000c771f6176268d5a9846e0956c3ef58597a1"
          ],
          "data": "0x000000000000000000000000000000000000000000000000000000001db68007",
          "blockHash": "0xf1d4130f1050c16aa5970b2c180ecda17101ef0e1d03a9130394398a660c202a",
          "blockNumber": "0x751b31",
          "transactionHash": "0x2e6ed2937a7e9b4fd2d1642365a41228867a559653cdc2b11906a60cc4bb8602",
          "transactionIndex": "0x50",
          "logIndex": "0x61",
          "removed": false
        }
      ],
      "logsBloom": "0x00000020000000000000000000000000000044000000000000000000000000200000000000000000000000000000000000000000000000000000000000000000000000000000000000000008000000000000000000000000000000000000000000000000000008000000000200000000000000000080000080000010000000000000000000000000000000000010000000000000000100800000000000000000000000000000000000000000000000000000000000000000000000000000000000000002000000000000000000000000000000000000000000000000000000000000000000000000000000000000000000000000000000000000000000000010",
      "type": "0x2",
      "transactionHash": "0x2e6ed2937a7e9b4fd2d1642365a41228867a559653cdc2b11906a60cc4bb8602",
      "transactionIndex": "0x50",
      "blockHash": "0xf1d4130f1050c16aa5970b2c180ecda17101ef0e1d03a9130394398a660c202a",
      "blockNumber": "0x751b31",
      "gasUsed": "0x1886c",
      "effectiveGasPrice": "0x4c31f914",
      "from": "0x00000c771f6176268d5a9846e0956c3ef58597a1",
      "to": "0x1816ad7f281f5e5c1aec83fdac5711bfd6dd7f13",
      "contractAddress": null
    },
    {
      "status": "0x1",
      "cumulativeGasUsed": "0xad5ba1",
      "logs": [
        {
          "address": "0xfeb74ca6cf43257a76a1fc59caa5c5d28a15d6ce",
          "topics": [],
          "data": "0x1816ad7f281f5e5c1aec83fdac5711bfd6dd7f131fb778b7448d8c3ad62230ec0560a46ace276e830f46acb4ab19ece5bec41acafffffffffffffffffffffffffffe7a8c0000000000000000000000001dcd6500000000000000000009d025b9f39a7b590000000000000046b5edf55f4b6dbf06947d160474f95e090081f64d",
          "blockHash": "0x95776ef71ca55206bcb54891aba2b869bd56cc4fc15c3d3d508a01dabe75f692",
          "blockNumber": "0x751b32",
          "transactionHash": "0x3769432eeb07eeaeb028d764b7f3d4d5ff7cc2c5d4a9a3434330206b8489a433",
          "transactionIndex": "0x59",
          "logIndex": "0x80",
          "removed": false
        },
        {
          "address": "0x328e038bfc43270f51311f964c6d9bb8bb9195e4",
          "topics": [
            "0xddf252ad1be2c89b69c2b068fc378daa952ba7f163c4a11628f55a4df523b3ef",
            "0x00000000000000000000000000000c771f6176268d5a9846e0956c3ef58597a1",
            "0x000000000000000000000000feb74ca6cf43257a76a1fc59caa5c5d28a15d6ce"
          ],
          "data": "0x000000000000000000000000000000000000000000000000000000001dcd6500",
          "blockHash": "0x95776ef71ca55206bcb54891aba2b869bd56cc4fc15c3d3d508a01dabe75f692",
          "blockNumber": "0x751b32",
          "transactionHash": "0x3769432eeb07eeaeb028d764b7f3d4d5ff7cc2c5d4a9a3434330206b8489a433",
          "transactionIndex": "0x59",
          "logIndex": "0x81",
          "removed": false
        }
      ],
      "logsBloom": "0x00000020000000000000000000000000000044000000000000000000000000200000000000000000000000000000000000000000000000000000000000000000000000000000000000000008000000000000000000000000000000000000000000000000000008000000000200000000000000000080000080000010000000000000000000000000000000000010000000000000000100800000000000000000000000000000000000000000000000000000000000000000000000000000000000000002000000000000000000000000000000000000000000000000000000000000000000000000000000000000000000000000000000000000000000000010",
      "type": "0x2",
      "transactionHash": "0x3769432eeb07eeaeb028d764b7f3d4d5ff7cc2c5d4a9a3434330206b8489a433",
      "transactionIndex": "0x59",
      "blockHash": "0x95776ef71ca55206bcb54891aba2b869bd56cc4fc15c3d3d508a01dabe75f692",
      "blockNumber": "0x751b32",
      "gasUsed": "0x1a206",
      "effectiveGasPrice": "0x48eaf1f5",
      "from": "0x00000c771f6176268d5a9846e0956c3ef58597a1",
      "to": "0x1816ad7f281f5e5c1aec83fdac5711bfd6dd7f13",
      "contractAddress": null
    },
    {
      "status": "0x1",
      "cumulativeGasUsed": "0xc6589a",
      "logs": [
        {
          "address": "0xfeb74ca6cf43257a76a1fc59caa5c5d28a15d6ce",
          "topics": [],
          "data": "0x1816ad7f281f5e5c1aec83fdac5711bfd6dd7f131fb778b7448d8c3ad62230ec0560a46ace276e830f46acb4ab19ece5bec41aca000000000000000000000000000186a0ffffffffffffffffffffffffe24991e8000000000000000009d025b9f39a7b590000000000000046b5edf55c444becfabd7205d9bc7ffd4d0081f64c",
          "blockHash": "0x10a97210d5aec9eff021fbc1fa82fa0c51078666c6a84a05ec39673d890dce18",
          "blockNumber": "0x751b34",
          "transactionHash": "0x0293dfff1192a38cee993fc56966290149aa611cd565801bbce42cdd7834f95c",
          "transactionIndex": "0x7e",
          "logIndex": "0xc6",
          "removed": false
        },
        {
          "address": "0x328e038bfc43270f51311f964c6d9bb8bb9195e4",
          "topics": [
            "0xddf252ad1be2c89b69c2b068fc378daa952ba7f163c4a11628f55a4df523b3ef",
            "0x000000000000000000000000feb74ca6cf43257a76a1fc59caa5c5d28a15d6ce",
            "0x00000000000000000000000000000c771f6176268d5a9846e0956c3ef58597a1"
          ],
          "data": "0x000000000000000000000000000000000000000000000000000000001db66e18",
          "blockHash": "0x10a97210d5aec9eff021fbc1fa82fa0c51078666c6a84a05ec39673d890dce18",
          "blockNumber": "0x751b34",
          "transactionHash": "0x0293dfff1192a38cee993fc56966290149aa611cd565801bbce42cdd7834f95c",
          "transactionIndex": "0x7e",
          "logIndex": "0xc7",
          "removed": false
        }
      ],
      "logsBloom": "0x00000020000000000000000000000000000044000000000000000000000000200000000000000000000000000000000000000000000000000000000000000000000000000000000000000008000000000000000000000000000000000000000000000000000008000000000200000000000000000080000080000010000000000000000000000000000000000010000000000000000100800000000000000000000000000000000000000000000000000000000000000000000000000000000000000002000000000000000000000000000000000000000000000000000000000000000000000000000000000000000000000000000000000000000000000010",
      "type": "0x2",
      "transactionHash": "0x0293dfff1192a38cee993fc56966290149aa611cd565801bbce42cdd7834f95c",
      "transactionIndex": "0x7e",
      "blockHash": "0x10a97210d5aec9eff021fbc1fa82fa0c51078666c6a84a05ec39673d890dce18",
      "blockNumber": "0x751b34",
      "gasUsed": "0x145a0",
      "effectiveGasPrice": "0x47f59ec2",
      "from": "0x00000c771f6176268d5a9846e0956c3ef58597a1",
      "to": "0x1816ad7f281f5e5c1aec83fdac5711bfd6dd7f13",
      "contractAddress": null
    },
    {
      "status": "0x1",
      "cumulativeGasUsed": "0x91e496",
      "logs": [
        {
          "address": "0xfeb74ca6cf43257a76a1fc59caa5c5d28a15d6ce",
          "topics": [],
          "data": "0x1816ad7f281f5e5c1aec83fdac5711bfd6dd7f131fb778b7448d8c3ad62230ec0560a46ace276e830f46acb4ab19ece5bec41acafffffffffffffffffffffffffffe7a8c0000000000000000000000001dcd6500000000000000000009d025b9f39a7b590000000000000046b5edf55f4b6fbc8cba9b7c5d916d40330081f64d",
          "blockHash": "0x69df2341f6e7448251964a04c0f67655c1f8451a898f50a2cda30960514a9259",
          "blockNumber": "0x751b36",
          "transactionHash": "0xd31b373316068f9571c68909f4991ea1bfc71955f80482978102e1efda3b0d71",
          "transactionIndex": "0x50",
          "logIndex": "0x83",
          "removed": false
        },
        {
          "address": "0x328e038bfc43270f51311f964c6d9bb8bb9195e4",
          "topics": [
            "0xddf252ad1be2c89b69c2b068fc378daa952ba7f163c4a11628f55a4df523b3ef",
            "0x00000000000000000000000000000c771f6176268d5a9846e0956c3ef58597a1",
            "0x000000000000000000000000feb74ca6cf43257a76a1fc59caa5c5d28a15d6ce"
          ],
          "data": "0x000000000000000000000000000000000000000000000000000000001dcd6500",
          "blockHash": "0x69df2341f6e7448251964a04c0f67655c1f8451a898f50a2cda30960514a9259",
          "blockNumber": "0x751b36",
          "transactionHash": "0xd31b373316068f9571c68909f4991ea1bfc71955f80482978102e1efda3b0d71",
          "transactionIndex": "0x50",
          "logIndex": "0x84",
          "removed": false
        }
      ],
      "logsBloom": "0x00000020000000000000000000000000000044000000000000000000000000200000000000000000000000000000000000000000000000000000000000000000000000000000000000000008000000000000000000000000000000000000000000000000000008000000000200000000000000000080000080000010000000000000000000000000000000000010000000000000000100800000000000000000000000000000000000000000000000000000000000000000000000000000000000000002000000000000000000000000000000000000000000000000000000000000000000000000000000000000000000000000000000000000000000000010",
      "type": "0x2",
      "transactionHash": "0xd31b373316068f9571c68909f4991ea1bfc71955f80482978102e1efda3b0d71",
      "transactionIndex": "0x50",
      "blockHash": "0x69df2341f6e7448251964a04c0f67655c1f8451a898f50a2cda30960514a9259",
      "blockNumber": "0x751b36",
      "gasUsed": "0x15f3a",
      "effectiveGasPrice": "0x4a9bb616",
      "from": "0x00000c771f6176268d5a9846e0956c3ef58597a1",
      "to": "0x1816ad7f281f5e5c1aec83fdac5711bfd6dd7f13",
      "contractAddress": null
    },
    {
      "status": "0x1",
      "cumulativeGasUsed": "0x485fb4",
      "logs": [
        {
          "address": "0xfeb74ca6cf43257a76a1fc59caa5c5d28a15d6ce",
          "topics": [],
          "data": "0x1816ad7f281f5e5c1aec83fdac5711bfd6dd7f131fb778b7448d8c3ad62230ec0560a46ace276e830f46acb4ab19ece5bec41aca000000000000000000000000000186a0ffffffffffffffffffffffffe24991e8000000000000000009d025b9f39a7b590000000000000046b5edf55c444dea80e3906c32f5a2e34d0081f64c",
          "blockHash": "0x090b8ecc049488f076057bd0cf94230d42f6e8dedd190442e11f8b5d2a1385a6",
          "blockNumber": "0x751b37",
          "transactionHash": "0x24138be79a80ee6a0afe2e2fdc907d5dc7339a8847d4582366a6fe04bf722add",
          "transactionIndex": "0x45",
          "logIndex": "0x4e",
          "removed": false
        },
        {
          "address": "0x328e038bfc43270f51311f964c6d9bb8bb9195e4",
          "topics": [
            "0xddf252ad1be2c89b69c2b068fc378daa952ba7f163c4a11628f55a4df523b3ef",
            "0x000000000000000000000000feb74ca6cf43257a76a1fc59caa5c5d28a15d6ce",
            "0x00000000000000000000000000000c771f6176268d5a9846e0956c3ef58597a1"
          ],
          "data": "0x000000000000000000000000000000000000000000000000000000001db66e18",
          "blockHash": "0x090b8ecc049488f076057bd0cf94230d42f6e8dedd190442e11f8b5d2a1385a6",
          "blockNumber": "0x751b37",
          "transactionHash": "0x24138be79a80ee6a0afe2e2fdc907d5dc7339a8847d4582366a6fe04bf722add",
          "transactionIndex": "0x45",
          "logIndex": "0x4f",
          "removed": false
        }
      ],
      "logsBloom": "0x00000020000000000000000000000000000044000000000000000000000000200000000000000000000000000000000000000000000000000000000000000000000000000000000000000008000000000000000000000000000000000000000000000000000008000000000200000000000000000080000080000010000000000000000000000000000000000010000000000000000100800000000000000000000000000000000000000000000000000000000000000000000000000000000000000002000000000000000000000000000000000000000000000000000000000000000000000000000000000000000000000000000000000000000000000010",
      "type": "0x2",
      "transactionHash": "0x24138be79a80ee6a0afe2e2fdc907d5dc7339a8847d4582366a6fe04bf722add",
      "transactionIndex": "0x45",
      "blockHash": "0x090b8ecc049488f076057bd0cf94230d42f6e8dedd190442e11f8b5d2a1385a6",
      "blockNumber": "0x751b37",
      "gasUsed": "0x145a0",
      "effectiveGasPrice": "0x4f37ca01",
      "from": "0x00000c771f6176268d5a9846e0956c3ef58597a1",
      "to": "0x1816ad7f281f5e5c1aec83fdac5711bfd6dd7f13",
      "contractAddress": null
    },
    {
      "status": "0x1",
      "cumulativeGasUsed": "0xe2bbe8",
      "logs": [
        {
          "address": "0xfeb74ca6cf43257a76a1fc59caa5c5d28a15d6ce",
          "topics": [],
          "data": "0x1816ad7f281f5e5c1aec83fdac5711bfd6dd7f131fb778b7448d8c3ad62230ec0560a46ace276e830f46acb4ab19ece5bec41acafffffffffffffffffffffffffffe7a8c0000000000000000000000001dcd6500000000000000000009d025b9f39a7b590000000000000046b5edf55f4b71ba12e0b9e2b6ca9026330081f64d",
          "blockHash": "0xd9960f8e53833c798b8188a933bac3f357c93681873f4bfc27e895041989f55f",
          "blockNumber": "0x751b38",
          "transactionHash": "0x7db394bca2b7202857c008e272c7a35d1303e54a335c1d12e662047fcd082a38",
          "transactionIndex": "0x65",
          "logIndex": "0x13d",
          "removed": false
        },
        {
          "address": "0x328e038bfc43270f51311f964c6d9bb8bb9195e4",
          "topics": [
            "0xddf252ad1be2c89b69c2b068fc378daa952ba7f163c4a11628f55a4df523b3ef",
            "0x00000000000000000000000000000c771f6176268d5a9846e0956c3ef58597a1",
            "0x000000000000000000000000feb74ca6cf43257a76a1fc59caa5c5d28a15d6ce"
          ],
          "data": "0x000000000000000000000000000000000000000000000000000000001dcd6500",
          "blockHash": "0xd9960f8e53833c798b8188a933bac3f357c93681873f4bfc27e895041989f55f",
          "blockNumber": "0x751b38",
          "transactionHash": "0x7db394bca2b7202857c008e272c7a35d1303e54a335c1d12e662047fcd082a38",
          "transactionIndex": "0x65",
          "logIndex": "0x13e",
          "removed": false
        }
      ],
      "logsBloom": "0x00000020000000000000000000000000000044000000000000000000000000200000000000000000000000000000000000000000000000000000000000000000000000000000000000000008000000000000000000000000000000000000000000000000000008000000000200000000000000000080000080000010000000000000000000000000000000000010000000000000000100800000000000000000000000000000000000000000000000000000000000000000000000000000000000000002000000000000000000000000000000000000000000000000000000000000000000000000000000000000000000000000000000000000000000000010",
      "type": "0x2",
      "transactionHash": "0x7db394bca2b7202857c008e272c7a35d1303e54a335c1d12e662047fcd082a38",
      "transactionIndex": "0x65",
      "blockHash": "0xd9960f8e53833c798b8188a933bac3f357c93681873f4bfc27e895041989f55f",
      "blockNumber": "0x751b38",
      "gasUsed": "0x15f3a",
      "effectiveGasPrice": "0x4907de64",
      "from": "0x00000c771f6176268d5a9846e0956c3ef58597a1",
      "to": "0x1816ad7f281f5e5c1aec83fdac5711bfd6dd7f13",
      "contractAddress": null
    },
    {
      "status": "0x1",
      "cumulativeGasUsed": "0x7e5491",
      "logs": [
        {
          "address": "0xfeb74ca6cf43257a76a1fc59caa5c5d28a15d6ce",
          "topics": [],
          "data": "0x1816ad7f281f5e5c1aec83fdac5711bfd6dd7f131fb778b7448d8c3ad62230ec0560a46ace276e830f46acb4ab19ece5bec41aca000000000000000000000000000186a0ffffffffffffffffffffffffe24991e8000000000000000009d025b9f39a7b590000000000000046b5edf55c444fe80709aed28c4b74cd220081f64c",
          "blockHash": "0xc22aca4f97e76a14644ce4ad948b7c2ec09bdab256c83e265f449473724df537",
          "blockNumber": "0x751b39",
          "transactionHash": "0x12dfa07c87b46edc1564895e19224fd4502d29c300dc4ca0cbfddd54987a2980",
          "transactionIndex": "0x57",
          "logIndex": "0x73",
          "removed": false
        },
        {
          "address": "0x328e038bfc43270f51311f964c6d9bb8bb9195e4",
          "topics": [
            "0xddf252ad1be2c89b69c2b068fc378daa952ba7f163c4a11628f55a4df523b3ef",
            "0x000000000000000000000000feb74ca6cf43257a76a1fc59caa5c5d28a15d6ce",
            "0x00000000000000000000000000000c771f6176268d5a9846e0956c3ef58597a1"
          ],
          "data": "0x000000000000000000000000000000000000000000000000000000001db66e18",
          "blockHash": "0xc22aca4f97e76a14644ce4ad948b7c2ec09bdab256c83e265f449473724df537",
          "blockNumber": "0x751b39",
          "transactionHash": "0x12dfa07c87b46edc1564895e19224fd4502d29c300dc4ca0cbfddd54987a2980",
          "transactionIndex": "0x57",
          "logIndex": "0x74",
          "removed": false
        }
      ],
      "logsBloom": "0x00000020000000000000000000000000000044000000000000000000000000200000000000000000000000000000000000000000000000000000000000000000000000000000000000000008000000000000000000000000000000000000000000000000000008000000000200000000000000000080000080000010000000000000000000000000000000000010000000000000000100800000000000000000000000000000000000000000000000000000000000000000000000000000000000000002000000000000000000000000000000000000000000000000000000000000000000000000000000000000000000000000000000000000000000000010",
      "type": "0x2",
      "transactionHash": "0x12dfa07c87b46edc1564895e19224fd4502d29c300dc4ca0cbfddd54987a2980",
      "transactionIndex": "0x57",
      "blockHash": "0xc22aca4f97e76a14644ce4ad948b7c2ec09bdab256c83e265f449473724df537",
      "blockNumber": "0x751b39",
      "gasUsed": "0x145a0",
      "effectiveGasPrice": "0x4b14083c",
      "from": "0x00000c771f6176268d5a9846e0956c3ef58597a1",
      "to": "0x1816ad7f281f5e5c1aec83fdac5711bfd6dd7f13",
      "contractAddress": null
    },
    {
      "status": "0x1",
      "cumulativeGasUsed": "0x159f9f1",
      "logs": [
        {
          "address": "0xfeb74ca6cf43257a76a1fc59caa5c5d28a15d6ce",
          "topics": [],
          "data": "0x1816ad7f281f5e5c1aec83fdac5711bfd6dd7f131fb778b7448d8c3ad62230ec0560a46ace276e830f46acb4ab19ece5bec41acafffffffffffffffffffffffffffe7a8c0000000000000000000000001dcd6500000000000000000009d025b9f39a7b590000000000000046b5edf55f4b73b79906d84910206210080081f64d",
          "blockHash": "0x04f5cbf0aebbe42eb1ef2327d52380cd4aad91b510ea8ae1900e22562655be55",
          "blockNumber": "0x751b3b",
          "transactionHash": "0x93f11f67dd043827d3d87d9f3bcc0823dcd8ccbc47e4645c5d17520adddca09b",
          "transactionIndex": "0xb1",
          "logIndex": "0x1a3",
          "removed": false
        },
        {
          "address": "0x328e038bfc43270f51311f964c6d9bb8bb9195e4",
          "topics": [
            "0xddf252ad1be2c89b69c2b068fc378daa952ba7f163c4a11628f55a4df523b3ef",
            "0x00000000000000000000000000000c771f6176268d5a9846e0956c3ef58597a1",
            "0x000000000000000000000000feb74ca6cf43257a76a1fc59caa5c5d28a15d6ce"
          ],
          "data": "0x000000000000000000000000000000000000000000000000000000001dcd6500",
          "blockHash": "0x04f5cbf0aebbe42eb1ef2327d52380cd4aad91b510ea8ae1900e22562655be55",
          "blockNumber": "0x751b3b",
          "transactionHash": "0x93f11f67dd043827d3d87d9f3bcc0823dcd8ccbc47e4645c5d17520adddca09b",
          "transactionIndex": "0xb1",
          "logIndex": "0x1a4",
          "removed": false
        }
      ],
      "logsBloom": "0x00000020000000000000000000000000000044000000000000000000000000200000000000000000000000000000000000000000000000000000000000000000000000000000000000000008000000000000000000000000000000000000000000000000000008000000000200000000000000000080000080000010000000000000000000000000000000000010000000000000000100800000000000000000000000000000000000000000000000000000000000000000000000000000000000000002000000000000000000000000000000000000000000000000000000000000000000000000000000000000000000000000000000000000000000000010",
      "type": "0x2",
      "transactionHash": "0x93f11f67dd043827d3d87d9f3bcc0823dcd8ccbc47e4645c5d17520adddca09b",
      "transactionIndex": "0xb1",
      "blockHash": "0x04f5cbf0aebbe42eb1ef2327d52380cd4aad91b510ea8ae1900e22562655be55",
      "blockNumber": "0x751b3b",
      "gasUsed": "0x15f3a",
      "effectiveGasPrice": "0x416a3320",
      "from": "0x00000c771f6176268d5a9846e0956c3ef58597a1",
      "to": "0x1816ad7f281f5e5c1aec83fdac5711bfd6dd7f13",
      "contractAddress": null
    },
    {
      "status": "0x1",
      "cumulativeGasUsed": "0xea230b",
      "logs": [
        {
          "address": "0xfeb74ca6cf43257a76a1fc59caa5c5d28a15d6ce",
          "topics": [
            "0x5014502cd7c1cd1f671286e947be5af016cf1bff863e084d012d73b1133f7cfb"
          ],
          "data": "0x0f93ec37f38e13556b160fffecd97182a7ae80cc749608db52eb9284533dd3ad0000000000000000000000000000000000000000000000000000000000000000000000000000000000000000328e038bfc43270f51311f964c6d9bb8bb9195e400000000000000000000000000000000028f5c28f5c28f5c28f5c28f5c28f5c20000000000000000000000000000000000000000000000000000000000004d5a0000000000000000000000000000000000000000000000000000000000000000000000000000000000000000000000000000000000000000000000000081f64d00000000000000000000000000000046b5edf55f4b6d955ca5ad5187dff5e61a",
          "blockHash": "0x78eda3efc113bca6935b0f463566549b6167915da0890bdee8ef006d2953f04c",
          "blockNumber": "0x751b3d",
          "transactionHash": "0xd3c9bc7a2787f9e95a000f3d7e21f3f0160dbc63f460efa5654f8fb0e8037b4c",
          "transactionIndex": "0x61",
          "logIndex": "0x159",
          "removed": false
        },
        {
          "address": "0x35eed2913997c4cd119a12a4f09483ec805ca9df",
          "topics": [
            "0xddf252ad1be2c89b69c2b068fc378daa952ba7f163c4a11628f55a4df523b3ef",
            "0x0000000000000000000000000000000000000000000000000000000000000000",
            "0x00000000000000000000000000000c771f6176268d5a9846e0956c3ef58597a1",
            "0x000000000000000000000000000000000000000000000000000040c9af7e3846"
          ],
          "data": "0x",
          "blockHash": "0x78eda3efc113bca6935b0f463566549b6167915da0890bdee8ef006d2953f04c",
          "blockNumber": "0x751b3d",
          "transactionHash": "0xd3c9bc7a2787f9e95a000f3d7e21f3f0160dbc63f460efa5654f8fb0e8037b4c",
          "transactionIndex": "0x61",
          "logIndex": "0x15a",
          "removed": false
        },
        {
          "address": "0xfeb74ca6cf43257a76a1fc59caa5c5d28a15d6ce",
          "topics": [
            "0xa2d4008be4187c63684f323788e131e1370dbc2205499befe2834005a00c792c"
          ],
          "data": "0x00000000000000000000000035eed2913997c4cd119a12a4f09483ec805ca9df0f93ec37f38e13556b160fffecd97182a7ae80cc749608db52eb9284533dd3ad000000000000000000000000000000000000000000000000000040c9af7e3846fffffffffffffffffffffffffffffffffffffffffffffffffffffffffab65900000000000000000000000000000000000000000000000000000000000549a7000000000000000000000000000000000000000000000000001d70712ddacf720b000000000000000000000000000000000000000000000000006a94d74f43000000000000000000000000000000000000000000000000000821aacfdf9998da53",
          "blockHash": "0x78eda3efc113bca6935b0f463566549b6167915da0890bdee8ef006d2953f04c",
          "blockNumber": "0x751b3d",
          "transactionHash": "0xd3c9bc7a2787f9e95a000f3d7e21f3f0160dbc63f460efa5654f8fb0e8037b4c",
          "transactionIndex": "0x61",
          "logIndex": "0x15b",
          "removed": false
        },
        {
          "address": "0x328e038bfc43270f51311f964c6d9bb8bb9195e4",
          "topics": [
            "0xddf252ad1be2c89b69c2b068fc378daa952ba7f163c4a11628f55a4df523b3ef",
            "0x00000000000000000000000000000c771f6176268d5a9846e0956c3ef58597a1",
            "0x000000000000000000000000feb74ca6cf43257a76a1fc59caa5c5d28a15d6ce"
          ],
          "data": "0x00000000000000000000000000000000000000000000000821aacfdf9998da53",
          "blockHash": "0x78eda3efc113bca6935b0f463566549b6167915da0890bdee8ef006d2953f04c",
          "blockNumber": "0x751b3d",
          "transactionHash": "0xd3c9bc7a2787f9e95a000f3d7e21f3f0160dbc63f460efa5654f8fb0e8037b4c",
          "transactionIndex": "0x61",
          "logIndex": "0x15c",
          "removed": false
        }
      ],
      "logsBloom": "0x00000020000000000100000000000000000044000100020000000000000000200000000000000000000000000000000000000000000000000000000000000000000000000000000000000008000000000000000801000000000000000000000020000000020008000400000200000800000000000084000080000010000000000000000000000000000000000018000000000000000100800000000000000000000000000000000000000000000000000020000000000000000000000000020000000002000000000000000000000000000000000000000000000000000020000000001000000000000000000000000000000000000000000000000000000010",
      "type": "0x2",
      "transactionHash": "0xd3c9bc7a2787f9e95a000f3d7e21f3f0160dbc63f460efa5654f8fb0e8037b4c",
      "transactionIndex": "0x61",
      "blockHash": "0x78eda3efc113bca6935b0f463566549b6167915da0890bdee8ef006d2953f04c",
      "blockNumber": "0x751b3d",
      "gasUsed": "0x495d4",
      "effectiveGasPrice": "0x3f9cc1a3",
      "from": "0x00000c771f6176268d5a9846e0956c3ef58597a1",
      "to": "0x35eed2913997c4cd119a12a4f09483ec805ca9df",
      "contractAddress": null
    },
    {
      "status": "0x1",
      "cumulativeGasUsed": "0x16ca860",
      "logs": [
        {
          "address": "0x51bdea09883dc448f98f71d643d4c905bae1b283",
          "topics": [],
          "data": "0x328e038bfc43270f51311f964c6d9bb8bb9195e40000000067a90e2000000000000000000000000000000000000000000000000000000000",
          "blockHash": "0xaf45fc2f0bd9f159c3a84ef78c6f8a3f0a031ec51d58d070ab36471f70c000a1",
          "blockNumber": "0x751b3e",
          "transactionHash": "0x0c11f374d324f97c913af464fdb3433db226804f50283e8baf752328be923315",
          "transactionIndex": "0x8d",
          "logIndex": "0x1c2",
          "removed": false
        },
        {
          "address": "0xfeb74ca6cf43257a76a1fc59caa5c5d28a15d6ce",
          "topics": [
            "0x5014502cd7c1cd1f671286e947be5af016cf1bff863e084d012d73b1133f7cfb"
          ],
          "data": "0x7f3be32680dcfb261e62b0992f5dac57760a984581e4fb9c2053ff1110e9cbde0000000000000000000000000000000000000000000000000000000000000000000000000000000000000000328e038bfc43270f51311f964c6d9bb8bb9195e40000000000000000000000000000000000000000000000000000000000000000000000000000000000000000000000000000000000000000000000000000000000000000000000000000000051bdea09883dc448f98f71d643d4c905bae1b28300000000000000000000000000000000000000000000000000000000004644f400000000000000000000000000000009ffffd703fc4b70813166c0384b06a36c",
          "blockHash": "0xaf45fc2f0bd9f159c3a84ef78c6f8a3f0a031ec51d58d070ab36471f70c000a1",
          "blockNumber": "0x751b3e",
          "transactionHash": "0x0c11f374d324f97c913af464fdb3433db226804f50283e8baf752328be923315",
          "transactionIndex": "0x8d",
          "logIndex": "0x1c3",
          "removed": false
        },
        {
          "address": "0x35eed2913997c4cd119a12a4f09483ec805ca9df",
          "topics": [
            "0xddf252ad1be2c89b69c2b068fc378daa952ba7f163c4a11628f55a4df523b3ef",
            "0x0000000000000000000000000000000000000000000000000000000000000000",
            "0x00000000000000000000000000000c771f6176268d5a9846e0956c3ef58597a1",
            "0x000000000000000000000000000000000000000000000000000009e7f043a9d2"
          ],
          "data": "0x",
          "blockHash": "0xaf45fc2f0bd9f159c3a84ef78c6f8a3f0a031ec51d58d070ab36471f70c000a1",
          "blockNumber": "0x751b3e",
          "transactionHash": "0x0c11f374d324f97c913af464fdb3433db226804f50283e8baf752328be923315",
          "transactionIndex": "0x8d",
          "logIndex": "0x1c4",
          "removed": false
        },
        {
          "address": "0xfeb74ca6cf43257a76a1fc59caa5c5d28a15d6ce",
          "topics": [
            "0xa2d4008be4187c63684f323788e131e1370dbc2205499befe2834005a00c792c"
          ],
          "data": "0x00000000000000000000000035eed2913997c4cd119a12a4f09483ec805ca9df7f3be32680dcfb261e62b0992f5dac57760a984581e4fb9c2053ff1110e9cbde000000000000000000000000000000000000000000000000000009e7f043a9d2fffffffffffffffffffffffffffffffffffffffffffffffffffffffffab6326d000000000000000000000000000000000000000000000000000000000549cd930000000000000000000000000000000000000000000000008ac720cbc3f4a9190000000000000000000000000000000000000000000000000de0b6b3a76400000000000000000000000000000000000000000000000000056bc731bdec684497",
          "blockHash": "0xaf45fc2f0bd9f159c3a84ef78c6f8a3f0a031ec51d58d070ab36471f70c000a1",
          "blockNumber": "0x751b3e",
          "transactionHash": "0x0c11f374d324f97c913af464fdb3433db226804f50283e8baf752328be923315",
          "transactionIndex": "0x8d",
          "logIndex": "0x1c5",
          "removed": false
        },
        {
          "address": "0x328e038bfc43270f51311f964c6d9bb8bb9195e4",
          "topics": [
            "0xddf252ad1be2c89b69c2b068fc378daa952ba7f163c4a11628f55a4df523b3ef",
            "0x00000000000000000000000000000c771f6176268d5a9846e0956c3ef58597a1",
            "0x000000000000000000000000feb74ca6cf43257a76a1fc59caa5c5d28a15d6ce"
          ],
          "data": "0x0000000000000000000000000000000000000000000000056bc731bdec684497",
          "blockHash": "0xaf45fc2f0bd9f159c3a84ef78c6f8a3f0a031ec51d58d070ab36471f70c000a1",
          "blockNumber": "0x751b3e",
          "transactionHash": "0x0c11f374d324f97c913af464fdb3433db226804f50283e8baf752328be923315",
          "transactionIndex": "0x8d",
          "logIndex": "0x1c6",
          "removed": false
        }
      ],
      "logsBloom": "0x00000020000000000100000000000000000044000100020000000000000000200000000000000000000000000000000000000000200000000000000000000000000000000000000000000008000000000000000801000000000000000000000020000000020028000000000200000800000000000084000080000010000000000000000000000000000000000018000000000000000100800000000000000000000000000000000000040000000000000000000000000000000000000002000000000002000000000001000000000000000000000000000000000000000020000000001000000000100000000000000000000000000000000000000000000010",
      "type": "0x2",
      "transactionHash": "0x0c11f374d324f97c913af464fdb3433db226804f50283e8baf752328be923315",
      "transactionIndex": "0x8d",
      "blockHash": "0xaf45fc2f0bd9f159c3a84ef78c6f8a3f0a031ec51d58d070ab36471f70c000a1",
      "blockNumber": "0x751b3e",
      "gasUsed": "0x3e7d5",
      "effectiveGasPrice": "0x41fed23a",
      "from": "0x00000c771f6176268d5a9846e0956c3ef58597a1",
      "to": "0x35eed2913997c4cd119a12a4f09483ec805ca9df",
      "contractAddress": null
    },
    {
      "status": "0x1",
      "cumulativeGasUsed": "0xf5f703",
      "logs": [
        {
          "address": "0x51bdea09883dc448f98f71d643d4c905bae1b283",
          "topics": [],
          "data": "0x328e038bfc43270f51311f964c6d9bb8bb9195e40000000067a90e2c00000000000000000000001622d7568257f4a56b00000000034b3b70",
          "blockHash": "0x5b236172fe00caba03eaa674a7bea2b4d9fe9d9385b604f7b493caffca902a0d",
          "blockNumber": "0x751b3f",
          "transactionHash": "0xb034728158afc81fdbc69e2812a87e6250aef33048748bf0dea0cdb05db1e055",
          "transactionIndex": "0x3a",
          "logIndex": "0x62",
          "removed": false
        },
        {
          "address": "0xfeb74ca6cf43257a76a1fc59caa5c5d28a15d6ce",
          "topics": [],
          "data": "0x1816ad7f281f5e5c1aec83fdac5711bfd6dd7f137f3be32680dcfb261e62b0992f5dac57760a984581e4fb9c2053ff1110e9cbde000000000000000000000000000186a0ffffffffffffffffffffffffff6769bb00000000000000008ac720cbc3f4a9190000000000000009ffffd703fb31f7509a222a47a42792eb004644f3",
          "blockHash": "0x5b236172fe00caba03eaa674a7bea2b4d9fe9d9385b604f7b493caffca902a0d",
          "blockNumber": "0x751b3f",
          "transactionHash": "0xb034728158afc81fdbc69e2812a87e6250aef33048748bf0dea0cdb05db1e055",
          "transactionIndex": "0x3a",
          "logIndex": "0x63",
          "removed": false
        },
        {
          "address": "0x328e038bfc43270f51311f964c6d9bb8bb9195e4",
          "topics": [
            "0xddf252ad1be2c89b69c2b068fc378daa952ba7f163c4a11628f55a4df523b3ef",
            "0x000000000000000000000000feb74ca6cf43257a76a1fc59caa5c5d28a15d6ce",
            "0x00000000000000000000000000000c771f6176268d5a9846e0956c3ef58597a1"
          ],
          "data": "0x0000000000000000000000000000000000000000000000000000000000989645",
          "blockHash": "0x5b236172fe00caba03eaa674a7bea2b4d9fe9d9385b604f7b493caffca902a0d",
          "blockNumber": "0x751b3f",
          "transactionHash": "0xb034728158afc81fdbc69e2812a87e6250aef33048748bf0dea0cdb05db1e055",
          "transactionIndex": "0x3a",
          "logIndex": "0x64",
          "removed": false
        }
      ],
      "logsBloom": "0x00000020000000000000000000000000000044000000000000000000000000200000000000000000000000000000000000000000200000000000000000000000000000000000000000000008000000000000000000000000000000000000000000000000000008000000000200000000000000000080000080000010000000000000000000000000000000000010000000000000000100800000000000000000000000000000000000040000000000000000000000000000000000000002000000000002000000000000000000000000000000000000000000000000000000000000000000000000000000000000000000000000000000000000000000000010",
      "type": "0x2",
      "transactionHash": "0xb034728158afc81fdbc69e2812a87e6250aef33048748bf0dea0cdb05db1e055",
      "transactionIndex": "0x3a",
      "blockHash": "0x5b236172fe00caba03eaa674a7bea2b4d9fe9d9385b604f7b493caffca902a0d",
      "blockNumber": "0x751b3f",
      "gasUsed": "0x16b7c",
      "effectiveGasPrice": "0x4a1bdf88",
      "from": "0x00000c771f6176268d5a9846e0956c3ef58597a1",
      "to": "0x1816ad7f281f5e5c1aec83fdac5711bfd6dd7f13",
      "contractAddress": null
    },
    {
      "status": "0x1",
      "cumulativeGasUsed": "0x64155e",
      "logs": [
        {
          "address": "0x51bdea09883dc448f98f71d643d4c905bae1b283",
          "topics": [],
          "data": "0x328e038bfc43270f51311f964c6d9bb8bb9195e40000000067a90e3800000000000000000000002c45aead04afe94ad600000000069676d4",
          "blockHash": "0x291a7346b4f355e4ce77b5eba7542907b369bdfc3cf12513b9bd8d6b327e0dbd",
          "blockNumber": "0x751b40",
          "transactionHash": "0x01003a7c521e3b72648b160c59008253abbe1b050e0ca48913e6a9308f384136",
          "transactionIndex": "0x4c",
          "logIndex": "0x5b",
          "removed": false
        },
        {
          "address": "0xfeb74ca6cf43257a76a1fc59caa5c5d28a15d6ce",
          "topics": [],
          "data": "0x1816ad7f281f5e5c1aec83fdac5711bfd6dd7f137f3be32680dcfb261e62b0992f5dac57760a984581e4fb9c2053ff1110e9cbdeffffffffffffffffffffffffffb3b4be0000000000000000000000001dcd650000000000000000008ac720cbc3f4a9190000000000000009ffffd704322bb7e59a16e12466e5b200004644f4",
          "blockHash": "0x291a7346b4f355e4ce77b5eba7542907b369bdfc3cf12513b9bd8d6b327e0dbd",
          "blockNumber": "0x751b40",
          "transactionHash": "0x01003a7c521e3b72648b160c59008253abbe1b050e0ca48913e6a9308f384136",
          "transactionIndex": "0x4c",
          "logIndex": "0x5c",
          "removed": false
        },
        {
          "address": "0x328e038bfc43270f51311f964c6d9bb8bb9195e4",
          "topics": [
            "0xddf252ad1be2c89b69c2b068fc378daa952ba7f163c4a11628f55a4df523b3ef",
            "0x00000000000000000000000000000c771f6176268d5a9846e0956c3ef58597a1",
            "0x000000000000000000000000feb74ca6cf43257a76a1fc59caa5c5d28a15d6ce"
          ],
          "data": "0x000000000000000000000000000000000000000000000000000000001dcd6500",
          "blockHash": "0x291a7346b4f355e4ce77b5eba7542907b369bdfc3cf12513b9bd8d6b327e0dbd",
          "blockNumber": "0x751b40",
          "transactionHash": "0x01003a7c521e3b72648b160c59008253abbe1b050e0ca48913e6a9308f384136",
          "transactionIndex": "0x4c",
          "logIndex": "0x5d",
          "removed": false
        }
      ],
      "logsBloom": "0x00000020000000000000000000000000000044000000000000000000000000200000000000000000000000000000000000000000200000000000000000000000000000000000000000000008000000000000000000000000000000000000000000000000000008000000000200000000000000000080000080000010000000000000000000000000000000000010000000000000000100800000000000000000000000000000000000040000000000000000000000000000000000000002000000000002000000000000000000000000000000000000000000000000000000000000000000000000000000000000000000000000000000000000000000000010",
      "type": "0x2",
      "transactionHash": "0x01003a7c521e3b72648b160c59008253abbe1b050e0ca48913e6a9308f384136",
      "transactionIndex": "0x4c",
      "blockHash": "0x291a7346b4f355e4ce77b5eba7542907b369bdfc3cf12513b9bd8d6b327e0dbd",
      "blockNumber": "0x751b40",
      "gasUsed": "0x18541",
      "effectiveGasPrice": "0x4d0a0bb9",
      "from": "0x00000c771f6176268d5a9846e0956c3ef58597a1",
      "to": "0x1816ad7f281f5e5c1aec83fdac5711bfd6dd7f13",
      "contractAddress": null
    },
    {
      "status": "0x1",
      "cumulativeGasUsed": "0xf0bc2c",
      "logs": [
        {
          "address": "0x51bdea09883dc448f98f71d643d4c905bae1b283",
          "topics": [],
          "data": "0x328e038bfc43270f51311f964c6d9bb8bb9195e40000000067a90e440000000000000000000000426886038707ddf0410000000009e1b244",
          "blockHash": "0x36b66082987a3f065a5d93360935b282e0b6fbcbbe52b3d61863b670f293c3a7",
          "blockNumber": "0x751b41",
          "transactionHash": "0x438fd3bc02192af0e9d3f067b9d7c7332df50c1c8d2b6f1b5c671f326b079878",
          "transactionIndex": "0x65",
          "logIndex": "0x14a",
          "removed": false
        },
        {
          "address": "0xfeb74ca6cf43257a76a1fc59caa5c5d28a15d6ce",
          "topics": [],
          "data": "0x1816ad7f281f5e5c1aec83fdac5711bfd6dd7f137f3be32680dcfb261e62b0992f5dac57760a984581e4fb9c2053ff1110e9cbde000000000000000000000000000186a0ffffffffffffffffffffffffff6769bd00000000000000008ac720cbc3f4a9190000000000000009ffffd70431123eb8cff171a4152f6ef2004644f4",
          "blockHash": "0x36b66082987a3f065a5d93360935b282e0b6fbcbbe52b3d61863b670f293c3a7",
          "blockNumber": "0x751b41",
          "transactionHash": "0x438fd3bc02192af0e9d3f067b9d7c7332df50c1c8d2b6f1b5c671f326b079878",
          "transactionIndex": "0x65",
          "logIndex": "0x14b",
          "removed": false
        },
        {
          "address": "0x328e038bfc43270f51311f964c6d9bb8bb9195e4",
          "topics": [
            "0xddf252ad1be2c89b69c2b068fc378daa952ba7f163c4a11628f55a4df523b3ef",
            "0x000000000000000000000000feb74ca6cf43257a76a1fc59caa5c5d28a15d6ce",
            "0x00000000000000000000000000000c771f6176268d5a9846e0956c3ef58597a1"
          ],
          "data": "0x0000000000000000000000000000000000000000000000000000000000989643",
          "blockHash": "0x36b66082987a3f065a5d93360935b282e0b6fbcbbe52b3d61863b670f293c3a7",
          "blockNumber": "0x751b41",
          "transactionHash": "0x438fd3bc02192af0e9d3f067b9d7c7332df50c1c8d2b6f1b5c671f326b079878",
          "transactionIndex": "0x65",
          "logIndex": "0x14c",
          "removed": false
        }
      ],
      "logsBloom": "0x00000020000000000000000000000000000044000000000000000000000000200000000000000000000000000000000000000000200000000000000000000000000000000000000000000008000000000000000000000000000000000000000000000000000008000000000200000000000000000080000080000010000000000000000000000000000000000010000000000000000100800000000000000000000000000000000000040000000000000000000000000000000000000002000000000002000000000000000000000000000000000000000000000000000000000000000000000000000000000000000000000000000000000000000000000010",
      "type": "0x2",
      "transactionHash": "0x438fd3bc02192af0e9d3f067b9d7c7332df50c1c8d2b6f1b5c671f326b079878",
      "transactionIndex": "0x65",
      "blockHash": "0x36b66082987a3f065a5d93360935b282e0b6fbcbbe52b3d61863b670f293c3a7",
      "blockNumber": "0x751b41",
      "gasUsed": "0x16b80",
      "effectiveGasPrice": "0x48b2eab9",
      "from": "0x00000c771f6176268d5a9846e0956c3ef58597a1",
      "to": "0x1816ad7f281f5e5c1aec83fdac5711bfd6dd7f13",
      "contractAddress": null
    },
    {
      "status": "0x1",
      "cumulativeGasUsed": "0x5f8fef",
      "logs": [
        {
          "address": "0x51bdea09883dc448f98f71d643d4c905bae1b283",
          "topics": [],
          "data": "0x328e038bfc43270f51311f964c6d9bb8bb9195e40000000067a90e500000000000000000000000588b5d5a095fd295ac000000000d2cedb4",
          "blockHash": "0x8ffdca376fd4baf64527e2e1f062133b860cff225a15fc7bb439f755c4283f4f",
          "blockNumber": "0x751b42",
          "transactionHash": "0x981a3ac2591dae5d77e9cd0986737f87f7ff957230fbccb4f277ce177f19474b",
          "transactionIndex": "0x44",
          "logIndex": "0x65",
          "removed": false
        },
        {
          "address": "0xfeb74ca6cf43257a76a1fc59caa5c5d28a15d6ce",
          "topics": [],
          "data": "0x1816ad7f281f5e5c1aec83fdac5711bfd6dd7f137f3be32680dcfb261e62b0992f5dac57760a984581e4fb9c2053ff1110e9cbdeffffffffffffffffffffffffffb3b4be0000000000000000000000001dcd650000000000000000008ac720cbc3f4a9190000000000000009ffffd704680bff4dcfe62880d7ed8e07004644f4",
          "blockHash": "0x8ffdca376fd4baf64527e2e1f062133b860cff225a15fc7bb439f755c4283f4f",
          "blockNumber": "0x751b42",
          "transactionHash": "0x981a3ac2591dae5d77e9cd0986737f87f7ff957230fbccb4f277ce177f19474b",
          "transactionIndex": "0x44",
          "logIndex": "0x66",
          "removed": false
        },
        {
          "address": "0x328e038bfc43270f51311f964c6d9bb8bb9195e4",
          "topics": [
            "0xddf252ad1be2c89b69c2b068fc378daa952ba7f163c4a11628f55a4df523b3ef",
            "0x00000000000000000000000000000c771f6176268d5a9846e0956c3ef58597a1",
            "0x000000000000000000000000feb74ca6cf43257a76a1fc59caa5c5d28a15d6ce"
          ],
          "data": "0x000000000000000000000000000000000000000000000000000000001dcd6500",
          "blockHash": "0x8ffdca376fd4baf64527e2e1f062133b860cff225a15fc7bb439f755c4283f4f",
          "blockNumber": "0x751b42",
          "transactionHash": "0x981a3ac2591dae5d77e9cd0986737f87f7ff957230fbccb4f277ce177f19474b",
          "transactionIndex": "0x44",
          "logIndex": "0x67",
          "removed": false
        }
      ],
      "logsBloom": "0x00000020000000000000000000000000000044000000000000000000000000200000000000000000000000000000000000000000200000000000000000000000000000000000000000000008000000000000000000000000000000000000000000000000000008000000000200000000000000000080000080000010000000000000000000000000000000000010000000000000000100800000000000000000000000000000000000040000000000000000000000000000000000000002000000000002000000000000000000000000000000000000000000000000000000000000000000000000000000000000000000000000000000000000000000000010",
      "type": "0x2",
      "transactionHash": "0x981a3ac2591dae5d77e9cd0986737f87f7ff957230fbccb4f277ce177f19474b",
      "transactionIndex": "0x44",
      "blockHash": "0x8ffdca376fd4baf64527e2e1f062133b860cff225a15fc7bb439f755c4283f4f",
      "blockNumber": "0x751b42",
      "gasUsed": "0x18541",
      "effectiveGasPrice": "0x4934525d",
      "from": "0x00000c771f6176268d5a9846e0956c3ef58597a1",
      "to": "0x1816ad7f281f5e5c1aec83fdac5711bfd6dd7f13",
      "contractAddress": null
    }
  ],
  "libraries": [],
  "pending": [],
  "returns": {},
  "timestamp": 1739132496,
  "chain": 11155111,
  "commit": "a08f748"
}