{
  "transactions": [
    {
      "hash": "0x3b987245b47575d80c57bd691dd5246a299a691e1b5796fed73146ed1b598ee2",
      "transactionType": "CREATE",
      "contractName": "TestToken",
      "contractAddress": "0xb1b388f2ef1bb1f7979f009381f797f94b90c094",
      "function": null,
      "arguments": [
        "0x00000C771F6176268D5A9846E0956C3eF58597A1"
      ],
      "transaction": {
        "from": "0x00000c771f6176268d5a9846e0956c3ef58597a1",
        "gas": "0xbc67d",
        "value": "0x0",
        "input": "0x60803460ce57601f6109cc38819003918201601f19168301916001600160401b0383118484101760d25780849260209460405283398101031260ce57516001600160a01b038116810360ce576805345cdf77eb68f44c545f19810190811060c1576805345cdf77eb68f44c556387a211a2600c525f526020600c205f1981540190555f19602052600c5160601c5f7fddf252ad1be2c89b69c2b068fc378daa952ba7f163c4a11628f55a4df523b3ef602080a36040516108e590816100e78239f35b63e5cfe9575f526004601cfd5b5f80fd5b634e487b7160e01b5f52604160045260245ffdfe60806040526004361015610011575f80fd5b5f3560e01c806306fdde03146107cc578063095ea7b31461074357806318160ddd1461070057806323b872dd146105fb578063313ce567146105c25780633644e515146104f857806370a08231146104a85780637ecebe001461045857806395d89b41146103a1578063a9059cbb146102f4578063d505accf146100fd5763dd62ed3e1461009d575f80fd5b346100f95760407ffffffffffffffffffffffffffffffffffffffffffffffffffffffffffffffffc3601126100f9576100d461087b565b6100dc61089e565b602052637f5e9f20600c525f5260206034600c2054604051908152f35b5f80fd5b346100f95760e07ffffffffffffffffffffffffffffffffffffffffffffffffffffffffffffffffc3601126100f95761013461087b565b61013c61089e565b6084359160643560443560ff851685036100f9576101586108c1565b60208101907f54657374546f6b656e00000000000000000000000000000000000000000000008252519020908242116102e75773ffffffffffffffffffffffffffffffffffffffff80604051951695169565383775081901600e52855f5260c06020600c20958654957f8b73c3c69bb8fe3d512ecc4cf759cc79239f7b179b0ffacaa9a75d522b39400f8252602082019586528660408301967fc89efdaa54c0f20c7adf612882df0950f5a951637e0307cdcb4c672f298b8bc688528b6060850198468a528c608087019330855260a08820602e527f6e71edae12b1b97f4d1f60370fef10105fa2faae0126114a169c64845d6126c9885252528688525260a082015220604e526042602c205f5260ff1660205260a43560405260c43560605260208060805f60015afa93853d51036102da577f8c5be1e5ebec7d5bd14f71427d1e84f3dd0314c0f7b2291e5b200ac8c7c3b9259460209401905585777f5e9f200000000000000000000000000000000000000000176040526034602c2055a3005b63ddafbaef5f526004601cfd5b631a15a3cc5f526004601cfd5b346100f95760407ffffffffffffffffffffffffffffffffffffffffffffffffffffffffffffffffc3601126100f95761032b61087b565b602435906387a211a2600c52335f526020600c2080548084116103945783900390555f526020600c20818154019055602052600c5160601c337fddf252ad1be2c89b69c2b068fc378daa952ba7f163c4a11628f55a4df523b3ef602080a3602060405160018152f35b63f4d678b85f526004601cfd5b346100f9575f7ffffffffffffffffffffffffffffffffffffffffffffffffffffffffffffffffc3601126100f957604051604081019080821067ffffffffffffffff83111761042b5761042791604052600281527f5454000000000000000000000000000000000000000000000000000000000000602082015260405191829182610833565b0390f35b7f4e487b71000000000000000000000000000000000000000000000000000000005f52604160045260245ffd5b346100f95760207ffffffffffffffffffffffffffffffffffffffffffffffffffffffffffffffffc3601126100f95761048f61087b565b6338377508600c525f52602080600c2054604051908152f35b346100f95760207ffffffffffffffffffffffffffffffffffffffffffffffffffffffffffffffffc3601126100f9576104df61087b565b6387a211a2600c525f52602080600c2054604051908152f35b346100f9575f7ffffffffffffffffffffffffffffffffffffffffffffffffffffffffffffffffc3601126100f957602060a06105326108c1565b828101907f54657374546f6b656e00000000000000000000000000000000000000000000008252519020604051907f8b73c3c69bb8fe3d512ecc4cf759cc79239f7b179b0ffacaa9a75d522b39400f8252838201527fc89efdaa54c0f20c7adf612882df0950f5a951637e0307cdcb4c672f298b8bc6604082015246606082015230608082015220604051908152f35b346100f9575f7ffffffffffffffffffffffffffffffffffffffffffffffffffffffffffffffffc3601126100f957602060405160128152f35b346100f95760607ffffffffffffffffffffffffffffffffffffffffffffffffffffffffffffffffc3601126100f95761063261087b565b61063a61089e565b604435908260601b33602052637f5e9f208117600c526034600c209081549182196106dc575b506387a211a2915017600c526020600c2080548084116103945783900390555f526020600c2081815401905560205273ffffffffffffffffffffffffffffffffffffffff600c5160601c91167fddf252ad1be2c89b69c2b068fc378daa952ba7f163c4a11628f55a4df523b3ef602080a3602060405160018152f35b8285116106f357846387a211a29303905585610660565b6313be252b5f526004601cfd5b346100f9575f7ffffffffffffffffffffffffffffffffffffffffffffffffffffffffffffffffc3601126100f95760206805345cdf77eb68f44c54604051908152f35b346100f95760407ffffffffffffffffffffffffffffffffffffffffffffffffffffffffffffffffc3601126100f95761077a61087b565b60243590602052637f5e9f20600c52335f52806034600c20555f52602c5160601c337f8c5be1e5ebec7d5bd14f71427d1e84f3dd0314c0f7b2291e5b200ac8c7c3b92560205fa3602060405160018152f35b346100f9575f7ffffffffffffffffffffffffffffffffffffffffffffffffffffffffffffffffc3601126100f9576104276108056108c1565b7f54657374546f6b656e00000000000000000000000000000000000000000000006020820152604051918291825b7fffffffffffffffffffffffffffffffffffffffffffffffffffffffffffffffe0601f602060409481855280519182918282880152018686015e5f8582860101520116010190565b6004359073ffffffffffffffffffffffffffffffffffffffff821682036100f957565b6024359073ffffffffffffffffffffffffffffffffffffffff821682036100f957565b604051906040820182811067ffffffffffffffff82111761042b57604052600982525600000000000000000000000000000c771f6176268d5a9846e0956c3ef58597a1",
        "nonce": "0x33c",
        "chainId": "0xaa36a7"
      },
      "additionalContracts": [],
      "isFixedGasLimit": false
    },
    {
      "hash": "0x863e161cf887ba0e0a88de74e7a5438c0076707ff01ecdd820dedd0811fb2ad1",
      "transactionType": "CALL",
      "contractName": "TestToken",
      "contractAddress": "0xb1b388f2ef1bb1f7979f009381f797f94b90c094",
      "function": "approve(address,uint256)",
      "arguments": [
        "0xAB090B2D86A32ab9eD214224f59dC7453bE1037e",
        "115792089237316195423570985008687907853269984665640564039457584007913129639935"
      ],
      "transaction": {
        "from": "0x00000c771f6176268d5a9846e0956c3ef58597a1",
        "to": "0xb1b388f2ef1bb1f7979f009381f797f94b90c094",
        "gas": "0xf8eb",
        "value": "0x0",
        "input": "0x095ea7b3000000000000000000000000ab090b2d86a32ab9ed214224f59dc7453be1037effffffffffffffffffffffffffffffffffffffffffffffffffffffffffffffff",
        "nonce": "0x33d",
        "chainId": "0xaa36a7"
      },
      "additionalContracts": [],
      "isFixedGasLimit": false
    },
    {
      "hash": "0xbafa618280c6682ce8d979dce7f0ec41b13fe724c2dd91e1042835b9eb38fa05",
      "transactionType": "CALL",
      "contractName": "TestToken",
      "contractAddress": "0xb1b388f2ef1bb1f7979f009381f797f94b90c094",
      "function": "approve(address,uint256)",
      "arguments": [
        "0x772b411db77bDE1e1AC48c05eBfd713f7764B4a7",
        "115792089237316195423570985008687907853269984665640564039457584007913129639935"
      ],
      "transaction": {
        "from": "0x00000c771f6176268d5a9846e0956c3ef58597a1",
        "to": "0xb1b388f2ef1bb1f7979f009381f797f94b90c094",
        "gas": "0xf8eb",
        "value": "0x0",
        "input": "0x095ea7b3000000000000000000000000772b411db77bde1e1ac48c05ebfd713f7764b4a7ffffffffffffffffffffffffffffffffffffffffffffffffffffffffffffffff",
        "nonce": "0x33e",
        "chainId": "0xaa36a7"
      },
      "additionalContracts": [],
      "isFixedGasLimit": false
    },
    {
      "hash": "0x4b39d41ae3b823409ba6a92e2937f52f545acfd9cb7ecf7fb8eb7ea2e3b9985e",
      "transactionType": "CALL",
      "contractName": null,
      "contractAddress": "0x772b411db77bde1e1ac48c05ebfd713f7764b4a7",
      "function": "multicall(bytes[])",
      "arguments": [
        "[0xf3e324680000000000000000000000000000000000000000000000000000000000000000000000000000000000000000b1b388f2ef1bb1f7979f009381f797f94b90c094000000000000000000000000000000000000000000c49ba5e353f7ce0000175e000000000000000000000000000000000000000000000000000000000081f64d, 0x9df3913d15b3fe06e399b78cff61060a4905e35996a1a84797af44791d0e5944f7d2b2140000000000000000000000000000000000000000000000000000000000000000000000000000000000000000b1b388f2ef1bb1f7979f009381f797f94b90c094000000000000000000000000000000000000000000c49ba5e353f7ce0000175efffffffffffffffffffffffffffffffffffffffffffffffffffffffffab6413e000000000000000000000000000000000000000000000000000000000549bec2000000000000000000000000000000000000000000000000002386f26fc10000000000000000000000000000000000000000000000000002b5e3af16b18800000000000000000000000000000000000000000000000000000000000000000000, 0x41865270]"
      ],
      "transaction": {
        "from": "0x00000c771f6176268d5a9846e0956c3ef58597a1",
        "to": "0x772b411db77bde1e1ac48c05ebfd713f7764b4a7",
        "gas": "0x6fa44",
        "value": "0x2386f26fc10000",
        "input": "0xac9650d8000000000000000000000000000000000000000000000000000000000000002000000000000000000000000000000000000000000000000000000000000000030000000000000000000000000000000000000000000000000000000000000060000000000000000000000000000000000000000000000000000000000000012000000000000000000000000000000000000000000000000000000000000002800000000000000000000000000000000000000000000000000000000000000084f3e324680000000000000000000000000000000000000000000000000000000000000000000000000000000000000000b1b388f2ef1bb1f7979f009381f797f94b90c094000000000000000000000000000000000000000000c49ba5e353f7ce0000175e000000000000000000000000000000000000000000000000000000000081f64d0000000000000000000000000000000000000000000000000000000000000000000000000000000000000000000000000000000000000000000001249df3913d15b3fe06e399b78cff61060a4905e35996a1a84797af44791d0e5944f7d2b2140000000000000000000000000000000000000000000000000000000000000000000000000000000000000000b1b388f2ef1bb1f7979f009381f797f94b90c094000000000000000000000000000000000000000000c49ba5e353f7ce0000175efffffffffffffffffffffffffffffffffffffffffffffffffffffffffab6413e000000000000000000000000000000000000000000000000000000000549bec2000000000000000000000000000000000000000000000000002386f26fc10000000000000000000000000000000000000000000000000002b5e3af16b188000000000000000000000000000000000000000000000000000000000000000000000000000000000000000000000000000000000000000000000000000000000000000000000000000000000000000000000000000000000000000000044186527000000000000000000000000000000000000000000000000000000000",
        "nonce": "0x33f",
        "chainId": "0xaa36a7"
      },
      "additionalContracts": [],
      "isFixedGasLimit": false
    },
    {
      "hash": "0x3e62796df2fd3e2d66610949f4889e78ed96da7397c7c5a83439873668cdc2a3",
      "transactionType": "CALL",
      "contractName": null,
      "contractAddress": "0xab090b2d86a32ab9ed214224f59dc7453be1037e",
      "function": "swap((address,address,bytes32),bool,int128,uint96,uint256)",
      "arguments": [
        "(0x0000000000000000000000000000000000000000, 0xb1B388F2Ef1BB1F7979F009381f797f94B90c094, 0x000000000000000000000000000000000000000000c49ba5e353f7ce0000175e)",
        "false",
        "100000",
        "0",
        "0"
      ],
      "transaction": {
        "from": "0x00000c771f6176268d5a9846e0956c3ef58597a1",
        "to": "0xab090b2d86a32ab9ed214224f59dc7453be1037e",
        "gas": "0x20899",
        "value": "0x186a0",
        "input": "0x06b81a150000000000000000000000000000000000000000000000000000000000000000000000000000000000000000b1b388f2ef1bb1f7979f009381f797f94b90c094000000000000000000000000000000000000000000c49ba5e353f7ce0000175e000000000000000000000000000000000000000000000000000000000000000000000000000000000000000000000000000000000000000000000000000186a000000000000000000000000000000000000000000000000000000000000000000000000000000000000000000000000000000000000000000000000000000000",
        "nonce": "0x340",
        "chainId": "0xaa36a7"
      },
      "additionalContracts": [],
      "isFixedGasLimit": false
    },
    {
      "hash": "0x4aa57739c17055dc02b7c6c974671c878a778a4e9fdb4058811891b12db6e1d5",
      "transactionType": "CALL",
      "contractName": null,
      "contractAddress": "0xab090b2d86a32ab9ed214224f59dc7453be1037e",
      "function": "swap((address,address,bytes32),bool,int128,uint96,uint256)",
      "arguments": [
        "(0x0000000000000000000000000000000000000000, 0xb1B388F2Ef1BB1F7979F009381f797f94B90c094, 0x000000000000000000000000000000000000000000c49ba5e353f7ce0000175e)",
        "true",
        "500000000",
        "0",
        "0"
      ],
      "transaction": {
        "from": "0x00000c771f6176268d5a9846e0956c3ef58597a1",
        "to": "0xab090b2d86a32ab9ed214224f59dc7453be1037e",
        "gas": "0x22d89",
        "value": "0x0",
        "input": "0x06b81a150000000000000000000000000000000000000000000000000000000000000000000000000000000000000000b1b388f2ef1bb1f7979f009381f797f94b90c094000000000000000000000000000000000000000000c49ba5e353f7ce0000175e0000000000000000000000000000000000000000000000000000000000000001000000000000000000000000000000000000000000000000000000001dcd650000000000000000000000000000000000000000000000000000000000000000000000000000000000000000000000000000000000000000000000000000000000",
        "nonce": "0x341",
        "chainId": "0xaa36a7"
      },
      "additionalContracts": [],
      "isFixedGasLimit": false
    },
    {
      "hash": "0xd9080ae46c97fc7abdea6d096d2f86f1f33abf8549498b6964c08b81570183ec",
      "transactionType": "CALL",
      "contractName": null,
      "contractAddress": "0xab090b2d86a32ab9ed214224f59dc7453be1037e",
      "function": "swap((address,address,bytes32),bool,int128,uint96,uint256)",
      "arguments": [
        "(0x0000000000000000000000000000000000000000, 0xb1B388F2Ef1BB1F7979F009381f797f94B90c094, 0x000000000000000000000000000000000000000000c49ba5e353f7ce0000175e)",
        "false",
        "100000",
        "0",
        "0"
      ],
      "transaction": {
        "from": "0x00000c771f6176268d5a9846e0956c3ef58597a1",
        "to": "0xab090b2d86a32ab9ed214224f59dc7453be1037e",
        "gas": "0x1ac55",
        "value": "0x186a0",
        "input": "0x06b81a150000000000000000000000000000000000000000000000000000000000000000000000000000000000000000b1b388f2ef1bb1f7979f009381f797f94b90c094000000000000000000000000000000000000000000c49ba5e353f7ce0000175e000000000000000000000000000000000000000000000000000000000000000000000000000000000000000000000000000000000000000000000000000186a000000000000000000000000000000000000000000000000000000000000000000000000000000000000000000000000000000000000000000000000000000000",
        "nonce": "0x342",
        "chainId": "0xaa36a7"
      },
      "additionalContracts": [],
      "isFixedGasLimit": false
    },
    {
      "hash": "0x67be1e19db9db90955cc0dd42928582bbaaaea40702c4aba0a137a4825826cc1",
      "transactionType": "CALL",
      "contractName": null,
      "contractAddress": "0xab090b2d86a32ab9ed214224f59dc7453be1037e",
      "function": "swap((address,address,bytes32),bool,int128,uint96,uint256)",
      "arguments": [
        "(0x0000000000000000000000000000000000000000, 0xb1B388F2Ef1BB1F7979F009381f797f94B90c094, 0x000000000000000000000000000000000000000000c49ba5e353f7ce0000175e)",
        "true",
        "500000000",
        "0",
        "0"
      ],
      "transaction": {
        "from": "0x00000c771f6176268d5a9846e0956c3ef58597a1",
        "to": "0xab090b2d86a32ab9ed214224f59dc7453be1037e",
        "gas": "0x1eca4",
        "value": "0x0",
        "input": "0x06b81a150000000000000000000000000000000000000000000000000000000000000000000000000000000000000000b1b388f2ef1bb1f7979f009381f797f94b90c094000000000000000000000000000000000000000000c49ba5e353f7ce0000175e0000000000000000000000000000000000000000000000000000000000000001000000000000000000000000000000000000000000000000000000001dcd650000000000000000000000000000000000000000000000000000000000000000000000000000000000000000000000000000000000000000000000000000000000",
        "nonce": "0x343",
        "chainId": "0xaa36a7"
      },
      "additionalContracts": [],
      "isFixedGasLimit": false
    },
    {
      "hash": "0x711014086f440f0e27dea36f6fb2dbbef27c6e2c7765cac8979ef9d62286e175",
      "transactionType": "CALL",
      "contractName": null,
      "contractAddress": "0x772b411db77bde1e1ac48c05ebfd713f7764b4a7",
      "function": "multicall(bytes[])",
      "arguments": [
        "[0xf3e324680000000000000000000000000000000000000000000000000000000000000000000000000000000000000000b1b388f2ef1bb1f7979f009381f797f94b90c094000000000000000000000000000000000000000000c49ba5e353f7ce00000000000000000000000000000000000000000000000000000000000000000081f64d, 0x9df3913d15b3fe06e399b78cff61060a4905e35996a1a84797af44791d0e5944f7d2b2150000000000000000000000000000000000000000000000000000000000000000000000000000000000000000b1b388f2ef1bb1f7979f009381f797f94b90c094000000000000000000000000000000000000000000c49ba5e353f7ce00000000fffffffffffffffffffffffffffffffffffffffffffffffffffffffffab6326d000000000000000000000000000000000000000000000000000000000549cd93000000000000000000000000000000000000000000000000002386f26fc10000000000000000000000000000000000000000000000000002b5e3af16b18800000000000000000000000000000000000000000000000000000000000000000000, 0x41865270]"
      ],
      "transaction": {
        "from": "0x00000c771f6176268d5a9846e0956c3ef58597a1",
        "to": "0x772b411db77bde1e1ac48c05ebfd713f7764b4a7",
        "gas": "0x3c135",
        "value": "0x2386f26fc10000",
        "input": "0xac9650d8000000000000000000000000000000000000000000000000000000000000002000000000000000000000000000000000000000000000000000000000000000030000000000000000000000000000000000000000000000000000000000000060000000000000000000000000000000000000000000000000000000000000012000000000000000000000000000000000000000000000000000000000000002800000000000000000000000000000000000000000000000000000000000000084f3e324680000000000000000000000000000000000000000000000000000000000000000000000000000000000000000b1b388f2ef1bb1f7979f009381f797f94b90c094000000000000000000000000000000000000000000c49ba5e353f7ce00000000000000000000000000000000000000000000000000000000000000000081f64d0000000000000000000000000000000000000000000000000000000000000000000000000000000000000000000000000000000000000000000001249df3913d15b3fe06e399b78cff61060a4905e35996a1a84797af44791d0e5944f7d2b2150000000000000000000000000000000000000000000000000000000000000000000000000000000000000000b1b388f2ef1bb1f7979f009381f797f94b90c094000000000000000000000000000000000000000000c49ba5e353f7ce00000000fffffffffffffffffffffffffffffffffffffffffffffffffffffffffab6326d000000000000000000000000000000000000000000000000000000000549cd93000000000000000000000000000000000000000000000000002386f26fc10000000000000000000000000000000000000000000000000002b5e3af16b188000000000000000000000000000000000000000000000000000000000000000000000000000000000000000000000000000000000000000000000000000000000000000000000000000000000000000000000000000000000000000000044186527000000000000000000000000000000000000000000000000000000000",
        "nonce": "0x344",
        "chainId": "0xaa36a7"
      },
      "additionalContracts": [],
      "isFixedGasLimit": false
    },
    {
      "hash": "0x06bd48aff894ef2cf3bd3ff4dc429ab95c135fd81a0417377f605502d5a82557",
      "transactionType": "CALL",
      "contractName": null,
      "contractAddress": "0xab090b2d86a32ab9ed214224f59dc7453be1037e",
      "function": "swap((address,address,bytes32),bool,int128,uint96,uint256)",
      "arguments": [
        "(0x0000000000000000000000000000000000000000, 0xb1B388F2Ef1BB1F7979F009381f797f94B90c094, 0x000000000000000000000000000000000000000000c49ba5e353f7ce00000000)",
        "false",
        "100000",
        "0",
        "0"
      ],
      "transaction": {
        "from": "0x00000c771f6176268d5a9846e0956c3ef58597a1",
        "to": "0xab090b2d86a32ab9ed214224f59dc7453be1037e",
        "gas": "0x210bf",
        "value": "0x186a0",
        "input": "0x06b81a150000000000000000000000000000000000000000000000000000000000000000000000000000000000000000b1b388f2ef1bb1f7979f009381f797f94b90c094000000000000000000000000000000000000000000c49ba5e353f7ce00000000000000000000000000000000000000000000000000000000000000000000000000000000000000000000000000000000000000000000000000000000000186a000000000000000000000000000000000000000000000000000000000000000000000000000000000000000000000000000000000000000000000000000000000",
        "nonce": "0x345",
        "chainId": "0xaa36a7"
      },
      "additionalContracts": [],
      "isFixedGasLimit": false
    },
    {
      "hash": "0xa3e699f0b41659e3a3ea133f5e8ec7eeeeff29eab6251ab7ce2b344d53dc69ad",
      "transactionType": "CALL",
      "contractName": null,
      "contractAddress": "0xab090b2d86a32ab9ed214224f59dc7453be1037e",
      "function": "swap((address,address,bytes32),bool,int128,uint96,uint256)",
      "arguments": [
        "(0x0000000000000000000000000000000000000000, 0xb1B388F2Ef1BB1F7979F009381f797f94B90c094, 0x000000000000000000000000000000000000000000c49ba5e353f7ce00000000)",
        "true",
        "500000000",
        "0",
        "0"
      ],
      "transaction": {
        "from": "0x00000c771f6176268d5a9846e0956c3ef58597a1",
        "to": "0xab090b2d86a32ab9ed214224f59dc7453be1037e",
        "gas": "0x23819",
        "value": "0x0",
        "input": "0x06b81a150000000000000000000000000000000000000000000000000000000000000000000000000000000000000000b1b388f2ef1bb1f7979f009381f797f94b90c094000000000000000000000000000000000000000000c49ba5e353f7ce000000000000000000000000000000000000000000000000000000000000000000000001000000000000000000000000000000000000000000000000000000001dcd650000000000000000000000000000000000000000000000000000000000000000000000000000000000000000000000000000000000000000000000000000000000",
        "nonce": "0x346",
        "chainId": "0xaa36a7"
      },
      "additionalContracts": [],
      "isFixedGasLimit": false
    },
    {
      "hash": "0xaddb6fac8f0180dc870ebe47e9f54cdf277a4c6ac5a8b6df0246bae1f4e9bfb7",
      "transactionType": "CALL",
      "contractName": null,
      "contractAddress": "0xab090b2d86a32ab9ed214224f59dc7453be1037e",
      "function": "swap((address,address,bytes32),bool,int128,uint96,uint256)",
      "arguments": [
        "(0x0000000000000000000000000000000000000000, 0xb1B388F2Ef1BB1F7979F009381f797f94B90c094, 0x000000000000000000000000000000000000000000c49ba5e353f7ce00000000)",
        "false",
        "100000",
        "0",
        "0"
      ],
      "transaction": {
        "from": "0x00000c771f6176268d5a9846e0956c3ef58597a1",
        "to": "0xab090b2d86a32ab9ed214224f59dc7453be1037e",
        "gas": "0x1971b",
        "value": "0x186a0",
        "input": "0x06b81a150000000000000000000000000000000000000000000000000000000000000000000000000000000000000000b1b388f2ef1bb1f7979f009381f797f94b90c094000000000000000000000000000000000000000000c49ba5e353f7ce00000000000000000000000000000000000000000000000000000000000000000000000000000000000000000000000000000000000000000000000000000000000186a000000000000000000000000000000000000000000000000000000000000000000000000000000000000000000000000000000000000000000000000000000000",
        "nonce": "0x347",
        "chainId": "0xaa36a7"
      },
      "additionalContracts": [],
      "isFixedGasLimit": false
    },
    {
      "hash": "0x44b8677a6b2e1c30f574320b1f9fbd40a3ca32d607ebf965f0224d3ef66899a3",
      "transactionType": "CALL",
      "contractName": null,
      "contractAddress": "0xab090b2d86a32ab9ed214224f59dc7453be1037e",
      "function": "swap((address,address,bytes32),bool,int128,uint96,uint256)",
      "arguments": [
        "(0x0000000000000000000000000000000000000000, 0xb1B388F2Ef1BB1F7979F009381f797f94B90c094, 0x000000000000000000000000000000000000000000c49ba5e353f7ce00000000)",
        "true",
        "500000000",
        "0",
        "0"
      ],
      "transaction": {
        "from": "0x00000c771f6176268d5a9846e0956c3ef58597a1",
        "to": "0xab090b2d86a32ab9ed214224f59dc7453be1037e",
        "gas": "0x1bc46",
        "value": "0x0",
        "input": "0x06b81a150000000000000000000000000000000000000000000000000000000000000000000000000000000000000000b1b388f2ef1bb1f7979f009381f797f94b90c094000000000000000000000000000000000000000000c49ba5e353f7ce000000000000000000000000000000000000000000000000000000000000000000000001000000000000000000000000000000000000000000000000000000001dcd650000000000000000000000000000000000000000000000000000000000000000000000000000000000000000000000000000000000000000000000000000000000",
        "nonce": "0x348",
        "chainId": "0xaa36a7"
      },
      "additionalContracts": [],
      "isFixedGasLimit": false
    },
    {
      "hash": "0xc16e3a2ebe2f280bea4e7891b1d1754fdcb0515e1f74d8eb6b729cdff14d6da3",
      "transactionType": "CALL",
      "contractName": null,
      "contractAddress": "0x772b411db77bde1e1ac48c05ebfd713f7764b4a7",
      "function": "multicall(bytes[])",
      "arguments": [
        "[0xf3e324680000000000000000000000000000000000000000000000000000000000000000000000000000000000000000b1b388f2ef1bb1f7979f009381f797f94b90c09451f1b10abf90e16498d25086641b0669ec62f32f00000000000000000000000000000000000000000000000000000000000000000000000000000000004644f4, 0x9df3913d15b3fe06e399b78cff61060a4905e35996a1a84797af44791d0e5944f7d2b2160000000000000000000000000000000000000000000000000000000000000000000000000000000000000000b1b388f2ef1bb1f7979f009381f797f94b90c09451f1b10abf90e16498d25086641b0669ec62f32f000000000000000000000000fffffffffffffffffffffffffffffffffffffffffffffffffffffffffab6326d000000000000000000000000000000000000000000000000000000000549cd93000000000000000000000000000000000000000000000000002386f26fc100000000000000000000000000000000000000000000000000000de0b6b3a76400000000000000000000000000000000000000000000000000000000000000000000, 0x41865270]"
      ],
      "transaction": {
        "from": "0x00000c771f6176268d5a9846e0956c3ef58597a1",
        "to": "0x772b411db77bde1e1ac48c05ebfd713f7764b4a7",
        "gas": "0x53752",
        "value": "0x2386f26fc10000",
        "input": "0xac9650d8000000000000000000000000000000000000000000000000000000000000002000000000000000000000000000000000000000000000000000000000000000030000000000000000000000000000000000000000000000000000000000000060000000000000000000000000000000000000000000000000000000000000012000000000000000000000000000000000000000000000000000000000000002800000000000000000000000000000000000000000000000000000000000000084f3e324680000000000000000000000000000000000000000000000000000000000000000000000000000000000000000b1b388f2ef1bb1f7979f009381f797f94b90c09451f1b10abf90e16498d25086641b0669ec62f32f00000000000000000000000000000000000000000000000000000000000000000000000000000000004644f40000000000000000000000000000000000000000000000000000000000000000000000000000000000000000000000000000000000000000000001249df3913d15b3fe06e399b78cff61060a4905e35996a1a84797af44791d0e5944f7d2b2160000000000000000000000000000000000000000000000000000000000000000000000000000000000000000b1b388f2ef1bb1f7979f009381f797f94b90c09451f1b10abf90e16498d25086641b0669ec62f32f000000000000000000000000fffffffffffffffffffffffffffffffffffffffffffffffffffffffffab6326d000000000000000000000000000000000000000000000000000000000549cd93000000000000000000000000000000000000000000000000002386f26fc100000000000000000000000000000000000000000000000000000de0b6b3a764000000000000000000000000000000000000000000000000000000000000000000000000000000000000000000000000000000000000000000000000000000000000000000000000000000000000000000000000000000000000000000044186527000000000000000000000000000000000000000000000000000000000",
        "nonce": "0x349",
        "chainId": "0xaa36a7"
      },
      "additionalContracts": [],
      "isFixedGasLimit": false
    },
    {
      "hash": "0xd102c08d166c83b1fcff83efd86a292942fc4465c8c9a8cac90243dd5c8864f1",
      "transactionType": "CALL",
      "contractName": null,
      "contractAddress": "0xab090b2d86a32ab9ed214224f59dc7453be1037e",
      "function": "swap((address,address,bytes32),bool,int128,uint96,uint256)",
      "arguments": [
        "(0x0000000000000000000000000000000000000000, 0xb1B388F2Ef1BB1F7979F009381f797f94B90c094, 0x51f1b10abf90e16498d25086641b0669ec62f32f000000000000000000000000)",
        "false",
        "100000",
        "0",
        "0"
      ],
      "transaction": {
        "from": "0x00000c771f6176268d5a9846e0956c3ef58597a1",
        "to": "0xab090b2d86a32ab9ed214224f59dc7453be1037e",
        "gas": "0x1abc8",
        "value": "0x186a0",
        "input": "0x06b81a150000000000000000000000000000000000000000000000000000000000000000000000000000000000000000b1b388f2ef1bb1f7979f009381f797f94b90c09451f1b10abf90e16498d25086641b0669ec62f32f000000000000000000000000000000000000000000000000000000000000000000000000000000000000000000000000000000000000000000000000000000000000000000000000000186a000000000000000000000000000000000000000000000000000000000000000000000000000000000000000000000000000000000000000000000000000000000",
        "nonce": "0x34a",
        "chainId": "0xaa36a7"
      },
      "additionalContracts": [],
      "isFixedGasLimit": false
    },
    {
      "hash": "0x6c0302413d4625360f16ab0ee83fc332761fa27263933624a2d0958d15e5ab04",
      "transactionType": "CALL",
      "contractName": null,
      "contractAddress": "0xab090b2d86a32ab9ed214224f59dc7453be1037e",
      "function": "swap((address,address,bytes32),bool,int128,uint96,uint256)",
      "arguments": [
        "(0x0000000000000000000000000000000000000000, 0xb1B388F2Ef1BB1F7979F009381f797f94B90c094, 0x51f1b10abf90e16498d25086641b0669ec62f32f000000000000000000000000)",
        "true",
        "500000000",
        "0",
        "0"
      ],
      "transaction": {
        "from": "0x00000c771f6176268d5a9846e0956c3ef58597a1",
        "to": "0xab090b2d86a32ab9ed214224f59dc7453be1037e",
        "gas": "0x1d0f1",
        "value": "0x0",
        "input": "0x06b81a150000000000000000000000000000000000000000000000000000000000000000000000000000000000000000b1b388f2ef1bb1f7979f009381f797f94b90c09451f1b10abf90e16498d25086641b0669ec62f32f0000000000000000000000000000000000000000000000000000000000000000000000000000000000000001000000000000000000000000000000000000000000000000000000001dcd650000000000000000000000000000000000000000000000000000000000000000000000000000000000000000000000000000000000000000000000000000000000",
        "nonce": "0x34b",
        "chainId": "0xaa36a7"
      },
      "additionalContracts": [],
      "isFixedGasLimit": false
    },
    {
      "hash": "0x4959b0859217f88c937f66e93a5a03070b1ab10710b4193853277909a62f950c",
      "transactionType": "CALL",
      "contractName": null,
      "contractAddress": "0xab090b2d86a32ab9ed214224f59dc7453be1037e",
      "function": "swap((address,address,bytes32),bool,int128,uint96,uint256)",
      "arguments": [
        "(0x0000000000000000000000000000000000000000, 0xb1B388F2Ef1BB1F7979F009381f797f94B90c094, 0x51f1b10abf90e16498d25086641b0669ec62f32f000000000000000000000000)",
        "false",
        "100000",
        "0",
        "0"
      ],
      "transaction": {
        "from": "0x00000c771f6176268d5a9846e0956c3ef58597a1",
        "to": "0xab090b2d86a32ab9ed214224f59dc7453be1037e",
        "gas": "0x1c4f8",
        "value": "0x186a0",
        "input": "0x06b81a150000000000000000000000000000000000000000000000000000000000000000000000000000000000000000b1b388f2ef1bb1f7979f009381f797f94b90c09451f1b10abf90e16498d25086641b0669ec62f32f000000000000000000000000000000000000000000000000000000000000000000000000000000000000000000000000000000000000000000000000000000000000000000000000000186a000000000000000000000000000000000000000000000000000000000000000000000000000000000000000000000000000000000000000000000000000000000",
        "nonce": "0x34c",
        "chainId": "0xaa36a7"
      },
      "additionalContracts": [],
      "isFixedGasLimit": false
    },
    {
      "hash": "0x7fe56fdda0dc36ba428925e0c8eac0d9f8095763621783f7128cad2e3c3217a0",
      "transactionType": "CALL",
      "contractName": null,
      "contractAddress": "0xab090b2d86a32ab9ed214224f59dc7453be1037e",
      "function": "swap((address,address,bytes32),bool,int128,uint96,uint256)",
      "arguments": [
        "(0x0000000000000000000000000000000000000000, 0xb1B388F2Ef1BB1F7979F009381f797f94B90c094, 0x51f1b10abf90e16498d25086641b0669ec62f32f000000000000000000000000)",
        "true",
        "500000000",
        "0",
        "0"
      ],
      "transaction": {
        "from": "0x00000c771f6176268d5a9846e0956c3ef58597a1",
        "to": "0xab090b2d86a32ab9ed214224f59dc7453be1037e",
        "gas": "0x1d0f1",
        "value": "0x0",
        "input": "0x06b81a150000000000000000000000000000000000000000000000000000000000000000000000000000000000000000b1b388f2ef1bb1f7979f009381f797f94b90c09451f1b10abf90e16498d25086641b0669ec62f32f0000000000000000000000000000000000000000000000000000000000000000000000000000000000000001000000000000000000000000000000000000000000000000000000001dcd650000000000000000000000000000000000000000000000000000000000000000000000000000000000000000000000000000000000000000000000000000000000",
        "nonce": "0x34d",
        "chainId": "0xaa36a7"
      },
      "additionalContracts": [],
      "isFixedGasLimit": false
    },
    {
      "hash": "0x1be72cec99c858f86acf28e9636be15e76d509e7fe70b3f4dc070c280b4bda44",
      "transactionType": "CALL",
      "contractName": null,
      "contractAddress": "0x772b411db77bde1e1ac48c05ebfd713f7764b4a7",
      "function": "multicall(bytes[])",
      "arguments": [
        "[0xf3e324680000000000000000000000000000000000000000000000000000000000000000000000000000000000000000b1b388f2ef1bb1f7979f009381f797f94b90c0940000000000000000000000000000000000000000028f5c28f5c28f5c00004d5a000000000000000000000000000000000000000000000000000000000081f64d, 0x9df3913d15b3fe06e399b78cff61060a4905e35996a1a84797af44791d0e5944f7d2b2170000000000000000000000000000000000000000000000000000000000000000000000000000000000000000b1b388f2ef1bb1f7979f009381f797f94b90c0940000000000000000000000000000000000000000028f5c28f5c28f5c00004d5afffffffffffffffffffffffffffffffffffffffffffffffffffffffffab65900000000000000000000000000000000000000000000000000000000000549a700000000000000000000000000000000000000000000000000006a94d74f43000000000000000000000000000000000000000000000000001043561a88293000000000000000000000000000000000000000000000000000000000000000000000, 0x41865270]"
      ],
      "transaction": {
        "from": "0x00000c771f6176268d5a9846e0956c3ef58597a1",
        "to": "0x772b411db77bde1e1ac48c05ebfd713f7764b4a7",
        "gas": "0x633f5",
        "value": "0x6a94d74f430000",
        "input": "0xac9650d8000000000000000000000000000000000000000000000000000000000000002000000000000000000000000000000000000000000000000000000000000000030000000000000000000000000000000000000000000000000000000000000060000000000000000000000000000000000000000000000000000000000000012000000000000000000000000000000000000000000000000000000000000002800000000000000000000000000000000000000000000000000000000000000084f3e324680000000000000000000000000000000000000000000000000000000000000000000000000000000000000000b1b388f2ef1bb1f7979f009381f797f94b90c0940000000000000000000000000000000000000000028f5c28f5c28f5c00004d5a000000000000000000000000000000000000000000000000000000000081f64d0000000000000000000000000000000000000000000000000000000000000000000000000000000000000000000000000000000000000000000001249df3913d15b3fe06e399b78cff61060a4905e35996a1a84797af44791d0e5944f7d2b2170000000000000000000000000000000000000000000000000000000000000000000000000000000000000000b1b388f2ef1bb1f7979f009381f797f94b90c0940000000000000000000000000000000000000000028f5c28f5c28f5c00004d5afffffffffffffffffffffffffffffffffffffffffffffffffffffffffab65900000000000000000000000000000000000000000000000000000000000549a700000000000000000000000000000000000000000000000000006a94d74f43000000000000000000000000000000000000000000000000001043561a882930000000000000000000000000000000000000000000000000000000000000000000000000000000000000000000000000000000000000000000000000000000000000000000000000000000000000000000000000000000000000000000044186527000000000000000000000000000000000000000000000000000000000",
        "nonce": "0x34e",
        "chainId": "0xaa36a7"
      },
      "additionalContracts": [],
      "isFixedGasLimit": false
    }
  ],
  "receipts": [
    {
      "status": "0x1",
      "cumulativeGasUsed": "0xdd26df",
      "logs": [
        {
          "address": "0xb1b388f2ef1bb1f7979f009381f797f94b90c094",
          "topics": [
            "0xddf252ad1be2c89b69c2b068fc378daa952ba7f163c4a11628f55a4df523b3ef",
            "0x0000000000000000000000000000000000000000000000000000000000000000",
            "0x00000000000000000000000000000c771f6176268d5a9846e0956c3ef58597a1"
          ],
          "data": "0xffffffffffffffffffffffffffffffffffffffffffffffffffffffffffffffff",
          "blockHash": "0xfa4b74da35e51a60cf2ee308e4e41426f14dc0a5fc47b473591acc46948d4668",
          "blockNumber": "0x7730d0",
          "transactionHash": "0x3b987245b47575d80c57bd691dd5246a299a691e1b5796fed73146ed1b598ee2",
          "transactionIndex": "0x92",
          "logIndex": "0xa4",
          "removed": false
        }
      ],
      "logsBloom": "0x00000000000000000000000000000000200004000000000000000000000000200000000000020000000000000000000000000000000000000000000000000000000000000000000000000008000000000000000000000000000000000000000000000000020000000000000000000800000000000000000000000010000000000000000000000000000000000000000000000000000100000000000000000000000000000000000000000000000000000000000000000000000000000000000000000002000000000000000000000000000000000000000000000000000020000000000000000000000000000000000002000000000000000000000000000000",
      "type": "0x2",
      "transactionHash": "0x3b987245b47575d80c57bd691dd5246a299a691e1b5796fed73146ed1b598ee2",
      "transactionIndex": "0x92",
      "blockHash": "0xfa4b74da35e51a60cf2ee308e4e41426f14dc0a5fc47b473591acc46948d4668",
      "blockNumber": "0x7730d0",
      "gasUsed": "0x90ed7",
      "effectiveGasPrice": "0xb898ffca",
      "from": "0x00000c771f6176268d5a9846e0956c3ef58597a1",
      "to": null,
      "contractAddress": "0xb1b388f2ef1bb1f7979f009381f797f94b90c094"
    },
    {
      "status": "0x1",
      "cumulativeGasUsed": "0xc43d0e",
      "logs": [
        {
          "address": "0xb1b388f2ef1bb1f7979f009381f797f94b90c094",
          "topics": [
            "0x8c5be1e5ebec7d5bd14f71427d1e84f3dd0314c0f7b2291e5b200ac8c7c3b925",
            "0x00000000000000000000000000000c771f6176268d5a9846e0956c3ef58597a1",
            "0x000000000000000000000000ab090b2d86a32ab9ed214224f59dc7453be1037e"
          ],
          "data": "0xffffffffffffffffffffffffffffffffffffffffffffffffffffffffffffffff",
          "blockHash": "0xff423347c9e4756633db901641d40b3715847687c520330f438851d0ba1ecf9d",
          "blockNumber": "0x7730d1",
          "transactionHash": "0x863e161cf887ba0e0a88de74e7a5438c0076707ff01ecdd820dedd0811fb2ad1",
          "transactionIndex": "0x9a",
          "logIndex": "0xab",
          "removed": false
        }
      ],
      "logsBloom": "0x00000000000000000000000000000000200004000010000000000000000000200000000000020000000000000000000000000000000000000000020000200000000000000000000000000000000000000000000000000000000000000000000000000000000000000000000000000000000000000000000000000000000000000000000000000000000000000000000000000000000100000000000000000000020000000000000000000000000000000000000000000000000000000000000000000000000000000000000000000000000000000000000000000000000000000010000000000000000000000000000002000000000000000100000000000000",
      "type": "0x2",
      "transactionHash": "0x863e161cf887ba0e0a88de74e7a5438c0076707ff01ecdd820dedd0811fb2ad1",
      "transactionIndex": "0x9a",
      "blockHash": "0xff423347c9e4756633db901641d40b3715847687c520330f438851d0ba1ecf9d",
      "blockNumber": "0x7730d1",
      "gasUsed": "0xb437",
      "effectiveGasPrice": "0xba2ee60e",
      "from": "0x00000c771f6176268d5a9846e0956c3ef58597a1",
      "to": "0xb1b388f2ef1bb1f7979f009381f797f94b90c094",
      "contractAddress": null
    },
    {
      "status": "0x1",
      "cumulativeGasUsed": "0xcd7d20",
      "logs": [
        {
          "address": "0xb1b388f2ef1bb1f7979f009381f797f94b90c094",
          "topics": [
            "0x8c5be1e5ebec7d5bd14f71427d1e84f3dd0314c0f7b2291e5b200ac8c7c3b925",
            "0x00000000000000000000000000000c771f6176268d5a9846e0956c3ef58597a1",
            "0x000000000000000000000000772b411db77bde1e1ac48c05ebfd713f7764b4a7"
          ],
          "data": "0xffffffffffffffffffffffffffffffffffffffffffffffffffffffffffffffff",
          "blockHash": "0x3b6702eb90013daeabc7c00dd91c00097322309730643cda1a50b6348951283e",
          "blockNumber": "0x7730d2",
          "transactionHash": "0xbafa618280c6682ce8d979dce7f0ec41b13fe724c2dd91e1042835b9eb38fa05",
          "transactionIndex": "0xba",
          "logIndex": "0xcf",
          "removed": false
        }
      ],
      "logsBloom": "0x00000000000000000000000000000000200004000000000000000000000000200000000000020000000000000000000000000000000000000000000000200000000000000000040000000000000000000000000200000000000000000000000000000000000000000000000000000000000000000000000000000000000000000000000000000000000000000000000000000000000100000000000000000000020000000000000000000000000000000000000000000000000000000000000000000000000000000002000000000000000000000000000000000000000000000010000000000000000000000000000002000000000000000000000000000000",
      "type": "0x2",
      "transactionHash": "0xbafa618280c6682ce8d979dce7f0ec41b13fe724c2dd91e1042835b9eb38fa05",
      "transactionIndex": "0xba",
      "blockHash": "0x3b6702eb90013daeabc7c00dd91c00097322309730643cda1a50b6348951283e",
      "blockNumber": "0x7730d2",
      "gasUsed": "0xb437",
      "effectiveGasPrice": "0xbbade0f7",
      "from": "0x00000c771f6176268d5a9846e0956c3ef58597a1",
      "to": "0xb1b388f2ef1bb1f7979f009381f797f94b90c094",
      "contractAddress": null
    },
    {
      "status": "0x1",
      "cumulativeGasUsed": "0x116ed2b",
      "logs": [
        {
          "address": "0x16e186ecdc94083fff53ef2a41d46b92a54f61e2",
          "topics": [
            "0x5e4688b340694b7c7fd30047fd082117dc46e32acfbf81a44bb1fac0ae65154d"
          ],
          "data": "0xae76f216ce250b7b9a388d59cbbf92407d7ccee71a99b27ad521508b1c74681f0000000000000000000000000000000000000000000000000000000000000000000000000000000000000000b1b388f2ef1bb1f7979f009381f797f94b90c094000000000000000000000000000000000000000000c49ba5e353f7ce0000175e000000000000000000000000000000000000000000000000000000000081f64d000000000000000000000000000000000000000080000011ad7b7d57d2db6557",
          "blockHash": "0x5eefa9512d894e4468e83df84d2dad6ccee8a3cfa28f8a97223747ae8a43db64",
          "blockNumber": "0x7730d3",
          "transactionHash": "0x4b39d41ae3b823409ba6a92e2937f52f545acfd9cb7ecf7fb8eb7ea2e3b9985e",
          "transactionIndex": "0x84",
          "logIndex": "0x105",
          "removed": false
        },
        {
          "address": "0x772b411db77bde1e1ac48c05ebfd713f7764b4a7",
          "topics": [
            "0xddf252ad1be2c89b69c2b068fc378daa952ba7f163c4a11628f55a4df523b3ef",
            "0x0000000000000000000000000000000000000000000000000000000000000000",
            "0x00000000000000000000000000000c771f6176268d5a9846e0956c3ef58597a1",
            "0x00000000000000000000000000000000000000000000000000005e8680f84111"
          ],
          "data": "0x",
          "blockHash": "0x5eefa9512d894e4468e83df84d2dad6ccee8a3cfa28f8a97223747ae8a43db64",
          "blockNumber": "0x7730d3",
          "transactionHash": "0x4b39d41ae3b823409ba6a92e2937f52f545acfd9cb7ecf7fb8eb7ea2e3b9985e",
          "transactionIndex": "0x84",
          "logIndex": "0x106",
          "removed": false
        },
        {
          "address": "0x16e186ecdc94083fff53ef2a41d46b92a54f61e2",
          "topics": [
            "0xa2d4008be4187c63684f323788e131e1370dbc2205499befe2834005a00c792c"
          ],
          "data": "0x000000000000000000000000772b411db77bde1e1ac48c05ebfd713f7764b4a7ae76f216ce250b7b9a388d59cbbf92407d7ccee71a99b27ad521508b1c74681f00000000000000000000000000000000000000000000000000005e8680f84111fffffffffffffffffffffffffffffffffffffffffffffffffffffffffab6413e000000000000000000000000000000000000000000000000000000000549bec200000000000000000000000000000000000000000000000009d025b9f39a7b59000000000000000000000000000000000000000000000000002386f26fc10000000000000000000000000000000000000000000000000002b5e39a9fdddd9e1c",
          "blockHash": "0x5eefa9512d894e4468e83df84d2dad6ccee8a3cfa28f8a97223747ae8a43db64",
          "blockNumber": "0x7730d3",
          "transactionHash": "0x4b39d41ae3b823409ba6a92e2937f52f545acfd9cb7ecf7fb8eb7ea2e3b9985e",
          "transactionIndex": "0x84",
          "logIndex": "0x107",
          "removed": false
        },
        {
          "address": "0xb1b388f2ef1bb1f7979f009381f797f94b90c094",
          "topics": [
            "0xddf252ad1be2c89b69c2b068fc378daa952ba7f163c4a11628f55a4df523b3ef",
            "0x00000000000000000000000000000c771f6176268d5a9846e0956c3ef58597a1",
            "0x00000000000000000000000016e186ecdc94083fff53ef2a41d46b92a54f61e2"
          ],
          "data": "0x000000000000000000000000000000000000000000000002b5e39a9fdddd9e1c",
          "blockHash": "0x5eefa9512d894e4468e83df84d2dad6ccee8a3cfa28f8a97223747ae8a43db64",
          "blockNumber": "0x7730d3",
          "transactionHash": "0x4b39d41ae3b823409ba6a92e2937f52f545acfd9cb7ecf7fb8eb7ea2e3b9985e",
          "transactionIndex": "0x84",
          "logIndex": "0x108",
          "removed": false
        }
      ],
      "logsBloom": "0x00000000000100100000000000000000200024000100000000000000000800200000000000020000000000000000000000000000000000000000000000000000000000000000000000000008000000000000000000000000000000000000000020000000020000002000000000000800000000000000000000000010080000000000000000000000000000000008000080000000000100000000000000000000000000000000000000000100000000000000000000000000000000000400000000000002000000000000001000000000000002000000400000400000000020000000000000000000000000000000000102008000000000000000000000000000",
      "type": "0x2",
      "transactionHash": "0x4b39d41ae3b823409ba6a92e2937f52f545acfd9cb7ecf7fb8eb7ea2e3b9985e",
      "transactionIndex": "0x84",
      "blockHash": "0x5eefa9512d894e4468e83df84d2dad6ccee8a3cfa28f8a97223747ae8a43db64",
      "blockNumber": "0x7730d3",
      "gasUsed": "0x4c561",
      "effectiveGasPrice": "0xbf61da8a",
      "from": "0x00000c771f6176268d5a9846e0956c3ef58597a1",
      "to": "0x772b411db77bde1e1ac48c05ebfd713f7764b4a7",
      "contractAddress": null
    },
    {
      "status": "0x1",
      "cumulativeGasUsed": "0xfae790",
      "logs": [
        {
          "address": "0x16e186ecdc94083fff53ef2a41d46b92a54f61e2",
          "topics": [],
          "data": "0xab090b2d86a32ab9ed214224f59dc7453be1037eae76f216ce250b7b9a388d59cbbf92407d7ccee71a99b27ad521508b1c74681f000000000000000000000000000186a0ffffffffffffffffffffffffe2497ffa000000000000000009d025b9f39a7b5980000011ad7b7d5711127bde0081f64c",
          "blockHash": "0xce9248668a719549aac81578cd9a76b7d80a801ab995a2b80664286b2af23b86",
          "blockNumber": "0x7730d4",
          "transactionHash": "0x3e62796df2fd3e2d66610949f4889e78ed96da7397c7c5a83439873668cdc2a3",
          "transactionIndex": "0x8a",
          "logIndex": "0x9a",
          "removed": false
        },
        {
          "address": "0xb1b388f2ef1bb1f7979f009381f797f94b90c094",
          "topics": [
            "0xddf252ad1be2c89b69c2b068fc378daa952ba7f163c4a11628f55a4df523b3ef",
            "0x00000000000000000000000016e186ecdc94083fff53ef2a41d46b92a54f61e2",
            "0x00000000000000000000000000000c771f6176268d5a9846e0956c3ef58597a1"
          ],
          "data": "0x000000000000000000000000000000000000000000000000000000001db68006",
          "blockHash": "0xce9248668a719549aac81578cd9a76b7d80a801ab995a2b80664286b2af23b86",
          "blockNumber": "0x7730d4",
          "transactionHash": "0x3e62796df2fd3e2d66610949f4889e78ed96da7397c7c5a83439873668cdc2a3",
          "transactionIndex": "0x8a",
          "logIndex": "0x9b",
          "removed": false
        }
      ],
      "logsBloom": "0x00000000000000100000000000000000200004000000000000000000000800200000000000020000000000000000000000000000000000000000000000000000000000000000000000000008000000000000000000000000000000000000000000000000000000002000000000000000000000000000000000000010080000000000000000000000000000000000000000000000000100000000000000000000000000000000000000000100000000000000000000000000000000000000000000000002000000000000000000000000000000000000000000000000000000000000000000000000000000000000000102000000000000000000000000000000",
      "type": "0x2",
      "transactionHash": "0x3e62796df2fd3e2d66610949f4889e78ed96da7397c7c5a83439873668cdc2a3",
      "transactionIndex": "0x8a",
      "blockHash": "0xce9248668a719549aac81578cd9a76b7d80a801ab995a2b80664286b2af23b86",
      "blockNumber": "0x7730d4",
      "gasUsed": "0x178e8",
      "effectiveGasPrice": "0xc20622c0",
      "from": "0x00000c771f6176268d5a9846e0956c3ef58597a1",
      "to": "0xab090b2d86a32ab9ed214224f59dc7453be1037e",
      "contractAddress": null
    },
    {
      "status": "0x1",
      "cumulativeGasUsed": "0x1163535",
      "logs": [
        {
          "address": "0x16e186ecdc94083fff53ef2a41d46b92a54f61e2",
          "topics": [],
          "data": "0xab090b2d86a32ab9ed214224f59dc7453be1037eae76f216ce250b7b9a388d59cbbf92407d7ccee71a99b27ad521508b1c74681ffffffffffffffffffffffffffffe7a8c0000000000000000000000001dcd6500000000000000000009d025b9f39a7b5980000011ad7b7d57d2db6fc20081f64d",
          "blockHash": "0x19056a668efa3288c310063bc589fa669f3ee3848d11530bb821d8bff98db620",
          "blockNumber": "0x7730d5",
          "transactionHash": "0x4aa57739c17055dc02b7c6c974671c878a778a4e9fdb4058811891b12db6e1d5",
          "transactionIndex": "0xad",
          "logIndex": "0xc8",
          "removed": false
        },
        {
          "address": "0xb1b388f2ef1bb1f7979f009381f797f94b90c094",
          "topics": [
            "0xddf252ad1be2c89b69c2b068fc378daa952ba7f163c4a11628f55a4df523b3ef",
            "0x00000000000000000000000000000c771f6176268d5a9846e0956c3ef58597a1",
            "0x00000000000000000000000016e186ecdc94083fff53ef2a41d46b92a54f61e2"
          ],
          "data": "0x000000000000000000000000000000000000000000000000000000001dcd6500",
          "blockHash": "0x19056a668efa3288c310063bc589fa669f3ee3848d11530bb821d8bff98db620",
          "blockNumber": "0x7730d5",
          "transactionHash": "0x4aa57739c17055dc02b7c6c974671c878a778a4e9fdb4058811891b12db6e1d5",
          "transactionIndex": "0xad",
          "logIndex": "0xc9",
          "removed": false
        }
      ],
      "logsBloom": "0x00000000000000100000000000000000200004000000000000000000000800200000000000020000000000000000000000000000000000000000000000000000000000000000000000000008000000000000000000000000000000000000000000000000000000002000000000000000000000000000000000000010080000000000000000000000000000000000000000000000000100000000000000000000000000000000000000000100000000000000000000000000000000000000000000000002000000000000000000000000000000000000000000000000000000000000000000000000000000000000000102000000000000000000000000000000",
      "type": "0x2",
      "transactionHash": "0x4aa57739c17055dc02b7c6c974671c878a778a4e9fdb4058811891b12db6e1d5",
      "transactionIndex": "0xad",
      "blockHash": "0x19056a668efa3288c310063bc589fa669f3ee3848d11530bb821d8bff98db620",
      "blockNumber": "0x7730d5",
      "gasUsed": "0x193a6",
      "effectiveGasPrice": "0xc49103e9",
      "from": "0x00000c771f6176268d5a9846e0956c3ef58597a1",
      "to": "0xab090b2d86a32ab9ed214224f59dc7453be1037e",
      "contractAddress": null
    },
    {
      "status": "0x1",
      "cumulativeGasUsed": "0xe2f25a",
      "logs": [
        {
          "address": "0x16e186ecdc94083fff53ef2a41d46b92a54f61e2",
          "topics": [],
          "data": "0xab090b2d86a32ab9ed214224f59dc7453be1037eae76f216ce250b7b9a388d59cbbf92407d7ccee71a99b27ad521508b1c74681f000000000000000000000000000186a0ffffffffffffffffffffffffe24991e8000000000000000009d025b9f39a7b5980000011ad7b7d571112fb3f0081f64c",
          "blockHash": "0x2dd3a52170b1f46101c8d0afbb9b125df8e5df93c5a7641bcb20f075cd3798d3",
          "blockNumber": "0x7730d6",
          "transactionHash": "0xd9080ae46c97fc7abdea6d096d2f86f1f33abf8549498b6964c08b81570183ec",
          "transactionIndex": "0xa0",
          "logIndex": "0x83",
          "removed": false
        },
        {
          "address": "0xb1b388f2ef1bb1f7979f009381f797f94b90c094",
          "topics": [
            "0xddf252ad1be2c89b69c2b068fc378daa952ba7f163c4a11628f55a4df523b3ef",
            "0x00000000000000000000000016e186ecdc94083fff53ef2a41d46b92a54f61e2",
            "0x00000000000000000000000000000c771f6176268d5a9846e0956c3ef58597a1"
          ],
          "data": "0x000000000000000000000000000000000000000000000000000000001db66e18",
          "blockHash": "0x2dd3a52170b1f46101c8d0afbb9b125df8e5df93c5a7641bcb20f075cd3798d3",
          "blockNumber": "0x7730d6",
          "transactionHash": "0xd9080ae46c97fc7abdea6d096d2f86f1f33abf8549498b6964c08b81570183ec",
          "transactionIndex": "0xa0",
          "logIndex": "0x84",
          "removed": false
        }
      ],
      "logsBloom": "0x00000000000000100000000000000000200004000000000000000000000800200000000000020000000000000000000000000000000000000000000000000000000000000000000000000008000000000000000000000000000000000000000000000000000000002000000000000000000000000000000000000010080000000000000000000000000000000000000000000000000100000000000000000000000000000000000000000100000000000000000000000000000000000000000000000002000000000000000000000000000000000000000000000000000000000000000000000000000000000000000102000000000000000000000000000000",
      "type": "0x2",
      "transactionHash": "0xd9080ae46c97fc7abdea6d096d2f86f1f33abf8549498b6964c08b81570183ec",
      "transactionIndex": "0xa0",
      "blockHash": "0x2dd3a52170b1f46101c8d0afbb9b125df8e5df93c5a7641bcb20f075cd3798d3",
      "blockNumber": "0x7730d6",
      "gasUsed": "0x1361c",
      "effectiveGasPrice": "0xcc79eeca",
      "from": "0x00000c771f6176268d5a9846e0956c3ef58597a1",
      "to": "0xab090b2d86a32ab9ed214224f59dc7453be1037e",
      "contractAddress": null
    },
    {
      "status": "0x1",
      "cumulativeGasUsed": "0xc59098",
      "logs": [
        {
          "address": "0x16e186ecdc94083fff53ef2a41d46b92a54f61e2",
          "topics": [],
          "data": "0xab090b2d86a32ab9ed214224f59dc7453be1037eae76f216ce250b7b9a388d59cbbf92407d7ccee71a99b27ad521508b1c74681ffffffffffffffffffffffffffffe7a8c0000000000000000000000001dcd6500000000000000000009d025b9f39a7b5980000011ad7b7d57d2dbef230081f64d",
          "blockHash": "0xda10d2a652199dc62d391bcff03d4a9761bcca9955cc3560e149296f562349dd",
          "blockNumber": "0x7730d7",
          "transactionHash": "0x67be1e19db9db90955cc0dd42928582bbaaaea40702c4aba0a137a4825826cc1",
          "transactionIndex": "0xa1",
          "logIndex": "0xd7",
          "removed": false
        },
        {
          "address": "0xb1b388f2ef1bb1f7979f009381f797f94b90c094",
          "topics": [
            "0xddf252ad1be2c89b69c2b068fc378daa952ba7f163c4a11628f55a4df523b3ef",
            "0x00000000000000000000000000000c771f6176268d5a9846e0956c3ef58597a1",
            "0x00000000000000000000000016e186ecdc94083fff53ef2a41d46b92a54f61e2"
          ],
          "data": "0x000000000000000000000000000000000000000000000000000000001dcd6500",
          "blockHash": "0xda10d2a652199dc62d391bcff03d4a9761bcca9955cc3560e149296f562349dd",
          "blockNumber": "0x7730d7",
          "transactionHash": "0x67be1e19db9db90955cc0dd42928582bbaaaea40702c4aba0a137a4825826cc1",
          "transactionIndex": "0xa1",
          "logIndex": "0xd8",
          "removed": false
        }
      ],
      "logsBloom": "0x00000000000000100000000000000000200004000000000000000000000800200000000000020000000000000000000000000000000000000000000000000000000000000000000000000008000000000000000000000000000000000000000000000000000000002000000000000000000000000000000000000010080000000000000000000000000000000000000000000000000100000000000000000000000000000000000000000100000000000000000000000000000000000000000000000002000000000000000000000000000000000000000000000000000000000000000000000000000000000000000102000000000000000000000000000000",
      "type": "0x2",
      "transactionHash": "0x67be1e19db9db90955cc0dd42928582bbaaaea40702c4aba0a137a4825826cc1",
      "transactionIndex": "0xa1",
      "blockHash": "0xda10d2a652199dc62d391bcff03d4a9761bcca9955cc3560e149296f562349dd",
      "blockNumber": "0x7730d7",
      "gasUsed": "0x150da",
      "effectiveGasPrice": "0xd2307f31",
      "from": "0x00000c771f6176268d5a9846e0956c3ef58597a1",
      "to": "0xab090b2d86a32ab9ed214224f59dc7453be1037e",
      "contractAddress": null
    },
    {
      "status": "0x1",
      "cumulativeGasUsed": "0xc7142b",
      "logs": [
        {
          "address": "0x16e186ecdc94083fff53ef2a41d46b92a54f61e2",
          "topics": [
            "0x5e4688b340694b7c7fd30047fd082117dc46e32acfbf81a44bb1fac0ae65154d"
          ],
          "data": "0x99a5a61bab1931556fb9f8b8072b6ddaf385e48d2cd7f0ee70b491716303bd1f0000000000000000000000000000000000000000000000000000000000000000000000000000000000000000b1b388f2ef1bb1f7979f009381f797f94b90c094000000000000000000000000000000000000000000c49ba5e353f7ce00000000000000000000000000000000000000000000000000000000000000000081f64d000000000000000000000000000000000000000080000011ad7b7d57d2db6557",
          "blockHash": "0x6b7505a9d454676822fb4ea3a6aa0b0f2458d5226fdd18017905f5bab712f54a",
          "blockNumber": "0x7730d8",
          "transactionHash": "0x711014086f440f0e27dea36f6fb2dbbef27c6e2c7765cac8979ef9d62286e175",
          "transactionIndex": "0xa9",
          "logIndex": "0xb4",
          "removed": false
        },
        {
          "address": "0x772b411db77bde1e1ac48c05ebfd713f7764b4a7",
          "topics": [
            "0xddf252ad1be2c89b69c2b068fc378daa952ba7f163c4a11628f55a4df523b3ef",
            "0x0000000000000000000000000000000000000000000000000000000000000000",
            "0x00000000000000000000000000000c771f6176268d5a9846e0956c3ef58597a1",
            "0x0000000000000000000000000000000000000000000000000000c92ead142700"
          ],
          "data": "0x",
          "blockHash": "0x6b7505a9d454676822fb4ea3a6aa0b0f2458d5226fdd18017905f5bab712f54a",
          "blockNumber": "0x7730d8",
          "transactionHash": "0x711014086f440f0e27dea36f6fb2dbbef27c6e2c7765cac8979ef9d62286e175",
          "transactionIndex": "0xa9",
          "logIndex": "0xb5",
          "removed": false
        },
        {
          "address": "0x16e186ecdc94083fff53ef2a41d46b92a54f61e2",
          "topics": [
            "0xa2d4008be4187c63684f323788e131e1370dbc2205499befe2834005a00c792c"
          ],
          "data": "0x000000000000000000000000772b411db77bde1e1ac48c05ebfd713f7764b4a799a5a61bab1931556fb9f8b8072b6ddaf385e48d2cd7f0ee70b491716303bd1f0000000000000000000000000000000000000000000000000000c92ead142700fffffffffffffffffffffffffffffffffffffffffffffffffffffffffab6326d000000000000000000000000000000000000000000000000000000000549cd9300000000000000000000000000000000000000000000000009d025b9f39a7b59000000000000000000000000000000000000000000000000002386f26fc10000000000000000000000000000000000000000000000000002b5e39a9fdddd9e1c",
          "blockHash": "0x6b7505a9d454676822fb4ea3a6aa0b0f2458d5226fdd18017905f5bab712f54a",
          "blockNumber": "0x7730d8",
          "transactionHash": "0x711014086f440f0e27dea36f6fb2dbbef27c6e2c7765cac8979ef9d62286e175",
          "transactionIndex": "0xa9",
          "logIndex": "0xb6",
          "removed": false
        },
        {
          "address": "0xb1b388f2ef1bb1f7979f009381f797f94b90c094",
          "topics": [
            "0xddf252ad1be2c89b69c2b068fc378daa952ba7f163c4a11628f55a4df523b3ef",
            "0x00000000000000000000000000000c771f6176268d5a9846e0956c3ef58597a1",
            "0x00000000000000000000000016e186ecdc94083fff53ef2a41d46b92a54f61e2"
          ],
          "data": "0x000000000000000000000000000000000000000000000002b5e39a9fdddd9e1c",
          "blockHash": "0x6b7505a9d454676822fb4ea3a6aa0b0f2458d5226fdd18017905f5bab712f54a",
          "blockNumber": "0x7730d8",
          "transactionHash": "0x711014086f440f0e27dea36f6fb2dbbef27c6e2c7765cac8979ef9d62286e175",
          "transactionIndex": "0xa9",
          "logIndex": "0xb7",
          "removed": false
        }
      ],
      "logsBloom": "0x00000000000100100000000000000000200024000100000400000000000800200000000000020000000000000000000000000000000000000000000000000000000000000000000000000028000000000000000000000000000000000000000020000000020000002000000000000800000000000000000000000010080000000000000000000000000000000008000080000000000100000000000000000000000000000000000000000102000000000000000000000000000000000400000000000002000000000000000000000000000002000000000000000000000020000000000000000000000000000000000102008000000000000000000000000000",
      "type": "0x2",
      "transactionHash": "0x711014086f440f0e27dea36f6fb2dbbef27c6e2c7765cac8979ef9d62286e175",
      "transactionIndex": "0xa9",
      "blockHash": "0x6b7505a9d454676822fb4ea3a6aa0b0f2458d5226fdd18017905f5bab712f54a",
      "blockNumber": "0x7730d8",
      "gasUsed": "0x2b7e6",
      "effectiveGasPrice": "0xd1155a2b",
      "from": "0x00000c771f6176268d5a9846e0956c3ef58597a1",
      "to": "0x772b411db77bde1e1ac48c05ebfd713f7764b4a7",
      "contractAddress": null
    },
    {
      "status": "0x1",
      "cumulativeGasUsed": "0x90d5c1",
      "logs": [
        {
          "address": "0x16e186ecdc94083fff53ef2a41d46b92a54f61e2",
          "topics": [],
          "data": "0xab090b2d86a32ab9ed214224f59dc7453be1037e99a5a61bab1931556fb9f8b8072b6ddaf385e48d2cd7f0ee70b491716303bd1f000000000000000000000000000186a0ffffffffffffffffffffffffe2497ffa000000000000000009d025b9f39a7b5980000011ad7b7d5711127bde0081f64c",
          "blockHash": "0xe27e372d8fb4e2f8c9903f9e6f2508457d192c96cbf944b6ff2b32a0e3176a1b",
          "blockNumber": "0x7730d9",
          "transactionHash": "0x06bd48aff894ef2cf3bd3ff4dc429ab95c135fd81a0417377f605502d5a82557",
          "transactionIndex": "0x80",
          "logIndex": "0x79",
          "removed": false
        },
        {
          "address": "0xb1b388f2ef1bb1f7979f009381f797f94b90c094",
          "topics": [
            "0xddf252ad1be2c89b69c2b068fc378daa952ba7f163c4a11628f55a4df523b3ef",
            "0x00000000000000000000000016e186ecdc94083fff53ef2a41d46b92a54f61e2",
            "0x00000000000000000000000000000c771f6176268d5a9846e0956c3ef58597a1"
          ],
          "data": "0x000000000000000000000000000000000000000000000000000000001db68006",
          "blockHash": "0xe27e372d8fb4e2f8c9903f9e6f2508457d192c96cbf944b6ff2b32a0e3176a1b",
          "blockNumber": "0x7730d9",
          "transactionHash": "0x06bd48aff894ef2cf3bd3ff4dc429ab95c135fd81a0417377f605502d5a82557",
          "transactionIndex": "0x80",
          "logIndex": "0x7a",
          "removed": false
        }
      ],
      "logsBloom": "0x00000000000000100000000000000000200004000000000000000000000800200000000000020000000000000000000000000000000000000000000000000000000000000000000000000008000000000000000000000000000000000000000000000000000000002000000000000000000000000000000000000010080000000000000000000000000000000000000000000000000100000000000000000000000000000000000000000100000000000000000000000000000000000000000000000002000000000000000000000000000000000000000000000000000000000000000000000000000000000000000102000000000000000000000000000000",
      "type": "0x2",
      "transactionHash": "0x06bd48aff894ef2cf3bd3ff4dc429ab95c135fd81a0417377f605502d5a82557",
      "transactionIndex": "0x80",
      "blockHash": "0xe27e372d8fb4e2f8c9903f9e6f2508457d192c96cbf944b6ff2b32a0e3176a1b",
      "blockNumber": "0x7730d9",
      "gasUsed": "0x1698a",
      "effectiveGasPrice": "0xd0f277ce",
      "from": "0x00000c771f6176268d5a9846e0956c3ef58597a1",
      "to": "0xab090b2d86a32ab9ed214224f59dc7453be1037e",
      "contractAddress": null
    },
    {
      "status": "0x1",
      "cumulativeGasUsed": "0xb9a95b",
      "logs": [
        {
          "address": "0x16e186ecdc94083fff53ef2a41d46b92a54f61e2",
          "topics": [],
          "data": "0xab090b2d86a32ab9ed214224f59dc7453be1037e99a5a61bab1931556fb9f8b8072b6ddaf385e48d2cd7f0ee70b491716303bd1ffffffffffffffffffffffffffffe7a8c0000000000000000000000001dcd6500000000000000000009d025b9f39a7b5980000011ad7b7d57d2db6fc20081f64d",
          "blockHash": "0x7e7e20853ee40f62a5b5d1e00befcaee15666a915c75de2aafda2a930bcc2d42",
          "blockNumber": "0x7730db",
          "transactionHash": "0xa3e699f0b41659e3a3ea133f5e8ec7eeeeff29eab6251ab7ce2b344d53dc69ad",
          "transactionIndex": "0x99",
          "logIndex": "0xc5",
          "removed": false
        },
        {
          "address": "0xb1b388f2ef1bb1f7979f009381f797f94b90c094",
          "topics": [
            "0xddf252ad1be2c89b69c2b068fc378daa952ba7f163c4a11628f55a4df523b3ef",
            "0x00000000000000000000000000000c771f6176268d5a9846e0956c3ef58597a1",
            "0x00000000000000000000000016e186ecdc94083fff53ef2a41d46b92a54f61e2"
          ],
          "data": "0x000000000000000000000000000000000000000000000000000000001dcd6500",
          "blockHash": "0x7e7e20853ee40f62a5b5d1e00befcaee15666a915c75de2aafda2a930bcc2d42",
          "blockNumber": "0x7730db",
          "transactionHash": "0xa3e699f0b41659e3a3ea133f5e8ec7eeeeff29eab6251ab7ce2b344d53dc69ad",
          "transactionIndex": "0x99",
          "logIndex": "0xc6",
          "removed": false
        }
      ],
      "logsBloom": "0x00000000000000100000000000000000200004000000000000000000000800200000000000020000000000000000000000000000000000000000000000000000000000000000000000000008000000000000000000000000000000000000000000000000000000002000000000000000000000000000000000000010080000000000000000000000000000000000000000000000000100000000000000000000000000000000000000000100000000000000000000000000000000000000000000000002000000000000000000000000000000000000000000000000000000000000000000000000000000000000000102000000000000000000000000000000",
      "type": "0x2",
      "transactionHash": "0xa3e699f0b41659e3a3ea133f5e8ec7eeeeff29eab6251ab7ce2b344d53dc69ad",
      "transactionIndex": "0x99",
      "blockHash": "0x7e7e20853ee40f62a5b5d1e00befcaee15666a915c75de2aafda2a930bcc2d42",
      "blockNumber": "0x7730db",
      "gasUsed": "0x18472",
      "effectiveGasPrice": "0xc6327f9c",
      "from": "0x00000c771f6176268d5a9846e0956c3ef58597a1",
      "to": "0xab090b2d86a32ab9ed214224f59dc7453be1037e",
      "contractAddress": null
    },
    {
      "status": "0x1",
      "cumulativeGasUsed": "0xbc233f",
      "logs": [
        {
          "address": "0x16e186ecdc94083fff53ef2a41d46b92a54f61e2",
          "topics": [],
          "data": "0xab090b2d86a32ab9ed214224f59dc7453be1037e99a5a61bab1931556fb9f8b8072b6ddaf385e48d2cd7f0ee70b491716303bd1f000000000000000000000000000186a0ffffffffffffffffffffffffe24991e8000000000000000009d025b9f39a7b5980000011ad7b7d571112fb3f0081f64c",
          "blockHash": "0xd8d187a25c7265581eed361e12e0dfab33d914ba028ccc3b5df14b3d0e431cf6",
          "blockNumber": "0x7730dc",
          "transactionHash": "0xaddb6fac8f0180dc870ebe47e9f54cdf277a4c6ac5a8b6df0246bae1f4e9bfb7",
          "transactionIndex": "0xa4",
          "logIndex": "0xad",
          "removed": false
        },
        {
          "address": "0xb1b388f2ef1bb1f7979f009381f797f94b90c094",
          "topics": [
            "0xddf252ad1be2c89b69c2b068fc378daa952ba7f163c4a11628f55a4df523b3ef",
            "0x00000000000000000000000016e186ecdc94083fff53ef2a41d46b92a54f61e2",
            "0x00000000000000000000000000000c771f6176268d5a9846e0956c3ef58597a1"
          ],
          "data": "0x000000000000000000000000000000000000000000000000000000001db66e18",
          "blockHash": "0xd8d187a25c7265581eed361e12e0dfab33d914ba028ccc3b5df14b3d0e431cf6",
          "blockNumber": "0x7730dc",
          "transactionHash": "0xaddb6fac8f0180dc870ebe47e9f54cdf277a4c6ac5a8b6df0246bae1f4e9bfb7",
          "transactionIndex": "0xa4",
          "logIndex": "0xae",
          "removed": false
        }
      ],
      "logsBloom": "0x00000000000000100000000000000000200004000000000000000000000800200000000000020000000000000000000000000000000000000000000000000000000000000000000000000008000000000000000000000000000000000000000000000000000000002000000000000000000000000000000000000010080000000000000000000000000000000000000000000000000100000000000000000000000000000000000000000100000000000000000000000000000000000000000000000002000000000000000000000000000000000000000000000000000000000000000000000000000000000000000102000000000000000000000000000000",
      "type": "0x2",
      "transactionHash": "0xaddb6fac8f0180dc870ebe47e9f54cdf277a4c6ac5a8b6df0246bae1f4e9bfb7",
      "transactionIndex": "0xa4",
      "blockHash": "0xd8d187a25c7265581eed361e12e0dfab33d914ba028ccc3b5df14b3d0e431cf6",
      "blockNumber": "0x7730dc",
      "gasUsed": "0x126be",
      "effectiveGasPrice": "0xc758e141",
      "from": "0x00000c771f6176268d5a9846e0956c3ef58597a1",
      "to": "0xab090b2d86a32ab9ed214224f59dc7453be1037e",
      "contractAddress": null
    },
    {
      "status": "0x1",
      "cumulativeGasUsed": "0x14aede1",
      "logs": [
        {
          "address": "0x16e186ecdc94083fff53ef2a41d46b92a54f61e2",
          "topics": [],
          "data": "0xab090b2d86a32ab9ed214224f59dc7453be1037e99a5a61bab1931556fb9f8b8072b6ddaf385e48d2cd7f0ee70b491716303bd1ffffffffffffffffffffffffffffe7a8c0000000000000000000000001dcd6500000000000000000009d025b9f39a7b5980000011ad7b7d57d2dbef230081f64d",
          "blockHash": "0x1d1fe62b2ba13add0d80b0fec09881fb1f3fa38f2b14919b2e3396ce622d3392",
          "blockNumber": "0x7730de",
          "transactionHash": "0x44b8677a6b2e1c30f574320b1f9fbd40a3ca32d607ebf965f0224d3ef66899a3",
          "transactionIndex": "0xea",
          "logIndex": "0x14c",
          "removed": false
        },
        {
          "address": "0xb1b388f2ef1bb1f7979f009381f797f94b90c094",
          "topics": [
            "0xddf252ad1be2c89b69c2b068fc378daa952ba7f163c4a11628f55a4df523b3ef",
            "0x00000000000000000000000000000c771f6176268d5a9846e0956c3ef58597a1",
            "0x00000000000000000000000016e186ecdc94083fff53ef2a41d46b92a54f61e2"
          ],
          "data": "0x000000000000000000000000000000000000000000000000000000001dcd6500",
          "blockHash": "0x1d1fe62b2ba13add0d80b0fec09881fb1f3fa38f2b14919b2e3396ce622d3392",
          "blockNumber": "0x7730de",
          "transactionHash": "0x44b8677a6b2e1c30f574320b1f9fbd40a3ca32d607ebf965f0224d3ef66899a3",
          "transactionIndex": "0xea",
          "logIndex": "0x14d",
          "removed": false
        }
      ],
      "logsBloom": "0x00000000000000100000000000000000200004000000000000000000000800200000000000020000000000000000000000000000000000000000000000000000000000000000000000000008000000000000000000000000000000000000000000000000000000002000000000000000000000000000000000000010080000000000000000000000000000000000000000000000000100000000000000000000000000000000000000000100000000000000000000000000000000000000000000000002000000000000000000000000000000000000000000000000000000000000000000000000000000000000000102000000000000000000000000000000",
      "type": "0x2",
      "transactionHash": "0x44b8677a6b2e1c30f574320b1f9fbd40a3ca32d607ebf965f0224d3ef66899a3",
      "transactionIndex": "0xea",
      "blockHash": "0x1d1fe62b2ba13add0d80b0fec09881fb1f3fa38f2b14919b2e3396ce622d3392",
      "blockNumber": "0x7730de",
      "gasUsed": "0x141a6",
      "effectiveGasPrice": "0xb56c8d07",
      "from": "0x00000c771f6176268d5a9846e0956c3ef58597a1",
      "to": "0xab090b2d86a32ab9ed214224f59dc7453be1037e",
      "contractAddress": null
    },
    {
      "status": "0x1",
      "cumulativeGasUsed": "0x945d18",
      "logs": [
        {
          "address": "0x51f1b10abf90e16498d25086641b0669ec62f32f",
          "topics": [],
          "data": "0xb1b388f2ef1bb1f7979f009381f797f94b90c0940000000067c32d8c00000000000000000000000000000000000000000000000000000000",
          "blockHash": "0x518b0542200a8d041979b36e481877fdd2261d6f10ac562d2bf1451946065fd3",
          "blockNumber": "0x7730df",
          "transactionHash": "0xc16e3a2ebe2f280bea4e7891b1d1754fdcb0515e1f74d8eb6b729cdff14d6da3",
          "transactionIndex": "0x9a",
          "logIndex": "0x83",
          "removed": false
        },
        {
          "address": "0x16e186ecdc94083fff53ef2a41d46b92a54f61e2",
          "topics": [
            "0x5e4688b340694b7c7fd30047fd082117dc46e32acfbf81a44bb1fac0ae65154d"
          ],
          "data": "0x536d62bcf8fa45b9e94bb08c6aebeb649c316f4e4643ba5a3e9527dc7dbf527d0000000000000000000000000000000000000000000000000000000000000000000000000000000000000000b1b388f2ef1bb1f7979f009381f797f94b90c09451f1b10abf90e16498d25086641b0669ec62f32f00000000000000000000000000000000000000000000000000000000000000000000000000000000004644f40000000000000000000000000000000000000000800000027ffff5c0ff12dc20",
          "blockHash": "0x518b0542200a8d041979b36e481877fdd2261d6f10ac562d2bf1451946065fd3",
          "blockNumber": "0x7730df",
          "transactionHash": "0xc16e3a2ebe2f280bea4e7891b1d1754fdcb0515e1f74d8eb6b729cdff14d6da3",
          "transactionIndex": "0x9a",
          "logIndex": "0x84",
          "removed": false
        },
        {
          "address": "0x772b411db77bde1e1ac48c05ebfd713f7764b4a7",
          "topics": [
            "0xddf252ad1be2c89b69c2b068fc378daa952ba7f163c4a11628f55a4df523b3ef",
            "0x0000000000000000000000000000000000000000000000000000000000000000",
            "0x00000000000000000000000000000c771f6176268d5a9846e0956c3ef58597a1",
            "0x000000000000000000000000000000000000000000000000000044d8764b7ef9"
          ],
          "data": "0x",
          "blockHash": "0x518b0542200a8d041979b36e481877fdd2261d6f10ac562d2bf1451946065fd3",
          "blockNumber": "0x7730df",
          "transactionHash": "0xc16e3a2ebe2f280bea4e7891b1d1754fdcb0515e1f74d8eb6b729cdff14d6da3",
          "transactionIndex": "0x9a",
          "logIndex": "0x85",
          "removed": false
        },
        {
          "address": "0x16e186ecdc94083fff53ef2a41d46b92a54f61e2",
          "topics": [
            "0xa2d4008be4187c63684f323788e131e1370dbc2205499befe2834005a00c792c"
          ],
          "data": "0x000000000000000000000000772b411db77bde1e1ac48c05ebfd713f7764b4a7536d62bcf8fa45b9e94bb08c6aebeb649c316f4e4643ba5a3e9527dc7dbf527d000000000000000000000000000000000000000000000000000044d8764b7ef9fffffffffffffffffffffffffffffffffffffffffffffffffffffffffab6326d000000000000000000000000000000000000000000000000000000000549cd9300000000000000000000000000000000000000000000000001634572ad7ac440000000000000000000000000000000000000000000000000002386f26fc100000000000000000000000000000000000000000000000000000de0b641e6343e1e",
          "blockHash": "0x518b0542200a8d041979b36e481877fdd2261d6f10ac562d2bf1451946065fd3",
          "blockNumber": "0x7730df",
          "transactionHash": "0xc16e3a2ebe2f280bea4e7891b1d1754fdcb0515e1f74d8eb6b729cdff14d6da3",
          "transactionIndex": "0x9a",
          "logIndex": "0x86",
          "removed": false
        },
        {
          "address": "0xb1b388f2ef1bb1f7979f009381f797f94b90c094",
          "topics": [
            "0xddf252ad1be2c89b69c2b068fc378daa952ba7f163c4a11628f55a4df523b3ef",
            "0x00000000000000000000000000000c771f6176268d5a9846e0956c3ef58597a1",
            "0x00000000000000000000000016e186ecdc94083fff53ef2a41d46b92a54f61e2"
          ],
          "data": "0x0000000000000000000000000000000000000000000000000de0b641e6343e1e",
          "blockHash": "0x518b0542200a8d041979b36e481877fdd2261d6f10ac562d2bf1451946065fd3",
          "blockNumber": "0x7730df",
          "transactionHash": "0xc16e3a2ebe2f280bea4e7891b1d1754fdcb0515e1f74d8eb6b729cdff14d6da3",
          "transactionIndex": "0x9a",
          "logIndex": "0x87",
          "removed": false
        }
      ],
      "logsBloom": "0x00000000000100100000000000000004200024004100000000000000000800200000000000020000000000000000000000000000000000000000000000000000000000000000000000000088000000000000000000000000000000000000000020000000020040002000000000000800000000800000000000000010080000000000000000000000000000000008000080000000000100000000000000000000000000000000000000000100000000000000000000000000000000000400000000000002000000000000000000000000000002000000000000000000000020000000000200000000000000000000000102008000000000000000000000000000",
      "type": "0x2",
      "transactionHash": "0xc16e3a2ebe2f280bea4e7891b1d1754fdcb0515e1f74d8eb6b729cdff14d6da3",
      "transactionIndex": "0x9a",
      "blockHash": "0x518b0542200a8d041979b36e481877fdd2261d6f10ac562d2bf1451946065fd3",
      "blockNumber": "0x7730df",
      "gasUsed": "0x3910b",
      "effectiveGasPrice": "0xbf9b4044",
      "from": "0x00000c771f6176268d5a9846e0956c3ef58597a1",
      "to": "0x772b411db77bde1e1ac48c05ebfd713f7764b4a7",
      "contractAddress": null
    },
    {
      "status": "0x1",
      "cumulativeGasUsed": "0xb51c30",
      "logs": [
        {
          "address": "0x51f1b10abf90e16498d25086641b0669ec62f32f",
          "topics": [],
          "data": "0xb1b388f2ef1bb1f7979f009381f797f94b90c0940000000067c32da400000000000000000000114b383b95d4b724594900000000069676e0",
          "blockHash": "0xbe971852478c8e1333efc904733dc3e5d017d9c4b31c6a50aff32be8fd8cc8c2",
          "blockNumber": "0x7730e1",
          "transactionHash": "0xd102c08d166c83b1fcff83efd86a292942fc4465c8c9a8cac90243dd5c8864f1",
          "transactionIndex": "0x94",
          "logIndex": "0xa1",
          "removed": false
        },
        {
          "address": "0x16e186ecdc94083fff53ef2a41d46b92a54f61e2",
          "topics": [],
          "data": "0xab090b2d86a32ab9ed214224f59dc7453be1037e536d62bcf8fa45b9e94bb08c6aebeb649c316f4e4643ba5a3e9527dc7dbf527d000000000000000000000000000186a0ffffffffffffffffffffffffff6769e7000000000000000001634572ad7ac440800000027ffff5c0e3960e61004644f3",
          "blockHash": "0xbe971852478c8e1333efc904733dc3e5d017d9c4b31c6a50aff32be8fd8cc8c2",
          "blockNumber": "0x7730e1",
          "transactionHash": "0xd102c08d166c83b1fcff83efd86a292942fc4465c8c9a8cac90243dd5c8864f1",
          "transactionIndex": "0x94",
          "logIndex": "0xa2",
          "removed": false
        },
        {
          "address": "0xb1b388f2ef1bb1f7979f009381f797f94b90c094",
          "topics": [
            "0xddf252ad1be2c89b69c2b068fc378daa952ba7f163c4a11628f55a4df523b3ef",
            "0x00000000000000000000000016e186ecdc94083fff53ef2a41d46b92a54f61e2",
            "0x00000000000000000000000000000c771f6176268d5a9846e0956c3ef58597a1"
          ],
          "data": "0x0000000000000000000000000000000000000000000000000000000000989619",
          "blockHash": "0xbe971852478c8e1333efc904733dc3e5d017d9c4b31c6a50aff32be8fd8cc8c2",
          "blockNumber": "0x7730e1",
          "transactionHash": "0xd102c08d166c83b1fcff83efd86a292942fc4465c8c9a8cac90243dd5c8864f1",
          "transactionIndex": "0x94",
          "logIndex": "0xa3",
          "removed": false
        }
      ],
      "logsBloom": "0x00000000000000100000000000000000200004004000000000000000000800200000000000020000000000000000000000000000000000000000000000000000000000000000000000000088000000000000000000000000000000000000000000000000000040002000000000000000000000000000000000000010080000000000000000000000000000000000000000000000000100000000000000000000000000000000000000000100000000000000000000000000000000000000000000000002000000000000000000000000000000000000000000000000000000000000000000000000000000000000000102000000000000000000000000000000",
      "type": "0x2",
      "transactionHash": "0xd102c08d166c83b1fcff83efd86a292942fc4465c8c9a8cac90243dd5c8864f1",
      "transactionIndex": "0x94",
      "blockHash": "0xbe971852478c8e1333efc904733dc3e5d017d9c4b31c6a50aff32be8fd8cc8c2",
      "blockNumber": "0x7730e1",
      "gasUsed": "0x14cde",
      "effectiveGasPrice": "0xb59e527f",
      "from": "0x00000c771f6176268d5a9846e0956c3ef58597a1",
      "to": "0xab090b2d86a32ab9ed214224f59dc7453be1037e",
      "contractAddress": null
    },
    {
      "status": "0x1",
      "cumulativeGasUsed": "0xdd5491",
      "logs": [
        {
          "address": "0x51f1b10abf90e16498d25086641b0669ec62f32f",
          "topics": [],
          "data": "0xb1b388f2ef1bb1f7979f009381f797f94b90c0940000000067c32db00000000000000000000019f0d45960bf12b685ed0000000009e1b244",
          "blockHash": "0x00274f96afcbde7441f5dc9ec5483436ada604000e9c1a2b18f9a372b9d4b8cb",
          "blockNumber": "0x7730e2",
          "transactionHash": "0x6c0302413d4625360f16ab0ee83fc332761fa27263933624a2d0958d15e5ab04",
          "transactionIndex": "0xa8",
          "logIndex": "0xf0",
          "removed": false
        },
        {
          "address": "0x16e186ecdc94083fff53ef2a41d46b92a54f61e2",
          "topics": [],
          "data": "0xab090b2d86a32ab9ed214224f59dc7453be1037e536d62bcf8fa45b9e94bb08c6aebeb649c316f4e4643ba5a3e9527dc7dbf527dffffffffffffffffffffffffffb3b4be0000000000000000000000001dcd6500000000000000000001634572ad7ac440800000027ffff5c641f9dced004644f4",
          "blockHash": "0x00274f96afcbde7441f5dc9ec5483436ada604000e9c1a2b18f9a372b9d4b8cb",
          "blockNumber": "0x7730e2",
          "transactionHash": "0x6c0302413d4625360f16ab0ee83fc332761fa27263933624a2d0958d15e5ab04",
          "transactionIndex": "0xa8",
          "logIndex": "0xf1",
          "removed": false
        },
        {
          "address": "0xb1b388f2ef1bb1f7979f009381f797f94b90c094",
          "topics": [
            "0xddf252ad1be2c89b69c2b068fc378daa952ba7f163c4a11628f55a4df523b3ef",
            "0x00000000000000000000000000000c771f6176268d5a9846e0956c3ef58597a1",
            "0x00000000000000000000000016e186ecdc94083fff53ef2a41d46b92a54f61e2"
          ],
          "data": "0x000000000000000000000000000000000000000000000000000000001dcd6500",
          "blockHash": "0x00274f96afcbde7441f5dc9ec5483436ada604000e9c1a2b18f9a372b9d4b8cb",
          "blockNumber": "0x7730e2",
          "transactionHash": "0x6c0302413d4625360f16ab0ee83fc332761fa27263933624a2d0958d15e5ab04",
          "transactionIndex": "0xa8",
          "logIndex": "0xf2",
          "removed": false
        }
      ],
      "logsBloom": "0x00000000000000100000000000000000200004004000000000000000000800200000000000020000000000000000000000000000000000000000000000000000000000000000000000000088000000000000000000000000000000000000000000000000000040002000000000000000000000000000000000000010080000000000000000000000000000000000000000000000000100000000000000000000000000000000000000000100000000000000000000000000000000000000000000000002000000000000000000000000000000000000000000000000000000000000000000000000000000000000000102000000000000000000000000000000",
      "type": "0x2",
      "transactionHash": "0x6c0302413d4625360f16ab0ee83fc332761fa27263933624a2d0958d15e5ab04",
      "transactionIndex": "0xa8",
      "blockHash": "0x00274f96afcbde7441f5dc9ec5483436ada604000e9c1a2b18f9a372b9d4b8cb",
      "blockNumber": "0x7730e2",
      "gasUsed": "0x167c6",
      "effectiveGasPrice": "0xb9b4e495",
      "from": "0x00000c771f6176268d5a9846e0956c3ef58597a1",
      "to": "0xab090b2d86a32ab9ed214224f59dc7453be1037e",
      "contractAddress": null
    },
    {
      "status": "0x1",
      "cumulativeGasUsed": "0xbbf645",
      "logs": [
        {
          "address": "0x51f1b10abf90e16498d25086641b0669ec62f32f",
          "topics": [],
          "data": "0xb1b388f2ef1bb1f7979f009381f797f94b90c0940000000067c32dbc00000000000000000000229670772ba96e48b291000000000d2cedb4",
          "blockHash": "0x665d3b0081c680af5ae73957b73d3011975cfef338a0555d2ff5d11e07e77314",
          "blockNumber": "0x7730e3",
          "transactionHash": "0x4959b0859217f88c937f66e93a5a03070b1ab10710b4193853277909a62f950c",
          "transactionIndex": "0xb0",
          "logIndex": "0xae",
          "removed": false
        },
        {
          "address": "0x16e186ecdc94083fff53ef2a41d46b92a54f61e2",
          "topics": [],
          "data": "0xab090b2d86a32ab9ed214224f59dc7453be1037e536d62bcf8fa45b9e94bb08c6aebeb649c316f4e4643ba5a3e9527dc7dbf527d000000000000000000000000000186a0ffffffffffffffffffffffffff6769bd000000000000000001634572ad7ac440800000027ffff5c6267d0799004644f4",
          "blockHash": "0x665d3b0081c680af5ae73957b73d3011975cfef338a0555d2ff5d11e07e77314",
          "blockNumber": "0x7730e3",
          "transactionHash": "0x4959b0859217f88c937f66e93a5a03070b1ab10710b4193853277909a62f950c",
          "transactionIndex": "0xb0",
          "logIndex": "0xaf",
          "removed": false
        },
        {
          "address": "0xb1b388f2ef1bb1f7979f009381f797f94b90c094",
          "topics": [
            "0xddf252ad1be2c89b69c2b068fc378daa952ba7f163c4a11628f55a4df523b3ef",
            "0x00000000000000000000000016e186ecdc94083fff53ef2a41d46b92a54f61e2",
            "0x00000000000000000000000000000c771f6176268d5a9846e0956c3ef58597a1"
          ],
          "data": "0x0000000000000000000000000000000000000000000000000000000000989643",
          "blockHash": "0x665d3b0081c680af5ae73957b73d3011975cfef338a0555d2ff5d11e07e77314",
          "blockNumber": "0x7730e3",
          "transactionHash": "0x4959b0859217f88c937f66e93a5a03070b1ab10710b4193853277909a62f950c",
          "transactionIndex": "0xb0",
          "logIndex": "0xb0",
          "removed": false
        }
      ],
      "logsBloom": "0x00000000000000100000000000000000200004004000000000000000000800200000000000020000000000000000000000000000000000000000000000000000000000000000000000000088000000000000000000000000000000000000000000000000000040002000000000000000000000000000000000000010080000000000000000000000000000000000000000000000000100000000000000000000000000000000000000000100000000000000000000000000000000000000000000000002000000000000000000000000000000000000000000000000000000000000000000000000000000000000000102000000000000000000000000000000",
      "type": "0x2",
      "transactionHash": "0x4959b0859217f88c937f66e93a5a03070b1ab10710b4193853277909a62f950c",
      "transactionIndex": "0xb0",
      "blockHash": "0x665d3b0081c680af5ae73957b73d3011975cfef338a0555d2ff5d11e07e77314",
      "blockNumber": "0x7730e3",
      "gasUsed": "0x14ce2",
      "effectiveGasPrice": "0xbe5f7fa3",
      "from": "0x00000c771f6176268d5a9846e0956c3ef58597a1",
      "to": "0xab090b2d86a32ab9ed214224f59dc7453be1037e",
      "contractAddress": null
    },
    {
      "status": "0x1",
      "cumulativeGasUsed": "0xe27ae9",
      "logs": [
        {
          "address": "0x51f1b10abf90e16498d25086641b0669ec62f32f",
          "topics": [],
          "data": "0xb1b388f2ef1bb1f7979f009381f797f94b90c0940000000067c32dc8000000000000000000002b3c0c94f693c9dadf350000000010782924",
          "blockHash": "0x8c9758784932a8a6f0caad3bd267495322cb5545094c628bd2362f402299dd5f",
          "blockNumber": "0x7730e4",
          "transactionHash": "0x7fe56fdda0dc36ba428925e0c8eac0d9f8095763621783f7128cad2e3c3217a0",
          "transactionIndex": "0x90",
          "logIndex": "0xc0",
          "removed": false
        },
        {
          "address": "0x16e186ecdc94083fff53ef2a41d46b92a54f61e2",
          "topics": [],
          "data": "0xab090b2d86a32ab9ed214224f59dc7453be1037e536d62bcf8fa45b9e94bb08c6aebeb649c316f4e4643ba5a3e9527dc7dbf527dffffffffffffffffffffffffffb3b4be0000000000000000000000001dcd6500000000000000000001634572ad7ac440800000027ffff5cb84e0d625004644f4",
          "blockHash": "0x8c9758784932a8a6f0caad3bd267495322cb5545094c628bd2362f402299dd5f",
          "blockNumber": "0x7730e4",
          "transactionHash": "0x7fe56fdda0dc36ba428925e0c8eac0d9f8095763621783f7128cad2e3c3217a0",
          "transactionIndex": "0x90",
          "logIndex": "0xc1",
          "removed": false
        },
        {
          "address": "0xb1b388f2ef1bb1f7979f009381f797f94b90c094",
          "topics": [
            "0xddf252ad1be2c89b69c2b068fc378daa952ba7f163c4a11628f55a4df523b3ef",
            "0x00000000000000000000000000000c771f6176268d5a9846e0956c3ef58597a1",
            "0x00000000000000000000000016e186ecdc94083fff53ef2a41d46b92a54f61e2"
          ],
          "data": "0x000000000000000000000000000000000000000000000000000000001dcd6500",
          "blockHash": "0x8c9758784932a8a6f0caad3bd267495322cb5545094c628bd2362f402299dd5f",
          "blockNumber": "0x7730e4",
          "transactionHash": "0x7fe56fdda0dc36ba428925e0c8eac0d9f8095763621783f7128cad2e3c3217a0",
          "transactionIndex": "0x90",
          "logIndex": "0xc2",
          "removed": false
        }
      ],
      "logsBloom": "0x00000000000000100000000000000000200004004000000000000000000800200000000000020000000000000000000000000000000000000000000000000000000000000000000000000088000000000000000000000000000000000000000000000000000040002000000000000000000000000000000000000010080000000000000000000000000000000000000000000000000100000000000000000000000000000000000000000100000000000000000000000000000000000000000000000002000000000000000000000000000000000000000000000000000000000000000000000000000000000000000102000000000000000000000000000000",
      "type": "0x2",
      "transactionHash": "0x7fe56fdda0dc36ba428925e0c8eac0d9f8095763621783f7128cad2e3c3217a0",
      "transactionIndex": "0x90",
      "blockHash": "0x8c9758784932a8a6f0caad3bd267495322cb5545094c628bd2362f402299dd5f",
      "blockNumber": "0x7730e4",
      "gasUsed": "0x167c6",
      "effectiveGasPrice": "0xbf4ca901",
      "from": "0x00000c771f6176268d5a9846e0956c3ef58597a1",
      "to": "0xab090b2d86a32ab9ed214224f59dc7453be1037e",
      "contractAddress": null
    },
    {
      "status": "0x1",
      "cumulativeGasUsed": "0xc93723",
      "logs": [
        {
          "address": "0x16e186ecdc94083fff53ef2a41d46b92a54f61e2",
          "topics": [
            "0x5e4688b340694b7c7fd30047fd082117dc46e32acfbf81a44bb1fac0ae65154d"
          ],
          "data": "0xd0a8ba2fae912c7f28b086b97f6fa64a9e81270301f2588fca9f59038b3bf1730000000000000000000000000000000000000000000000000000000000000000000000000000000000000000b1b388f2ef1bb1f7979f009381f797f94b90c0940000000000000000000000000000000000000000028f5c28f5c28f5c00004d5a000000000000000000000000000000000000000000000000000000000081f64d000000000000000000000000000000000000000080000011ad7b7d57d2db6557",
          "blockHash": "0x76b2a1b6c626e1d4d6c448e27536b1a37dcf70cfbeb55f5d9982f54217ecd62a",
          "blockNumber": "0x7730e5",
          "transactionHash": "0x1be72cec99c858f86acf28e9636be15e76d509e7fe70b3f4dc070c280b4bda44",
          "transactionIndex": "0xac",
          "logIndex": "0xb4",
          "removed": false
        },
        {
          "address": "0x772b411db77bde1e1ac48c05ebfd713f7764b4a7",
          "topics": [
            "0xddf252ad1be2c89b69c2b068fc378daa952ba7f163c4a11628f55a4df523b3ef",
            "0x0000000000000000000000000000000000000000000000000000000000000000",
            "0x00000000000000000000000000000c771f6176268d5a9846e0956c3ef58597a1",
            "0x000000000000000000000000000000000000000000000000000073859f8b714b"
          ],
          "data": "0x",
          "blockHash": "0x76b2a1b6c626e1d4d6c448e27536b1a37dcf70cfbeb55f5d9982f54217ecd62a",
          "blockNumber": "0x7730e5",
          "transactionHash": "0x1be72cec99c858f86acf28e9636be15e76d509e7fe70b3f4dc070c280b4bda44",
          "transactionIndex": "0xac",
          "logIndex": "0xb5",
          "removed": false
        },
        {
          "address": "0x16e186ecdc94083fff53ef2a41d46b92a54f61e2",
          "topics": [
            "0xa2d4008be4187c63684f323788e131e1370dbc2205499befe2834005a00c792c"
          ],
          "data": "0x000000000000000000000000772b411db77bde1e1ac48c05ebfd713f7764b4a7d0a8ba2fae912c7f28b086b97f6fa64a9e81270301f2588fca9f59038b3bf173000000000000000000000000000000000000000000000000000073859f8b714bfffffffffffffffffffffffffffffffffffffffffffffffffffffffffab65900000000000000000000000000000000000000000000000000000000000549a7000000000000000000000000000000000000000000000000001d70712ddacf720b000000000000000000000000000000000000000000000000006a94d74f43000000000000000000000000000000000000000000000000000821aacfdf9998da53",
          "blockHash": "0x76b2a1b6c626e1d4d6c448e27536b1a37dcf70cfbeb55f5d9982f54217ecd62a",
          "blockNumber": "0x7730e5",
          "transactionHash": "0x1be72cec99c858f86acf28e9636be15e76d509e7fe70b3f4dc070c280b4bda44",
          "transactionIndex": "0xac",
          "logIndex": "0xb6",
          "removed": false
        },
        {
          "address": "0xb1b388f2ef1bb1f7979f009381f797f94b90c094",
          "topics": [
            "0xddf252ad1be2c89b69c2b068fc378daa952ba7f163c4a11628f55a4df523b3ef",
            "0x00000000000000000000000000000c771f6176268d5a9846e0956c3ef58597a1",
            "0x00000000000000000000000016e186ecdc94083fff53ef2a41d46b92a54f61e2"
          ],
          "data": "0x00000000000000000000000000000000000000000000000821aacfdf9998da53",
          "blockHash": "0x76b2a1b6c626e1d4d6c448e27536b1a37dcf70cfbeb55f5d9982f54217ecd62a",
          "blockNumber": "0x7730e5",
          "transactionHash": "0x1be72cec99c858f86acf28e9636be15e76d509e7fe70b3f4dc070c280b4bda44",
          "transactionIndex": "0xac",
          "logIndex": "0xb7",
          "removed": false
        }
      ],
      "logsBloom": "0x00000000000100100000000000000000200024008100000000000000000800200000000000020000000000000000000000000000000000000000000000000000000000000000000000000008000000000000000000000000000000000000000020000000020000002000000000000800000000000000000000000010080000000000000000000000000000000008000080000000000100400000000000000000000000800000000000000100000000000000000000000000000000000400000000000002000000000000000000000000000002000000000000000000000020000000000000000000000000000000000102008000000000000000000000000000",
      "type": "0x2",
      "transactionHash": "0x1be72cec99c858f86acf28e9636be15e76d509e7fe70b3f4dc070c280b4bda44",
      "transactionIndex": "0xac",
      "blockHash": "0x76b2a1b6c626e1d4d6c448e27536b1a37dcf70cfbeb55f5d9982f54217ecd62a",
      "blockNumber": "0x7730e5",
      "gasUsed": "0x43dc9",
      "effectiveGasPrice": "0xbc98e454",
      "from": "0x00000c771f6176268d5a9846e0956c3ef58597a1",
      "to": "0x772b411db77bde1e1ac48c05ebfd713f7764b4a7",
      "contractAddress": null
    }
  ],
  "libraries": [],
  "pending": [],
  "returns": {},
  "timestamp": 1740844501,
  "chain": 11155111,
  "commit": "dbae231"
}