{
  "transactions": [
    {
      "hash": "0xcea67d9bfe4b211f831fcc9db15c4ad54e2574ab560992985eff13a0c0e3a36e",
      "transactionType": "CREATE",
      "contractName": "TestToken",
      "contractAddress": "0x7328a04faecfd60cf73a59feffea6689b36a5cea",
      "function": null,
      "arguments": [
        "0x00000C771F6176268D5A9846E0956C3eF58597A1"
      ],
      "transaction": {
        "from": "0x00000c771f6176268d5a9846e0956c3ef58597a1",
        "gas": "0xbc67d",
        "value": "0x0",
        "input": "0x60803460ce57601f6109cc38819003918201601f19168301916001600160401b0383118484101760d25780849260209460405283398101031260ce57516001600160a01b038116810360ce576805345cdf77eb68f44c545f19810190811060c1576805345cdf77eb68f44c556387a211a2600c525f526020600c205f1981540190555f19602052600c5160601c5f7fddf252ad1be2c89b69c2b068fc378daa952ba7f163c4a11628f55a4df523b3ef602080a36040516108e590816100e78239f35b63e5cfe9575f526004601cfd5b5f80fd5b634e487b7160e01b5f52604160045260245ffdfe60806040526004361015610011575f80fd5b5f3560e01c806306fdde03146107cc578063095ea7b31461074357806318160ddd1461070057806323b872dd146105fb578063313ce567146105c25780633644e515146104f857806370a08231146104a85780637ecebe001461045857806395d89b41146103a1578063a9059cbb146102f4578063d505accf146100fd5763dd62ed3e1461009d575f80fd5b346100f95760407ffffffffffffffffffffffffffffffffffffffffffffffffffffffffffffffffc3601126100f9576100d461087b565b6100dc61089e565b602052637f5e9f20600c525f5260206034600c2054604051908152f35b5f80fd5b346100f95760e07ffffffffffffffffffffffffffffffffffffffffffffffffffffffffffffffffc3601126100f95761013461087b565b61013c61089e565b6084359160643560443560ff851685036100f9576101586108c1565b60208101907f54657374546f6b656e00000000000000000000000000000000000000000000008252519020908242116102e75773ffffffffffffffffffffffffffffffffffffffff80604051951695169565383775081901600e52855f5260c06020600c20958654957f8b73c3c69bb8fe3d512ecc4cf759cc79239f7b179b0ffacaa9a75d522b39400f8252602082019586528660408301967fc89efdaa54c0f20c7adf612882df0950f5a951637e0307cdcb4c672f298b8bc688528b6060850198468a528c608087019330855260a08820602e527f6e71edae12b1b97f4d1f60370fef10105fa2faae0126114a169c64845d6126c9885252528688525260a082015220604e526042602c205f5260ff1660205260a43560405260c43560605260208060805f60015afa93853d51036102da577f8c5be1e5ebec7d5bd14f71427d1e84f3dd0314c0f7b2291e5b200ac8c7c3b9259460209401905585777f5e9f200000000000000000000000000000000000000000176040526034602c2055a3005b63ddafbaef5f526004601cfd5b631a15a3cc5f526004601cfd5b346100f95760407ffffffffffffffffffffffffffffffffffffffffffffffffffffffffffffffffc3601126100f95761032b61087b565b602435906387a211a2600c52335f526020600c2080548084116103945783900390555f526020600c20818154019055602052600c5160601c337fddf252ad1be2c89b69c2b068fc378daa952ba7f163c4a11628f55a4df523b3ef602080a3602060405160018152f35b63f4d678b85f526004601cfd5b346100f9575f7ffffffffffffffffffffffffffffffffffffffffffffffffffffffffffffffffc3601126100f957604051604081019080821067ffffffffffffffff83111761042b5761042791604052600281527f5454000000000000000000000000000000000000000000000000000000000000602082015260405191829182610833565b0390f35b7f4e487b71000000000000000000000000000000000000000000000000000000005f52604160045260245ffd5b346100f95760207ffffffffffffffffffffffffffffffffffffffffffffffffffffffffffffffffc3601126100f95761048f61087b565b6338377508600c525f52602080600c2054604051908152f35b346100f95760207ffffffffffffffffffffffffffffffffffffffffffffffffffffffffffffffffc3601126100f9576104df61087b565b6387a211a2600c525f52602080600c2054604051908152f35b346100f9575f7ffffffffffffffffffffffffffffffffffffffffffffffffffffffffffffffffc3601126100f957602060a06105326108c1565b828101907f54657374546f6b656e00000000000000000000000000000000000000000000008252519020604051907f8b73c3c69bb8fe3d512ecc4cf759cc79239f7b179b0ffacaa9a75d522b39400f8252838201527fc89efdaa54c0f20c7adf612882df0950f5a951637e0307cdcb4c672f298b8bc6604082015246606082015230608082015220604051908152f35b346100f9575f7ffffffffffffffffffffffffffffffffffffffffffffffffffffffffffffffffc3601126100f957602060405160128152f35b346100f95760607ffffffffffffffffffffffffffffffffffffffffffffffffffffffffffffffffc3601126100f95761063261087b565b61063a61089e565b604435908260601b33602052637f5e9f208117600c526034600c209081549182196106dc575b506387a211a2915017600c526020600c2080548084116103945783900390555f526020600c2081815401905560205273ffffffffffffffffffffffffffffffffffffffff600c5160601c91167fddf252ad1be2c89b69c2b068fc378daa952ba7f163c4a11628f55a4df523b3ef602080a3602060405160018152f35b8285116106f357846387a211a29303905585610660565b6313be252b5f526004601cfd5b346100f9575f7ffffffffffffffffffffffffffffffffffffffffffffffffffffffffffffffffc3601126100f95760206805345cdf77eb68f44c54604051908152f35b346100f95760407ffffffffffffffffffffffffffffffffffffffffffffffffffffffffffffffffc3601126100f95761077a61087b565b60243590602052637f5e9f20600c52335f52806034600c20555f52602c5160601c337f8c5be1e5ebec7d5bd14f71427d1e84f3dd0314c0f7b2291e5b200ac8c7c3b92560205fa3602060405160018152f35b346100f9575f7ffffffffffffffffffffffffffffffffffffffffffffffffffffffffffffffffc3601126100f9576104276108056108c1565b7f54657374546f6b656e00000000000000000000000000000000000000000000006020820152604051918291825b7fffffffffffffffffffffffffffffffffffffffffffffffffffffffffffffffe0601f602060409481855280519182918282880152018686015e5f8582860101520116010190565b6004359073ffffffffffffffffffffffffffffffffffffffff821682036100f957565b6024359073ffffffffffffffffffffffffffffffffffffffff821682036100f957565b604051906040820182811067ffffffffffffffff82111761042b57604052600982525600000000000000000000000000000c771f6176268d5a9846e0956c3ef58597a1",
        "nonce": "0x29e",
        "chainId": "0xaa36a7"
      },
      "additionalContracts": [],
      "isFixedGasLimit": false
    },
    {
      "hash": "0x78597d430926114af27db6fca8432c0bf006d8984bfcf3d641075ce9358cfde9",
      "transactionType": "CALL",
      "contractName": "TestToken",
      "contractAddress": "0x7328a04faecfd60cf73a59feffea6689b36a5cea",
      "function": "approve(address,uint256)",
      "arguments": [
        "0x356D0AE17b4AD1531f7Cb610Bb37580d56465A88",
        "115792089237316195423570985008687907853269984665640564039457584007913129639935"
      ],
      "transaction": {
        "from": "0x00000c771f6176268d5a9846e0956c3ef58597a1",
        "to": "0x7328a04faecfd60cf73a59feffea6689b36a5cea",
        "gas": "0xf8eb",
        "value": "0x0",
        "input": "0x095ea7b3000000000000000000000000356d0ae17b4ad1531f7cb610bb37580d56465a88ffffffffffffffffffffffffffffffffffffffffffffffffffffffffffffffff",
        "nonce": "0x29f",
        "chainId": "0xaa36a7"
      },
      "additionalContracts": [],
      "isFixedGasLimit": false
    },
    {
      "hash": "0x07f1d9a0d8ed297dae206e66ea58927ec6826b19ce8fd94b248ef4db43467504",
      "transactionType": "CALL",
      "contractName": "TestToken",
      "contractAddress": "0x7328a04faecfd60cf73a59feffea6689b36a5cea",
      "function": "approve(address,uint256)",
      "arguments": [
        "0xEf427EeA8d8c10B3d1D4Be0fafea58da7cBd5f47",
        "115792089237316195423570985008687907853269984665640564039457584007913129639935"
      ],
      "transaction": {
        "from": "0x00000c771f6176268d5a9846e0956c3ef58597a1",
        "to": "0x7328a04faecfd60cf73a59feffea6689b36a5cea",
        "gas": "0xf8eb",
        "value": "0x0",
        "input": "0x095ea7b3000000000000000000000000ef427eea8d8c10b3d1d4be0fafea58da7cbd5f47ffffffffffffffffffffffffffffffffffffffffffffffffffffffffffffffff",
        "nonce": "0x2a0",
        "chainId": "0xaa36a7"
      },
      "additionalContracts": [],
      "isFixedGasLimit": false
    },
    {
      "hash": "0xd9bcea3636e0beaf41d6c4c82e23cd2911d5ecf6e4d3248b1ca72e910a6d52bf",
      "transactionType": "CALL",
      "contractName": null,
      "contractAddress": "0xef427eea8d8c10b3d1d4be0fafea58da7cbd5f47",
      "function": "multicall(bytes[])",
      "arguments": [
        "[0xf3e3246800000000000000000000000000000000000000000000000000000000000000000000000000000000000000007328a04faecfd60cf73a59feffea6689b36a5cea000000000000000000000000000000000000000000c49ba5e353f7ce0000175e000000000000000000000000000000000000000000000000000000000081f64d, 0x9df3913d2102a3095cca41a353253e251e8f2f759b9115eefee5eae2fcf4d4400cadf05e00000000000000000000000000000000000000000000000000000000000000000000000000000000000000007328a04faecfd60cf73a59feffea6689b36a5cea000000000000000000000000000000000000000000c49ba5e353f7ce0000175efffffffffffffffffffffffffffffffffffffffffffffffffffffffffab6413e000000000000000000000000000000000000000000000000000000000549bec2000000000000000000000000000000000000000000000000002386f26fc10000000000000000000000000000000000000000000000000002b5e3af16b18800000000000000000000000000000000000000000000000000000000000000000000, 0x41865270]"
      ],
      "transaction": {
        "from": "0x00000c771f6176268d5a9846e0956c3ef58597a1",
        "to": "0xef427eea8d8c10b3d1d4be0fafea58da7cbd5f47",
        "gas": "0x6f8b6",
        "value": "0x2386f26fc10000",
        "input": "0xac9650d8000000000000000000000000000000000000000000000000000000000000002000000000000000000000000000000000000000000000000000000000000000030000000000000000000000000000000000000000000000000000000000000060000000000000000000000000000000000000000000000000000000000000012000000000000000000000000000000000000000000000000000000000000002800000000000000000000000000000000000000000000000000000000000000084f3e3246800000000000000000000000000000000000000000000000000000000000000000000000000000000000000007328a04faecfd60cf73a59feffea6689b36a5cea000000000000000000000000000000000000000000c49ba5e353f7ce0000175e000000000000000000000000000000000000000000000000000000000081f64d0000000000000000000000000000000000000000000000000000000000000000000000000000000000000000000000000000000000000000000001249df3913d2102a3095cca41a353253e251e8f2f759b9115eefee5eae2fcf4d4400cadf05e00000000000000000000000000000000000000000000000000000000000000000000000000000000000000007328a04faecfd60cf73a59feffea6689b36a5cea000000000000000000000000000000000000000000c49ba5e353f7ce0000175efffffffffffffffffffffffffffffffffffffffffffffffffffffffffab6413e000000000000000000000000000000000000000000000000000000000549bec2000000000000000000000000000000000000000000000000002386f26fc10000000000000000000000000000000000000000000000000002b5e3af16b188000000000000000000000000000000000000000000000000000000000000000000000000000000000000000000000000000000000000000000000000000000000000000000000000000000000000000000000000000000000000000000044186527000000000000000000000000000000000000000000000000000000000",
        "nonce": "0x2a1",
        "chainId": "0xaa36a7"
      },
      "additionalContracts": [],
      "isFixedGasLimit": false
    },
    {
      "hash": "0x102cd77b7bb2c18e6ac5b09f5045d4dab1d55ce4ace9ba68bc2720623d1847ca",
      "transactionType": "CALL",
      "contractName": null,
      "contractAddress": "0x356d0ae17b4ad1531f7cb610bb37580d56465a88",
      "function": "swap((address,address,bytes32),bool,int128,uint96,uint256)",
      "arguments": [
        "(0x0000000000000000000000000000000000000000, 0x7328A04faeCfD60Cf73a59feffEa6689B36A5ceA, 0x000000000000000000000000000000000000000000c49ba5e353f7ce0000175e)",
        "false",
        "100000",
        "0",
        "0"
      ],
      "transaction": {
        "from": "0x00000c771f6176268d5a9846e0956c3ef58597a1",
        "to": "0x356d0ae17b4ad1531f7cb610bb37580d56465a88",
        "gas": "0x21258",
        "value": "0x186a0",
        "input": "0x06b81a1500000000000000000000000000000000000000000000000000000000000000000000000000000000000000007328a04faecfd60cf73a59feffea6689b36a5cea000000000000000000000000000000000000000000c49ba5e353f7ce0000175e000000000000000000000000000000000000000000000000000000000000000000000000000000000000000000000000000000000000000000000000000186a000000000000000000000000000000000000000000000000000000000000000000000000000000000000000000000000000000000000000000000000000000000",
        "nonce": "0x2a2",
        "chainId": "0xaa36a7"
      },
      "additionalContracts": [],
      "isFixedGasLimit": false
    },
    {
      "hash": "0x3b91633a0bd24e6cd901c1b28873e7ce7f40a68dd11bc1d0a12af484cde4cebf",
      "transactionType": "CALL",
      "contractName": null,
      "contractAddress": "0x356d0ae17b4ad1531f7cb610bb37580d56465a88",
      "function": "swap((address,address,bytes32),bool,int128,uint96,uint256)",
      "arguments": [
        "(0x0000000000000000000000000000000000000000, 0x7328A04faeCfD60Cf73a59feffEa6689B36A5ceA, 0x000000000000000000000000000000000000000000c49ba5e353f7ce0000175e)",
        "true",
        "500000000",
        "0",
        "0"
      ],
      "transaction": {
        "from": "0x00000c771f6176268d5a9846e0956c3ef58597a1",
        "to": "0x356d0ae17b4ad1531f7cb610bb37580d56465a88",
        "gas": "0x256a2",
        "value": "0x0",
        "input": "0x06b81a1500000000000000000000000000000000000000000000000000000000000000000000000000000000000000007328a04faecfd60cf73a59feffea6689b36a5cea000000000000000000000000000000000000000000c49ba5e353f7ce0000175e0000000000000000000000000000000000000000000000000000000000000001000000000000000000000000000000000000000000000000000000001dcd650000000000000000000000000000000000000000000000000000000000000000000000000000000000000000000000000000000000000000000000000000000000",
        "nonce": "0x2a3",
        "chainId": "0xaa36a7"
      },
      "additionalContracts": [],
      "isFixedGasLimit": false
    },
    {
      "hash": "0xff7372891257785fd16410caba30ceb68260d1ae3fe7cd684554bd3526924ce5",
      "transactionType": "CALL",
      "contractName": null,
      "contractAddress": "0x356d0ae17b4ad1531f7cb610bb37580d56465a88",
      "function": "swap((address,address,bytes32),bool,int128,uint96,uint256)",
      "arguments": [
        "(0x0000000000000000000000000000000000000000, 0x7328A04faeCfD60Cf73a59feffEa6689B36A5ceA, 0x000000000000000000000000000000000000000000c49ba5e353f7ce0000175e)",
        "false",
        "100000",
        "0",
        "0"
      ],
      "transaction": {
        "from": "0x00000c771f6176268d5a9846e0956c3ef58597a1",
        "to": "0x356d0ae17b4ad1531f7cb610bb37580d56465a88",
        "gas": "0x1cfd9",
        "value": "0x186a0",
        "input": "0x06b81a1500000000000000000000000000000000000000000000000000000000000000000000000000000000000000007328a04faecfd60cf73a59feffea6689b36a5cea000000000000000000000000000000000000000000c49ba5e353f7ce0000175e000000000000000000000000000000000000000000000000000000000000000000000000000000000000000000000000000000000000000000000000000186a000000000000000000000000000000000000000000000000000000000000000000000000000000000000000000000000000000000000000000000000000000000",
        "nonce": "0x2a4",
        "chainId": "0xaa36a7"
      },
      "additionalContracts": [],
      "isFixedGasLimit": false
    },
    {
      "hash": "0x22903366bfcfe8f7bf770dddf5f0cafdb5884bf72cecd293fd6562da9d58a63c",
      "transactionType": "CALL",
      "contractName": null,
      "contractAddress": "0x356d0ae17b4ad1531f7cb610bb37580d56465a88",
      "function": "swap((address,address,bytes32),bool,int128,uint96,uint256)",
      "arguments": [
        "(0x0000000000000000000000000000000000000000, 0x7328A04faeCfD60Cf73a59feffEa6689B36A5ceA, 0x000000000000000000000000000000000000000000c49ba5e353f7ce0000175e)",
        "true",
        "500000000",
        "0",
        "0"
      ],
      "transaction": {
        "from": "0x00000c771f6176268d5a9846e0956c3ef58597a1",
        "to": "0x356d0ae17b4ad1531f7cb610bb37580d56465a88",
        "gas": "0x1d91d",
        "value": "0x0",
        "input": "0x06b81a1500000000000000000000000000000000000000000000000000000000000000000000000000000000000000007328a04faecfd60cf73a59feffea6689b36a5cea000000000000000000000000000000000000000000c49ba5e353f7ce0000175e0000000000000000000000000000000000000000000000000000000000000001000000000000000000000000000000000000000000000000000000001dcd650000000000000000000000000000000000000000000000000000000000000000000000000000000000000000000000000000000000000000000000000000000000",
        "nonce": "0x2a5",
        "chainId": "0xaa36a7"
      },
      "additionalContracts": [],
      "isFixedGasLimit": false
    },
    {
      "hash": "0x4827dbc2790cec7caf8ffc5173a7b4fb752c1a81632c33a90fcef362141fead8",
      "transactionType": "CALL",
      "contractName": null,
      "contractAddress": "0xef427eea8d8c10b3d1d4be0fafea58da7cbd5f47",
      "function": "multicall(bytes[])",
      "arguments": [
        "[0xf3e3246800000000000000000000000000000000000000000000000000000000000000000000000000000000000000007328a04faecfd60cf73a59feffea6689b36a5cea000000000000000000000000000000000000000000c49ba5e353f7ce00000000000000000000000000000000000000000000000000000000000000000081f64d, 0x9df3913d2102a3095cca41a353253e251e8f2f759b9115eefee5eae2fcf4d4400cadf05f00000000000000000000000000000000000000000000000000000000000000000000000000000000000000007328a04faecfd60cf73a59feffea6689b36a5cea000000000000000000000000000000000000000000c49ba5e353f7ce00000000fffffffffffffffffffffffffffffffffffffffffffffffffffffffffab6326d000000000000000000000000000000000000000000000000000000000549cd93000000000000000000000000000000000000000000000000002386f26fc10000000000000000000000000000000000000000000000000002b5e3af16b18800000000000000000000000000000000000000000000000000000000000000000000, 0x41865270]"
      ],
      "transaction": {
        "from": "0x00000c771f6176268d5a9846e0956c3ef58597a1",
        "to": "0xef427eea8d8c10b3d1d4be0fafea58da7cbd5f47",
        "gas": "0x3bfbd",
        "value": "0x2386f26fc10000",
        "input": "0xac9650d8000000000000000000000000000000000000000000000000000000000000002000000000000000000000000000000000000000000000000000000000000000030000000000000000000000000000000000000000000000000000000000000060000000000000000000000000000000000000000000000000000000000000012000000000000000000000000000000000000000000000000000000000000002800000000000000000000000000000000000000000000000000000000000000084f3e3246800000000000000000000000000000000000000000000000000000000000000000000000000000000000000007328a04faecfd60cf73a59feffea6689b36a5cea000000000000000000000000000000000000000000c49ba5e353f7ce00000000000000000000000000000000000000000000000000000000000000000081f64d0000000000000000000000000000000000000000000000000000000000000000000000000000000000000000000000000000000000000000000001249df3913d2102a3095cca41a353253e251e8f2f759b9115eefee5eae2fcf4d4400cadf05f00000000000000000000000000000000000000000000000000000000000000000000000000000000000000007328a04faecfd60cf73a59feffea6689b36a5cea000000000000000000000000000000000000000000c49ba5e353f7ce00000000fffffffffffffffffffffffffffffffffffffffffffffffffffffffffab6326d000000000000000000000000000000000000000000000000000000000549cd93000000000000000000000000000000000000000000000000002386f26fc10000000000000000000000000000000000000000000000000002b5e3af16b188000000000000000000000000000000000000000000000000000000000000000000000000000000000000000000000000000000000000000000000000000000000000000000000000000000000000000000000000000000000000000000044186527000000000000000000000000000000000000000000000000000000000",
        "nonce": "0x2a6",
        "chainId": "0xaa36a7"
      },
      "additionalContracts": [],
      "isFixedGasLimit": false
    },
    {
      "hash": "0xedd76b012fe228372427da0efe61a3d71b14772b51b1197b461329d56e94c282",
      "transactionType": "CALL",
      "contractName": null,
      "contractAddress": "0x356d0ae17b4ad1531f7cb610bb37580d56465a88",
      "function": "swap((address,address,bytes32),bool,int128,uint96,uint256)",
      "arguments": [
        "(0x0000000000000000000000000000000000000000, 0x7328A04faeCfD60Cf73a59feffEa6689B36A5ceA, 0x000000000000000000000000000000000000000000c49ba5e353f7ce00000000)",
        "false",
        "100000",
        "0",
        "0"
      ],
      "transaction": {
        "from": "0x00000c771f6176268d5a9846e0956c3ef58597a1",
        "to": "0x356d0ae17b4ad1531f7cb610bb37580d56465a88",
        "gas": "0x21baa",
        "value": "0x186a0",
        "input": "0x06b81a1500000000000000000000000000000000000000000000000000000000000000000000000000000000000000007328a04faecfd60cf73a59feffea6689b36a5cea000000000000000000000000000000000000000000c49ba5e353f7ce00000000000000000000000000000000000000000000000000000000000000000000000000000000000000000000000000000000000000000000000000000000000186a000000000000000000000000000000000000000000000000000000000000000000000000000000000000000000000000000000000000000000000000000000000",
        "nonce": "0x2a7",
        "chainId": "0xaa36a7"
      },
      "additionalContracts": [],
      "isFixedGasLimit": false
    },
    {
      "hash": "0x2b40335751131620c0885dbd625171b0d758f326a8466f37edacc2da32497e42",
      "transactionType": "CALL",
      "contractName": null,
      "contractAddress": "0x356d0ae17b4ad1531f7cb610bb37580d56465a88",
      "function": "swap((address,address,bytes32),bool,int128,uint96,uint256)",
      "arguments": [
        "(0x0000000000000000000000000000000000000000, 0x7328A04faeCfD60Cf73a59feffEa6689B36A5ceA, 0x000000000000000000000000000000000000000000c49ba5e353f7ce00000000)",
        "true",
        "500000000",
        "0",
        "0"
      ],
      "transaction": {
        "from": "0x00000c771f6176268d5a9846e0956c3ef58597a1",
        "to": "0x356d0ae17b4ad1531f7cb610bb37580d56465a88",
        "gas": "0x240e0",
        "value": "0x0",
        "input": "0x06b81a1500000000000000000000000000000000000000000000000000000000000000000000000000000000000000007328a04faecfd60cf73a59feffea6689b36a5cea000000000000000000000000000000000000000000c49ba5e353f7ce000000000000000000000000000000000000000000000000000000000000000000000001000000000000000000000000000000000000000000000000000000001dcd650000000000000000000000000000000000000000000000000000000000000000000000000000000000000000000000000000000000000000000000000000000000",
        "nonce": "0x2a8",
        "chainId": "0xaa36a7"
      },
      "additionalContracts": [],
      "isFixedGasLimit": false
    },
    {
      "hash": "0xa8fd99918c8b728d3c5e2a1921bb296981a53ffc09865f615ba5e5c774a96899",
      "transactionType": "CALL",
      "contractName": null,
      "contractAddress": "0x356d0ae17b4ad1531f7cb610bb37580d56465a88",
      "function": "swap((address,address,bytes32),bool,int128,uint96,uint256)",
      "arguments": [
        "(0x0000000000000000000000000000000000000000, 0x7328A04faeCfD60Cf73a59feffEa6689B36A5ceA, 0x000000000000000000000000000000000000000000c49ba5e353f7ce00000000)",
        "false",
        "100000",
        "0",
        "0"
      ],
      "transaction": {
        "from": "0x00000c771f6176268d5a9846e0956c3ef58597a1",
        "to": "0x356d0ae17b4ad1531f7cb610bb37580d56465a88",
        "gas": "0x1a16c",
        "value": "0x186a0",
        "input": "0x06b81a1500000000000000000000000000000000000000000000000000000000000000000000000000000000000000007328a04faecfd60cf73a59feffea6689b36a5cea000000000000000000000000000000000000000000c49ba5e353f7ce00000000000000000000000000000000000000000000000000000000000000000000000000000000000000000000000000000000000000000000000000000000000186a000000000000000000000000000000000000000000000000000000000000000000000000000000000000000000000000000000000000000000000000000000000",
        "nonce": "0x2a9",
        "chainId": "0xaa36a7"
      },
      "additionalContracts": [],
      "isFixedGasLimit": false
    },
    {
      "hash": "0xeb3e22391f6d57aa7b7c15cab3acaec2f3aa57998728a9eab5163536b4a3034b",
      "transactionType": "CALL",
      "contractName": null,
      "contractAddress": "0x356d0ae17b4ad1531f7cb610bb37580d56465a88",
      "function": "swap((address,address,bytes32),bool,int128,uint96,uint256)",
      "arguments": [
        "(0x0000000000000000000000000000000000000000, 0x7328A04faeCfD60Cf73a59feffEa6689B36A5ceA, 0x000000000000000000000000000000000000000000c49ba5e353f7ce00000000)",
        "true",
        "500000000",
        "0",
        "0"
      ],
      "transaction": {
        "from": "0x00000c771f6176268d5a9846e0956c3ef58597a1",
        "to": "0x356d0ae17b4ad1531f7cb610bb37580d56465a88",
        "gas": "0x1c490",
        "value": "0x0",
        "input": "0x06b81a1500000000000000000000000000000000000000000000000000000000000000000000000000000000000000007328a04faecfd60cf73a59feffea6689b36a5cea000000000000000000000000000000000000000000c49ba5e353f7ce000000000000000000000000000000000000000000000000000000000000000000000001000000000000000000000000000000000000000000000000000000001dcd650000000000000000000000000000000000000000000000000000000000000000000000000000000000000000000000000000000000000000000000000000000000",
        "nonce": "0x2aa",
        "chainId": "0xaa36a7"
      },
      "additionalContracts": [],
      "isFixedGasLimit": false
    },
    {
      "hash": "0xa1dab98d71a77d0f7e9c782f761a46b63bc1b9439bb95105ec5a8dc896cedb64",
      "transactionType": "CALL",
      "contractName": null,
      "contractAddress": "0xef427eea8d8c10b3d1d4be0fafea58da7cbd5f47",
      "function": "multicall(bytes[])",
      "arguments": [
        "[0xf3e3246800000000000000000000000000000000000000000000000000000000000000000000000000000000000000007328a04faecfd60cf73a59feffea6689b36a5cea51700530d64710d8edde17a3014fe7342b50e61f00000000000000000000000000000000000000000000000000000000000000000000000000000000004644f4, 0x9df3913d2102a3095cca41a353253e251e8f2f759b9115eefee5eae2fcf4d4400cadf06000000000000000000000000000000000000000000000000000000000000000000000000000000000000000007328a04faecfd60cf73a59feffea6689b36a5cea51700530d64710d8edde17a3014fe7342b50e61f000000000000000000000000fffffffffffffffffffffffffffffffffffffffffffffffffffffffffab6326d000000000000000000000000000000000000000000000000000000000549cd930000000000000000000000000000000000000000000000000de0b6b3a76400000000000000000000000000000000000000000000000000056bc75e2d631000000000000000000000000000000000000000000000000000000000000000000000, 0x41865270]"
      ],
      "transaction": {
        "from": "0x00000c771f6176268d5a9846e0956c3ef58597a1",
        "to": "0xef427eea8d8c10b3d1d4be0fafea58da7cbd5f47",
        "gas": "0x4e8f6",
        "value": "0xde0b6b3a7640000",
        "input": "0xac9650d8000000000000000000000000000000000000000000000000000000000000002000000000000000000000000000000000000000000000000000000000000000030000000000000000000000000000000000000000000000000000000000000060000000000000000000000000000000000000000000000000000000000000012000000000000000000000000000000000000000000000000000000000000002800000000000000000000000000000000000000000000000000000000000000084f3e3246800000000000000000000000000000000000000000000000000000000000000000000000000000000000000007328a04faecfd60cf73a59feffea6689b36a5cea51700530d64710d8edde17a3014fe7342b50e61f00000000000000000000000000000000000000000000000000000000000000000000000000000000004644f40000000000000000000000000000000000000000000000000000000000000000000000000000000000000000000000000000000000000000000001249df3913d2102a3095cca41a353253e251e8f2f759b9115eefee5eae2fcf4d4400cadf06000000000000000000000000000000000000000000000000000000000000000000000000000000000000000007328a04faecfd60cf73a59feffea6689b36a5cea51700530d64710d8edde17a3014fe7342b50e61f000000000000000000000000fffffffffffffffffffffffffffffffffffffffffffffffffffffffffab6326d000000000000000000000000000000000000000000000000000000000549cd930000000000000000000000000000000000000000000000000de0b6b3a76400000000000000000000000000000000000000000000000000056bc75e2d6310000000000000000000000000000000000000000000000000000000000000000000000000000000000000000000000000000000000000000000000000000000000000000000000000000000000000000000000000000000000000000000044186527000000000000000000000000000000000000000000000000000000000",
        "nonce": "0x2ab",
        "chainId": "0xaa36a7"
      },
      "additionalContracts": [],
      "isFixedGasLimit": false
    },
    {
      "hash": "0xd11736d8b2cb49a016c94dce2427d38f120a2be057ae182a700671ca2940f67f",
      "transactionType": "CALL",
      "contractName": null,
      "contractAddress": "0x356d0ae17b4ad1531f7cb610bb37580d56465a88",
      "function": "swap((address,address,bytes32),bool,int128,uint96,uint256)",
      "arguments": [
        "(0x0000000000000000000000000000000000000000, 0x7328A04faeCfD60Cf73a59feffEa6689B36A5ceA, 0x51700530d64710d8edde17a3014fe7342b50e61f000000000000000000000000)",
        "false",
        "100000",
        "0",
        "0"
      ],
      "transaction": {
        "from": "0x00000c771f6176268d5a9846e0956c3ef58597a1",
        "to": "0x356d0ae17b4ad1531f7cb610bb37580d56465a88",
        "gas": "0x1c3ba",
        "value": "0x186a0",
        "input": "0x06b81a1500000000000000000000000000000000000000000000000000000000000000000000000000000000000000007328a04faecfd60cf73a59feffea6689b36a5cea51700530d64710d8edde17a3014fe7342b50e61f000000000000000000000000000000000000000000000000000000000000000000000000000000000000000000000000000000000000000000000000000000000000000000000000000186a000000000000000000000000000000000000000000000000000000000000000000000000000000000000000000000000000000000000000000000000000000000",
        "nonce": "0x2ac",
        "chainId": "0xaa36a7"
      },
      "additionalContracts": [],
      "isFixedGasLimit": false
    },
    {
      "hash": "0x3dcb1529db53c4a7fe947fa773bfed7a00bd431a853724fb26b6b9d5c63cb096",
      "transactionType": "CALL",
      "contractName": null,
      "contractAddress": "0x356d0ae17b4ad1531f7cb610bb37580d56465a88",
      "function": "swap((address,address,bytes32),bool,int128,uint96,uint256)",
      "arguments": [
        "(0x0000000000000000000000000000000000000000, 0x7328A04faeCfD60Cf73a59feffEa6689B36A5ceA, 0x51700530d64710d8edde17a3014fe7342b50e61f000000000000000000000000)",
        "true",
        "500000000",
        "0",
        "0"
      ],
      "transaction": {
        "from": "0x00000c771f6176268d5a9846e0956c3ef58597a1",
        "to": "0x356d0ae17b4ad1531f7cb610bb37580d56465a88",
        "gas": "0x1e6de",
        "value": "0x0",
        "input": "0x06b81a1500000000000000000000000000000000000000000000000000000000000000000000000000000000000000007328a04faecfd60cf73a59feffea6689b36a5cea51700530d64710d8edde17a3014fe7342b50e61f0000000000000000000000000000000000000000000000000000000000000000000000000000000000000001000000000000000000000000000000000000000000000000000000001dcd650000000000000000000000000000000000000000000000000000000000000000000000000000000000000000000000000000000000000000000000000000000000",
        "nonce": "0x2ad",
        "chainId": "0xaa36a7"
      },
      "additionalContracts": [],
      "isFixedGasLimit": false
    },
    {
      "hash": "0xcd1076a349520f48cf49e09930612e15471486de49399e9702d683b78b4b1c58",
      "transactionType": "CALL",
      "contractName": null,
      "contractAddress": "0x356d0ae17b4ad1531f7cb610bb37580d56465a88",
      "function": "swap((address,address,bytes32),bool,int128,uint96,uint256)",
      "arguments": [
        "(0x0000000000000000000000000000000000000000, 0x7328A04faeCfD60Cf73a59feffEa6689B36A5ceA, 0x51700530d64710d8edde17a3014fe7342b50e61f000000000000000000000000)",
        "false",
        "100000",
        "0",
        "0"
      ],
      "transaction": {
        "from": "0x00000c771f6176268d5a9846e0956c3ef58597a1",
        "to": "0x356d0ae17b4ad1531f7cb610bb37580d56465a88",
        "gas": "0x1c3c1",
        "value": "0x186a0",
        "input": "0x06b81a1500000000000000000000000000000000000000000000000000000000000000000000000000000000000000007328a04faecfd60cf73a59feffea6689b36a5cea51700530d64710d8edde17a3014fe7342b50e61f000000000000000000000000000000000000000000000000000000000000000000000000000000000000000000000000000000000000000000000000000000000000000000000000000186a000000000000000000000000000000000000000000000000000000000000000000000000000000000000000000000000000000000000000000000000000000000",
        "nonce": "0x2ae",
        "chainId": "0xaa36a7"
      },
      "additionalContracts": [],
      "isFixedGasLimit": false
    },
    {
      "hash": "0xc1178a3edbc449beedc093b5dae469f0e51d9d81dfd8506f8b8bf599e04ef219",
      "transactionType": "CALL",
      "contractName": null,
      "contractAddress": "0x356d0ae17b4ad1531f7cb610bb37580d56465a88",
      "function": "swap((address,address,bytes32),bool,int128,uint96,uint256)",
      "arguments": [
        "(0x0000000000000000000000000000000000000000, 0x7328A04faeCfD60Cf73a59feffEa6689B36A5ceA, 0x51700530d64710d8edde17a3014fe7342b50e61f000000000000000000000000)",
        "true",
        "500000000",
        "0",
        "0"
      ],
      "transaction": {
        "from": "0x00000c771f6176268d5a9846e0956c3ef58597a1",
        "to": "0x356d0ae17b4ad1531f7cb610bb37580d56465a88",
        "gas": "0x1e6de",
        "value": "0x0",
        "input": "0x06b81a1500000000000000000000000000000000000000000000000000000000000000000000000000000000000000007328a04faecfd60cf73a59feffea6689b36a5cea51700530d64710d8edde17a3014fe7342b50e61f0000000000000000000000000000000000000000000000000000000000000000000000000000000000000001000000000000000000000000000000000000000000000000000000001dcd650000000000000000000000000000000000000000000000000000000000000000000000000000000000000000000000000000000000000000000000000000000000",
        "nonce": "0x2af",
        "chainId": "0xaa36a7"
      },
      "additionalContracts": [],
      "isFixedGasLimit": false
    },
    {
      "hash": "0x6c01c39c52559d74ab94eb7a77d5636571844b9e4c759543eb63d5b13d8b26d6",
      "transactionType": "CALL",
      "contractName": null,
      "contractAddress": "0xef427eea8d8c10b3d1d4be0fafea58da7cbd5f47",
      "function": "multicall(bytes[])",
      "arguments": [
        "[0xf3e3246800000000000000000000000000000000000000000000000000000000000000000000000000000000000000007328a04faecfd60cf73a59feffea6689b36a5cea0000000000000000000000000000000000000000028f5c28f5c28f5c00004d5a000000000000000000000000000000000000000000000000000000000081f64d, 0x9df3913d2102a3095cca41a353253e251e8f2f759b9115eefee5eae2fcf4d4400cadf06100000000000000000000000000000000000000000000000000000000000000000000000000000000000000007328a04faecfd60cf73a59feffea6689b36a5cea0000000000000000000000000000000000000000028f5c28f5c28f5c00004d5afffffffffffffffffffffffffffffffffffffffffffffffffffffffffab65900000000000000000000000000000000000000000000000000000000000549a700000000000000000000000000000000000000000000000000006a94d74f43000000000000000000000000000000000000000000000000001043561a88293000000000000000000000000000000000000000000000000000000000000000000000, 0x41865270]"
      ],
      "transaction": {
        "from": "0x00000c771f6176268d5a9846e0956c3ef58597a1",
        "to": "0xef427eea8d8c10b3d1d4be0fafea58da7cbd5f47",
        "gas": "0x63268",
        "value": "0x6a94d74f430000",
        "input": "0xac9650d8000000000000000000000000000000000000000000000000000000000000002000000000000000000000000000000000000000000000000000000000000000030000000000000000000000000000000000000000000000000000000000000060000000000000000000000000000000000000000000000000000000000000012000000000000000000000000000000000000000000000000000000000000002800000000000000000000000000000000000000000000000000000000000000084f3e3246800000000000000000000000000000000000000000000000000000000000000000000000000000000000000007328a04faecfd60cf73a59feffea6689b36a5cea0000000000000000000000000000000000000000028f5c28f5c28f5c00004d5a000000000000000000000000000000000000000000000000000000000081f64d0000000000000000000000000000000000000000000000000000000000000000000000000000000000000000000000000000000000000000000001249df3913d2102a3095cca41a353253e251e8f2f759b9115eefee5eae2fcf4d4400cadf06100000000000000000000000000000000000000000000000000000000000000000000000000000000000000007328a04faecfd60cf73a59feffea6689b36a5cea0000000000000000000000000000000000000000028f5c28f5c28f5c00004d5afffffffffffffffffffffffffffffffffffffffffffffffffffffffffab65900000000000000000000000000000000000000000000000000000000000549a700000000000000000000000000000000000000000000000000006a94d74f43000000000000000000000000000000000000000000000000001043561a882930000000000000000000000000000000000000000000000000000000000000000000000000000000000000000000000000000000000000000000000000000000000000000000000000000000000000000000000000000000000000000000044186527000000000000000000000000000000000000000000000000000000000",
        "nonce": "0x2b0",
        "chainId": "0xaa36a7"
      },
      "additionalContracts": [],
      "isFixedGasLimit": false
    }
  ],
  "receipts": [
    {
      "status": "0x1",
      "cumulativeGasUsed": "0x115e997",
      "logs": [
        {
          "address": "0x7328a04faecfd60cf73a59feffea6689b36a5cea",
          "topics": [
            "0xddf252ad1be2c89b69c2b068fc378daa952ba7f163c4a11628f55a4df523b3ef",
            "0x0000000000000000000000000000000000000000000000000000000000000000",
            "0x00000000000000000000000000000c771f6176268d5a9846e0956c3ef58597a1"
          ],
          "data": "0xffffffffffffffffffffffffffffffffffffffffffffffffffffffffffffffff",
          "blockHash": "0x7958828dff24427a2a0491a7e6e4643ac66e043bc34a38bd5110715167318eae",
          "blockNumber": "0x757e54",
          "transactionHash": "0xcea67d9bfe4b211f831fcc9db15c4ad54e2574ab560992985eff13a0c0e3a36e",
          "transactionIndex": "0xba",
          "logIndex": "0x106",
          "removed": false
        }
      ],
      "logsBloom": "0x00000000000000000000000000000000000004000000000000000000000000200000000000000000000000000000000000000000000000000000000000000000000000000000000000000008008000000000000000000000000000000000000000000000020000080000000000000800000000000000000000000010000000000000000000000000000000000000000000000000000100000000000000000000000000000000000000000000000000000000000000000000000000000000000000000002000000008000000000000000000000000000000000000000000020000000000000000000000000000000000000000000000000000000000000000000",
      "type": "0x2",
      "transactionHash": "0xcea67d9bfe4b211f831fcc9db15c4ad54e2574ab560992985eff13a0c0e3a36e",
      "transactionIndex": "0xba",
      "blockHash": "0x7958828dff24427a2a0491a7e6e4643ac66e043bc34a38bd5110715167318eae",
      "blockNumber": "0x757e54",
      "gasUsed": "0x90ed7",
      "effectiveGasPrice": "0x4706184a",
      "from": "0x00000c771f6176268d5a9846e0956c3ef58597a1",
      "to": null,
      "contractAddress": "0x7328a04faecfd60cf73a59feffea6689b36a5cea"
    },
    {
      "status": "0x1",
      "cumulativeGasUsed": "0xe57ef8",
      "logs": [
        {
          "address": "0x7328a04faecfd60cf73a59feffea6689b36a5cea",
          "topics": [
            "0x8c5be1e5ebec7d5bd14f71427d1e84f3dd0314c0f7b2291e5b200ac8c7c3b925",
            "0x00000000000000000000000000000c771f6176268d5a9846e0956c3ef58597a1",
            "0x000000000000000000000000356d0ae17b4ad1531f7cb610bb37580d56465a88"
          ],
          "data": "0xffffffffffffffffffffffffffffffffffffffffffffffffffffffffffffffff",
          "blockHash": "0xdbf6862698dd741b29e51441a669426930d2d1d0a725477bdbb483fd56068d23",
          "blockNumber": "0x757e55",
          "transactionHash": "0x78597d430926114af27db6fca8432c0bf006d8984bfcf3d641075ce9358cfde9",
          "transactionIndex": "0x7b",
          "logIndex": "0xcd",
          "removed": false
        }
      ],
      "logsBloom": "0x00000000000000000000000000000000000004000000000000000000000000200000000000000000000000000000000000000000000000000000000000200000000000000000000000000000008000000000000000000000000000000000000000000000000000080000000000000000000000000000000000000000000000000002000000000000000000000000000000000000000100000000000000000000020000002000000000000000000000000000000000000000000000000000000000000000000400008000000000000000000000000000000000000000000000000010000000000000000000000000000000000000000000000000000000000000",
      "type": "0x2",
      "transactionHash": "0x78597d430926114af27db6fca8432c0bf006d8984bfcf3d641075ce9358cfde9",
      "transactionIndex": "0x7b",
      "blockHash": "0xdbf6862698dd741b29e51441a669426930d2d1d0a725477bdbb483fd56068d23",
      "blockNumber": "0x757e55",
      "gasUsed": "0xb437",
      "effectiveGasPrice": "0x4846545b",
      "from": "0x00000c771f6176268d5a9846e0956c3ef58597a1",
      "to": "0x7328a04faecfd60cf73a59feffea6689b36a5cea",
      "contractAddress": null
    },
    {
      "status": "0x1",
      "cumulativeGasUsed": "0x10e7a90",
      "logs": [
        {
          "address": "0x7328a04faecfd60cf73a59feffea6689b36a5cea",
          "topics": [
            "0x8c5be1e5ebec7d5bd14f71427d1e84f3dd0314c0f7b2291e5b200ac8c7c3b925",
            "0x00000000000000000000000000000c771f6176268d5a9846e0956c3ef58597a1",
            "0x000000000000000000000000ef427eea8d8c10b3d1d4be0fafea58da7cbd5f47"
          ],
          "data": "0xffffffffffffffffffffffffffffffffffffffffffffffffffffffffffffffff",
          "blockHash": "0x379c6938d5fbc331267208bd2dfe070c49da2f99f18726d91d3392aafad16539",
          "blockNumber": "0x757e56",
          "transactionHash": "0x07f1d9a0d8ed297dae206e66ea58927ec6826b19ce8fd94b248ef4db43467504",
          "transactionIndex": "0x8e",
          "logIndex": "0xe1",
          "removed": false
        }
      ],
      "logsBloom": "0x00000000000000000000000000000000000004000000000000000000000000200002000000000000000000000000000000000000000000000000000000200000000000000000000000000000008000000000000000000000000000000000000000000000000000080008000000000000000000000000000000000000000000000000000000000000000001000000000000000000000100000000000000000000020000000000000000000000000000000000000000000000000000000000000000000000000000008000000000000000000000000000000000000000000000000010000000000000000000000000000000000000000000000000000000000000",
      "type": "0x2",
      "transactionHash": "0x07f1d9a0d8ed297dae206e66ea58927ec6826b19ce8fd94b248ef4db43467504",
      "transactionIndex": "0x8e",
      "blockHash": "0x379c6938d5fbc331267208bd2dfe070c49da2f99f18726d91d3392aafad16539",
      "blockNumber": "0x757e56",
      "gasUsed": "0xb437",
      "effectiveGasPrice": "0x480a92da",
      "from": "0x00000c771f6176268d5a9846e0956c3ef58597a1",
      "to": "0x7328a04faecfd60cf73a59feffea6689b36a5cea",
      "contractAddress": null
    },
    {
      "status": "0x1",
      "cumulativeGasUsed": "0x15be1dc",
      "logs": [
        {
          "address": "0x532544c07674d176b69eda770d174dbc0b09ccdb",
          "topics": [
            "0x5e4688b340694b7c7fd30047fd082117dc46e32acfbf81a44bb1fac0ae65154d"
          ],
          "data": "0x6fe0c9ef07893ebeb5fa72230eb628031609c7c6d7b14628d821d87c98572b9100000000000000000000000000000000000000000000000000000000000000000000000000000000000000007328a04faecfd60cf73a59feffea6689b36a5cea000000000000000000000000000000000000000000c49ba5e353f7ce0000175e000000000000000000000000000000000000000000000000000000000081f64d000000000000000000000000000000000000000080000011ad7b7d57d2db6557",
          "blockHash": "0x6df72a3970ede5a2d01d79e2d6ed52e0eaa946d55d030ce3599be0023a8d82c8",
          "blockNumber": "0x757e57",
          "transactionHash": "0xd9bcea3636e0beaf41d6c4c82e23cd2911d5ecf6e4d3248b1ca72e910a6d52bf",
          "transactionIndex": "0x95",
          "logIndex": "0x12b",
          "removed": false
        },
        {
          "address": "0xef427eea8d8c10b3d1d4be0fafea58da7cbd5f47",
          "topics": [
            "0xddf252ad1be2c89b69c2b068fc378daa952ba7f163c4a11628f55a4df523b3ef",
            "0x0000000000000000000000000000000000000000000000000000000000000000",
            "0x00000000000000000000000000000c771f6176268d5a9846e0956c3ef58597a1",
            "0x0000000000000000000000000000000000000000000000000000548dab932106"
          ],
          "data": "0x",
          "blockHash": "0x6df72a3970ede5a2d01d79e2d6ed52e0eaa946d55d030ce3599be0023a8d82c8",
          "blockNumber": "0x757e57",
          "transactionHash": "0xd9bcea3636e0beaf41d6c4c82e23cd2911d5ecf6e4d3248b1ca72e910a6d52bf",
          "transactionIndex": "0x95",
          "logIndex": "0x12c",
          "removed": false
        },
        {
          "address": "0x532544c07674d176b69eda770d174dbc0b09ccdb",
          "topics": [
            "0xa2d4008be4187c63684f323788e131e1370dbc2205499befe2834005a00c792c"
          ],
          "data": "0x000000000000000000000000ef427eea8d8c10b3d1d4be0fafea58da7cbd5f476fe0c9ef07893ebeb5fa72230eb628031609c7c6d7b14628d821d87c98572b910000000000000000000000000000000000000000000000000000548dab932106fffffffffffffffffffffffffffffffffffffffffffffffffffffffffab6413e000000000000000000000000000000000000000000000000000000000549bec200000000000000000000000000000000000000000000000009d025b9f39a7b59000000000000000000000000000000000000000000000000002386f26fc10000000000000000000000000000000000000000000000000002b5e39a9fdddd9e1c",
          "blockHash": "0x6df72a3970ede5a2d01d79e2d6ed52e0eaa946d55d030ce3599be0023a8d82c8",
          "blockNumber": "0x757e57",
          "transactionHash": "0xd9bcea3636e0beaf41d6c4c82e23cd2911d5ecf6e4d3248b1ca72e910a6d52bf",
          "transactionIndex": "0x95",
          "logIndex": "0x12d",
          "removed": false
        },
        {
          "address": "0x7328a04faecfd60cf73a59feffea6689b36a5cea",
          "topics": [
            "0xddf252ad1be2c89b69c2b068fc378daa952ba7f163c4a11628f55a4df523b3ef",
            "0x00000000000000000000000000000c771f6176268d5a9846e0956c3ef58597a1",
            "0x000000000000000000000000532544c07674d176b69eda770d174dbc0b09ccdb"
          ],
          "data": "0x000000000000000000000000000000000000000000000002b5e39a9fdddd9e1c",
          "blockHash": "0x6df72a3970ede5a2d01d79e2d6ed52e0eaa946d55d030ce3599be0023a8d82c8",
          "blockNumber": "0x757e57",
          "transactionHash": "0xd9bcea3636e0beaf41d6c4c82e23cd2911d5ecf6e4d3248b1ca72e910a6d52bf",
          "transactionIndex": "0x95",
          "logIndex": "0x12e",
          "removed": false
        }
      ],
      "logsBloom": "0x00000000000100000000000020000000000004000100000000000000800002200000000000000000000020000000000000000000000000000000000000000004000000000000100000000008008000000000000000000000000040000000000020000000020000080000001000000800000000000000000000000010100000000000000000000000000000000008000000000000000100000008000000000000000000000000000000000000001000000000000000000000000000000400000000000002000000008000000000000000100000000000000000000000000020000000000000000000000000000000000000008000000000000000000000000000",
      "type": "0x2",
      "transactionHash": "0xd9bcea3636e0beaf41d6c4c82e23cd2911d5ecf6e4d3248b1ca72e910a6d52bf",
      "transactionIndex": "0x95",
      "blockHash": "0x6df72a3970ede5a2d01d79e2d6ed52e0eaa946d55d030ce3599be0023a8d82c8",
      "blockNumber": "0x757e57",
      "gasUsed": "0x4c451",
      "effectiveGasPrice": "0x487b3aed",
      "from": "0x00000c771f6176268d5a9846e0956c3ef58597a1",
      "to": "0xef427eea8d8c10b3d1d4be0fafea58da7cbd5f47",
      "contractAddress": null
    },
    {
      "status": "0x1",
      "cumulativeGasUsed": "0x851960",
      "logs": [
        {
          "address": "0x532544c07674d176b69eda770d174dbc0b09ccdb",
          "topics": [],
          "data": "0x356d0ae17b4ad1531f7cb610bb37580d56465a886fe0c9ef07893ebeb5fa72230eb628031609c7c6d7b14628d821d87c98572b91000000000000000000000000000186a0ffffffffffffffffffffffffe2497ffa000000000000000009d025b9f39a7b5980000011ad7b7d5711127bde0081f64c",
          "blockHash": "0x1c3a3ba4ebe807462e4645c101f149a9833626baa0f29b479409c9e4004b6478",
          "blockNumber": "0x757e58",
          "transactionHash": "0x102cd77b7bb2c18e6ac5b09f5045d4dab1d55ce4ace9ba68bc2720623d1847ca",
          "transactionIndex": "0x4c",
          "logIndex": "0x7e",
          "removed": false
        },
        {
          "address": "0x7328a04faecfd60cf73a59feffea6689b36a5cea",
          "topics": [
            "0xddf252ad1be2c89b69c2b068fc378daa952ba7f163c4a11628f55a4df523b3ef",
            "0x000000000000000000000000532544c07674d176b69eda770d174dbc0b09ccdb",
            "0x00000000000000000000000000000c771f6176268d5a9846e0956c3ef58597a1"
          ],
          "data": "0x000000000000000000000000000000000000000000000000000000001db68006",
          "blockHash": "0x1c3a3ba4ebe807462e4645c101f149a9833626baa0f29b479409c9e4004b6478",
          "blockNumber": "0x757e58",
          "transactionHash": "0x102cd77b7bb2c18e6ac5b09f5045d4dab1d55ce4ace9ba68bc2720623d1847ca",
          "transactionIndex": "0x4c",
          "logIndex": "0x7f",
          "removed": false
        }
      ],
      "logsBloom": "0x00000000000000000000000020000000000004000000000000000000800000200000000000000000000020000000000000000000000000000000000000000004000000000000000000000008008000000000000000000000000000000000000000000000000000080000000000000000000000000000000000000010000000000000000000000000000000000000000000000000000100000000000000000000000000000000000000000000001000000000000000000000000000000000000000000002000000008000000000000000100000000000000000000000000000000000000000000000000000000000000000000000000000000000000000000000",
      "type": "0x2",
      "transactionHash": "0x102cd77b7bb2c18e6ac5b09f5045d4dab1d55ce4ace9ba68bc2720623d1847ca",
      "transactionIndex": "0x4c",
      "blockHash": "0x1c3a3ba4ebe807462e4645c101f149a9833626baa0f29b479409c9e4004b6478",
      "blockNumber": "0x757e58",
      "gasUsed": "0x17ff6",
      "effectiveGasPrice": "0x4de26ec5",
      "from": "0x00000c771f6176268d5a9846e0956c3ef58597a1",
      "to": "0x356d0ae17b4ad1531f7cb610bb37580d56465a88",
      "contractAddress": null
    },
    {
      "status": "0x1",
      "cumulativeGasUsed": "0xe47c9a",
      "logs": [
        {
          "address": "0x532544c07674d176b69eda770d174dbc0b09ccdb",
          "topics": [],
          "data": "0x356d0ae17b4ad1531f7cb610bb37580d56465a886fe0c9ef07893ebeb5fa72230eb628031609c7c6d7b14628d821d87c98572b91fffffffffffffffffffffffffffe7a8c0000000000000000000000001dcd6500000000000000000009d025b9f39a7b5980000011ad7b7d57d2db6fc20081f64d",
          "blockHash": "0xea5f5e100e6965ef0989e28c47cd936399a6d6fbdc0688c7f10c0cc6bcdf996c",
          "blockNumber": "0x757e59",
          "transactionHash": "0x3b91633a0bd24e6cd901c1b28873e7ce7f40a68dd11bc1d0a12af484cde4cebf",
          "transactionIndex": "0x85",
          "logIndex": "0xea",
          "removed": false
        },
        {
          "address": "0x7328a04faecfd60cf73a59feffea6689b36a5cea",
          "topics": [
            "0xddf252ad1be2c89b69c2b068fc378daa952ba7f163c4a11628f55a4df523b3ef",
            "0x00000000000000000000000000000c771f6176268d5a9846e0956c3ef58597a1",
            "0x000000000000000000000000532544c07674d176b69eda770d174dbc0b09ccdb"
          ],
          "data": "0x000000000000000000000000000000000000000000000000000000001dcd6500",
          "blockHash": "0xea5f5e100e6965ef0989e28c47cd936399a6d6fbdc0688c7f10c0cc6bcdf996c",
          "blockNumber": "0x757e59",
          "transactionHash": "0x3b91633a0bd24e6cd901c1b28873e7ce7f40a68dd11bc1d0a12af484cde4cebf",
          "transactionIndex": "0x85",
          "logIndex": "0xeb",
          "removed": false
        }
      ],
      "logsBloom": "0x00000000000000000000000020000000000004000000000000000000800000200000000000000000000020000000000000000000000000000000000000000004000000000000000000000008008000000000000000000000000000000000000000000000000000080000000000000000000000000000000000000010000000000000000000000000000000000000000000000000000100000000000000000000000000000000000000000000001000000000000000000000000000000000000000000002000000008000000000000000100000000000000000000000000000000000000000000000000000000000000000000000000000000000000000000000",
      "type": "0x2",
      "transactionHash": "0x3b91633a0bd24e6cd901c1b28873e7ce7f40a68dd11bc1d0a12af484cde4cebf",
      "transactionIndex": "0x85",
      "blockHash": "0xea5f5e100e6965ef0989e28c47cd936399a6d6fbdc0688c7f10c0cc6bcdf996c",
      "blockNumber": "0x757e59",
      "gasUsed": "0x19953",
      "effectiveGasPrice": "0x4a6aff58",
      "from": "0x00000c771f6176268d5a9846e0956c3ef58597a1",
      "to": "0x356d0ae17b4ad1531f7cb610bb37580d56465a88",
      "contractAddress": null
    },
    {
      "status": "0x1",
      "cumulativeGasUsed": "0x133abf4",
      "logs": [
        {
          "address": "0x532544c07674d176b69eda770d174dbc0b09ccdb",
          "topics": [],
          "data": "0x356d0ae17b4ad1531f7cb610bb37580d56465a886fe0c9ef07893ebeb5fa72230eb628031609c7c6d7b14628d821d87c98572b91000000000000000000000000000186a0ffffffffffffffffffffffffe24991e8000000000000000009d025b9f39a7b5980000011ad7b7d571112fb3f0081f64c",
          "blockHash": "0xb4f279f3b273748a295651ef125ddbe2c517749c911024437bdb1ebb70ede071",
          "blockNumber": "0x757e5a",
          "transactionHash": "0xff7372891257785fd16410caba30ceb68260d1ae3fe7cd684554bd3526924ce5",
          "transactionIndex": "0x9b",
          "logIndex": "0xcb",
          "removed": false
        },
        {
          "address": "0x7328a04faecfd60cf73a59feffea6689b36a5cea",
          "topics": [
            "0xddf252ad1be2c89b69c2b068fc378daa952ba7f163c4a11628f55a4df523b3ef",
            "0x000000000000000000000000532544c07674d176b69eda770d174dbc0b09ccdb",
            "0x00000000000000000000000000000c771f6176268d5a9846e0956c3ef58597a1"
          ],
          "data": "0x000000000000000000000000000000000000000000000000000000001db66e18",
          "blockHash": "0xb4f279f3b273748a295651ef125ddbe2c517749c911024437bdb1ebb70ede071",
          "blockNumber": "0x757e5a",
          "transactionHash": "0xff7372891257785fd16410caba30ceb68260d1ae3fe7cd684554bd3526924ce5",
          "transactionIndex": "0x9b",
          "logIndex": "0xcc",
          "removed": false
        }
      ],
      "logsBloom": "0x00000000000000000000000020000000000004000000000000000000800000200000000000000000000020000000000000000000000000000000000000000004000000000000000000000008008000000000000000000000000000000000000000000000000000080000000000000000000000000000000000000010000000000000000000000000000000000000000000000000000100000000000000000000000000000000000000000000001000000000000000000000000000000000000000000002000000008000000000000000100000000000000000000000000000000000000000000000000000000000000000000000000000000000000000000000",
      "type": "0x2",
      "transactionHash": "0xff7372891257785fd16410caba30ceb68260d1ae3fe7cd684554bd3526924ce5",
      "transactionIndex": "0x9b",
      "blockHash": "0xb4f279f3b273748a295651ef125ddbe2c517749c911024437bdb1ebb70ede071",
      "blockNumber": "0x757e5a",
      "gasUsed": "0x13d2a",
      "effectiveGasPrice": "0x4bd46c87",
      "from": "0x00000c771f6176268d5a9846e0956c3ef58597a1",
      "to": "0x356d0ae17b4ad1531f7cb610bb37580d56465a88",
      "contractAddress": null
    },
    {
      "status": "0x1",
      "cumulativeGasUsed": "0x8545d9",
      "logs": [
        {
          "address": "0x532544c07674d176b69eda770d174dbc0b09ccdb",
          "topics": [],
          "data": "0x356d0ae17b4ad1531f7cb610bb37580d56465a886fe0c9ef07893ebeb5fa72230eb628031609c7c6d7b14628d821d87c98572b91fffffffffffffffffffffffffffe7a8c0000000000000000000000001dcd6500000000000000000009d025b9f39a7b5980000011ad7b7d57d2dbef230081f64d",
          "blockHash": "0x891932a2672a785ad0a578e5bfcb3c1a3d97f176e1da8a062ab216b6d9087642",
          "blockNumber": "0x757e5b",
          "transactionHash": "0x22903366bfcfe8f7bf770dddf5f0cafdb5884bf72cecd293fd6562da9d58a63c",
          "transactionIndex": "0x5a",
          "logIndex": "0x68",
          "removed": false
        },
        {
          "address": "0x7328a04faecfd60cf73a59feffea6689b36a5cea",
          "topics": [
            "0xddf252ad1be2c89b69c2b068fc378daa952ba7f163c4a11628f55a4df523b3ef",
            "0x00000000000000000000000000000c771f6176268d5a9846e0956c3ef58597a1",
            "0x000000000000000000000000532544c07674d176b69eda770d174dbc0b09ccdb"
          ],
          "data": "0x000000000000000000000000000000000000000000000000000000001dcd6500",
          "blockHash": "0x891932a2672a785ad0a578e5bfcb3c1a3d97f176e1da8a062ab216b6d9087642",
          "blockNumber": "0x757e5b",
          "transactionHash": "0x22903366bfcfe8f7bf770dddf5f0cafdb5884bf72cecd293fd6562da9d58a63c",
          "transactionIndex": "0x5a",
          "logIndex": "0x69",
          "removed": false
        }
      ],
      "logsBloom": "0x00000000000000000000000020000000000004000000000000000000800000200000000000000000000020000000000000000000000000000000000000000004000000000000000000000008008000000000000000000000000000000000000000000000000000080000000000000000000000000000000000000010000000000000000000000000000000000000000000000000000100000000000000000000000000000000000000000000001000000000000000000000000000000000000000000002000000008000000000000000100000000000000000000000000000000000000000000000000000000000000000000000000000000000000000000000",
      "type": "0x2",
      "transactionHash": "0x22903366bfcfe8f7bf770dddf5f0cafdb5884bf72cecd293fd6562da9d58a63c",
      "transactionIndex": "0x5a",
      "blockHash": "0x891932a2672a785ad0a578e5bfcb3c1a3d97f176e1da8a062ab216b6d9087642",
      "blockNumber": "0x757e5b",
      "gasUsed": "0x15687",
      "effectiveGasPrice": "0x4d4471a8",
      "from": "0x00000c771f6176268d5a9846e0956c3ef58597a1",
      "to": "0x356d0ae17b4ad1531f7cb610bb37580d56465a88",
      "contractAddress": null
    },
    {
      "status": "0x1",
      "cumulativeGasUsed": "0x150e263",
      "logs": [
        {
          "address": "0x532544c07674d176b69eda770d174dbc0b09ccdb",
          "topics": [
            "0x5e4688b340694b7c7fd30047fd082117dc46e32acfbf81a44bb1fac0ae65154d"
          ],
          "data": "0x5beeddd96812c8240d13a0a2090a57769a7e8d73eb1edeb3a795c235314df46800000000000000000000000000000000000000000000000000000000000000000000000000000000000000007328a04faecfd60cf73a59feffea6689b36a5cea000000000000000000000000000000000000000000c49ba5e353f7ce00000000000000000000000000000000000000000000000000000000000000000081f64d000000000000000000000000000000000000000080000011ad7b7d57d2db6557",
          "blockHash": "0xf4e71dd87059bac722b1ad120fd04aaed17148ae4c31fcd633e2be39cc700c2a",
          "blockNumber": "0x757e5c",
          "transactionHash": "0x4827dbc2790cec7caf8ffc5173a7b4fb752c1a81632c33a90fcef362141fead8",
          "transactionIndex": "0x96",
          "logIndex": "0xd5",
          "removed": false
        },
        {
          "address": "0xef427eea8d8c10b3d1d4be0fafea58da7cbd5f47",
          "topics": [
            "0xddf252ad1be2c89b69c2b068fc378daa952ba7f163c4a11628f55a4df523b3ef",
            "0x0000000000000000000000000000000000000000000000000000000000000000",
            "0x00000000000000000000000000000c771f6176268d5a9846e0956c3ef58597a1",
            "0x00000000000000000000000000000000000000000000000000004735d02271af"
          ],
          "data": "0x",
          "blockHash": "0xf4e71dd87059bac722b1ad120fd04aaed17148ae4c31fcd633e2be39cc700c2a",
          "blockNumber": "0x757e5c",
          "transactionHash": "0x4827dbc2790cec7caf8ffc5173a7b4fb752c1a81632c33a90fcef362141fead8",
          "transactionIndex": "0x96",
          "logIndex": "0xd6",
          "removed": false
        },
        {
          "address": "0x532544c07674d176b69eda770d174dbc0b09ccdb",
          "topics": [
            "0xa2d4008be4187c63684f323788e131e1370dbc2205499befe2834005a00c792c"
          ],
          "data": "0x000000000000000000000000ef427eea8d8c10b3d1d4be0fafea58da7cbd5f475beeddd96812c8240d13a0a2090a57769a7e8d73eb1edeb3a795c235314df46800000000000000000000000000000000000000000000000000004735d02271affffffffffffffffffffffffffffffffffffffffffffffffffffffffffab6326d000000000000000000000000000000000000000000000000000000000549cd9300000000000000000000000000000000000000000000000009d025b9f39a7b59000000000000000000000000000000000000000000000000002386f26fc10000000000000000000000000000000000000000000000000002b5e39a9fdddd9e1c",
          "blockHash": "0xf4e71dd87059bac722b1ad120fd04aaed17148ae4c31fcd633e2be39cc700c2a",
          "blockNumber": "0x757e5c",
          "transactionHash": "0x4827dbc2790cec7caf8ffc5173a7b4fb752c1a81632c33a90fcef362141fead8",
          "transactionIndex": "0x96",
          "logIndex": "0xd7",
          "removed": false
        },
        {
          "address": "0x7328a04faecfd60cf73a59feffea6689b36a5cea",
          "topics": [
            "0xddf252ad1be2c89b69c2b068fc378daa952ba7f163c4a11628f55a4df523b3ef",
            "0x00000000000000000000000000000c771f6176268d5a9846e0956c3ef58597a1",
            "0x000000000000000000000000532544c07674d176b69eda770d174dbc0b09ccdb"
          ],
          "data": "0x000000000000000000000000000000000000000000000002b5e39a9fdddd9e1c",
          "blockHash": "0xf4e71dd87059bac722b1ad120fd04aaed17148ae4c31fcd633e2be39cc700c2a",
          "blockNumber": "0x757e5c",
          "transactionHash": "0x4827dbc2790cec7caf8ffc5173a7b4fb752c1a81632c33a90fcef362141fead8",
          "transactionIndex": "0x96",
          "logIndex": "0xd8",
          "removed": false
        }
      ],
      "logsBloom": "0x00000000000100000000000020000000000004000100000000000000800002200000000000000000000020000000000000000000000000000000000000000004000000000000000000000008008000000000000000000000000040000000000020000000020000080000000000000800000000000000000000000010000000000000000000020000000000000008000000000000000100000008000000000000000000020000000000000000001000000000000000000000000000000400000000000002000000008000000000000000100000000000000000000000000020000000000000000000000000000040000000008000000000000000000000000000",
      "type": "0x2",
      "transactionHash": "0x4827dbc2790cec7caf8ffc5173a7b4fb752c1a81632c33a90fcef362141fead8",
      "transactionIndex": "0x96",
      "blockHash": "0xf4e71dd87059bac722b1ad120fd04aaed17148ae4c31fcd633e2be39cc700c2a",
      "blockNumber": "0x757e5c",
      "gasUsed": "0x2b6d6",
      "effectiveGasPrice": "0x49c46583",
      "from": "0x00000c771f6176268d5a9846e0956c3ef58597a1",
      "to": "0xef427eea8d8c10b3d1d4be0fafea58da7cbd5f47",
      "contractAddress": null
    },
    {
      "status": "0x1",
      "cumulativeGasUsed": "0xb3d476",
      "logs": [
        {
          "address": "0x532544c07674d176b69eda770d174dbc0b09ccdb",
          "topics": [],
          "data": "0x356d0ae17b4ad1531f7cb610bb37580d56465a885beeddd96812c8240d13a0a2090a57769a7e8d73eb1edeb3a795c235314df468000000000000000000000000000186a0ffffffffffffffffffffffffe2497ffa000000000000000009d025b9f39a7b5980000011ad7b7d5711127bde0081f64c",
          "blockHash": "0x1f80a0e67cfe18a8a49cb3430225bdb336b08aa567eed84d438b5f278ff0b6ac",
          "blockNumber": "0x757e5d",
          "transactionHash": "0xedd76b012fe228372427da0efe61a3d71b14772b51b1197b461329d56e94c282",
          "transactionIndex": "0x77",
          "logIndex": "0xd9",
          "removed": false
        },
        {
          "address": "0x7328a04faecfd60cf73a59feffea6689b36a5cea",
          "topics": [
            "0xddf252ad1be2c89b69c2b068fc378daa952ba7f163c4a11628f55a4df523b3ef",
            "0x000000000000000000000000532544c07674d176b69eda770d174dbc0b09ccdb",
            "0x00000000000000000000000000000c771f6176268d5a9846e0956c3ef58597a1"
          ],
          "data": "0x000000000000000000000000000000000000000000000000000000001db68006",
          "blockHash": "0x1f80a0e67cfe18a8a49cb3430225bdb336b08aa567eed84d438b5f278ff0b6ac",
          "blockNumber": "0x757e5d",
          "transactionHash": "0xedd76b012fe228372427da0efe61a3d71b14772b51b1197b461329d56e94c282",
          "transactionIndex": "0x77",
          "logIndex": "0xda",
          "removed": false
        }
      ],
      "logsBloom": "0x00000000000000000000000020000000000004000000000000000000800000200000000000000000000020000000000000000000000000000000000000000004000000000000000000000008008000000000000000000000000000000000000000000000000000080000000000000000000000000000000000000010000000000000000000000000000000000000000000000000000100000000000000000000000000000000000000000000001000000000000000000000000000000000000000000002000000008000000000000000100000000000000000000000000000000000000000000000000000000000000000000000000000000000000000000000",
      "type": "0x2",
      "transactionHash": "0xedd76b012fe228372427da0efe61a3d71b14772b51b1197b461329d56e94c282",
      "transactionIndex": "0x77",
      "blockHash": "0x1f80a0e67cfe18a8a49cb3430225bdb336b08aa567eed84d438b5f278ff0b6ac",
      "blockNumber": "0x757e5d",
      "gasUsed": "0x17101",
      "effectiveGasPrice": "0x4c127719",
      "from": "0x00000c771f6176268d5a9846e0956c3ef58597a1",
      "to": "0x356d0ae17b4ad1531f7cb610bb37580d56465a88",
      "contractAddress": null
    },
    {
      "status": "0x1",
      "cumulativeGasUsed": "0xc787cc",
      "logs": [
        {
          "address": "0x532544c07674d176b69eda770d174dbc0b09ccdb",
          "topics": [],
          "data": "0x356d0ae17b4ad1531f7cb610bb37580d56465a885beeddd96812c8240d13a0a2090a57769a7e8d73eb1edeb3a795c235314df468fffffffffffffffffffffffffffe7a8c0000000000000000000000001dcd6500000000000000000009d025b9f39a7b5980000011ad7b7d57d2db6fc20081f64d",
          "blockHash": "0x416629b59db7de523f5036e5aa1b8a1108d0cf39f88b8307bf6607d4acf32381",
          "blockNumber": "0x757e5e",
          "transactionHash": "0x2b40335751131620c0885dbd625171b0d758f326a8466f37edacc2da32497e42",
          "transactionIndex": "0x85",
          "logIndex": "0xb2",
          "removed": false
        },
        {
          "address": "0x7328a04faecfd60cf73a59feffea6689b36a5cea",
          "topics": [
            "0xddf252ad1be2c89b69c2b068fc378daa952ba7f163c4a11628f55a4df523b3ef",
            "0x00000000000000000000000000000c771f6176268d5a9846e0956c3ef58597a1",
            "0x000000000000000000000000532544c07674d176b69eda770d174dbc0b09ccdb"
          ],
          "data": "0x000000000000000000000000000000000000000000000000000000001dcd6500",
          "blockHash": "0x416629b59db7de523f5036e5aa1b8a1108d0cf39f88b8307bf6607d4acf32381",
          "blockNumber": "0x757e5e",
          "transactionHash": "0x2b40335751131620c0885dbd625171b0d758f326a8466f37edacc2da32497e42",
          "transactionIndex": "0x85",
          "logIndex": "0xb3",
          "removed": false
        }
      ],
      "logsBloom": "0x00000000000000000000000020000000000004000000000000000000800000200000000000000000000020000000000000000000000000000000000000000004000000000000000000000008008000000000000000000000000000000000000000000000000000080000000000000000000000000000000000000010000000000000000000000000000000000000000000000000000100000000000000000000000000000000000000000000001000000000000000000000000000000000000000000002000000008000000000000000100000000000000000000000000000000000000000000000000000000000000000000000000000000000000000000000",
      "type": "0x2",
      "transactionHash": "0x2b40335751131620c0885dbd625171b0d758f326a8466f37edacc2da32497e42",
      "transactionIndex": "0x85",
      "blockHash": "0x416629b59db7de523f5036e5aa1b8a1108d0cf39f88b8307bf6607d4acf32381",
      "blockNumber": "0x757e5e",
      "gasUsed": "0x18a72",
      "effectiveGasPrice": "0x4adc41fd",
      "from": "0x00000c771f6176268d5a9846e0956c3ef58597a1",
      "to": "0x356d0ae17b4ad1531f7cb610bb37580d56465a88",
      "contractAddress": null
    },
    {
      "status": "0x1",
      "cumulativeGasUsed": "0x1296e39",
      "logs": [
        {
          "address": "0x532544c07674d176b69eda770d174dbc0b09ccdb",
          "topics": [],
          "data": "0x356d0ae17b4ad1531f7cb610bb37580d56465a885beeddd96812c8240d13a0a2090a57769a7e8d73eb1edeb3a795c235314df468000000000000000000000000000186a0ffffffffffffffffffffffffe24991e8000000000000000009d025b9f39a7b5980000011ad7b7d571112fb3f0081f64c",
          "blockHash": "0xf7a66ffc64b2e78fe8d8482db0b269ceb455cf34aa99e78f09d4a9f4f10e85b8",
          "blockNumber": "0x757e5f",
          "transactionHash": "0xa8fd99918c8b728d3c5e2a1921bb296981a53ffc09865f615ba5e5c774a96899",
          "transactionIndex": "0x9c",
          "logIndex": "0x109",
          "removed": false
        },
        {
          "address": "0x7328a04faecfd60cf73a59feffea6689b36a5cea",
          "topics": [
            "0xddf252ad1be2c89b69c2b068fc378daa952ba7f163c4a11628f55a4df523b3ef",
            "0x000000000000000000000000532544c07674d176b69eda770d174dbc0b09ccdb",
            "0x00000000000000000000000000000c771f6176268d5a9846e0956c3ef58597a1"
          ],
          "data": "0x000000000000000000000000000000000000000000000000000000001db66e18",
          "blockHash": "0xf7a66ffc64b2e78fe8d8482db0b269ceb455cf34aa99e78f09d4a9f4f10e85b8",
          "blockNumber": "0x757e5f",
          "transactionHash": "0xa8fd99918c8b728d3c5e2a1921bb296981a53ffc09865f615ba5e5c774a96899",
          "transactionIndex": "0x9c",
          "logIndex": "0x10a",
          "removed": false
        }
      ],
      "logsBloom": "0x00000000000000000000000020000000000004000000000000000000800000200000000000000000000020000000000000000000000000000000000000000004000000000000000000000008008000000000000000000000000000000000000000000000000000080000000000000000000000000000000000000010000000000000000000000000000000000000000000000000000100000000000000000000000000000000000000000000001000000000000000000000000000000000000000000002000000008000000000000000100000000000000000000000000000000000000000000000000000000000000000000000000000000000000000000000",
      "type": "0x2",
      "transactionHash": "0xa8fd99918c8b728d3c5e2a1921bb296981a53ffc09865f615ba5e5c774a96899",
      "transactionIndex": "0x9c",
      "blockHash": "0xf7a66ffc64b2e78fe8d8482db0b269ceb455cf34aa99e78f09d4a9f4f10e85b8",
      "blockNumber": "0x757e5f",
      "gasUsed": "0x12e35",
      "effectiveGasPrice": "0x48eeb32e",
      "from": "0x00000c771f6176268d5a9846e0956c3ef58597a1",
      "to": "0x356d0ae17b4ad1531f7cb610bb37580d56465a88",
      "contractAddress": null
    },
    {
      "status": "0x1",
      "cumulativeGasUsed": "0xcd99ba",
      "logs": [
        {
          "address": "0x532544c07674d176b69eda770d174dbc0b09ccdb",
          "topics": [],
          "data": "0x356d0ae17b4ad1531f7cb610bb37580d56465a885beeddd96812c8240d13a0a2090a57769a7e8d73eb1edeb3a795c235314df468fffffffffffffffffffffffffffe7a8c0000000000000000000000001dcd6500000000000000000009d025b9f39a7b5980000011ad7b7d57d2dbef230081f64d",
          "blockHash": "0xcd84912709bc098c64877be06ecb6c6d79fb8028b0f8b1a2ca9933dc0760e160",
          "blockNumber": "0x757e60",
          "transactionHash": "0xeb3e22391f6d57aa7b7c15cab3acaec2f3aa57998728a9eab5163536b4a3034b",
          "transactionIndex": "0x86",
          "logIndex": "0xab",
          "removed": false
        },
        {
          "address": "0x7328a04faecfd60cf73a59feffea6689b36a5cea",
          "topics": [
            "0xddf252ad1be2c89b69c2b068fc378daa952ba7f163c4a11628f55a4df523b3ef",
            "0x00000000000000000000000000000c771f6176268d5a9846e0956c3ef58597a1",
            "0x000000000000000000000000532544c07674d176b69eda770d174dbc0b09ccdb"
          ],
          "data": "0x000000000000000000000000000000000000000000000000000000001dcd6500",
          "blockHash": "0xcd84912709bc098c64877be06ecb6c6d79fb8028b0f8b1a2ca9933dc0760e160",
          "blockNumber": "0x757e60",
          "transactionHash": "0xeb3e22391f6d57aa7b7c15cab3acaec2f3aa57998728a9eab5163536b4a3034b",
          "transactionIndex": "0x86",
          "logIndex": "0xac",
          "removed": false
        }
      ],
      "logsBloom": "0x00000000000000000000000020000000000004000000000000000000800000200000000000000000000020000000000000000000000000000000000000000004000000000000000000000008008000000000000000000000000000000000000000000000000000080000000000000000000000000000000000000010000000000000000000000000000000000000000000000000000100000000000000000000000000000000000000000000001000000000000000000000000000000000000000000002000000008000000000000000100000000000000000000000000000000000000000000000000000000000000000000000000000000000000000000000",
      "type": "0x2",
      "transactionHash": "0xeb3e22391f6d57aa7b7c15cab3acaec2f3aa57998728a9eab5163536b4a3034b",
      "transactionIndex": "0x86",
      "blockHash": "0xcd84912709bc098c64877be06ecb6c6d79fb8028b0f8b1a2ca9933dc0760e160",
      "blockNumber": "0x757e60",
      "gasUsed": "0x147a6",
      "effectiveGasPrice": "0x4bb70cbc",
      "from": "0x00000c771f6176268d5a9846e0956c3ef58597a1",
      "to": "0x356d0ae17b4ad1531f7cb610bb37580d56465a88",
      "contractAddress": null
    },
    {
      "status": "0x1",
      "cumulativeGasUsed": "0xd372d9",
      "logs": [
        {
          "address": "0x51700530d64710d8edde17a3014fe7342b50e61f",
          "topics": [],
          "data": "0x7328a04faecfd60cf73a59feffea6689b36a5cea0000000067ae197000000000000000000000000000000000000000000000000000000000",
          "blockHash": "0x79aba5ae141a9ad5a0a511a151a41780491db67a3665d7d398919433ea1e7fcb",
          "blockNumber": "0x757e61",
          "transactionHash": "0xa1dab98d71a77d0f7e9c782f761a46b63bc1b9439bb95105ec5a8dc896cedb64",
          "transactionIndex": "0x96",
          "logIndex": "0xca",
          "removed": false
        },
        {
          "address": "0x532544c07674d176b69eda770d174dbc0b09ccdb",
          "topics": [
            "0x5e4688b340694b7c7fd30047fd082117dc46e32acfbf81a44bb1fac0ae65154d"
          ],
          "data": "0xf077a5d22c2fe3c119288abfb16d2bf41f2850383c4a04216972e2649448fb3100000000000000000000000000000000000000000000000000000000000000000000000000000000000000007328a04faecfd60cf73a59feffea6689b36a5cea51700530d64710d8edde17a3014fe7342b50e61f00000000000000000000000000000000000000000000000000000000000000000000000000000000004644f40000000000000000000000000000000000000000800000027ffff5c0ff12dc20",
          "blockHash": "0x79aba5ae141a9ad5a0a511a151a41780491db67a3665d7d398919433ea1e7fcb",
          "blockNumber": "0x757e61",
          "transactionHash": "0xa1dab98d71a77d0f7e9c782f761a46b63bc1b9439bb95105ec5a8dc896cedb64",
          "transactionIndex": "0x96",
          "logIndex": "0xcb",
          "removed": false
        },
        {
          "address": "0xef427eea8d8c10b3d1d4be0fafea58da7cbd5f47",
          "topics": [
            "0xddf252ad1be2c89b69c2b068fc378daa952ba7f163c4a11628f55a4df523b3ef",
            "0x0000000000000000000000000000000000000000000000000000000000000000",
            "0x00000000000000000000000000000c771f6176268d5a9846e0956c3ef58597a1",
            "0x0000000000000000000000000000000000000000000000000000eff58d1e89c6"
          ],
          "data": "0x",
          "blockHash": "0x79aba5ae141a9ad5a0a511a151a41780491db67a3665d7d398919433ea1e7fcb",
          "blockNumber": "0x757e61",
          "transactionHash": "0xa1dab98d71a77d0f7e9c782f761a46b63bc1b9439bb95105ec5a8dc896cedb64",
          "transactionIndex": "0x96",
          "logIndex": "0xcc",
          "removed": false
        },
        {
          "address": "0x532544c07674d176b69eda770d174dbc0b09ccdb",
          "topics": [
            "0xa2d4008be4187c63684f323788e131e1370dbc2205499befe2834005a00c792c"
          ],
          "data": "0x000000000000000000000000ef427eea8d8c10b3d1d4be0fafea58da7cbd5f47f077a5d22c2fe3c119288abfb16d2bf41f2850383c4a04216972e2649448fb310000000000000000000000000000000000000000000000000000eff58d1e89c6fffffffffffffffffffffffffffffffffffffffffffffffffffffffffab6326d000000000000000000000000000000000000000000000000000000000549cd930000000000000000000000000000000000000000000000008ac720cbc3f4a9180000000000000000000000000000000000000000000000000de0b6b3a76400000000000000000000000000000000000000000000000000056bc731bdec68448d",
          "blockHash": "0x79aba5ae141a9ad5a0a511a151a41780491db67a3665d7d398919433ea1e7fcb",
          "blockNumber": "0x757e61",
          "transactionHash": "0xa1dab98d71a77d0f7e9c782f761a46b63bc1b9439bb95105ec5a8dc896cedb64",
          "transactionIndex": "0x96",
          "logIndex": "0xcd",
          "removed": false
        },
        {
          "address": "0x7328a04faecfd60cf73a59feffea6689b36a5cea",
          "topics": [
            "0xddf252ad1be2c89b69c2b068fc378daa952ba7f163c4a11628f55a4df523b3ef",
            "0x00000000000000000000000000000c771f6176268d5a9846e0956c3ef58597a1",
            "0x000000000000000000000000532544c07674d176b69eda770d174dbc0b09ccdb"
          ],
          "data": "0x0000000000000000000000000000000000000000000000056bc731bdec68448d",
          "blockHash": "0x79aba5ae141a9ad5a0a511a151a41780491db67a3665d7d398919433ea1e7fcb",
          "blockNumber": "0x757e61",
          "transactionHash": "0xa1dab98d71a77d0f7e9c782f761a46b63bc1b9439bb95105ec5a8dc896cedb64",
          "transactionIndex": "0x96",
          "logIndex": "0xce",
          "removed": false
        }
      ],
      "logsBloom": "0x000000000001000000000000200000000000040001000000000000008000022000000000000000000000200000000000000000000000000000000000000000040000000020000000000000080080000000000000000000000000400000000000200000000200000a0000000000000800000000000000000000000010000004000000000400000000000000000008000000000000000100000008000000000000000020000000000000000000001000000000000000000000000000000400000000004002000000008000000000000000100000000000000000000000000020000000000000000000000000000000000000008000000000000000000000000000",
      "type": "0x2",
      "transactionHash": "0xa1dab98d71a77d0f7e9c782f761a46b63bc1b9439bb95105ec5a8dc896cedb64",
      "transactionIndex": "0x96",
      "blockHash": "0x79aba5ae141a9ad5a0a511a151a41780491db67a3665d7d398919433ea1e7fcb",
      "blockNumber": "0x757e61",
      "gasUsed": "0x38e05",
      "effectiveGasPrice": "0x4cd0148a",
      "from": "0x00000c771f6176268d5a9846e0956c3ef58597a1",
      "to": "0xef427eea8d8c10b3d1d4be0fafea58da7cbd5f47",
      "contractAddress": null
    },
    {
      "status": "0x1",
      "cumulativeGasUsed": "0xc776dc",
      "logs": [
        {
          "address": "0x51700530d64710d8edde17a3014fe7342b50e61f",
          "topics": [],
          "data": "0x7328a04faecfd60cf73a59feffea6689b36a5cea0000000067ae197c00000000000000000000001622d7568257f4a59400000000034b3b70",
          "blockHash": "0x7027db86b99f3b5ecab6bb0e2a96c21b435fabb7049cf26582501ff451d67049",
          "blockNumber": "0x757e62",
          "transactionHash": "0xd11736d8b2cb49a016c94dce2427d38f120a2be057ae182a700671ca2940f67f",
          "transactionIndex": "0x7a",
          "logIndex": "0x9d",
          "removed": false
        },
        {
          "address": "0x532544c07674d176b69eda770d174dbc0b09ccdb",
          "topics": [],
          "data": "0x356d0ae17b4ad1531f7cb610bb37580d56465a88f077a5d22c2fe3c119288abfb16d2bf41f2850383c4a04216972e2649448fb31000000000000000000000000000186a0ffffffffffffffffffffffffff6769b300000000000000008ac720cbc3f4a918800000027ffff5c0fecc7dd0004644f3",
          "blockHash": "0x7027db86b99f3b5ecab6bb0e2a96c21b435fabb7049cf26582501ff451d67049",
          "blockNumber": "0x757e62",
          "transactionHash": "0xd11736d8b2cb49a016c94dce2427d38f120a2be057ae182a700671ca2940f67f",
          "transactionIndex": "0x7a",
          "logIndex": "0x9e",
          "removed": false
        },
        {
          "address": "0x7328a04faecfd60cf73a59feffea6689b36a5cea",
          "topics": [
            "0xddf252ad1be2c89b69c2b068fc378daa952ba7f163c4a11628f55a4df523b3ef",
            "0x000000000000000000000000532544c07674d176b69eda770d174dbc0b09ccdb",
            "0x00000000000000000000000000000c771f6176268d5a9846e0956c3ef58597a1"
          ],
          "data": "0x000000000000000000000000000000000000000000000000000000000098964d",
          "blockHash": "0x7027db86b99f3b5ecab6bb0e2a96c21b435fabb7049cf26582501ff451d67049",
          "blockNumber": "0x757e62",
          "transactionHash": "0xd11736d8b2cb49a016c94dce2427d38f120a2be057ae182a700671ca2940f67f",
          "transactionIndex": "0x7a",
          "logIndex": "0x9f",
          "removed": false
        }
      ],
      "logsBloom": "0x00000000000000000000000020000000000004000000000000000000800000200000000000000000000020000000000000000000000000000000000000000004000000002000000000000008008000000000000000000000000000000000000000000000000000080000000000000000000000000000000000000010000000000000000400000000000000000000000000000000000100000000000000000000000020000000000000000000001000000000000000000000000000000000000000000002000000008000000000000000100000000000000000000000000000000000000000000000000000000000000000000000000000000000000000000000",
      "type": "0x2",
      "transactionHash": "0xd11736d8b2cb49a016c94dce2427d38f120a2be057ae182a700671ca2940f67f",
      "transactionIndex": "0x7a",
      "blockHash": "0x7027db86b99f3b5ecab6bb0e2a96c21b435fabb7049cf26582501ff451d67049",
      "blockNumber": "0x757e62",
      "gasUsed": "0x15e53",
      "effectiveGasPrice": "0x4ea36f32",
      "from": "0x00000c771f6176268d5a9846e0956c3ef58597a1",
      "to": "0x356d0ae17b4ad1531f7cb610bb37580d56465a88",
      "contractAddress": null
    },
    {
      "status": "0x1",
      "cumulativeGasUsed": "0x117765c",
      "logs": [
        {
          "address": "0x51700530d64710d8edde17a3014fe7342b50e61f",
          "topics": [],
          "data": "0x7328a04faecfd60cf73a59feffea6689b36a5cea0000000067ae198800000000000000000000002c45aead04afe94b2800000000069676d4",
          "blockHash": "0xbd64e03463f539c8982dbb88c2d023e81b28e94d65757093ff82e7425e2cffeb",
          "blockNumber": "0x757e63",
          "transactionHash": "0x3dcb1529db53c4a7fe947fa773bfed7a00bd431a853724fb26b6b9d5c63cb096",
          "transactionIndex": "0xa6",
          "logIndex": "0x110",
          "removed": false
        },
        {
          "address": "0x532544c07674d176b69eda770d174dbc0b09ccdb",
          "topics": [],
          "data": "0x356d0ae17b4ad1531f7cb610bb37580d56465a88f077a5d22c2fe3c119288abfb16d2bf41f2850383c4a04216972e2649448fb31ffffffffffffffffffffffffffb3b4be0000000000000000000000001dcd650000000000000000008ac720cbc3f4a918800000027ffff5c10c8aedf5004644f4",
          "blockHash": "0xbd64e03463f539c8982dbb88c2d023e81b28e94d65757093ff82e7425e2cffeb",
          "blockNumber": "0x757e63",
          "transactionHash": "0x3dcb1529db53c4a7fe947fa773bfed7a00bd431a853724fb26b6b9d5c63cb096",
          "transactionIndex": "0xa6",
          "logIndex": "0x111",
          "removed": false
        },
        {
          "address": "0x7328a04faecfd60cf73a59feffea6689b36a5cea",
          "topics": [
            "0xddf252ad1be2c89b69c2b068fc378daa952ba7f163c4a11628f55a4df523b3ef",
            "0x00000000000000000000000000000c771f6176268d5a9846e0956c3ef58597a1",
            "0x000000000000000000000000532544c07674d176b69eda770d174dbc0b09ccdb"
          ],
          "data": "0x000000000000000000000000000000000000000000000000000000001dcd6500",
          "blockHash": "0xbd64e03463f539c8982dbb88c2d023e81b28e94d65757093ff82e7425e2cffeb",
          "blockNumber": "0x757e63",
          "transactionHash": "0x3dcb1529db53c4a7fe947fa773bfed7a00bd431a853724fb26b6b9d5c63cb096",
          "transactionIndex": "0xa6",
          "logIndex": "0x112",
          "removed": false
        }
      ],
      "logsBloom": "0x00000000000000000000000020000000000004000000000000000000800000200000000000000000000020000000000000000000000000000000000000000004000000002000000000000008008000000000000000000000000000000000000000000000000000080000000000000000000000000000000000000010000000000000000400000000000000000000000000000000000100000000000000000000000020000000000000000000001000000000000000000000000000000000000000000002000000008000000000000000100000000000000000000000000000000000000000000000000000000000000000000000000000000000000000000000",
      "type": "0x2",
      "transactionHash": "0x3dcb1529db53c4a7fe947fa773bfed7a00bd431a853724fb26b6b9d5c63cb096",
      "transactionIndex": "0xa6",
      "blockHash": "0xbd64e03463f539c8982dbb88c2d023e81b28e94d65757093ff82e7425e2cffeb",
      "blockNumber": "0x757e63",
      "gasUsed": "0x177c4",
      "effectiveGasPrice": "0x4cb897e6",
      "from": "0x00000c771f6176268d5a9846e0956c3ef58597a1",
      "to": "0x356d0ae17b4ad1531f7cb610bb37580d56465a88",
      "contractAddress": null
    },
    {
      "status": "0x1",
      "cumulativeGasUsed": "0xa9e43f",
      "logs": [
        {
          "address": "0x51700530d64710d8edde17a3014fe7342b50e61f",
          "topics": [],
          "data": "0x7328a04faecfd60cf73a59feffea6689b36a5cea0000000067ae19940000000000000000000000426886038707ddf0bc0000000009e1b244",
          "blockHash": "0x6975f9342f906a005f5ddfe6d3db8c3e85fb8d72b477ef5dcb56c4b0c44da706",
          "blockNumber": "0x757e64",
          "transactionHash": "0xcd1076a349520f48cf49e09930612e15471486de49399e9702d683b78b4b1c58",
          "transactionIndex": "0x79",
          "logIndex": "0xa3",
          "removed": false
        },
        {
          "address": "0x532544c07674d176b69eda770d174dbc0b09ccdb",
          "topics": [],
          "data": "0x356d0ae17b4ad1531f7cb610bb37580d56465a88f077a5d22c2fe3c119288abfb16d2bf41f2850383c4a04216972e2649448fb31000000000000000000000000000186a0ffffffffffffffffffffffffff6769be00000000000000008ac720cbc3f4a918800000027ffff5c10c448faa004644f4",
          "blockHash": "0x6975f9342f906a005f5ddfe6d3db8c3e85fb8d72b477ef5dcb56c4b0c44da706",
          "blockNumber": "0x757e64",
          "transactionHash": "0xcd1076a349520f48cf49e09930612e15471486de49399e9702d683b78b4b1c58",
          "transactionIndex": "0x79",
          "logIndex": "0xa4",
          "removed": false
        },
        {
          "address": "0x7328a04faecfd60cf73a59feffea6689b36a5cea",
          "topics": [
            "0xddf252ad1be2c89b69c2b068fc378daa952ba7f163c4a11628f55a4df523b3ef",
            "0x000000000000000000000000532544c07674d176b69eda770d174dbc0b09ccdb",
            "0x00000000000000000000000000000c771f6176268d5a9846e0956c3ef58597a1"
          ],
          "data": "0x0000000000000000000000000000000000000000000000000000000000989642",
          "blockHash": "0x6975f9342f906a005f5ddfe6d3db8c3e85fb8d72b477ef5dcb56c4b0c44da706",
          "blockNumber": "0x757e64",
          "transactionHash": "0xcd1076a349520f48cf49e09930612e15471486de49399e9702d683b78b4b1c58",
          "transactionIndex": "0x79",
          "logIndex": "0xa5",
          "removed": false
        }
      ],
      "logsBloom": "0x00000000000000000000000020000000000004000000000000000000800000200000000000000000000020000000000000000000000000000000000000000004000000002000000000000008008000000000000000000000000000000000000000000000000000080000000000000000000000000000000000000010000000000000000400000000000000000000000000000000000100000000000000000000000020000000000000000000001000000000000000000000000000000000000000000002000000008000000000000000100000000000000000000000000000000000000000000000000000000000000000000000000000000000000000000000",
      "type": "0x2",
      "transactionHash": "0xcd1076a349520f48cf49e09930612e15471486de49399e9702d683b78b4b1c58",
      "transactionIndex": "0x79",
      "blockHash": "0x6975f9342f906a005f5ddfe6d3db8c3e85fb8d72b477ef5dcb56c4b0c44da706",
      "blockNumber": "0x757e64",
      "gasUsed": "0x15e57",
      "effectiveGasPrice": "0x4f4afaac",
      "from": "0x00000c771f6176268d5a9846e0956c3ef58597a1",
      "to": "0x356d0ae17b4ad1531f7cb610bb37580d56465a88",
      "contractAddress": null
    },
    {
      "status": "0x1",
      "cumulativeGasUsed": "0xf41159",
      "logs": [
        {
          "address": "0x51700530d64710d8edde17a3014fe7342b50e61f",
          "topics": [],
          "data": "0x7328a04faecfd60cf73a59feffea6689b36a5cea0000000067ae19a00000000000000000000000588b5d5a095fd29650000000000d2cedb4",
          "blockHash": "0xa81168a18f36120e4b99cff5f9ee0ef0f142b2b36e77cdf7628fdd2d8c256438",
          "blockNumber": "0x757e65",
          "transactionHash": "0xc1178a3edbc449beedc093b5dae469f0e51d9d81dfd8506f8b8bf599e04ef219",
          "transactionIndex": "0x9b",
          "logIndex": "0xb8",
          "removed": false
        },
        {
          "address": "0x532544c07674d176b69eda770d174dbc0b09ccdb",
          "topics": [],
          "data": "0x356d0ae17b4ad1531f7cb610bb37580d56465a88f077a5d22c2fe3c119288abfb16d2bf41f2850383c4a04216972e2649448fb31ffffffffffffffffffffffffffb3b4be0000000000000000000000001dcd650000000000000000008ac720cbc3f4a918800000027ffff5c11a02ffcf004644f4",
          "blockHash": "0xa81168a18f36120e4b99cff5f9ee0ef0f142b2b36e77cdf7628fdd2d8c256438",
          "blockNumber": "0x757e65",
          "transactionHash": "0xc1178a3edbc449beedc093b5dae469f0e51d9d81dfd8506f8b8bf599e04ef219",
          "transactionIndex": "0x9b",
          "logIndex": "0xb9",
          "removed": false
        },
        {
          "address": "0x7328a04faecfd60cf73a59feffea6689b36a5cea",
          "topics": [
            "0xddf252ad1be2c89b69c2b068fc378daa952ba7f163c4a11628f55a4df523b3ef",
            "0x00000000000000000000000000000c771f6176268d5a9846e0956c3ef58597a1",
            "0x000000000000000000000000532544c07674d176b69eda770d174dbc0b09ccdb"
          ],
          "data": "0x000000000000000000000000000000000000000000000000000000001dcd6500",
          "blockHash": "0xa81168a18f36120e4b99cff5f9ee0ef0f142b2b36e77cdf7628fdd2d8c256438",
          "blockNumber": "0x757e65",
          "transactionHash": "0xc1178a3edbc449beedc093b5dae469f0e51d9d81dfd8506f8b8bf599e04ef219",
          "transactionIndex": "0x9b",
          "logIndex": "0xba",
          "removed": false
        }
      ],
      "logsBloom": "0x00000000000000000000000020000000000004000000000000000000800000200000000000000000000020000000000000000000000000000000000000000004000000002000000000000008008000000000000000000000000000000000000000000000000000080000000000000000000000000000000000000010000000000000000400000000000000000000000000000000000100000000000000000000000020000000000000000000001000000000000000000000000000000000000000000002000000008000000000000000100000000000000000000000000000000000000000000000000000000000000000000000000000000000000000000000",
      "type": "0x2",
      "transactionHash": "0xc1178a3edbc449beedc093b5dae469f0e51d9d81dfd8506f8b8bf599e04ef219",
      "transactionIndex": "0x9b",
      "blockHash": "0xa81168a18f36120e4b99cff5f9ee0ef0f142b2b36e77cdf7628fdd2d8c256438",
      "blockNumber": "0x757e65",
      "gasUsed": "0x177c4",
      "effectiveGasPrice": "0x4e0395bc",
      "from": "0x00000c771f6176268d5a9846e0956c3ef58597a1",
      "to": "0x356d0ae17b4ad1531f7cb610bb37580d56465a88",
      "contractAddress": null
    },
    {
      "status": "0x1",
      "cumulativeGasUsed": "0x116fa18",
      "logs": [
        {
          "address": "0x532544c07674d176b69eda770d174dbc0b09ccdb",
          "topics": [
            "0x5e4688b340694b7c7fd30047fd082117dc46e32acfbf81a44bb1fac0ae65154d"
          ],
          "data": "0xd051c5efeb3ed8723627b6ae3324f7068c910e3d5405a32a122c43d7a0d014e400000000000000000000000000000000000000000000000000000000000000000000000000000000000000007328a04faecfd60cf73a59feffea6689b36a5cea0000000000000000000000000000000000000000028f5c28f5c28f5c00004d5a000000000000000000000000000000000000000000000000000000000081f64d000000000000000000000000000000000000000080000011ad7b7d57d2db6557",
          "blockHash": "0x9f6f47f0890820e1e33dcae409e25127a1866f1df81bdf7cd47b1db68d309fe2",
          "blockNumber": "0x757e66",
          "transactionHash": "0x6c01c39c52559d74ab94eb7a77d5636571844b9e4c759543eb63d5b13d8b26d6",
          "transactionIndex": "0x73",
          "logIndex": "0xcc",
          "removed": false
        },
        {
          "address": "0xef427eea8d8c10b3d1d4be0fafea58da7cbd5f47",
          "topics": [
            "0xddf252ad1be2c89b69c2b068fc378daa952ba7f163c4a11628f55a4df523b3ef",
            "0x0000000000000000000000000000000000000000000000000000000000000000",
            "0x00000000000000000000000000000c771f6176268d5a9846e0956c3ef58597a1",
            "0x0000000000000000000000000000000000000000000000000000094a5b95b04a"
          ],
          "data": "0x",
          "blockHash": "0x9f6f47f0890820e1e33dcae409e25127a1866f1df81bdf7cd47b1db68d309fe2",
          "blockNumber": "0x757e66",
          "transactionHash": "0x6c01c39c52559d74ab94eb7a77d5636571844b9e4c759543eb63d5b13d8b26d6",
          "transactionIndex": "0x73",
          "logIndex": "0xcd",
          "removed": false
        },
        {
          "address": "0x532544c07674d176b69eda770d174dbc0b09ccdb",
          "topics": [
            "0xa2d4008be4187c63684f323788e131e1370dbc2205499befe2834005a00c792c"
          ],
          "data": "0x000000000000000000000000ef427eea8d8c10b3d1d4be0fafea58da7cbd5f47d051c5efeb3ed8723627b6ae3324f7068c910e3d5405a32a122c43d7a0d014e40000000000000000000000000000000000000000000000000000094a5b95b04afffffffffffffffffffffffffffffffffffffffffffffffffffffffffab65900000000000000000000000000000000000000000000000000000000000549a7000000000000000000000000000000000000000000000000001d70712ddacf720b000000000000000000000000000000000000000000000000006a94d74f43000000000000000000000000000000000000000000000000000821aacfdf9998da53",
          "blockHash": "0x9f6f47f0890820e1e33dcae409e25127a1866f1df81bdf7cd47b1db68d309fe2",
          "blockNumber": "0x757e66",
          "transactionHash": "0x6c01c39c52559d74ab94eb7a77d5636571844b9e4c759543eb63d5b13d8b26d6",
          "transactionIndex": "0x73",
          "logIndex": "0xce",
          "removed": false
        },
        {
          "address": "0x7328a04faecfd60cf73a59feffea6689b36a5cea",
          "topics": [
            "0xddf252ad1be2c89b69c2b068fc378daa952ba7f163c4a11628f55a4df523b3ef",
            "0x00000000000000000000000000000c771f6176268d5a9846e0956c3ef58597a1",
            "0x000000000000000000000000532544c07674d176b69eda770d174dbc0b09ccdb"
          ],
          "data": "0x00000000000000000000000000000000000000000000000821aacfdf9998da53",
          "blockHash": "0x9f6f47f0890820e1e33dcae409e25127a1866f1df81bdf7cd47b1db68d309fe2",
          "blockNumber": "0x757e66",
          "transactionHash": "0x6c01c39c52559d74ab94eb7a77d5636571844b9e4c759543eb63d5b13d8b26d6",
          "transactionIndex": "0x73",
          "logIndex": "0xcf",
          "removed": false
        }
      ],
      "logsBloom": "0x00000000000900000000000020000000000004000100000000000000800002200000000000000000000020000000000000000000000000000000000000000004000000000000000000000008008000000000000000000000000040000000000020000000020000080000000000000800000000000000000000000010000000000000000000000000000000000008000000000000000100000008000000000000000000000000000000000000001000000000000000000000000000000400000000000002000000008000000000000000100000000000000001000000000020000200000000000000000000000000000000008000000000000000000000000000",
      "type": "0x2",
      "transactionHash": "0x6c01c39c52559d74ab94eb7a77d5636571844b9e4c759543eb63d5b13d8b26d6",
      "transactionIndex": "0x73",
      "blockHash": "0x9f6f47f0890820e1e33dcae409e25127a1866f1df81bdf7cd47b1db68d309fe2",
      "blockNumber": "0x757e66",
      "gasUsed": "0x43cb9",
      "effectiveGasPrice": "0x4d3249f5",
      "from": "0x00000c771f6176268d5a9846e0956c3ef58597a1",
      "to": "0xef427eea8d8c10b3d1d4be0fafea58da7cbd5f47",
      "contractAddress": null
    }
  ],
  "libraries": [],
  "pending": [],
  "returns": {},
  "timestamp": 1739463087,
  "chain": 11155111,
  "commit": "ae8e64a"
}